:10000000020723CA39120C58DA3932020003120BE4
:1000100094A9A694B39206300606120C37120BE789
:1000200012090A120C1CD2AF020C6102085DA9C2AF
:10003000B47405120C43120C2AA9D2B430E002D3D6
:1000400022C3220200F9CA3B7A0D087F31E523B4AE
:10005000800280030200DC7F135E34007F7D237EFC
:100060003400809D327A350E7E350CBE350E380256
:10007000805D7E350E7A35107F137E0D081208B52F
:100080007E350C9E350E7A350C7E350E6D222F3165
:100090007E1D082E350E7A1D0880277E3400807A5A
:1000A00035107F137E0D081208B57E350C9E340086
:1000B000807A350C7E1D082E3400807A1D082E387B
:1000C00000807E350CBE34008050D04D3368267AD7
:1000D00035107F137E0D081208B5801974021208BE
:1000E000005E70F41209B07E350C7A35107F137EF5
:1000F0000D08120605D3DA3B22A9C09375380032E9
:10010000FFFFFFFFFFFFFFFFFFFFFFFFFFFFFFFFFF
:10011000FFFFFFFFFFFFFFFFFFFFFFFFFFFFFFFFEF
:100120007C6BC202E5211478030202CD1BB1780377
:1001300002023E1BB1780302028A1BB1780302025D
:100140009B1BB178030202B424F978030202C9248C
:10015000AF780302033724FD683B1478030202D012
:100160001478030202CD1BB278030202CD24DA68B0
:100170002724E6682024EB683C24F378030202CDB0
:1001800024F178030202CD24E778030202CD249FF4
:10019000680302034102033EBE6004500C7519005F
:1001A0007C162E10247CB7A5F7A5BE0002800302A2
:1001B0000341D202227CB6240078030203411BB122
:1001C000681E14681E14681E14681E0BB278333043
:1001D00001077E08003E02025B7E08014A02025BC4
:1001E0000202F50202FC0203140A277E0D390B16E7
:1001F0000B0A302D321B0A306D337E0D39793000F9
:1002000006227CB762197E2D392E5400060B2A2057
:100210007D120B141B2A107E0D392D123970000827
:100220007E0D396950000469200006BD2550030287
:100230000341B2017A0D337E3400020203337CB6EF
:100240001BB1681D14681D0BB16803020341300126
:10025000067E08003E80047E08014A7A0D390202BB
:10026000E40202F50A576D447E0D39693000020B35
:100270000A202F12793000021B0A207E1D397A1DB8
:1002800033D2027E340001020333BE60016809A547
:10029000BE02057A713DD203D2022275E600E47EE9
:1002A0003401047E2400FF7A1BB07E3401057A1BE2
:1002B000B0D20422A5BE01047A713722A5BE020283
:1002C00080030203417A7122227A713222D2022201
:1002D0001B6168211B6068241B6068381B606840D4
:1002E0000B62785D0A377D036D117E1D397911002F
:1002F000021B1A00220A577CABE480020A576D44A5
:100300007E0D39693000020B0A202F12793000026D
:100310001B0A20227C676C777E0D3979300004221D
:100320000A277E0D390B160B0A302D321B0A307E40
:100330003400037A352E227E3400047A352E751966
:100340000022CA3B7A15087F317E3508BE34000092
:10035000384F7E34FFFF7A3508750E0180437E34B6
:1003600000807A35117F137E080256120C0E7E35FE
:10037000089E3400807A35082E3800806D337A3537
:100380000F7E350F096302567E0D0A7E0B706C7668
:100390007A0B707E350F0B347A350FBE34008078BF
:1003A000E07E3508BE34008038B4E50E60050B34BD
:1003B0007A35087E35087A35117F137E0802561289
:1003C0000C0E6D3380177E350F096302567E0D0AC1
:1003D0007E0B706C767A0B707E350F0B347A350F8E
:1003E0007E3508BE350F38DEDA3B22A9C2B43007AD
:1003F00004740680027404120C43A9D2B422FFFFD5
:1004000056302E314465632031352032303135008D
:10041000465453383730375F7072616D626F6F7456
:1004200012000E02053F7E352E1B3468571B3578AF
:10043000030204B31B3478030204DC0B35680302A7
:10044000052B6D337A352E7A3530300505120BFDCC
:10045000C2057E0D33693000047A350C6930000224
:100460000B0A202E140008120046D2057E2D336997
:10047000120004693200020B2A2012095D2E34108A
:10048000000205286D337A352E7E3401007A35114D
:100490007E0D33693000020B0A202E140008120C66
:1004A0000E20000302052B7E1D3329B10008F591B3
:1004B00002052B6D337A352E7A35307E1800197A85
:1004C0001D0A7E0D33693000020B0A2069100004FA
:1004D000120342120BFD7E34F055804C6D337A3599
:1004E0002E7A3530E537B40A05120BD18033E53763
:1004F000B40B117EF0027CBF1209FB0BF0BEF012B0
:1005000078F4801DE5370A3B9E3400807CE76CDD83
:1005100080097CBE1209FB0BE00BD0E522BCBD3884
:10052000F1120BFD7E34F0AA7A35303004117E349E
:100530001388120B717E341388120B7175E9FF302A
:10054000060302042622CAF87CFB7EA0EFE52124E4
:10055000FD68491BB16832249F684E1BB2684F2466
:100560009E684624F1686024E76861246468030299
:1005700006004CFF78067EA087020600BEF00168E8
:10058000030206007EA0A780774CFF78057EA1239A
:10059000806EBEF00178697EA13D80640A1F7E1DD9
:1005A000392D3129A1000880577EA11980524CFFB6
:1005B00078097E35300A567CAB8045BEF001784024
:1005C0007E55307CAB80397EA0018034120AB77E24
:1005D00034D9017E080016740212069BC2CC4CFF6F
:1005E0007804E516801CBEF0017804E5178013BE80
:1005F000F0027806E51664FF8008E51764FF8002C4
:100600007CBADAF822CA3B7F307CB6F5127CB7F5AB
:100610001374017E35101E341B344E60801209B0F5
:10062000120798A9C2B4A9C6B375B502A936B3FC1E
:10063000A9C6B375B500A936B3FCA9C6B38512B572
:10064000A936B3FCA9C6B38513B5A936B3FCA9C6B0
:10065000B36D33802A7F132E35147E1BB0F5B5A9F8
:1006600036B3FCA9C6B37E35145E340001BE340037
:100670000178077E340078120B717E35140B347AC2
:1006800035147E3510BE351438CBA9D2B47E340073
:1006900005120B71E4120798DA3B227CAB7E240032
:1006A000017E7F02D6792700067E7F02D669270069
:1006B000064D2278F46C5580657E7F02D66947002E
:1006C0000A5E44000168F21B7A307E7F02D66947D9
:1006D00000084D4468F47E7F02D66947000A5E44F4
:1006E000000178F26D441B7A407E7F02D669470094
:1006F000084D4468F47E440001794700067E7F027D
:10070000D6694700064D4478F4694700020A487CE0
:10071000B9F518E5187A0BB00B140B340B50BCA5C7
:100720003897227584017E441FFFE47A49B01B4448
:1007300078F97EF802D9D205C206751900751A003B
:10074000751B00D200C202C203C2047521007522CB
:1007500000752380752E00752F00753000753100EF
:1007600075320075370B753800753D007E0400FF4B
:100770007E140C680B0A405D44681A692000020B65
:100780000E0B44800A7E0BB07A29B00B240B0C1B95
:100790004478F280DF020420CA79BEB000282E74AB
:1007A000061208007D736CFF7EF0A57D371209B03C
:1007B0006CFF7EF00F7D371209B06CFF7EF06A7D12
:1007C000371209B07E340005120B71803074017E3F
:1007D00034DFFF1209B074061208007D736CFF7DD0
:1007E000371209B07D371209B07D371209B0740293
:1007F0001208007D734EF0017D371209B0DA7922BC
:10080000A9C2B4A9C6B375B505A936B3FCA9C6B3C8
:1008100075B500A936B3FCA9C6B375B500A936B342
:10082000FCA9C6B3F5B5A936B3FCA9C6B375B50026
:10083000A936B3FCA9C6B375B500A936B3FCA9C6E1
:10084000B37E71B575B500A936B3FCA9C6B37EA158
:10085000B5A9D2B47C476C550A3A4D3222CA7BCA3C
:100860006BCA5BCA4BCA2BCA1BCA0BC0D0C083C0A1
:1008700082D20030901CC2907E7191E53870037A6C
:100880007121E5381201200538300206E4120546D0
:10089000F59130910BC2910538E538120546F59176
:1008A000D082D083D0D0DA0BDA1BDA2BDA4BDA5BCA
:1008B000DA6BDA7B327F70D2071203EB7402120B11
:1008C000196D3380127F072D137E0BB0F5B5A93655
:1008D000B3FCA9C6B30B347E2510BD2338E7A9D2DB
:1008E000B4120C4E12002E50097E351ABE3401F49B
:1008F00028F27E351ABE3401F43803020C65C28634
:100900007E341388120B71D28622CAF87EF070757D
:100910009100C290C2913006307E3400027A3511C7
:100920007E180F807E080008120C0EE508BEB0FF8E
:100930006817E5086013E5090A2BE5080A3B2D3224
:10094000BE3400FF78037EF1085EF0FE7AF192D2A9
:10095000E8C2C0A9D5B7D2BDD2ADDAF8226D007415
:10096000104D00780B4D2278278D317D126D22229B
:100970007D437D326D222F112D445002A50FBF10F3
:1009800040049F100B901478ED7F016D227D34227E
:100990007D417D138D247D022F004004BD04400461
:1009A0009D040B141478F17D237D317D106D0022A0
:1009B0007D230A367CA5A9C2B4A9C6B375B501A921
:1009C00036B3FCA9C6B375B500A936B3FCA9C6B346
:1009D00075B500A936B3FCA9C6B3F5B5A936B3FC05
:1009E000A9C6B37A71B5A936B3FCA9C6B37AA1B5C5
:1009F000A936B3FCA9C6B3A9D2B4227CABD20712E4
:100A000003EB7420CAB80A3A6D22740C2F111478C3
:100A1000FBDAB8120B19A9D2B4120C4E12002E50E8
:100A2000097E351ABE3401F428F27E351ABE34012F
:100A3000F43803020C65C2867E341388120B71D21F
:100A400086227CABD2071203EB74D80A3A7D236D61
:100A500033120B19A9D2B4120C4E12002E50097E7B
:100A6000351ABE3405DC28F27E351ABE3405DC3872
:100A700003020C65C2867E341388120B71D2862263
:100A8000CAF87CFBE523B4812374021208004CFFF2
:100A90007808A9C0CA5E70DF8006A9D0CA4E70204F
:100AA00074021209B074021208008008E523B480B1
:100AB00003120AEBDAF8227E0F02D66930000A7DB3
:100AC000235E24000278F0D2CC2E14000A4E60027D
:100AD0001B0A307E0F02D62E14000A0B0A304E601D
:100AE000011B0A307E34000A020B71D2071203EB9D
:100AF000A9C2B47405120C43120C2A7CABA9D2B45F
:100B00005EA0E3A9C2B47401120C437CBA120C4378
:100B1000A9D2B412002E40FB227CAB7D127CB3F52F
:100B2000147C367C250A047CB3F5137CB7F512A936
:100B3000C2B47CBA120C43E514120C43E513120C38
:100B400043E512020C437D52F5157CB67CA50A44A0
:100B5000F5147F21F513A9C2B4740B120C43E515EB
:100B6000120C43E514120C43E513120C43E4020C7F
:100B700043801800000000000000000000E53D7008
:100B80000A000000000000000000007D231B344D1F
:100B90002278E022D2CF853DCC75ECFF75EEFF7553
:100BA000EB0375AC40A9C5CA75ED0F75ADB0A9D7FB
:100BB00094A9D494226D22801375B500A936B3FC94
:100BC000A9C6B3E5B57A0BB00B140B24BD3238E9D6
:100BD00022D2071203EBA9C2B47460120C43A9D24B
:100BE000B412002E40FB22D2071203EBA9C2B47448
:100BF0009F120C43120C2AA9D2B4020AEBE532B4BC
:100C00000C0BC2867E340064120B71D28622120B4A
:100C1000467E3511120BB5A9D2B4D322C28C4389BA
:100C200002758C01758A00D2A92275B500A936B368
:100C3000FCA9C6B3E5B522D2C875B313A9D1B4A92E
:100C4000C0B422F5B5A936B3FCA9C6B3D322C28C71
:100C50006D337A351AD28C227E351A0B347A351AD6
:100C600022853DCC22020C58000402D600009C00D4
:020C7000000082
:00000001FF
