:1000000002048D02E5840122023DB602E5DF7D2374
:10001000023AE402E627220247FC2202E5E4C21685
:100020002222FF0220E27D437F1080071B447A0BCF
:10003000B00B144D4478F5220001010000010100CD
:100040000257ED02585A026038FFFF020E160000F8
:1000500000000000000000000000FF02E7F901FFBF
:100060000000000001FF74010260F902E973026DF3
:1000700038FFFF02247C40332D241E18100A0A0E7C
:10008000151E242B32352F28221A130A03000104CF
:100090000A121B252C310900000204080F19202721
:1000A0002B2D2E2E2E2C2C2D2E32353B434D565DD6
:1000B00062676A6D6E70DAE1FF5501020408102074
:1000C000408001020304040302010102030404034B
:1000D00002010102030405040302010102030405F5
:1000E00004030201FF00010200FF01020001FF0200
:1000F000000102FF740F7AB36F947AB36F9522FFF9
:10010000F4540BABE28E1D715EEEA111847B1BE4F7
:10011000FFFFFFFF0BF4FFFFFFFFC639FFFFF006F5
:10012000708F00FF847B01AA486302A900000000D1
:1001300000000000000000000000000000000000BF
:100140004A32320000000000000000000000000001
:10015000000000000000000000000000000000009F
:100160005869616F6D690000000000000000000028
:100170000100010101010101010101000101010171
:1001800001010101010000000808102410240000F2
:10019000010000000000000000000000000000005E
:1001A000000000000000000000000000000000004F
:1001B00000000000000102030405060708090A0BFD
:1001C0000C0D0E0F00000120012000000000012492
:1001D00001200048009100DA01230048009100DA74
:1001E00001231A050707000804001A05070701087C
:1001F00004001A050707020604001A05070703088A
:100200000301010A1E081400640DAC00C80190012E
:100210002C012C012C09C407D007D0019001900AB1
:1002200000022601050C213C000000000000000037
:10023000000000000000000000000000190B000199
:100240008701001B01840007001801020100010161
:100250000000000000000000000000001D00000081
:100260000000FF0064000000000000000000FFFF2D
:10027000000000000000000000000000000000017D
:10028000C6A50200000000000000000000000240BF
:1002900004800438021C3C3C019A01E0010001008A
:1002A000092404924141020801A401000100100048
:1002B000B40168021C000007A800640048000201A5
:1002C0000500960BB80A05060078015E01C21F40C2
:1002D00028025800C80014001A0018001103200159
:1002E00090064005DC040F0F005003E8005008D4CE
:1002F000000A019A019A032000C80043001E0080F2
:10030000021C00DC003C03E80492021C003C03E8F1
:100310000020041800000924006400A000A006408A
:10032000012C0000C2D57CB430E708B2D56E24FFA2
:10033000FF0B247CB630E712B2D56E34FFFF0B34CE
:100340008D326E24FFFF0B2480028D3230D5066E75
:1003500034FFFF0B34227D51AD037D027D21AD05BD
:100360002D12AD352D21227D02AD31AD102D212272
:100370006D0074104D00780B4D2278278D317D1261
:100380006D22227D437D326D222F112D445002A516
:100390000FBF1040049F100B901478ED7F016D2269
:1003A0007D34227D417D138D247D022F004004BDCC
:1003B0000440049D040B141478F17D237D317D10DD
:1003C0006D0022C2D57CB030E708B2D59F229F20B5
:1003D0007F027CB430E713B2D59F229F217F121297
:1003E00003729F229F207F02800312037230D50682
:1003F0009F229F217F12226CAA4D11681A1E5468F9
:100400000E0B38201B18200B350B151B5478F2509F
:10041000067E39407A1940226CAABE080000682086
:100420001E540B5450167E1B807A0B800B1C0B0C39
:10043000800A0B1A401B0A400B1D0B0D1B5478F24F
:10044000226CAA4D11681E1E54500C7E1B007A1996
:100450000068120B1C0B140B1A001B18000B1D0B51
:10046000151B5478F2226CAABE080000681E1E54A8
:10047000500C7E39407A0B4068120B340B0C0B3851
:10048000201B0A200B350B0D1B5478F222758401BA
:100490007E449FFFE47A49B01B4478F97EF88EE8E9
:1004A000C227C228C231C221C222C223C219C21A23
:1004B000C21BC21C755700C224C225C226C232D23A
:1004C00033C229C22AC21DC21EC21FD220C22BC2E1
:1004D0002C755906C234C20BC20CC20DC20EC20F1B
:1004E000C210D211C212C213C218C235C22DC22EFE
:1004F000C236C237D22FC2307E0400FF7E140559A7
:100500000B0A405D44681A692000020B0E0B448000
:100510000A7E0BB07A29B00B240B0C1B4478F280B6
:10052000DF0208B4CAF87F20800A7E1BF07A2BF025
:100530000B340B5469FFFFFC7DEF1BE479EFFFFCEC
:100540004DFF78E67F10DAF8227D23BE24000048B4
:10055000037D32226D339D322200018E930500010E
:100560008E940000018E990000018E9B0300018E85
:100570009C0000018EAC0000018EBB00000159FF01
:100580000100018E130000015939FF000201000033
:10059000000001019E0000010276000001027700C8
:1005A000001459CB01010101010101010101010008
:1005B0000000000202020202001459EB03030000D3
:1005C000000303000000030300000001010101011A
:1005D00000018EE60000018E140000028E1500005E
:1005E000003C8E1800000000000000000000000029
:1005F00000000000000000000000000000000000FB
:1006000000000000000000000000000000000000EA
:1006100000000000000000000000000000000000DA
:1006200000018E540000018E551100018E5600000D
:10063000018D1700000171FBFF00017865000002C9
:1006400078B60000000278C2000000018ECE0100E2
:10065000018EDC0000018EDD0100018EDE00000154
:1006600039F800000639FA10000000000000018986
:1006700071FF000139560000013957FF0001395858
:10068000FF0001395B640001395C0000018E5D00F0
:1006900000028E60002100018E640100018E67045B
:1006A00000018E880100018E8B0000028E8C0020DC
:1006B00000018E8E0000018E8F0000018E910000DF
:1006C000018E920000018EBEFF00028EC20000006B
:1006D0000481730000C1200004817C0000C100007F
:1006E0000200128180000200148380000103E600F2
:1006F0000002858285840001894402000289450048
:10070000000001896F000004001A000000000001D1
:100710008EE20100028EE3C30000048ECF0000C50C
:100720000000047A420000D00000047A460000A0D5
:100730000000047D240000B00000048ED40000C43A
:100740000000048ED80000C2000000001400680001
:10075000AC00EF0131017401B701FA023D028002E1
:10076000C303060349038C03D00424001D00670063
:10077000AA00EB012B016C01AC01ED022D026E020F
:10078000AE02EF032F037003B003F10431047204CF
:10079000B204F30533057405B405F506350676068F
:1007A000B606F70737077807B807F90839087A084F
:1007B000BC09100014006F00AC00EF01310174019E
:1007C000B701FA023D028002C303060349038C030A
:1007D000CF042300220100230B0101020123010E9B
:1007E00023FF0F01FF0F22FF0F23F5000105002358
:1007F000F60100F90101050F01050F23F6001108AC
:10080000090110070A020F060B030E050C040D0464
:100810000D000F0708010E0609020D050A030C045E
:100820000B000000000BB80BB80BB80BB80BB80BE3
:10083000B80BB80BB80BB80BB80BB80BB80BB80BA0
:10084000B80BB80BB80BB80BB8F448F448F448F43C
:1008500048F448F448F448F448F448F448F448F4B8
:1008600048F448F448F448F448F448F448000000D8
:100870006C00B500FE012200D9009000470047003F
:100880009000D9012200FE00B5006C0000000000BD
:100890000000000000000000000000000000000058
:1008A000000000000012F2DCE47AB38DB07AB38E5F
:1008B000130200F41230AB1253131208E21253C6A3
:1008C000123FC71208A5120C5F1251BA7EB35962CB
:1008D00024FD68090BB178F4120B7780EF1228A57C
:1008E00080EA7E34020D120971120B597A73593B5A
:1008F0007E34020F120971120B6C7A73593C7E34EC
:100900000215120971120B597A73593D12096D12B1
:100910000B6C7A73593EE47AB3593F7E34021F124E
:100920000971120B597A7359407E34006ACA397EB4
:100930003402237E2400FF7E0859411205241BFD4A
:1009400074027AB3594874AA7AB3596FE47AB359E6
:100950005874037AB3595974027AB35957227E34C2
:1009600002157E2400FF0B1A307A3769827E34022A
:10097000177E2400FF0B1A3022900203E4937AB30F
:10098000697A12F3127E34020D1209717A37697C8A
:100990007E34020F1209717A37697E7E3402111299
:1009A0000971120A4E7A37698012095E7A376984B2
:1009B0007E340219120971120A4E7A3769867E3422
:1009C000021B120971120FFD120971120A4E7A37B9
:1009D000698A90024FE4937AB3698E900206E49399
:1009E0007AB3698FBEB014500674147AB3698F7EDF
:1009F0003402071209717A3769907E34021F120996
:100A0000717A37698CE47AB369927AB36993227EFA
:100A100034020D1209717A37697C7E340221120981
:100A2000717A37010012F3127E34020F1209717AC3
:100A300037697E7E34021B120971120FFD12097193
:100A4000120A4E120B51120B647A73593C226E3407
:100A5000FFFF0B34227EB3598B600A120A0FE47A2F
:100A6000B38EE7803412CADB7E3402111209711290
:100A70000A4E7A3769807EB36998701D7EB38EE71F
:100A800070177E340221120971BE37676C280A7E06
:100A9000B3696E70047A37697C7EB3594760447ECF
:100AA000B359581BB1680D0478397E37697C7D13C2
:100AB0003E14800A7E37697C7E140003AD137E04E9
:100AC000000A8D109D317A37697C7D232E240032F7
:100AD0007A2701009E3400327A37697E120A4E7AF4
:100AE0003769807EB3594660577E27697C7E340023
:100AF0000AAD32120B5D7A37697C7D232E240064A7
:100B00007A2701007E57697E7E04000AAD507D255C
:100B10000E240E240E247A27697E7E176988AD1074
:100B20007D210E240E240E247A2769886D229E27AB
:100B300069887A27698A120B59120B647A73593CB7
:100B40007EB3593FBEB0AA680712095E7A3769843E
:100B5000227A37698A7E37697C1E341E341E341E21
:100B6000341E34227A73593B7E37697E0E340E343C
:100B70000E340E340E342230240F7EB359A9B40142
:100B80000874017AB36F93800312532EC224D28665
:100B9000120C5F7EB38EC9B4010280028120125311
:100BA0001C125035E4125FF812EA1A12266212295A
:100BB000657E34020B120971122B2B127AC2122A93
:100BC00023129068124DBD40CA1295A67EB3595F9C
:100BD000B40102D2867EB369937006120A5512CC14
:100BE00076128887124E3D124DBD40A77401120C3B
:100BF000341217781297111292557402120C341293
:100C00001CC17403120C3412A7ED7404120C3412BC
:100C1000EB9A120066124FF712EACE120FF46193AC
:100C2000D204122943124816020C2B7E7359627AA1
:100C3000738EC92224FD680A0BB17822E47AB36965
:100C4000772212A85C12B29C12B35A7AB369791255
:100C5000B5081286A612A71A126F77026A5F22CA17
:100C6000797EB38EACBEB0017802A19B7E1F8ED47C
:100C700069A100065EA408006802A18C6CEE120E49
:100C8000077E34F4B17E087D287E240006120D9E76
:100C90007DB3BEB4000678040BE080070BF0BEF015
:100CA0000340DEBEB4000678106CFF120FED197A17
:100CB0008EAF0BF0BEF00678F2120E077E34F31200
:100CC0007E087D287E240009120D9E7DB3BEB400EF
:100CD0000978040BE080070BF0BEF00340DEBEB4E1
:100CE000000978106CFF120FED197A8E9D0BF0BE83
:100CF000F00978F2120E077E34D2027E087D287E3B
:100D0000240002120D9E7DB3BEB4000278040BE0F5
:100D100080070BF0BEF00340DEBEB4000278106C1A
:100D2000FF120FED197A8EB70BF0BEF00278F212B7
:100D30000E077E34F39012F1F6BEB4000178040B76
:100D4000E080070BF0BEF00340E8BEB40001780875
:100D50007E737D287A738E9C120E077E34F3B31255
:100D6000F1F6BEB4000178040BE080070BF0BEF092
:100D70000340E8BEB4000178087E737D287A738E44
:100D800094BEE005780674017AB38EAC7EB38EAC67
:100D9000B401087E738E9C7A73596CDA792212EF53
:100DA0009C804D6D337E2F8ECF7932000A12EEC5B6
:100DB00012F3E47AB38ED3800E12F1795E3400011F
:100DC0006805122FE5800512EFFD68ED12F2047E32
:100DD0006F8ECF693600045E34000278F27EB38EE7
:100DE000D370116936000A6C667A7B700BF41B14A1
:100DF0004D1178AF020DF76D337E2F8ECF1B2A3049
:100E0000C2CC7D329D31227E087D287E340009E4EB
:100E10001200266CFF22CA7BCA6BCA5BCA4BCA2B64
:100E2000CA1BCA0B120FB15E34004068530B0A3064
:100E30005E340040684A7E340040793000027EB360
:100E40008E62BEB0016803B4041312672F300D0820
:100E50007E738E5B7A738E59E47AB38E627E1F8EB8
:100E6000D46931000A5E340FC0120B591E347A73F4
:100E70008E5EE47AB38EBE7EB38EE8047AB38EE8DB
:100E8000120FB15E34000868110B0A305E3400089E
:100E900068087E34000879300002120FB15E340019
:100EA0001068170B0A305E340010680E7E34001094
:100EB0007930000274027AB38EBE120FB15E340034
:100EC0002068170B0A305E340020680E7E34002044
:100ED0007930000274017AB38EBE120FB15E3440D5
:100EE00000682E0B0A305E34400068257E344000D6
:100EF00079300002D20C7EB38E5ABEB0C8500504C1
:100F00007AB38E5A7EB38E5AB401031200F412469D
:100F1000CF120FB15E34200068160B0A305E342009
:100F200000680D7E34200079300002D20C1246CFCA
:100F3000120FB15E34100068470B0A307D235E2427
:100F40001000683C5E3408002E34FFFF920F6930B9
:100F500000067D235E240001680C5E3404002E34FC
:100F6000FFFF720F920F7E34080079300002C2300A
:100F700012E9781243D71257847805C2081226E77F
:100F8000120FB15E34000468190B0A305E3400049D
:100F900068107E340004793000027EB3596070021C
:100FA000D212DA0BDA1BDA2BDA4BDA5BDA6BDA7B8A
:100FB000327E0F8ED469300004227E3402B91209C9
:100FC000717A37677F7E3402BB1209717A37678185
:100FD0007E3402BD12097112F1BF9002C0E4937A0F
:100FE000B36786E47AB3678A7AB3678B220AAF095C
:100FF0007A7D282212CD2912CD22020C2B7A376954
:10100000887E34021D227C2BA5BA0003024681A5EE
:10101000BA5F057EB38E0F22BE205C38070A320904
:10102000B38DB022BE206A6804A5BA6B1D7E378ED0
:10103000977D230B247A278E972E378EBC7E3930EE
:10104000A5BA6B03751F6A7CB322BE206E6804A527
:10105000BA6F2D7E076F96BE078E957E378E9528C8
:10106000081211095E303F80031211097E078E9528
:101070000B047A078E95A5BA6F03751F6E7CB32299
:10108000BE2070400ABE207F38057CB2022FFDBE14
:1010900020816804A5BA82207EA38DC70A3A2E3427
:1010A00001201211117C3B7CBA047AB38DC7A5BA1A
:1010B0008203751F817CB322BE20926804A5BA9377
:1010C000137EB38E9A0A3B09338EAFA5BA9303758C
:1010D0001F92801ABE20946804A5BA95197EB38E1B
:1010E0009A0A3B09338E9DA5BA9503751F94047A1D
:1010F000B38E9A7CB322A5BAFE0D7E238E88740827
:10110000ACB209B559AB22E4222E378EB57E393008
:10111000227A71827A6183E493227C7BC423541FF8
:101120000A2B09A265DC7CB754070A3B2E3400BAAF
:101130001211115CBA22CA796CFF6CEE80317CBE50
:1011400012111A60287E340002CA39AC7E2E346532
:10115000646D227E3002AC3F2E1465646D00120572
:10116000241BFD7CBF7E7001125B870BF00BE0122D
:101170005FEA38CA7AF36766DA7922CA3BC201129B
:10118000C6E46CDD4133D2007CBD1287E07DE3BE56
:10119000E4033408024131128FD5F52809C365658F
:1011A0000EE40EE4BEE4005058047EE40050BEC0DD
:1011B00002501E1217191212D72804C200803212D0
:1011C00017191212437DD3BED400082824C2008010
:1011D000200ACE1BC50AFCBDFC48161217191212B4
:1011E000D72804C200800A1217191212D72802C287
:1011F00000300035E528BEB00250121212CA280491
:10120000C20080251212CA2820C200801C0ACF1BEF
:10121000C5E5280AFBBDFC48101212CA2804C2000A
:1012200080071212CA2802C2002000057CBD125D90
:10123000010BD012C6D528022186300103121136C7
:10124000DA3B22CA797C937CE47CF57C8B7DF3A528
:10125000BA00357A81297A812A7C18800A12F33AF9
:10126000080A7A112A1B10BE100058F17A81297CD5
:10127000081A580B547C1B800912F33A083D7C0174
:101280000B10BCE118F380337AF1297AF12A7C1F24
:10129000800A12F330080A7A112A1B10BE10005877
:1012A000F17AF1297C0F1A5F0B547C1B800912F331
:1012B0003008087C010B10BC9118F3E52A0A2B0AB0
:1012C000309D320B340A37DA79227D3EE5287C5C8A
:1012D0007C4F7C3E7E20011212437DD3BED4000A97
:1012E000227CB07C711288587D133E140212EF7E6E
:1012F0001F2D2E2D310B1A3022CAD8CA79C2007E7A
:10130000B3696E600261976CFF807F12F2454CEE0C
:10131000781CBED0237817E412139C581174011264
:10132000139C580A74017E702312139F4822BEE05A
:101330000F7855BED0237850740E12139C58497400
:101340000F12139C5842740E7E702312139F58384C
:101350007CBE7C7D7E60011291A67F61125FF17D73
:10136000131A021A007F169F107E0800031203C38F
:101370007F71125FF17DD31A361AC62F67BE680BD4
:10138000B858057CBF125C3B0BF0125F6F280261FE
:101390000B300003121136DA79DAD8227E7022126D
:1013A00012E5BE3400FA227F717F607C5B7E700D97
:1013B000AC7509A3679E09B3679FF5397EB3699D34
:1013C0007C7B1E700A370A4ABD43580B753A00757C
:1013D0003B01753C0280180A3B1B347CB7F53A0A86
:1013E0003B7D231B247CB5F53B1B357CB7F53C7C52
:1013F000BA7E71391212E57D137D010E047DB10EA6
:10140000B40EB42DB07DA12EA4000A6C996C006CB2
:1014100011D201D202D2037E81398045300111E51B
:101420003A1214D25808BDA108040B908002C201E0
:10143000300211E53B1214D25808BDA108040B007C
:101440008002C20230030F1214D05808BDA1080454
:101450000B108002C2032001062002033003071B89
:1014600080BE800058B6D201D202D203E5390A3BD1
:101470000B347C878045300111E53A1214D25808AC
:10148000BDA108040B908002C201300211E53B129D
:1014900014D25808BDA108040B008002C202300318
:1014A0000F1214D05808BDA108040B108002C2030B
:1014B00020010620020330030A0B807E73699EBC64
:1014C0007818B37A6B907A7B007E1D357A1B1022D8
:1014D000E53C7C781212E57D13BDB122CA3B7CC687
:1014E0007CD77CEB7C7D1212E57A3531BEC0017869
:1014F000377CFDBED00028117CBE7C7D1B7012178E
:101500000808060A3D1B347CF77E73699E0A271B78
:10151000240A3DBD3258407CBE7C7D0B70121708FA
:1015200008350A7D0B74802F7CFEBEE000280E7CFF
:10153000BE1412170608060A3E1B347CF77E736938
:101540009D0A271B240A3EBD32580C7CBE0412178C
:101550000608040A7E0B747CBFDA3B22CA3B7CD7A8
:101560007CCB7C7D1212E57A352D7A352F7E1800E2
:101570002C12F44C12176E1217127E18002B12F454
:101580004C12174BBEB003280AE52ABEB00328034D
:10159000E4C1186CEEE52ABEB12950417AD12C1273
:1015A00017127CFC800C121755BEB00338090BE0F3
:1015B0001BF0BEF00058EF7AD12C1217127CFC8081
:1015C0000C121755BEB003380C0BE00BF07E73699C
:1015D0009DBC7F18EC4CEE683D1BE0803912170F64
:1015E0007CFD800C121735BEB00338090BE01BF0F0
:1015F000BEF00058EF12170F7CFD800C121735BE9D
:10160000B003380C0BE00BF07E73699EBC7F18ECC6
:101610004CEE68021BE07CBEDA3B22CA3B7A0D31FD
:101620007CD77CCB7AC13D7C7DE53D12F02D580303
:1016300012F4447AC139800F121726581112F0D0D3
:10164000580312F26C1539E539BEB00058EA0A5C4D
:101650000B54F539800F121726581312F0D0580387
:1016600012F26C05397E73699DBE713918E812F467
:101670003C5803753AFF12F105BE253B480512F4AC
:10168000340803753AFE12F056DA3B22CA3B7A0D53
:10169000317CC77CDB7AC13D7E713D12F02D580351
:1016A00012F4447AC13980147CBD7E713912172A34
:1016B000581112F0D0580312F26C1539E539BEB04A
:1016C0000058E50A5C0B54F53980147CBD7E7139F5
:1016D00012172A581312F0D0580312F26C05397EF3
:1016E00073699EBE713918E312F43C5803753AFFD2
:1016F00012F105BE253B480512F4340803753AFE85
:1017000012F056DA3B227C7D1212E5BE3531227A88
:10171000C12B7E352D7A352F227D3EE5287C5C7CE1
:101720004F7C3E6C2222E5397C7D1212E57D737E72
:10173000353EBD3722E52B7C7F6C661214DCF52B21
:101740007E18002B7A1D35E52B7C7F7E08002F123A
:10175000161BF529227CBF7E712C7E60011214DCE1
:10176000F52C7E18002C7A1D357CBF7E712C7E08EE
:10177000002F12168CF52A22125DFF1212F9125C4C
:1017800043125BC21259801211361281B112113606
:10179000128E1B121136125C9912117B125D7002AF
:1017A00017A2CA3B7ED367660A3D3E34CA397E180B
:1017B00065647E087D281205241BFD6C11752800C8
:1017C0006CCC0218647E4403FF7EE0FF6CFF804314
:1017D0007CBF12111A603A12F344BEB0FF6832099E
:1017E000037D290A207402ACBC09058E1912196008
:1017F0007D137402ACBF09057D280A207402ACBCBD
:1018000009058E181219602D13BD4128047D417CF5
:10181000EF0BF0BCDF38B9BEE0FF68467E7002AC6B
:101820007E09B37D2809737D291212E57D23740298
:10183000ACBE09B57D281290D1BD2348257E70022B
:10184000AC7E09037D287EA1287402A419057D645D
:1018500009037D2919057D6574FF19B37D280B10D7
:1018600005280BC07E038E54BC0C28030217C57CD0
:10187000C180656D007EE0FF6CFF80337CBF12117C
:101880001A602A7E3002AC3F09B17D28BEB0FF68E5
:101890001C09717D291212E57D43BD04580F12F316
:1018A00044F52909B37D29F52A7D047CEF0BF0BCB2
:1018B000DF38C9BEE0FF681E7EA129128FBA19A1C8
:1018C0007D64E52A19B17D657EA0FF7E3002AC3EC5
:1018D00019A17D2805280BC01219673896900204BB
:1018E000E4937CAB7402A4CA597E187D647E087DA3
:1018F000281205241BFD7ED128121FB67402AC7B72
:101900007E088E1874FF120026BED00028380A3DCB
:101910003E34CA397E187D287E0865641205241B72
:10192000FD0A3D3E34CA397E187D287E088E181285
:1019300005241BFD6CCC800A7CBC7E7001125B8789
:101940000BC0BCDC38F27AD38E547AD3676690022F
:1019500003E493BEB3676650047AB36766DA3B224A
:101960000A309D32020549900203E493BCBC22CAAE
:101970003B7F617F707E087D4E121FF77E087D5889
:10198000121C257E087D62121FFF7E94001E7DB909
:101990007EA765609EA4001E7E8765629E84001EF1
:1019A0006CCC61510A3C2D3D7D2C7E1BB0B40102F4
:1019B0008002417F12F1E8B40106740339B00001DE
:1019C0002D3F7D2E29B10001B40302800241630A3C
:1019D0003C09638BD50A2C09728BC1BC674002415C
:1019E0005F7EB38E64B401777CBC7D3B7D2A7D191C
:1019F0007D08129FE950680A3C2E348BD512B294B0
:101A000074010A3C19B37D4E7EA00312F2526CFFA2
:101A100080467E700DAC7F09D3679BBCCD78372E96
:101A20003467977E140029740D1203F77E086797B8
:101A30007EB3696D7C7F128F3A401B74020A3C1999
:101A4000B38BFD7E700DAC7F12A68CAC3C2E148C3B
:101A50008B740D1203F70BF012A23D38B561376C91
:101A6000AA801712A4D270057EA002800D12A4D203
:101A7000B40202800261377EA00212F25261371274
:101A8000F1E8BEB0026804600261230A2C09A28D4D
:101A90000D4CAA780874010A2C19B28BCB0A2C09B8
:101AA000228BCB09328BDFBC3250410A2C09B28B1E
:101AB000F370390A2C2E248BDF7CB3047A29B0749E
:101AC0000212F42474010A2C19B27D5819B28BE960
:101AD000E419B28BCB4CAA785E7E2400017CBC60FA
:101AE000053E241478FB4E278C078031740112F4D4
:101AF00024E40A2C19B28BD519B28BDF19B28BE909
:101B000019B28BF319B28BCB7E2400017CBC60052B
:101B10003E241478FB6E24FFFF5E278C077A278C07
:101B2000078014740312A0F2E40A3C19B38BD51990
:101B3000B38BDF19B38BE912F3B07E0B70397000F1
:101B4000017F172D35297100010A2C19728D0D0B9B
:101B5000C0121967280221A46CEE6CCC801A7E702A
:101B60000DAC7C09D3679B0A2D09B27D4E70072E00
:101B700034679712F0750BC07E73696DBC7C38DEDC
:101B80007528006CCC80470A3C09B37D58603D0540
:101B9000286CFF7E900DAC9F09D48C0DBCCD7825B0
:101BA00049348C0912F3B07930000249348C0B7F30
:101BB000072D15793000047E700DAC7F2E348C0912
:101BC00012F07580070BF0BEF00A40C70BC0121967
:101BD0006738B47CFE6CCC801B7408ACBC7F172DBE
:101BE000357E1BB0B4010B7CAF0BF0740DA419C58E
:101BF0007D660BC012196738E06CCC12F2BB2E1454
:101C00008C09740D1203F712F2BB12A22A0BC0BE8C
:101C1000C00A40E77AE3696D7EB38D1725287AB351
:101C20008D17DA3B227E34000A020026CAF86CAA1D
:101C300080407EF0037E9008AC9A7F102D347A1B92
:101C4000F074037F102D3439B100017E347FFF7FA3
:101C5000702DF4793700027F702DF479370004E499
:101C60007F102D3439B100067F102D3439B10007B3
:101C70000BA0121CB938BB12F3A774011200267E08
:101C8000088BCB121FF77E088BE9121C257E088B70
:101C9000F3121C257E088BD5121C257E088BDF12C3
:101CA0001C257E088BFD121C257E088C09121FFF47
:101CB0006D337A378C07DAF822900203E493BCBACA
:101CC00022CA69CAF87E48691D6CAA801A12A7BE8A
:101CD0001962679B74FF0A4A19B47D3CE419B47D0C
:101CE0002819B47D320BA0121CB938E17E63696DEE
:101CF000A5BE003B7EB38D177002E18F6CAA8028D1
:101D00007E247FFF7E3008AC3A7F742DF179270066
:101D1000022D197D08792000047E3002AC3A592149
:101D20008D2C59218D180BA0121CB938D3E18F7E50
:101D3000B38D177033BE6000282E6CAA802012F27B
:101D40005FAC3A12F0C0AC5A12F3B974010A4A19E6
:101D5000B47D287E500DAC5A19A2679B0BA07E6300
:101D6000696DBC6A38D8E18F6CAA80197E447FFF08
:101D700012F42C59422D3259422D3459422D5A59C0
:101D8000422D5C0BA0121CB938E27E638D17BE6336
:101D9000696D280ABE600240057E700180026C7782
:101DA0006CAAC1536CFFC14A7E5008AC5F7F642DA2
:101DB000D269060002BE047FFF7802C1480A1F09EB
:101DC000B17D326002C148A5BF01607E5002AC5FA8
:101DD00049428D2CBE447FFF685149E28D2C69F643
:101DE00000027D4F9D4E2D4F49E28D1869F600048B
:101DF0007D2F9D2E2D2FBE44000058026D44BE2421
:101E0000000058026D227EF76560BDF458047E47DD
:101E100065607EF76562BDF258047E27656212F345
:101E200026594F2D32592F2D34800F12F326590F7A
:101E30002D3269060004590F2D340A0A19F07D3C31
:101E4000740119B17D3280090BF012A8542802A147
:101E5000A80BA07E638D17BC6A2802A1A46CAA807F
:101E6000207E7008AC7A7F042D13693000027E500A
:101E700002AC5A59328D2C6930000459328D180B3E
:101E8000A0121FB6BC7A38D96CAA802B0A2A09B2D4
:101E90007D3CB4FF206CFF80180A4F09B47D32707E
:101EA0000E0A2A19F27D3C740119B47D3280060BAA
:101EB000F0BC7F38E40BA0BC7A38D16CAA801A7EC3
:101EC000700DAC7A4943679712F42C59422D5A4948
:101ED00033679959322D5C0BA07EB3696DBCBA385B
:101EE000DE7E342D327A377D487E342D5A7A377D26
:101EF0004A7E342D827A377D4C7E738D177A737DBE
:101F0000467E73696D7A737D477E087D4612335E27
:101F10006CAA804A7E70FF6CFF80197E5002AC5F15
:101F200049122D820A2ABD2178080A3F09737D3C97
:101F300080070BF012A85438E2BE70FF681E7E5076
:101F40000DAC5A1972679B74010A4719B47D2812A7
:101F5000F25FAC3712F0C0AC5712F3B90BA07E633E
:101F6000696DBC6A38AE6CAA80200A3A09B37D2834
:101F7000BEB001681312A7D17F042D13794000026F
:101F80002D397D28794100040BA0121CB938DB12D1
:101F90001FAA12A0FA121FAA12A0487AB38D171214
:101FA0001FAA12196FDAF8DA69227F047E187D28D9
:101FB0002274FF120026900203E4937C7B22121FFE
:101FC000B6740DAC7B7E086797121FB1740DAC7BA5
:101FD0007E08689B121FB1740DAC7B7E0868197473
:101FE000FF1200267E08691D121C2C7E08696D7E7A
:101FF00034000DE40200267E34000AE40200267E4E
:1020000034008274FF02002670057CB70258D9B4F0
:10201000A00FA5BF01047402800274017AB38EADD3
:1020200022B401197E0F2D2E7D217A278EBC6D22C0
:102030007A278E977A738DB17CB7023804BEB05C74
:10204000383D0A2B19728DB07C6B2E60E368162E1A
:1020500060F7681F2E600D78337E638DC812208D67
:102060007A378E95227E638DCC12208D3E347A375E
:102070008E97227E638DD512208D7A738E5C22BE60
:10208000B0704008BEB07F38030220AB227C466CA3
:10209000550A372D32227C6B12463D78057CB602FC
:1020A00058FCB404057CB602200822248A78197EE4
:1020B0000F8ED4A5BF00081220DA5E70FB800612D6
:1020C00020DA4E70041B0A30222E14000E0B0A3048
:1020D0005E60FD1B0A307E0F8ED42E14000E0B0A9C
:1020E0003022CAB8CA1BCA0B120FB15E3480006816
:1020F0001C0B0A305E34800068131220DA6E7040C8
:102100001B0A307E3480001221601246C6120FB1C5
:102110005E34000268190B0A305E34000268101247
:1021200020C91227FD7E3400021221601246C61219
:102130000FB15E340001681F0B0A305E3400016885
:10214000161220DA4E60021220D312EE2C7E3400DA
:102150000112216012E74AC2C1DA0BDA1BDAB83287
:102160007E0F8ED47930000222125784681912270C
:10217000B11220D64E60021220D312EE2C1227EBA1
:10218000E47AB38EC4802E12001E12EAC9E412272C
:10219000ED7E0F8ED42E14000A1246607AB38E5E46
:1021A0007AB359607AB38EC47E0F8ED41220C912CE
:1021B00027FD1227981255771248410221BE74015B
:1021C000122EF16CAA7E638E887E7008AC6709B30C
:1021D00059AB0A2B7E3002AC3A2E1402D7127D7214
:1021E000BD2378047AA339617E501EAC5A19723926
:1021F000650BA0BEA00378CD7E733961BE7003402D
:1022000005E47AB339617EB339611295D07E7339B2
:10221000617A7339F7227CABD20512E9C41BA0683E
:10222000341BA068461BA0780241B61BA068590B5E
:10223000A2680241C5D2081226E77E348D401223DF
:102240003912E57812E55F1243B91220D612E55F24
:1022500012645C802ED2061226BD12F15E1222CAD2
:1022600012F15E12236112234580541257847807BD
:10227000D2081226E78005D2061226BD7E348D567E
:1022800012233912672F803F7E34000BCA397E63D8
:102290008E8FAC672E348D406D227E088000120533
:1022A000241BFD7E3400017A3780007E34800012CA
:1022B0002339740480097E348D6112233974037AC2
:1022C000B38E628002C205A205221227F679300081
:1022D000121267260B0A305E607F1B0A30E54054FD
:1022E0001F0A2B122350E54112239D122350E54271
:1022F000540312239F3E241223507E353EBE3400E9
:102300000278351267260B0A304E60801B0A30E5D2
:1023100043541F7C4B6C55122350E54454010A5B17
:10232000C42354E07CABE412F1501B0A30E54512A3
:10233000464E12F1501B0A30227E14003E740B12DE
:1023400003F71222CA74017AB38D6FD230D22F22D2
:102350007E0F8ED42E1400120B0A304D321B0A3021
:102360002212EE8D5E70F812EE8A4E70031B0A3058
:102370001227F679300024E546541F0A2B1226B4A2
:10238000122358E54712239D1226B4122358E5481C
:10239000540312239F3E241226B402235854010AE8
:1023A0002B3E243E243E243E243E24227A1F025EFD
:1023B00074017E1F025E6D227E14005A7E10817FA2
:1023C000717D316D222F171B1C70527E1400017E0F
:1023D0002F8173791200061226401B2A106D117E80
:1023E0002F8173791200087E2F817312F19E7E2F48
:1023F000817C12EF817E2F817C12264412F3D47EE1
:102400002F817C12F0E77E2F817C12EF0E7E2F81D0
:102410007C12EFB61223A37E0F817C8053B4015B44
:102420007E1400017E2F817C791200067E2F817C34
:102430001226441B2A106D117E2F817C7912000810
:102440007E2F817C12F19E7E2F817312EF811226E6
:102450004012F3D47E2F817312F0E77E2F81731226
:10246000EF0E7E2F817312EFB61223A37E0F8173BE
:102470000B0A305E70EF4D321B0A3022CA7BCA79DC
:10248000CA2BCA1BCA0BA921A202C12E75A7F774B9
:10249000017AB38E91E5A4B43F028002A1D57EB348
:1024A0008E1244027AB38E1220E002A1C3743F7AE6
:1024B000B381807EF381777CBF20E708E4CAB8123D
:1024C00060E4A1B97CBF20E702C1287EE38EAE7C28
:1024D000BE30E02A7CBE54FE122639CAB87E378E42
:1024E000972E378EBC12264DDAB81223BF7E1D16EA
:1024F000693100032E378E977A378E97C1287CBEBC
:1025000030E1237CBE54FD122639CAB87E378E9541
:102510002E378EB512264DDAB81226AC2E378E9590
:102520007A378E95C1287CBE30E3237CBE54F712E7
:102530002639CAB87E378EB92E378EA812264DDAC4
:10254000B81226AC2E378EB97A378EB9C1287CBE28
:1025500030E4297CBE54EF7AB38EAE301C067E1870
:1025600001AA80047E1802047A1F025E7401CAB8B0
:102570007E1F025E6D227E14005A803D7CBE30E5D7
:10258000157CBE54DF122639CAB87E348EAF6D2258
:102590007E17817980237CBE30E60F7CBE54BF124B
:1025A0002639CAB87E348E9D80097401CAB87E353A
:1025B000140B346D227E178179122653DAB8122358
:1025C000BF8065301C067E1801AA80047E180204B4
:1025D0001223AC8053E5A4B4C01B7EB38E12440119
:1025E0007AB38E1274C07AB381801260E37E1001D8
:1025F0001223BF8033E5A4B4050E74057AB381803D
:102600007EB38172F5A480237EB38E1244087AB320
:102610008E12E5A424C67813301C067E1801AA8009
:10262000047E1802041223AC1266C0A9C1A3DA0BFF
:10263000DA1BDA2BDA79DA7B327AB38EAE740122C6
:102640007E2F81730B560B2A105E20FC226D227E9A
:102650001781797CBF232354010354807C1B4E10C7
:1026600001227E34593B302142C2217E39500A2555
:102670001223A17A27697C095300010A251223A19C
:102680007A27697E095300020A251223A17A276955
:1026900082095300030A251223A17A27698409734A
:1026A000000512F06A3E347A37698C221223BF7E0D
:1026B000378179227E0F8ED42E14002422A2069216
:1026C0000912647B12F37212EDB712F36912EDB7BF
:1026D0001280811227DF0226D97D123E342E34A0CB
:1026E000006D221B1A1022A208920912647BA20814
:1026F000920912F37212ED7DA208920912F3691287
:10270000ED7D1280811227DF0226D9CAF86CFF7492
:10271000EEACBF7DD52ED4010012F3C20AC73EC471
:102720003EC43EC40BC6097559AC0AB73EB43EB4AC
:102730003EB40BB67EA4002C7AA52C7EA400087AA9
:10274000A52E12F28B7D3C7D2B12EEE67D3C7D2B7F
:1027500012EE517D3C7D2B742A12ED6512F132127E
:1027600026D912F1231226D912F1141226D912F108
:102770003212278A12F12312278A12F11412278AA1
:102780000BF0BEF0044088DAF8227D123E342E347D
:10279000B0006D221B1A10221220D65E607F12EE4E
:1027A000795E700F1B0A30C2011227CED2080226B2
:1027B000E712F0207806E47AB38E8F221220DA5ED8
:1027C00070FB1B0A3012671712F141026460A2010C
:1027D00092027E0878EE12ED531227E20226D912F9
:1027E000278A7E3400277E2778EE2274017AB38E02
:1027F0008F7AB38E88226D337E0F8ED4224E700274
:102800001B0A3022E47AB359606D337A378EB97A75
:10281000B38E9A12F3CBC200122ED67E340520CA94
:10282000397E1F2D2A7E0F2D2E1205241BFD122806
:102830003712CFEB020C5FE47AB38D6F12F2A31262
:10284000EF65C20412285712EAAB400674037AB34C
:102850008D6FD204022857A2AC920512F2FD30040B
:102860000A0B160B0A304E700380080B160B0A3049
:102870005E70FC1B0A30A20592AC221229A9C20488
:10288000122857C20C300B18D204122943C20B1263
:102890002169122F29122FD67401122EF11200F481
:1028A000D2040228571228047EB38EC9B4030280D2
:1028B0000221317404125FF8122965122B277EB3AE
:1028C0008DB020E7077EB38DC1B40160122B146870
:1028D00005C20412294312287B300E0AC20ED20010
:1028E000122ED6122837122B146805127B9F800EE9
:1028F000127AC27EB38DDC7E738E8E127BC87EB35D
:102900008E8FB4010A122B146805C2041229437E6B
:10291000B36F93B4010C1295A612CC76124E3D12F1
:1029200017787EB38DB0547F7AB38DB0123FD0014B
:10293000A8D224D204122943120007020C2B122819
:1029400037D204124703801112F3FC40031246CF22
:10295000300B031246CF1229A912F3F468EA3004AF
:10296000030244842212287B7EB36F94600D80069C
:10297000122B2712287B124CC250F57EB36F956044
:102980000D8006122B2712287B124B7D50F5022951
:1029900091301D147E340008CA397E638E8812F28D
:1029A0002B1205241BFDC21D2230313912308F78C5
:1029B00034C2317E342800122B1C7E341000122BBE
:1029C0001C7E34F700745A1229E67E34F70174A590
:1029D0001229E67E34F70274951229E67E34F70355
:1029E00074270229E62212F00A0A3B7E0F8ECF7965
:1029F0003000081266F0E47AB38ED3800E12F187AD
:102A00005E3400016805122FE5800512F21168EDB1
:102A100012E7D612E7C978FB022A1B6D331B0A3076
:102A2000C2CC22125784780241DA7E738EE8BE70DF
:102A300008500241DAE47AB38EE830340241DA7E9B
:102A400034AC00122ADB7C9B7E340A00122ADB7A2B
:102A5000B37D287E340B00122ADB7AB37D297E34C5
:102A60000D00122ADB7AB37D2A7E34F801122ADBAC
:102A70007AB37D2B7E34F802122ADB7AB37D2C5E8A
:102A8000900178137EB37D28B49C0C7EB37D2970B1
:102A9000067EB37D2A60114C9968097E34AC0074BF
:102AA000011229E6D23480127EB37D2BB487097ED1
:102AB000B37D2CBEB0196802D23430341D7E342868
:102AC00000E41229E67E341000E41229E6A9C0943D
:102AD0007E340002126429A9D0942212F00A6D33C8
:102AE0007E0F8ECF7930000A1266F0E47AB38ED36F
:102AF000800E12F1875E3400016805122FE5800513
:102B000012F21168ED12E7D612E7C978FB6950009E
:102B10000A022A1B7EB38DC1BEB00122E41229E64F
:102B20007E3400460264297E3409C46D227A278EE1
:102B3000C57A378EC722CA3B7CDB7E3403E87A3500
:102B40002D7E343E807A352F7E376F960B367A3560
:102B5000297E9003AC9D09A459E10ADA6DCC7E145C
:102B600005DC7F161203677F01097459DF7CB760AB
:102B70000C1E141E0450034E20801478F47D217A1C
:102B8000252B7EF400047CB760053EF41478FB0A24
:102B9000EABDEF68167E143E8012F2C77DE37AE547
:102BA0002F7E1403E812F2C77A352D122EAD7E3433
:102BB00002D8E41200267E087D287E3402D874FFF5
:102BC0001200267E08138612F1AC7EC005122B2758
:102BD000BEC00758137E3400017CBC60053E34142F
:102BE00078FB7CB7F52880037528C0BEC006581D49
:102BF0006D7780110A2D12EB7C2D3712EB8C452856
:102C00007A39B00B747E376F96BD3738E7122EAB2A
:102C1000122CC612293E7E1813867A1D317E352D60
:102C20007A35377E352F7A35397CBC7E352B7E0858
:102C30007D287E51287C4D12EAF7200B06200C03DC
:102C4000202F07202F7DD22E80791BC0BEC00048C8
:102C50000261CD7EB38DD0B401107EB38DD1B401AD
:102C6000097EB38EADBEB00268346D7780287D27B3
:102C70003E2449321386BE352D2819BE352F5014F7
:102C800009777D28BE70FF680B0A0D122FF42D27DF
:102C900019725A000B747E376F96BD3738D0122EDA
:102CA000AB122CC67CBD1278B750157E0862887EA8
:102CB0003529740C12002674037E086288122CC613
:102CC000122FD6DA3B22CA3B7F607CAB6DEEBEA0F2
:102CD000044002A1D77408A409B559AFF5317403B3
:102CE000123D9E7EA769D97EB769D72DBA7E087A34
:102CF0004A7E34016D74FF1200267E087BB77E3455
:102D0000016D1200266D7780117D373E34492369AD
:102D1000F3122FEC19727BB70B74BDA738EB7D7AD9
:102D200080117DA73EA4492A69F3122FEC19727A0B
:102D30004A0B74BDB738EB6D337DF37DE37D737D56
:102D4000271E241E247CAF7E0779127CBA60051EE4
:102D5000041478FB5E04000F7E17791612F37B785B
:102D6000027DF27E0779247CBA60051E041478FB8C
:102D70005E04000F7E17792812F37B78027DE20B48
:102D800076BE74000F40B812F0F67D737D372D3F8C
:102D900009737A4A19777B6E7D372D3E09737BB7AD
:102DA00019777CDB0B74BE74002478E07ED131741B
:102DB000EEACDB2E6401002E6400357E0880007EC0
:102DC000187A4A122E9D123B8B7E0880007E187B5B
:102DD000B7122E9D123DF8DA3B22CA797F717EA090
:102DE000256C776C666C556C44C1797C97AC9A0AFB
:102DF000D42D4D7EF049ACF77DD7A5BC000B7EC429
:102E00000124122E8B7DC7802AA5BC12127EC4011C
:102E100047122E8B7DB77EC4014812F2738014A531
:102E2000BC24157EC4016B122E8B7DB77EC4016C51
:102E300012F273122EC7803FBE4012501E7EB401A4
:102E4000259DBD0AC62DCB122E8D7DB77EA40126F1
:102E50009DAD0AC6122EBC0B61801C7EB401499D3B
:102E6000BD0AC52DCB122E8D7DB77EA4014A9DAD26
:102E70000AC5122EBC0B510B40BCA42802A1EB0BBF
:102E800070BE70055002A1E3DA79229DCD7F572DE7
:102E9000BC7E5BB00ABB7D7B7CEF6CFF22122DDA1F
:102EA0007D367E0880007E2400B9227CBD0A0D7E1E
:102EB0001402D8AD102E145A006D00222DCA7F477F
:102EC0002D9C7E4BB00ACB2DCB7EF002ACF97F500F
:102ED0002DB71B5AC0226D337A378E97D204122930
:102EE00043123835124841122F29A200E433022E32
:102EF000F17CABE47AB339627AB339636C776D22D3
:102F00007E901EAC975924396759243969E419B465
:102F100039660B70A5BF03E6E47AB339BF7AB339DB
:102F2000644CAA68031200F4227E1F2D2E7A378E7D
:102F3000BC7E638E880A06122FF42E245A007A274C
:102F40008EB56D227A278E957E2469F37A278EA816
:102F50007E240008CA297E700812F22B1205241B59
:102F6000FD7E340005CA397E638E88AC672E3459E5
:102F7000CB6D227E088DF01205241BFD7EB38E885A
:102F8000123B36122FCE097559EB7A738DD0122F62
:102F9000CE097559EC7A738DD1122FCE097559ED82
:102FA0007A738DD2122FCE097559EE7A738DD312A2
:102FB0002FCE097559EF7A738DD47E738E887A730C
:102FC0008DE0022FC57E738E8F7A738DBC227EA317
:102FD0008E887405A422E47AB38E90022FDE6D33BE
:102FE0007A378EC02274017AB38ED3227F062D17D2
:102FF0007E0B70227E1402D8AD107D21227C7B7E58
:10300000A0FF7CB7248C682424FB683014684C141F
:10301000683A14684B146848240778707E1F8ED471
:103020006951000E5E5400047CAB80607E1F8ED41C
:10303000695100065E5400017CAB80507E1F8ED427
:10304000693100065E3404000A56800712308F0A88
:10305000561E541E541E547CAB80317EA1EF802C32
:103060007E638E5C7CB6047AB38E5C0A2609A28EDF
:10307000687EB38DD6047AB38DD670097EB38DD5B4
:10308000047AB38DD5A5BF7D03751F7C7CBA227EE3
:103090001F8ED4693100065E3408002212308F780A
:1030A000097E34B480740A0229E62275A400E41271
:1030B000315112E93D12E70012E7EA12E79C122BA8
:1030C0002712E7E312E69312E79712E69812E69FBB
:1030D00012E71E12E72812E73812313612309C121E
:1030E000600012E75812E5B112E83BD2AF90018AB6
:1030F000E493CAB812312E7E244331DAB812316C0F
:1031000090018AE493CAB812312E7E244121DAB8A4
:10311000123184023116A927C11312308F780E7E26
:1031200034F31E122ADB7E34F4C10229E622900118
:103130008BE4937C7B2212EE99E47E3401F402311D
:10314000417CAB7402A47E0F8ED82D15793000100F
:1031500022D2CFA9C7CBF5CC75E600C20002316000
:10316000A9D5C312645CA200A997C122543F5E7026
:103170003F12EF49593100327E378EE35923001454
:10318000A9C6CB2212EF495931003E7E378EE35952
:1031900023003C1231A94E70101B2830A9C6CB2247
:1031A0000A5B030354C07CABE47E278EE32E24002D
:1031B000380B28302212331F1231A91237FDA20515
:1031C000E4331231A04D351B28301232D60231D0F3
:1031D0006930000A1231F7A9C6CB227A377D307EDA
:1031E000087D28A9D6CBC23812332212354C12F3EF
:1031F000041232DC0231D07D037EA1CD75CD00C238
:10320000AF8002D2AF7EB38E1220E2F77D204E5007
:103210000112360A4D121B38106C99000B90BE90AB
:103220000878F8D2AF80427E178EE30B18105E1438
:103230000008BE1400087831C2AF8002D2AF7EB35E
:103240008E1220E2F7BE0400D078077E340002120E
:10325000646012360A4E30041B3810D2386C990064
:103260000B90BE900878F8D2AF12F1955E348000D2
:1032700068B50B28304E60401B28306D221232E0BA
:103280007AA1CD227F7112EE9D12F16B1233537C25
:103290004B6C55E5280A3B4D321236122977000255
:1032A00012F06A7E7B406C554D23297700047C64C4
:1032B0004C75123552297700017C47297700037C31
:1032C0006412367A1231A91237FD6D221232E07E75
:1032D0003400300231D429B0000354077C4B6C55C4
:1032E0007E378EE31B38202212331F6930000C1208
:1032F00035526930000E1236121232D60231D0A980
:10330000D6CB693000021236716930000412F21E09
:1033100012333E6D221232E07E3400600231D4A9B5
:10332000D6CB693000047E278EE359320004693021
:1033300000067E278EE359320006693000087E279A
:103340008EE3593200087E0B707C476C5529700063
:10335000010A372D327E278EE35932000C22CAF83B
:103360007F707E7BF029770001BC7F28027CF769A3
:103370001700066D007E3400F274FF1200267F07EE
:103380001232FFA9D6CB6CAA802D6C77801F7E10DD
:103390000BAC1A0A172D013E04691700062D106D9B
:1033A000000B0A206E24FFFF1B0A200B7029670008
:1033B00001BC6738D90BA07E7B60BC6A38CC69370A
:1033C00000061236717C4F6C550A3F1233536D2242
:1033D0001232E012F2FD12F3571B0A30D2AC7E34E7
:1033E00000D01231F712465A6CAABEA00450157EC6
:1033F0007004AC7A1234564944002660341E4414DA
:1034000078FB802DBEA00850140A3A1B36123452A5
:1034100049440028601B1E441478FB80140A3A9E1D
:103420003400081234524944002A60051E441478BE
:10343000FB5E44000F7E5002AC5A693700062D3205
:103440006D221B1A400BA0BEA00B409EA9C6CBDA72
:10345000F8223E343E347CB77E478EE322A9D6CB99
:10346000692000047E578EE3592500046920000876
:103470007E578EE3592500087E0B500A557CABE43D
:10348000295000010A252D257E578EE35925000C71
:10349000295000020A2512F36012367A6D22123288
:1034A000E07E3400400231D47F7112F3DC123671B9
:1034B0006930000812F21E12EEBC297000017C4730
:1034C0006C557E0B70123351297000020A371B3481
:1034D00012367A6930000A1235526930000C123601
:1034E000126930000E7E278EE359320012693000D7
:1034F000107E278EE359320030297000037C47127A
:1035000032DE7E3400A01236694923001A7A7B50DD
:103510004923001C3957000149230016792700026E
:10352000492300187927000449230022792700063F
:1035300049230024792700084923001E7927000A1F
:10354000493300207937000CA9C6CB22297000022C
:103550000A377E278EE35932000E22CAF87C8B7E12
:10356000681DC67E93699C7A937D297E93699B7AB8
:10357000937D2812F0A8BE800278067E6828068017
:10358000047E681DC66CFF7E701EAC7F09B3397265
:10359000606EBE8002780649F33981800449F339B0
:1035A000797D3F7A377D2C7D3D7A377D2E7D3F12A8
:1035B00031DB7EB38E881278B7400D7EB38E5F709C
:1035C0001C7EB38E8FB4011512368C7A377D2C7E1B
:1035D0003422E67A377D2E12368C1231DB302D15EF
:1035E0001236837A377D2C7E3428067A377D2E1268
:1035F00036831231DB6CAA7E701EAC7F19A3397240
:103600000BF0BEF0034080DAF8227E378EE30B38F1
:1036100010227E278EE359320010227F20A9D6CBBC
:10362000691200047E078EE3591000046912000835
:103630007E078EE3591000087E2B307C036C112925
:103640003200010A132D107E078EE35910000C1270
:10365000F3601236126D221232E07E348040123650
:10366000694933003AA9C6CB221231F77E378EE37F
:10367000227E278EE359320004227E278EE35932C0
:10368000000A22741EACBF4935398122741EACBFBA
:103690004935397D227DF17DE27DD3127FFB129386
:1036A000C57E087D287D3E7D2F02361B7F617F70A1
:1036B000127FFB1293C17D3F7A377D307E3400202C
:1036C0001293B80231E3CA3BF5347F317A0D2C12E4
:1036D0002837753500803D300B031246CF1246FA6D
:1036E000E535701B7E180E667A1D367E0D2C7E1811
:1036F0000E661236AC7E0D2C123733053580157EE2
:103700001813867A1D3A7F037E1813861236AC7F13
:103710000312373312F3F468BE1244847E1818A6DD
:103720007E0D301236AC7E0D307EB359C012373D5F
:10373000DA3B227EA1347408A409B559B07F600A2F
:10374000FB1256287C7B0A572E54000B7E18000172
:1037500060052F111478FB2F112F117D1F1203709C
:10376000BEF4000468387E33699B7A337D287E334B
:10377000699C7A337D29740B7AB37D2A7DED7AE7D3
:103780007D2C7AE77D30BEF40002380BE47AB37DFD
:103790002A7E3400048D3F7E087D2802345D22CAD3
:1037A000F87CFB7A1D307A0D2C7E180E667A1D345B
:1037B00012293E7E0D2C7E1D341236AC20030D7E68
:1037C000B38E5F70117EB38E8FB4010A7E1813869C
:1037D0007E0D301236AC7E0D2C7408ACBF1237391A
:1037E00020030D7EB38E5F70117EB38E8FB4010AFD
:1037F0007E0D307408ACBF123739DAF8225E60BF34
:103800001B2830222452680A0478296D337A378EB7
:1038100097227E63699B7E73699CAC763E347A37CF
:103820008E971E340A367A738DCC7E378E971E346F
:103830007A738DCD221257847807E47AB38E88800C
:10384000127EB38E88B4020874027AB38E88800325
:10385000123B077AB38E8F74021238957EB38E882E
:103860002400680E24FD68070BB1780C0227B10212
:103870003B07E4123895800002387B12F02078066E
:10388000E47AB38E8F221220DA12E83412EE631239
:10389000F141026460CA3B7CEBBEE004400241E1BE
:1038A0007408ACBE09F559AFBEF004400241E1090D
:1038B0007559AB0A471286730B467A452809755924
:1038C000AC0A673E643E643E640B667E503CAC5F6F
:1038D0002E2479520B28304E70011B28307408AC0E
:1038E000BE097559B22E70FF920112E96412EE1BE7
:1038F0007E9008AC9E09B459AEF52A7E703CAC7F30
:103900007D13123B002E3479846D2209B459AD1217
:10391000EDC87E303CAC3F123B007E3528123AF4B5
:1039200012F2977D36123AFA7E303CAC3F2E147973
:103930005E6D007408ACBE09B559B012ED4412F2C8
:10394000977403ACBE09B559DF12466A124DFD6D7E
:103950003312000E7E303CAC3F123B2F7E7005AC24
:103960007E123F9F7E303CAC3F123B2F7405ACBEB5
:10397000123F69123BA1ACBE123F82123BA1ACBE0A
:10398000123F25124DDC12000ED20112EE5712EE3C
:10399000057E303CAC3F2E1479686D00123B206DE3
:1039A00022123B1712462D12F27F123B20123B17B8
:1039B0001246357E503CAC5F2E2479660B28307E53
:1039C000340002743CACBF5935796E743CACBF59BD
:1039D0003579706D33743CACBF593579727E3422C1
:1039E00005743CACBF593579747E340006743CAC28
:1039F000BF593579767E340012743CACBF593579A5
:103A000078743CACBF5935797A743CACBF59357980
:103A10007C7E340808743CACBF5935797E6D3374B4
:103A20003CACBF593579867E340001743CACBF593B
:103A30003579807E340C1C743CACBF593579827E5C
:103A4000503CAC5F2E2479840B28304E3441961BB9
:103A500028307E341F00743CACBF59357988BEE0F5
:103A60000378197E340351743CACBF593579627EBA
:103A7000340404123B0E7E34042980077E340A1974
:103A8000123B0E743CACBF5935798C7E34002C7AD5
:103A9000352C7E3400087A352E12F28B7E35287D47
:103AA0002612EEE67E35287D2612EE517E35287DE3
:103AB00026742A12ED657403123D9E74EEACBF7D30
:103AC000B52EB401007D3B12E9647E24001E123B3A
:103AD0008B7D3B2E34000B12F27F7E240003123DBF
:103AE000F8DA3B220B0A305E34FC001B0A304D3200
:103AF0001B0A3022123FF3023AEB123FF3023AEB79
:103B00002E1479546D002274017AB38E8822743C8D
:103B1000ACBF5935798A227408ACBE09B559B122B7
:103B20007E7005AC7E2E3459CB227E303CAC392ED3
:103B30001479646D00227C8B7408ACB8099559AF78
:103B4000123B2A7E7005AC78123F9F123B2A740507
:103B5000ACB8123F697E303CAC39123BA6ACB8120F
:103B60003F827E303CAC39123BA6ACB8123F257484
:103B700003123D9E7E70EEAC792E3401002E34008F
:103B800009123B2A7E240002023B8B7D533E542EB9
:103B900054A0006D446D33800312EF30BD3240F904
:103BA000227E303CAC3F2E1479666D00740522CA2B
:103BB000796DEE7403123D9E7EC769D97ED769D7B1
:103BC0002DDC7E087D287E34005CE41200266DAA80
:103BD000801E7DBA3EB449BB69F3123D977E140046
:103BE0000160053E141478FB7D2B123D8E12F08788
:103BF000BDCA38DE7DAC802B7DCA3EC449BC69F3AA
:103C0000123D977E24000160053E241478FB7D3B25
:103C1000120B5B3E342E347D280B38C04DC21B384E
:103C2000C00BA4BDDA38D16DAA80287D3A3E342E6F
:103C3000340192123E167D525E54000F7E34000114
:103C400060053E341478FB123D883E242E247D28E6
:103C500012F2D1900191E4930A3BBD3A38CD6DAA9E
:103C600080287D3A3E342E3401A3123E167D525EEA
:103C700054000F7E34000160053E341478FB123D81
:103C8000883E242E247D5612F2D19001A2E4930A9C
:103C90003BBD3A38CD6D337DF37DE37DA37DBA1E08
:103CA000B41EB47D2A7CB57E17791260051E1414EB
:103CB00078FB5E14000F7E277916123FEA78027DAA
:103CC000FB7D2A7CB57E17792460051E141478FBD1
:103CD0005E14000F7E277928123FEA78027DEB0BF5
:103CE000A6BEA4000F40B612F0F67DA37DBA2EB496
:103CF00001247D5A2D5F12F1B43E4449747D285E43
:103D000054000F60051E741478FB123D970A1F6063
:103D1000053E141478FB7D2B123D8E3E242E247D0F
:103D2000280B28304D311B28307D5A2D5E12F1B4FE
:103D30003E4449747D565E54000F60051E7414782D
:103D4000FB123D970A1F60053E141478FB7D2B1271
:103D50003D8E12F087BEA4002478916DAA7E940057
:103D6000EEAD9A2E94011E7D397E087D287E2400BA
:103D700017123B8B7D397E087D56123DF80BA4BE91
:103D8000A4000440D8DA79227D136E14FFFF1E24AC
:103D90001E241E241E24227D5B5E54000F227CAB59
:103DA0007E0878E07CBA123F387E087920123F38CE
:103DB00012808102278A7EB769D77EA769D9E4126B
:103DC0003D9E7E3401007E0869E36D22123E0E7E28
:103DD0000869F37D2A123E0E7D1A3E142E1469F3F3
:103DE0006D007D2B123B8B7D3B2E3401007E0869DC
:103DF000E37E240004023B8B7D533E542E54B000DE
:103E00006D446D33800312EF30BD3240F922123D14
:103E1000F87E340100227E2400FF0B1A2022CAD82B
:103E2000CA797CF67D927CE77CDB12F40419A089C8
:103E300089E419B0898B19B0898C19B0898A7E847C
:103E400002A07D387E2400FF0B1A001E041E04BD54
:103E5000014008123F167E500180257D38123E1623
:103E60007E340003AD327D031E041E04BD013813F1
:103E70007E3402A0123F1DBD814008123F166C55D2
:103E8000129EEE7E340292123F1D1E841E84BD8956
:103E90002808123F167E500180277E340292123E7F
:103EA000167E340003AD327D831E841E84BD89508E
:103EB000137E340292120971BD394008123F166C0C
:103EC00055129DA31287D0680DBEB0026808BEB01F
:103ED000036803B404247439ACBF09758989096582
:103EE000898B196589891975898B0975898C09658B
:103EF000898A1965898C1975898A7E5039AC5F0960
:103F000062898C1E602E24898A7E29702C767A29FB
:103F100070DA79DAD8227CBD7C7E7C6F227E240028
:103F2000FF0B1A802209B559EF0B0A305E60F31BB4
:103F30000A3012F0D80223580B0A305E7003B40323
:103F4000054E700C8006B404034E70101B0A30221C
:103F5000CAF812E94A123BAF6CFF7CBF1238950BCE
:103F6000F0BEF00440F4DAF82209B559ED0B0A303E
:103F70005E603F1B0A3012464E0B0A304D351B0A5D
:103F8000302209B559EE0B0A305E60CF1B0A30545F
:103F9000030A5B1243540B0A304D351B0A302209C9
:103FA000B359EB097359EC0B0A205E40C31B0A207E
:103FB00054030A5B1243540B0A204D251B0A207C34
:103FC000B712F0D8022358128018120008023F508E
:103FD000122FC57E738E5E7A738DB712F3CBE47A9F
:103FE000B3696E7AB3696D020C2B0A245E24000F4C
:103FF000BD12227D230B0A305E34F80022123FF5F9
:104000001B0A304E352E1B0A30227C6B6C777EB338
:104010008DB0C47C5B5E5007A5BD0402800201DA4E
:104020007CB62496BEB02C400201F17EA003A49081
:104030004033730240B70240B70240BE0240BE02A6
:1040400040C50240C50240F10240F10240F1024089
:10405000F10240F10240F10240F10240F10240F170
:104060000240F10240F10240F10240F10240F1024F
:1040700040F10240F10240F10240F10240F1024001
:10408000F10240F10240F10240F10240F10240F140
:104090000240F10240F10240F10240F10240F1021F
:1040A00040F10240F10240F10240F10240CC0240F6
:1040B000CC0240D30240D31240F44401802F12407E
:1040C000F4440880281240F4440280211240F44451
:1040D00020801A1240F444408013A5BD0013BE6036
:1040E00001400EBE606E38091240F444107AB38E5F
:1040F000AE7CB7227E70017EB38EAE22CAF86DFF11
:104100007EB38E1230E00330E3071242B3F5A441D0
:104110007E1242E37DE3BEE40002500241647E1D54
:10412000167E1BB0BEB0C06803B43F0C74807AB377
:1041300081727E70801242937E6D167E6BF0BEF0AF
:10414000C0680221E629A600017CBA30E60F7E1F76
:10415000817C6931000A4D3368031242A87EB38125
:104160007230E202417429B60002F51F7AB38178F9
:104170007AA381777CBAC4037C7B5E70017CB70331
:104180000354C07C7B7CBA54BF4CB77AB381777C34
:10419000BA540FBEB003400469F600037AF7817980
:1041A000BEF4000038024174740112428A20E70212
:1041B00041746D447EB5140BB46DAAE51F7D3F7F3D
:1041C0000512400A600241748012E51F1242C47D4C
:1041D000340B442D3B7D2A7A1BB0051F7D5F1BF4F9
:1041E0004D5578E641747E6BB0B43F6A7EB3817BF7
:1041F000B40163E412428A20E77A30E50F7E1F8122
:104200007C6951000A4D5568031242A87EB3817241
:1042100020E2616D447ED5120BD46DCC7D5E1B54C3
:10422000BE57817928087E5781797DF580047DFE0F
:104230001BF47EB38178F51F8012E51F7DE40B44EB
:104240007F162D3E7E1B70122096051F7D5F1BF48E
:104250004D5578E6801EBEF00568194CFF681512B2
:10426000429D80107E1D167E1BB0BEB005680560A5
:104270000312429D1242B37E738172124293E47A1A
:10428000B381807AB38181DAF8227AB3817B7EB3FD
:104290008177227A71A47E55147A5970227EB38177
:1042A0007244087AB38172227EB3817244047AB375
:1042B0008172227EB38172547F7AB3817244017A13
:1042C000B38172227C7B6CAA12463D78097CB712BE
:1042D00045A87CAB800AB404077CB71210067CABFF
:1042E0007CBA2275A6007E61A65E603F75A6407E00
:1042F000A1A65EA03F75A6807E71A65E703F0A2AC9
:104300001223A13E240A561243544D257C644C7559
:10431000227C9B298100020AE87D5E7CABE47DE57E
:10432000298100030A58C454F07CABE42DE52981AF
:1043300000010AF83EF43EF43EF43EF42DFE7E1BEE
:10434000800A582D5F1B0A50298100040A387930F1
:1043500000020A59C454F07CABE4227C347C257CF6
:10436000A67C177C0B12459E5E80037CBA12464EDB
:104370004D457CB054030A5B1243544D457CB15407
:10438000037C0B6C113E043E044D401B1A407E34EE
:10439000A0140B1A405E80C37CB254030A5B124324
:1043A000540243A44D457CB354030A5B7CABE43E0A
:1043B000543E544D451B1A40227EB38E887E7002B7
:1043C0007E60027C367CB712459E5E80C354030A31
:1043D0005B1243540243A47EB38D6FB4010280028A
:1043E00081767E738D6CBE738D6E286C7E638D6E50
:1043F0007E7009AC6749538D7A7CAB7E438D777EA6
:104400005002AC452D3249338D7C7A35554D336899
:1044100047D2351BA068101BA0680C1BA0681A1B94
:10442000A068040BA27831E41244A7300F04740290
:104430008002740112447A801F74011244A7300F65
:104440000474028002740112447A74037E70036C57
:10445000666C556C4412435B124645381C74027AF4
:10446000B38D6F7EB38E8F70101243B91220D65E5B
:1044700070EF1B0A3022024484227EA38D770A3A11
:1044800019B38D70A2AC920A7E0F8ED40B0A305EE7
:1044900034100068087E34100079300002C2AC127B
:1044A000465AA20A92AC22CA797C3B7EF5556DEE43
:1044B0007EA38D774C3368047E7818A6203502A140
:1044C0008DA9D7EA7E076F967E240009A5BB00233D
:1044D0006D337DD33ED47E5F7A422DBD69450006A3
:1044E0007EF014ACFA2DD7594D79340B34BE34001C
:1044F0000578DF7D323E347E5F7A422DB37F472ED2
:104500009400006D447D34800C0B5AD01B4AD00BB4
:10451000B50B950B347ED76F96BDD338EC2D2D7D22
:10452000347CB77EC4000160053EC41478FB7E2352
:10453000699F0AD25DDC68147DB20B243EB47E6FA5
:104540007A422DDB0B6AB012459080076DBB124595
:10455000900B240B34BE34000478C6A5BB00297D23
:10456000347D432D423E447E0F7A422D1469400033
:10457000067E3014AC3A7D033E042D105941792A51
:104580000B34BE34000578D9A9C7EAC235DA7922DE
:104590007DA00B043EA47F672DDA1B6AB0227E3417
:1045A000A0126D220B1A40227003024681BEB00396
:1045B0003813301C067E1801AA80047E1802047A83
:1045C0001F025E8005BEB06E380E0A1B7E1F025EA3
:1045D0002D311B347E1BB022BEB0D36803B4D4127D
:1045E000B4D30A6D337A378E10C2198002151F02B8
:1045F000580DB480057EB3593B22BEB080280CBE56
:10460000B0EF38070A3B09B358BB22B4FC057EB3B0
:10461000596222B4FD05A231E43322B4FE0C7EA31C
:104620008E887408A409B559AB2274FF2212431175
:10463000795000042212431179500004227EB38D78
:10464000B0C45407227E738D6CBE738D6D225403EB
:104650000A5B030354C07CABE4227E0F8ED40B169E
:104660000B0A304E60101B0A30220B0A305E600FBE
:104670001B0A300A5B1243540B0A304D351B0A30BB
:10468000227E738DB07CA75EA00F7CB723540103FC
:1046900054804EB38E134CBA22200D03124484E48E
:1046A0007AB38E6274037AB38D6F74027AB38D70AD
:1046B0007AB38D71221246BF202F03024699223011
:1046C00030031247F12212578078030246B5223098
:1046D00030061247F10246992212470312F3FC40BA
:1046E000031246CF300B031246CF7EB38D70700697
:1046F0007EB38D716002D322C3221247031246DCBF
:1047000050FB22E47AB38E922212470380031247B1
:104710002F1246DC50F8222012061247E81200162B
:10472000124D6B1246D9400612470902001622802C
:104730000B1247E11246D9401620121312E48E7074
:10474000F01247E112E57174027E709502E4C7220F
:104750001247031246DC4006124709120016C2082F
:104760001226E7C20012E61280167EB3598B600D46
:104770007EB38E63700712E4938005800012472F8A
:104780003012E77EB38E63BEB0002805147AB38E74
:1047900063D20012E612D2080226E724AB68102486
:1047A000EF681C24DE682624DE782F7405802D7EB9
:1047B000B359FFB4052A12642512E6A302E9707EFC
:1047C000B359FFB4051A12642575E9FF227EB35967
:1047D000FFB4050C12642502001774017AB359FF67
:1047E0002274817AB38E5D22800312472F3012FA31
:1047F00022A9D2EAA9C2EAC230C22F2275E76BE42D
:104800007E3401047E2400FE7A1BB07E3401057ADA
:104810001BB075E9FF22E47AB3596012001E12EA58
:10482000C9124830C2187EB3595FB40102D2862241
:10483000123B077AB38E8F1227B17EB38E8F024858
:10484000457EB38E8F7CAB1249801BA068111BA0E4
:1048500068151BA168160BA278171248CF80121298
:1048600048FB124917800A1248E880057401124972
:1048700069024874E47AB38D796CAA80137E70095A
:10488000AC7A09B38D822EB38D797AB38D790BA072
:104890007EB38D6CBCBA38E522CAF87CFBC200D26C
:1048A000016D337A378E577EB38E8FB40107D200F5
:1048B00074041248457CBF1249DD92013001057C29
:1048C000BF122B36300003124841A201DAF8226DE4
:1048D0003312490E7E578D4012492CE40248DF7A8C
:1048E000B38D737AB38D74227E34000212490E7E2A
:1048F000578D5612492C74020248DF7E3400011293
:10490000490E7E578D4B12492C74010248DF7E24DC
:104910000E667E141386227E34000312490E7E57E3
:104920008D6112492C74037AB38D75227C1B7D43F3
:104930007EA38D6CBEA006502E7E7009AC7A5943C2
:104940008D7A59238D7C59138D7EBE4400017806E3
:104950007E2418A6800059238D8019138D827CBA7D
:10496000047AB38D6CC322D3227E34000412490E24
:1049700012492C7E738E887A738D737A738D7422AC
:10498000E47AB38D6C12F2A37AB38D6F12EF657A6D
:10499000B38D7922301407D216C2140249C93017D8
:1049A0001B124DB1680E1248308003200B067EB3F7
:1049B0008EBE70F7300B0E12287B80093016067EF3
:1049C000B38E8F70030228372274027AB38E887AEE
:1049D000B38E8F12387B7EB38E8F0248457C2BC2FC
:1049E000027E333961741EACB3093539657CB2126D
:1049F0004A136C226CAA7E101EAC1A192039710B56
:104A0000A0BEA00378F03002087CB3124AAB122794
:104A10000BD3227CAB6C777E6339F7BC6778086C6C
:104A200066124A4AE48017124A5460053E441478DC
:104A3000FB124AA2680C7E6001124A4A740119B442
:104A400039720B70BE700340CE227E901EAC971957
:104A5000643971227E4400017CBA227CAB6C777E83
:104A60006339F7BC6778046C668022124A5460058B
:104A70003E441478FB124AA268067E6001124A98EE
:104A80007E636F950A265D2468067E6001124A984F
:104A90000B70BE700340C8227E501EAC571962399D
:104AA00072227E636F940A265D2422CAF87CAB6C66
:104AB000FF7E7008AC7F19A359AB0BF0BEF00478F1
:104AC000F06CFF7408ACBF09A559AB12EFE6123BBE
:104AD000007D3F123AF47D3E0B34743CACBF492557
:104AE0007954124DD912EFCFBEF00440D6DAF82235
:104AF0007CBF7E733961D21F741EACB709B53965AE
:104B0000124AAB02270BCA797CFBC2027CBF124A55
:104B10005B6CEEBEF002741E7805124CA1800AACEC
:104B2000BE49353979492539777A1D28741EACBEBE
:104B300009B53972602D124D587C7E124AF6D202A8
:104B4000302D13741E124CA17A1D30124C8E124C53
:104B5000961236C6800D124C8E741EACBE124C9648
:104B600012379F200B03300C09300203124AF0C3A6
:104B700080080BE0BEE003409AD3DA7922CAF8C27B
:104B8000007EF38E88200B03300C03C3818412F364
:104B90000B60053E241478FB124D60780281837C03
:104BA000BF1278B75002D200D20412294330001F3E
:104BB0007E736F950A375E34000468137E736F94BA
:104BC0000A375E3400047807D22D12E9BD8002C294
:104BD0002DA20092017CBF124B06400B302D051216
:104BE0004C87C22DC381847CBF7E7339F7124AF68D
:104BF000E47C7F127BC8302D0F7E1828067A1D308A
:104C0000124CAC1236C68006124CAC12379F302DB7
:104C100003124C87124AF0200B03300C05C22DC33F
:104C200080621228377CBF12355BE4122EF1124CE1
:104C3000BB60053E341478FB6E70FF5E736F957A2F
:104C4000736F95122FD6302D34C22D7E3428067EF8
:104C5000240BB87E142328123695BE340258500C0B
:104C60007EB36F9444047AB36F94800A7EB36F95D9
:104C700054FB7AB36F957E0818A612F1AC12EA1AAB
:104C8000D38001D3DAF82274037AB38D5522A201BE
:104C900092037E0D28224935397D4925397B7CBF19
:104CA00022ACBE493539814925397F22A2009203C1
:104CB0007E0F2D2A7E1822E67CBF227E3400017CE6
:104CC000BF22CAF87EF38E88200B03300C03C3A1E9
:104CD00055C22E124CBB60053E341478FB7E536FD8
:104CE000946C445C574D22686B4E736F957A736F6A
:104CF00095124D581248994003C38059200B062045
:104D00000C03302E03C3804D125285124CBB60053C
:104D10003E341478FB6E70FF5E736F947A736F94F9
:104D2000BEF00178297E3402D8CA397E185CD87E5C
:104D3000085FB01205241BFD74027E085FB0122CC0
:104D4000C67EB36F9454FB7AB36F94124EAD12EAE1
:104D50001AD38001D3DAF822D2041229437CBF226D
:104D60007E736F956C665C754D332230164230173A
:104D700011124DB168091248307EB38EBE70FA121E
:104D800028377EB38E8FB402277EB38E887E2400B0
:104D90000160053E241478FB7E736F94124D647895
:104DA00005124D60680774017AB38D7022022837AE
:104DB00022C217C2167EB38E88BEB001227EB32EE9
:104DC0007470147EB35960BEB003680B12BDE71255
:104DD0000C2B124D6BD322C3221226D97E703CAC11
:104DE0007F7D132E1479606D007A0D2C7D132E14A7
:104DF00079546D002E3479566D22124E097E303C66
:104E0000AC3F2E1479606D00227F210B0A205E409A
:104E1000070B2A105E20077E2D2C0B2A305E6003C4
:104E20002D122D137E0400C97E2400A7BE1400B8E5
:104E30006808BD016804BD2178020B342212C77ACC
:104E4000124EB8124E994005E47AB367907EB3676C
:104E5000906030E47AB38ECA7E088ECB7E34000236
:104E60001200267EA38E8E124A5460053E441478AA
:104E7000FB7CB94EB36F957AB36F95BEA0017803F2
:104E8000124EAD124E99400612967612CC557EB354
:104E900067966004E402948E227EB38E8F700C7E3F
:104EA000738E67BE738E904002C322D3227EB36F8F
:104EB0009544047AB36F952212BE6312BE9F124FBF
:104EC00052024EC4C2007EA32E75BEA002502E7E9A
:104ED000B3679060210A4A09B48ECBBEB36786508F
:104EE0000C7D342E348ECB047A39B08010E419B4A2
:104EF0008ECBD2008007E40A3A19B38ECB20002A69
:104F00007EB36790B4011EE47AB367967E736786BA
:104F1000BE738ECA280CE47AB367907EB38ECA043F
:104F20008004E48001E47AB38ECA7EB36796B4014C
:104F30001A7E736785BE738ECE280CE47AB36796AB
:104F40007EB38ECE0480067401800274017AB38E23
:104F5000CE227E4767707E0769807E340006AD30C2
:104F60007E14000412F1CF08057EA004801D7D3060
:104F70003E3412F1CD08057EA003800F7D3012F182
:104F8000CD08057EA00280037EA0017EB3678D6000
:104F9000037EA004302C037EA00412CFE660037EC3
:104FA000A0010A2A7E1402BD127D72AD3212F1BF39
:104FB0007EB36766BEB00028287EB3678770227E06
:104FC000376783BE3400024809128A957A376783AF
:104FD000800F7E6367857E7002AC677CB77AB367AB
:104FE000857EB35960B4010E7E2767837E34000549
:104FF000AD327A376783227E73677B7A73677C7EF4
:10500000738BC00A177E73696D0A272D217C657A20
:1050100063696E7E63019E0A260A379D327E5302C3
:10502000779D327A730276E47AB369717E738E5E0D
:105030007A735966227E54004E7E4400FF1252FF5E
:1050400030225BC2227E1400A57E34FFB012509F36
:105050007E14FF5A7E34FFB21B1A107E1400AA7E03
:1050600034FFB41B1A106D33125229BE340003787A
:10507000F71252437D137E34FFB612509F7E335990
:105080007B7E34FFB87A1B307E33597C7E34FFBA86
:105090007A1B307E3359467E34FFBC7A1B30227E29
:1050A0002400FE1B1A10227E34088D7E2400FF7E11
:1050B000147D341252E31252EB1B0A307E2400A5F9
:1050C0007E14FFD01B0A207E24FF5A7E14FFD21BC1
:1050D0000A207E2400AA7E14FFD41B0A207E24000E
:1050E000557E14FFD61B0A207E2400667E14FFD84E
:1050F0001B0A207E2400997E14FFDA1B0A2012521C
:10510000F46D442E4400FE0B2A2059217D340B34CB
:10511000BE34000640E87E087D341251A97D137E1E
:1051200034FFDC02509F7E3408997E2400FF7E14F9
:105130007D281252E31252F4125233BE3400067824
:10514000F47E087D281251A97D237E14FFDC1251C4
:10515000B0784A7E34FFD21251A17D236E24FFFF26
:105160007E14FFD01251B078347E34FFD41251A196
:10517000BE3400AA78277E34FFD61251A1BE340077
:1051800055781A7E34FFD81251A1BE340066780DCE
:105190007E34FFDA1251A1BE34009968030250A791
:1051A000227E2400FE0B1A30227E34000C02524B69
:1051B0007E0400FE0B0A30BD32227E5400547E4431
:1051C00000FF1252FF6D33125229BE34000378F7EC
:1051D0001252437D237E14FFB61251B0784A7E34BA
:1051E000FFB21251A17D236E24FFFF7E14FFB01287
:1051F00051B078347E34FFB41251A1BE3400AA7885
:10520000277E34FFB87E2400FE7E1B707A73597BA4
:105210007E34FFBA7E1B707A73597C7E34FFBC7E6D
:105220001B707A735946D221227D133E147D512E74
:1052300054FFB06D442E4400FE0B2A2059217D28D6
:105240000B34227E087D287E3400067D237E34FFC9
:10525000FF6D55802B7F702DF57E7B806C996DFFE7
:105260007DE46DE35EE4800068083E346E34102116
:1052700080023E343E440BF4BEF4000878E20B5446
:10528000BD2538D1221251267EB38EC9B401537E7A
:10529000538E88A5BD014B6D117D3180190A457E65
:1052A0005402D8AD547D052D0109405A00BE400579
:1052B00050020B340B147E43699C7EB3699BACB4E3
:1052C000BD5138D9BE34005028151252EB0B0A30AC
:1052D000BE340005500C0B341B0A3075E9FF220266
:1052E00050A722740C1204416D33227E14FFDE7E1F
:1052F0000400FE227D133E147D512E54FFD02269FE
:10530000320004692200020B2A107A1F7D2A7A17C4
:105310007D2822E5E920E7030250A7227EB38EE52F
:10532000047AB38EE57E738EE57A73594C22E47A63
:10533000B35960123B077AB36F93122169122F2978
:1053400012537912CFEB7401122EF112B4801200B5
:10535000F412BD340253579001B3E493601A6CAA5F
:105360000A3A2E3400061211110A3B2E3401B412EF
:1053700011110A3A19B38EDD227E340DAC022B2BAB
:105380007E340209120971122B2B1230AB1253C654
:1053900012F020681A7F201253BE4E60021B2A3082
:1053A0007E2F8ED41253BE5E70FD1B2A30800612F3
:1053B00020C91227FD12F2DC1253790200F42E5498
:1053C000000E0B2A30221277F912546012542E125A
:1053D000550A120FBA120979125414121FBE12C7BD
:1053E0000A1254021221BE0253EAD225D226129288
:1053F000587E182E7A7A1F03F17E18339A7A1F038B
:10540000F52212578468061227B10227EBE412270F
:10541000ED0227987E0865647E340219128FC27CE3
:105420007B740DAC7B7E0865E074FF0200267E185D
:105430001DC67A1F2D2A7E1804267A1F2D2E7E0F58
:105440002D2A12F1AC7E0F2D2E7E3405201200265F
:105450007E0804007E3400261200267AB32E7422C1
:105460007E34005ACA397E3401887E2400FF7E08CB
:1054700069991205241BFD1254B27E3769D92E3763
:1054800069D77A376F96900204E4937AB38EE190ED
:10549000018EE493CAB890018FE4937C7BDAB81252
:1054A000001A7E63699C7E7040AC671B347A376F4C
:1054B00098227E3469F36CAA1254F71254ECB42487
:1054C000FA0BA0800F1254F77D421B241254F0B443
:1054D00024F60BA0BEA00F40EC800B1254F7125420
:1054E000ECB424FA0BA0BEA01040F0227D420B24A5
:1054F0001B38400B3504220A1A6D002F002E0400C1
:10550000FF2E08086D0B0A20E4227E340008CA39F9
:105510007E3401E27E2400FF7E0859AB1205241B75
:10552000FD7E340008CA397E3401EA7E2400FF7E05
:105530000859B31205241BFD7E340008CA397E3495
:1055400001F27E2400FF7E0859BB1205241BFD7E5C
:10555000340008CA397E3401FA7E2400FF7E0859DF
:10556000C31205241BFD6C337CB31255F90B30BEFE
:10557000300440F40255777E088D407E34002CE4E0
:105580001200267E3400017A378D407AB38D427A3C
:10559000B38D437AB38D447A378D5674017AB38DC7
:1055A00058E47AB38D5974027AB38D5A7A378D6183
:1055B000740B7AB38D63E47AB38D6474037AB38D1C
:1055C000657E3400027A378D4B74017AB38D4D7A43
:1055D000B38D4E7AB38D4F74077AB38D5074017AC0
:1055E000B38D517AB38D52740B7AB38D53E47AB381
:1055F0008D5474037AB38D55227C5B12F31C7403B3
:10560000ACB5194559E17CB41256287C4B7403ACF7
:10561000B5194559DF7408ACB509B559B01256280B
:1056200012F40C19A359E0227CABE40A3A80031E61
:105630003404BE34000438F722302324C2237E739E
:1056400059397A73596074FF7AB359397EA3596016
:105650004CAA78051257698007BEA0017802D215BE
:105660003015031257207E378945BE340078280351
:105670001257197EB3596014685B1BB1687224031A
:105680006802E115125761380A1257596805125716
:10569000512818122FDE7EB3594130E07B7EB3597A
:1056A0008B600320102C30186F80277EB359413057
:1056B000E0667E378EC07E2403E88D327E535942E9
:1056C0000A25BD32500C7EB3598B604CBE340001AC
:1056D000404602572012576138107EB35941600A84
:1056E0001257596805125751280302EAE2C21022E4
:1056F0007E34020B120971122B2B12E51B12538000
:105700001257697EB38E8F70031228377EB38E8F47
:1057100060060249941257192274017AB359602223
:105720007EB38E8FB4010C7EB32E756006E47AB31F
:10573000596022C215125719122FDEE47AB38EC4B3
:105740007AB38EBF0257471257846804D214C21727
:10575000227E738BC0BE7000227EB303D7BEB00121
:10576000227E73696DBE700022E47AB35960D21252
:10577000122FDE0257761257846804D217C2142201
:10578000D20BD20E7E1F8ED4693100065E3400012A
:10579000227EA03B7EB35960B4010F7EB38E8F6032
:1057A000097EB38EC470031257477EB35960B401AB
:1057B0003B7EB38E8F60297E738EC4BC7A780620C0
:1057C00018031257767EB38EC47AB38EBF047AB3B1
:1057D0008EC47E738EC4BE703C2805E47AB38EC43A
:1057E0007EB35962BEB0016803025769227E378ECC
:1057F000C50B347A378EC57E378EC7BE378EC52827
:105800000302580522E59A6003A9D6DF227EA38908
:105810006F7E7004AC7A0B34BE378E1040397E3701
:105820008E100B347A378E10BE34000178057EB3AB
:10583000598E22BE34000278037CBA22BE340002A4
:1058400050097D231B2509B239FA229E3400032E0C
:105850003785827E39B02274FF22CA7BCA6BCA5B4D
:10586000CA2BCA1BCA0BC083C082A9C093A9D3A7E5
:105870001240FC7EA38E127CBA30E105E47AB38E2E
:10588000917CBA30E30A7CBA20E005E47AB38E91C9
:1058900075A7FFA9D1A37CBA54FB7AB38E1230E36B
:1058A0000654F77AB38E127EB38E1230E10C54FD9B
:1058B0007AB38E1254FE7AB38E127E738E9ABE70B5
:1058C000064005E47AB38E9AD082D083DA0BDA1BD5
:1058D000DA2BDA5BDA6BDA7B327AB38DB0C4540739
:1058E000B4040474038004700774017AB35962220B
:1058F00074017AB35962E47AB38DB0227CA77C3B01
:10590000A5BB9A0A7AA303DE125948125B1CA5BBF9
:1059100000077CBA1258D98013BE3080400EBE30CA
:10592000EF38097CB324807C7A12666EA5BBFC0537
:105930007CBA02479BA5BBFD08BEA05A7809D231AC
:105940002274017AB359FF22E47AB303DF7AB359A0
:1059500056227E3703DCBE34000028071B347A371A
:1059600003DC22E47AB303D8125B137EB303DE6058
:105970000E7EB303DF6005125948C286125B1C22FB
:10598000C200C2016D337A378E15125B287EB36771
:105990006670030259527EB3598B704D7EB3597DA8
:1059A000BEB001684412C49B9200C2013000157E53
:1059B0003402D51209717A3703DC7401125B1312B9
:1059C000C6ED8005D2011259527EB303D9601A2068
:1059D00001146C338005125B830B307E236766BC39
:1059E0002338F30259EA025B4E22CAF87E83699B90
:1059F0007EF3699C7E3402D37E2400FF0B1AF07E76
:105A0000A303DA7AA1287AA12A7EB303DBF529F56C
:105A10002BBEA0002831BCA8502D7E9303DA1A19A2
:105A20001B147C93801C6C00800E7CB9125B0848B0
:105A3000057A912880060B00BCF038EEBCF02807F0
:105A40001B90BE900058DF0A581B547E7303DA0A7D
:105A500017BD1558260A570B547C1B801A6C008002
:105A60000C125B0648057A112A80060B00BCF03840
:105A7000F0BCF028060B10BC8138E27E7303DBBE5D
:105A800070002833BC7F502F7E9303DB1A191B1440
:105A90007C93801E6C1180107CB17C79125B0A486B
:105AA000057A912980060B10BC8138ECBC8128074F
:105AB0001B90BE900058DD0A5F1B547E7303DB0A07
:105AC00017BD1558260A570B547C0B801A6C118091
:105AD0000C125B0648057A012B80060B10BC81383E
