:1000000002048D02E03001C216222202DFFD7E379B
:10001000697C2202E05D7D23023AE402E002023DB7
:10002000B622220220BF7D437F1080071B447A0B3B
:10003000B00B144D4478F5220001010000010100CD
:1000400002467C0258E902467C22FF020E1600009E
:1000500000000000000000000000FF02E4C001FFFB
:100060000000000001FFC214C2172202E76F7EB336
:100070008E912202245940332D241E18100A0A0E94
:10008000151E242B32352F28221A130A03000104CF
:100090000A121B252C310900000204080F19202721
:1000A0002B2D2E2E2E2C2C2D2E32353B434D565DD6
:1000B00062676A6D6E70DAE1FF5501020408102074
:1000C000408001020304040302010102030404034B
:1000D00002010102030405040302010102030405F5
:1000E00004030201FF00010200FF01020001FF0200
:1000F000000102FF740F7AB36F947AB36F9522FFF9
:10010000F4C00B3FBEF2410D9C866379847B1CE3F7
:10011000FFFFFFFF0BF4FFFFFFFFC639FFFFF006F5
:10012000708F00FF847B01AA486302A900000000D1
:1001300000000000000000000000000000000000BF
:100140004A32320000000000000000000000000001
:10015000000000000000000000000000000000009F
:100160005869616F6D690000000000000000000028
:100170000100010101010101010101000101010171
:1001800001010101010000000808102410240000F2
:10019000010000000000000000000000000000005E
:1001A000000000000000000000000000000000004F
:1001B00000000000000102030405060708090A0BFD
:1001C0000C0D0E0F00000120012000000000012492
:1001D00001200048009100DA01230048009100DA74
:1001E00001231A050707000804001A05070701087C
:1001F00004001A050707020604001A05070703088A
:100200000301010A1E081400640DAC00C801F401CA
:10021000900190012C09C407D007D0019001900AE9
:1002200000025801050C213C000000000000000005
:10023000000000000000000000000000190B000199
:100240008701001C01840007001801020100010160
:100250000000000000000000000000001D00000081
:100260000000FF0064000000000000000000FFFF2D
:10027000000000000000000000000000000000017D
:10028000C6A50200000000000000000000000240BF
:1002900004800438021C3C3C019A01E0010001008A
:1002A000092404924141020801A401000100100048
:1002B000B40168021C000007A800640048000201A5
:1002C0000500960BB80A05060078015E01C21F40C2
:1002D00028025800C80014001A0018001103E80191
:1002E000F407D005DC040F0F005003E8005008D4D9
:1002F000000A019A019A032000C80043001E0080F2
:10030000021C00DC003C03E80492021C003C03E8F1
:100310000020041800000924006400A000A006408A
:10032000012C0000C2D57CB430E708B2D56E24FFA2
:10033000FF0B247CB630E712B2D56E34FFFF0B34CE
:100340008D326E24FFFF0B2480028D3230D5066E75
:1003500034FFFF0B34227D51AD037D027D21AD05BD
:100360002D12AD352D21227D02AD31AD102D212272
:100370006D0074104D00780B4D2278278D317D1261
:100380006D22227D437D326D222F112D445002A516
:100390000FBF1040049F100B901478ED7F016D2269
:1003A0007D34227D417D138D247D022F004004BDCC
:1003B0000440049D040B141478F17D237D317D10DD
:1003C0006D0022C2D57CB030E708B2D59F229F20B5
:1003D0007F027CB430E713B2D59F229F217F121297
:1003E00003729F229F207F02800312037230D50682
:1003F0009F229F217F12226CAA4D11681A1E5468F9
:100400000E0B38201B18200B350B151B5478F2509F
:10041000067E39407A1940226CAABE080000682086
:100420001E540B5450167E1B807A0B800B1C0B0C39
:10043000800A0B1A401B0A400B1D0B0D1B5478F24F
:10044000226CAA4D11681E1E54500C7E1B007A1996
:100450000068120B1C0B140B1A001B18000B1D0B51
:10046000151B5478F2226CAABE080000681E1E54A8
:10047000500C7E39407A0B4068120B340B0C0B3851
:10048000201B0A200B350B0D1B5478F222758401BA
:100490007E449FFFE47A49B01B4478F97EF88EE8E9
:1004A000C227C228C231C221C222C223C219C21A23
:1004B000C21BC21C755700C224C225C226C232D23A
:1004C00033C229C22AC21DC21EC21FD220C22BC2E1
:1004D0002C755906C234C20BC20CC20DC20EC20F1B
:1004E000C210D211C212C213C218C235C22DC22EFE
:1004F000C236C237D22FC2307E0400FF7E140559A7
:100500000B0A405D44681A692000020B0E0B448000
:100510000A7E0BB07A29B00B240B0C1B4478F280B6
:10052000DF0208B4CAF87F20800A7E1BF07A2BF025
:100530000B340B5469FFFFFC7DEF1BE479EFFFFCEC
:100540004DFF78E67F10DAF8227D23BE24000048B4
:10055000037D32226D339D322200018E930500010E
:100560008E940000018E990000018E9B0300018E85
:100570009C0000018EAC0000018EBB00000159FF01
:100580000100018E130000015939FF000201000033
:10059000000001019E0000010276000001027700C8
:1005A000001459CB01010101010101010101010008
:1005B0000000000202020202001459EB03030000D3
:1005C000000303000000030300000001010101011A
:1005D00000018EE60000018E140000028E1500005E
:1005E000003C8E1800000000000000000000000029
:1005F00000000000000000000000000000000000FB
:1006000000000000000000000000000000000000EA
:1006100000000000000000000000000000000000DA
:1006200000018E540000018E551100018E5600000D
:10063000018D1700000171FBFF00017865000002C9
:1006400078B60000000278C2000000018ECE0100E2
:10065000018EDC0000018EDD0100018EDE00000154
:1006600039F800000639FA10000000000000018986
:1006700071FF000139560000013957FF0001395858
:10068000FF0001395B640001395C0000018E5D00F0
:1006900000028E60002100018E640100018E67045B
:1006A00000018E880100018E8B0000028E8C0020DC
:1006B00000018E8E0000018E8F0000018E910000DF
:1006C000018E920000018EBEFF00028EC20000006B
:1006D0000481730000C1200004817C0000C100007F
:1006E0000200128180000200148380000103E600F2
:1006F0000002858285840001894402000289450048
:10070000000001896F000004001A000000000001D1
:100710008EE20100028EE3C30000048ECF0000C50C
:100720000000047A420000D00000047A460000A0D5
:100730000000047D240000B00000048ED40000C43A
:100740000000048ED80000C2000000001400680001
:10075000AC00EF0131017401B701FA023D028002E1
:10076000C303060349038C03D00424001D00670063
:10077000AA00EB012B016C01AC01ED022D026E020F
:10078000AE02EF032F037003B003F10431047204CF
:10079000B204F30533057405B405F506350676068F
:1007A000B606F70737077807B807F90839087A084F
:1007B000BC09100014006F00AC00EF01310174019E
:1007C000B701FA023D028002C303060349038C030A
:1007D000CF042300220100230B0101020123010E9B
:1007E00023FF0F01FF0F22FF0F23F5000105002358
:1007F000F60100F90101050F01050F23F6001108AC
:10080000090110070A020F060B030E050C040D0464
:100810000D000F0708010E0609020D050A030C045E
:100820000B000000000BB80BB80BB80BB80BB80BE3
:10083000B80BB80BB80BB80BB80BB80BB80BB80BA0
:10084000B80BB80BB80BB80BB8F448F448F448F43C
:1008500048F448F448F448F448F448F448F448F4B8
:1008600048F448F448F448F448F448F448000000D8
:100870006C00B500FE012200D9009000470047003F
:100880009000D9012200FE00B5006C0000000000BD
:100890000000000000000000000000000000000058
:1008A000000000000012F363E47AB38DB07AB38ED7
:1008B000130200F41230AB124FDC1208E212575B45
:1008C000123FB11208A5120C5F12498C7EB3596217
:1008D00024FD68090BB178F4120B7780EF1228C35E
:1008E00080EA7E34020D120971120B597A73593B5A
:1008F0007E34020F120971120B6C7A73593C7E34EC
:100900000215120971120B597A73593D12096D12B1
:100910000B6C7A73593EE47AB3593F7E34021F124E
:100920000971120B597A7359407E34006ACA397EB4
:100930003402237E2400FF7E0859411205241BFD4A
:1009400074027AB3594874AA7AB3596FE47AB359E6
:100950005874037AB3595974027AB35957227E34C2
:1009600002157E2400FF0B1A307A3769827E34022A
:10097000177E2400FF0B1A3022900203E4937AB30F
:10098000697A12F3917E34020D1209717A37697C0B
:100990007E34020F1209717A37697E7E3402111299
:1009A0000971120A4E7A37698012095E7A376984B2
:1009B0007E340219120971120A4E7A3769867E3422
:1009C000021B120971120FFD120971120A4E7A37B9
:1009D000698A90024FE4937AB3698E900206E49399
:1009E0007AB3698FBEB014500674147AB3698F7EDF
:1009F0003402071209717A3769907E34021F120996
:100A0000717A37698CE47AB369927AB36993227EFA
:100A100034020D1209717A37697C7E340221120981
:100A2000717A37010012F3917E34020F1209717A44
:100A300037697E7E34021B120971120FFD12097193
:100A4000120A4E120B51120B647A73593C226E3407
:100A5000FFFF0B34227EB3598B600A120A0FE47A2F
:100A6000B38EE78034127B5C7E340211120971125E
:100A70000A4E7A3769807EB36998701D7EB38EE71F
:100A800070177E340221120971BE37676C280A7E06
:100A9000B3696E70047A37697C7EB3594760447ECF
:100AA000B359581BB1680D0478397E37697C7D13C2
:100AB0003E14800A7E37697C7E140003AD137E04E9
:100AC000000A8D109D317A37697C7D232E240032F7
:100AD0007A2701009E3400327A37697E120A4E7AF4
:100AE0003769807EB3594660577E27697C7E340023
:100AF0000AAD32120B5D7A37697C7D232E240064A7
:100B00007A2701007E57697E7E04000AAD507D255C
:100B10000E240E240E247A27697E7E176988AD1074
:100B20007D210E240E240E247A2769886D229E27AB
:100B300069887A27698A120B59120B647A73593CB7
:100B40007EB3593FBEB0AA680712095E7A3769843E
:100B5000227A37698A7E37697C1E341E341E341E21
:100B6000341E34227A73593B7E37697E0E340E343C
:100B70000E340E340E342230240F7EB359A9B40142
:100B80000874017AB36F938003125116C224D2867F
:100B9000120C5F7EB38EC9B4010280028120125014
:100BA0008A124807E412598B124FF912263F122974
:100BB0005C7E34020B120971122B2212558D122AFF
:100BC0001A129A0912509C40CA129E3D7EB3595F78
:100BD000B40102D2867EB369937006120A5512EBF5
:100BE00039129053129C2512509C40A77401120C8C
:100BF00034121778127FFA1289EC7402120C341234
:100C00001CC47403120C34126F2A7404120C3412B4
:100C1000E95C125EAF1247C912521C120FF46193C5
:100C2000D2041228A1124696020C2B7E7359627AC6
:100C3000738EC92224FD680A0BB17822E47AB36965
:100C4000772212A7CF12B1F612B2B47AB369791231
:100C5000B3821282A012A3E91267F402634122CA8E
:100C6000797EB38EACBEB0017802A19B7E1F8ED47C
:100C700069A100065EA408006802A18C6CEE120E49
:100C8000077E34F4B17E087D287E240006120D9E76
:100C90007DB3BEB4000678040BE080070BF0BEF015
:100CA0000340DEBEB4000678106CFF120FED197A17
:100CB0008EAF0BF0BEF00678F2120E077E34F31200
:100CC0007E087D287E240009120D9E7DB3BEB400EF
:100CD0000978040BE080070BF0BEF00340DEBEB4E1
:100CE000000978106CFF120FED197A8E9D0BF0BE83
:100CF000F00978F2120E077E34D2027E087D287E3B
:100D0000240002120D9E7DB3BEB4000278040BE0F5
:100D100080070BF0BEF00340DEBEB4000278106C1A
:100D2000FF120FED197A8EB70BF0BEF00278F212B7
:100D30000E077E34F39012F249BEB4000178040B22
:100D4000E080070BF0BEF00340E8BEB40001780875
:100D50007E737D287A738E9C120E077E34F3B31255
:100D6000F249BEB4000178040BE080070BF0BEF03E
:100D70000340E8BEB4000178087E737D287A738E44
:100D800094BEE005780674017AB38EAC7EB38EAC67
:100D9000B401087E738E9C7A73596CDA792212EF53
:100DA0009A804D6D337E2F8ECF7932000A12EE7B02
:100DB00012F4457AB38ED3800E12F1B05E34000186
:100DC0006805122FDC800512F00B68ED12F2577ED9
:100DD0006F8ECF693600045E34000278F27EB38EE7
:100DE000D370116936000A6C667A7B700BF41B14A1
:100DF0004D1178AF020DF76D337E2F8ECF1B2A3049
:100E0000C2CC7D329D31227E087D287E340009E4EB
:100E10001200266CFF22CA7BCA6BCA5BCA4BCA2B64
:100E2000CA1BCA0B120FB15E34004068530B0A3064
:100E30005E340040684A7E340040793000027EB360
:100E40008E62BEB0016803B404131257D2300D088D
:100E50007E738E5B7A738E59E47AB38E627E1F8EB8
:100E6000D46931000A5E340FC0120B591E347A73F4
:100E70008E5EE47AB38EBE7EB38EE8047AB38EE8DB
:100E8000120FB15E34000868110B0A305E3400089E
:100E900068087E34000879300002120FB15E340019
:100EA0001068170B0A305E340010680E7E34001094
:100EB0007930000274027AB38EBE120FB15E340034
:100EC0002068170B0A305E340020680E7E34002044
:100ED0007930000274017AB38EBE120FB15E3440D5
:100EE00000682E0B0A305E34400068257E344000D6
:100EF00079300002D20C7EB38E5ABEB0C8500504C1
:100F00007AB38E5A7EB38E5AB401031200F4125291
:100F100012120FB15E34200068160B0A305E3420C6
:100F200000680D7E34200079300002D20C1252127B
:100F3000120FB15E34100068470B0A307D235E2427
:100F40001000683C5E3408002E34FFFF920F6930B9
:100F500000067D235E240001680C5E3404002E34FC
:100F6000FFFF720F920F7E34080079300002C2300A
:100F700012E7741243F41254E77805C2081226C42B
:100F8000120FB15E34000468190B0A305E3400049D
:100F900068107E340004793000027EB3596070021C
:100FA000D212DA0BDA1BDA2BDA4BDA5BDA6BDA7B8A
:100FB000327E0F8ED469300004227E3402B91209C9
:100FC000717A37677F7E3402BB1209717A37678185
:100FD0007E3402BD12097112F1FC9002C0E4937AD2
:100FE000B36786E47AB3678A7AB3678B220AAF095C
:100FF0007A7D282212CA9312CA8C020C2B7A376986
:10100000887E34021D227C2BA5BA000302584CA511
:10101000BA5F057EB38E0F22BE205C38070A320904
:10102000B38DB022BE206A6804A5BA6B1D7E378ED0
:10103000977D230B247A278E972E378EBC7E3930EE
:10104000A5BA6B03751F6A7CB322BE206E6804A527
:10105000BA6F2D7E076F96BE078E957E378E9528C8
:10106000081211095E303F80031211097E078E9528
:101070000B047A078E95A5BA6F03751F6E7CB32299
:10108000BE2070400ABE207F38057CB2022FFDBE14
:1010900020816804A5BA82207EA38DC70A3A2E3427
:1010A00001201211117C3B7CBA047AB38DC7A5BA1A
:1010B0008203751F817CB322BE20926804A5BA9377
:1010C000137EB38E9A0A3B09338EAFA5BA9303758C
:1010D0001F92801ABE20946804A5BA95197EB38E1B
:1010E0009A0A3B09338E9DA5BA9503751F94047A1D
:1010F000B38E9A7CB322A5BAFE0D7E238E88740827
:10110000ACB209B559AB22E4222E378EB57E393008
:10111000227A71827A6183E493227C7BC423541FF8
:101120000A2B09A265DC7CB754070A3B2E3400BAAF
:101130001211115CBA22CA796CFF6CEE80317CBE50
:1011400012111A60287E340002CA39AC7E2E346532
:10115000646D227E3002AC3F2E1465646D00120572
:10116000241BFD7CBF7E70011274EB0BF00BE012B0
:10117000886638CA7AF36766DA7922CA3BC20112F6
:1011800096D26CDD4133D2007CBD127B6A7DE3BE1A
:10119000E4033408024131128F98F52809C36565CC
:1011A0000EE40EE4BEE4005058047EE40050BEC0DD
:1011B00002501E1217191212D72804C200803212D0
:1011C00017191212437DD3BED400082824C2008010
:1011D000200ACE1BC50AFCBDFC48161217191212B4
:1011E000D72804C200800A1217191212D72802C287
:1011F00000300035E528BEB00250121212CA280491
:10120000C20080251212CA2820C200801C0ACF1BEF
:10121000C5E5280AFBBDFC48101212CA2804C2000A
:1012200080071212CA2802C2002000057CBD127677
:10123000DD0BD01293CB2802218630010312113628
:10124000DA3B22CA797C937CE47CF57C8B7DF3A528
:10125000BA00357A81297A812A7C18800A12F3B67D
:10126000080A7A112A1B10BE100058F17A81297CD5
:10127000081A580B547C1B800912F3B6083D7C01F8
:101280000B10BCE118F380337AF1297AF12A7C1F24
:10129000800A12F3AC080A7A112A1B10BE100058FB
:1012A000F17AF1297C0F1A5F0B547C1B800912F331
:1012B000AC08087C010B10BC9118F3E52A0A2B0A34
:1012C000309D320B340A37DA79227D3EE5287C5C8A
:1012D0007C4F7C3E7E20011212437DD3BED4000A97
:1012E000227CB07C711290247D133E140212EF7E9A
:1012F0001F2D2E2D310B1A3022CAD8CA79C2007E7A
:10130000B3696E600261976CFF807F12F28B4CEEC6
:10131000781CBED0237817E412139C581174011264
:10132000139C580A74017E702312139F4822BEE05A
:101330000F7855BED0237850740E12139C58497400
:101340000F12139C5842740E7E702312139F58384C
:101350007CBE7C7D7E600112893D7F61129C1E7D7A
:10136000131A021A007F169F107E0800031203C38F
:101370007F71129C1E7DD31A361AC62F67BE680B6A
:10138000B858057CBF12757A0BF01275F928026106
:101390000B300003121136DA79DAD8227E7022126D
:1013A00012E5BE3400FA227F717F607C5B7E700D97
:1013B000AC7509A3679E09B3679FF5397EB3699D34
:1013C0007C7B1E700A370A4ABD43580B753A00757C
:1013D0003B01753C0280180A3B1B347CB7F53A0A86
:1013E0003B7D231B247CB5F53B1B357CB7F53C7C52
:1013F000BA7E71391212E57D137D010E047DB10EA6
:10140000B40EB42DB07DA12EA4000A6C996C006CB2
:1014100011D201D202D2037E81398045300111E51B
:101420003A1214D25808BDA108040B908002C201E0
:10143000300211E53B1214D25808BDA108040B007C
:101440008002C20230030F1214D05808BDA1080454
:101450000B108002C2032001062002033003071B89
:1014600080BE800058B6D201D202D203E5390A3BD1
:101470000B347C878045300111E53A1214D25808AC
:10148000BDA108040B908002C201300211E53B129D
:1014900014D25808BDA108040B008002C202300318
:1014A0000F1214D05808BDA108040B108002C2030B
:1014B00020010620020330030A0B807E73699EBC64
:1014C0007818B37A6B907A7B007E1D357A1B1022D8
:1014D000E53C7C781212E57D13BDB122CA3B7CC687
:1014E0007CD77CEB7C7D1212E57A3531BEC0017869
:1014F000377CFDBED00028117CBE7C7D1B7012178E
:101500000808060A3D1B347CF77E73699E0A271B78
:10151000240A3DBD3258407CBE7C7D0B70121708FA
:1015200008350A7D0B74802F7CFEBEE000280E7CFF
:10153000BE1412170608060A3E1B347CF77E736938
:101540009D0A271B240A3EBD32580C7CBE0412178C
:101550000608040A7E0B747CBFDA3B22CA3B7CD7A8
:101560007CCB7C7D1212E57A352D7A352F7E1800E2
:101570002C12F4B512176E1217127E18002B12F4EB
:10158000B512174BBEB003280AE52ABEB0032803E4
:10159000E4C1186CEEE52ABEB12950417AD12C1273
:1015A00017127CFC800C121755BEB00338090BE0F3
:1015B0001BF0BEF00058EF7AD12C1217127CFC8081
:1015C0000C121755BEB003380C0BE00BF07E73699C
:1015D0009DBC7F18EC4CEE683D1BE0803912170F64
:1015E0007CFD800C121735BEB00338090BE01BF0F0
:1015F000BEF00058EF12170F7CFD800C121735BE9D
:10160000B003380C0BE00BF07E73699EBC7F18ECC6
:101610004CEE68021BE07CBEDA3B22CA3B7A0D31FD
:101620007CD77CCB7AC13D7C7DE53D12F0485803E8
:1016300012F4AD7AC139800F121726581112F0F842
:10164000580312F2CC1539E539BEB00058EA0A5CED
:101650000B54F539800F121726581312F0F858035F
:1016600012F2CC05397E73699DBE713918E812F407
:10167000A55803753AFF12F14BBE253B480512F4FD
:101680009D0803753AFE12F071DA3B22CA3B7A0DCF
:10169000317CC77CDB7AC13D7E713D12F048580336
:1016A00012F4AD7AC13980147CBD7E713912172ACB
:1016B000581112F0F8580312F2CC1539E539BEB0C2
:1016C0000058E50A5C0B54F53980147CBD7E7139F5
:1016D00012172A581312F0F8580312F2CC05397E6B
:1016E00073699EBE713918E312F4A55803753AFF69
:1016F00012F14BBE253B480512F49D0803753AFED6
:1017000012F071DA3B227C7D1212E5BE3531227A6D
:10171000C12B7E352D7A352F227D3EE5287C5C7CE1
:101720004F7C3E6C2222E5397C7D1212E57D737E72
:10173000353EBD3722E52B7C7F6C661214DCF52B21
:101740007E18002B7A1D35E52B7C7F7E08002F123A
:10175000161BF529227CBF7E712C7E60011214DCE1
:10176000F52C7E18002C7A1D357CBF7E712C7E08EE
:10177000002F12168CF52A221298991212F912765D
:101780002812758212772C12113612780312113634
:10179000128D2F12113612767512117B12752612C8
:1017A0009A720217A5CA3B7ED367660A3D3E34CAC9
:1017B000397E1865647E087D281205241BFD6C1196
:1017C0007528006CCC0218677E4403FF7EE0FF6C36
:1017D000FF80437CBF12111A603A12F3C0BEB0FF03
:1017E000683209037D290A207402ACBC09058E19F0
:1017F0001219637D137402ACBF09057D280A207499
:1018000002ACBC09058E181219632D13BD412804C2
:101810007D417CEF0BF0BCDF38B9BEE0FF68467E4F
:101820007002AC7E09B37D2809737D291212E57D13
:10183000237402ACBE09B57D2812000EBD234825D5
:101840007E7002AC7E09037D287EA1287402A41953
:10185000057D6409037D2919057D6574FF19B37D34
:10186000280B1005280BC07E038E54BC0C280302E5
:1018700017C87CC180656D007EE0FF6CFF80337C03
:10188000BF12111A602A7E3002AC3F09B17D28BE1A
:10189000B0FF681C09717D291212E57D43BD045813
:1018A0000F12F3C0F52909B37D29F52A7D047CEFD9
:1018B0000BF0BCDF38C9BEE0FF681E7EA129128F85
:1018C0008819A17D64E52A19B17D657EA0FF7E306F
:1018D00002AC3E19A17D2805280BC012196A389662
:1018E000900204E4937CAB7402A4CA597E187D6410
:1018F0007E087D281205241BFD7ED128121FB97495
:1019000002AC7B7E088E1874FF120026BED0002821
:10191000380A3D3E34CA397E187D287E0865641237
:1019200005241BFD0A3D3E34CA397E187D287E08F9
:101930008E181205241BFD6CCC800A7CBC7E7001C5
:101940001274EB0BC0BCDC38F27AD38E547AD367B6
:1019500066900203E493BEB3676650047AB3676689
:10196000DA3B220A309D32020549900203E493BC1F
:10197000BC22CA3B7F617F707E087D4E12A12F7E04
:10198000087D58121C287E087D621267D87E94005C
:101990001E7DB97EA765609EA4001E7E8765629E3F
:1019A00084001E6CCC61540A3C2D3D7D2C7E1BB006
:1019B000B401028002418212F22DB401067403398F
:1019C000B000012D3F7D2E29B10001B40302800239
:1019D00041660A3C09638BD50A2C09728BC1BC672E
:1019E000400241627EB38E64B401777CBC7D3B7D56
:1019F0002A7D197D0812A02650680A3C2E348BD50A
:101A000012F47D74010A3C19B37D4E7EA00312F2DC
:101A1000B26CFF80467E700DAC7F09D3679BBCCD56
:101A200078372E3467977E140029740D1203F77EE1
:101A30000867977EB3696D7C7F128E8D401B7402A0
:101A40000A3C19B38BFD7E700DAC7F12A283AC3CB7
:101A50002E148C8B740D1203F70BF012A26F38B595
:101A6000613A6CAA801712A27670057EA002800DE2
:101A700012A276B402028002613A7EA00212F2B291
:101A8000613A12F22DBEB0026804600261260A2C8F
:101A900009A28D0D4CAA780874010A2C19B28BCBBF
:101AA0000A2C09228BCB09328BDFBC3250410A2C25
:101AB00009B28BF370390A2C2E248BDF7CB3047AA5
:101AC00029B0740212F48D74010A2C19B27D5819D0
:101AD000B28BE9E419B28BCB4CAA785E7E2400016C
:101AE0007CBC60053E241478FB4E278C0780317443
:101AF0000112F48DE40A2C19B28BD519B28BDF19BF
:101B0000B28BE919B28BF319B28BCB7E2400017C26
:101B1000BC60053E241478FB6E24FFFF5E278C0713
:101B20007A278C078014740312A137E40A3C19B396
:101B30008BD519B38BDF19B38BE912F41A7E0B70B6
:101B4000397000017F172D35297100010A2C197297
:101B50008D0D0BC012196A280221A76CEE6CCC8087
:101B60001A7E700DAC7C09D3679B0A2D09B27D4E9D
:101B700070072E34679712F0900BC07E73696DBCAE
:101B80007C38DE7528006CCC80470A3C09B37D5850
:101B9000603D05286CFF7E900DAC9F09D48C0DBC78
:101BA000CD782549348C0912F41A79300002493471
:101BB0008C0B7F072D15793000047E700DAC7F2EC5
:101BC000348C0912F09080070BF0BEF00A40C70B6E
:101BD000C012196A38B47CFE6CCC801B7408ACBC93
:101BE0007F172D357E1BB0B4010B7CAF0BF0740D4D
:101BF000A419C57D660BC012196A38E06CCC12F3CB
:101C0000372E148C09740D1203F712F3371266EA9B
:101C10000BC0BEC00A40E77AE3696D7EB38D17251D
:101C2000287AB38D17DA3B227E34000A020026CAD6
:101C3000F86CAA80407EF0037E9008AC9A7F102D4D
:101C4000347A1BF074037F102D3439B100017E34D7
:101C50007FFF7F702DF4793700027F702DF4793784
:101C60000004E47F102D3439B100067F102D343983
:101C7000B100070BA0121CBC38BB12F41174011286
:101C800000267E088BCB12A12F7E088BE9121C2820
:101C90007E088BF3121C287E088BD5121C287E0828
:101CA0008BDF121C287E088BFD121C287E088C09F5
:101CB0001267D86D337A378C07DAF822900203E482
:101CC00093BCBA22CA69CAF87E48691D6CAA801AF8
:101CD00012A6CF1962679B74FF0A4A19B47D3CE4CF
:101CE00019B47D2819B47D320BA0121CBC38E17EDA
:101CF00063696DA5BE003B7EB38D177002E1926CE7
:101D0000AA80287E247FFF7E3008AC3A7F742DF1B4
:101D1000792700022D197D08792000047E3002AC5D
:101D20003A59218D2C59218D180BA0121CBC38D387
:101D3000E1927EB38D177033BE6000282E6CAA80AE
:101D40002012F2BFAC3A12F0E8AC5A12F42374013C
:101D50000A4A19B47D287E500DAC5A19A2679B0B14
:101D6000A07E63696DBC6A38D8E1926CAA80197E46
:101D7000447FFF12F49559422D3259422D34594275
:101D80002D5A59422D5C0BA0121CBC38E27E638D8B
:101D900017BE63696D280ABE600240057E7001802F
:101DA000026C776CAAC1566CFFC14D7E5008AC5FC7
:101DB0007F642DD269060002BE047FFF7802C14B0A
:101DC0000A1F09B17D326002C14BA5BF01607E5080
:101DD00002AC5F49428D2CBE447FFF685149E28DC1
:101DE0002C69F600027D4F9D4E2D4F49E28D1869FA
:101DF000F600047D2F9D2E2D2FBE44000058026D4D
:101E000044BE24000058026D227EF76560BDF45880
:101E1000047E4765607EF76562BDF258047E2765E3
:101E20006212F3A2594F2D32592F2D34800F12F325
:101E3000A2590F2D3269060004590F2D340A0A19D0
:101E4000F07D3C740119B17D3280090BF0126FF006
:101E50002802A1AB0BA07E638D17BC6A2802A1A744
:101E60006CAA80207E7008AC7A7F042D1369300044
:101E7000027E5002AC5A59328D2C6930000459321E
:101E80008D180BA0121FB9BC7A38D96CAA802B0A06
:101E90002A09B27D3CB4FF206CFF80180A4F09B4B8
:101EA0007D32700E0A2A19F27D3C740119B47D321C
:101EB00080060BF0BC7F38E40BA0BC7A38D16CAA4A
:101EC000801A7E700DAC7A4943679712F495594297
:101ED0002D5A4933679959322D5C0BA07EB3696D39
:101EE000BCBA38DE7E342D327A377D487E342D5AA6
:101EF0007A377D4A7E342D827A377D4C7E738D17FA
:101F00007A737D467E73696D7A737D477E087D4660
:101F100012335E6CAA804A7E70FF6CFF80197E507F
:101F200002AC5F49122D820A2ABD2178080A3F09B6
:101F3000737D3C80070BF0126FF038E2BE70FF68D3
:101F40001E7E500DAC5A1972679B74010A4719B472
:101F50007D2812F2BFAC3712F0E8AC5712F4230B15
:101F6000A07E63696DBC6A38AE6CAA80200A3A090B
:101F7000B37D28BEB001681312A7BE7F042D13796C
:101F80004000022D397D28794100040BA0121CBCB1
:101F900038DB121FAD12A13F121FAD12A0857AB31C
:101FA0008D17121FAD121972DAF8DA69227F047EDA
:101FB000187D282274FF120026900203E4937C7B94
:101FC00022121FB9740DAC7B7E086797121FB47480
:101FD0000DAC7B7E08689B121FB4740DAC7B7E0831
:101FE000681974FF1200267E08691D121C2F7E08D6
:101FF000696D7E34000DE402002670057CB702593D
:1020000068B4A00FA5BF01047402800274017AB302
:102010008EAD22B401197E0F2D2E7D217A278EBC24
:102020006D227A278E977A738DB17CB7023804BE01
:10203000B05C383D0A2B19728DB07C6B2E60E36862
:10204000162E60F7681F2E600D78337E638DC812E0
:10205000207F7A378E95227E638DCC12207F3E348E
:102060007A378E97227E638DD512207F7A738E5CAD
:1020700022BEB0704008BEB07F3803022088227CA8
:10208000466C550A372D3222248A78197E0F8ED459
:10209000A5BF00081220B75E70FB80061220B74E65
:1020A00070041B0A30222E14000E0B0A305E60FDF5
:1020B0001B0A307E0F8ED42E14000E0B0A3022CA5B
:1020C000B8CA1BCA0B120FB15E348000681C0B0A21
:1020D000305E34800068131220B76E70401B0A30E7
:1020E0007E34800012213D1254F4120FB15E340090
:1020F0000268190B0A305E34000268101220A61222
:1021000057B47E34000212213D1254F4120FB15E16
:10211000340001681F0B0A305E340001681612207B
:10212000B74E60021220B012EDAB7E3400011221D6
:102130003D125519C2C1DA0BDA1BDAB8327E0F8EA6
:10214000D479300002221254E768191246C11220D5
:10215000B34E60021220B012EDAB1247ACE47AB37A
:102160008EC4802E120007120066E41247AE7E0F66
:102170008ED42E14000A12F0017AB38E5E7AB3590F
:10218000607AB38EC47E0F8ED41220A61257B4127A
:1021900047931271FF124BB802219B7401122EE873
:1021A0006CAA7E638E887E7008AC6709B359AB0A4F
:1021B0002B7E3002AC3A2E1402D71281E9BD23786F
:1021C000047AA339617E501EAC5A197239650BA08E
:1021D000BEA00378CD7E733961BE70034005E47AFA
:1021E000B339617EB3396112CDB27E7339617A73CE
:1021F00039F7227CABD20512E7B91BA068341BA0CB
:1022000068461BA0780241931BA068590BA2680284
:1022100041A2D2081226C47E348D4012231612F336
:102220000B1254CC1243D61220B31254CC1246DEF9
:10223000802ED20612269A12F1951222A712F1953B
:1022400012233E12232280541254E77807D2081238
:1022500026C48005D20612269A7E348D5612231685
:102260001257D2803F7E34000BCA397E638E8FAC0A
:10227000672E348D406D227E0880001205241BFDE0
:102280007E3400017A3780007E3480001223167479
:102290000480097E348D6112231674037AB38E6232
:1022A0008002C205A205221227F4793000121247DB
:1022B000580B0A305E607F1B0A30E540541F0A2B22
:1022C00012232DE54112237A12232DE542540312E5
:1022D000237C3E2412232D7E353EBE340002783509
:1022E0001247580B0A304E60801B0A30E543541FDA
:1022F0007C4B6C5512232DE54454010A5BC42354D6
:10230000E07CABE412F1871B0A30E545125EED126A
:10231000F1871B0A30227E14003E740B1203F71261
:1023200022A774017AB38D6FD230D22F227E0F8E06
:10233000D42E1400120B0A304D321B0A302212EE3A
:10234000335E70F812EE304E70031B0A301227F421
:1023500079300024E546541F0A2B122691122335AA
:10236000E54712237A122691122335E548540312C9
:10237000237C3E2412269102233554010A2B3E244D
:102380003E243E243E243E24227A1F025E74017EB7
:102390001F025E6D227E14005A7E10817F717D3196
:1023A0006D222F171B1C70527E1400017E2F81732B
:1023B0007912000612261D1B2A106D117E2F8173C3
:1023C000791200087E2F817312F1D57E2F817C1245
:1023D000EF7F7E2F817C12262112F4357E2F817CA7
:1023E00012F10F7E2F817C12EEF97E2F817C12EF8D
:1023F000B41223807E0F817C8053B4015B7E140075
:10240000017E2F817C791200067E2F817C1226218D
:102410001B2A106D117E2F817C791200087E2F817E
:102420007C12F1D57E2F817312EF7F12261D12F4DC
:10243000357E2F817312F10F7E2F817312EEF97E9C
:102440002F817312EFB41223807E0F81730B0A3039
:102450005E70EF4D321B0A3022CA7BCA79CA2BCA82
:102460001BCA0BA921A202C10B75A7F774017AB38D
:102470008E91E5A4B43F028002A1B27EB38E1244D5
:10248000027AB38E1220E002A1A0743F7AB3818059
:102490007EF381777CBF20E708E4CAB8125A7AA19C
:1024A000967CBF20E702C1057EE38EAE7CBE30E0A5
:1024B0002A7CBE54FE122616CAB87E378E972E3757
:1024C0008EBC12262ADAB812239C7E1D16693100B2
:1024D000032E378E977A378E97C1057CBE30E12365
:1024E0007CBE54FD122616CAB87E378E952E378EC6
:1024F000B512262ADAB81226892E378E957A378EAB
:1025000095C1057CBE30E3237CBE54F7122616CA63
:10251000B87E378EB92E378EA812262ADAB8122640
:10252000892E378EB97A378EB9C1057CBE30E42941
:102530007CBE54EF7AB38EAE301C067E1801AA80A2
:10254000047E1802047A1F025E7401CAB87E1F025C
:102550005E6D227E14005A803D7CBE30E5157CBE47
:1025600054DF122616CAB87E348EAF6D227E1781D4
:102570007980237CBE30E60F7CBE54BF122616CA7B
:10258000B87E348E9D80097401CAB87E35140B3430
:102590006D227E178179122630DAB812239C80656D
:1025A000301C067E1801AA80047E180204122389BA
:1025B0008053E5A4B4C01B7EB38E1244017AB38E5F
:1025C0001274C07AB38180125A797E100112239C52
:1025D0008033E5A4B4050E74057AB381807EB3819F
:1025E00072F5A480237EB38E1244087AB38E12E56E
:1025F000A424C67813301C067E1801AA80047E1815
:102600000204122389125EBDA9C1A3DA0BDA1BDA18
:102610002BDA79DA7B327AB38EAE7401227E2F8187
:10262000730B560B2A105E20FC226D227E178179D7
:102630007CBF232354010354807C1B4E1001227E57
:1026400034593B302142C2217E39500A2512237E63
:102650007A27697C095300010A2512237E7A2769AB
:102660007E095300020A2512237E7A2769820953C4
:1026700000030A2512237E7A276984097300051254
:10268000F0853E347A37698C2212239C7E3781791B
:10269000227E0F8ED42E14002422A2069209124606
:1026A000FD12F3EE12ED3612F3E512ED3612EEB333
:1026B00012F0B30226B67D123E342E34A0006D22F5
:1026C0001B1A1022A20892091246FDA208920912B2
:1026D000F3EE12ECFCA208920912F3E512ECFC12E4
:1026E000EEB312F0B30226B6CAF86CFF74EEACBFBC
:1026F0007DD52ED401001257F60AC73EC43EC43E13
:10270000C40BC6097559AC0AB73EB43EB43EB40B0F
:10271000B67EA4002C7AA52C7EA400087AA52E12E1
:10272000F2F37D3C7D2B12EEC77D3C7D2B12EDF745
:102730007D3C7D2B742A12ECE412F1781226B6123D
:10274000F1691226B612F15A1226B612F178122742
:102750006712F16912276712F15A1227670BF0BE50
:10276000F0044088DAF8227D123E342E34B0006D39
:10277000221B1A102212E4FB7E349D027A37792044
:102780007E3769E17A3779227E3443217A3779249A
:102790007E3412347A3779267E3452057A37792896
:1027A000C2081226C41254E76805D20612269A7E81
:1027B00034001E7E0878DC7E240022123B8B12EE51
:1027C000BE1227677E3400217E2779221227677E7A
:1027D0003400397E0879247E2400030227DE7D53ED
:1027E0003E542E54B0006D446D33800312EF1BBD78
:1027F0003240F9226D337E0F8ED422E47AB35960D1
:102800006D337A378EB97AB38E9A12F42CC20012D5
:102810002ECD7E340520CA397E1F2D2A7E0F2D2E07
:102820001205241BFD12282E12CF6C020C5FE47AD5
:10283000B38D6F12F31712EF63C20412284E12E821
:102840000F400674037AB38D6FD20402284EA2ACF7
:10285000920512F37930040A0B160B0A304E7003FE
:1028600080080B160B0A305E70FC1B0A30A2059222
:10287000AC221229A0C20412284EC20C300B18D26E
:10288000041228A1C20B122146122F20122FCD7440
:1028900001122EE81200F4D20402284E12282ED281
:1028A000041251BA80111257CA4003125212300B4F
:1028B000031252121229A012F46568EA30040302CE
:1028C00044A1221227FB7EB38EC9B40302800221E9
:1028D0004F740412598B12295C122B1E7EB38DB0DB
:1028E00020E7077EB38DC1B40160122B0B6805C2CF
:1028F000041228A1122872300E0AC20ED200122E23
:10290000CD12282E122B0B6805125676800E12550A
:102910008D7EB38DDC7E738E8E12569F7EB38E8F2E
:10292000B4010A122B0B6805C2041228A17EB36FF2
:1029300093B4010C129E3D12EB39129C25121778AC
:102940007EB38DB0547F7AB38DB0123FBA01C6D238
:1029500024D2041228A112000A020C2B1228727E23
:10296000B36F94600D8006122B1E122872124AE576
:1029700050F57EB36F95600D8006122B1E122872E3
:10298000124E7550F5022988301D147E340008CA95
:10299000397E638E8812F27E1205241BFDC21D2231
:1029A00030313912308F7834C2317E342800122B06
:1029B000137E341000122B137E34F700745A122940
:1029C000DD7E34F70174A51229DD7E34F70274959B
:1029D0001229DD7E34F70374270229DD2212F01854
:1029E0000A3B7E0F8ECF79300008125EF9E47AB38D
:1029F0008ED3800E12F1BE5E3400016805122FDC0A
:102A0000800512F26468ED12E49D12E49078FB02F6
:102A10002A126D331B0A30C2CC221254E7780241CD
:102A2000D17E738EE8BE7008500241D1E47AB38E35
:102A3000E830340241D17E34AC00122AD27C9B7E35
:102A4000340A00122AD27AB37D287E340B00122A6F
:102A5000D27AB37D297E340D00122AD27AB37D2A30
:102A60007E34F801122AD27AB37D2B7E34F802121A
:102A70002AD27AB37D2C5E900178137EB37D28B480
:102A80009C0C7EB37D2970067EB37D2A60114C9923
:102A900068097E34AC0074011229DDD23480127EC4
:102AA000B37D2BB487097EB37D2CBEB0196802D2EA
:102AB0003430341D7E342800E41229DD7E341000C9
:102AC000E41229DDA9C0947E34000212465BA9D02D
:102AD000942212F0186D337E0F8ECF7930000A12D7
:102AE0005EF9E47AB38ED3800E12F1BE5E3400013B
:102AF0006805122FDC800512F26468ED12E49D1265
:102B0000E49078FB6950000A022A127EB38DC1BEA0
:102B1000B00122E41229DD7E34004602465B7E3499
:102B200009C46D227A278EC57A378EC722CA3B7CAC
:102B3000DB7E3403E87A352D7E343E807A352F7E75
:102B4000376F960B367A35297E9003AC9D09A459D0
:102B5000E10ADA6DCC7E1405DC7F161203677F0173
:102B6000097459DF7CB7600C1E141E0450034E20FC
:102B7000801478F47D217A252B7EF400047CB760E4
:102B8000053EF41478FB0AEABDEF68167E143E8019
:102B900012F3597DE37AE52F7E1403E812F3597A94
:102BA000352D122EA47E3402D8E41200267E087D34
:102BB000287E3402D874FF1200267E081386124F36
:102BC000D47EC005122B1EBEC00758137E340001F0
:102BD0007CBC60053E341478FB7CB7F52880037517
:102BE00028C0BEC006581D6D7780110A2D12E93E1F
:102BF0002D3712E94E45287A39B00B747E376F961F
:102C0000BD3738E7122EA2122CBD12289C7E181355
:102C1000867A1D317E352D7A35377E352F7A3539D6
:102C20007CBC7E352B7E087D287E51287C4D12E8A9
:102C3000B9200B06200C03202F07202F7DD22E80D9
:102C4000791BC0BEC000480261C47EB38DD0B40100
:102C5000107EB38DD1B401097EB38EADBEB00268D3
:102C6000346D7780287D273E2449321386BE352D6A
:102C70002819BE352F501409777D28BE70FF680BC8
:102C80000A0D122FEB2D2719725A000B747E376F25
:102C900096BD3738D0122EA2122CBD7CBD1274778F
:102CA00050157E0862887E3529740C120026740344
:102CB0007E086288122CBD122FCDDA3B22CA3B7FE0
:102CC000607CAB6DEEBEA0044002A1CE7408A409E6
:102CD000B559AFF5317403123D9E7EA769D97EB711
:102CE00069D72DBA7E087A4A7E34016D74FF1200CE
:102CF000267E087BB77E34016D1200266D77801129
:102D00007D373E34492369F3122FE319727BB70BE9
:102D100074BDA738EB7D7A80117DA73EA4492A694E
:102D2000F3122FE319727A4A0B74BDB738EB6D3387
:102D30007DF37DE37D737D271E241E247CAF7E07FB
:102D400079127CBA60051E041478FB5E04000F7EC5
:102D5000177916122FF478027DF27E0779247CBA57
:102D600060051E041478FB5E04000F7E177928129C
:102D70002FF478027DE20B76BE74000F40B812F19A
:102D80001E7D737D372D3F09737A4A19777B6E7DDF
:102D9000372D3E09737BB719777CDB0B74BE74004B
:102DA0002478E07ED13174EEACDB2E6401002E6419
:102DB00000357E0880007E187A4A122E94123B8BD2
:102DC0007E0880007E187BB7122E941227DEDA3B35
:102DD00022CA797F717EA0256C776C666C556C4435
:102DE000C1707C97AC9A0AD42D4D7EF049ACF77D2A
:102DF000D7A5BC000B7EC40124122E827DC7802A79
:102E0000A5BC12127EC40147122E827DB77EC4017A
:102E10004812F2D38014A5BC24157EC4016B122E77
:102E2000827DB77EC4016C12F2D3122EBE803FBEEB
:102E30004012501E7EB401259DBD0AC62DCB122E18
:102E4000847DB77EA401269DAD0AC6122EB30B6108
:102E5000801C7EB401499DBD0AC52DCB122E847DF8
:102E6000B77EA4014A9DAD0AC5122EB30B510B408B
:102E7000BCA42802A1E20B70BE70055002A1DADAF0
:102E800079229DCD7F572DBC7E5BB00ABB7D7B7CBC
:102E9000EF6CFF22122DD17D367E0880007E24004B
:102EA000B9227CBD0A0D7E1402D8AD102E145A0032
:102EB0006D00222DCA7F472D9C7E4BB00ACB2DCBB7
:102EC0007EF002ACF97F502DB71B5AC0226D337AC9
:102ED000378E97D2041228A1123835124BB8122F10
:102EE00020A200E433022EE87CABE47AB339627AA4
:102EF000B339636C776D227E901EAC975924396785
:102F000059243969E419B439660B70A5BF03E6E4A6
:102F10007AB339BF7AB339644CAA68031200F42239
:102F20007E1F2D2E7A378EBC7E638E880A06122F66
:102F3000EB2E245A007A278EB56D227A278E957E45
:102F40002469F37A278EA87E240008CA297E700897
:102F500012F27E1205241BFD7E340005CA397E6301
:102F60008E88AC672E3459CB6D227E088DF0120509
:102F7000241BFD7EB38E88123B36122FC50975596E
:102F8000EB7A738DD0122FC5097559EC7A738DD1F8
:102F9000122FC5097559ED7A738DD2122FC5097597
:102FA00059EE7A738DD3122FC5097559EF7A738D47
:102FB000D47E738E887A738DE0022FBC7E738E8FE1
:102FC0007A738DBC227EA38E887405A422E47AB322
:102FD0008E90022FD56D337A378EC02274017AB36A
:102FE0008ED3227F062D177E0B70227E1402D8AD61
:102FF000107D21220A125E14000FBD01227C7B7E0F
:10300000A0FF7CB7248C682424FB683014684C141F
:10301000683A14684B146848240778707E1F8ED471
:103020006951000E5E5400047CAB80607E1F8ED41C
:10303000695100065E5400017CAB80507E1F8ED427
:10304000693100065E3404000A56800712308F0A88
:10305000561E541E541E547CAB80317EA1EF802C32
:103060007E638E5C7CB6047AB38E5C0A2609A28EDF
:10307000687EB38DD6047AB38DD670097EB38DD5B4
:10308000047AB38DD5A5BF7D03751F7C7CBA227EE3
:103090001F8ED4693100065E3408002212308F780A
:1030A000097E34B480740A0229DD2275A400E4127A
:1030B000315112E70E12E3D512E4B112E463122B80
:1030C0001E12E4AA12E0C912E45E12E0CE12E0D5AC
:1030D00012E3F312E3FD12E40D12313612309C12AA
:1030E000599312E41F12E71B12E60CD2AF90018A2B
:1030F000E493CAB812312E7E244331DAB812316C0F
:1031000090018AE493CAB812312E7E244121DAB8A4
:10311000123184023116A927C11312308F780E7E26
:1031200034F31E122AD27E34F4C10229DD2290012A
:103130008BE4937C7B2212EE3FE47E3401F4023177
:10314000417CAB7402A47E0F8ED82D15793000100F
:1031500022D2CFA9C7CBF5CC75E600C20002316000
:10316000A9D5C31246DEA200A997C122543F5E70C2
:103170003F12EF47593100327E378EE35923001456
:10318000A9C6CB2212EF475931003E7E378EE35954
:1031900023003C1231A94E70101B2830A9C6CB2247
:1031A0000A5B030354C07CABE47E278EE32E24002D
:1031B000380B28302212331F1231A91237FDA20515
:1031C000E4331231A04D351B28301232D60231D0F3
:1031D0006930000A1231F7A9C6CB227A377D307EDA
:1031E000087D28A9D6CBC23812332212354C12F3EF
:1031F000801232DC0231D07D037EA1CD75CD00C2BC
:10320000AF8002D2AF7EB38E1220E2F77D204E5007
:103210000112360A4D121B38106C99000B90BE90AB
:103220000878F8D2AF80427E178EE30B18105E1438
:103230000008BE1400087831C2AF8002D2AF7EB35E
:103240008E1220E2F7BE0400D078077E340002120E
:1032500046E212360A4E30041B3810D2386C990000
:103260000B90BE900878F8D2AF12F1CC5E3480009B
:1032700068B50B28304E60401B28306D221232E0BA
:103280007AA1CD227F7112EE4312F1A21233537C48
:103290004B6C55E5280A3B4D321236122977000255
:1032A00012F0857E7B406C554D23297700047C64A9
:1032B0004C75123552297700017C47297700037C31
:1032C0006412367A1231A91237FD6D221232E07E75
:1032D0003400300231D429B0000354077C4B6C55C4
:1032E0007E378EE31B38202212331F6930000C1208
:1032F00035526930000E1236121232D60231D0A980
:10330000D6CB693000021236716930000412F271B6
:1033100012333E6D221232E07E3400600231D4A9B5
:10332000D6CB693000047E278EE359320004693021
:1033300000067E278EE359320006693000087E279A
:103340008EE3593200087E0B707C476C5529700063
:10335000010A372D327E278EE35932000C22CAF83B
:103360007F707E7BF029770001BC7F28027CF769A3
:103370001700066D007E3400F274FF1200267F07EE
:103380001232FFA9D6CB6CAA802D6C77801F7E10DD
:103390000BAC1A0A172D013E04691700062D106D9B
:1033A000000B0A206E24FFFF1B0A200B7029670008
:1033B00001BC6738D90BA07E7B60BC6A38CC69370A
:1033C00000061236717C4F6C550A3F1233536D2242
:1033D0001232E012F37912F3D31B0A30D2AC7E34EE
:1033E00000D01231F712EFFB6CAABEA00450157E7C
:1033F0007004AC7A1234564944002660341E4414DA
:1034000078FB802DBEA00850140A3A1B36123452A5
:1034100049440028601B1E441478FB80140A3A9E1D
:103420003400081234524944002A60051E441478BE
:10343000FB5E44000F7E5002AC5A693700062D3205
:103440006D221B1A400BA0BEA00B409EA9C6CBDA72
:10345000F8223E343E347CB77E478EE322A9D6CB99
:10346000692000047E578EE3592500046920000876
:103470007E578EE3592500087E0B500A557CABE43D
:10348000295000010A252D257E578EE35925000C71
:10349000295000020A2512F3DC12367A6D2212320C
:1034A000E07E3400400231D47F7112F43D12367157
:1034B0006930000812F27112EE62297000017C4737
:1034C0006C557E0B70123351297000020A371B3481
:1034D00012367A6930000A1235526930000C123601
:1034E000126930000E7E278EE359320012693000D7
:1034F000107E278EE359320030297000037C47127A
:1035000032DE7E3400A01236694923001A7A7B50DD
:103510004923001C3957000149230016792700026E
:10352000492300187927000449230022792700063F
:1035300049230024792700084923001E7927000A1F
:10354000493300207937000CA9C6CB22297000022C
:103550000A377E278EE35932000E22CAF87C8B7E12
:10356000681DC67E93699C7A937D297E93699B7AB8
:10357000937D2812CEC4BE800278067E682806801D
:10358000047E681DC66CFF7E701EAC7F09B3397265
:10359000606EBE8002780649F33981800449F339B0
:1035A000797D3F7A377D2C7D3D7A377D2E7D3F12A8
:1035B00031DB7EB38E88127477400D7EB38E5F70E0
:1035C0001C7EB38E8FB4011512368C7A377D2C7E1B
:1035D0003422E67A377D2E12368C1231DB302D15EF
:1035E0001236837A377D2C7E3428067A377D2E1268
:1035F00036831231DB6CAA7E701EAC7F19A3397240
:103600000BF0BEF0034080DAF8227E378EE30B38F1
:1036100010227E278EE359320010227F20A9D6CBBC
:10362000691200047E078EE3591000046912000835
:103630007E078EE3591000087E2B307C036C112925
:103640003200010A132D107E078EE35910000C1270
:10365000F3DC1236126D221232E07E3480401236D4
:10366000694933003AA9C6CB221231F77E378EE37F
:10367000227E278EE359320004227E278EE35932C0
:10368000000A22741EACBF4935398122741EACBFBA
:103690004935397D227DF17DE27DD312CED412F100
:1036A000E77E087D287D3E7D2F02361B7F617F707F
:1036B00012CED412F1E37D3F7A377D307E34002084
:1036C0001257DB0231E3CA3BF5347F317A0D2C12FD
:1036D000282E753500803D300B031252121254DA39
:1036E000E535701B7E180E667A1D367E0D2C7E1811
:1036F0000E661236AC7E0D2C123733053580157EE2
:103700001813867A1D3A7F037E1813861236AC7F13
:103710000312373312F46568BE1244A17E1818A64E
:103720007E0D301236AC7E0D307EB359C012373D5F
:10373000DA3B227EA1347408A409B559B07F600A2F
:10374000FB1272B07C7B0A572E54000B7E180001CE
:1037500060052F111478FB2F112F117D1F1203709C
:10376000BEF4000468387E33699B7A337D287E334B
:10377000699C7A337D29740B7AB37D2A7DED7AE7D3
:103780007D2C7AE77D30BEF40002380BE47AB37DFD
:103790002A7E3400048D3F7E087D2802345D22CAD3
:1037A000F87CFB7A1D307A0D2C7E180E667A1D345B
:1037B00012289C7E0D2C7E1D341236AC20030D7E0B
:1037C000B38E5F70117EB38E8FB4010A7E1813869C
:1037D0007E0D301236AC7E0D2C7408ACBF1237391A
:1037E00020030D7EB38E5F70117EB38E8FB4010AFD
:1037F0007E0D307408ACBF123739DAF8225E60BF34
:103800001B2830222452680A0478296D337A378EB7
:1038100097227E63699B7E73699CAC763E347A37CF
:103820008E971E340A367A738DCC7E378E971E346F
:103830007A738DCD221254E77807E47AB38E8880AC
:10384000127EB38E88B4020874027AB38E88800325
:10385000123B077AB38E8F74021238957EB38E882E
:103860002400680E24FD68070BB1780C0246C102E3
:103870003B07E4123895800002387B12F02E780660
:10388000E47AB38E8F221220B71257BB12EE0912C0
:1038900047610246E2CA3B7CEBBEE004400241E1E4
:1038A0007408ACBE09F559AFBEF004400241E1090D
:1038B0007559AB0A47126EF90B467A4528097559B6
:1038C000AC0A673E643E643E640B667E503CAC5F6F
:1038D0002E2479520B28304E70011B28307408AC0E
:1038E000BE097559B22E70FF920112E76312ED9A6C
:1038F0007E9008AC9E09B459AEF52A7E703CAC7F30
:103900007D13123B002E3479846D2209B459AD1217
:10391000ED477E303CAC3F123B007E3528123AF436
:1039200012F2FF7D36123AFA7E303CAC3F2E14790B
:103930005E6D007408ACBE09B559B012ECC312F24A
:10394000FF7403ACBE09B559DF12EDBA12E8AD6DD4
:10395000331200167E303CAC3F123B2F7E7005AC1C
:103960007E123F897E303CAC3F123B2F7405ACBECB
:10397000123F53123BA1ACBE123F6C123BA1ACBE36
:10398000123F0F12E88C120016D20112EDFD12ED5B
:10399000847E303CAC3F2E1479686D00123B206D64
:1039A00022123B1712EDB212F2E7123B20123B1724
:1039B00012EDD17E503CAC5F2E2479660B28307E10
:1039C000340002743CACBF5935796E743CACBF59BD
:1039D0003579706D33743CACBF593579727E3422C1
:1039E00005743CACBF593579747E340006743CAC28
:1039F000BF593579767E340012743CACBF593579A5
:103A000078743CACBF5935797A743CACBF59357980
:103A10007C7E340808743CACBF5935797E6D3374B4
:103A20003CACBF593579867E340001743CACBF593B
:103A30003579807E340C1C743CACBF593579827E5C
:103A4000503CAC5F2E2479840B28304E3441961BB9
:103A500028307E341F00743CACBF59357988BEE0F5
:103A60000378197E340351743CACBF593579627EBA
:103A7000340404123B0E7E34042980077E340A1974
:103A8000123B0E743CACBF5935798C7E34002C7AD5
:103A9000352C7E3400087A352E12F2F37E35287DDF
:103AA0002612EEC77E35287D2612EDF77E35287D5D
:103AB00026742A12ECE47403123D9E74EEACBF7DB2
:103AC000B52EB401007D3B12E7637E24001E123B3D
:103AD0008B7D3B2E34000B12F2E77E24000312276D
:103AE000DEDA3B220B0A305E34FC001B0A304D321A
:103AF0001B0A3022123FDD023AEB123FDD023AEBA5
:103B00002E1479546D002274017AB38E8822743C8D
:103B1000ACBF5935798A227408ACBE09B559B122B7
:103B20007E7005AC7E2E3459CB227E303CAC392ED3
:103B30001479646D00227C8B7408ACB8099559AF78
:103B4000123B2A7E7005AC78123F89123B2A74051D
:103B5000ACB8123F537E303CAC39123BA6ACB81225
:103B60003F6C7E303CAC39123BA6ACB8123F0F74B0
:103B700003123D9E7E70EEAC792E3401002E34008F
:103B800009123B2A7E240002023B8B7D533E542EB9
:103B900054A0006D446D33800312EF1BBD3240F919
:103BA000227E303CAC3F2E1479666D00740522CA2B
:103BB000796DEE7403123D9E7EC769D97ED769D7B1
:103BC0002DDC7E087D287E34005CE41200266DAA80
:103BD000801E7DBA3EB449BB69F3123D977E140046
:103BE0000160053E141478FB7D2B123D8E12F0A26D
:103BF000BDCA38DE7DAC802B7DCA3EC449BC69F3AA
:103C0000123D977E24000160053E241478FB7D3B25
:103C1000120B5B3E342E347D280B38C04DC21B384E
:103C2000C00BA4BDDA38D16DAA80287D3A3E342E6F
:103C3000340192123DF87D525E54000F7E34000133
:103C400060053E341478FB123D883E242E247D28E6
:103C5000123FF2900191E4930A3BBD3A38CD6DAA30
:103C600080287D3A3E342E3401A3123DF87D525E09
:103C700054000F7E34000160053E341478FB123D81
:103C8000883E242E247D56123FF29001A2E4930A2E
:103C90003BBD3A38CD6D337DF37DE37DA37DBA1E08
:103CA000B41EB47D2A7CB57E17791260051E1414EB
:103CB00078FB5E14000F7E277916123FD478027DC0
:103CC000FB7D2A7CB57E17792460051E141478FBD1
:103CD0005E14000F7E277928123FD478027DEB0B0B
:103CE000A6BEA4000F40B612F11E7DA37DBA2EB46D
:103CF00001247D5A2D5F123FE73E4449747D285EC2
:103D000054000F60051E741478FB123D970A1F6063
:103D1000053E141478FB7D2B123D8E3E242E247D0F
:103D2000280B28304D311B28307D5A2D5E123FE77D
:103D30003E4449747D565E54000F60051E7414782D
:103D4000FB123D970A1F60053E141478FB7D2B1271
:103D50003D8E12F0A2BEA4002478916DAA7E94003C
:103D6000EEAD9A2E94011E7D397E087D287E2400BA
:103D700017123B8B7D397E087D561227DE0BA4BEC1
:103D8000A4000440D8DA79227D136E14FFFF1E24AC
:103D90001E241E241E24227D5B5E54000F227CAB59
:103DA0007E0878E07CBA123F227E087920123F22FA
:103DB00012EEB30227677EB769D77EA769D9E412EE
:103DC0003D9E7E3401007E0869E36D22123EFF7E37
:103DD0000869F37D2A123EFF7D1A3E142E1469F302
:103DE0006D007D2B123B8B7D3B2E3401007E0869DC
:103DF000E37E240004023B8B7E2400FF0B1A20226A
:103E0000CAD8CA797CF67D927CE77CDB12F46D1906
:103E1000A08989E419B0898B19B0898C19B0898A75
:103E20007E8402A07D387E2400FF0B1A001E041E33
:103E300004BD014008123EF87E500180257D3812F5
:103E40003DF87E340003AD327D031E041E04BD0127
:103E500038137E3402A0123F07BD814008123EF89D
:103E60006C5512D00B7E340292123F071E841E84C2
:103E7000BD892808123EF87E500180277E340292C8
:103E8000123DF87E340003AD327D831E841E84BD56
:103E90008950137E340292120971BD394008123ED6
:103EA000F86C551296DB1287EF680DBEB0026808F9
:103EB000BEB0036803B404247439ACBF09758989A2
:103EC0000965898B196589891975898B0975898CAB
:103ED0000965898A1965898C1975898A7E5039AC7A
:103EE0005F0962898C1E602E24898A7E29702C7657
:103EF0007A2970DA79DAD8227CBD7C7E7C6F221236
:103F000027DE7E340100227E2400FF0B1A80220966
:103F1000B559EF0B0A305E60F31B0A3012F1000254
:103F200023350B0A305E7003B403054E700C800617
:103F3000B404034E70101B0A3022CAF812E749126B
:103F40003BAF6CFF7CBF1238950BF0BEF00440F421
:103F5000DAF82209B559ED0B0A305E603F1B0A30D2
:103F6000125EED0B0A304D351B0A302209B559EEB1
:103F70000B0A305E60CF1B0A3054030A5B12437198
:103F80000B0A304D351B0A302209B359EB0973591E
:103F9000EC0B0A205E40C31B0A2054030A5B124349
:103FA000710B0A204D251B0A207CB712F100022359
:103FB0003512277512001E023F3A122FBC7E738EF7
:103FC0005E7A738DB712F42CE47AB3696E7AB369B2
:103FD0006D020C2B0A245E24000FBD12227D230BE0
:103FE0000A305E34F800227D451E441E441E441EE5
:103FF00044220B28305D311B28300BA422123FDFF6
:104000001B0A304E352E1B0A30227C6B6C777EB338
:104010008DB0C47C5B5E5007A5BD0402800201DA4E
:104020007CB62496BEB02C400201F17EA003A49081
:104030004033730240B70240B70240BE0240BE02A6
:1040400040C50240C50240F10240F10240F1024089
:10405000F10240F10240F10240F10240F10240F170
:104060000240F10240F10240F10240F10240F1024F
:1040700040F10240F10240F10240F10240F1024001
:10408000F10240F10240F10240F10240F10240F140
:104090000240F10240F10240F10240F10240F1021F
:1040A00040F10240F10240F10240F10240CC0240F6
:1040B000CC0240D30240D31240F44401802F12407E
:1040C000F4440880281240F4440280211240F44451
:1040D00020801A1240F444408013A5BD0013BE6036
:1040E00001400EBE606E38091240F444107AB38E5F
:1040F000AE7CB7227E70017EB38EAE22CAF86DFF11
:104100007EB38E1230E00330E3071242B3F5A441D0
:104110007E1243007DE3BEE40002500241647E1D36
:10412000167E1BB0BEB0C06803B43F0C74807AB377
:1041300081727E70801242937E6D167E6BF0BEF0AF
:10414000C0680221E629A600017CBA30E60F7E1F76
:10415000817C6931000A4D3368031242A87EB38125
:104160007230E202417429B60002F51F7AB38178F9
:104170007AA381777CBAC4037C7B5E70017CB70331
:104180000354C07C7B7CBA54BF4CB77AB381777C34
:10419000BA540FBEB003400469F600037AF7817980
:1041A000BEF4000038024174740112428A20E70212
:1041B00041746D447EB5140BB46DAAE51F7D3F7F3D
:1041C0000512400A600241748012E51F1242D97D37
:1041D000340B442D3B7D2A7A1BB0051F7D5F1BF4F9
:1041E0004D5578E641747E6BB0B43F6A7EB3817BF7
:1041F000B40163E412428A20E77A30E50F7E1F8122
:104200007C6951000A4D5568031242A87EB3817241
:1042100020E2616D447ED5120BD46DCC7D5E1B54C3
:10422000BE57817928087E5781797DF580047DFE0F
:104230001BF47EB38178F51F8012E51F7DE40B44EB
:104240007F162D3E7E1B701242C4051F7D5F1BF43E
:104250004D5578E6801EBEF00568194CFF681512B2
:10426000429D80107E1D167E1BB0BEB005680560A5
:104270000312429D1242B37E738172124293E47A1A
:10428000B381807AB38181DAF8227AB3817B7EB3FD
:104290008177227A71A47E55147A5970227EB38177
:1042A0007244087AB38172227EB3817244047AB375
:1042B0008172227EB38172547F7AB3817244017A13
:1042C000B38172227C6B1242F878057CB60245C538
:1042D000B404057CB6021FFA227C7B6CAA1242F859
:1042E00078097CB71258647CAB800AB404077CB7A9
:1042F0001210067CAB7CBA227EB38DB0C454072268
:1043000075A6007E61A65E603F75A6407EA1A65E92
:10431000A03F75A6807E71A65E703F0A2A12237E9A
:104320003E240A561243714D257C644C75227C9BB9
:10433000298100020AE87D5E7CABE47DE5298100ED
:10434000030A58C454F07CABE42DE5298100010A2E
:10435000F83EF43EF43EF43EF42DFE7E1B800A58F7
:104360002D5F1B0A50298100040A38793000020AA7
:1043700059C454F07CABE4227C347C257CA67C17A9
:104380007C0B1245BB5E80037CBA125EED4D457C12
:10439000B054030A5B1243714D457CB154037C0B4E
:1043A0006C113E043E044D401B1A407E34A0140B99
:1043B0001A405E80C37CB254030A5B12437102430D
:1043C000C14D457CB354030A5B7CABE43E543E5480
:1043D0004D451B1A40227EB38E887E70027E60029D
:1043E0007C367CB71245BB5E80C354030A5B124324
:1043F000710243C17EB38D6FB40102800281937E4E
:10440000738D6CBE738D6E286C7E638D6E7E7009AD
:10441000AC6749538D7A7CAB7E438D777E5002AC7E
:10442000452D3249338D7C7A35554D336847D23529
:104430001BA068101BA0680C1BA0681A1BA06804B6
:104440000BA27831E41244C4300F04740280027469
:1044500001124497801F74011244C4300F04740287
:104460008002740112449774037E70036C666C556D
:104470006C4412437812E82D381C74027AB38D6FA5
:104480007EB38E8F70101243D61220B35E70EF1B76
:104490000A30220244A1227EA38D770A3A19B38DF5
:1044A00070A2AC920A7E0F8ED40B0A305E341000DC
:1044B00068087E34100079300002C2AC12EFFBA213
:1044C0000A92AC22CA797C3B7EF5556DEE7EA38DB7
:1044D000774C3368047E7818A6203502A1AAA9D7A4
:1044E000EA7E076F967E240009A5BB00236D337D0D
:1044F000D33ED47E5F7A422DBD694500067EF0141E
:10450000ACFA2DD7594D79340B34BE34000578DF21
:104510007D323E347E5F7A422DB37F472E94000079
:104520006D447D34800C0B5AD01B4AD00BB50B95D3
:104530000B347ED76F96BDD338EC2D2D7D347CB7F0
:104540007EC4000160053EC41478FB7E23699F0A87
:10455000D25DDC68147DB20B243EB47E6F7A422DAE
:10456000DB0B6AB01245AD80076DBB1245AD0B2465
:104570000B34BE34000478C6A5BB00297D347D43CE
:104580002D423E447E0F7A422D14694000067E3053
:1045900014AC3A7D033E042D105941792A0B34BEE8
:1045A00034000578D9A9C7EAC235DA79227DA00B93
:1045B000043EA47F672DDA1B6AB0227E34A0126D00
:1045C000220B1A40227CA77C3BA5BB9A0A7AA30344
:1045D000DE1277D51277DFA5BB00077CBA125968C7
:1045E0008013BE3080400EBE30EF38097CB324808B
:1045F0007C7A125FD3A5BBFC057CBA024611A5BB31
:10460000FD08BEA05A7809D2312274017AB359FF4D
:104610002224AB681024EF681C24DE682624DE7890
:104620002F7405802D7EB359FFB4052A1246571208
:10463000E0D90200467EB359FFB4051A12465775F9
:10464000E9FF227EB359FFB4050C12465702004021
:1046500074017AB359FF227E3400017D0380147EF9
:10466000A00480077E3400FA1246E27C7A1BA0A5E3
:10467000BF00F17D101B044D1178E42275E76BE457
:104680007E3401047E2400FE7A1BB07E3401057A5C
:104690001BB075E9FF22E47AB359601200071200DB
:1046A000661246B0C2187EB3595FB40102D28622A8
:1046B000123B077AB38E8F1246C17EB38E8F024BA8
:1046C000BC12F02E7806E47AB38E8F221220B75EE9
:1046D00070FB1B0A301247491247610246E27E34E2
:1046E000006480107E2400028001007D121B244D96
:1046F0001178F7007D131B344D1178E822A2133096
:104700000901B35043A209921330092AA9D5C3A9BC
:10471000D4C3A9D3C77E3400601246E2A9D4C7A986
:10472000D5C77E3400801246E2A9D7C3A9D6C37E7E
:104730003401A00246E2A9C7C3A9C6C3A9C4C7A938
:10474000C5C7A9C5C3A9C3C7221220B34E60801B29
:104750000A30124758025F167E0F8ED42E140014B2
:1047600022D201124770D20612269A7E34000A2203
:10477000A20192027E0878EE12ECD212F0B6022666
:10478000B61254E768061246C10247ACE41247AEBF
:104790000247931220B35E607F12EE1F5E700F1B04
:1047A0000A30C201124770D2080226C474017AB3DB
:1047B0008E8F7AB38E88227EB38D78B4010A12462A
:1047C000577E3400780246E2227E73677B7A7367F5
:1047D0007C7E738BC00A177E73696D0A272D217C3E
:1047E000657A63696E7E63019E0A260A379D327E72
:1047F0005302779D327A730276E47AB369717E73DD
:104800008E5E7A735966227E54004E7E4400FF12FB
:104810004AD130225BC2227E1400A57E34FFB01242
:1048200048717E14FF5A7E34FFB21B1A107E1400AA
:10483000AA7E34FFB41B1A106D331249FBBE34003C
:104840000378F7124A157D137E34FFB61248717E45
:1048500033597B7E34FFB87A1B307E33597C7E34EB
:10486000FFBA7A1B307E3359467E34FFBC7A1B3048
:10487000227E2400FE1B1A10227E34088D7E240026
:10488000FF7E147D34124AB5124ABD1B0A307E24C5
:1048900000A57E14FFD01B0A207E24FF5A7E14FF41
:1048A000D21B0A207E2400AA7E14FFD41B0A207E7D
:1048B0002400557E14FFD61B0A207E2400667E1439
:1048C000FFD81B0A207E2400997E14FFDA1B0A20E1
:1048D000124AC66D442E4400FE0B2A2059217D3415
:1048E0000B34BE34000640E87E087D3412497B7DDF
:1048F000137E34FFDC0248717E3408997E2400FF69
:104900007E147D28124AB5124AC6124A05BE3400EA
:104910000678F47E087D2812497B7D237E14FFDC17
:10492000124982784A7E34FFD21249737D236E2465
:10493000FFFF7E14FFD012498278347E34FFD412F8
:104940004973BE3400AA78277E34FFD6124973BE5D
:10495000340055781A7E34FFD8124973BE3400668D
:10496000780D7E34FFDA124973BE34009968030271
:104970004879227E2400FE0B1A30227E34000C027D
:104980004A1D7E0400FE0B0A30BD32227E540054C4
:104990007E4400FF124AD16D331249FBBE3400033E
:1049A00078F7124A157D237E14FFB6124982784AA1
:1049B0007E34FFB21249737D236E24FFFF7E14FF05
:1049C000B012498278347E34FFB4124973BE340089
:1049D000AA78277E34FFB87E2400FE7E1B707A738F
:1049E000597B7E34FFBA7E1B707A73597C7E34FF0C
:1049F000BC7E1B707A735946D221227D133E147DF2
:104A0000512E54FFB06D442E4400FE0B2A20592134
:104A10007D280B34227E087D287E3400067D237E8F
:104A200034FFFF6D55802B7F702DF57E7B806C9958
:104A30006DFF7DE46DE35EE4800068083E346E3413
:104A4000102180023E343E440BF4BEF4000878E2AC
:104A50000B54BD2538D1221248F87EB38EC9B4015B
:104A6000537E538E88A5BD014B6D117D3180190A8F
:104A7000457E5402D8AD547D052D0109405A00BE33
:104A8000400550020B340B147E43699C7EB3699B36
:104A9000ACB4BD5138D9BE3400502815124ABD0BF4
:104AA0000A30BE340005500C0B341B0A3075E9FF88
:104AB0002202487922740C1204416D33227E14FFC5
:104AC000DE7E0400FE227D133E147D512E54FFD065
:104AD0002269320004692200020B2A107A1F7D2A03
:104AE0007A177D2822CAF87EF38E88200B03300CBB
:104AF00003C36178C22E124B7B60053E341478FBF1
:104B00007E536F946C445C574D22686B4E736F9567
:104B10007A736F95124FA4124B824003C3805920C1
:104B20000B06200C03302E03C3804D124A57124B44
:104B30007B60053E341478FB6E70FF5E736F947A71
:104B4000736F94BEF00178297E3402D8CA397E187A
:104B50005CD87E085FB01205241BFD74027E085FDE
:104B6000B0122CBD7EB36F9454FB7AB36F94124F86
:104B7000EE124FF9D38001D3DAF8227E3400017CA3
:104B8000BF22CAF87CFBC200D2016D337A378E5740
:104B90007EB38E8FB40107D2007404124BBC7CBF6D
:104BA000124CD592013001057CBF122B2D30000331
:104BB000124BB8A201DAF8227EB38E8F7CAB124C76
:104BC000C11BA068111BA068151BA168160BA27859
:104BD00017124C108012124C3C124C58800A124C86
:104BE0002980057401124CAA024BEBE47AB38D794B
:104BF0006CAA80137E7009AC7A09B38D822EB38DB6
:104C0000797AB38D790BA07EB38D6CBCBA38E5226E
:104C10006D33124C4F7E578D40124C6DE4024C2088
:104C20007AB38D737AB38D74227E340002124C4FA6
:104C30007E578D56124C6D7402024C207E3400015A
:104C4000124C4F7E578D4B124C6D7401024C207EDE
:104C5000240E667E141386227E340003124C4F7E8F
:104C6000578D61124C6D74037AB38D75227C1B7D58
:104C7000437EA38D6CBEA006502E7E7009AC7A597F
:104C8000438D7A59238D7C59138D7EBE4400017863
:104C9000067E2418A6800059238D8019138D827CEE
:104CA000BA047AB38D6CC322D3227E340004124C32
:104CB0004F124C6D7E738E887A738D737A738D74F8
:104CC00022E47AB38D6C12F3177AB38D6F12EF630F
:104CD0007AB38D79227C2BC2027E333961741EAC8B
:104CE000B3093539657CB2124D0B6C226CAA7E106B
:104CF0001EAC1A192039710BA0BEA00378F0300247
:104D0000087CB3124DA31226E8D3227CAB6C777ECD
:104D10006339F7BC6778086C66124D42E48017125D
:104D20004D4C60053E441478FB124D9A680C7E6031
:104D300001124D42740119B439720B70BE700340F8
:104D4000CE227E901EAC9719643971227E440001F8
:104D50007CBA227CAB6C777E6339F7BC6778046CD5
:104D6000668022124D4C60053E441478FB124D9A29
:104D700068067E6001124D907E636F950A265D2461
:104D800068067E6001124D900B70BE700340C82211
:104D90007E501EAC5719623972227E636F940A26C8
:104DA0005D2422CAF87CAB6CFF7E7008AC7F19A32F
:104DB00059AB0BF0BEF00478F06CFF7408ACBF097F
:104DC000A559AB12EFE4123B007D3F123AF47D3E51
:104DD0000B34743CACBF4925795412E88912EFCDED
:104DE000BEF00440D6DAF8227CBF7E733961D21F50
:104DF000741EACB709B53965124DA30226E8CA790D
:104E00007CFBC2027CBF124D536CEEBEF002741EDE
:104E10007805124F92800AACBE4935397949253957
:104E2000777A1D28741EACBE09B53972602D124FF9
:104E3000A47C7E124DEED202302D13741E124F92BE
:104E40007A1D30124F7F124F871236C6800D124FD7
:104E50007F741EACBE124F8712379F200B03300C9D
:104E600009300203124DE8C380080BE0BEE00340A6
:104E70009AD3DA7922CAF8C2007EF38E88200B0317
:104E8000300C03C3E17C124FCD60053E241478FB47
:104E9000124FAC7802E17B7CBF1274775002D200D3
:104EA000D2041228A130001F7E736F950A375E343A
:104EB000000468137E736F940A375E340004780729
:104EC000D22D124FC68002C22DA20092017CBF12C9
:104ED0004DFE400B302D05124F9DC22DC3E17C7C51
:104EE000BF7E7339F7124DEEE47C7F12569F302D52
:104EF0000F7E1828067A1D30124FB71236C680066C
:104F0000124FB712379F302D03124F9D124DE820DC
:104F10000B03300C05C22DC3806212282E7CBF12F9
:104F2000355BE4122EE8124B7B60053E341478FBAF
:104F30006E70FF5E736F957A736F95122FCD302D63
:104F400034C22D7E3428067E240BB87E142328120A
:104F50003695BE340258500C7EB36F9444047AB335
:104F60006F94800A7EB36F9554FB7AB36F957E0879
:104F700018A6124FD4124FF9D38001D3DAF822A227
:104F80000192037E0D28224935397D4925397B7CE4
:104F9000BF22ACBE493539814925397F2274037A55
:104FA000B38D5522D2041228A17CBF227E736F9547
:104FB0006C665C754D3322A20092037E0F2D2A7E13
:104FC0001822E67CBF2274027AB38D55227E24001B
:104FD000017CBF227E340520E4020026E5E920E7BB
:104FE00003024879227EB38E887C7F024DEE7EB329
:104FF0006F9544047AB36F95227E7359457EB359F9
:1050000060702A7EB38E8F704B7E635943BE6014EE
:1050100028057E60148007A5BE00037E60010A2675
:105020007E3400641203247C67804580277E0F8EC7
:10503000D4692000065E240001780E7E635944BEC8
:10504000607F282C7E607F80277EB38EBFBEB03C01
:10505000680270100A277E3401F48D329E340005F8
:105060007C67800C0A277E3403E88D321B367C6710
:105070007E735967AC677E2400181203247A738EFE
:1050800059C2126D337A378E57227EB38EE5047A79
:10509000B38EE57E738EE57A73594C227EB32E74FF
:1050A00070147EB35960BEB003680B12BBF7120CCC
:1050B0002B1250B8D322C322301642301711125689
:1050C0006A68091246B07EB38EBE70FA12282E7E30
:1050D000B38E8FB402277EB38E887E2400016005D4
:1050E0003E241478FB7E736F94124FB07805124FF4
:1050F000AC680774017AB38D702202282E22201228
:10510000061251611200211250B812517840061255
:10511000516A02002122E47AB35960123B077AB344
:105120006F93122146122F2012575412CF6C740124
:10513000122EE812B2FA1200F412BB6502513F902F
:1051400001B3E493601A6CAA0A3A2E3400061211D5
:10515000110A3B2E3401B41211110A3A19B38EDD33
:105160002280031251993012FA221251BA8003128E
:10517000519912517B50F8221251BA1257CA40036A
:10518000125212300B031252127EB38D7070067ED3
:10519000B38D716002D322C322800B12520B1251C5
:1051A00078401620121312006E70F012520B125437
:1051B000D374027E70950252D522E47AB38E922285
:1051C0001251BA12517B400612516A120021C208D4
:1051D0001226C4C20012528C80167EB3598B600D09
:1051E0007EB38E6370071252A18005800012519920
:1051F0003012E77EB38E63BEB0002805147AB38EFA
:1052000063D20012528CD2080226C474817AB38E03
:105210005D2230300612550E02553C221253857E17
:10522000B38E8F70051251C080031250FE025230AF
:105230007EA03B7EB35960B4010F7EB38E8F6009B0
:105240007EB38EC470031254AA7EB35960B4013B7E
:105250007EB38E8F60297E738EC4BC7A7806201848
:10526000031254727EB38EC47AB38EBF047AB38EA7
:10527000C47E738EC4BE703C2805E47AB38EC47EAF
:10528000B35962BEB001680302546522A200A99519
:10529000CBA200A992CBA200A992CAA200A991CB4D
:1052A0002212006E702E12520B7EB38E8BB4010D43
:1052B0007E340FA07A378EC2E47AB38E8B7E378E1F
:1052C000C24D337804740180051254D374027E7089
:1052D000810252D5227C6B7EB38E5DB48145A5BE22
:1052E00000028039A5BE011CC2AF0A275E2400025D
:1052F0006802D2957A71CDA9D0CEA9C6C9A9D187A5
:10530000D2AF8019A5BE021BC2AF12006E700C7A1C
:1053100071CDA9D0CEA9D6C9A9D187D2AF0000003E
:10532000000000E47AB38E5D227E378EC50B347A9E
:10533000378EC57E378EC7BE378EC528030257C24B
:105340002212520B12E84A12387BC201124770C275
:10535000081226C412F30B5E70EF1220B01254CC68
:10536000A9C4C3C20012537774016C771252D5D20C
:1053700000125377022146A9D0CE300004A9D5C926
:1053800022A9C5C922302324C2237E7359397A73D6
:10539000596074FF7AB359397EA359604CAA7805D5
:1053A0001254658007BEA0017802D2153015031291
:1053B00054837E378945BE340078280312547C7E9E
:1053C000B3596014685B1BB1687224036802816181
:1053D0001254C4380A1254BC68051254B428181266
:1053E0002FD57EB3594130E07B7EB3598B600320CB
:1053F000102C30186F80277EB3594130E0667E371D
:105400008EC07E2403E88D327E5359420A25BD3278
:10541000500C7EB3598B604CBE34000140460254A0
:10542000831254C438107EB35941600A1254BC68C8
:10543000051254B42803025527C210227E34020BF1
:10544000120971122B2212534112570E1254657E0B
:10545000B38E8F700312282E7EB38E8F6006025596
:105460005812547C22E47AB35960D212122FD5021A
:1054700054721254E76804D217C2142274017AB32A
:105480005960227EB38E8FB4010C7EB32E756006F8
:10549000E47AB3596022C21512547C122FD5E47AF3
:1054A000B38EC47AB38EBF0254AA1254E76804D2F2
:1054B00014C217227E738BC0BE7000227EB303D746
:1054C000BEB001227E73696DBE7000224E70101B4B
:1054D0000A3022A9D5EAA9C5EA221251BA12517B93
:1054E00050FB22D20BD20E7E1F8ED4693100065E95
:1054F000340001221254E378030254FD22125507AE
:10550000202F0302553C2230300312550E22A9D21F
:10551000EAA9C2EAC230C22F221254E36808E47A30
:10552000B38E5A0254FD227EB3598B700330180893
:10553000201008201805800002546522200D031257
:1055400044A1E47AB38E6274037AB38D6F74027AE5
:10555000B38D707AB38D7122301407D216C2140243
:10556000E83630171B12566A680E1246B0800320C8
:105570000B067EB38EBE70F7300B0E1228728009B8
:105580003016067EB38E8F700302282E22CA79D27F
:10559000001254DA7EE38D780A3E09B38D70603CC8
:1055A0000A3B1B347CA77AA38DDBB4010474018011
:1055B00001E47AB32E74E40A3E19B38D7009F38DB9
:1055C000737AF38E647CBE7C7F12569F7CBE7C7F98
:1055D00012CF177EB38D78047AB38D787EB32E7494
:1055E000BEB00168077EB38EC9B4033B7403ACBF81
:1055F00009B559E17E0F2D2612373D7CBE7C7F1206
:10560000748392003000207AE32E757AE38DDC12E9
:1056100057F67A7339DC7AF38E8E1256D47CBE7CC0
:105620007F12CE4E1277F81256967E738D780A3717
:10563000BD324818125660D2041228A112287212E4
:10564000CAF57E34080012213D1255587CBE7C7F7D
:105650001272C97CBF7C7E12CB7312E3BCDA792252
:105660003014061220B31257BB22C217C2167EB3E3
:105670008E88BEB00122CAF86CFF12558D0BF01255
:1056800056960A3FBD3248F27EB38DDC7E738E881B
:1056900012569FDAF8227E738D790A271B24221472
:1056A000682114682E0BB1781A7E080E667A0F2DC9
:1056B000267E081DC67A0F2D2AA5BF02167E182841
:1056C00006800C7E1813867A1F2D267E1822E67A15
:1056D0001F2D2A2212CEE0E47AB37D2A7E1F2D26CA
:1056E0007A377D2C1257E47EB36F93700BE47AB354
:1056F0007D2B7E340020801074017AB37D2B7E1FB9
:105700002D2A7A377D2E6D331257DB0231E37E343A
:105710000209120971122B221230AB12575B12F0E0
:105720002E681A7F2012574C4E60021B2A307E2FA3
:105730008ED412574C5E70FD1B2A3080061220A6B4
:105740001257B412F3631257540200F42E54000E91
:105750000B2A30227E340DAC022B22126FF812700D
:10576000E81270B6127192120FBA12097912579795
:10577000121FC112C87112478112219B02577FD29A
:1057800025D226129EEB7E182E7A7A1F03F17E1800
:10579000339A7A1F03F5227E0865647E340219125B
:1057A00057ED7C7B740DAC7B7E0865E074FF0200D6
:1057B000260253294E70021B0A30224E70041B0A27
:1057C0003022E59A6003A9D6DF227E738E92BE70E6
:1057D00064221247580B0A300257B47A377D327E62
:1057E000087D28227E1F2D2E7A377D3022E412007C
:1057F0002690020493227408ACBF097559AB227E2F
:10580000A3896F7E7004AC7A0B34BE378E1040399A
:105810007E378E100B347A378E10BE340001780537
:105820007EB3598E22BE34000278037CBA22BE3485
:10583000000250097D231B2509B239FA229E34004B
:10584000032E3785827E39B02274FF227E738DB09D
:105850007CA75EA00F7CB72354010354804EB38E07
:10586000134CBA22700302584CBEB0033813301CDC
:10587000067E1801AA80047E1802047A1F025E8048
:1058800005BEB06E380E0A1B7E1F025E2D311B3422
:105890007E1BB022BEB0D36803B4D412B4D30A6D59
:1058A000337A378E10C2198002151F0257FFB48059
:1058B000057EB3593B22BEB080280CBEB0EF38073E
:1058C0000A3B09B358BB22B4FC057EB3596222B42B
:1058D000FD05A231E43322B4FE0C7EA38E88740849
:1058E000A409B559AB2274FF22CA7BCA6BCA5BCA32
:1058F0002BCA1BCA0BC083C082A9C093A9D3A7120D
:1059000040FC7EA38E127CBA30E105E47AB38E911E
:105910007CBA30E30A7CBA20E005E47AB38E917554
:10592000A7FFA9D1A37CBA54FB7AB38E1230E30649
:1059300054F77AB38E127EB38E1230E10C54FD7A96
:10594000B38E1254FE7AB38E127E738E9ABE700698
:105950004005E47AB38E9AD082D083DA0BDA1BDA70
:105960002BDA5BDA6BDA7B327AB38DB0C45407B4CE
:10597000040474038004700774017AB359622274BA
:10598000017AB35962E47AB38DB022C454F07AB389
:105990008E1322E47AB38DB07EB38E1254FB7AB3A9
:1059A0008E127E0801AA125A867E0802047E3400F6
:1059B0003E1200267E1801AA7A1F025E751E00752F
:1059C0001F007EB38DB0F5910259CB0259CEA9D7F5
:1059D000CA75A7FF75F30175A30A75A5E075A60042
:1059E000C2CEA9D6EA43EB3C43EC3C75A40174015A
:1059F0007AB381721259FCD2EED2E8227E1480B0C2
:105A00007E1F817C1B1A106D337E0F817C793000E4
:105A1000027E0F817C7930000A125ED77E0F817C76
:105A20000B0A304E70081B0A306D117E1F81731BEC
:105A30001A106D337E0F81737930000A7E34000FA7
:105A4000125EB47E0F81730B0A305E70F71B0A3052
:105A50007E35126D227A1D167E5381727E35147A40
:105A60003950125A797E108112239C74017E3514AC
:105A7000125A7D7E100102239CE47E35120B346D98
:105A8000227E1401FF227E34003E74FF020026CAEB
:105A90003B7CDB7528006CCC752900752A006CEE08
:105AA0007531037E18691D7A1F7D287532007E4886
:105AB00001AA7EB3598B7004C2198009301906748B
:105AC000017AB36973E47AB3019E7AB302777EB345
:105AD0006976700E7EB3697270087EB36973700266
