:10000000024E2D026072E56D6009740112663B7547
:100010006D0022E412663B756D0122024B7DE555B1
:10002000BEB00168F912662960FB22025ED27E34FE
:100030000F361253BE7E340F36125CB51266326034
:10004000FB22220265F9C28E758D00A934C905759F
:100050008BE68003758B78D28E2232025B0CBEB0A9
:100060000A50060A2B1972150C222202005AE55278
:1000700024FF22025F41CA3B7EB30E26F5267ED3C3
:100080000E277E340DEA7A35337E3400277E240035
:100090000AE41265916CCC7EA0FF7E7007AC7C19DF
:1000A000A313AC7E347FFF7407ACBC593513A8741E
:1000B00007ACBC593513AA0BC0BEC00A78D9E526D7
:1000C00060030200EF126260BED00038030200DF5E
:1000D00074017AB30E2BE47AB30E2D7AB30E2E7E12
:1000E0003412117E24000A74FF1265910201144C2F
:1000F000DD68030201147525007EA0FF7E71257462
:1001000007AC7B19A30D620525E525B40AEB740144
:100110007AB30E2A75250002014C7E51257407AC76
:100120005B2E240D180B28303E343E343E343E34D2
:100130001B28307E5125AC5B2E240D1A0B28303E37
:10014000343E343E343E341B28300525E526BEB10E
:100150002538C7E46C777E61267E2413A8124A5F97
:100160007E71267E600A7E2413A8124A5F7CCB6CC7
:10017000EE7525000201927EA1257407A40965137E
:10018000AC7407ACBE09750D1CBC767803020197F0
:100190000525BEC12538E0BEC12568030201B87E31
:1001A0007007AC7E2E340D187E3007AC3C2E141335
:1001B000A8740712428A0BC00BE0BEE00A78B27E38
:1001C0002413A87E340D5E7E1400461264ED4CDDCF
:1001D00068030201E77E240D187E340D5E7E140054
:1001E000461264ED0204847EB30E2D600302048483
:1001F0006CEE02047B7525007EA1257407A40965B9
:100200000D627E9007AC9E09740D1CBC67780302DA
:10021000021B0525E525BEB00A40DD7EA125740739
:10022000A409F50D6249340D1A49250D6012656166
:100230007D637407ACBE49350D187EA1257407A4F3
:1002400049250D5E1265617D132D167A15217C1FDF
:100250002E10277401A5F7BE14004028030202D90E
:100260007E3521BE34002038030202AE7E7003AC1E
:100270007F09B3110D600302029709B3110EBEB0DE
:100280000038030202890202BF740119B3110D6D17
:10029000227A25210202ED09B3110EBEB00A4003F5
:1002A0000202ED2E34110E047A39B00202D17E70B2
:1002B00003AC7F09B3110EBEB00038030202CC7D3F
:1002C000232E24110E147A29B00202EDE419B31181
:1002D0000D6D337A35210202ED6CAA7E7003AC7F7E
:1002E00019A3110E7E7003AC7F19A3110D7E352169
:1002F000BE340020280302032E7EA1257407A449E2
:10030000350D5E7407ACBE59350D187EA1257407F6
:10031000A449350D607407ACBE59350D1A6D337A9A
:1003200035217EA0017E7003AC7F19A3110C7EF5F0
:10033000217AF5230AEF2EE5337EE9B0B40102807D
:10034000030203526DEE7402ACBF59E510F859E593
:10035000112A7E170E68BE152328030203687E0447
:1003600001007A053102038B7E35236D227C567C99
:10037000676C771242037DE37AE531BEE4001040FA
:100380000302038B7EE400107AE5317402ACBF49AE
:1003900045112ABE452138030203A5494510F87AC4
:1003A00045310203AC7E4531594510F859F5112A03
:1003B0007E3531BE34010038030203C37E340100B0
:1003C0007A35317407ACBE49350D187EA125740706
:1003D000A449250D5E1265617D237A25217E353184
:1003E000AD327C767C650A247A35217E51257407EE
:1003F000AC5B49320D5EACBE49150D18BD13380318
:100400000204147D022E040D5E7D132E15211B089F
:100410001002041E2E240D5E9E35211B2830740709
:10042000ACBE49350D1A7EA1257407A449250D607F
:100430001265617D237A25217E3531AD327C767C53
:10044000650A247A35217E51257407AC5B49320D4B
:1004500060ACBE49150D1ABD13380302046F7D024E
:100460002E040D607D132E15211B08100204792E19
:10047000240D609E35211B28300BE0E526BCBE28EC
:10048000030201F56CEE7407ACBE49450D5E1E44D7
:100490001E441E441E447A453549450D601E441EC7
:1004A000441E441E447A453709F50D6219F50D1CAA
:1004B0007407ACBE09750D6319750D1D7407ACBECC
:1004C00009750D6419750D1E7CBF540FBEB00A402E
:1004D000030205D77CFB0A0F7D102E15337E19B061
:1004E000BEB00378030205F4B4010280030204F9EC
:1004F00074FF19B012110205D709901211BE90FFB6
:10050000680302054B740119B012117E153574078A
:10051000ACBE59150D187E15377407ACBE59150DB4
:100520001A6CDD7E7007AC7E2E340D187E5007AC41
:100530005D7E3015AC3F2D122E14113F7407124210
:100540008A0BD0BED00378DB0205D7BE90035003E0
:10055000020558E419B012117E2535098012117E6A
:100560009007AC897E7015AC7F2D435924113F7ED6
:100570002537592411417EB30E2D60030205A0E4F6
:100580002E34113F125FDD7407ACBE59350D18745F
:10059000017E7015AC7F2E34113F125FDD0205C263
:1005A0004934113F7407ACBE59350D180A3F094351
:1005B00012117E5007AC457E7015AC7F2D32493349
:1005C00011417407ACBE59350D1A0A3F2E34121171
:1005D0007E39B0047A39B07C1E2E1027A5E760035F
:1005E0000205F47E7003AC7E2E34110C7E240003D1
:1005F000E41265910BE0BEE00A6803020486E5267A
:10060000BEB000380302060E74017AB30E2FDA3B37
:1006100022CA3B7524787EE30E264CEE78276CFFC9
:100620006D117402ACBF591512617EA0FF7E3007B8
:10063000AC3F19A1121F74020A1F19B112750BF0F9
:10064000BEF00A78DB6CFF0207BF7407ACBF09B5C8
:100650000D1C540FF522BEB00A40030207BDE5226F
:100660000A1B09B10DEABEB0017803020798752193
:10067000007E31217407AC3B0971121F7A7123BED1
:100680007122680302078A4921121D7407ACBF4911
:10069000350D1A9D321265817D637EA1217407A4F8
:1006A0004925121B7407ACBF49350D189D321265E0
:1006B000817D032D06E5230A1B09A11275BEA0004A
:1006C00028267E71237402AC7B590312617D312E82
:1006D0003412757CBA147A39B009B112757009BE3A
:1006E00004001E50037524507EA1237402A44915F2
:1006F0001261BE1400322809BE040032280302072A
:10070000847D412E440032BD405008BE1400322882
:10071000028071E5240A1BBD105063E5220A1B0903
:10072000B10DEA700474038002740119B10DEA7E00
:10073000A003E5220A1B19A10DF47E71217407ACF8
:100740007B2E34121B7E1413A812428ABEE00028AE
:100750002D1BE07E7007AC7E2E340D187E3007AC6A
:100760003F2E140D18740712428A7E3413A87E306F
:1007700007AC3E2E140D18740712428A1BF07EA19E
:10078000237402A45905126180330521E521BEB00E
:100790000A500302067180256D117EA1227402A405
:1007A000591512617EA0FF7E31227407AC3B19A15E
:1007B000121F7EA002E5220A1B19A112750BF0BCC4
:1007C000EF280302064A7AE30E267E240D187E34B3
:1007D000121B7E1400461264EDDA3B22E47AB30E5B
:1007E000DD6CAA6D447E3002AC3A7D012D021B08FF
:1007F000406D002D131B18000BA0BEA02540E42265
:10080000D29F6D338934CA3B7D6375240C752500F6
:100810007526177527007E3413C27E240028E41243
:1008200065916C660208ED7402ACB609750C237A0A
:10083000712309A50C241A177D211B250B157C4358
:100840001A1A1B151A0A0B057C21BE500058026C9F
:10085000557E730F360A071B041A44BD4008027CFC
:1008600041BE300058026C337E730F370A071B04F9
:100870001A42BD4008027C21BE512458037A5124FB
:10088000BE412508037A4125BE312658037A312618
:10089000BE212708037A21277CF5804B7CE3804129
:1008A0001AEF7EF40018ADFE1A0E2D0F0E040E0482
:1008B0000E047C717A71217E1018AC1F7CB12CBEA5
:1008C00054077E04000160053E041478FB7CB1F5FA
:1008D000220A072E0413C27E09B045227A09B00B02
:1008E000E0BC2E58BB0BF0BC4F58B10B607E730DB3
:1008F00002BC762803020827BE70003803020D43AD
:100900007EE126020D3A6CFF801F1A3E3E341A2FFC
:100910007E140030AD122D312D360B38300E340ED2
:10092000343E24593213A80BF07E730F36BC7F1867
:10093000D97EF124020D2F1A4F7E140018AD141A1F
:100940003E7D512D530E540E540E547CAB7AA12192
:100950007E5018AC5F7CB52CBE54077E240001602D
:10096000053E241478FB7CB5F5220A2A09B213C28D
:1009700055227803020D2DBEF00358030209FE7EB6
:10098000530F360A251B26BD4218737DF43EF449E9
:100990005F13AC492F13A42D257D523E543E243EB7
:1009A000243E242D25495F13AE49EF13A22DE57D8A
:1009B0005E3E542D5E9D2549EF13AA495F13A62D77
:1009C0005E7DE53EE43E543E543E543E543E542D3E
:1009D0005E9D25495F13A87D053E043E043E043E0E
:1009E000047D153E143E143E143E143E143E143E47
:1009F000149D103E543E542D512D52020B554CFF68
:100A0000785D7D243E24491213A87D013E043E04F6
:100A10003E043E047D513E543E543E543E543E54AA
:100A20003E542D507D013E042D052D01491213AA7F
:100A30007D513E543E543E543E549D053E143E145A
:100A40003E149D01491213AC7D513E543E543E5418
:100A50002D509D51492213AE3E249D52020B55BE8E
:100A6000F00178697D043E04491013A67D213E24DF
:100A70003E243E243E143E143E143E142D124920C2
:100A800013A87D523E543E543E543E543E243E24D0
:100A90003E243E243E243E243E249D259D21491093
:100AA00013AA3E143E143E143E143E149D214910D8
:100AB00013AC7D513E543E543E542D512D5249109D
:100AC00013AE7D213E242D219D52020B55BEF00216
:100AD0006803020B757D043E04491013A67D213E78
:100AE000243E243E243E243E242D21495013A47D3F
:100AF000153E143E143E149D159D12492013A87DE9
:100B0000F23EF43EF43EF43EF47D523E543E543EFA
:100B1000543E543E543E543E549D5F3E243E242D4C
:100B2000252D21495013AA7D153E143E143E143E36
:100B3000143E142D159D21495013AC7D153E143ED5
:100B4000543E543E542D512D52491013AE7D213E3A
:100B5000242D219D520E540E540E540E540E540E3C
:100B6000547D233E247E140030AD142D212D261BF0
:100B70002850020D117EA30F367CBA24FDBCBF683D
:100B800003020C113E44492413A47D123E143E245A
:100B90003E243E242D21490413A27D103E142D1025
:100BA0009D21490413A67D103E143E143E143E14AC
:100BB0003E142D109D21491413A87DF13EF43EF4FE
:100BC0003EF43EF47D013E043E043E043E043E04F9
:100BD0003E043E049D0F3E143E142D102D12490478
:100BE00013AA7D203E243E243E243E243E242D2074
:100BF0009D12490413AC7D203E243E243E249D20BA
:100C00002D210E240E240E240E240E240E24020D5B
:100C1000007CBA24FEBCBF78761A0F3E044930131C
:100C2000A27D233E242D23491013A47D313E343E62
:100C3000343E342D319D32492013A63E243E243EBD
:100C4000243E243E249D32492013A87D123E143EAA
:100C5000143E143E143E243E243E243E243E243EB4
:100C6000243E249D212D23493013AA7D133E143E9A
:100C7000143E143E343E343E343E342D319D230E1A
:100C8000240E240E240E240E240E241A3E80717E7F
:100C9000B30F3614BCBF78791A5F3E54492513A4AC
:100CA0007D323E343E343E349D32492513A23E24EB
:100CB0009D32492513A67D423E443E443E443E2497
:100CC0003E243E243E242D249D32491513A87D2127
:100CD0003E243E243E243E247D013E043E043E0448
:100CE0003E043E043E042D027D213E242D202D2174
:100CF0002D230E240E240E240E240E240E241A3E20
:100D00003E341A0F7E140030AD102D312D361B38B5
:100D1000201A1E3E141A2F7E340030AD327D232D52
:100D2000212D260B28303E343E341B28300BF0E5B5
:100D300025BCBF48030209370BE0E527BCBE4803CA
:100D4000020906DA3B22CA3B7CFB7EB30D02F52C7E
:100D5000751000E47AB313187AB313196D227E3438
:100D60007FFF7E670EE56CEEE40A1E19B113A86CD6
:100D7000AA7E1002AC1E19A012EF19B012F0E52CD9
:100D8000BCBE282409200C237E3018AC2309100C8B
:100D9000240A012D103E142D160B1810BD12480206
:100DA0007D21BD1318027D310BE0BEE01478B92D12
:100DB000320E34E52CBEB002500302119D6CEE7E63
:100DC0003006AC3E7D512E5461257E4400FF0B2A37
:100DD00020BD2358207D512E5461277E4400FF0BF7
:100DE0002A207A25302E1461297E0400FF0B0A2068
:100DF0007A253280070BE0BEE00740C36CEE02119B
:100E00008B7E7002AC7E09B30C23F52209B30C244F
:100E1000F5234CEE68080A3E09B313A8700A0A3E8F
:100E20000B340A2E197213A8E52C14BCBE780302E9
:100E300011940A5E0B54F52D02117F7E712D740200
:100E4000AC7B09A30C237AA12409B30C24F5250A51
:100E50002AE5220A3B9D321265817CB7F52AE525F9
:100E60000A2BE5230A3B9D321265817CB7F52B7571
:100E70003D02752F007E51227418AC5BE5230A3BBE
:100E80002D233E242D260B28207A25347E11247410
:100E900018AC1BE5250A1B7D202D213E242D260B99
:100EA00028207A25367D523E543E543E540E540E30
:100EB000540E540E547A5538BE253408147E253409
:100EC0003E243E243E240E240E240E240E247A2595
:100ED00038E52ABEB0013837E52BBEB00138307C8A
:100EE000BF5402B402292D033E042D060B08207EB8
:100EF00071227418AC7B2D313E342D360B38302DD9
:100F000032BE35381803021113752F01021113E593
:100F10002ABEB001380AE52BBEB001380302111316
:100F2000E52ABEB0044003021113E52BBEB0044015
:100F3000030211137CBF5401B40102800302111398
:100F40006D337A353A753C00852226852428E524C0
:100F5000BEB1225006852426852228852327852593
:100F600029E525BEB123500685252785232975400F
:100F700000754100E528BEB1267821754001E526BF
:100F80006005E526B40C03754101E526BEB00028D6
:100F9000021526E528BEB00C50020528E529BEB191
:100FA000277821754001E5276005E527B41703750B
:100FB0004101E527BEB00028021527E529BEB0177C
:100FC0005002052985263E807885273F806AE526E0
:100FD000BEB13E6815E528BEB13E680EE527BEB13C
:100FE0003F6807E529BEB13F78247E513E7418ACB6
:100FF0005BE53F0A1B2D213E242D260B2820BE2415
:10100000000008062E253A7A253A053C80287E51B4
:101010003E7418AC5BE53F0A1B2D213E242D260BA8
:101020002820BE2532080CE53DBEB0002805753DE0
:10103000018003753D00053FE529BEB13F508F0596
:101040003EE528BEB13E50817E51287418AC5BE568
:10105000270A4B2D243E242D260B28507E253A9D11
:10106000257E31267418AC3BE5290A0B7D512D50A5
:101070003E542D560B58509D252D143E142D160B05
:1010800018109D217E31287418AC3B2D103E142D74
:10109000160B18109D217A253A7E25362E25347A96
:1010A0002538E540B40111E541700D7E253A9E25B5
:1010B000387A253A153C153CE53CBEB0042806E5D7
:1010C0003C24FCF53C7E253ABE24000058037A35CA
:1010D0003A7E15381A021A007E35301A261A241262
:1010E00041E9E53C0A1B6D001241E97F217E353A5A
:1010F0001A261A247E1400281241FABF12080AE5A3
:101100003DBEB0002803752F027EB30D08B4010365
:10111000752F02E52FBEB0002863E52F0A3B2E3461
:1011200013177E39B0047A39B0E52D0A3B09B313A1
:10113000A8700C0A2E095213A8195313A8803E75E3
:101140002E008032093313A80A2E09A213A8BCA3CB
:101150002812E52E0A2B092213A8BC2A7816193268
:1011600013A88010E52E0A2B09B213A8BCB378048B
:1011700019A213A8052EE52CBEB12E38C7052DE502
:101180002CBEB12D2803020E3B0BE0E52CBCBE2883
:1011900003020E017E3413A81233D4F510DA3B2279
:1011A000CA3B7CF67CE77CDB6C336C446C226C5570
:1011B0007E370E6C7A353E6CAA7E7007AC7F19A321
:1011C0000C7BE419B30C7C0A5D3E540B547CAB7E63
:1011D0007002AC7E09B30C23F53909B30C24F53A3F
:1011E000BED13A280302120E7EB30F370A0B1B043E
:1011F0000A3D9D03E53A0A3BBD30080302120E7C0E
:101200003A0A4DE53A0A0B9D047C51021259BED1AF
:101210003A3803021227E53A0A0B0A3D2D300B3407
:101220007C376C550212590AFDE53A0A4B2DF47EC3
:10123000B30F370A0B7D301B34BDF318030212596C
:10124000BD4308030212590A3D2D30E53A0A0B9DB1
:10125000307C370A3D9D037C51BED13928030212F0
:10126000837EB30F360A0B1B040A3D9D03E5390A42
:101270003BBD3008030212837C4A0A0DE5390A3B64
:101280000212CABED139380302129CE5390A0B0A90
:101290003D2D300B347C476C220212CE0A4DE539CD
:1012A0000A5B2D457E730F360A377D031B04BD4054
:1012B00018030212CEBD5008030212CE0A0D2D03F0
:1012C000E5390A3B9D037C410A0D9D307C277E3722
:1012D0000EE57CB27E230E5E7E0409C812548A7E1F
:1012E0003709C87D036D117E3709CA7D207A1D2814
:1012F0007E3709CC7D037E3709CE7D207A1D2C7E7A
:101300003709D07D037E3709D27D207A1D307E37A4
:1013100009D47D037E3709D67D207A1D340A2DE558
:10132000390A3B9D327CC70215240A4DE53A0A5B17
:101330009D54F53802150DBEC000580302150B7EF2
:10134000730F36BC7C180302150BE538BEB000588D
:101350000302150B7E730F37BE7138180302150B8D
:10136000E5381A1B3E141A2C7E340030AD322D3174
:101370002E370EE50B38307E530E5E0A259D327AED
:10138000353CBE340000180302150B7E353EBE35D9
:101390003C28030213A67E7007AC7F2E340C7C7EA3
:1013A00039B0047A39B0E5390A2B1A3C9D321265FE
:1013B00081BE34000108030213D0E53A0A2BE53858
:1013C0001A3B9D32126581BE340001180302150BD1
:1013D000753B00021460BEE13B780302145EE53BFE
:1013E0001A3B3E3409730C230A271A3C9D321265BE
:1013F00081BE340001080302141EE53B1A3B3E3453
:1014000009730C240A27E5381A3B9D32126581BE08
:10141000340001080302141E753BFF02146CE53B07
:101420001A3B3E3409730C230A271A3C9D3212657D
:1014300081BE340002080302145EE53B1A3B3E34D1
:1014400009730C240A27E5381A3B9D32126581BEC8
:10145000340002080302145E753B0002146C053B65
:101460007E730D02BE713B08030213D6E53B600399
:101470000214C07E353C7D230E249D327A353C7E9D
:10148000F53C7D3F1A361AE61A1C1A027F171241E4
:10149000E97F017E1D2C9F107A1D2CE5381A1B1A3E
:1014A000027F171241E97F017E1D349F107A1D349F
:1014B0007E1D289F177A1D287E1D309F177A1D30AC
:1014C000E53BB4FF02800302150B7EF53C7D3F1A1D
:1014D000361AE61A1C1A027F171241E97F017E1D97
:1014E0002C9F107A1D2CE5381A1B1A027F17124107
:1014F000E97F017E1D349F107A1D347E1D289F17C1
:101500007A1D287E1D309F177A1D3005380A2DE57B
:101510003A0A3B2D321A27E5381A3BBD321803022E
:1015200013370BC00A2DE5390A3B2D321A271A3C16
:10153000BD32180302132A74067E1D2C2F11147855
:10154000FB7A1D2C7E0D287E1D2C1242052E3400A8
:10155000207ED007ACDF59360C7674067E1D342F02
:10156000111478FB7A1D347E7D307E1D347F071286
:1015700042052E34002059360C787EB30E6B7F174F
:1015800070030215911E341E2450034E608014789F
:10159000F47A1D30BE18007F38030215A47E1800AF
:1015A0007F7A1D307E2D307CAB7E7007AC7F19A317
:1015B0000C7B7407ACBE09A50C7C7E7007AC7F1950
:1015C000A30C7C7407ACBF09750C7CBE700F38038C
:1015D0000215DF7EA00F7E7007AC7F19A30C7CDAAA
:1015E0003B22CA3B7C6BBE6003400674017AB31099
:1015F000A1A5BE01587EA30F36BCA7280D7A710D98
:101600007430AC7B2E371508803C7A710DBCA778FE
:10161000067E34089A802F0A2A7D020B040A17BD21
:101620001078067E3408CA801D7D020B05BD107837
:10163000067E34092E800F2E240003BD126803029B
:10164000196A7E34095E7A3700F502196AA5BE0070
:10165000467E64000B7A69707CB75470C4540F7C6A
:101660007B4C776804A5BF01157EB30FB0B40307A8
:1016700074017E7001803674277E700180137EB302
:101680000FB0B4030774017E7003802174277E704D
:101690000312655002196AA5BE0223A5BF04077490
:1016A000017E70048007A5BF0509E46C7712005E17
:1016B00002196ABE7001500302196A02196AA5BEB6
:1016C0000315BE700D2809740D7AB30F3602196A1E
:1016D0007A730F3602196AA5BE0415BE7018280960
:1016E00074187AB30F3702196A7A730F3702196ABE
:1016F000A5BE05077A730F3802196AA5BE071E7AC0
:10170000730F567CB7543F0A2B3E243E247E370F7E
:101710005F5E70034D327A370F5F02196AA5BE080B
:10172000147EB30F4670077A730AAC02196A7A7393
:10173000102102196AA5BE091CBE700A50037E70F2
:101740000A7EB30F4670077A730AAD02196A7A737C
:10175000105402196AA5BE0A10A5BF0003E4800256
:1017600074017AB30F4602196AA5BE0B147EB30F3B
:101770004670077A730AAE02196A7A73109F0219CB
:101780006AA5BE0C147EB30F4670077A730D09026A
:10179000196A7A7310A802196AA5BE4C077A730EEB
:1017A0005102196AA5BEFB297A71087E370F5B5E6C
:1017B00070DF7A370F5BE50854010A3B3E343E3454
:1017C0003E343E343E344E370F5B7A370F5B02199E
:1017D0006AA5BE4E077A730F5502196AA5BE4F0659
:1017E00012000602196ABE60504012BE6051380DE8
:1017F0000A262E270F3A9E240050021954BE60522A
:101800004012BE6055380D0A262E270F3C9E24003C
:1018100052021954BE60564012BE6062380D0A264C
:101820002E270F3E9E240056021954BE60634012BC
:10183000BE607A380D0A262E270F409E24006302D0
:101840001954BE607B50030218E8BE609F28030253
:1018500018E87EB30F4670480A269E24007BBE24FB
:10186000001858200A262E270F409E24007B7E2930
:10187000F07CBF30E00A0A7F2E7400180E748017C7
:101880001EF080130A262E270F3E9E2400937E29E9
:10189000600A762E7400180A2F19720EE702196A70
:1018A0000A269E24007BBE24001858200A262E27D4
:1018B0000F409E24007B7E29F07CBF30E00A0A7F27
:1018C0002E7400180E7480171EF080130A262E271F
:1018D0000F3E9E2400937E29600A762E7400180A1B
:1018E0002F19720E6E02196ABE60A04011BE60AC64
:1018F000380C0A262E270F779E2400A08056BE6043
:10190000AD4011BE60B9380C0A262E270F799E24EF
:1019100000AD8040BE60BA4011BE60D1380C0A26CE
:101920002E270F7B9E2400BA802ABE60D24011BEB3
:1019300060D5380C0A262E270F7D9E2400D28014F5
:10194000BE60D64014BE60ED380F0A262E270F7FEA
:101950009E2400D67A29708011A5BEF8067A7310ED
:10196000F38007A5BEFE037A710CDA3B22CA3BE482
:101970007AB313D07E340DEA7A35236CEE7EA0FF65
:101980007E7007AC7E19A30D1C74FF0A3E19B313B9
:10199000BC7E34FFFF7402ACBE593513A8E40A3E86
:1019A00019B313C60BE0BEE00A78D27EB30E2660F0
:1019B000030219E57EB30E277003021BFC6CEE7E5A
:1019C00034FFFF7E5002AC5E2E2523593200147E78
:1019D0005002AC5E2E2523593200280BE0BEE00AEF
:1019E00078DD021BFC7EB30E276003021A386CEE12
:1019F000021A2D7407ACBE49350D187E5002AC5E3C
:101A00002E2523593200147407ACBE49350D1A7EB9
:101A10005002AC5E2E2523593200287407ACBE1943
:101A2000E50D1C74010A3E19B313C60BE07E730E5C
:101A300026BC7E38BE021BFC6CEE021A9E6CFF7E3A
:101A40007002AC7F2E3523492300287407ACBE49B1
:101A5000350D1A9D321265817D637E7002AC7F2E3A
:101A60003523492300147407ACBE49350D189D3247
:101A70001265812D367A35217402ACBE494513A812
:101A8000BE45213803021A950A4E19F413BC7E355F
:101A900021593513A80BF0BEF00A78A30BE07E7332
:101AA0000E26BC7E38976CEE021B5274017AB3137B
:101AB000D06CFF021AF1BCFE7803021AEF0A3F094C
:101AC0006313BC0A2E097213BCBC766803021AEFBA
:101AD0007402ACBF492513A87402ACBE493513A8E3
:101AE000BD325003021AEFE47AB313D0021AF90B95
:101AF000F07E730E26BC7F38BD7EB313D0B40102D6
:101B00008003021B5074010A3E09A313BC0A4A1940
:101B1000B413C67E7007AC7E19A30D1C7407ACBE4F
:101B200049350D180A2E094213BC7E5002AC452ED1
:101B30002523593200147407ACBE49350D1A0A2EFC
:101B4000094213BC7E5002AC452E25235932002891
:101B50000BE07E730E26BC7E2803021AAB6CEE02ED
:101B60001BC17407ACBE09B50D1CB4FF0280030293
:101B70001BBF6CFF0A3F09B313C66003021BB87496
:101B80000119B313C67407ACBE49350D187E500257
:101B9000AC5F2E2523593200147407ACBE49350DB5
:101BA0001A7E5002AC5F2E2523593200287407ACF0
:101BB000BE19F50D1C021BBF0BF0BEF00A40B50BA1
:101BC000E07E730E26BC7E38996CEE0A3E09B31394
:101BD000C6BEB0017803021BF57E34FFFF7E5002C3
:101BE000AC5E2E2523593200147E5002AC5E2E25A9
:101BF00023593200280BE0BEE00A78CF7EF30E2690
:101C00006CEE0A3E09B313C6B401028003021C4EF7
:101C10000A3E2E352309B3000AB401028003021CD8
:101C200027740319B3000A0A3E2E352309A3000ABC
:101C3000BEA0036803021C3FE47A39B0021C7C4C4E
:101C4000AA6803021C7C74027A39B0021C7C0A3E2A
:101C50002E352309B3000ABEB0027803021C64606B
:101C600003021C7774017A39B07CAF0BF07407A4BF
:101C700019E50D1C021C7C74037A39B00A2E2E253E
:101C8000237E29701972000A0BE0BEE00A5003029D
:101C90001C02DA3B22CA3B7524007526007527001A
:101CA0007528007E340DEA7A352A7EB30E2F700F28
:101CB0007EB30E2B70097EB30E2C7003021F222000
:101CC00000067E74007080047E7400B27D377E242E
:101CD000004274FF12659174AA7A79B019B70001B5
:101CE0007E730E28197700037525006CDD021EBF78
:101CF0007E7007AC7D09A30DA87AA1297CBA540F88
:101D00000A2B2E252A7E29C07CBA54F0BEB00028AA
:101D100013B4B0028003021EBD53290FBEC0016878
:101D200003021EBDBEC0037803021EBD7EA1257442
:101D300006A4F52109B30DA9F5277407ACBD09B5B3
:101D40000DAAC454F0F5287E730E51BE712928687F
:101D50007EB30E2D702A7E080027E5290A3B2E341B
:101D6000143874017E500F1257CC7E080028E529E4
:101D70000A3B2E34144274107E50201257CC80142B
:101D8000E5290A3B09B31438F527E5290A3B09B3CD
:101D90001442F528E5290A3B7D232E252A7E29B009
:101DA000B40115E419B314386CAAE5290A3B19A348
:101DB00014427527007528007EB30E6AB4FF1574AF
:101DC00007ACBD09B50DA8BEB0FF68057527018039
:101DD000037527007E9007AC9D49540DA47A552CBD
:101DE00049540DA67A552EBEC001782E7530007E5E
:101DF00071307407AC7B09B31450540FBEB129780D
:101E0000104923144C7A252C4953144E7A552E80B0
:101E1000090530E530BEB00A40D57E252C7A252252
:101E20000A545E54000F7CABE5210A3B7D132D174D
:101E300019A100057D532D57195500067E252E7AD0
:101E400025220A145E14000F7D532D571935000703
:101E50007D532D5719550008E5277D232D2719B2ED
:101E60000009E5287D232D2719B2000A09A40DA831
:101E70007CBAC454F07C3B7D232D272E2400077EA2
:101E800029B02CB37A29B0BEA0FF6821BEC001687A
:101E900002052405267CBC030354C07D132D172E98
:101EA0001400057E19502C5B7A1950800E2D372EA8
:101EB0003400057E39B024C07A39B005250BD07EB8
:101EC000730E51BC7D2803021CF0E52419B70004F1
:101ED000E526BEB0002830744219B70002E419B7F5
:101EE00000416CDD0A3D2D377E39607D272E2400B0
:101EF000417E29706C767A29700BD0BED04178E48F
:101F0000B200740112663B7EB30E2B60067E352A4A
:101F100012600FE47AB30E2F7AB30E2B7AB30E2C25
:101F20008004E412663B7E240DA47E34144C7E149F
:101F300000461264EDE526700D7E34144C7E2400BC
:101F40004674FF126591DA3B22CAD8CA796CAA7E20
:101F50003410A97E441055E47AB300FC7EB30D150D
:101F600054FE7AB30D157EB30C22BEB000284F7E0E
:101F7000530D03BE500028466CFF803C7E3002ACFF
:101F80003F09D10C4B09E10C4C7E3002AC3E2D13C5
:101F90000B18006D119E170E57BD0158197E3002A7
:101FA000AC3D2D13490100306D119E170E55BD013A
:101FB0005804051A800B0BF0BC5F38C08003751AFB
:101FC00000E51ABEB00340177EB30D1544017AB385
:101FD0000D15751A007EB300FC44017AB300FC7E37
:101FE000B30D1554FD7AB30D157EB30C2170597ED7
:101FF000530D02BE500028506CFF80487E3002AC6A
:102000003F09D10C2309E10C247E3002AC3D2D1494
:10201000491100306D009E070D0ABD10480E7E303C
:1020200002AC3E2D140B1810BD1058167EB30D15C2
:1020300044027AB30D157EB300FC44027AB300FC6F
:1020400080060BF0BC5F38B47EB30D14B40102807F
:10205000030220EC7EB30C21706D6CFF80617E501A
:1020600002AC5F7D122D140B1810BE170D0A084D1F
:102070002D230B2820BE270D0A5842BEF11B6806EF
:102080007AF11B751C00BEF11B7802051CE51CBE15
:10209000B0102833751C10E55170167EB30D154431
:1020A000047AB30D157EB300FC44047AB300FC80BF
:1020B000167EB30D1554FB7AB30D15800A0BF07E16
:1020C000B30F37BCBF38976CAA6CFF80177E7002C5
:1020D000AC7F2D340B3830BE370D0A08057EA001C9
:1020E000800A0BF07EB30F37BCBF38E14CAA781AD8
:1020F0007EB30D1554FB7AB30D15751BFF751C00CF
:102100007EB300FC54FB7AB300FC7EB30D1554F78C
:102110007AB30D157E730D050A277E730D040A37F9
:102120002D32BE370D0E28147EB30D1544087AB338
:102130000D157EB300FC44087AB300FC7EB30D1588
:1021400044107AB30D156CFF80497E5002AC5F09D4
:10215000D20C2309E20C247E7018AC7D0A1E2D31AE
:102160003E342E370EE50B383049220F0E9D327A61
:102170003521126581BE370D0C28167EB30D15541E
:10218000EF7AB30D157EB300FC44107AB300FC80E7
:102190000A0BF07E730D02BC7F38AF7E340F0E7ECB
:1021A000240028E41265916CFF80257E5002AC5F0C
:1021B00009D20C2309E20C247E7018AC7D0A1E2D76
:1021C000313E342E370EE50B383059320F0E0BF0FE
:1021D0007E730D02BC7F38D3DA79DAD822CA3B6D20
:1021E000337A35217525007526007E230D027A216C
:1021F000237E370EE57A3713A87E3002AC237E2487
:102200000C237E3413AA1264EDE523BEB00A380312
:102210000223E27524006CFF0222F67E3403FF7A6B
:1022200035277526FF6CEE807E7E7002AC7E09B38A
:1022300013AABEB0FF686E7CBEC423541F7CAB7A69
:10224000A12B7CBE54077E24000160053E24147837
:10225000FB7CB5F52C0A2A09B20C73552C6846098B
:102260007313AB0A277402ACBF097513670A379D55
:10227000321265817D637402ACBE097513AA0A2708
:102280007402ACBF097513660A379D321265812D41
:10229000367A35297E3527BE352928097E35297AB3
:1022A00035277AE1260BE0E523BCBE28030222296C
:1022B000E526BEB0FF683D7E71267402AC7B093313
:1022C00013AA7E5018AC5309A313AB0A0A2D203E63
:1022D000242E2713A80B2820BE24003C4816E524F2
:1022E0001A2B3E24193213D219A213D374FF19B337
:1022F00013AA05240BF0E511BCBF280302221B7EA4
:10230000F1240223C86D337A35217EA0FF6CEE02E2
:10231000239A7CBEC423541F7C7B7A712B7CBE54D1
:10232000077E44000160053E441478FB7CB9F52C1F
:102330000A3709B30C73552C685E7E9002AC9E0977
:102340004413AABE40FF68507E5018AC4509B41330
:10235000AB0A3B2D233E242E2713A80B2830BE3476
:10236000000058056D331B28307E5002AC5E0962B8
:1023700013AA7E3018AC36097213AB0A072D103E33
:10238000142E1713A80B1840BE4521080B7A61259F
:102390007A71267A45217CAE0BE0E523BCBE28038A
:1023A000022312BEA0FF681E7E71257E9002AC9FA4
:1023B000197413D2E52619B413D37E70FF7E500230
:1023C000AC5A197213AA0BF0BEF00A50030223058F
:1023D0007E2413D27E3413AA7E1400281264ED7575
:1023E000230A7E3413667E24001474FF126591E57F
:1023F00023BEB00028557E31237402AC3B7E2413EB
:10240000AA7E340C231264ED7E31237402AC3B7E31
:102410002413AA7E3413661264ED6CFF80277CBF00
:1024200054077E34000160053E341478FB7C677CE1
:10243000BFC423541F0A2B2E240C737E29704C76A4
:102440007A29700BF0E523BCBF38D3852311E5232F
:102450007AB30D02DA3B227C7BBE70104012BE7054
:102460004B380D0A372E3700F59E340010022692A5
:10247000A5BF0003E50B22A5BF0103E50D22A5BF03
:1024800002057EB30E3322BE70034012BE700538C3
:102490000D0A372E340F369E340003022692A5BF54
:1024A0000603740122A5BF07057EB30F5622A5BF00
:1024B00008107EB30F4670057EB30AAC227EB310BF
:1024C0002122A5BF09107EB30F4670057EB30AAD69
:1024D000227EB3105422A5BF0A057EB30F4622A563
:1024E000BF0B107EB30F4670057EB30AAE227EB3DB
:1024F000109F22A5BF0C107EB30F4670057EB30D52
:1025000009227EB310A822A5BF4C057EB30E51222E
:10251000A5BFFB03E50822A5BF4E057EB30F5522DC
:10252000BE70504012BE7051380D0A372E370F3A28
:102530009E340050022692BE70524012BE70553832
:102540000D0A372E370F3C9E340052022692BE7081
:10255000564012BE7062380D0A372E370F3E9E3439
:102560000056022692BE70634012BE707A380D0A81
:10257000372E370F409E340063022692BE707B5088
:1025800003022626BE709F28030226267EB30F462E
:10259000704A0A279E24007BBE24001858220A375E
:1025A0002E370F409E34007B7E39A07CBA30E00C81
:1025B0000A5A2E5400180E547CAB80191EA08015A8
:1025C0000A372E370F3E9E3400937E39700A572EFD
:1025D0005400187CAB0A3A09B30EE7220A279E245E
:1025E000007BBE24001858220A372E370F409E3435
:1025F000007B7E39A07CBA30E00C0A5A2E540018B9
:102600000E547CAB80191EA080150A372E370F3E62
:102610009E3400937E39700A572E5400187CAB0A02
:102620003A09B30E6E22BE70A04011BE70AC380CD9
:102630000A372E370F779E3400A08056BE70AD400B
:1026400011BE70B9380C0A372E370F799E3400ADA1
:102650008040BE70BA4011BE70D1380C0A372E3798
:102660000F7B9E3400BA802ABE70D24011BE70D556
:10267000380C0A372E370F7D9E3400D28014BE707E
:10268000D64013BE70ED380E0A372E370F7F9E34BA
:1026900000D67E39B022A5BFF8057EB310F322A57F
:1026A000BFFE03E50C2274FF22000003E003FF03DA
:1026B000FF002000410042002203E003BE039C0310
:1026C000DD004000A300A5004403C0035C035A03DF
:1026D000BB006000E500E8006603A0031A02F703F0
:1026E0009900800147014B0088038002B802B403BF
:1026F0007700A0018901AD00AA03600256025103D0
:102700005500C001CB01CF00CB034002550251035D
:102710005500C001CB01CF00CB034002550251034D
:102720005500C001CB01CF00CB034002550251033D
:102730005500C001CB01CF00CB034002550251032D
:102740005500C001CB01CF00CB034002550251031D
:102750005500C001CB01CF00CB034002550251030D
:102760005500C001CB01CF00CB03400255025103FD
:102770005500C001CB01CF00CB03400255025103ED
:102780005500C001CB01CF00CB03400255025103DD
:102790005500C001CB01CF00CB03400255025103CD
:1027A0005500C001CB01CF00CB03400255025103BD
:1027B0005500C001CB01CF00CB03400255025103AD
:1027C0005500C001CB01CF00CB034002550251039D
:1027D0005500C001CB01CF00CB034002550251038D
:1027E0005500C001CB01CF00CB034002550251037D
:1027F0005500C001CB01CF00CB034002550251036D
:102800005500C001CB01CF00CB034002550251035C
:102810005500C001CB01CF00CB034002550251034C
:102820005500C001CB01CF00CB034002550251033C
:102830005500C001CB01CF00CB034002550251032C
:102840005500C001CB01CF00CB034002550251031C
:102850005500C001CB01CF00AA03600276029303AA
:102860007700A00169016C0088038002D802D503BB
:1028700099008001270109006603A0033A03380389
:10288000BB006000C500C6004403C0037C037B039B
:10289000DD004000830064002203E003DE03DE036A
:1028A000FF002000210021000003400255025103D7
:1028B0005500C001CB01CF00CB03400255025103AC
:1028C0005500C001CB01CF00CBCA3B7E3413F17E53
:1028D000240018E41265917EE0017E730F587A732C
:1028E00013A8E47AB30F586CDD6CCC80110A3C2E2F
:1028F000370F797E3970BC7D40027CD70BC07E7368
:102900000F36BC7C38E7BED01F500C0A2D7E340039
:102910001F9D327CD780026CDD7AD1217E340F3648
:10292000122EE57E340F3612623B022AA66D337AF0
:10293000370F0C7E340DAC7A370AAF12667812600E
:10294000FA12662960FBA9B7EA7E370EE57E270EEC
:10295000E37E141800125F786CCC80786CFF806A7C
:102960004CCC7811E40A3F19B313D96D337402AC1F
:10297000BF593513A9BEF01778137E3400017CBC13
:1029800060053E341478FB5E340444683B7E50306E
:10299000AC5C7E7002AC7F2D322E370EE50B38100A
:1029A0000E140E140E140E140E147E5002AC5F2E74
:1029B0002413A90B28302D311B28300A3F2E341345
:1029C000D97E39B0047A39B00BF07E730F37BC7FF3
:1029D000388E0BC07E730F36BC7C38807522006C3D
:1029E000CC022A840A3C09A313D94CAA780F7E444E
:1029F00022C47E7002AC7C594313A980257E50020C
:102A0000AC5C491213A90A0A8D10591213A92E247D
:102A100013A90B28303E343E343E343E343E341B42
:102A200028307E5002AC5C493213A9BE341EDC5003
:102A3000220A1C2E1413F17E19B0047A19B00A1C54
:102A40002E170F7F7E19B0BCBD502F047A19B080AD
:102A5000318027BE3426AC28270A3C2E3413F17E61
:102A600039B0047A39B00A3C2E370F7F7E39B0BEB8
:102A7000B0002806147A39B0800805226CEE800276
:102A800005220BC07E730F37BC7C28030229E47E2D
:102A9000340F36122EE57E340F3612623B7E730FF2
:102AA00037BE7122680F7EA1217CBA14F5214CAA91
:102AB000680302292D7E7313A87A730F586CFF8068
:102AC000100A3F097313F1BC7D78046CEE800A0B89
:102AD000F07E730F37BC7F38E87CBEDA3B22CA3BFE
:102AE0007EB30F47F521E47AB30F477EB30F45F568
:102AF0002274037AB30F457E370F537E240025E4FA
:102B00001265917EE0076D337A370F0C7E340DAC81
:102B10007A370AAF1266786CDD7E1400017CBE60E5
:102B2000053E141478FB0A2D2E270F537E29704C76
:102B3000737A29700BD0BED02578DE7E340F361222
:102B400053BE7E340F36125CB512663260FB7E37A0
:102B50000EE17E256B124C076CDDBED018501E0AAC
:102B60003D2E370F407E39F07CBF30E00C0A3F2EFF
:102B70003400180E347CF780161EF080120A3D2EA9
:102B8000370F3E0973FFE80A372E3400187CF77EB2
:102B90007002AC7D2E370EE10B3830BE3425801824
:102BA000217E3400017CBE60053E341478FB7D1329
:102BB0006E14FFFF0A2F2E270F537E29705C737A45
:102BC00029700BD0BED02578911BE0BEE0004803F1
:102BD000022B067EE00A74027AB30F45022CD56DF3
:102BE000337A370F0C7E340DAC7A370AAF12667821
:102BF0007E730F360A377E530F370A652D637CCDFF
:102C00006CDD022C9D7EA30F37BCAD28270A3D2E1C
:102C1000370F407E39F07CBF30E00C0A3F2E340085
:102C2000180E347CF780021EF07E7002AC7D2E37C9
:102C30000EE180270A2A0A3D9D322E370F3E7E394B
:102C4000B00A3B2E3400187CF77E7002AC7D2E3724
:102C50000EE12E3400307402A49D350B38307A35E5
:102C600023BE342EE008184CEE68300A2F2E270FB2
:102C7000537E29B0BEB0FE5022047A29B0801CBE1B
:102C800034177058140A3F2E370F537E39B0BEB038
:102C9000002808147A39B080021BC00BD07E730F55
:102CA000360A377E530F370A252D230A3DBD325889
:102CB00003022C054CCC68287E340F361253BE7E9E
:102CC000340F36125CB512663260FB7E370EE17E41
:102CD000256B124C077CAE1BE04CAA6803022BDF6D
:102CE000E5217AB30F47E5227AB30F45DA3B22CAD2
:102CF000F86CFF7E24131A7E3413F07E1400481201
:102D000064ED7E240D187E3413A87E1400461264F0
:102D1000ED7E730E267A7313EE7E730E277A73138D
:102D2000EF7EA313EEBEA00138037EF0017EB30E4A
:102D3000277003E480107EB31365047AB31365BE75
:102D4000B0C8280674147AB313657EB31365BEB099
:102D50000650037EF001BEA001283F7E3400217E94
:102D60002400237E1413F0125D757E3400257E242A
:102D700000277E1413A8125D757E35259E3521121D
:102D80006581BE340080180F7E35279E352312657D
:102D900081BE34008008037EF001BEF000280302EB
:102DA0002E4D7EF31363BEF312ED50557E7312ED7C
:102DB000BE7313EE28127E24131A7E3412A77E14DB
:102DC00000481264ED022E4D7E731362BE700258ED
:102DD000227E24131A7E3412A77E1400481264ED5A
:102DE00074017AB31364E47AB313177EB3136204E5
:102DF000022E8974017AB31364E47AB31317022E96
:102E000089BEF312ED782D7EA312EDBEA313EE5012
:102E10000D74017AB31364E47AB31317806BBEA305
:102E200013EE280474018001E47AB31364E47AB3E6
:102E3000131780557E7312EDBE7313EE501A7E2465
:102E4000131A7E3412A77E1400481264EDE47AB39C
:102E500013647AB3131780317E731317BE70025850
:102E60001C7E24131A7E3412A77E1400481264EDCF
:102E700074017AB313647EB3131704800774017A64
:102E8000B31364E47AB31317E47AB313627EB31313
:102E9000641468090478157E2413A880047E241223
:102EA000A77E34131A7E1400481264ED7E7312ED6F
:102EB0007A7313637E2413A87E3412A77E1400480D
:102EC0001264ED7E24131A7E340D187E140046120F
:102ED00064ED7E7313607A730E267E7313617A73CA
:102EE0000E27DAF822CA797D731259244927002562
:102EF0007E341C0A1B3820492700277E341C0C1BFB
:102F00003820492700297E341C0E1B382049270011
:102F10002B7E341C101B38204927002D7E341C12B8
:102F20001B38204927002F7E341C141B38204927CA
:102F30000006097200010A377C676C777E29300A27
:102F4000134D137E341C181B3810097200030A3706
:102F50007C676C77095200020A254D237E341C1AC7
:102F60001B3820097700010A277E341C161B3820E5
:102F70006D227E341C1C1B38206CAA0A2A4937009B
:102F80000A2D327E39B00A2B7E341C1E1B38200BD2
:102F9000A0BEA01878E56D227E341C1C1B38206C66
:102FA000AA7E5002AC5A4937004B2D320B38207E96
:102FB000341C201B38200BA0BEA01978E46D227EA3
:102FC000341C1C1B38206CAA7E7002AC7A2E34266E
:102FD000A97E2400FF0B1A307E241C221B28300BF4
:102FE000A0BEA0FF78E27E1428A77E0400FF0B0A93
:102FF000301B28307E2401007E341C1C1B38206CC2
:10300000AA7E7002AC7A2E3428A97E2400FF0B1A07
:10301000207E341C221B38200BA0BEA01040E27D75
:1030200037125614492700397E341C281B38207E5D
:103030002400017E341C2A1B3820492700317E34AD
:103040001C2C1B3820492700337E341C2E1B3820B3
:10305000493700454927000A09B70001125C744945
:10306000370047125F0A493700494927000A09B764
:1030700000011254EE492700357E341C521B3820C3
:103080004927003D7E341C541B3820492700377ED9
:10309000341C561B3820DA7922CA3B6D337A35232B
:1030A0007EB30E2670030231707EB30E27600302DA
:1030B00031707EB30C23F5217E730C247A71226D5E
:1030C000667525007526000A377D73803A7E51218A
:1030D0007418AC5B2D273E242E270EE50B2810BE5E
:1030E00014003C08280525E521BEB0002808491237
:1030F000FFD02D610526E521BEB00C500849220005
:10310000302D6205261B74BE74000058C07D73808C
:10311000387E71217418AC7B2D373E342E370EE586
:103120000B3820BE24003C082C0525E521BEB0004C
:1031300028084923FFD02D620526E521BEB00C509A
:1031400008493300302D6305267D370B347D73BE6F
:1031500034001848BCE525BEB003500280127D360D
:10316000126581E5260A2B1241B7BE34000F08070D
:10317000751600E402323C6D33E521BEB00028191B
:103180007E51217418AC5BE5220A1B2D213E242EB2
:10319000270EE54922FFD02D32E521BEB00C501993
:1031A0007E51217418AC5BE5220A1B2D213E242E92
:1031B000270EE5492200302D327EA008802D7E505A
:1031C00002AC5A7D122E1465717A31827A2183E421
:1031D000931A1BBD1308142E2465727A51827A410A
:1031E00083E4931A2B2E25237A25237C5A1BA0A532
:1031F000BD00CB7E71217418AC7BE5220A2B2D32E9
:103200003E342E370EE50B3830126581BE3403E8AC
:10321000080A7E35232E3400287A35237E3523BED6
:103220003400FA28077E3400FA7A3523E5160A3B83
:10323000BE352350057E5523F516E516DA3B22CA26
:103240003B7C9B7DA3BE9001281E0A151B150A39E5
:10325000BD3158147402ACB97DB52DBA1BB60BB88C
:10326000301265047DB38007BE900178156DBB7E7A
:103270007002AC792D3A1B350B38301265047DC3D2
:1032800080084C9978386DCC7DBC7402ACB97DD582
:103290002DDA0BD8301265047DD37E7002AC792D07
:1032A0003A493300021265047DE37402ACB97DF53E
:1032B0002DFA493F00041265047DF302334A7CB5C0
:1032C00024FEBCB978467402ACB97DB52DBA1BB6E4
:1032D0000BB8301265047DB37E7002AC792D3A1BB9
:1032E000350B38301265047DC37402ACB97DD52D21
:1032F000DA0BD8301265047DD37402ACB92DA54920
:103300003A00021265047DE36DFF803E7CB514BC7B
:10331000B978377402ACB97DB52DBA1BB60BB8308D
:103320001265047DB37E7002AC792D3A1B350B38E3
:10333000301265047DC37402ACB97DD52DDA0BD88B
:10334000301265047DD36DFF7DEF0A796D667F03D2
:103350001B0C7D3C1A261A241241E97F417F031B76
:103360000D7D3B1A261A241241E92F417D3D1A2674
:103370001A240A196D001241E92F410A196D000B38
:103380000C7D3E1A261A241241E92F410A196D00BC
:103390000B0D7D3F1A261A241241E92F147D1C1AA9
:1033A000021A007D5B1A4A1A482F207D1D1A021A44
:1033B000002F027D5E1A4A1A482F207D1F1A021A1A
:1033C000002F0274062F111478FB1242052E3400D0
:1033D00020DA3B22CA3B7D737EB30D02F54C7E376B
:1033E0000EE57A354F7542007EC0018019E5420A2C
:1033F0003B2D377E39600A2C2D277E2970BC764004
:10340000037AC1420BC0E54CBCBC38E1E5420A3B43
:103410002D377E39B0F5427544007EC00102351E5D
:10342000754B006D337A354D6CDD75450075460082
:103430007543000234D37E71437402AC7B09B30C34
:1034400023F54709B30C24F548E5430A3B2D377EA5
:103450003970BC7C787B0BD0E5472545F545E548C0
:103460002546F5467E5147AC5DE5450A3B9D321247
:1034700065817CB7F5497E5148AC5DE5460A3B9DC8
:10348000321265817CB7F54A7E514BAC5DE5490A45
:103490003BBD3208090A2D1241B77CB7F54B7E516E
:1034A0004BAC5DE54A0A3BBD3208090A2D1241B713
:1034B0007CB7F54B7E71477418AC7BE5480A2B2D21
:1034C000323E342E354F0B3830BE354D08037A3539
:1034D0004D0543E54CBEB1432803023436BED0004F
:1034E000283AE5458CBDF545E5468CBDF5467EA1FF
:1034F000457E71447402AC7B19A312EFE54619B303
:1035000012F07E254D7E71457418AC7BE5460A1B92
:103510002D313E342E354F1B382005440BC0E5427B
:10352000BCBC4003023420E544DA3B22740D7AB37C
:103530000F3674187AB30F3774047AB30F38E47AFD
:10354000B30F397E3410A67A370F3A7E3410A27A40
:10355000370F3C7E340ED07A370F3E7E340EB87A69
:10356000370F4074157AB30F427AB30F4374047A5D
:10357000B30F45E47AB30F467AB30F477AB30F48D7
:1035800074027AB30F4974457AB30F4A74717AB3EF
:103590000F4BE47AB30F4C7E341FFF7A370F4D6D1B
:1035A000337A370F4F7E340D097A370F517E340E40
:1035B000E77A370F5374237AB30F55740C7AB30F2D
:1035C00056E47AB30F577AB30F587AB30F5974028F
:1035D0007AB30F5A7E3400F47A370F5D7E343FE0C1
:1035E0007A370F5B7E3429307A370F5F7E34109143
:1035F0007A370F6D7E34003D7A370F6F7E340022AC
:103600007A370F717E344C007A370F617E3403CFE6
:103610007A370F637E34079A7A370F657E340584D4
:103620007A370F677E3400097A370F697E34000FCE
:103630007A370F6B7E34005D7A370F73E47AB30FFD
:103640007574077AB30F767E34100A7A370F777E57
:10365000340EAB7A370F797E340E397A370F7B12FE
:103660003A4A7E3410F47A370F7D7E340E937A37DF
:103670000F7F7E3410227A370F810263EDCA3B6CD4
:10368000FF7EB30F36F5247EE30F371BE06CDD7E43
:103690007030AC7D2E370EE54933002E7402ACBD80
:1036A000593513A80BD0BED00D78E47EB30EDEB42E
:1036B000010280030237C96CCC0237BA7E7002ACBB
:1036C0007C09B30C23F52209B30C24F523752102E0
:1036D0007E730D1DBE7020500A7EB30D02B401032F
:1036E0007521017EB30D08B40103752102E522BEE8
:1036F000B0002821E5240A2B1B24E5220A3BBD3219
:103700005813E523BEB000280C0A2E1B24E5230A1B
:103710003BBD3248037521017525008045E525BC78
:10372000BC683D7E71257402AC7B09A30C237AA191
:103730002609B30C24F5270A2AE5220A3B9D3212FA
:103740006581BE3400031818E5270A2BE5230A3BE0
:103750009D32126581BE3400031805752101800B6E
:1037600005257E730D02BE712538B2E523BEB01764
:10377000501A6CDD6D337E5030AC5D2E270EE5594E
:1037800032002E0BD0BED00D78EC8003752100E501
:10379000217C7C7C6F1211A06CDD7402ACBD4935BC
:1037A00013A87E5030AC5D2E270EE55932002E0B4B
:1037B000D0BED00D78E40BF00BC07E730D02BC7C44
:1037C00028030236BC7AF30D02DA3B22CA69CAF832
:1037D0007DB17DF27DE39F007F607F406D667A67FB
:1037E00013A87F107DA67521006CAA804B7E300245
:1037F000AC3A7DA12DAE0BA8A07CBA20E01EBDABDB
:1038000008047DAB800A6D119D1BBD1A08027DA1C5
:103810007D1A1A021A002F600521801ABDAB080418
:103820007DAB800A6D119D1BBD1A08027DA17D1A1A
:103830001A021A002F400BA07EF30F37BCFA38ADE6
:10384000E5210A1B6D007F161242567A3713A8E550
:10385000210A3B6D220A1F6D009F017F1412425600
:103860006CAA802F7CBA7E30027C9A20E00FAC9349
:103870007D142D1E0B18009E0713A8800DAC937DA0
:10388000142D1E0B18007D139D017D142D1F1B1878
:10389000000BA07EB30F37BCBA38C99F667A671396
:1038A000A86CAA80297E7002AC7A7DA32DAE49AAAD
:1038B0000030BDAB08047DAB800A6D339D3BBD3A43
:1038C00008027DA37D3A1A261A242F610BA07E637D
:1038D0000F36BC6A38CF0A166D007F161242567A30
:1038E0003713A86CAA801D7E70027C5AAC577D32BB
:1038F0002D3E494300309E4713A87D322D3F59434A
:1039000000300BA07EB30F36BCBA38DBDAF8DA69C8
:1039100022CA3B7521007E340B297E240008E41264
:103920006591E47AB30C217AB30C227EB30EDDB438
:1039300001028003023A477E3413A87E24000A74F1
:10394000FF1265917E3413B27E24000A74FF126563
:10395000917E370EE17EB30F377E270E577E14130C
:10396000A86C111247F37CEB7E370EE12E34003049
:103970007EB30F367E270E557E1413B21247F37CAA
:10398000DB6CFF6CAA80516CCC80477CBFC4235495
:103990001F7C6B7A61210A2A097213B27E5002AC35
:1039A0005F19720AB10A1C097113A819720AB27C54
:1039B000BF54077E44000160053E441478FB7C79C7
:1039C0000A462E440B297E49B04CB77A49B00BF019
:1039D0000BC0BCEC38B50BA0BCDA38AB7AF30C21C9
:1039E0007E3413A87E24000A74FF1265917E34137E
:1039F000B27E24000A74FF1265917E370EE17EB319
:103A00000F377E270E597E1413A87E10011247F33C
:103A10007CEB7E370EE12E3400307EB30F367E27EE
:103A20000E597E1413B21247F37CDB6CFF6CAA8034
:103A30000E6CCC80040BF00BC0BCEC38F80BA0BCB7
:103A4000DA38EE7AF30C22DA3B22CA797E3400604F
:103A500012614F7CAB7AA16ABEA0084003023B68AA
:103A6000BEA00450057EE00680037EE0057CBABE61
:103A7000B00850487EA003A4903A7C73023A9402A6
:103A80003A99023A9E023AA3023AA8023AAD023AA1
:103A9000B2023AB77EF05E80267EF05F80217EF033
:103AA00061801C7EF06380177EF06580127EF06777
:103AB000800D7EF06980087EF06A80037EF0646C81
:103AC000AA0A3A09B310F40A0B7EB3100A0A1B2D96
:103AD000017CB17C1A2E1021A5F77C9B0A095E049B
:103AE0000001BE040001781C7C79AC7F7E5003ACE1
:103AF0005F0E240E242D327CBA3EB024250A0B1B07
:103B00000830800DAC9F7CBA3EB024250A0B1B0800
:103B1000407CBA3EB024250A0B0B08F07E04000A54
:103B20007D3F8D308D307C75BE70004014BCE72821
:103B3000107EC400647DDF8DDC7D0D9D017C618085
:103B400017BCE73819BE700938147EE400648DFE96
:103B50007D2F0B249D217C650A2A196210F40BA08D
:103B6000BEA0046803023AC1DA7922CA3B7CEB7E2C
:103B7000730D02BE70013803023C7D7CBE120D46FF
:103B80007EB30D07601E7EB3131870087EB3131941
:103B9000700280107E730D02BE7001280CE512BE0B
:103BA000B00828057EF001801E7EF001BE730D076F
:103BB00078066CEE6CFF800F9E731318BE730D07B2
:103BC00078057EE0026CFF4CFF78057CBE120D4646
:103BD000E5107AB30D027E31107402AC3B7E2412E4
:103BE000EF7E340C231264ED7512647513646CEE71
:103BF00080676CDD80597402ACBD09750C230A27FF
:103C00007402ACBE09750C230A379D321265817CA3
:103C1000B7F5217402ACBD09750C240A277402ACF7
:103C2000BE09750C240A379D321265817CC7E521D7
:103C3000BEB000280AE512BEB1212803852112BEBC
:103C4000C0002809E513BCBC28037AC1130BD07E41
:103C5000730D02BC7D389F0BE07E730D02BC7E3875
:103C600091E512B46403751200E513B4640375138F
:103C700000E513BEB112280B85131280067512647D
:103C8000751364DA3B22CAF86D337A370F0C7E3431
:103C90000DAC7A370AAF74017AB30F477AB30F5875
:103CA0007AB30FB07EB30E3112664A125C2E7EB329
:103CB0000FB0B401028003023D8E6D337A370F0CD2
:103CC0007E3400647A370AAF1263CF123EA51262C7
:103CD000A76CFF1A2F7E340018AD323E342E370EFB
:103CE000E52E3400301B350B38301A2F3E24593264
:103CF000138E0BF0BEF00D78DA1262ED12644112F1
:103D000060CE6CFF1A3F3E344923138E1A0F7E1487
:103D10000018AD107D313E342E370EE52E340030C4
:103D20001B351B38200BF0BEF00D78D812640A7ECC
:103D3000B30EDE70097EB30EDD7003023CAE12647A
:103D4000A77003023CAE1230997AB30E301265B000
:103D50007E370EE512080612665012474912006EB1
:103D60005003122CEF7EB31020B40104E412663B22
:103D7000125E9912196D12061112666F125D3612DB
:103D80003D97124DA4121C95124383023CAE1200C3
:103D90001E1265CCDAF822CA3B7EF30E267E640D35
:103DA000EA4CFF780A7EB30E3112664A023EA26CDC
:103DB000EE7E7007AC7E09B30DA8F521BEB0FF788A
:103DC00003023E98E5210A2B2D267E29B0B402027B
:103DD0008003023E9849330DA47EA1217404A449B6
:103DE00025127F1265617A35227407ACBE49350D04
:103DF000A67EA1217404A4492512811265617A3539
:103E000024E5140A3BBE35222856BE352428517EAF
:103E1000A1217404A44935127F7407ACBE59350D35
:103E2000A47EA1217404A4493512817407ACBE5943
:103E3000350DA6E5210A3B2D367E39B0B40207BE0A
:103E4000F00028021BF04CFF784E05157E730E32F1
:103E5000BE71142843E515BEB032403C05148035D0
:103E60007E9007AC9E49340DA47EA1217404A45910
:103E700035127F49340DA6593512817E730E31BE3D
:103E8000711478087EB30E32F5148009E514BEB0C3
:103E900001280215147515000BE0BEE00A68030244
:103EA0003DB1DA3B22CA797E740F897EB3100920B6
:103EB000E003023FAC54FE7AB3100909770002BE5A
:103EC000730E5D68167A730E5D0A373E343E343EDB
:103ED000343E343E343E347A370E537E7970BE73AE
:103EE0000E67680E7A730E670A373E343E347A37AF
:103EF0000E5F097700010A37BE370E6168047A3712
:103F00000E617E270E681E241E241E241E2409779F
:103F100000050A37BD32680C3E343E343E343E3430
:103F20007A370E6809770008BE73101C68247A730C
:103F3000101CBE700F4005E419B70008097700088F
:103F40000A372E3465A17A71827A6183E4937AB359
:103F5000101B09770009BE73101E68087A73101EC3
:103F60007A73101D09770007BE73101F68047A73F7
:103F7000101F09B7000BBEB1516805F55112648FCF
:103F8000097700250A37BE37101868047A371018E9
:103F900009770006BE73101A68047A73101A09773D
:103FA0000024BE73102068047A731020DA7922CAC4
:103FB00079E46CAA0A4A19B40C730BA0BEA003786A
:103FC000F3E47AB30D027AB30D037AB30D047AB336
:103FD0000D057EB30EDEB4010280030240B57EB350
:103FE0000F36F5217EB30F37F5227E370E617A3515
:103FF000237E370E637A35257E370E657A35277E28
:104000003400147A352D7E370EE57E2400217E148F
:1040100000297E0409C812469AE5297AB30D02E503
:104020002A7AB30D03E52B7AB30D04E52C7AB30D90
:10403000056CAA806C7E530D02BC5A28447CBAC41D
:1040400023541F7C7B7CBA54077E44000160053EEC
:10405000441478FB7C697E3002AC3A497109C87D12
:10406000070A007C4119410C237D077C4119410C52
:10407000240A472E440C737E49B04CB67A49B0806E
:104080001E0A150A2A9D213E24497209F07D170A4D
:10409000127CB319B20C4B7D177CB319B20C4C0BCC
:1040A000A07EB30D030A2B7EB30D020A1B2D120A4C
:1040B0002ABD214880DA79227E5001E47AB30D16B8
:1040C00074017AB30D177EA30D024CAA780B74010C
:1040D0007AB300F9E47AB300FABEA0002805E47AC6
:1040E000B30D177E430D07BE40002805E47AB30DDB
:1040F000177E430C22BE4000285F74017AB30D176F
:104100006D336C447E3002AC342E170EE10B181068
:10411000BD1358027D310B40A5BC25E8BE34F8F82C
:1041200058057E5005801FBE34FB5058057E500454
:104130008014BE34FCE058057E50038009BE34FE76
:10414000D458037E5002BE34FC18583074017AB340
:104150000D16E47AB30F4880237E430C21A5BC00E2
:1041600011BEA000280CBE500350037E5003740102
:104170008006BE40002805E47AB30D177E4300F99F
:10418000BC4550047A5300F9BE5002280674017AE7
:10419000B300FABEA000280F7EB30C217009E47AA8
:1041A000B30EDE7AB30EDD7EA300F97402A47A5753
:1041B0000D107A570D1222C2D57CB430E708B2D563
:1041C0006E24FFFF0B247CB630E712B2D56E34FFAD
:1041D000FF0B348D326E24FFFF0B2480028D3230B2
:1041E000D5066E34FFFF0B34227D51AD037D027D79
:1041F00021AD052D12AD352D21227D02AD31AD1041
:104200002D21226D0074104D00780B4D2278278DE2
:10421000317D126D22227D437D326D222F112D447E
:104220005002A50FBF1040049F100B901478ED7F33
:10423000016D227D34227D417D138D247D022F006E
:104240004004BD0440049D040B141478F17D237DCB
:10425000317D106D0022C2D57CB030E708B2D59F09
:10426000229F207F027CB430E713B2D59F229F218A
:104270007F121242059F229F207F02800312420577
:1042800030D5069F229F217F12226CAA4D11681AF9
:104290001E54680E0B38201B18200B350B151B54B1
:1042A00078F250067E39407A1940227D539F11BE24
:1042B000540000402DBE54003F38277E24003F9D0F
:1042C000257E3401ABAD326D227C767C651A24BE2E
:1042D00018003348047E1800337E0800339F017FA6
:1042E0001022BE5405804029BE5405AA38237D25DE
:1042F0009E24057F7E3401ABAD326D227C767C65D9
:104300001A24BE18003348047E1800322E1804CD3B
:1043100022BE5405AA28197D259E24059F7E3401BE
:10432000ABAD326D227C767C651A242E18050022F6
:10433000BE5402DF380E7E3402DF9D356D227E14BE
:1043400000E3800C7D359E3402E06D227E1400E592
:104350001241FA7C767C651A24BE5402DF380A7E4C
:1043600008027F9F017F1080042E180280BE180073
:104370003358057E18003322BE1804CD08047E1879
:1043800004CD22CA3B7E730D067A730D077EA30E01
:10439000267AA30E27E47AB30E2A7E3710184D33FF
:1043A000783FBEA0002808E47AB3151802444A7E7C
:1043B000B3101A20E00302444A7EB3101FBEB315A7
:1043C00018280302444AE47AB315187E2400017ABF
:1043D00027101874017AB30FAE741E7AB3101D80C3
:1043E00069BE3400017822BEA000285E6D227A27C3
:1043F0001018E47AB30FAE7AB3151874237AB31594
:104400001B74017AB3151A8041BE340003783B6DEA
:10441000667A670F0C7E740DAC7A770AAF126675F8
:104420001258781251946D337A371018E47AB30F1A
:10443000AE74017AB3151A7A670F0C7A770AAF75E2
:104440009A7FA9D199D29CA9D6DF7EB3151A70069E
:10445000125032125B56DA3B227E340F897E2400E2
:1044600081E4126591740C7AB30F8B7AB30F8C7A56
:10447000B30F8D740F7AB30F89743C7AB30F8A74BB
:10448000A07AB30F8E741E7AB30F9074097AB30FAB
:1044900091741E7AB30F92E47AB30F937AB30F94A8
:1044A000F552F5517AB30FAE74017AB30F8F7AB328
:1044B0000FAD7AB30FB074047AB30FAF743B7AB315
:1044C0000FB1740A7AB30FB81266620A367A730FA4
:1044D000B21266627A730FB31266670A367A730F86
:1044E000AA1266677A730FABE47AB30FB9741F7AB6
:1044F000B30FDAE47AB30FBB1265BE7AB30FBA1208
:1045000064BF7AB30FAC7E340F997E24000874FF29
:1045100012659174047AB30F9974017AB30F9A22D9
:10452000CA797CFBE555BEB00168F9E555B402686F
:10453000A9D7EA7E370EE57E270EE37E1418001217
:104540005F7812006E5027A9C7EA7EE30F58E47A1D
:10455000B30F587E2405E07D327E141800125F7878
:104560007AE30F587EB30FB0B40103126284740172
:104570007AB30EDE7E34092E7E2408E47E140A18F7
:10458000125E267E370EE17E270EDF7E140A62124F
:104590005E2674017AB30EDD125E6012632F7EB365
:1045A0001017B40131BEF001782C7EB30D077026D0
:1045B000123FAF7EB30D0270197E7310A00A370947
:1045C000730E347A730F55E47AB30F597AB3101718
:1045D00080066CFF80026CFF125DB11263917CBF9C
:1045E000DA79227DF3BEF40000402DBEF4003F389E
:1045F000277E44003F9D4F7E540198AD546D447C0E
:10460000BA7CA9BE28003340047E2800337E1800FF
:10461000339F127F21024697BEF4030040227D4F54
:104620009E4403007E5401ACAD546D447CBA7CA919
:10463000BE28003340047E2800322E28029D805779
:10464000BEF4019F380E7E54019F9D5F6D447E1421
:1046500000E2800C7D5F9E5401A06D447E1400E555
:104660007F121241FA7F217CBA7CA90A48BEF4016C
:104670009F380A7E1801679F127F2180042E28012F
:1046800068BE28003350067E280033800ABE280208
:104690009D28047E28029D7D3522A9D6CB7CB7F5C6
:1046A000B90A56F5BA7E552DF5BBF5BC7CB1F5BD02
:1046B0000A50F5C109B2000144A0F5C37E29A0E566
:1046C000C454E04CBAF5C475C54075C50149320003
:1046D000027CB7F5C675C5020A56F5C675C503490D
:1046E0003200046E34FFFF0B347D535E5400FFF53F
:1046F000C675C5041A565E5400FFF5C675C5054952
:104700000200067CB1F5C675C5060A50F5C643C25F
:104710000902471B43C20900000000A937C2F57512
:10472000C20075C50AE5C619B1000275C50BE5C61C
:1047300019B1000375C50CE5C67A19B075C50DE54C
:10474000C619B10001A9C6CB22CA3B6CFF7EB30ECD
:10475000DD60067EB30EDE70187E340C737E24009E
:1047600003E41265917E340B297E240008E412656F
:10477000916CEE806B7402ACBE09750C237A7121CA
:1047800009650C247A61227CBEC423541F7CDB7C27
:10479000BE54077E24000160053E241478FB7CC5CE
:1047A0007E5030AC577E7002AC672D322E370EE54E
:1047B0000B3830BE370E5F48250A3D09B30C735CD9
:1047C000BC681B7E5007AC5E2E240C767E7007AC56
:1047D0007F2E340D187E1400071264ED0BF00BE0F1
:1047E0007E730D02BC7E388D7A730D067AF30E2629
:1047F000DA3B22CAF87C0B6CAA6DEE7DFE6CFF02E0
:10480000488E7E9002AC9F7DD42DD30BD8404C11A6
:1048100068066E44FFFF0B44BD245870BEA00A50CA
:104820006B4CFF781449ED00024C1168066EE4FFF2
:10483000FF0BE4BDE41855801C7CB014BCBF78208D
:104840007DFD1BF50BF8F04C1168066EF4FFFF0BB5
:10485000F4BDF418370ACA2DC17AC9F00BA0802C18
:104860007DCD1BC50BC8F049ED00024C11680C6EE4
:10487000F4FFFF0BF46EE4FFFF0BE4BDF4180DBD75
:10488000E418090ADA2DD17AD9F00BA00BF0BC0F8D
:1048900028030248027CBADAF822CA3B6D337D73E2
:1048A0007525007E6405E0752300803C7524007E3C
:1048B00051237418AC5B3E247E71247402AC7B2DB2
:1048C000322D367A3521492300300B38309D321293
:1048D0006581E524B417021E34BD3728027D7305B7
:1048E00024E524B418C90523E5250A2B7E330F8758
:1048F0000A139D121B14E5230A2BBD2148AEBE747A
:10490000004128117E3400737EA314927412A459BE
:104910003514A380267E4314927E5012AC45493252
:1049200014A3BD375006597214A3800FBE34000083
:1049300028092E2414A31B341B2830DA3B22CAD8A2
:10494000CA797CDBBED004780C7E340F361262CA82
:10495000A9C7EA8027BED005781FA9D7EA7EE30F52
:10496000557EF30F58E47AB30F58125DEC7AB30F0B
:104970005574017AB30F838003E4804E7EB310A197
:104980007E340F36B4010A122EE5E47AB310A1800A
:104990000A1259247E340F361256147E340F361202
:1049A000623B7EB30FB0B4030A7E7310F32E70FF28
:1049B000A994CA1260FABED005780D7AE30F557A31
:1049C000F30F58E47AB30F837401DA79DAD8227ED0
:1049D000340D187E24004674FF1265917E340D5EFE
:1049E0007E24004674FF1265917E340DA47E24005F
:1049F0004674FF1265916CAA74030A4A19B40DEA51
:104A000019B40DF47E44FFFF7E7002AC7A59430D59
:104A1000FE7E7002AC7A59430E120BA0BEA00A4073
:104A2000D7E47AB30E267AB30E277AB30E287AB378
:104A30000E2A7AB30E2B7AB30E2C7AB30E2D7AB3DC
:104A40000E2E7AB30E2F7AB30E3012626074037A90
:104A5000B30E3174027AB30E32E47AB30E3322CA43
:104A6000F87CAB6C337C2780737E9007AC9309F4A1
:104A70000D627E1007AC1209B00D1CBCFB785BBE4A
:104A8000F0FF68567E1007AC1A7DF02DF219FF007A
:104A90000449440D5E2D021B08407E1007AC1349EB
:104AA000000D607E9007AC9A2D42590400027E10E2
:104AB00007AC1209100D1D7E9007AC9A2D421914F7
:104AC00000057E1007AC1209100D1E7E9007AC9AEF
:104AD0002D42191400060BA080060B20BC623889F9
:104AE0000B30BE300A5003024A657CBADAF822CA9B
:104AF0003B7D727D637EB30F58F524E47AB30F5883
:104B00007E340F36122EE57E340F3612623B75214D
:104B1000001260FA12662960FBA9B7EA7D367D278C
:104B20007E141800125F787522008036752300808D
:104B3000267E51227418AC5BE5230A3B2D233E24CC
:104B40007D322D360B38100E140E142D270B283005
:104B50002D311B283005237E730F37BE712338D1CA
:104B600005227E730F36BE712238C10521E521BEB4
:104B7000B004409DE5247AB30F58DA3B22CA7BCAC1
:104B80006BCA5BCA4BCA2BCA1BCA0BC0D0C083C03E
:104B9000821200467E351D0B347A351DBE3403E883
:104BA00040136D337A351D7EB31518BEB0645005C1
:104BB000047AB315187E73151CBE73151B280B7E63
:104BC000B3151B047AB3151B800674017AB3151A4A
:104BD0007EB3151D6005147AB3151D7E370F0C0BBF
:104BE000347A370F0C7E370AAFBE370F0C2803120A
:104BF0006678D082D083D0D0DA0BDA1BDA2BDA4B8E
:104C0000DA5BDA6BDA7B326C33BE3018501E0A0383
:104C10002E070F407E09A07CBA30E00C0A5A2E54B1
:104C200000180E547CAB80161EA080120A032E07BB
:104C30000F3E0920FFE80A522E5400187CAB7E2359
:104C40000F45BE2003280E7E1002AC1A2D020B0861
:104C5000001E0480210A422E44000C7E04000F9D99
:104C6000047C217E1002AC1A2D020B08007CB2607D
:104C7000053E041478FB7E447FFF9D407E1002AC0D
:104C8000132D031B08400B30BE30255003024C0986
:104C9000226CAA7E5002AC5A7D322E370EE10B38C0
:104CA00010BE170D1208127D022E070EDF0B083002
:104CB0002E370D121B083080186D339E370D12BD34
:104CC00013580E2E270EDF0B28309E370D121B288F
:104CD000300BA0BEA02578BB6CAA7E5002AC5A490E
:104CE00012092EBE170D1208127D022E0408E40BC5
:104CF00008302E370D121B083080186D339E370D8B
:104D000012BD13580E2E2408E40B28309E370D12C6
:104D10001B28300BA0BEA02540C022CAF8309057F7
:104D2000C290050AE50AB40106E591F50F8029E570
:104D30000BC47CFB5EF007780EE50A250F24FE7E8F
:104D40007191124EB38011BEF004780CE50A250F64
:104D500024FE7E71911215E2E50BC47CAB5EA007C8
:104D60007809E50F125120F591800CBEA004780758
:104D7000E50F122457F591309127C2910509E50BF3
:104D8000C47CAB5EA007780BE509250F125120F516
:104D900091800EBEA0047809E509250F122457F56D
:104DA00091DAF822CA69CAF86C117ED007ACD10931
:104DB000060DA85E000F49F60DA6BEF4050A403C9C
:104DC00049460DA47D341263507CFBBEF003400EB7
:104DD0007E1404FF7407ACB159150DA6803E740211
:104DE000ACBF494515027407ACB159450DA47E14FA
:104DF000053F7407ACB159150DA68025BEF405001A
:104E0000401F7E1404FF7407ACB159150DA674073A
:104E1000ACB149150DA6BE14050A40057CB0126060
:104E2000410B10BE100A4082DAF8DA69227584015B
:104E30007E44041FE47A49B01B4478F97EF8151DBE
:104E4000756A00750801750900750A00750C007512
:104E50000D00750E00750F00C2007511007512640B
:104E6000751364751600751D00751E00751F00759D
:104E70006D01756B18756C00756E00756F00751A95
:104E800000751BFF751C007E0400FF7E14667C0B02
:104E90000A405D44681A692000020B0E0B44800A28
:104EA0007E0BB07A29B00B240B0C1B4478F280DF08
:104EB000025425CA7970417E74000B7A79707CB7F0
:104EC0005470C4540F7C7BA5BF04157EB30FB0B4DF
:104ED000030774017E7003801374277E7003804B78
:104EE0007EB30FB0B4030A74017E700112005E80BD
:104EF0004574277E70018033BEB0FC6803B43C1F4C
:104F0000A5BFAA057E60058010A5BF55057E600679
:104F10008007A5BF66207E600774277C76800CBE64
:104F2000B080400CBEB0DF38072480126550800688
:104F3000B4FE037A710CDA79226C776CAA803C7E1D
:104F40005018AC5A3E242E270EE52E2400307D1238
:104F50001B160B1840BE44003C081E7E1400017C4A
:104F6000BA60053E141478FB5E140444680B1B25DC
:104F70000B2820BD4208020B700BA07E630F36BCCD
:104F80006A38BCA5BF01306CAA80247E5018AC5A88
:104F90003E242E270EE52E2400301B250B28307EC4
:104FA0003002AC3A593114DC6D331B28300BA07E33
:104FB000B30F36BCBA38D422CA796CFF6CEE80636A
:104FC0007CBEC423541F7CAB7CBE54077E340001DE
:104FD00060053E341478FB0A2A09B20C735CB7688A
:104FE000407E5002AC5E2E240C237E7002AC7F2EDD
:104FF000340C237E1400021264ED7CBFC423541FC2
:105000007CAB7CBF54077E34000160053E341478CD
:10501000FB0A4A2E440C737E49B04CB77A49B00B58
:10502000F00BE07E630D02BC6E38957AF30D02DA68
:1050300079227EB315167017E5CC7AB315177E3436
:105040001D080B38307A73151974017AB31516538D
:10505000CCF843CC03C2C9A9C6CBA9C5CBC2CCC22C
:10506000CAC2C8A9C4CB803BE555BEB0016830E5D3
:105070006EB4012BE56FB401267E371018BE3400E4
:10508000017803A9C4C9A9C3CB7E2400017E341DC5
:10509000081B3820A9C7CBA9C1C9A9C3C9C2CDE47F
:1050A00012651A7EB3151A60BF226D337A370F0C62
:1050B0007E340DAC7A370AAF1266787EB30FB02417
:1050C000FA68171468440BB178557EB300FBBEB084
:1050D00005684C74057AB300FB227EB300FBB4056F
:1050E0003E74067AB300FB74FA1264D6759A807E19
:1050F0003477F81261787E3477F874661252777ECE
:105100003477F974BB12527780127EB300FBB4057A
:105110000E74077AB300FB74FA1264D675E9FF22A5
:10512000BEB001402EBEB03E3829BEB0016808BEF8
:10513000B0026803B403113000067E3400708004AE
:105140007E3400B27A3700F70A3B2E3700F709B3F6
:105150000002227003E50B22BEB080400CBEB0DF1F
:1051600038070A3B09B30F0922B4FC057EB30FB020
:1051700022B4FD087E370F517E39B022B4FE057E81
:10518000B30F5522B4F9057EB300FC22B4FA03E54F
:105190006A22E42200000000D2CDA9D1C97EB31555
:1051A00016B401147E7315190A277E341D081B38A6
:1051B00020E47AB31516800B7E2400027E341D088D
:1051C0001B3820A9D0CAC2A8C29574027AB3151D93
:1051D0007EB3151D70FA12662012597A1263716D32
:1051E000337A370F0C7E340DAC7A370AAF126678FB
:1051F0001261EF1262151249CF74017AB30F477A28
:10520000B30F5802665CCA3B7D727D63E555BEB044
:105210000168F97D367E24004AE41265917D377E6F
:1052200024004AE4126591752101126391E555BE8F
:10523000B00168F97522007E51227402AC5B49020C
:105240000A621E041E047D122D160B18302D301B11
:10525000183049120A181E141E142D270B28302D41
:10526000311B28300522E522B425CC0521E521BEDD
:10527000B00540B6DA3B227CABC2AFD2C9A9D5CBD0
:1052800075FBA575FB0F75FB6ABE3473F86818BE15
:105290003473F96812BE347400500C75FB00D2AF41
:1052A000C2C9A9C5CBE4220A267CB5F5F17CB75466
:1052B000FEF5F275F38075F4005E34000168087540
:1052C000F6FF7AA1F680067AA1F675F6FF75F580ED
:1052D00074011264D6A936F5FC75FB00D2AFC2C9C1
:1052E000A9C5CB740122CA3B7D727D637EB30F4793
:1052F000F519E47AB30F477D367D271207DC7E343B
:105300000F361253BE7517007E340F36125CB5127D
:10531000663260FB7D367E256B124C077518007E69
:1053200051187402AC5B7D322D360B38100E140E02
:10533000142D270B28302D311B28300518E518B403
:1053400025DD0517E517BEB00440BDE5197AB30F9A
:1053500047DA3B22740A7AB30E5174147AB30E52B0
:105360007E3403207A370E537A370E557A370E572C
:105370007A370E597A370E5B740C7AB30E5D740867
:105380007AB30E5E7E34003C7A370E5F7A370E6158
:105390007A370E637E3400287A370E65740F7AB33D
:1053A0000E67E47AB30E6A74047AB30E6B7E34002F
:1053B000647A370E6C7E340A007A370E68227D03D9
:1053C00075CC1875CD0709A000023EA0E5CA5401AE
:1053D0004CBAF5CAA9D0CAA9D3E1A9D1E109700094
:1053E0000E2E70FFA994E109A0000F7CBAC43354BB
:1053F000E07CABE5E3541F4CBAF5E309B00013546D
:10540000030A5B3E543E543E547CABE5E354E74C08
:10541000BAF5E3A9C1E3A9C0E37D3012555209B042
:105420000014F5E7226D337A370F0C7E340DAC7A19
:10543000370AAF12667512662012597A12667B120D
:10544000652C74017AB30FB01263711261EF7401AD
:105450007AB30F477AB30F5812665C7EB30FB0244D
:10546000FD6812146814146816146813240578EB88
:10547000123C8680E612566F80E11261C880DC6DB6
:10548000337A370F0C1250AA80D17CA57C5BA9D649
:10549000CB7CB7F5B90A367CB7F5BA7CB5C43354C2
:1054A000E04CBAF5BB7CB21EB01EB0540F0A4B3EA6
:1054B000443E443E443E441E501E501E500A554D2C
:1054C00054F5BC7CB1F5BD0A50F5C17CB344A0F5E0
:1054D000C37A41C475C5C043C207800743C20700F1
:1054E000000000A937C2F575C200A9C6CB227CAB6B
:1054F0006C336D447E1002AC132E041C3A1B084022
:105500000B30A5BB0CEC6C3380430A032D027E09E3
:10551000207CB20A0320E00B2D037E09B0541F0A41
:10552000FB80132D037E09B0541F0AFB3EF43EF4AA
:105530003EF43EF43EF47CB21EB07E9002AC9B2E54
:10554000441C3A0B48004D0F1B48000B30BCA338DD
:10555000B9227D2375E40109B2000C547FF5E5758D
:10556000E40209B2000D547FF5E575E40709B200C5
:1055700015547FF5E575E40B6CAA0A1A4932001D33
:105580002D317E39B0F5E50BA0BEA02540EC75E4C9
:10559000304932001B7E39B0F5E575E431493200FF
:1055A000197D535E5400FFF5E575E4325E34FF006B
:1055B0000A56F5E522CA797E71543E703E707CB77A
:1055C00024560A2B0B28507CAB7CB724580A3B0B83
:1055D00038704D77681FBEA001680ABEA00268053A
:1055E000BEA00378107E340F361262CA7D377E2447
:1055F0001800124C070554E553BEB1542810125B35
:105600009FB40105755501800875550380037555D4
:1056100002DA79226D117E241C1C1B28106C55099E
:10562000B3004DB4010609A3005080027CA50A4ACC
:10563000491300082D147E19400A147E041C241BF3
:1056400008100943001F0A141B0810491300412DBC
:10565000147E19400A141B0810491300432D147EB0
:1056600019400A141B08100B50BE500D40B122CA3D
:10567000F874037AB3150DE47AB30F477AB30F5871
:1056800074037AB3150D6D337A370F0C7E340DAC7D
:105690007A370AAF7EF3150DBEF003781DE50B30A7
:1056A000E7E41262A77E370EE17A37150A7E370EDD
:1056B000E57A371508530B7F80CC7AF30FB01200D0
:1056C0001E12006ADAF822750900E50BC47CAB5E95
:1056D000A0077809E50F125120F591800CBEA004B7
:1056E0007807E50F122457F591750A00E47AB300A4
:1056F000F47E3400707E24004274FF1265917E3483
:1057000000B27E24004274FF12659174AA7AB3003D
:10571000707AB300717AB300B27AB300B3227CAB73
:10572000A9D6CB7CB7F5B90A367CB7F5BA7CB5F506
:10573000BB0A347CB7F5BC7CB3F5BD0A127CB3F56B
:10574000C17CBA44A0F5C3E5C454E04CB1F5C475BE
:10575000C5C00A307D234E2400017C157CB142C2B5
:1057600080087CB142C200000000A937C2F475C2B3
:1057700000A9C6CB226CAA6C777E1030AC1A7E30A2
:1057800002AC372D107D012E070EE50B0820BE2739
:105790000D1008127D412E470EE30B48002E070D19
:1057A000101B480080186D009E070D10BD20580E7C
:1057B0002E170EE30B18209E270D101B18200B70C0
:1057C000A5BF18B50BA0BEA00D40AC22CA3B7CC53E
:1057D0007CDB7D737A0D317E7950A5BD000B7E0D8B
:1057E000317E0B407A794080367E0D317E0B400A47
:1057F000340A259D321265810A2CBD3208187E1D9F
:10580000317E1BB07E79A0BCBA7CBA28042CBD8046
:10581000029CBD7A79B07E79307E1D317A1B30DAF8
:105820003B227EB30F44B401267E730AAC7A730F19
:10583000427E730AAD7A730F437E730AAE7A730F9A
:10584000457E340D097A370F517E340EE780247E71
:105850007310217A730F427E7310547A730F437E54
:1058600073109F7A730F457E3410A87A370F517EDC
:10587000340E6E7A370F5322E555BEB00168F9E554
:105880006E60FCE56F60FC2093FDD296D295D2B895
:10589000A9D0B7D2A87EB315167017E5CC7AB31588
:1058A000177E341D080B38307A73151974017AB3DA
:1058B0001516A9C0CA7E2400017E341D081B38209D
:1058C000A9C1C9A9C3C9C2CD7587020000226CAAAB
:1058D0007E5002AC5A7D322E370EE10B38102E2747
:1058E0000EDF0B28302D311B28300BA0BEA02578F1
:1058F000DF6CAA7E5002AC5A4912092E2E2408E40D
:105900000B28302D311B28300BA0BEA02540E47E93
:105910001401007D317E24037074187E130F366CE1
:105920000002571E09A30024BEA0017805A9C1C921
:105930008003A9D1C943CC08095300023E50E5CAEF
:1059400054014CB5F5CAA9D0CAD2CDBEA001780584
:10595000A9D0C98003A9C0C97E141D000B18205E00
:1059600024FFFD1B182009B3003FB4010C75E4327D
:1059700009B30040C454F0F5E52212445912352C05
:105980001260A17E3408507A370EDF7E34089A7A8E
:10599000370EE17E34089A7E270EDF1207DC7E3454
:1059A00001007A370EE37E3403707A370EE57E34D9
:1059B00003707E270EE3125FAB125CF61253541293
:1059C00062151249CF12660374017AB310A122CA7C
:1059D000F87EB30EDDB401486CFF803C7E370EE1EB
:1059E0002E3400307402ACBF09B50AB17E530F36B5
:1059F00012323F7404ACBF59350B317E370EE1745F
:105A000002ACBF09B50AB27E530F3712323F74049D
:105A1000ACBF59350B330BF07E730C21BC7F38BC07
:105A2000DAF822CA69CAF87CFB7E2400047CAF3E07
:105A3000A03EA07CBA24560A3B1B38206D667CBA77
:105A400024580A3B1B38600BF012006E501E7E2457
:105A500000057CAF3EA03EA07CBA24560A3B1B3812
:105A6000207CBA24580A3B1B38600BF07CBFDAF864
:105A7000DA69227E4714A36C777EA0FF7E431492DE
:105A80000A1409510E34BE530F5578327E5012ACB1
:105A900045492214A3BE24004140237E6001BE4438
:105AA000001940187E3012AC36492114A3BD245091
:105AB000047D427C760B60BE600440E27CA77CBA29
:105AC000227EA30D02BEA00028406C7780387E5055
:105AD00002AC5709620C2309520C247E3002AC360A
