:100000000202f40255ab00000000000000000000f6
:1000100000000000000000000000000223ac1313e9
:1000200014131313141313141313220252901a24cb
:100030001b18002828280202020201010101020403
:100040001422220252d47d23be24000048037d32b4
:10005000226d339d3222020534ffff0256b40205a1
:100060003bffff0255a4c2d57cb430e708b2d56e81
:1000700024ffff0b247cb630e712b2d56e34ffffad
:100080000b348d326e24ffff0b2480028d3230d56d
:10009000066e34ffff0b34227d51ad037d027d21be
:1000a000ad052d12ad352d21227d02ad31ad102dc6
:1000b00021226d0074104d00780b4d2278278d3170
:1000c0007d126d22227d437d326d222f112d4450f1
:1000d00002a50fbf1040049f100b901478ed7f0114
:1000e0006d227d34227d417d138d247d022f0040c1
:1000f00004bd0440049d040b141478f17d237d316c
:100100007d106d0022c2d57cb030e708b2d59f22a9
:100110009f207f027cb430e713b2d59f229f217fbe
:10012000121200b49f229f207f0280031200b4307d
:10013000d5069f229f217f12226caa4d11681a1e9c
:1001400054680e0b38201b18200b350b151b5478e8
:10015000f250067e39407a1940226caa4d11681e71
:100160001e54500c7e1b007a190068120b1c0b14d5
:100170000b1a001b18000b1d0b151b5478f22200e4
:10018000000001010101010001010202020201005f
:100190000102030404030200020305050504020032
:1001a0000204060606050300030507080706030008
:1001b000030608090907040004070a0b0a080400db
:1001c00004080b0c0b09050005090c0d0d0a0500b0
:1001d000050a0e0f0e0b0600060b0e0f0e0b060087
:1001e000060b0e0f0e0b0600060b0e0f0e0b060075
:1001f000060b0e0f0e0b0600060b0e0f0e0b060065
:10020000060b0e0f0e0b0600060b0e0f0e0b060054
:10021000060b0e0f0e0b0600060b0e0f0e0b060044
:10022000060b0e0f0e0b0600060b0e0f0e0b060034
:10023000060b0e0f0e0b0600060b0e0f0e0b060024
:10024000060b0e0f0e0b0600060b0e0f0e0b060014
:10025000060b0e0f0e0b0600060b0e0f0e0b060004
:10026000060b0e0f0e0b0600060b0e0f0e0b0600f4
:10027000060b0e0f0e0b0600060b0e0f0e0b0600e4
:100280000102030405060708090a0b000102030422
:1002900005060708090a0b0c0d0e0f101112131496
:1002a000010101010101010101010101010101013e
:1002b0000101010108003c00fa010401cc01d60251
:1002c0009e78787878787878787878787800a0014f
:1002d00068023a3c3c3c3c3c3c3c3c3c3c3c3c3c6e
:1002e0003c3c3c3c3c3c3c41161616161616161679
:1002f000161616167584017e44041fe47a49b01b55
:100300004478f97ef80e1b751b00751c64751d641e
:10031000751f00d200750800750b0075100075116f
:1003200000751700c202755800755900755c00c24f
:10033000037e0400ff7e1403d30b0a405d44681a59
:10034000692000020b0e0b44800a7e0bb07a29b0a4
:100350000b240b0c1b4478f280df02044801680078
:100360000f00b4012c000c007800f0000a005000cf
:10037000a00005000a007800040000005a0003fff6
:10038000f67d03800a7e29b07a09b00b240b047d28
:10039000511b144d5578ee227d1380071b247a19ca
:1003a000b00b144d2278f5221010101c1914100ee9
:1003b0000c0b0a0908070613131413131314131351
:1003c000141313005a007800780078010204081012
:1003d00020408000010bb20000010e160000010e4b
:1003e000170000020b24000000010ce10000010cca
:1003f000e30000010ce60000020ce7000000010c25
:10040000ec0000020e18000000010e1a0000010ea0
:100410001b000000c28e758910759b00121807d250
:10042000ab2212042802003e1255a7e41255e11235
:10043000560112004212004112560d74010204408e
:100440007003c2af22d2af2212161112005612044c
:100450002212005ea9d3f7c2fb120561125a2612be
:10046000136e1217f87eb30d1424fd681414681669
:1004700024af683024ab681324a978e91224dc8007
:10048000e4120a0880df1215dc80da1204bc7eb3a5
:1004900004b9beb0aa68cee47ab3037474aa7ab37e
:1004a00004b980c11204bc7eb304b9b4aab77455b0
:1004b0007ab304b912080075e9ff80a96d337a3761
:1004c00004b7227e34006b7e2401ede41203987e93
:1004d0003404107e2400a7e41203987e34009312a3
:1004e000052b7e34041412052b7e34045a12052b7e
:1004f00074017ab304a875130075140075120075a1
:100500000c001204bc7e240dac7a270069e47ab397
:1005100003747ab304b97a3704bbc2017a3509028d
:1005200005227ab306b07ab304ba227e2400467458
:10053000ff020398a9d099a9c6df2243db10d2d9c4
:10054000c2ddc2dcc2dbc2dad2d875d706c2ea028b
:100550000552c20353dbfdd2ebc2c3a9d3f7d2fbd2
:1005600022e47ab30ce912071702056ccaf86d335e
:100570007a370ce7e41206d17cfb5ef007780512af
:100580000701800dbef0044008bef00568031206a6
:10059000f7e41252e474aa7ab30c5374aa7ab30c37
:1005a0005474aa7ab30c9574aa7ab30c96daf8222a
:1005b000beb080400cbeb0bf38070a3b09b30c6d1b
:1005c000227cab0ba268091ba2780a7eb30ce9223d
:1005d0007eb30d1422b403113002067e340c538016
:1005e000047e340c957a370ceabeb0034010beb0de
:1005f0003e380b0a3b2e370cea09b30002221bb12e
:10060000681804782a3002067e340c5380047e3445
:100610000c951206e509b30004223002067e340c64
:100620005380047e340c951206e509b3000322e4de
:1006300022ca79309061c2907eb30ce3047ab30c85
:10064000e37ef30ce3bef0017808e5917ab30cec9d
:1006500080221206d57ceb5ee007780812070b12a9
:100660002ecd8010bee004400bbee00568061207e8
:100670000b122d3b1206d57c5b5e5007a5bd000a10
:100680001206dd6812120701800dbe50044008be3c
:10069000500568031206f7309134c2917eb30ce125
:1006a000041206d17c5b5e5007a5bd000f1206dd6b
:1006b000681c1206ee1205b0f5918012be5004407f
:1006c0000dbe500568081206ee125178f591da79e0
:1006d000227ab30ce17eb30ce9c4540f22e4120574
:1006e000b0beb010227a370cea7e370cea227eb315
:1006f0000ce12eb30cec227eb30cec125178f59188
:10070000227eb30cec1205b0f591227cbf2eb30c07
:10071000ec24fe7e71912202071aca797ef0707e67
:100720003478001207627ceb7e347801120762bed7
:10073000e0ff680c6cbeb4ff077cbe20e0027cfecc
:10074000759100c290c291d2ce7cbf54fef592d278
:10075000add2e8c2c0a9d0f7d2f8a9d5b7d2bddad8
:100760007922c2afd2c90a56f5f17cb71256ab75e1
:10077000f501a937f5fc020779e5f643fa80c2c90d
:10078000d2af22ffffffffffffffffffffffffffd3
:10079000ffffffffffffffffffffffffffffffff69
:1007a000ffffffffffffffffffffffffffffffff59
:1007b000ffffffffffffffffffffffffffffffff49
:1007c000ffffffffffffffffffffffffffffffff39
:1007d000ffffffffffffffffffffffffffffffff29
:1007e000ffffffffffffffffffffffffffffffff19
:1007f000ffffffffffffffffffffffffffffffff09
:100800007e346ff874661208127e346ff974bb027e
:1008100008127cab7d231259bd7d125e1400016865
:10082000021b240a147cb3f5f17cb5f5f275f38054
:1008300075f40175f5005e340001680875f6ff7afd
:10084000a1f680067aa1f675f6ffa936f5fc43fa03
:100850008002085475fd0f75fef0a9c5cbc2c9d240
:10086000af221259bd75f3000a561e541e543e5451
:100870003e54f5f175f20075f90075f91075f950ef
:10088000740a1208aa75f951742d1208bf75f9116e
:10089000740a1208aa75f91075f90074011208aaf1
:1008a00002085474fa1208aa74fa7cab800800009b
:1008b0000000000000007c7a1ba0a5bf00f0227c95
:1008c0006b80061208a31208a37c761b60a5bf00ec
:1008d000f2222e347c00020812ca3b7ccb1259f45f
:1008e0001209fe60fb120b981209fe60fb120fc288
:1008f0001210681259cb6d337d736cdd4d77780a19
:100900006d111209f70a2b1b28100a2d2e2403b78c
:100910001249e9930a2bbd2740257e14000cad1720
:100920003e147e5002ac5d2d212e270dc10b2810e8
:100930001209f70a2b0b2800bd1028031b28100be7
:10094000d0bed00c78b60b74be74001578ac7d7335
:100950006cdd0a3d2e3403b71213650a3bbd3740e8
:10096000387ef4000cadf77def3ee47402acbd2d93
:10097000e52ee70dc10be8201209f70a3b0b3830d2
:100980009d32121bebbe3400ff28047e3400ff7c36
:10099000570a1d2d1f1951052e0bd0bed00c78b251
:1009a0000b74be74001578a87e3404bd7a352175a9
:1009b00023006d777e35217e39707cb762230a3c37
:1009c0002d377e25217d120b147a15217e29b01238
:1009d00008d20b74be74016d40da7e3403f0e52357
:1009e0001208d27e3403f174ff9eb1231208d21292
:1009f0000b987401da3b227cbd3eb02424223003e4
:100a000005c203740122e422caf81259cb1259d448
:100a100053dbf01247641224d0124a391247831272
:100a20000ad2125a1f53db7f120b98740c7ab30d43
:100a3000e174157ab30de07e7305287a730b2012ea
:100a400047787ab30b1f1216117eb30ddd70241296
:100a5000157574017ab30ddd7e347c00121858745c
:100a6000041208d96d33e41208d2124ea074037a2e
:100a7000b30ddd7ef30ddebef00378467eb30ce9e8
:100a800030e7c3124a3980034387011209fe60f838
:100a900053dbf0124783120ad2125a1f7eb30de6bf
:100aa0007003e480027401125a34120fc2121068eb
:100ab000120b981259cb7eb30ce9547f7ab30ce930
:100ac00080847af30d141256bfdaf82274237ab3b5
:100ad0000b21124ab37e3403b0ca3b7d736cdd49ef
:100ae00037005d121be91e347cc7e47e7970120b5f
:100af00088740209770002120b88740309770003d7
:100b0000120b88740409770004120b8874050977a6
:100b10000005120b8874060977005f120b887408b1
:100b200009770006120b88740909770007120b88f1
:100b3000740a7c7c120b8874016c77120b886ccc65
:100b4000803b120b9124100a3c2d37097300471289
:100b50000b8e24110a3c2d3709730008120b8e24ca
:100b6000120a3c2d370973001d120b8e24130a3c08
:100b70002d3709730032120b880bd00bc009770098
:100b800005bc7c38bdda3b22f5d97a71da22120b2a
:100b9000887cbd3eb03eb02253dbfdd2eb43db018f
:100ba00043db2022ca3b7cdb6ccc125a47783e7e6a
:100bb00027025abe2400017802a1c97e2400017ace
:100bc00027025a7eb30297601074027ab302957eb0
:100bd0005302977a530265800674017ab30295e452
:100be0007ab302647ab3029b125977a1c9be34006a
:100bf0000278567e27025abe24000268367e240000
:100c0000027a27025a74047ab30295e47ab3029bfb
:100c1000125aa07ab3029c1259776cff6d227402ab
:100c2000acbf592502740a2f19f202640bf0bef012
:100c30000478e97e530296be53029e2802a1c97e23
:100c40002400037a270258a1c9be3400036802a118
:100c5000b17e37025abe3400037802a1c97e347fc8
:100c6000ff7ee0ff6d227a25286cff80130a1f09a2
:100c7000a10264125a0cbe252828037a25280bf0fd
:100c80007ea30295bcaf38e56cff80447e44000132
:100c90007cbf60053e441478fb7eb3029d0a2b5d49
:100ca00024782b0a4f095402647e3002ac35491176
:100cb0000274bd1350187ce57e7002ac7e4933028d
:100cc000747e4302967e5014ac45bd2338060bf06b
:100cd000bcaf38b8bee0ff7802a19f7ea30297bcec
:100ce000ae7802a19f7e3528be3400643802a19ff1
:100cf000125a0c7402acbe493502749d3212004681
:100d00007ea30297125a0c1e24bd323802a19f4cba
:100d1000dd6802a19c7e3400047a3702580a3e093d
:100d200053025c7a5305280953028c7a53052d7ab5
:100d3000530cf97e5305287a530cf70973026c7a29
:100d4000730cfb7ae302970a3e09e302846cff0a04
:100d50003f2e3404e27e39509e53052b7a39507e63
:100d600039b02cbe7a39b00bf0bef01578e17ae3d9
:100d7000052b7ae30cfa125a591209fe60fb120f86
:100d80000112160a124a39120ad2120fbf120fe5c7
:100d90007e3400037a37025a7401c1fe7ec0014cd2
:100da000cc7826125a5068031259b47e340003805e
:100db00014125a5078137e37025abe340004680960
:100dc0001259b46d337a37025a125574120f011248
:100dd0004a39120ad2120b98e47ab30b1f74017ac3
:100de000b30b1e120fc21210687e3402587e240606
:100df000d27e140af312323d74017ab30b1fe47ae7
:100e0000b30b1e125a4778537e53029b0a25095290
:100e10000264be5302976802c1fd7eb30e1bbeb0d2
:100e2000c85016047ab30e1b7e27029fbe2400789a
:100e300028107eb30e1a048005e47ab30e1b7ab331
:100e40000e1a7e530e1abe50035002c1fd7e2400be
:100e5000027a270258e4125a3ec1fdbe34000268ed
:100e60000ebe3400066808be3400056802c1fd7e6f
:100e7000b3029ebeb3029c2802c1fdbed000287df5
:100e80007ea30296bea3029e2813beb3029c500d01
:100e9000047ab3029e7e73029e7a73029c7e630282
:100ea0009b0a26097202644c776824be7302976815
:100eb0001e7e27029fbe24012c28147e70017cb662
:100ec00060053e701478fb4e73029d7a73029d7e1e
:100ed00073029b0a2709a202647402a449450274a2
:100ee0002e47029fbe447fff500b7d352e34027487
:100ef0001b384080087e347fff59350274e4da3baa
:100f00002253dbf0740e7e73052c1249de4440f54b
:100f1000d6e5db30e3fb53dbf37a71d6e5db30e378
:100f2000fb53dbf343d70422ca797d737406097738
:100f30000019120f0a740a0977001a120f0a7408ae
:100f400009770020120f0a742a0977001b120f0a72
:100f5000740c0977001c120f0a742a0977001d12fd
:100f60000f0a742e0977001e120f0a740209770007
:100f700021120f0a740409770022120f0a7424093f
:100f8000770023120f0a741e09770024120f0a74c7
:100f90001809770025120f0a742009770026120f0e
:100fa0000a742209770027120f0a740e0977001fae
:100fb000120f0a741c09770028120f0ada7922121c
:100fc0000b987e340af37e2406d2221209fe60fbbf
:100fd000120f01124780120acc120b9812160a1235
:100fe0000fc2020fe5ca3b7d627d730977002c7a40
:100ff000730d7209b7002bf52de419b7002c19b742
:10100000002b7d362e3401f87a370d707a670d6e1d
:10101000752a011209fe60fb7d377d2612106812c9
:101020000b986d337a352b7e252b3e247d322e375f
:101030000d700b38100e140e142e270d6e1217efb4
:101040007e352b0b347a352bbe3400fc78d9052a3b
:10105000e52abeb00428bc7e730d721977002ce51a
:101060002d19b7002bda3b22ca3b7d727d63754098
:101070001809b6002bf54109b60001f5447e69b0a8
:10108000f54509b6002cf54609b6002ef547a933fb
:10109000dd05a9c3dd8003a9d3dde55c19b7041c18
:1010a000e55c7017755c017420125697beb0ff683e
:1010b00013beb01f680e755cee8009e55cb4ee04eb
:1010c00074ee21ec493704117a35427e34005de537
:1010d000440a1b7d262e2400191203817e3411e060
:1010e0007a370d987e3411e07a353e753c00803faa
:1010f000753d0080237e370d980b38201211ef7c50
:101100007b7402ac7b2e370d9a1b38207e370d98ee
:101110000b357a370d98053de544beb13d38d67e96
:10112000353e2e3400187a353e7a370d98053c0945
:10113000760030be713c38b8e5475403780221eba5
:101140007e3410007a370d987e3410007a353e7d5b
:10115000172e1401f87d37753c0021e2e5407e1121
:101160003cac1b7d202d212d037a070d9a753d0087
:1011700080597ef70d980bf840e541701e7ef13cda
:10118000740cacfb1211ef0a0b2d072e05427e09e1
:10119000100a013e043e043e042d40e5467e113d0a
:1011a00060171211f87d502e570d9a0b58e07d54a0
:1011b0009d5e2d021b085080081211f82d021b089d
:1011c000407d0f0b057a070d98053de544beb13d06
:1011d00038a07e053e2e0400187a053e7a070d9849
:1011e000053ce545beb13c2802215ce4da3b227ea9
:1011f000113d2e105da5e7222e105da5e77c1b7426
:1012000002ac1b22ca3b7eb30b1ef5287eb30b1f1c
:10121000f5297401125a346cee6cff0a3f0973050c
:1012200003bc7e40027ce70bf0bef01578edbee01b
:101230003f500c0a2e7e34003f9d327ce780026cca
:10124000ee7cde612c1216111215751209fe60fb80
:10125000120fc21210686cff6ccc4cff780a6d3311
:101260007402acbc59350d6e7e5002ac5c7e7018b9
:10127000ac7f2d32491308ca1259ab0e142e240d1f
:101280006e1217ef0bc0bec00c78cf0bf0bef0157e
:1012900078c66ccc6cff7e0400157402acbf7d3543
:1012a0002e340d6e0b38108d101b38100b38403e4d
:1012b000443e443e443e443e441b384049250d6e66
:1012c0007e3704cb9e370529bd23501812135f0ac1
:1012d0003b09b30385bcbe50072e3403850480232d
:1012e0000bc0802a7e3705292e3704cbbd23281c4e
:1012f00012135f0a3b09b30385beb000280a2e34df
:101300000385147a39b080060bc080020bc00bf045
:10131000bef00c788153dbf01248a8a9c5cb12159a
:10132000827ef014120b98bec00c680a7cad1bd0f4
:101330004caa680241456cff12135f0a3b09730314
:10134000850a2f197205180bf0bef00c40eae5284b
:101350007ab30b1ee5297ab30b1f7401da3b220a1c
:101360003f2e34027f7a71827a6183e49322ca3bf2
:101370007ee0ff7ef0ff53dce043dc066d66000b91
:1013800064be64001278f753c9fe6d3312147b7c7f
:10139000fb7eb30d0d70037ef0ffbef0ff68387e5c
:1013a0003403f012147bf5287e3403f112147bf51c
:1013b000296528beb0ff68037ef0ff7529006d66c1
:1013c00012147762290b64be64016d78f3e529bebf
:1013d000b12868037ef0ffbef0ff6803124ea074d0
:1013e000157ab304bd740c7ab304be74027ab304e4
:1013f000bfe47ab304c0740a7ab304c17e342134e2
:101400007a3704cb125a7d1259977ab3052d6ceeb8
:101410000a3e2e34028b1213650a3e19b304cd2ef8
:101420003402d31213650a3e19b304e22e3402a02b
:101430001213650a3e19b305030be0bee01578d020
:101440006cee0a3e2e3402c11213650a3e19b30433
:10145000f7bef0ff780f0a3e2e3402e81213650a39
:101460003e19b305180be0bee00c78d6bef0ff784d
:10147000031259f4da3b227d360b362e347c0002ff
:1014800007621259b46d337a37025a125aa07ab3ee
:1014900002977ab302987ab302997ab3029a7ab32e
:1014a000029b74017ab30295e412597f125a3e6c82
:1014b000aabea00450340a3a2e34002e1213650a34
:1014c0004a19b4025c0a3a2e34003212136519b478
:1014d00002840a3a2e34003612136519b4026c0adb
:1014e0003a2e34003a121365801574ff0a4a19b473
:1014f000025ce419b40284740219b4026c74020a26
:101500004a19b4028c0a3a19a3026412156d5943a0
:1015100002740a3a09b3025cbeb3052878280a3a75
:1015200009b30284beb3052b781c0a3a09b3028cb6
:10153000beb3052d78100a3a09b3026cbeb3052c70
:1015400078047aa302970ba0bea008680281b16c50
:10155000aa12156d5943034b7e447fff7e7002ac87
:101560007a594303330ba0bea00c40e5226d447ea4
:101570007002ac7a22021578e59a6005d29ca9d651
:10158000df227eb3052802158953dce043dc067eaa
:10159000a012001ba078fb53c9febeb00f4013bec3
:1015a000b02e380e53c9fe53dce00a3b9e34000fc8
:1015b000801343c90153dce0beb00e380d0a2b7e08
:1015c00034001f9d327cb742dc22b42f0443dc037d
:1015d00022b4300443dc022243dc0a221216111228
:1015e00059d453dbf0124780121582120b987e34c7
:1015f00000c87a3705291212041256bf1217f87e56
:10160000b30ce9548f7ab30ce9227e3406d2125619
:10161000e16d337a3704b77e340dac7a3700692236
:10162000ca797ef1cc7e3703694d3378357e530419
:10163000a2be50002805750c00c1f47eb3036b20d8
:10164000e002c1f47e530371be510c2802c1f4754f
:101650000c007e2400017a27036974017ab30d120d
:10166000c1f4be340001781b7eb304a27002c1f441
:101670006d227a270369e47ab30d1275132575126a
:10168000018071be340003786b121611121575a912
:10169000d6eba9c6aca9c6ecc296c289d2b8a9d06d
:1016a000b7d2a81209fe60fb2093fd53cafe53c9ae
:1016b000fd75870200000000c2a8c29543ca01124e
:1016c000560112161112157512174353dbf043c958
:1016d00002120b981204c36d337a370369e47ab3ac
:1016e0000d121245cb125a861224c078fb12174bea
:1016f000e41205226ceea9c6cb801de4125592a916
:1017000025dd15a921db11c2cda9c7cbc2cc4cee7a
:1017100078067ee00175cc02e51260df121743a95e
:10172000d6cb7513007512007af1cc7eb304a654a3
:10173000ef7ab304a67e7304a27a7304a3125a1f2d
:10174000da7922d2cda9d7cbd2cc2274017ab304d4
:10175000aa227eb304a620e61d7eb300db30e0099a
:10176000124be37a1f0aef800d7eb300d970071287
:101770004be37a1f03757eb300db30e048e47ab3b5
:1017800000d97e3704a4be3405dc50080b347a3708
:1017900004a4800612174b1217e67eb304a620e6b7
:1017a0002a7e3704a4be340028402044407ab30483
:1017b000a67e0f03757e1f0aefbf10500e12174b47
:1017c0001217e680066d337a3704a47eb300db205f
:1017d000e0136d337a3704a430010ac20112238d5d
:1017e000280312174b227e3405dc7a3704bb220b08
:1017f00028302d311b28302274017ab30d142202b7
:101800001802c28e021807e59b0a3b6d220b1c7e54
:1018100014000c1200a97eb403e87d1b1200a97ffe
:10182000017ed436007ec4016e7f161201057f0151
:101830007e78ffff7f179f107cb6f58de59b0a0b26
:101840000b047e14000cad10ad1b7f161201057f3a
:10185000279f21f58bd28e22020862ca3b7eb304f9
:10186000a2f52e7ed304a37e340d6e12052b7e349a
:1018700000307e24000ae4120398e52e70416ceedd
:10188000121b6eacbe121b6aacbe121bd3acbe12d6
:101890001bff0be0bee00a78e7bed00038026157bc
:1018a0007e34045a12052b7eb304a644047ab30492
:1018b000a654f77ab304a654df7ab304a661576c32
:1018c000ee80267e5007ac5e2e2400930b2830124b
:1018d0001bf61b28307e5007ac5e2e2400950b288b
:1018e00030121bf61b28300be0e52ebcbe38d44c62
:1018f000dd780a7eb304a644107ab304a66c116c9a
:10190000ee6cff8011121c0c780abe00ff680512f5
:101910001c5480080bf0e52ebcbf38e90be0bee09c
:101920000a78de6cee7ef12e8011121c0c780abe55
:1019300000ff6805121c5480070bf0bef00a40ea55
:101940000be0bee00a78de6cff6cee80177407ac2b
:10195000be09a50d727e7007ac7f09030097bc0a13
:1019600068060be0bc1e38e5bc1e78197e7007ac1b
:101970007f2e3400937e3007ac312e140d6e740729
:101980001201390b100bf0bef00a78bd7e240d6eeb
:101990007e34045a121b5a4cdd780d7e2400937e4f
:1019a00034045a121b5a41cf7eb304a630e30241dd
:1019b000cf6cff41c76cee7e7007ac7f0943009788
:1019c0007407acbe0955045ebc5468070be0bee06a
:1019d0000a40e47e5007ac5e0912045e7a112f2e95
:1019e00010307401a5f7493300954922045c121b9d
:1019f000757d63121b617407acbe4925045a121b26
:101a00008e7a352a121b857ea12f7407a449250bd7
:101a1000f1121b757d63121b617ea12f7407a4490f
:101a2000250bef121b8e7e1703a3be152838097ee7
:101a30000401007a052c801e7e352a6d227c567c9e
:101a4000676c771200b27a352cbe34001050077ed6
:101a50003400107a352c7e352cbe34010028077ee8
:101a60003401007a352c7ea12f7402a449450c352f
:101a7000be4528280949450bdb7a452c80077e4561
:101a80002c59450bdb7e352859350c35121b617ef0
:101a90005007ac5e2e24045a7e152c121b97121b85
:101aa000857e5007ac5e2e24045c7e152c121b979d
:101ab000121bdc7e712f7407ac7b2e340bef7e146f
:101ac00000071203810bf0e52ebcbf280221b57e72
:101ad00024045a7e340093121b5a6cff121bdc1232
:101ae0001be61b28307e5007ac5f2e240095121b8e
:101af000e61b28307c1f2e1030a5e77012121b6edb
:101b0000acbf121b6aacbf121bd3acbf121bff0bc6
:101b1000f0bef00a78c67eb304a644017ab304a6e8
:101b2000e52ebeb00028307e2400937e34041412cb
:101b30001b5a6cff121b611233897407acbf5935f5
:101b40000414121b851233f27407acbf5935041606
:101b50000bf0bef00a78ddda3b227e140046020369
:101b6000817407acbf493500932259350bef7e34a1
:101b7000ffff7407227d13bd2150057d319d322268
:101b80007d329d31227407acbf4935009522121b6e
:101b9000752d367a352822ca3b7a153a7d727d63d7
:101ba0000b7820121b757d237e353aad237c767c25
:101bb000650a247d23be24000550026d220b783077
:101bc000bd3650072d231b782080059d321b7830b1
:101bd000da3b2259350bf16d447402227e5007ac7a
:101be0005f2e240093220b28301e341e341e341e18
:101bf00034220a373e343e343e343e343e34225999
:101c0000450c357e34010059350bdb227407acbf1f
:101c1000097500977407acbe0905045ebc07227ef7
:101c20007300d97a7306ac7e2400937e34062a12a0
:101c30001b5a1252ed121c9f7e24062a7e340093fa
:101c4000121b5a7e7306ac7a7306ad7e7306ac7aad
:101c50007300d9227407acb119050d727407acbebc
:101c60004935045a7407acb159350d6e7407acbed2
:101c70004935045c7407acb159350d707407acbfbd
:101c8000090500987407acb119050d737407acbf52
:101c9000090500997407acb119050d740b1022ca1f
:101ca0003b6d007eb306ac7ceb70276cff6d11744e
:101cb00002acbf59150b6c7ea0ff7e3007ac3f19fc
:101cc000a10b2a74020a1f19b10b800bf0bef00a97
:101cd00078db6cffa1e47407acbf09b5062ef529cb
:101ce000beb0ff7802a1e2121e10beb0017802a1c0
:101cf000e27528007e31287407ac3b09710b2a7a03
:101d0000712abe71296802a1d749210b287407ac3a
:101d1000bf121fba7ea1287407a449250b26740799
:101d2000acbf121fb17d032d06e52a0a1b09a10bca
:101d300080bea00028177e712a7402ac7b59030b69
:101d40006c2e140b807cba147a19b0a1e2121e001a
:101d500049150b6cbe1400642808be0400642802f8
:101d6000806f7d412e440032bd405008be140032c9
:101d70002802805d7e1703a6bd105052121e1070ff
:101d80000474038002740119b106707ea003e52972
:101d90000a1b19a1067a7e7007ac7f2e34062a7eb4
:101da000140d6e7407120139bee00028211be07e7d
:101db0007007ac7e2e34062a7e3007ac3f121e0719
:101dc0007e340d6e7e3007ac3e121e071bf0121ed5
:101dd0000059050b6c800b0528e528beb00a50029f
:101de00081f40bf07e7306acbc7f280281d67ae3c7
:101df00006ac7e24062a7e340b26121b5ada3b22be
:101e00007ea12a7402a4222e14062a740702013924
:101e1000e5290a1b09b1067022ca3b7d717a252883
:101e20007d637e340d6e7d272e240008121f9f7e59
:101e3000340d837d272e24001d121f9f7e340d98a4
:101e40007d272e240032121f9f09b6011070097dd4
:101e5000362e340043121fa6e419b601100966009d
:101e60003d09760043bc7640327d362e3400401268
:101e70001fa609760040be7008401be419b600405a
:101e800009a6003e09b60044bcba500a7d362e347d
:101e90000044047a39b0e419b600437e35287e390f
:101ea000700a277d32121beb7408acb79d257c6548
:101eb0001976010c09b60040acb77c7b197600d9c5
:101ec00009760040bc767d26501f2e24010c7e2909
:101ed000b0047a29b0093600407d262e2400d97e30
:101ee00029702c737a2970800c2e2400d97e29b099
:101ef0002cb67a29b0097600430a372d36097300cb
:101f00000c0a372d3609a3002c6c66807f097600f9
:101f1000d90a170a262d210a452e440d6e7e49b096
:101f20002cba7a49b07c463e400af52ef528093f86
:101f300000040a042d07193000470a0509b00d6e88
:101f40000a442d4719b400080a4509740d830a4450
:101f50002d471974001d0a4509240d980a042d0700
:101f6000192000320a442d47193400480a442d47ed
:101f700019b400090a142d171971001e0a150971e8
:101f80000d980a142d17197100330b600976010c96
:101f9000bc762802e10d3e7019770005da3b227eff
:101fa0001400150203817e39b0047a39b022021f71
:101fb000a64935062a9d320200464935062c9d3237
:101fc0001200467d6322121bf23e342e34c0000afa
:101fd0002b2d32227ca70a3b121bf43e343e342eba
:101fe00034c0000a2a2d32227ca67c570a3b0a25df
:101ff000121b750a2abd323803740122e422ca3b3f
:102000007d736cdd7eb300d9f5537547007ec0014a
:102010008019e5470a3b2d377e39600a2c2d277e33
:102020002970bc7640037ac1470bc0e553bcbc386d
:10203000e1e5470a3b2d377e39b0f5477549007e0b
:10204000c00121477552006d337a35546cdd7a3505
:102050004a7a354c75480001f17e71487402ac7bb8
:1020600009b3006bf54e09b3006cf54fe5480a3b28
:102070002d377e3970bc7c78760bd0e54e0a3b2e2e
:10208000354a7a354ae54f0a3b2e354c7a354ce5d0
:102090004eacbd7e354a122154f550e54facbd7ea5
:1020a000354c122154f5517e9152ac9de5500a5b9e
:1020b000bd5428060a4d8d54f5527e9152ac9de5d3
:1020c000510a5bbd5428060a4d8d54f5527e614f6e
:1020d0001e607e7002ac677e414e1e407e5018ac82
:1020e000452d23493208cabe355408037a355405b4
:1020f00048e553beb14828020159bed0002846be6b
:10210000d002280674017ab30bb20a2d7e354a8daf
:10211000327a354a0a2d7e354c8d327a354c7e0521
:102120004a7c717e61497402acb619750b8a7e25b2
:102130004c7c7519750b8b7e35541e243e241e0471
:1021400012215c05490bc0e547bcbc40020144e5d7
:1021500049da3b229d351200467cb7227e140018d6
:10216000ad102d21593208ca22ca3b75290012230d
:102170008d280c7eb304ba700674017ab304ba6c6d
:10218000dd807c1a3d3e3409a3006b1ea00973005c
:102190006c1e706c666c557e1002ac177e3018aced
:1021a000352d10490108ca7e300cac350a472d1474
:1021b0003e14491106d22d107e9002ac977e101865
:1021c000ac1a2d04490008ca7e900cac9a0af72d6f
:1021d0004f3e44494406d22d409d41be44005a081a
:1021e000020b600b50a5bd15aebe600a280f7e170e
:1021f0000aecbe1400017805752901800c0bd07e15
:102200004300d9bc4d080221836cccbec0145005dc
:10221000122395801412239512238d280ce419b7ec
:1022200000077e34021d12239f09b70007b4020283
:1022300080026179e529b4010b09770002be7014b0
:1022400050026179bec01450067e34021c80047ea8
:1022500034021d12239fe419b7000709b70002b426
:10226000140cbec01450071223854002617912235a
:1022700085501bb41418bec01450131224c7780e16
:102280001224b97eb3021c047ab3021c61797ea3c6
:1022900003adbea306b028167eb304bab4010f7e08
:1022a000b306b0047ab306b074027ab304babea31c
:1022b00006b038077e349c407a3509097700021a47
:1022c000371b357cd76169097700011a571b55f513
:1022d000286155bed000487bbed0155876e528be93
:1022e000b000486fe528beb00c5868e5281a5b7d41
:1022f000453e441a2d7e340018ad327d232d2449ed
:102300003208cabe340000081c1a0d7e14000cad41
:10231000107d012d053e042e0406d20b08102d134e
:102320001b081080211200467d131a2d7e34000cec
:10233000ad32e5281a2b2d233e242e2406d20b285d
:10234000309d311b28306d33e5281a2b3e241a0da1
:1023500012215c0528097700010a270b25e5281ab8
:102360003bbd32180241d30bd0097700020a270b7c
:10237000251a3dbd32180241c70bc0bec02850020d
:10238000410bda3b227e3509be349c40227e73002d
:10239000d9be7000227ef008acfc2e7400dc227ed8
:1023a00039b0beb0002804147a39b022ca7bca6b97
:1023b000ca5bca4bca2bca1bca0bc0d0c083c0821f
:1023c0001217ff1224b02093086d337a370e18804d
:1023d000137e370e180b347a370e18be3403e828f4
:1023e0000375e9ffe5ccb402031224b01224c068df
:1023f000061b347a370b247e3558be3403e8400e72
:102400006d337a3558e50cbeb0645002050c7e374a
:1024100004b70b347a3704b77e370069be3704b788
:1024200028031215757e3704bb4d33680ebe340089
:10243000017802d2011b347a3704bb122385501471
:102440000b347a3509e5ccb4020a12238550050b0a
:10245000347a35097eb30d14b4aa137ea303747cb9
:10246000ba047ab30374bea06428031217f8e51403
:10247000beb113280b0513e5ccb402070513800386
:102480007512017eb30ce26012beb0285007047ac8
:10249000b30ce2800612056c1224d0d082d083d017
:1024a000d0da0bda1bda2bda4bda5bda6bda7b3257
:1024b0007e35580b347a355822740219b70007223a
:1024c0007e370b244d33227e7300dabe7300d9228f
:1024d0006d337a370de7e47ab30dc022ca3b6cff47
:1024e0006cee1259d4124ebb124a391204c37e3418
:1024f000062a125536e47ab30ded124783125a8636
:102500001224c078fb120acc120b98125a7d1212b8
:10251000041214821245cb12160a120fc2120fe5d2
:10252000124b2e7a730b201217f86d337a350d1279
:1025300045de7ed30cf87ad10f7eb30d14b40102c0
:10254000800302297153db7f1204bc7e3400647a5d
:1025500037006912504d7513007512007eb30d12cd
:1025600070087eb3036df51480067eb3036ff51417
:102570007eb30d0dbeb0ff680912136e12174b1219
:102580005a26125574e50f700280397eb3029bf50e
:10259000217eb30364f5237eb30331f5251256196a
:1025a0007eb3029bf5227eb30364f5247eb3033130
:1025b000f526e5217ab3029be5237ab30364e5258a
:1025c0007ab30331120fbf121068124e6e7e3703ba
:1025d000abbe370aae58137e370aae9e3703ab1236
:1025e0005a747e3703ab7a370aae7e3703abbe37f9
:1025f0000ab658137e370ab69e3703ab125a6b7e63
:102600003703ab7a370ab67e3703abbe370abc58fe
:10261000137e370abc9e3703ab125a627e3703ab78
:102620007a370abc6ccc7e370aaebe34005a4802f8
:102630000bc07e270ab6be24005a48020bc07e2774
:102640000abcbe24005a48020bc0bec0024023127e
:102650005a746d337a370aae7e370ab6125a6b6dea
:10266000337a370ab67e370abc125a626d337a372c
:102670000abce4124c817e730aee7a730d167eb3a7
:102680000373b40104e4122c8f7e6302977e700200
:10269000ac672e3403c37e2400ff0b1a307a370652
:1026a000b11e341e347a7306b37a730ced123f27d1
:1026b0001258487401124c81123f387e370aec7a66
:1026c000730cf07eb30ae57ab30cf1b4061712234b
:1026d00085500312401f1217527eb300db30e00515
:1026e000e47ab30ae5125a2d78127eb30ae5b404ef
:1026f0000be50f70077e34000a7a350d7e350dbe6e
:10270000340000280b1b347a350d74047ab30ae5c3
:102710007e34006b7a370410123d9a7ab304a7e531
:102720000fb40112e5227ab3029be5247ab3036465
:10273000e5267ab303317527037403122f2b123069
:102740003a124c2bb401127eb304abbeb002681532
:10275000beb0016810740380087eb304abb40305f7
:10276000e47ab304ab7eb304b6b4050e741e7ab338
:1027700006b37e7306b37a730ced1238ca12347442
:102780007eb30ae5b4060a125aa82805e47ab30a09
:10279000e5120fc27e1406b1125718125a2d78078f
:1027a0001224c7500580001221697ea300d94caacb
:1027b0007805e47ab304ba7aa300da7eb300db309a
:1027c000e005e47ab300d9122d20e50fb4010280b0
:1027d0000302285e7eb304a2120ba47e73029b0a3e
:1027e0003709730264be73029778367e7304a2be03
:1027f0007000282d7e37029f7a3510be3400502895
:102800000874027ab304ab6cee7e3510be34002837
:10281000500fbee01450040be0800674017ab3043c
:10282000ab7e370258be340003780674027ab304d4
:10283000ab7eb30cfcb40126e47ab30cfc7e730cc3
:10284000f77a7305287e730cfa7a73052b125a599e
:102850007e730cf97a73052d12148212174b7eb316
:102860000cf87010bed001780be47ab304b67ef099
:102870000112174b7e730cf8bc7d68117cd7bed05b
:102880000178047402800274017ab304ab7ea30c55
:10289000f8bea10f68097eb304aa70037aa10f12d3
:1028a00047267e7304a27a7300d97e3403a27a3756
:1028b00006ae121c1f7e34062a7a370410122d2011
:1028c00012185b124b6f7e3403a27a370412124542
:1028d000e87ea304ab4caa780474018013bea00266
:1028e00078047405800abea003780474028001e4b1
:1028f0007ab304b67eb304a2b4010e7eb304a3700f
:10290000087e7304b67a7304ac7e3404107e24030c
:10291000a212297e1216207eb304aab401028003fb
:102920000225397eb300da6003022539bef0017852
:10293000356cff6ccc0a2c2e2404e212568c0bc092
:10294000bec01578f01259977ab3052d121482740f
:102950001a7ab30cf7e47ab30cfa74027ab30cfb6c
:1029600074017ab30cf9120fcbe47ab304aa0225ee
:10297000391256bfe4122c8f12002ada3b22ca3bce
:102980007d627d73752c00752e00753100753200e7
:102990000b78307a370d6e09b7009620e00820e2f8
:1029a0000520e102816e2002067e340c5380047ef5
:1029b000340c957a352f7528007ea0ff122ca47a4e
:1029c00039a00528e528b442f074aa7e352f7a395b
:1029d000b074aa7e352f19b30001097700907e25c7
:1029e0002f19720004752d007528007e9128740738
:1029f000ac9b7d342d3709a300087cba54f0beb0df
:102a000000282bb4b002800281012e3400087cba69
:102a1000540f7a39b07d542d57097500080a572e86
:102a2000570d6e09b50046b40102800281012d47a1
:102a300009a400080a3a2e370d6e09b30046beb04d
:102a400003780281017aa1330a3a122cbff534606f
:102a500005e534b4023a7d432d470934009c09a7ab
:102a600000a6bc3a500e7d042e04009c7cb3047a70
:102a700009b08101bc3a78094caa6805e419b20092
:102a8000467ea0ffe5330a2b2d2719a2009c801a51
:102a90002d370943009c095700a6bc453807e419a7
:102aa000b3009c8101e419b3009c7ea12d7406a49f
:102ab000f529122c8509b30009f531122c8509b3cb
:102ac000000ac454f0f532e533beb00a506409b7c9
:102ad000009620e32a7e080031e5330a3b2e340cb1
:102ae0004974017e500f122cca7e080032e5330a69
:102af0003b2e340cd774107e5020122cca8014e563
:102b0000330a3b09b30c49f531e5330a3b09b30cf1
:102b1000d7f532e5330a3b122cbfb40115e419b3e3
:102b20000c496caae5330a3b19a30cd77531007523
:102b3000320009b60006b4ff14122c8509b3000850
:102b4000beb0ff68057531018003753100122c8518
:102b5000493300047a352a122c7519a300057e55d5
:102b60002a122c7b19a30006122c85493300067a01
:102b7000352abe3404ff780281017e352a122c7575
:102b800019a300077e552a122c7b19a300087ea1e9
:102b900031122c7d19a300097ea132122c7d19a3bc
:102ba000000a122c85096300087cb6c454f0122c6c
:102bb000b52e240007122cac7e51287407ac5b2d77
:102bc0002709720008be70ff68260a172e170d6ebf
:102bd00009610046be60016802052c052e7cb6c462
:102be000333354c0122cb52e240005122cac800fa8
:102bf000122c7d2e3400057e39b024c07a39b00500
:102c00002d0528e528b40a02800221ebe52c7e354b
:102c10002f19b3000374427e352f19b30002e47eee
:102c2000352f19b30041752800122ca47e39607e1f
:102c3000252f2e2400417e29706c767a2970052874
:102c4000e528b441e4b2027401122c8f09b7009652
:102c500030e2077e370d6e125536122c9a54fe1252
:102c60002c9754fb122c9754fd7a39b08004e4124f
:102c70002c8fda3b220a565e54000f7cabe5290a02
:102c80003b2e352f227e71287407ac7b2d372270a6
:102c900003d28622c286227a39b07d372e3400963e
:102ca0007e39b022e5280a3b2e352f227e29702c52
:102cb000767a2970227c6be5290a2b2e252f227d1e
:102cc000232e270d6e09b2004622ca3b7cc57cdb51
:102cd0007d737a0d357e7950a5bd000b7e0d357e56
:102ce0000b407a794080367e0d357e0b400a340adf
:102cf000259d321200460a2cbd3208187e1d357ef5
:102d00001bb07e79a0bcba7cba28042cbd80029c82
:102d1000bd7a79b07e79307e1d357a1b30da3b2260
:102d20007e7300d97a7304a2223000087401122c39
:102d30008fc20022e4122c8fd20022ca797c6b143d
:102d4000685314686214687a146877146874146895
:102d50007114686e14686b1468681468651468628e
:102d600014685f14685c14685914685624c3686159
:102d70001bb1686914686c2465685c24ea78691280
:102d80002f194c776804a5bf0104740180027403f5
:102d9000122e5ac14f7a730ce67418ac7b2e370d85
:102da000c17a370ce4c14fa5bf040774017e7004db
:102db000800ba5bf05028002c14fe46c77122ea3e1
:102dc000c14f0a262e2404bd9e2400037a29708058
:102dd0007e7a7304ca80787a730de680727a7305fe
:102de00028806c122d2980671206d5540712527d57
:102df0007cabbe6050400ebe60633809122e521983
:102e000072047d804abe6078400ebe608b38091225
:102e10002e521972046a8037be60a0400ebe60b3a5
:102e20003809122e52197204578024be60bf400e1a
:102e3000be60d23809122e52197204448011be604d
:102e4000d3400cbe60e63807122e5219720445dae0
:102e500079227414a40a262d25227c7b7eb30d14be
:102e6000b403057401022ea37427022e6dbeb07f39
:102e700038307c6b2e60fd68291b6068252e60e170
:102e800068202e60fd681b1b6168172e60f96812b0
:102e900080000a2b19720ced7eb30d6d44017ab3dc
:102ea0000d6d22beb00a50070a2b19720ddd220ae1
:102eb0002b9e24000a7c650a26be24016d500da5b8
:102ec000be7d03022d290a26197204bd22ca79becd
:102ed000b080401dbeb0bf3818beb0266838beb046
:102ee000286833beb023682ebeb02f6829248080a6
:102ef000220bb2681c1bb2781d122f19be70044041
:102f000009be70056804740380027401122e5a8091
:102f1000057427122e6dda79227e740ce97a7970a5
:102f20005e70707cb7c4540f7c7b22ca3b7cebe4a0
:102f30007ab30bb2125aa838030230317cbe123475
:102f4000b47ea300da4caa6816e5197006e51a707b
:102f500002800cbea001280ce51cbeb00828057e2e
:102f6000f00180237ef0017ea300d9bea300da78b1
:102f7000066cee6cff80107cba9eb119beb300da0d
:102f800078057ee0026cff4cff78057cbe1234b4fd
:102f9000e5187ab300d97e31187402ac3b7e240b5d
:102fa0008a12322c751c64751d646cee805f6cddba
:102fb00080517402acbd0975006b0a277402acbe67
:102fc0000975006b0a371259dff5287402acbd0988
:102fd00075006c0a277402acbe0975006c123225ac
:102fe0007cc7e528beb000280ae51cbeb12828032e
:102ff00085281cbec0002809e51dbcbc28037ac179
:103000001d0bd07e7300d9bc7d38a70be07e73000a
:10301000d9bc7e3899e51cb46403751c00e51db469
:103020006403751d00e51dbeb11c280b851d1c80a9
:1030300006751c64751d64da3b22ca3b6d337a3514
:1030400028752c00752d007e2300d97a212a7e3424
:1030500008ca7a370d6e7e3002ac237e24006b7e68
:10306000340d70120381e52abeb00a380221e175e1
:103070002b006cff211c7e3403ff7a352e752dff4b
:103080006cee804e7e7002ac7e09b30d70beb0ff58
:10309000683e09730d710a277402acbf09750bb441
:1030a0000a37121fbe7402acbe09750d700a277470
:1030b00002acbf09750bb31232252d367a35307e3e
:1030c000352ebe353028097e35307a352e7ae12d01
:1030d0000be0e52abcbe38ace52dbeb0ff683b7ef8
:1030e000712d7402ac7b09330d707c4312321109cf
:1030f000a30d717c2a1e200a022d20123233be2419
:10310000005a4816e52b1a2b3e2419320d9819a2a5
:103110000d9974ff19b30d70052b0bf0e51bbcbfa7
:10312000280201767ef12b21c86d337a35287ea0e6
:10313000ff6cee80687e9002ac9e09440d70be402c
:10314000ff685812321109b40d711eb00a3b2d23cd
:103150003e242e270d6e0b2830be34000058056d1e
:10316000331b28307e5002ac5e09620d707c761ee7
:10317000707e300cac3709720d717cb71eb00a0b33
:103180002d103e142e170d6e0b1840be4528480b0f
:103190007a612c7a712d7a45287cae0be0e52abc49
:1031a000be3892bea0ff681e7e712c7e9002ac9f3e
:1031b00019740d98e52d19b40d997e70ff7e50029b
:1031c000ac5a19720d700bf0bef00a500221297e24
:1031d000240d987e340d707e140028120381752a08
:1031e0000a7e340bb37e24001474ff120398e52a80
:1031f000beb000281012321912322c1232197e344d
:103200000bb3120381852a1be52a7ab300d9da3b76
:10321000221e407e500cac45227e312a7402ac3b0b
:103220007e240d70220a379d320200467e34006be8
:103230000203813e242e270d6e0b282022ca3b7ddf
:10324000617d737e34d8f07a352a7e3427107a3542
:103250002c6d337a352e09b700d9f536097700433e
:103260002d3709b3000cf5377d322e3401f87a374b
:103270000d6e7d372e3400497a370d7049320411b6
:103280007a370d727532006132e5320a2b3e247ea8
:1032900034000cad327a35347533006123e5330ade
:1032a0003b2e35343e342e370d6e492300180b3833
:1032b000309d327a35307e352abe353058067e351f
:1032c000307a352a7e352cbe353008067e35307a88
:1032d000352c7e3530120046be352e28097e35301d
:1032e0001200467a352ee53770377e1136740cacf5
:1032f0001be5330a1b2d012e070d727e09700a375c
:10330000121bf8e5330a2b2e25341232332d237e7f
:103310007132740cac7b2d313e342e370d701b385e
:1033200020053309760001be71332802419d053620
:1033300005320977010cbe7132280241890b7830c1
:10334000be34000178087e352a9e352c80037e35f8
:103350002e59370047e5377024740119b7010ee480
:1033600019b7010f097700d90a370957010c0a2547
:103370002d237e6970bd23400d74018005e419b7cb
:10338000010e19b7010fda3b22be34003f38117d20
:10339000439e4400201233e128447e280032803ec0
:1033a000be3402c040157d439e4402c01233e1404a
:1033b000047e2800312e28029e80236d229e180054
:1033c000407e1400f81200a97f217cba7ca90a482b
:1033d0002e280032be28029e28047e28029e7d35bb
:1033e000227e5401b8ad546d447cba7ca9be28003d
:1033f00032227df3bef4003f38117d4f9e44002001
:10340000123447283f7e2800378039bef404c0407c
:103410001bbef404ff38157d4f9e4404c012344790
:1034200040047e2800362e2804c98018bef404c04b
:10343000380f123458be2804c928097e2804c980d0
:10344000031234587d35227e5401e0ad546d447c26
:10345000ba7ca9be280037227d3f6d229e1800400d
:103460007e1401041200a97f217cba7ca90a482e8f
:10347000280037226caa80167e3007ac3a4931000a
:1034800093492100952e1400931234970ba07eb31c
:1034900000d9bcba38e222be34000050026d33beff
:1034a00024000050026d221b18307d310b357d1336
:1034b0001b382022ca3b7cdb7eb300d9f53375185c
:1034c00000751900751a006d227e347fff6ccce404
:1034d0000a1c19b10d6e6caa7e9002ac9c19a40b4b
:1034e0008a19b40b8be533bcbc28280924006c1e58
:1034f000207e3002ac230904006b1e007e1018ac45
:10350000012d01491008cabd1248027d21bd1318c2
:10351000027d310bc0bec01478b52d320e34e533b8
:10352000beb00250030238c76ccc7e3006ac3c7d86
:10353000512e54035d125ab0bd2358197d512e549b
:10354000035f125ab07a25362e1403617e0400ff01
:103550000b0a7080070bc0bec00540ce6ccc023891
:10356000b57e7002ac7c123f20f529123d80f52a11
:103570004ccc68080a3c09b30d6e700a0a3c0b3447
:103580000a2c19720d6ee53314bcbc78030238bee8
:103590000a5c0b54f5340238a97e71347402ac7b9a
:1035a00009a3006b1ea07aa12b123d80f52c0a2adc
:1035b000e5291259ddf531e52c0a2be52a1259ddf2
:1035c000f5327541027535007e512a7402ac5b7e7e
:1035d0007129123d93493308ca7a35387e512c74cb
:1035e00002ac5b7e712b7418ac7b2d23492208ca78
:1035f0007a253a7e0400057d52ad507d151259abf7
:103600007a153cbe253808127e1538ad107d210e86
:10361000240e240e240e247a253ce531beb0013858
:103620003be532beb00138347cbd5402b4022d12e9
:103630001e002d35492308ca7e312c7402ac3b7e16
:1036400071297418ac7b2d31493308ca2d32be352f
:103650003c1803023832753501023832e531beb00c
:1036600001380ae532beb0013803023832e531be16
:10367000b0054003023832e532beb00540030238df
:10368000327cbd5401b4010280030238326d337aba
:10369000353e75400085292d852b2fe52bbeb129a0
:1036a0005006852b2d85292f852a2e852c30e52c3b
:1036b000beb12a5006852c2e852a307545007546e8
:1036c00000e52fbeb12d7821754501e52d6005e59a
:1036d0002db41403754601e52dbeb0002802152d4a
:1036e000e52fbeb0145002052fe530beb12e782173
:1036f000754501e52e6005e52eb40b03754601e521
:103700002ebeb0002802152ee530beb00b500205cb
:1037100030852d42805d852e43804fe52dbeb14220
:103720006815e52fbeb142680ee52ebeb1436807ad
:10373000e530beb1437814125a14123f11492208e1
:10374000ca2e253e7a253e0540801d125a14123f8e
:1037500011492208cabd27080ce541beb000280562
:1037600075410180037541000543e530beb143500a
:10377000aa0542e52fbeb142509c7e112e7402acc8
:103780001b7e512f7418ac5b2d20491208ca7e2570
:103790003e9d217e91307402ac9b7e312d7418ac1d
:1037a0003b7d512d54495508ca9d25125a977e11cb
:1037b000307402ac1b7e312f7418ac3b125a977ace
:1037c000253e7e253a2e25387a253ce545b4011163
:1037d000e546700d7e253e9e253c7a253e1540151a
:1037e00040e540beb0042806e54024fcf5407e25b7
:1037f0003ebe24000058037a353e7e153c1a021a5c
:10380000007e35361a261a24120098e5400a1b6df0
:10381000001200987f217e353e1a261a247e14005d
:10382000281200a9bf12080ae541beb0002803759e
:103830003502e52bbeb0146805e529b414037535cf
:1038400000e535beb000285f7e11352e1018a5e7c3
:1038500004a5f7e5340a3b09b30d6e700c0a2c0978
:10386000520d6e19530d6e803e754400803209333f
:103870000d6e0a2c09a20d6ebca32812e5440a2b7a
:1038800009220d6ebc2a781619320d6e8010e5449f
:103890000a2b09b20d6ebcb3780419a20d6e054453
:1038a000e533beb14438c70534e533beb13428032f
:1038b0000235990bc0e533bcbc28030235617e3468
:1038c0000d6e121ffef518da3b22ca3b7530007ee2
:1038d000a300d97aa1297e6706b17eb30af3f52e3b
:1038e0007eb30af4f52fbea00028426cee6cff8078
:1038f0002e7402acbf0965006b1e607a612a0975df
:10390000006c1e707a712b7e5002ac577e7018ac22
:10391000672d32493308cabd3640020be00bf0e593
:1039200029bcbf38ccbee0017803753001152e7e6e
:10393000240aaa7e340d6e123d6fe529beb0003810
:103940000241416cee6cff41357e7002ac7f123f4c
:1039500020f52a123d80f52b7402123a467e512b37
:103960007402ac5b7e712a123d93493308cabd369e
:103970005002412ee52abeb0012823e52e0a2b1b5a
:1039800025e52a0a3bbd325815e52bbeb001280ead
:10399000e52f0a2b1b25e52b0a3bbd324803123ac3
:1039a00044752800803cbef12868357ea128740249
:1039b000a40975006b1e707a712c09b5006c1eb0dd
:1039c000f52de52a7e6003121fe8b40113e52b7e76
:1039d000712d7e6003121fe8b40105123a4480097c
:1039e0000528e529beb12838bd7af302567ae302ec
:1039f00057e52abeb014500c7e340aaa7e24001863
:103a0000e41203987407acbf09750099be700528cd
:103a10000ae530b401057404123a46123f27123aff
:103a20004d7e240d6e7e340aaa123d6f0be0bee07f
:103a30000a500a0bf0e529bcbf280221497ae300ad
:103a4000d9da3b2274010a3f19b3024c22ca3b7dea
:103a5000d07dc17d936caa6c776d887a870d867a4c
:103a6000870d887ea40001096d01eb09bd01ecf50d
:103a7000310a462d4d093401e1494c00117d092ed2
:103a80000401f87db92eb403f06c227ef007acfb84
:103a90007d872d8d1928002de47d872d8d19b80087
:103aa0002e7ef002acf67d872d8d7e89201e207e35
:103ab000d00cacd2092800011e200a822d867ab3d0
:103ac0000d963e842d800b88600bc880bd6848062b
:103ad00074017ab30d967da92ea401f87d6a0a6c53
:103ae0007cbdf5ba7d6a7cbdf5b97d972d9d123df3
:103af00064bd894015123d5a097900011e700a976c
:103b00000a839d987d797c7f80026c777a71bb12e5
:103b10003d5a7e9920123d68bd89400a0a937d581e
:103b20009d597cab80026caa1a9a3e943e943e94b6
:103b30003e947d797c2f7cb242bb7cba0eb00eb035
:103b40000eb00eb0f5bc092c00200a923e943e94b3
:103b50005e9400f07d797c2f7cb242bc75c300126c
:103b60003d5a123d642d98092200010a82bd9850e9
:103b70000280040a921b947d797cbff533092200f0
:103b80002f7cb2c43354e07c2be5339cb7044cb299
:103b9000f5c3123d5a7e9920123d682d987e29204a
:103ba0000a82bd9850047d7980060aa21ba47d7a02
:103bb0007cbff5321a9ae5321aab9da90ba47d7a27
:103bc0007cbff5c47ea40d977d7a0a7e7cbff5c1cb
:103bd0007d7a7cbff5bd75c207800343c20100003a
:103be0000000e5c230e7f475c2007e7f0d9f7a7f4a
:103bf0000d927e7f0da37a7f0d8a7e7f0d9b7a7f4b
:103c00000d8e7e7f0d977402acb62d5d7e59a01e81
:103c1000a09ca381b2123d76097a00011e709c73ac
:103c20008079bea00048727e2920bc2a086bbe7035
:103c300000486609220001bc27085e1a8a7e9400ab
:103c40000cad981aa72da97d9a3e942d900b9890b3
:103c5000bd9448167ef1317407acfb7d972d9d2ee7
:103c600094002e7e99b0047a99b07eb30d96b4017b
:103c7000287d9a5e9400072e9403cb7d797af18299
:103c80007ae183e49364ff7d9a1e941e941e942d22
:103c90009b7e99205c2b7a99200b70123d5a09b9b2
:103ca00000011eb02cb31a8b1a97bd9818028122fe
:103cb0000ba0123d767ea9b01eb02cb31a9b1aaa97
:103cc000bda91802811574067e1f0d8a2f11147864
:103cd000fb7a1f0d8a7e0f0d927e1f0d8a1200b493
:103ce0007db32eb400207ab70d8674067e1f0d8e2c
:103cf0002f111478fb7a1f0d8e7f071200b47d23dd
:103d00002e2400207a270d887e71317407ac7b7dcc
:103d1000a32dad59ba00287d132d1d5921002a0964
:103d2000bc0010600d1ef41ee450044ef48000141c
:103d300078f3be78007f28047e78007f7d2f7dc3d6
:103d40002dcd195c002d2d3d0953002ebe500f289e
:103d500006740f19b3002eda3b227ef002acf67d1a
:103d6000972d9d22092900011e200a820a93227e96
:103d70001400180203817ef002acf67da72dad225f
:103d800009b3006c1eb022094700017e5002ac4509
:103d90007e712d7418ac7b2d3222ca3b6d337a357f
:103da0002a7e1880007e140d6e741012015a7eb3a4
:103db00000d97002c16d7eb304a36002c16d7eb3f1
:103dc000006b1eb0f5287e73006c1e707a71296d31
:103dd00066752c00752d000a377d73802f7d173e88
:103de00014123f0e491208cabe14003c0824123fa8
:103df000182808491208b22d61052de528beb01417
:103e00005008492208e22d62052d1b74be74000083
:103e100058cb7d7380307d273e247e7128123d93e0
:103e2000492308cabe24003c0828123f1828084924
:103e30002308b22d62052de528beb0145008493381
:103e400008e22d63052d7d370b347d73be34000ce5
:103e500048c4e52cbeb003500280127d36120046e5
:103e6000e52d0a2b120066be34000f0806751700f8
:103e7000e4e1046d33e528beb0002809123f07498c
:103e80002208b22d32e528beb0145009123f07496e
:103e90002208e22d327ea008801e7e5002ac5a0914
:103ea000b20d6e1a1bbd13080f09b20d6f1a2b2e1f
:103eb000252a7a252a7508057c5a1ba0a5bd00da9b
:103ec0007e51297402ac5b7e7128123d9349330800
:103ed000ca120046be3402bc080a7e352a2e3400bf
:103ee000287a352a7e352abe3400fa28077e340027
:103ef000fa7a352ae5170a3bbe352a50057e552a3f
:103f0000f517e517da3b227e31297402ac3b7e516e
:103f1000287418ac5b2d2122052ce528beb00022a8
:103f200009b3006b1eb0227e3406d27e240af37ed3
:103f30001406b17e04006b22cad8ca797ef0011241
:103f400043b87cdb12451e7ceb125a2d785274016b
:103f50007ab30ae5bed002780a74067ab30ae56c31
:103f6000ff80367eb300d9702a7eb302227024e52a
:103f70000fb40102800e7ea30e17bea002400fe414
:103f80007ab30e177e2400017a270aec80767cba79
:103f900004800774047ab30ae5e47ab30e178064e8
:103fa000be340001782ee47ab30ae54cee68067e52
:103fb000340003804bbed0027803e480397eb30026
:103fc000d9700a7eb3022270047401802912401f46
:103fd0006cff80307e370aecbe3400037826bed0fa
:103fe00001780512401f6cff1be168080be0780c9c
:103ff0007403800274027ab30ae580087e340001fb
:104000007a370aecbef00178071240157ab3021e27
:10401000da79dad822e47ab3021c7ab3021d22ca12
:104020003b7ea300d97e5302226c446c337ec30cca
:10403000f87eb30331f5347eb303667007bec0016a
:1040400078026161bea0003807be50003802615995
:10405000bec001780874017ab3021e80077e340264
:104060001e121fae7eb3021eb4010280026161e423
:104070007ab3021e7eb3021c600221957eb3021d3c
:1040800060022195e47ab3021f7aa3021c7a5302dc
:104090001d6cdd2185bcad7ef0082816acf42e74b5
:1040a00000dc7e7002ac7d123f20f52c09b3006c61
:1040b000801aacf32e74017c0a0a0a3d9d303e340e
:1040c00009b302231eb0f52c09b302241eb0f52b50
:1040d000e52c19b70002e52b19b70001e419b70068
:1040e00007bec00178676c228034e5340a3b0a02bf
:1040f0002d0309b700020a3bbd037820740119b7ec
:104100000007090700017e1002ac017e7018ac7236
:104110002d30493302a159370005800a0b207eb3a8
:104120000364bcb238c47eb30364bcb23813bcad04
:1041300028067e34021c80047e34021d12239f80d8
:104140001cbcad28040b4080140b308010bcad2883
:10415000040b4080020b30740119b700074ccc7877
:10416000167e112b7402ac1b7e712c7418ac7b2d47
:1041700030493308ca8008e47a79b0e5340a3b59fb
:104180003700030bd00a350a0a2d030a3dbd305013
:1041900002019561617e73021d0a477e73021c0a4b
:1041a000572d54f5286cdd41f77ea3021cbcad28c9
:1041b0000512437d8003124394097700017e90022b
:1041c000ac9709a700027e5018ac5a2d244922084a
:1041d000ca7a252909b700077004152841f54ccc87
:1041e00068024188752d007531007a71327aa133e9
:1041f000753000e533beb130685b7e31327402ac9d
:104200003b7e11307418ac1b2d01493008ca7e5119
:1042100030740cac5be5320a0b2d203e244922069b
:10422000d22d237e71337418ac7b2d31491308ca0b
:104230007e7133740cac7b2d303e34493306d22d65
:10424000319d327a352e7e73021cbc7d28071243c5
:104250006c5802052d0530e530b41597e52dbeb03c
:104260000a4012e533beb013500b12436468067463
:104270000319b70007492700037e35291243870831
:1042800074e419b70007806d752d00803be5340a92
:104290003be52d0a2b2d2309770002bd237812124e
:1042a0003d87124374124387081ce419b700078046
:1042b00015123d871243749d327a352e12436c5885
:1042c000057d37121fae052d7e730364be712d3838
:1042d000bc49270003e5340a3bbd2378187e79707a
:1042e000be700a280b1243646806740319b70007ee
:1042f00074017a79b00bd01243a5500221a9e528a8
:104300007005124015805a7eb3021ff530bec00101
:104310007806e5301eb0f530e530beb01440316ca3
:10432000dd80267ea3021cbcad280f12437d09b799
:104330000007b401121224b9800d12439409b7008a
:1043400007b401031224b90bd01243a540d5801144
:104350007e34021f121fae8008e47ab3021f12409f
:1043600016da3b227eb30ae5beb006227e3706b1de
:10437000be352e22492302a149370005227ef008ce
:10438000acfd2e7400dc229d321200467a3529be27
:10439000340032220a3a0a7d9d733e743e743e74a4
:1043a0002e74017c227e73021d0a377e53021c0a82
:1043b000252d230a3dbd3222ca69caf87eb306c93b
:1043c000f5287ec306ca7ed10f7ef30af37ed4069b
:1043d000d27ec408ca7e34034b7e2403337ea303fb
:1043e000647e3303317eb303667009bed001780466
:1043f000e51ea1194cdd782b6c33e5280a4b0a5ccd
:104400009d540b547cab74017ab303677eb30e16d4
:10441000beb0025009047ab30e16e51ea119e47a63
:10442000b30e166cff6c2281b5a5ba00046d008036
:10443000077e052b2e04000c7a052b0a430a022d59
:1044400004e5280a4bbd04406a0a4cbd043864be2a
:10445000040013385ebed00178127e9002ac9f7ebd
:104460001018ac122d04490002a1801a7e452b3e83
:10447000447e1002ac1f2d047d402d4c0b48402d76
:104480000d0b08002d047a05297e9002ac9f2d4368
:104490000b4800be052950067e05291b48007e906a
:1044a00002ac9f2d420b4800be052928067e052937
:1044b0001b48000b20bca2280281290bf0bef00b88
:1044c000380281256cff7402acbf4925033349359e
:1044d000034b9d32120046be3400b40805751e021f
:1044e00080070bf0bef00b28dd7eb30367b4012715
:1044f000bef00c7803751e016cff6d337402acbf07
:104500005935034b7e347fff7402acbf59350333fa
:104510000bf0bef00c78e3e51edaf8da69227e5083
:10452000057e40036c666caa6c77a5bc00037e40d8
:10453000016c336c227e1002ac127e9018ac932d6d
:1045400040490408cabe04001408040b608008be79
:1045500004ffec58020ba00b702c24be200c40d59d
:104560002c35be301540cc7cb71eb00a2b0a16bdc8
:1045700012281ee47ab30ae77e730ae6be7005507d
:10458000067e340ae68022e47ab30ae6751f0180cb
:104590002d0a3abd322821e47ab30ae67e730ae78f
:1045a000be700550097e340ae7121fae8010e47a0f
:1045b000b30ae7751f0280061245c1751f00e51f8b
:1045c00022e47ab30ae77ab30ae6221245c17406f6
:1045d0007ab30ae56d337a370aec751e02227eb390
:1045e00003a9f55675570022cad8ca797ef304a2ea
:1045f0004cff78051245dee1216cee7e5007ac5e83
:1046000009d20418bed0ff683a0a3d09a306704ccf
:10461000aa7817493204147e3004ac3d59310deeae
:104620004932041659310df08019bea00178147476
:1046300004acbd49350dee5932041449350df0591d
:104640003204160be0bee00a78b16cee7e7007ac67
:104650007e09d30418bed0ff7802e1180a2d09b2f2
:104660000670b402028002e118493304147404ace9
:10467000bd49250dee121b757a35287407acbe496d
:104680003504167404acbd49250df0121b757a353e
:104690002ae5560a3bbe35282848be352a28437edf
:1046a0009004ac9d49340dee7407acbe593504142a
:1046b00049340df0593504160a3d09b30670b402a9
:1046c00007bef00028021bf04cff784c05577e73a4
:1046d00003aabe71562841e557beb032403a05568e
:1046e00080337e9007ac9e493404147404acbd59e9
:1046f000350dee4934041659350df07e7303a9be0d
:10470000715678087eb303aaf5568009e556beb007
:1047100001280215567557000be0bee00a6802c179
:104720004cda79dad8227ea304a3bea0003834bec6
:10473000a304a250197eb304a7beb30ded28147ec6
:10474000b30ded047ab30ded7aa304a28005e47aeb
:10475000b30ded7eb304a2700a7eb304a654fe7ab4
:10476000b304a6221247787ab30de574ff7ab30d2d
:10477000dd74017ab30de62274037ab30ddee42210
:10478000124a39cad8ca797e340385125a8f7e34c8
:104790000379125a8f6c7780220a27096204f71274
:1047a00049e5930a2b196203790a27096205181251
:1047b00049e5930a2b196203850b707e6304bebc26
:1047c0006738d67e7304bf7a7303917e7304e27aee
:1047d0007303927e7305037a730393740a7ab303a7
:1047e000947e7304c17a73039574107ab30397e4cb
:1047f0007ab303996d776c7780150a271249e59390
:104800007e24000160053e241478fb4d720b707eff
:104810006304bebc6738e37d375e340001780e74f4
:104820000f7ab3039a74ff7ab3039b800c0a3e7a23
:1048300073039a7c7f7a73039b740a7ab303967e20
:1048400073052c7a73039874017ab3039c74fc7a11
:10485000b3039d74817ab3039e74ff7ab3039f748c
:10486000147ab303a074eb7ab303a11248a87cdbdb
:10487000741212488b7c7b5e70fc0b717412120fe9
:104880000aa9c5cb7cbdda79dad8221249de448088
:10489000f5d6e5db30e3fb53dbf375d600e5db3023
:1048a000e3fbe5d643d70422a9d5cb7e340379caee
:1048b000797d73e4124a2309b70018124a2d740156
:1048c0001248f9124a157003e4802b74147e707f2d
:1048d0001249fe7003e4801e7d377d272e24000cd4
:1048e0001249117d37120f28e41248f91249f1607c
:1048f0000474018001e4da792260057ea00a800256
:104900006caae5dc54e00a2b0a3a2d327cb7f5dcc0
:1049100022ca3b7d727d636d337a352ae47e352a67
:104920002d367e3970121fd47a352c7e352a4d33c0
:10493000780a7e352c4e3420007a352c7e352c12a8
:1049400049a9be34000c78d47e34000c7a352a7420
:10495000c06c771249abbe34002478f36d337a35de
:104960002a7e352a3e342d377e39b0097300011274
:104970001fc67a352c1249a9be34000678e3759d0e
:1049800000759e006d337a352a7e352a7d232e24cc
:10499000017f1249e993f59f0b347a352abe340121
:1049a0000040e6759d01da3b220a561249b77e3572
:1049b0002a0b347a352a221249def5d6e5db30e3bc
:1049c000fbe5d6f55a53dbf37a71d6e5db30e3fb32
:1049d000e5d6f55b53dbf343d7047e355a2253d734
:1049e0000353dbf3222e24027f7a51827a4183e43f
:1049f00022e46c771249fe6003740122e4227c6792
:104a00007cab120f0a7cba12488b7c7bbc677803a4
:104a1000740122e422e47e70031249fe60037401f3
:104a200022e422700453dbbf2243db402275ca001c
:104a30000a5b3e540b54f5ca22124b2e7a730b209c
:104a40007e7304bd7a730af37e7304be7a730af42c
:104a50007e2404cd7e340af7124aaa6caa80110a79
:104a60003a2e34027f1213650a4a19b40b0c0ba0bc
:104a70007eb304bebcba38e77e7304c07a730b18e9
:104a80007e7305037a730b197e7304c17a730b1a54
:104a90007e7304c17a730b1b7e7304c17a730b1c83
:104aa000e47ab30b227ab30b23227e3304bd0a13bc
:104ab0000203816caa0a3a09b304e20a4a19b40350
:104ac000b809b3050319b403cd2e340006121365db
:104ad00019b403e20ba0bea01578da74027ab3030e
:104ae000b47eb3052db40104743f8002747f7ab3a1
:104af00003b07e34012c7a37040d74c87ab303b640
:104b0000e47ab303b774eb7ab303b2121582745d1f
:104b10007ab303b37e7304bd7a7303b57e2404cde8
:104b20007e3403f7124aaa74c87ab3040f22e47ad7
:104b3000b30b1e74017ab30b1f7e730528226caa77
:104b40007e3004ac3a7df12ef402b57ee400ff0b1a
:104b50007a20bd23380f2e1402b77e0400ff0b0a03
:104b600020bd2350070ba0bea00340d47cba22caac
:104b7000796c9980637ef007acf949c70416bec40e
:104b8000051e404449d704147d3d124b3e7c8bbe2c
:104b90008003400e7ed404ff7407acb959d50416c7
:104ba000803e7e7002ac782e3402cd7e2400ff0b56
:104bb0001ad07407acb959d504147e34053e740775
:104bc000acb959350416800ebec4050040087e54a9
:104bd00004ff595704160b907e7304a2bc793895d4
:104be000da7922caf87e1406d27e0408ca9f116cb4
:104bf000aa802d7e900cac9a6cff801a7df43ef456
:104c00007def2de00be8e02df10bf8f02dfe6deec1
:104c10002f170b440bf07eb30af4bcbf38de0ba099
:104c20007eb30af3bcba38cbdaf822ca3b7ef30073
:104c3000d96cee80447402acbe09b5006cf5287ed8
:104c4000d0016ccc802dbcce68277402acbc097539
:104c5000006c7a71290a27e5280a3b9d321200462a
:104c6000be34000218020bd0bed002400474018092
:104c70000d0bc0bcfc38cf0be0bcfe38b8e4da3b0f
:104c800022ca797c4b7e1408ca7eb300d97c5b7043
:104c900008a5bc0104f515c14d7002c14d7eb304d9
:104ca000a36002c14da5bc00028002a158f5166c9c
:104cb000aa6c776c667c1a2e1029e4a5f77c1a2e54
:104cc000103ea5f77e900cac9a6c447d043e042dfa
:104cd000010b08f0bef4003208040b7080026c7700
:104ce000124e50bcb750047cb7a5f7bef4001408b0
:104cf000040b6080026c667c1a2e103ea5e7bcb6e1
:104d000050047cb6a5f70b440b40a5bc0cbd0ba012
:104d1000bea015789c6caa124e50beb00228244c3e
:104d2000aa7807124e58501b8016bea0147807129e
:104d30004e63500f800a124e635008124e585003b3
:104d40007516010ba0bea01578cde516b401028042
:104d500002c14d750805c14de508b405028002c1c8
:104d60002c6d446c44c1267e1002ac140930006bdb
:104d70001e3009b0006c1eb0f5280a031b047c71bc
:104d80008048e5280a0b7df01bf47d7f7c6f802e28
:104d9000bc376828be70004823be7015581ebe6020
:104da000004819be600c58141ad63ed41ae77ef497
:104db0000018adfe2dfd49ff08ca2d4f0b607de0a8
:104dc0000be41af6bdfe08c80b700ae30be41af7f1
:104dd000bdfe08ae7d740a7e7e230d270af2bdf764
:104de00050067c2f7a230d27be4400c82804e51600
:104df00060097eb3006b1eb0b41424e515beb06428
:104e0000500205157e230d28be21155006e5157aa2
:104e1000b30d28e515beb0054012750804800d7568
:104e200015006d440b40bc542802a1677eb30d29c8
:104e3000beb1085006e5087ab30d29e508600ee515
:104e400008beb00550021508e47ab300d9da792219
:104e50007c1a2e1029a5e7227c1a2e103fa5e7be4a
:104e6000b002227c1a2e103da5e7beb002226caa29
:104e70000a3a2e34001e1213650a3b0b3480146d5f
:104e8000447e3002ac3a7e5018ac572d215942086e
:104e9000ca0b70be701540e70ba0bea00c40d1221b
:104ea000ca3b7e7404bd6d661214777a79b00b74b8
:104eb0000b64be64016d40f0da3b2274167ab30cc9
:104ec000ed743c7ab30ceee47ab30cf074067ab36a
:104ed0000cf174a07ab30cf274017ab30cf3740a77
:104ee0007ab30cf4740b7ab30cf574147ab30cf631
:104ef000125a26740a7ab30d1074017ab30d11e4b4
:104f00007ab30d1274317ab30d131217f874517a03
:104f1000b30d15e47ab30d167ab30d1774017ab395
:104f20000d1c74c87ab30d1b74057ab30cfd7403a1
:104f30007ab30cfee47ab30d1f74967ab30d207425
:104f4000507ab30d21744b7ab30d2574027ab30de8
:104f5000266d337a37036974017ab3036be47ab34d
:104f6000037274097ab3036d740b7ab3036e74140d
:104f70007ab3036f74147ab30370740a7ab303714b
:104f800074017ab303737e34005a7a3706b174160b
:104f90007ab306b37e34003c7a3706b474107ab321
:104fa00006d174027ab306c474027ab306c5e47af1
:104fb000b306c974147ab306cae47ab306c67ab3e0
:104fc00006be74037ab306bfe47ab306c074047aeb
:104fd000b306c17e3400647a3706c27e3400967a06
:104fe0003706ba74507ab306bc740a7ab303a27e49
:104ff000340a007a3703a374a07ab303a57e340081
:10500000c87a3703a674057ab303a974037ab30385
:10501000aa7e34012c7a3703ab74027ab303ade471
:105020007ab303a87ab30cf87e7305287a730cf769
:105030007e73052b7a730cfa7e73052c7a730cfb46
:105040007ab30cfc7e73052d7a730cf9227e240c46
:10505000ed7eb30d6d20e002217754fe7ab30d6d25
:105060007e2970be7306b3680e7a7306b30a373ea4
:10507000343e347a3706b1097200010a37be37066a
:10508000b468047a3706b409720005be7303a568d4
:105090000b7a7303a5121bf27a3703a30972002e51
:1050a0000a37be3703a668047a3703a609720025bb
:1050b0000a37be37036968047a3703690972000644
:1050c000be73036b68047a73036b09720008be73c6
:1050d000036e681f7a73036ebe700f4005e419b249
:1050e0000008097200080a372e3403a81213657ae3
:1050f000b3036d09720009be73037068087a730305
:10510000707a73036f09720007be73037168047ac3
:1051100073037109720024be73037368047a730306
:105120007309720032be7303a868047a7303a80976
:105130007200330a37be3706ba68047a3706ba09ee
:10514000720034be7306bc68047a7306bc7e3703f3
:10515000ab0e340e347c6709720038bc76680a0adc
:10516000373e343e347a3703ab09720039be7303dd
:10517000ad68047a7303ad227c7b146842146844e2
:1051800014684414684114683e14683b1468381469
:10519000683514683214682f14682c146829146850
:1051a0002614682314682024c368281bb16833249c
:1051b00064682514682724eb782d7eb30ce9227ee1
:1051c000b30ce62274ff220a372e3404bd9e34004d
:1051d0000380387eb304ca227eb30de6227eb30d6f
:1051e000dd227eb30528221206d5540712527d7c9b
:1051f0006bbe70104019be703838147428acb60af3
:10520000372e370ce49e3400102d357e39b022be87
:105210007050400fbe7063380a1252762d3509b3b4
:10522000047d22be7078400fbe708b380a12527611
:105230002d3509b3046a22be70a0400fbe70b3388a
:105240000a1252762d3509b3045722be70bf400fa3
:10525000be70d2380a1252762d3509b3044422beec
:1052600070d3400fbe70e6380a1252762d3509b35e
:1052700004452274ff227414acb60a3722b4040227
:10528000e422b40603740122b40703740222e42268
:10529000ca7bca6bca5bca4bca2bca1bca0bc0d01b
:1052a000c083c082e5ccb4020375cc001206313055
:1052b0009002c290309102c29174017ab30ce2d094
:1052c00082d083d0d0da0bda1bda2bda4bda5bda56
:1052d0006bda7b32cab8a9c093e47ab30ce11252fc
:1052e000e4dab8327ab30ce37ab30ce222ca3be4d4
:1052f0007ab30d966cee7ea0ff7e7007ac7e19a38c
:10530000062e74ff0a3e19b30d827e34ffff74022d
:10531000acbe59350d6ee4125503bee00a78d77e57
:10532000b306ac70167eb306ad7002817c6cee12d3
:1053300055250be0bee00a78f6817c7eb306ad70a1
:105340001c6cee801112550cacbe12551819e306f8
:105350002e74011255031254f538ea817c6cee80ec
:10536000486cff7402acbf492506987407acbe12a6
:105370001fba7402acbf492506847407acbe121f65
:10538000b12d367a35287402acbe49450d6ebe4546
:1053900028280d0a4e19f40d827e352859350d6ed8
:1053a0000bf0bef00a78bc0be01254f538b36cee8b
:1053b000807674017ab30d966cff8031bcfe682b49
:1053c0000a3f09630d820a2e09720d82bc76781b92
:1053d0007402acbf49250d6e7402acbe49350d6e2a
:1053e000bd324007e47ab30d96800a0bf07e730657
:1053f000acbc7f38c77eb30d96b4012a74010a3e57
:1054000009a30d820a4a19b40d8c7e9007ac9e192f
:10541000a4062e4934062a7402a459350684493458
:10542000062c593506980be01254f538856cee8041
:10543000327407acbe09b5062eb4ff256cff0a3fd7
:1054400009b30d8c7014740119b30d8c12550cac8a
:10545000bf12551819f3062e80070bf0bef00a4054
:10546000dd0be01254f538c96cee0a3e09b30d8c21
:1054700070031255250be0bee00a78ee7ef306ac11
:105480006cee0a3e09b30d8cb401300a3e09b30636
:105490007ab4010874030a3e19b3067a0a3e09a3d6
:1054a000067abea0037809e40a4e19b40670802f6c
:1054b0004caa782b74021254fc80240a3e09b306cd
:1054c0007abeb0026802701274011254fc7caf0bf9
:1054d000f07407a419e5062e800574031254fc0a23
:1054e0003e097306700a2e1972067a0be0bee00ab6
:1054f0004090da3b227e7306acbc7e220a3e19b392
:105500000670220a3e19b30d8c0be0227e7007aca8
:105510007e4923062a740222592506844923062c33
:1055200059250698227e347fff7402acbe59350699
:105530008459350698226caa74030a2a2d2319b2bd
:10554000005074030a2a2d2319b200467e24ffff5f
:105550007e3002ac3a7d012d035920005a2d13599b
:1055600021006e0ba0bea00a40cee419b300821940
:10557000b3008322ca796cee7ef1cc800a4cee78bf
:10558000037ee0014387011209fe60f17af1ccda73
:1055900079227003438701b40103438702b40203f5
:1055a00043870222c2ec32a9c6db22ca7bca6bca7d
:1055b0005bca4bca2bca1bca0bc0d0c083c08212a5
:1055c00015787eb30ce954fd7ab30ce9d082d08310
:1055d000d0d0da0bda1bda2bda4bda5bda6bda7b58
:1055e0003275cbc075c8b814680a14680c0bb17555
:1055f000cc00800875cc02800375cc01000000004f
:1056000022a9c6eba9d6aca9d6ecd28622759ae817
:10561000a9d199d29ca9d6df22ca796cff0a2f2e74
:105620002403b812568c0bf0bef01578f07e3402cd
:10563000587e240af37e1403b0121e197e73029b57
:105640000a3709e302640a3e09b3025c1215865365
:10565000dbf0740e7e7002120f0a0a3e09b3028c50
:10566000b40104743f8002747f7ab303b0120ad588
:105670006cff0a2f2e2403b87e29702e73052b7a17
:1056800029700bf0bef01540e9da79227e29709e70
:1056900073052b7a297022d2c9c2af75f100125658
:1056a000ab75f503a937f5fc020779f5f275f380c0
:1056b00075f40022d203a9c1dbc2c353dbbf326c35
:1056c000776d22800e0b70a5bfff020b24be240352
:1056d000e868033003efc20353dbfe53dbfdc2eb8c
:1056e000227d2374307ab30d0e74f87ab30d0f2e29
:1056f0002403f06d116d557d013e042d031b0850f0
:1057000074ff7d011e041e041e042d027a09b00bd5
:1057100014be1400fc40de22ca3b7d0209b0041313
:105720007cab09510013094100147003025845b4c1
:1057300004063e503e503e507d407d102e1401f830
:105740002e0403f06cff02583b7ed00cacdf7df6dc
:1057500075280002582dbea00378080ac57ddf3edb
:10576000d48016bea00278090ac57ddf3ed4025857
:105770001fbea005780d125a002dd40bd8e02decd9
:10578000025826bea00678707def5ee400072ee486
:1057900003cb1259e77ddf1ed41ed41ed42dd07e3c
:1057a000d9b05cbe683b7dcf3ec47ddc2dd10bd82b
:1057b000b00ad4bdbd08100a957dac2da40ba8d0ad
:1057c0002dd91ba8d080620ad46ed4ffff0bd4bda4
:1057d000bd58560ab52dc40bc8d09ddb1bc8d08060
:1057e000481259e77def1ee41ee41ee42de07ee939
:1057f000b04cbe7ae9b08031125a000ae4bdce083e
:10580000100aa57dbd2db40bb8e02dea1bb8e080d1
:10581000180ae46ee4ffff0be4bdce580c0ac52d58
:10582000d40bd8e09dec1bd8e00bf4052809b3009d
:1058300001beb12828030257560bf07e39b0bcbf19
:105840002803025749da3b22ca3b7d427df34921b6
:1058500000096d332ef401f87d5ff5b90a5af5bae7
:1058600075bb1475bc0a7ef40d6e7d5ff5bd0a5ada
:10587000f5c175c30009a4002f7cbac43354e07c81
:10588000ab09b400014cbaf5c37e49b0f5c475c587
:105890004075c501494100037cb9f5c61a58f5c6e3
:1058a0006e44ffff0b447d545e5400fff5c61a584a
:1058b0005e5400fff5c67cb5f5c60a54f5c675c240
:1058c00009800743c20100000000e5c230e7f4751b
:1058d000c20075c50c7e51c67ea1c66c4480297e6f
:1058e000f002acf449470d6e7d640a6c7cbd3eb09d
:1058f0007df72df07af9b03e907ef002acf47df7a2
:105900002df0199f00010b40bc5438d36c44802704
:105910007e9002ac9449f40d967d7f0a7e7cbf3e5a
:10592000b07de42de019be01b87d7f7cbf3eb02d77
:105930004019b401b90b40bca438d51950006e19f8
:10594000a001b712596d54fe7a39b075c50ae5c683
:105950000a3be5c60a2b2d320951000b0a15bd136f
:10596000500812596d44017a39b0da3b227d302e4d
:105970003400707e39b0227ab302987ab302997af1
:10598000b303667ab3036774017ab30368e47ab346
:10599000029d7ab3029e22741a7ab30528e47ab380
:1059a000052b74027ab3052c7401220e140e140e0a
:1059b000140e14227e3400017a37025822c2afd26c
:1059c000c9a9d5cb75fd0f75fe0f227e3408ca7aa2
:1059d000370dc1227e34052e7a370ae3220a3b9d19
:1059e000321200467cb7227d6e7ad1827ac183e47e
:1059f000937ceb227e34052e7e2401f8e40203988a
:105a00007ddf3ed47ded2de10be8c0227402a44978
:105a1000250274227e31437402ac3b7e51422274d3
:105a2000237ab30b212274ff7ab30d0d227e370a3d
:105a3000ec4d33227ab30b1ee47ab30b1f227ab3f8
:105a40000e1b7ab30e1a227e370258be3400012292
:105a50007e370258be340004227e730cfb7a730535
:105a60002c222e3708c47a3708c4222e3708be7a73
:105a70003708be222e3708b67a3708b6227e34039e
:105a8000e87a370529227e34000a7a370b24227ef1
:105a900024000ce40203982d10491108ca9d21220c
:105aa00074027ab30296e4227e7300d9be7001229a
:105ab0007e4400ff0b2a20225ab8a5477a8531512f
:00000001FF