:10000000021E6602B796EBAA08222202005AB40228
:1000100004A9B7EA2224FFA997EA22025938B402B8
:1000200004A9B6EA2224FFA996EA220279B37F60E6
:10003000A9C2EA74011212647F0612046B7F0602E1
:1000400008B822027A9CF5FDE5FE2202006A120F32
:100050003702124700000000000032020076010261
:10006000040810204080E4022B3E32020071B28668
:100070002232FF020EE7CA7BCA6BCA5BCA4BCA2B8D
:10008000CA1BCA0BC0D0C083C082D20A7E0F3A0AF4
:10009000693000047A733A1A7E733A1A0A375E346A
:1000A00000046804D2098002C2097E34001F79303E
:1000B0000004C2C3120FCD127DE67E1F3A0A6931D9
:1000C00000025E340040682E6CAA7E1002AC1A7EDC
:1000D0001F3A0A7F712DF06917009C59103A0E0BD8
:1000E000A0BEA00378E4691100A47A173A1669311A
:1000F00000A27A373A14A9C1C4D082D083D0D0DA12
:100100000BDA1BDA2BDA4BDA5BDA6BDA7B327D1334
:100110007E1F3A241B1A10C2C6D2EE22FFFF542CB7
:10012000CA3B7F3074011212AC297300EF2E70FFAE
:10013000920129B300F012127D7F03120BB87F03E6
:10014000120571297300060A377E0F3A0A793000CA
:10015000242973009F0A273E243E243E243E243E49
:10016000243E243E24693300FB4D327E0F3A0A7947
:10017000300002297300060A47297300010A579DBF
:1001800054F53529B300A1700B29B300F42973008D
:10019000F31209F3297300A12E70FF9201E53512C5
:1001A0000964693300F97E0F3A0A7930002869231F
:1001B00000F73E243E243E243E243E243E24297360
:1001C00000F60A372D327E0F3A0A7930002A297359
:1001D00000F50A377E0F3A0A7930002C7E34000190
:1001E0007E0F3A0A793000347E34010B7E0F3A0AD2
:1001F0007930002E297300010A377E0F3A0A7930D0
:100200000010693300A47E0F3A0A7930001C69336C
:1002100000A67E0F3A0A7930001E6CAA7E5002AC0E
:100220005A691300FD2D127E0400FF0B0A307E0F69
:100230003A0A2D12793000440BA0BEA00C40DDDA42
:100240003B22CAF87F507CFB7E3400247E08002CC1
:100250007E240002125AC2E52CBEB0003802416C66
:10026000E52CBEB0142802416C7EF12CBEF014388F
:1002700002419A7E341E04793500027E341DE879ED
:10028000350004BEF0816802419374237A5BB07438
:100290001C615D74017A5BB0615D7CBF14BEB015FA
:1002A0004002612B7EA003A49002AC730202ED0217
:1002B00002ED02032B0202ED02032B0202F3020203
:1002C000ED02030F02032B0202ED02030F0202ED07
:1002D00002032B02030F02032B02032B0203010272
:1002E00002ED02031D02031D0202ED41ED7E341DED
:1002F000D861137E341E04793500027E341DC96135
:10030000377E341DD8793500027E341D9961377EE1
:10031000341E04793500027E341DE861377E341DB9
:100320007D793500027E341DAD61377E341E04793F
:100330003500027E341DE8793500047E7003AC7F01
:100340007D232E241E287A51827A4183E4937A5B9E
:10035000B02E341E297A71827A6183E49339B50014
:1003600001DAF822CAF87F707E7BF029770001BCA1
:100370007F28027CF7691700066D007E3400F27456
:10038000FF121F6B7F07120D92A9D6CB6CAA802D8E
:100390006C77801F7E100BAC1A0A172D013E046982
:1003A0001700062D106D000B0A206E24FFFF1B0A9C
:1003B000200B7029670001BC6738D90BA07E7B60D9
:1003C000BC6A38CC693700067E0F33FC79300004F4
:1003D0007C4F6C550A3F2D327E0F33FC7930000C78
:1003E0006D117E1F33FC1B1A107E3400D0120DEAF3
:1003F0006CAABEA00450187E7004AC7A7CB77E1F35
:1004000033FC6941002660421E441478FB803BBEE9
:10041000A008501B0A3A1B363E343E347CB77E1F80
:1004200033FC6941002860221E441478FB801B0ABB
:100430003A9E3400083E343E347CB77E1F33FC695C
:1004400041002A60051E441478FB5E44000F7E5074
:1004500002AC5A693700062D326D221B1A400BA0E0
:10046000BEA00B408DA9C6CBDAF8222970009229D4
:100470009000942960009329800089BE800438048C
:100480006CAA8021BE800838057EA0018017BE803E
:100490001038057EA002800DBE802038057EA003A6
:1004A00080037EA004BE900328037E9003BE803F9D
:1004B00028037E803FBE600128037E6001BE70027B
:1004C00028026C770A283E243E243E243E243E2403
:1004D0007C896C993E443E443E442D420A263E248B
:1004E0003E243E243E242D240A373E343E342D3211
:1004F0007E7F3A247937000229B000887C4B6C5506
:1005000029B000870A3B2D327E7F3A02793700807E
:100510006930009C7E7F3A247937000C6930009A5C
:100520005E34E00F29B000880A2B1B243E243E24B1
:100530003E243E242D327E7F3A02793700820A2AF9
:100540003E243E243E243E2429B000950A3B2D3211
:100550007E7F3A2479370006693000987E7F3A24FE
:1005600079370008693000967E0F3A247930000A06
:10057000227F6074011212AC293600F12926009FF7
:10058000291600A0BE200228037E2002BE104028AB
:10059000037E10407E3400047CB260053E34147843
:1005A000FB7C070A317E2F3A0A793200127C73AC49
:1005B000700A21121C647C270A327E2F3A0A793293
:1005C00000147C73AC70292600F20A22AD320A2195
:1005D0008D327D437C73AC700A21121C647CA77C35
:1005E0002A7CB92CABBEA00C50037EA00CBE200C04
:1005F00050037E200C0A200A31121C647DE30A3A63
:100600000B34AD3E0B34BE34020040047E3401FF97
:10061000294600F37E5002AC450AF2ADFE2D2F0BA9
:1006200024BE24020040047E2401FF0A137E7F3A88
:100630000A7917000A1E247C456C551E342D327E23
:100640000F3A0A7930000C0A3A7E0F3A0A793000E4
:1006500022227F21A9D6CB693000047E7F33FC792A
:10066000370004693000087E7F33FC793700066963
:100670003000067E7F33FC79370008297000017C4A
:10068000476C557E0B700A372D327E7F33FC7937ED
:10069000000C297000020A371B347E7F33FC793747
:1006A000000A6930000A7E7F33FC7937000E69301A
:1006B000000C7E7F33FC793700106930000E7E7F9E
:1006C00033FC79370012297000037C276C337E1FBE
:1006D00033FC1B1A107E3400A0120DEA7E1F33FC7F
:1006E0006911001A7A2B306911001C393200016936
:1006F00011001679120002691100187912000469BC
:10070000110022791200066911002479120008698B
:1007100011001E7912000A693100207932000CA9FB
:10072000C6CB22CA3B7C577C4B5E40036930000439
:100730005E603F6CAA0A4A69F0000A69E000082D71
:10074000F47E7BB00AFB7D4F7C896C997DF40AEACC
:1007500069D0000E69C0000C2DDE7E6BB00A4B2DF7
:100760004F7ED028ACD57EF002ACFA7DD72DD67E58
:10077000F0F0ACF42DD77E7F3A202DFD7947018C27
:100780000BA0BEA00E78AE6CAA7E9002AC9A69F067
:1007900000020B0AE02DF40B7A407ED028ACD57E07
:1007A000F002ACFA7DD72DD67EF0F0ACF42DD77EDA
:1007B0007F3A202DFD794701800BA0BEA00440C9DF
:1007C0007E90F0AC947428ACB57DF52DF47E2F3A74
:1007D000202D5F79320188693000067E30F0AC341C
:1007E0007428AC5B2D217E0F3A202D127930018ABE
:1007F000DA3B2274017AB3372E22F5FD7A71FE229C
:100800007C7B7E7F3A0A6947000C6C883E4469070E
:10081000000A695700021E541E541E541E541E54D2
:100820001E541E545E5400037E14000470020135F1
:100830003E141478FB7CA30ADAADD07DCD6D11791E
:1008400017008C7CB77002014E1ED41478FBBED406
:1008500001003802015C7ED401000168BED40010A2
:10086000400201687ED400107D3D12116A0A1B7E91
:100870001F3A0A791100907E1F3A0A79D1008E7EC4
:100880007F3A0A69370008AD3C8D3D793700927E8A
:100890001400067E1F3A0A791100947D249D200AD7
:1008A0003AAD327E0F3A0A793000967E3400107EDF
:1008B0000F3A0A7930009822CA79297000070A276E
:1008C0007E0B700A372D326D446CAA7E5002AC5AF2
:1008D0007E7F3A022DF2794700020BA0BEA023785A
:1008E000EA6CAA804F0A2A7F702DF229670048BE61
:1008F0006023501D29B700B07C8B6C997E5002ACF0
:10090000567E7F3A022DF20BF50B7A204D241B7A8E
:10091000200A2A7F702DF229B700480A4B7E500228
:10092000AC5A7E7F3A022DF20BF50B7A204D241B38
:100930007A200BA0BC7A38AD6CAA801D0A3A2D3102
:100940007D2029B1006B0A4B7EF002ACFA7E1F3A83
:10095000022D37794100480BA029B00001BCBA38FC
:10096000DBDA79227C5B7E0F3A0A69400022300193
:100970006B6DFF7D3FBE5010282E7E54FFFF7950D7
:1009800000429E50106CAA80117EE400017CBA6087
:10099000053EE41478FB2D3E0BA0BC5A38EB7E6F6D
:1009A0003A0A79360040802579F000406CAA80111F
:1009B0007EF400017CBA60053EF41478FB2D3F0BF9
:1009C000A0BC5A38EB7E7F3A0A793700427D342E3C
:1009D00034000C7E7F3A0A79370016226D33793065
:1009E00000407E0F3A0A793000427E1F3A0A794170
:1009F0000016227C177C3B6D337E2F3A0A79320039
:100A0000407E2F3A0A793200427E7F3A0A695700C7
:100A1000127CAB693700021E341E341E341E341E95
:100A2000341E341E345E3400037CB77E4400046000
:100A3000053E441478FB7C290A220A3A121C640AF7
:100A4000232D327CB77C616C770A0B1E042D037951
:100A500007000C7C73AC720A2A121C647E0F3A0ADF
:100A6000793000166D337E0F3A0A7930002222A9C0
:100A7000D6CB693000067E2F33FC79320004693012
:100A800000087E2F33FC79320008297000027C4771
:100A90006C55297000030A372D327E2F33FC7932D2
:100AA000000C7E0B707C47297000010A372D327EC6
:100AB0002F33FC7932000A297000040A377E2F3365
:100AC000FC7932000E29B0000554017C2B6C337E7A
:100AD0001F33FC1B1A107E3400C0120DEAA9C6CBCE
:100AE00022CA797CAB5EA0036C777E5002AC57695A
:100AF000D0000E69C0000C2DD2296600010AF67DD7
:100B00004F7C896C997DF47E6B600A462D4F7EF098
:100B1000F0ACFA2D277E7F3A202DF2794702540B54
:100B200070BE700E40C4694000047EF0F0ACFA7EE6
:100B30001F3A202D37794102506930000674F0A425
:100B40007E0F3A202D1579300252DA7922A9D6CBC0
:100B5000C218693000047E2F33FC793200046930FA
:100B600000067E2F33FC79320006693000087E2FA4
:100B700033FC793200087E0B707C476C552970007D
:100B8000010A372D327E2F33FC7932000C29700098
:100B9000020A377E2F33FC7932000E29B00003544D
:100BA000010A5B7CABE47E1F33FC1B1A50693000EA
:100BB0000A120DEAA9C6CB22693000AA7E2F3A0A92
:100BC00079320006295000A20A557D231E249D2556
:100BD0007E2F3A0A792200187D231E241B257E2FA2
:100BE0003A0A79220038692000F91E349D329E3479
:100BF000000A7E2F3A0A79320026297000A30A37AC
:100C00007E2F3A0A7932001A297000070A277E0BD4
:100C1000702D327E2F3A0A793200080208B8A9D620
:100C2000CB693000047E2F33FC7932000469300038
:100C3000067E2F33FC79320006693000087E2F33A0
:100C4000FC793200087E0B707C476C5529700001DE
:100C50000A372D327E2F33FC7932000C29700002C6
:100C60000A377E0F33FC7930000E6D117E1F33FC86
:100C70001B1A107E3400E0120DEAA9C6CB22CA3B33
:100C8000F5247F417F30E5257E080026120242E5EB
:100C900024BEB02328037524236CAA80360A3A2D7B
:100CA000397D287E1BB0BEB126400D74230A4A7FD1
:100CB000032D147A0BB080197E1BB00A3B2E352809
:100CC0007A71827A6183E4930A4A7F132D347A1B06
:100CD000B00BA0E524BCBA38C4DA3B22A9D6CB6954
:100CE0002000047E2F33FC79220004692000087E56
:100CF0002F33FC792200087E0B500A557CABE42987
:100D00005000010A252D257E2F33FC7922000C2965
:100D10005000020A257E0F33FC7920000E7E0F332F
:100D2000FC7930000A6D117E1F33FC1B1A107E34D3
:100D30000040120DEAA9C6CB227CAB7E3400017EB6
:100D40000F3A247930000EC217E47AB33A1F5EA03E
:100D5000030A1A3E147E1F3A021B1A107E0F3A0233
:100D60002E1400840B0A304E70201B0A30740112BE
:100D700012247E0F3A240B0A304E700C1B0A30A945
:100D8000D3CD7E0F3A240B150B0A304E70011B0A8F
:100D900030227F10A9D6CB691100027E2F33FC7957
:100DA000120004691100047E2F33FC7912000669D9
:100DB0001100067E2F33FC791200087E1B300A03D7
:100DC0007E140100AD10297100010A372D317E0F0C
:100DD00033FC7930000C6D117E1F33FC1B1A107E22
:100DE000340060120DEAA9C6CB22A9D7CB7D234ED1
:100DF00050017E0F33FC0B0A304D321B0A30801E2F
:100E00007E0F33FC0B0A307D235E240008BE2400D5
:100E100008780BA9D7CB4E70041B0A30D2187E0F6E
:100E200033FC0B0A307D235E248000BE24800078D2
:100E3000CF4E60401B0A306D117E1F33FC1B1A1011
:100E400022CA3BF5247F417F30E5257E080026122B
:100E500002426CAA80360A3A2D397D287E1BB0BE2C
:100E6000B127400D741C0A4A7F032D147A0BB08001
:100E7000197E1BB00A3B2E352A7A71827A6183E48F
:100E8000930A4A7F132D347A1BB00BA0E524BCBA19
:100E900038C4DA3B22CAF87DE27DD37CFBBE300148
:100EA00028067EF40010800FBE300028067EF40075
:100EB0000880047EF400047D1F6D006D337E2400E5
:100EC00010121D037F017D3D6D22121C967D1E12A6
:100ED0001CB07404ACBF7E0F3A0A2D157930008225
:100EE00079200080DAF822CA7BCA6BCA5BCA4BCA77
:100EF0002BCA1BCA0BC0D0C083C082D2177E0F3A48
:100F0000240B0A307C577A533A1F4E700C1B0A3060
:100F1000C2C66D337E0F3A247930000E120FCD1207
:100F20007DE6D082D083D0D0DA0BDA1BDA2BDA4B15
:100F3000DA5BDA6BDA7B327403121224A9D1C47E35
:100F40000F3A022E1400840B0A304E70201B0A3018
:100F50007E1400017E1F3A021B1A107E0F3A0A0B04
:100F6000160B0A304E70011B0A30C20AE47AB33AFB
:100F70001A7E1F3A020B1A305E34000178F37402B5
:100F80000212247C6B6CAA80177E9002AC9A7E7F42
:100F90003A202DF40B7A207F702DF41B7A200BA0C1
:100FA000BC7A38E56CAA80207E5002AC5A7E7F3A2B
:100FB000202DF2692700380AF70A4A2D4F3E447F58
:100FC000702DF41B7A200BA0BC6A38DC227E0F3A0D
:100FD000022E1400840B0A305E70DF1B0A3074038B
:100FE0001212247E1400037E1F3A021B1A107E1F69
:100FF0003A020B1A305E34000178F3E4021224FF47
:10100000CA797CAB5EA0036C777E5002AC577F60E0
:101010002DD2296600010AF67D4F7C896C997DF4FA
:101020007E6B600A462D4F7EF0F0ACFA2D277E7F56
:101030003A202DF2794702540B70BE700E40CADA86
:101040007922295000F1AC5B7E0F3A0A6930000C1E
:101050000A563E54BE24020040047E2401FFBD25F2
:10106000281F2E14000C6C661B0A301E247C456C55
:10107000557E0F3A0A2E14000C0B0A304D321B0A13
:1010800030227C6B6CAA7E5028AC577E9002AC9AC2
:101090002D427E50F0AC562D247E7F3A202DF269F1
:1010A00027018C6C440A4A7F602DD47E6BB07C8B08
:1010B0006C994D247927018C0BA0BEA00E40C7224D
:1010C0007C6B6CAA7E5028AC577E9002AC9A2D4265
:1010D0007E50F0AC562D247E7F3A202DF2692701F8
:1010E0008C6C550A4A7F602DD47E6BB00A4B4D2420
:1010F0007927018C0BA0BEA00E40C9221259647C36
:101100006B12B9D27C7B6CAABE60156804A5BF15B2
:1011100022BC7668057EA0F1800B12BB39BEB051AF
:1011200068037EA0F27CBA12BB344CAA6805125F39
:10113000CB80FE22A9D6CB543F5E701F7C2B6C3334
:101140003E143E142E1400050A373E343E343E341D
:101150003E343E342D317E0F33FC793000027E0F59
:1011600033FC79200014A9C6CB227D236C667E3027
:1011700002AC362E141F1C7A31827A2183E4930A42
:101180001BBD1228070B60BE601440E27E7002ACEB
:10119000672E341F1D7A71827A6183E493222E3484
:1011A00004007E0F3A0A793000607E3404009D32DC
:1011B0007E0F3A0A793000627E3400017E0F3A0ACF
:1011C000793000640A3B7E0F3A0A79300066227C4F
:1011D000A5BE34000028100A1B3E147D237C456CFC
:1011E000552D210A3A80080A2B3E247C676C772D06
:1011F000327E0F3A2479300004227CA77E1F3A0207
:101200006941008A5E44100F0A1A3E143E143E14CF
:101210003E140A5BC42354E07CABE42D514D457968
:1012200041008A227E0F3A02693000845E70E71B1B
:10123000B1680C14680C0BB178054E701080034E29
:10124000700879300084227E34001F7E0F3A0A79BC
:10125000300004A9D2CD7E0F3A0A0B0A304E70013D
:101260001B0A3022BEB000280AA9D7CAA9D3CBA92D
:10127000D2CB22A9C7CAA9C3CBA9C2CB2230010AAB
:1012800054030A3B2E34020080026D337E0F3A0A6B
:101290007930003A227E0F3A026930008A60054EAA
:1012A000601080035E60EF7930008A22BEB00028B3
:1012B00009A9D6CAD2CDA9D1CB22A9C6CAC2CDA965
:1012C000C1CB227E34000F7E0F3A0A79300004C26F
:1012D000C3D2EB22060E151A1F262B2D2E2F2C2AD9
:1012E000241F1A140F080303060B10151C22282DA7
:1012F00034393D400E0300000003080C11161C2376
:101300002B32373C40454A4D4C4B4A4846464545B2
:101310004444434445786555020D141B21252B3167
:101320003736332D282019140D080102050B10182B
:101330001E232A30353A3E3F000101000000000024
:101340000104090F151D242A30353B3E3F403F3E26
:101350003D3D3C3C3B3B39371A2D65551B29271E2B
:1013600014111A262E373D3F3D372E21160C05014C
:10137000000001030A131D262E33383A16212B32A2
:10138000302A272A2F2D241A1007010002071019CE
:10139000232D3641494C4A453C342A27517150553A
:1013A0002812111823292B2A2E353C3E3F3931288B
:1013B0001E150E0603010000030C16202B323739D0
:1013C000202932373128212A312D231B130801000F
:1013D00001050C182029343E474F504D453C34310F
:1013E00026CB50551D2F2C251A1B202931312E2D8F
:1013F000353D3F3D382C22150D0601000106101B1E
:10140000242F383D0D1B273132281E14151D28317D
:10141000342A1F14090100040D17212C35404747B9
:10142000443C34301B825055192E2A1F181B222D84
:10143000302E2E353D3F3D3A2F24180F0701000076
:10144000030B161E29323A3D111F283230261B1479
:101450001C252E352E23191104000108101C2530DF
:101460003840423F39322C27C0D15055182C291E04
:101470001413161E29302E2C2B373D3F3E393025B4
:101480001B100801000209131F2D383C111A232FCD
:10149000332920160E131D283231281E160B020088
:1014A0000108121E29333B3F3C322926306E50552D
:1014B000162B24170D0A0E15242825232B363B3D09
:1014C0003B372B20150B040000030E1927333D3F3B
:1014D00013212E373A31271C131C28343E372D2276
:1014E000180C0100030D1825313C474842382E2ABC
:1014F00031625055352E27221F1B16100C0806048A
:10150000020000000103060B0E12171D22262A30CE
:1015100035393D3F0000010406080B10161B1F2340
:10152000282D32363B4044484A4B4C4B4A484643B0
:10153000403E3C3A3C9C345509171D262E373C3F13
:101540003B332B221A110B05030101000000010699
:101550000A1119222A32393D30302F2C261E170D40
:1015600005000001060E151E262C323A4148505B3C
:10157000616464605B56514FD82C3355261C191892
:101580001818181818181717150F0904010000006B
:101590000001040B12181F2831373C4001070E14BC
:1015A0001C232C343E444C545B605D554F49433DF5
:1015B00038322B26221F1E1C1C1C1C1D6654745501
:1015C0003E2C211D1D1D1D1D1D1D1D1D1D1D1E1E15
:1015D0001D1A110C07020000030A121C232C3840AC
:1015E0000C00060F172229323B41474F555C6671AC
:1015F000793E766D645A524B42393533323231314D
:10160000F3DB745509070606050504040404030208
:101610000202010000000000030A10141B22282E01
:1016200034393D40000B11161B22282C333940461B
:101630004D52565C61686D737371717170706F6F2C
:101640006F6F6D6E798044551713121211100F0DC4
:101650000C0B0908070403020100000001040B1031
:10166000161D242931393D40000E161A1F24292E3B
:1016700033383E434750555962696E757CFF7D7C17
:1016800079736D68605A57565D08445500070B0D15
:10169000101216171718181919191C1E20222325A5
:1016A00027292B3032333538393B3D3F3E291F182F
:1016B0000F07060C121D252D363E3B352C26201912
:1016C000110A0303091018242C333A3E609B32554B
:1016D000000505050403020305070A0E11191B1C6A
:1016E0001D1C1C1D1F22252A3133353738393C403B
:1016F00000121C242B343C392F2921160F0D141EE7
:101700002A333127201810070A101A262F373D3F99
:10171000FB8F32552C231F19130C07030000000107
:10172000050A0F161D232A30363B3E403F3E3B380C
:10173000332F2B280901000103090E141B21272E2A
:10174000363B3E4141403D3A362F2B26201C161099
:101750000C0A090B36DC30551A090501000000029D
:1017600005090F161C222A3136393C3E3F3F3D38D1
:1017700030271F18120B0605071219222C363F4975
:10178000535C6366645F584C433D342B221B150B3E
:1017900004000001040B1318F10C3055182C3439D7
:1017A0003C3D3F3F3F3D3B36302A241C160D060191
:1017B00000000001010305090F171E240102080E95
:1017C000141A2128303740495055595C5C5851480B
:1017D0003F38312B251D17110A0401019DBF3055DB
:1017E000160702000000000104080E161F283038FA
:1017F0003C3E3F403F3F3D3B37322C251D160F0CF2
:1018000053463E352E27201A140D06010000030A08
:10181000131A20272D333A40484F54585A5A5857D4
:10182000C65530550701040A1018202A32383C3EAC
:101830003F3E3D3B393530272119120B060301008D
:1018400000000000321D12090501000001050D17FE
:10185000202A323B454E5863696B6A645D574F4797
:101860004038322F1AB5305521130C0805020100FB
:10187000000103080F171E242B32393D3E3F3F3D28
:101880003A363029211A161305090E141A22293066
:10189000383F474D51514F4D494239312B251E1785
:1018A0001008030000010305AF133055383F3D3ADF
:1018B000362E261F140B0602000000010205090E39
:1018C000141C232A34383A3B3D3D3D3D291A10096A
:1018D00004000001040C141C22282F373F474F56E8
:1018E0005A5B59564E4740373028221F2AA9305597
:1018F0003E3B38332B241D16100703010000000166
:101900000103060C151C23292F35383B3C3E3F3F75
:101910001F100A0600000002040C12181E252C35A8
:101920003C424A515656534E49403A332C251F1CCF
:10193000F9A230551F2B3135383B3E3F3F3D3A34FD
:101940002D27231D171009040100000103060A0FAB
:10195000151B202345423E38342D241C15110B063F
:10196000020000000103070D1218202830363C4207
:101970004748494A659D30551C2A33393C3E3F3F14
:101980003E3D3A352E28231C150F090401000001A5
:101990000104080D13191E22403E3A332F29221B41
:1019A00015100A050100000102050A11171C242A5E
:1019B00030353B4043444545CBC63055050304070D
:1019C0000A101721282E33383C3E3F3F3E3B38312A
:1019D0002921180F090401000000000026353D45AB
:1019E0004B5153524F4C46413B342E251E17110983
:1019F00003000002060C12181E242C31F4B63055D8
:101A00000A050505080F16202931363A3C3E3F3FAE
:101A10003E3C3A332D241C140F0804000000010240
:101A200035464E565D65686660574F473F372E25F1
:101A30001E161006020001050B151D282F39414501
:101A4000F0BC30550703030304070F172028303676
:101A50003B3D3F3F3D39362D251D160D0802000048
:101A6000010203052E3F4850595F6768635D524A83
:101A70003E352B2018100A03000001070E19222BF7
:101A8000313A4247EFC930553B3C3C3B39362F2772
:101A90002119110B05010000010204060A10161F8E
:101AA000262D33393C3E3F3F22313B41474D56596D
:101AB0005A5855514B433D35292018110903000050
:101AC0000103070F151B21262BA03055373837345B
:101AD0002D261C160E0904020000000102050A1042
:101AE0001720262E353A3C3E3F3F3E3E304049507F
:101AF000595E605D5650474139332A201A100A0555
:101B0000010000030810171F252F383C37C330553C
:101B10003B3D3D3B3832271C130E080300000001FB
:101B200003070B1218202831393D3F403F3F3E3E0E
:101B300033454E575D656C6A66635C534A40382E88
:101B4000251A110804000002091019212A32393E11
:101B500007903055392B241C150E0906050609106F
:101B60001922272E353B3E3F3D38322C261F1913B4
:101B70000B05010006000102060B11171D242A2F78
:101B800032343536373B41474E565D616465656397
:101B9000605C5754D14A46550001030507080A0BFB
:101BA0000C0E0F111214161A1E2224272A2C2E3165
:101BB0003336383A3C3E3F3F010E141B23282E3566
:101BC0003A40484F565D62615A534E47403B352D6F
:101BD00029221B17100905016D7D545500020305CC
:101BE00006080B10131617191B1D1F212222222273
:101BF0002325282E313436383A3C3E3F061720271D
:101C000030383E39322B251E1810090910181F26AE
:101C10002F363C382F271F180F080102C775315582
:101C200000000000010103080D121517181A1B1CF3
:101C30001D1D1E1F22272E35383B3D3E3F403F3E97
:101C400006151B23292F373C372E27201A130E1475
:101C50001A21272F383F3D352E262018110B03005F
:101C6000673F3155C2D57CB430E708B2D56E24FF4A
:101C7000FF0B247CB630E712B2D56E34FFFF0B3475
:101C80008D326E24FFFF0B2480028D3230D5066E1C
:101C900034FFFF0B34227D51AD037D027D21AD0564
:101CA0002D12AD352D21227D02AD31AD102D212219
:101CB0006D0074104D00780B4D2278278D317D1208
:101CC0006D22227D437D326D222F112D445002A5BD
:101CD0000FBF1040049F100B901478ED7F016D2210
:101CE0007D34227D417D138D247D022F004004BD73
:101CF0000440049D040B141478F17D237D317D1084
:101D00006D0022C2D57CB030E708B2D59F229F205B
:101D10007F027CB430E713B2D59F229F217F12123D
:101D20001CB29F229F207F028003121CB230D50676
:101D30009F229F217F12226CAA4D11681A1E54689F
:101D40000E0B38201B18200B350B151B5478F25046
:101D5000067E39407A1940226CAA4D11681E1E5425
:101D6000500C7E1B007A190068120B1C0B140B1A06
:101D7000001B18000B1D0B151B5478F222000102EA
:101D8000030405060708090A0B0C0D0E0F101112AB
:101D900013141C1D1E1F2021220405060708090A12
:101DA0000B0C0D0E0F101112131415161700010253
:101DB0000304050607080E0F101112131415160060
:101DC000010203041C1D1E1F20000102030E0F1040
:101DD0001112131415161718000102030405060743
:101DE000081C1D1E1F2021220001020304050607F6
:101DF00008090A0B0C0D0E0F1011121314151617EB
:101E000018191A1B000102030405060708090A0B2A
:101E10000C0D0E0F101112131415161718191A1B8A
:101E20001C1D1E1F20212200010101101C02101C7C
:101E3000000101040F1C000101061B0F070E1C0806
:101E400023150001010A10190B141C0C0F180001B6
:101E5000010E2315000101000101110D14121019CA
:101E6000131C10141A107584017E443FFFE47A4954
:101E7000B01B4478F97EF83A3A750C00750D007580
:101E80000E00C207C208751C00C20BC20CC20E7540
:101E90001D00751E00C210751F00C212754C00C2D5
:101EA00013C214751A00751B64C215C216754D0055
:101EB000D204D205D206D217C209D20A7E0400FF8C
:101EC0007E141FBD0B0A405D44681A692000020B96
:101ED0000E0B44800A7E0BB07A29B00B240B0C1B2E
:101EE0004478F280DF02213E0000004700CB010071
:101EF0000010FDC7FB7EFBFB01BB0C9E19002145BA
:101F0000000E010F02100311041205130614071529
:101F1000081609170A180B190C1A0D1BDF22C3210A
:101F2000A920941F811E701D621C551B4A1A41195D
:101F3000381831172B16251521141C1319121611D8
:101F40001310110F100ECAF87F20800A7E1BF07A42
:101F50002BF00B340B5469FFFFFC7DEF1BE479EF92
:101F6000FFFC4DFF78E67F10DAF8227D437F10807A
:101F7000071B447A0BB00B144D4478F522056331EE
:101F80002018130F0D0C0A09080706050432011961
:101F9000010002F804E705CE06C207B508FF0001FC
:101FA0000200FF01020001FF02000102FF7D23BECB
:101FB00024000048037D32226D339D32220004311B
:101FC000F500000000000103FF01000125F60100FB
:101FD00001385F00000238B10000000238B3000091
:101FE000000138B5000001344D000001344E0000FE
:101FF00001303600000131C700000131C800000186
:102000003723010002372600000001348800000158
:102010003489000001348A000001372A01000137A9
:10202000A4000001344F0000063A283F1F50112041
:102030001000013A2E2400013A350000013A360022
:1020400000013A370000013A380000013A39000037
:1020500001004E00000103EB000004380400000002
:102060000000013A2F0000013A300000023A31002E
:102070000000013A336400013A340000013A3A00AA
:10208000000103FD00000103FE0000022BB52BBB85
:1020900000012F7B0200012FA40000013902FF0084
:1020A0000139030000013904000001390540000135
:1020B000390640000134380000043A200000500086
:1020C00000043A240000640000043A0200006C009E
:1020D00000043A06000068C000043A0A00006800E4
:1020E00000043A1B00004000000433FC00006000C4
:1020F00000000320000C012C0226000A00C8015E2B
:102100000006003C00A00006003C00500006001E37
:10211000000000000000000000000000000E1C2372
:1021200005DC003203E800280000001E12342B12E8
:102130003866126A951238831266820207F31259C2
:1021400067122160126A3E12212C7EB337CC24FD27
:1021500068090BB178F4123C7180EF122AA880EA6A
:102160007E5400547E4400FF69320004692200025C
:102170000B2A107A1D267A15247E3400207E080052
:10218000247E240006125AC27E34614F1222241E7D
:10219000341E347A7337A57E3461511222240E34F2
:1021A0000E347A7337A67E34615512222412232806
:1021B0007A7337A77E3461571222241223287A7348
:1021C00037A87E3461591222241223287A7337A942
:1021D0007E34615B1222241223287A7337AA7E345C
:1021E0000059CA397E34615F7E2400FF7E0837AB18
:1021F000121F461BFDE5257AB337D6E5287AB3379B
:10220000C5227E34614F7E2400FF0B1A307A372AB4
:102210005A7E3461517E2400FF0B1A307A372A5CD3
:102220007E3461537E2400FF0B1A30227E346155C8
:102230001222247A3728957E3461BA1222247A3702
:1022400028997E3461B81222247A3728977E346226
:10225000121222247A37289B7E3461BC1222247AFF
:1022600037289D7E3461BE1222247A37289F7E341F
:1022700061C01222247A3728A17E3461C21222243E
:102280007A3728A39061C4E4937AB328A5E47AB39B
:1022900028A81246183E347E0825F7E4021F6B1268
:1022A00023AB7EB337B0B401167E346234122224DD
:1022B0007A372A5A7E3462361222247A372A5C7E92
:1022C000B328A8B401377E34623E1222247A372A1A
:1022D0005A7E3462401222247A372A5C7E3462426B
:1022E0001222247A372A4F7E3462441222247A370B
:1022F0002A517E3462461222247A372A537EB32A28
:102300000270217E272A5A7D327E140004AD137D8F
:1023100031122328BE34005028047E3400502D3260
:102320007A372A5A220B28301E341E341E341E34AB
:1023300022906099E4937AB32A4D90609EE4937A58
:10234000B32A4E7E34615512222412C7551222241C
:102350007A372A517E146159124FF57A272A537A17
:10236000372A5590609DE4937AB32A5912220212BB
:10237000C7407E3462121222247A372A6090609F0E
:10238000E4937AB32A649060A0E4937AB32A657EDA
:102390003460A11222247A372A667E34615B1222CD
:1023A000247A372A62E47AB316922212220212C7E2
:1023B000407E34615512222412C7551222247A37E6
:1023C0002A517E3461591222247A372A5322CAD8DC
:1023D000CA797DD3906050E4937CFB906051E49384
:1023E0007C8B0A380ACF2DC30BC47D3C7CE77E343E
:1023F00060A3122224122673A9D0C4A9D5CB7407D6
:102400001200467C8B74077E700F123C677E54006E
:10241000787E1F3A06795100067E5400807E1F3A6E
:1024200006795100087E54000C7E1F3A067951004F
:1024300010BED40002780B7E1F3A0612259B440181
:1024400080207E1F3A0612259B44081B1A504DDD42
:102450007E1F3A06780712259B54FB800512259BA8
:1024600044041B1A507E1F3A0269E100846951003E
:10247000907DF52E3400905EA0F61B1A507EB33787
:10248000D6BEB0064003B4FF0E1225A654E61225B0
:10249000A34E5401A4800C1225A65E54FEE612251C
:1024A000A344A41B1A50BED4000278237E1F3A0610
:1024B00012259B5E54000F1B1A507E1F3A061225F0
:1024C0009B44501225B2123BA47A3731F9A1576CC4
:1024D000DD807E4CDD78046C99802BBCFD40120AB7
:1024E000CD099C2AB4BE902340037E90220B90809D
:1024F000150A3F0ACD9DC3099C2AD7BE901C4003F4
:102500007E901B2E90247E1F3A0612259B5E54005F
:102510000F1B1A500AC93EC43EC43EC43EC47E1FAF
:102520003A0612259B4D5C1225B2BED400017810EC
:102530001225BC123BA47402ACBD593531FB800F8F
:10254000123BA40A5E0A2D2D253E24593231FB0B85
:10255000D0BCED280281D3A9D5CB74077C78123C7E
:1025600067A9C0C47E1F3A0279E100847E1F3A0247
:1025700079F100906D337E0F3A06793000067E0FB8
:102580003A06793000087E0F3A06793000107E0F47
:102590003A067930000EDA79DAD8222E34000E0BA2
:1025A0001A50221B1A507E1F3A022E3400840B1A36
:1025B00050221B1A507E3400021225E37E340001A3
:1025C0007E0F3A06793000047E0F3A066930001219
:1025D0005E34000168F27E34000179300012227E00
:1025E0003400017D2380127E3004800574FA123796
:1025F000827C231B30A5BA00F37D321B244D337837
:10260000E622CAF87EF33864BEF005780B74017ACE
:10261000B338641200098052BEF004781312C6FE6B
:10262000122224122673E47AB32AFE127EBC803A68
:10263000BEF006781912C6FE122224122673125119
:1026400068E47AB32B1A12743212C78B801CBEF066
:1026500007781D12C6FE122224122673127F5F50C5
:10266000FB12887212386F12388374027AB338649E
:10267000DAF8226D227A2703EC7A3703EE2230074C
:102680003BC2071226027E7338657A732A4D7E7329
:1026900038667A732B197E7338667A732AFD7EB397
:1026A000386760187E3400021223CE7E3400011297
:1026B00023CE6D331223CEE47AB338671234AD02E1
:1026C00026C2E50C7002E1DFE50C30E010530CFE91
:1026D00012656C126FF87E082A6D1208B8E50C308E
:1026E000E106530CFD1270D7E50C30E232530CFBBF
:1026F0007EB32B0E60097E082A6D120571800B7E59
:10270000B32B617E732B601209F37E732B0E2E7038
:10271000FF9201906051E4939EB32A73120964E51D
:102720000C30E345530CF77E7338927A732B0B12FF
:102730008AA37AB3004EBEB0FF680B430C207E73B1
:10274000004E7A73386A1257E81257DA7E7338935C
:10275000BE732B5E68067A732B5ED20B300B0712AA
:10276000C6ECE4120800126682E50C30E40F530C4C
:10277000EF7E4338947E500AAC4512C739E50C30E1
:10278000E64E530CBF7E733880BE70072806740770
:102790007AB33880A9D5CB740E1200467C7B5E706C
:1027A0000F7E6338800A262E240003123EE07C65EB
:1027B0004C76740E1207FA120046123C6A7E733889
:1027C000837A732B107E7338827A732B1B12C78B1C
:1027D000E50C30E50A530CDF7EB3386A0250B122B3
:1027E000CAF87CABBEA03438030228C8BEA0357836
:1027F000077EB32B0C0229DEBEA0366805BEA037CB
:10280000781D7E35087D230B247A25082E3731F379
:102810007E39B0BEA037680221DE75193621DEBED2
:10282000A0386805BEA039781B7EF338847CBF04CD
:102830007AB33884BEA03978037519380A3F09B3D2
:102840002B1D21DEBEA03A6805BEA03B781B7EF39F
:1028500038867CBF047AB33886BEA03B78037519EE
:102860003A0A3F09B32B4021DEBEA0FB78067EB3B7
:102870002B0E21DEBEA03C6805BEA03D781B7EF37A
:1028800038887CBF047AB33888BEA03D78037519B8
:102890003C0A3F09B32A7621DEBEA03E6805BEA0F1
:1028A0003F781B7EF3388A7CBF047AB3388ABEA097
:1028B0003F780375193E0A3F09B32A9921DEBEA06D
:1028C00040400DBEA04838080A3A09B3386021DEFE
:1028D000BEA04E6805BEA04F781E7EF338A57CBF13
:1028E000047AB338A5BEA04F780375194E0A3F2E5F
:1028F0003731F17E39B021DEBEA0516805BEA0524D
:1029000078287E1460006D002E0400FF7EB338B07E
:102910000A3B6D222F107E1B70047AB338B0BEA024
:102920005278037519517CB721DEBEA05C6805BEE4
:10293000A05D781A7EF338797CBF047AB33879BE0B
:10294000A05D780375195C7CBF1229E121DEBEA071
:1029500060400DBEA06C38080A3A09B30390807E2F
:10296000BEA0F46805BEA0F578187E350A7D230B5D
:10297000247A250A09B331F9BEA0F578617519F4F6
:10298000805CBEA0F06805BEA0F178097C1A2E100C
:102990001FA5E78049BEA0F26805BEA0F3781B7EA4
:1029A000150F3E147E1F31F52D310B1A30BEA0F2EB
:1029B00078040A5680287D538024BEA0F67804E56A
:1029C0000E801BBEA0F7780D7E3462487E2400FF87
:1029D0000B1A508009BEA0FD7803E48001E4DAF808
:1029E000227CABBEA00040117EB32A6EBCBA28097F
:1029F0007402A44925340080517E132A6EBC1A3813
:102A00001C7E032A6D0A100A212D120A3ABD315884
:102A10000C9D323E343E344923035F802D7E032AD1
:102A20006D0A200A117D412D420A3ABD3448197EB3
:102A30001002AC012D01BD30580E9D319D323E3447
:102A40003E34492303618002E4227E340064AD23D6
:102A5000740C1E341E2450034E60801478F47CB72E
:102A600022CAF880387CBF1229E10A1B7E632A6ED5
:102A70007E7002AC677E1002AC1F2D037E1F138A8E
:102A80002D30122AA09D351B1A100BF0122AA07EA1
:102A9000732A6E0A272D250A3FBD3248C8DAF8226C
:102AA0007EA32A6D7402A4221237E47EB337CCB41D
:102AB00003028002613812B8BD7E3403E812267327
:102AC00012267E7EB3386030E7E1123CFB122F5CA9
:102AD0003E34CA397E1804007E0804FC121F461BCF
:102AE000FD122F5C3E34CA397E18047E7E08057ABA
:102AF000121F461BFD7EB32B19B401181277A312C7
:102B0000748A126FE212A7EA124DEC12A004122B83
:102B100047124FFD7EB328A8B4010B7E14006F7ED0
:102B20001F138A1B1A1012508B122A617EB3386051
:102B3000547F7AB3386041AB127F6A0200667AB381
:102B40002AFE7AB32B1A2212958B122D25122D25CF
:102B50001247AA124881122ED3122D2512AE7812D6
:102B60002D25122D25022B68CA3B7524006CCC6CD8
:102B7000DD7EF328840ACF3EC4CAC97E1826FA7EB9
:102B8000081F34121F461BFD6C886CEE81297EC421
:102B900003FF7EC0FF6C99804C7402ACB909B51F6D
:102BA00034BEB0FF683D7CB9122EBA60367402ACF8
:102BB000B909751F350A277402ACBE0975398A0A2E
:102BC00037125F9F7402ACB909751F340A2774026B
:102BD000ACBE0975398912C3892D13BDC128047D86
:102BE000C17CC90B90BCF938B0BEC0FF68397E709B
:102BF00002AC7C09B31F3409731F35122D6EBE372A
:102C00002A5A48237E7002AC7C09531F347402ACEC
:102C1000BD19551F7009531F3519551F7174FF19C0
:102C2000B31F340B800BD00BE07E733988BC7E2839
:102C300002618E7CE8806D6DDD7E80FF6C99803C4A
:102C40007CB9122EBA6033122FF0BEB0FF682B0988
:102C5000731F3512930E7F710B7A50BE54000058CB
:102C6000056D551B7A500B7AC0BDCD080D122FF0A3
:102C7000F52409C31F357DDC7C890B90BCF938C075
:102C8000BE80FF681D7E71247402ACBD19751F7073
:102C900019C51F717EA0FF7E7002AC7819A31F3486
:102CA0000BD00BE0906099E493BCBE388A90609A98
:102CB00012C70CA4CA597E181F707E081F34121F39
:102CC000461BFD7CFD12A3A87E08398974FF121FE4
:102CD0006BBEF00028350A3F3E34CA397E181F34D7
:102CE0007E0826FA121F461BFD0A3F3E34CA397E73
:102CF000181F347E083989121F461BFD6CEE8007B1
:102D00007CBE122F1A0BE0BCFE38F57AF339887AB4
:102D1000F32884906099E493BEB3288450047AB376
:102D20002884DA3B22CA796CFF6CEE80317CBE12BB
:102D30002EBA60287E340002CA39AC7E2E3426FAC0
:102D40006D227E3002AC3F2E1426FA6D00121F4613
:102D50001BFD7CBF7E7001122F1D0BF00BE0124F8C
:102D6000EE38CA7AF32884DA79227CB87C79129317
:102D70000E0B1A3022CA3B6DEE7EC32A6E7ED32A1A
:102D80006D7EB328847002C1087EB32A036002807E
:102D9000777EA326FA7E7326FB7A71246CEE6DFF94
:102DA0006CFF0A47801C122EAE081D0BE0BEA0006F
:102DB00028067CBA14122E9B122F645803122E98E8
:102DC0001B44BE44000058DEE5240A4B801A122E34
:102DD000AE08210BE0BEA00028067CBA14122E9B80
:102DE000122F645803122E987D240B247D420A3C36
:102DF000BD2348DABEE0035002800D0A2F7D3F124A
:102E00001C64BE3400280807E47AB331C7C1956D4D
:102E1000DDBEA00028067CBA14122EA50A3D1B3484
:102E20000ACABDC358067CBA04122EA57E7008805B
:102E30002A7E5002AC577DC22EC41F8D7D1C7A3174
:102E4000827A2183E4931ACBBDCD080F7DC22EC4B4
:102E50001F8E7D2C122FFE1ACB2DEC7C671B70A5CC
:102E6000BE00CE7CBA7E7124122F71BE340AF008E7
:102E7000042EE40028BEE400FA28047EE400FA7E72
:102E8000B331C70A3BBD3E50087D3E7CB77AB331B3
:102E9000C77EB331C7DA3B227CBA047C79122D6E2F
:102EA0002DF30BF0227E7124122D6E2DD3227CBACD
:102EB0007C79122D6EBE340096227C7B1246350939
:102EC000A227727CB754070A3B2E34005E1237DB10
:102ED0005CBA226C006C1180137CB1122EBA600AAD
:102EE00012A92140057E0001800A0B107E73288400
:102EF000BC7138E5A5B801216C1180157CB1122E8A
:102F0000BA600C12A92150077CB16C77122F1D0BEF
:102F1000107E032884BC0138E3227E70017C677C2C
:102F20007BC423541F7CAB7CB754070A2B2E240090
:102F30005E122FFE7C7B4C66680F0A2A2E242772B5
:102F40007E29B04CB77A29B0227CB764FF0A2A2EBA
:102F50002427727E29705C7B7A297022906128E494
:102F6000930A3B220A2D1B240A3ABD32227CBE7CE6
:102F700078122D6E021FAD7CBF7E70F1CA797CF78E
:102F80007C8B6CAA6DFF7E932A6D7EB328A5BEB0A4
:102F9000016808BEB0456803C380526CEE801D7C9A
:102FA000BE7C78122D6E1A2FBD3258020BA0122F44
:102FB0006DBD3F0805122F6D7DF30BE07EB32A6DCA
:102FC000BCBE38DBBEF400505803D380209060AB09
:102FD000E493BCB87803D380140A193E147E04002D
:102FE000038D100A3ABD312803D38001C3DA792258
:102FF0007E7002AC7909B31F34222E241F007A514F
:10300000827A4183E493221237B5B40114CA397E1F
:103010001838A07E0825EE121F461BFD12349B8037
:1030200012CA397E1838A07E082B6C121F461BFD71
:103030001234A40230367A1F2AF87A0F2AF422CAF0
:10304000F87C6BA5BE00097CB71279F3D20741AEBC
:10305000A5BE013D7A733861A5BFAD02802FA5BF23
:10306000AE04D20841AEA5BFAA0512C782801EA534
:10307000BFAB0A7E34057A7A3731F38010A5BFAC36
:1030800002800241AE7E3404FC7A3731F36D332185
:1030900033BE60044022BE6008381DD2071232B130
:1030A000A5BE07076D337A350A41AEA5BE0802807A
:1030B0000241AE12006E41AEA5BE0A09430C207A51
:1030C00073386A41AEBE601B4007BE601C380241C7
:1030D0004FBE601E400DBE602338081232B1430C53
:1030E0004041AEBE6015401ABE601838151232B1AC
:1030F000D207A5BE1502800241AE74077AB33864C8
:1031000041AEA5BE1907E47AB3387941AEBE60245A
:103110004007BE602C3802414FA5BE2D1B1232B1B4
:1031200020080241AE7E63388C7C466C550A372DF0
:10313000323E347A350841AEBE602F400ABE60335D
:103140003805430C08414FA5BE340F430C10BE7028
:10315000643802414F7E7064414FBE60386804A5F8
:10316000BE3921430C017EF338857CBF047AB33825
:10317000850A2F19722B1DA5BE3902800241AE753A
:10318000193841AEBE603A6804A5BE3B21430C022B
:103190007EF338877CBF047AB338870A2F19722BE5
:1031A00040A5BE3B02800241AE75193A41AEA5BEB4
:1031B000FB09430C047A732B0E41AEA5BE50067A70
:1031C0007338B041AEBE603C6804A5BE3D21430CDF
:1031D000017EF338897CBF047AB338890A2F1972CB
:1031E0002A76A5BE3D02800241AE75193C41AEBEB5
:1031F000603E6804A5BE3F21430C017EF3388B7C02
:10320000BF047AB3388B0A2F19722A99A5BE3F02E0
:10321000800241AE75193E41AEBE6040400DBE60B9
:103220004238081232B1750D01800AA5BE430B1257
:1032300032B1750D021230078074A5BE44081232F7
:10324000B11234618068BE60456804A5BE460512AF
:1032500032B1805ABE604E6804A5BE4F20430D04B3
:103260007EF338A67CBF047AB338A60A2F2E273106
:10327000F17A2970A5BE4F3675194E8031BE60F0C7
:103280004025BE60F338207C162E101F7CB7A5F7B2
:10329000A5BEF31A7E15117E050F3E047E1F31F583
:1032A0002D301B1A108007A5BEF6037A710EDAF8CE
:1032B000220A2619723860227AB32AFC701412345A
:1032C000A41230367E1806767A1F06F47E18047E25
:1032D0008010B4011112349B123036126F7E7E18AA
:1032E00004007A1F06F822740112001EE41232B89C
:1032F0001232FFE412001E74011232B80232FFCA09
:103300003B906126E4937CDB906127E4937CCB7E49
:10331000081F447E340046743F121F6B7E081F8ACC
:103320007E340046121F6B7E081FD07E34000AE4F4
:10333000121F6B7E081FDA7E34000A121F6B7EF3A9
:103340002AF87E182AD87A1D247E181FD07A1D28C4
:103350007CBD7C7C7E082AB512B9D76CEE802B0A26
:103360003E09A32AD80A3A2E341F001237DB7CAB61
:10337000BEA01C50130A3E1234230A4A19B41F443B
:103380007EB32AF719B41F8A0BE0BCCE38D16CEE9D
:1033900080240A3E09A32AB5BEA02350170A2E0A8C
:1033A0003C2D321234230A4A19B41F607EB32AF727
:1033B00019B41FA60BE0BCDE38D87EB32AF97E080C
:1033C0001FE460097E181FD0127D8C80031270C626
:1033D0006CEE7E181FE47A1F1F347402ACBE4935B0
:1033E0001FD07A371F387402ACBE49351FDA7A37DE
:1033F0001F3A7E700EAC7E2E341F446D227A1F1F42
:103400003C7E700EAC7E2E341F8A7A1F1F407E08D1
:103410001F347CBF7C7E1207230BE0BEE00540B268
:10342000DA3B222E372AFA7E39B02274017AB3377A
:10343000CC12C6EE1212C312703EE41208007E24B3
:1034400003D412C73974011232B8127F3E7E34D0D1
:103450000C12010E1232E77E3400011237A702105F
:10346000FC1237B5B40117CA397E1825EE7E08382C
:10347000A0121F461BFD12C77912349B801ACA394D
:103480007E182B6C7E0838A0121F461BFD7E372B42
:10349000727A3731F11234A40230367E1F25F27E63
:1034A0000F25EE227E1F2B707E0F2B6C22E50D6008
:1034B00052E50D30E006530DFE1236DDE50D30E12C
:1034C00014530DFD7EB338A4700474018001E4121E
:1034D00037AD12B94CE50D30E229530DFBE47AB358
:1034E00038A57EB338A4700A740112001E1234A4E9
:1034F0008007E412001E12349B1230367EB32AF885
:10350000023519227AB32AFC70051234A48006B45D
:10351000010612349B12303622CA797CFB7E0824C5
:10352000F212B9BD937C7B6CEE801D0A2E09622AD3
:10353000D80A26122FFA7C6BBE601C50090A2E1284
:10354000358C19B224F20BE0BC7E38DF6CEE801AA9
:103550000A2E09622AB5BE6023500D0A1E0A272DC5
:103560002112358C19B2250E0BE0BCAE38E26CEEA0
:103570007E300EAC3E2E1424F26D007CBF7C7E1299
:1035800010820BE0BEE00540E7DA79222E272AFA06
:103590007E29B00A2622CAD8CA797EF00A74017A36
:1035A000B32AF6906128E4937CEB80697E3403E8CB
:1035B0001226731236E43017FD1237BE7EB32A6D21
:1035C0007E732A6E12379D6CDD803D7E5002AC5DAD
:1035D000493206FCBE34147850140A1D2E172AFAFC
:1035E0007E19B0BEB000281E147A19B08018BE34FF
:1035F000192828100A3D123423BEB0FF6808047A47
:1036000039B080021BE00BD0906128E493BCBD3838
:10361000BA4CEE68087CAF1BF04CAA788FDA79DAE6
:10362000D822CA3B906127E4937CEB7EF32AF674A0
:10363000017AB32AF61236DD1237A57E172AFA6D03
:1036400000906128930A3BE4121F6B7ED0077E3402
:1036500003E81226736CCC80197E3400017CBD60B7
:10366000053E341478FB7C6712375F4C767A2970FC
:103670000BC012375738E21236E43017FD1237BE4E
:10368000906126E4937C7E12379D6CCC8029740275
:10369000ACBC493506FCBE34154050197E340001DF
:1036A0007CBD60053E341478FB7CB764FF12375F45
:1036B0005C7B7A29700BC012375738D21BD0BED032
:1036C00000588B12359674021237AD1235197402F8
:1036D00012001E7AF32AF61236DDDA3B227E082A21
:1036E0006D02046B740212001E7EB32AF8123519A3
:1036F000740212001E74057E709B1211FA123707B5
:103700007EB32AF8020D396CAA80220A3A09732A7C
:10371000D82E341F001237DB7C7B0A477E5002AC68
:103720005A7E0F3A022D12794000480BA01269759B
:1037300038D922BEB0012802E4221237C81236DD81
:103740007E732AF60A373E343E34E47E500112116D
:10375000CF1236F5740122906128E493BCBC220A92
:103760002C2E272AFA7E2970227C967CA71232B84A
:103770007CBA121295740A1237827CB912001E02AA
:1037800036227CAB800E7E70038001007C671B704C
:10379000A5BE00F77C6A1BA0A5BE00EA22120F831B
:1037A000740202001E6D33E46C550211CF12001E2C
:1037B0007EB32AF8227EB338A47E34000422740239
:1037C00012001E7E0806FC227CAB1235047CBA1265
:1037D000129502001E2D322E341F9D7A71827A615D
:1037E00083E4932212C78212C7796D337A350A12A5
:1037F000512E1250A874507AB338947E24032012AC
:10380000C739E412380F6D337A373A312274017AAE
:10381000B32AFD7AB32B192212380D123A6D7A377A
:103820003A3112385F12388302382B74057AB32F7D
:10383000A5E47AB33000227E3460A312222412263B
:1038400073125967126A3E12342B12385F12380D08
:10385000126A9512388312382B1266820207F37EA1
:10386000340DAC122673127EBC12743202386F30E3
:103870000E10123E7A500312573A12716D128BAB32
:10388000C20E22E47AB333E77AB333E61256F5B4C4
:1038900001047401800274037AB333E7227EB337E4
:1038A000CA14685D147802213E14686D240368020E
:1038B0002136123A7B3808300F0F1297E9680A1246
:1038C0003A6DE47AB339C780757EB337AB30E06EBA
:1038D0007E7337AC0A277E340400AD327EB337F5F1
:1038E000B4010B7E3462641222242E340400BE37ED
:1038F00039C5504A123A6D123A74E47AB339C98024
:103900003D123A7B2833E47AB337CA7EB339C7B461
:103910000103123A74D21680207E3460A51222244C
:10392000122673123B57123837E47AB337CA7AB388
:103930003A34D2168008123A74E47AB33A34123B1D
:10394000E9023944CAD8CA797EB337CAB4010280C1
:103950000241686CDD6CFF1298637DF3127F5F504B
:10396000FB74017AB339C81232B812129512001ED4
:10397000740A1237821237A57EE72B097AE5247E76
:10398000E32AF674047AB32AF67EE72B095EE40094
:103990003F7AE72B097EB32AF6127F707C7B74088E
:1039A000AC7B7E240004121C647D237D3F122328FF
:1039B000AD327A372B031236DD7E3403E8122673DC
:1039C0007EB337F5B401047410800274141298B2F7
:1039D0001236F5800F8007123AD8E4123B1020937C
:1039E000F6123AA83017F73016F4D201123A8EE4E4
:1039F0001212AC0BD01254DD1298BC7EA339C74C06
:103A0000AA780674017AB339C84CAA680B7EB3371A
:103A1000F57005E47AB339C7123A8378187EB33962
:103A2000C76012E47AB339C77AB32A027AB32A0399
:103A30007EF001801C123A8368107EB339C7700A89
:103A40007EF001E47AB337CA8007BED0325002213B
:103A5000B9E47AB32B007E35247A372B097AE32A2E
:103A6000F64CFF6803123883DA79DAD8226D337A9C
:103A70003739C52274017AB337CA227E732A02BE4F
:103A80007000227E733A1F0A375E34000222300132
:103A900006123BC702126412C794C202023A9FA9DF
:103AA000D0CEA202A991C922301705C201123A8EC6
:103AB000A9D1CDA9C5EA301603201714123AD8A906
:103AC000D0CEA9C4C97402123B10A9D0CEA9D4C9C2
:103AD000A9C1CDD201023A8E74817AB33A2F2280E5
:103AE0001D123AD8123C306805C201123A8E7EB3DC
:103AF00033E7BEB0026818201615E4123B1020937D
:103B0000E0123AD8A9D1CDA9C5EA7402023B10222D
:103B10007CAB7EB33A2FB481384CAA7805A9D08704
:103B20008029BEA001780FC2AFA9D0CEA9C7C9A96C
:103B3000D187D2AF8015BEA0027816C2AF209309FC
:103B4000A9D0CEA9D7C9A9D187D2AF000000000063
:103B500000E47AB33A2F22123AD812985A75CD005F
:103B6000A9D6EBA9D7CDC2CE12C767123C387401D3
:103B7000123B10A9C6EBA9C7CDD2CEE5257E712494
:103B8000023B837C6BA9D5CB740F1207FA7A61FCD8
:103B9000123C6A125C33D20012B8B2123BC7121246
:103BA000AC0212647E0F3A066930000A7D236D3341
:103BB0006910000C6D002F1074071E341E24500372
:103BC0004E60801478F422D202123A9F740122D2FD
:103BD00000801230000C123C306807C200C2011293
:103BE0003A8E123ADF3016EB227401123C0820168E
:103BF00006123BCF123C117EB333E7B40106123CF0
:103C000016123C11E4023C08BEB0085003125FF5E6
:103C100022D201023A8E74C87AB33A33C216800AAD
:103C2000123ADF30160475E9FF22123C3068F122A7
:103C30007EB333E7BEB0012212C794C200125FDA2E
:103C4000C202123A9FC20012B8B2A9D5CB740F12A9
:103C500000467A1BB0740F6C771207FAE5FC7A0BFA
:103C6000B043FC10023C6A1207FA75FDFFA9C5CBF0
:103C700022123818127A8C7EB337CCB4016B12B88A
:103C8000BD7E3460A512222412267312986D123E56
:103C90008B123CFB50DE1277A312748A7EB337C9B5
:103CA000B40104E4123DFC126FE212A7EA123E04D2
:103CB00040C2124DEC123E0440BA12A004122B472F
:103CC000123FAD1287FF1299DF126B44129BBD1297
:103CD0006F0712A05E126E49128746127AC21258FE
:103CE000FD12389D1258A3808B127F6A023CEF7E32
:103CF000B337C9B40104E4023DFC22CA3B127F5F22
:103D000050FB7EF32B0B7CBF128B1F128F537EB3A5
:103D10002B1BF5287EB32B1CF5297EB337CCB401C1
:103D20000312663B122F5C3E34CA397E1806FC7EB5
:103D300008047E121F461BFD122F5C3E34CA397EDA
:103D400018077A7E080400121F461BFD7EB337CC8D
:103D5000B4030712697D7A3738A774017AB31690D5
:103D60001238661269EA7EC303EB123E1CE412129B
:103D7000AC1238837E08047E7A0D2A7E1806767E81
:103D8000B32B6E123EE97E0804007A0D2A7E1805D8
:103D9000F87EB325F0123EE97ED32B1B7EE32B1C6D
:103DA000E5287AB32B1BE529123E7650057CBC1220
:103DB000AE437E34080A7E040DC87D207D1012714A
:103DC000F17AD32B1B7AE32B1C7CBF128AC512A776
:103DD000FA7EB33A34047AB33A347E733A34BE701E
:103DE000FA280674647AB33A347EB3169060097E7A
:103DF000B316916003D38001C3DA3B227003D286ED
:103E000022C28622C2007EB3169160067EB316904F
:103E10007007125FD22802D200A200227EA3004EB9
:103E2000BEA0FF6848BEA303EB68427405A41267F6
:103E3000F4123E6E1267EB123E6E1267E2123E7A89
:103E400050097EB3004E12AE438006123E6E1267DA
:103E5000D91257E81257E17E732B100A377E0F3ABA
:103E60000A7930001A7E73004E7A7303EB227EA328
:103E7000004E7405A4227AB32B1C7EB337CCB40356
:103E8000087EB338767002C322D3227E3437A53041
:103E90000C4BC20C09530002123EDE7A272A4F094E
:103EA000530003123EDE7A272A5109530004123EC2
:103EB000DE7A272A537E39500A253E243E247A276B
:103EC0002A5A095300010A253E243E247A272A5CF7
:103ED000097300050A37125CF97A372A62220A252B
:103EE0003E243E243E243E2422CAF87CAB7F517FF0
:103EF00040906128E4937CFB7E0D2A7CBA7C7F1283
:103F00007F040A3F3E34CA397E1D2A7F04121F46B1
:103F10001BFD7EB32AFDB401226CAA801A7E7002BA
:103F2000AC7A7F052D130B0A207F042D130B0A306A
:103F30009D321B0A300BA0BCFA38E2DAF8227C670B
:103F40007C7BA5BF0017BE6000280F74017AB32ADE
:103F500007E47AB32A097AB32A0A02A38FA5BE001E
:103F60001D6CAA800E7E60FF7E5009AC5A19622932
:103F7000660BA0126B3C38ED74017AB32A066CAA6A
:103F800080267E3009AC3A2E1428AE0B1820123E43
:103F9000E01B18207E3009AC3A2E1428B00B1820F4
:103FA000123EE01B18200BA0BC7A38D622023FB08C
:103FB000CA3B6CFF12C7707EB31691B40102800336
:103FC0000240CC6CCC0240BD12C74BF52709B3268A
:103FD000FBF5287525027526027CBC1275ABD20054
:103FE0001276F1E527600C0A2E1B24E5270A3BBD5B
:103FF000324803752501E528600C0A2D1B24E528AD
:104000000A3BBD324803752601752400803CE52437
:10401000BCBC683412470409A326FA7AA12909B363
:1040200026FBF52A0A2AE5271240D1BE34000318E0
:1040300017E52A0A2BE5281240D1BE3400031808E0
:10404000752501752601800705241247A238BFE5B2
:10405000277E712812A9315008124647127CDF8052
:104060002B7EB328A8B401067525037526037EB3FD
:104070002A03B401177EB32884B401107E37288642
:10408000BE3400104006752503752603E5257E71B4
:10409000267C6C7C5F129058906136E493B40116D4
:1040A0007E7009AC7C7D132E1427766D002E34278C
:1040B000786D22127FB71246470BF00BC07E732833
:1040C00084BC7C2803023FC87AF32884DA3B22E5CB
:1040D000250A3B9D32021FADCA3B7CFB7537007E33
:1040E000E32884E47AB339497AB339477AB3394853
:1040F0007E081F3A124618E4121F6B1246183E340F
:104100007E08394BE4121F6B7ED0017530017CBEF6
:1041100012B5BA1BB1680F240368121BB178136C77
:10412000DD753701800C6CDD7537018000E47AB3F2
:10413000394ABEE002500261637E18002C7A1D39B4
:104140007E081F347E18003112B541752D01E5300F
:10415000600AE52CBEB0012803752D026CCC6152BB
:1041600012C74BF52409B326FBF5254CCC68080A89
:104170003C09B31F3A700A0A3C0B340A2C19721F0F
:104180003A7CBE14BCBC780261580A5C0B54F52A18
:1041900061497E712A7402AC7B09A326FA7AA126B2
:1041A00009B326FBF5270A2AE5241240D17CB7F58E
:1041B00028E5270A2B1240CF7CB7F5296CAAE52405
:1041C0001243687A371F36E5261243707A35337EFC
:1041D000371F36BE353308057E353380047E371FE2
:1041E000367A35350E340E347A371F38E528BEB0AE
:1041F000013864E529BEB001385D7CBF30E158125A
:10420000437612448A78446D337A352E12436EBE5B
:10421000340000080912436E2E352E7A352E1243D3
:1042200066BE34000008091243662E352E7A352EFC
:10423000E53060066D337A371F387E371F38BE355C
:104240002E080FE537700241E18007BEA001680229
:1042500041E17EA00141E1E528BEB0013807E52932
:10426000BEB001287C0A3D7E2400059D237EB32636
:1042700085B401067E34000180026D337D429D438A
:10428000E5280A3BBD3458597EB32684B401067E26
:1042900034000180026D339D23E5290A3BBD32586D
:1042A000407CBF30E03B12437612448A782B7E3745
:1042B0001F347A35397E35317A353B852C3D853052
:1042C0003E1243767E171F367E05337E412D12B196
:1042D000827CABE537600A8005BEA00178037EA032
:1042E00002BEA00008611A4A2E4439467E49B00435
:1042F0007A49B0E52A0A3B09531F3AA5BD000C0ACA
:104300001C09411F3A19431F3A803C0A1C09411FEE
:104310003A7A4138BC4528037A5138752B008022FF
:1043200009231F3AE52B0A2B09321F3ABC32680ACF
:104330000A0C09B01F3ABC3B7806E53819B21F3A9F
:10434000052BBEE12B38D9052ABEE12A280221928D
:104350000BC0BCEC280221607E081F3A12B0337AF1
:10436000B33949DA3B22E5267E7125022D6EE5241C
:104370007E7127022D6EE5247E71257E61267E5199
:104380002722CA3B7CD57CF67CC77CEB7EB328AB6E
:10439000700474FF81877E181F587A1D3C7E0804C4
:1043A000FC1245EF124493F53A7E181F6C7A1D3CBF
:1043B0007E232A6E7E3002AC232E1404FC6D001284
:1043C00046081244937CABE53ABEB0016807BEA034
:1043D00001680281856C33E53ABEB0012853753916
:1043E000008044E53A0A2B124628581709231F5823
:1043F0000A2209231F590A322D321246117CB7F5C1
:104400003B8003753BFFE53BBCBC4016E53BBCBDB8
:104410004010BC3C5004BC3D4004A5BB00047401EA
:1044200080657E313B0539E53ABEB13938B5E48067
:1044300056BEA001284F75390080420A2A1246282C
:10444000581709231F6C0A2209231F6D0A322D32C7
:104450001246117CB7F53B8003753BFFE53BBCBEC4
:104460004016E53BBCBF4010BC3E5004BC3F40047E
:10447000A5BB00047401800F7E313B0539BEA13914
:1044800038B9E4800274FFDA3B221243827CABBE6F
:10449000A0FF221E341E346C55CA69CAF87C4B6CCE
:1044A000AA6DFF6CFF80707ED002ACDF7F602DD6DE
:1044B0000B6AE04C5568066EE4FFFF0BE4BD3E5806
:1044C000544CFF78086D4469F00002801B7CB414E2
:1044D000BCBF7F5678091BB50B5A406DFF80091B86
:1044E000B50B5A4069F600024C55680C6E44FFFF4C
:1044F0000B446EF4FFFF0BF4BD4E5819BDFE1815AA
:104500000ABA7E6D3C2DDB7A6BF00BA090609BE4C9
:1045100093BCBA28060BF0BC4F388C7CBADAF8DAB8
:1045200069227E0826867E340003E4121F6B7E0813
:1045300026897E340003121F6B7AB326837AB32652
:10454000847AB326857AB326F07AB326F17AB32635
:10455000F27E18266F1245E86C551244997AB326FC
:10456000857E18265B1245F86C551244997AB3265D
:10457000846C77801412461F60053E241478FB1269
:1045800046312E24268612463C7E632684BC67383C
:10459000E46C77801412461F60053E241478FB12E9
:1045A00046312E24268912463C7EA32685BCA73898
:1045B000E47EB32684A47AB326837E1826E61245C9
:1045C000E87E50011244997AB326F27E1826DC1256
:1045D00045F87E50011244997CAB7AA326F17EB354
:1045E00026F2A47AB326F0227A1D3C7E0F06F87ECE
:1045F000B32A6E7E372A53227A1D3C7EA32A6E741C
:1046000002A47E0F06F82D157EB32A6D7E372A513F
:10461000227E240002021C6490609A930A3B227C52
:10462000B754077E240001221B24E5390A3BBD3222
:10463000227CA57CB7C423541F0A2B227E29604C00
:104640006A7A29600B70221277E660306C2280242F
:104650007CB21276CF501B7CB212758E7D0312771E
:10466000DE495534437D403E447E1F138A2D341B62
:104670001A500B207E732A71BC7238D4227E3064AB
:104680007E20646C1180540A310B347C0780427E9A
:104690007002AC7009B326FA1246FC09B326FA126E
:1046A00040D17C977E7002AC7009B326FB1246FCA9
:1046B00009B326FB1240D17C87BE90002806BC3986
:1046C00028027C39BE80002806BC2828027C280BE2
:1046D000007EB32884BCB038B60B107EB32884BCEF
:1046E000B138A4A5BB64026C33A5BA64026C22BCC9
:1046F0002328047CA280027CA37CBA220A2B7E7031
:1047000002AC71227E71247402AC7B22CA3B9061A0
:1047100027E493F527124C565002E19F6D339E37E4
:104720002A4F3E34BE3707F818757EB31692706F65
:104730007EB328A8B401657E772A517E672A537517
:1047400024008053E524122EBA604A12470412C78F
:10475000137EB32A03B4010E9060ABE493BEB1267E
:1047600078040E640E747EA1267402A4493504FCFC
:10477000BD364814E5250A2BE5270A3B2D323E3489
:10478000493304FCBD37580DE5246C77122F1D12F8
:10479000470412A5D805241247A238A812A2BDDAF0
:1047A0003B227E732884BE71242212A6EC125D0285
:1047B00012470C12A4FD0247B9CA3B122D257EB345
:1047C000288460067EB337236009E47AB337257AFC
:1047D000B336AA7EB33723706B6C99805F7402ACDA
:1047E000B9098526FA09F526FB7CB912A5B6404A17
:1047F0006CEE803E7402ACBE09D536AB09C536AC52
:104800000A280A3D12486778270A2F0A3C1248678F
:10481000781E7CB912486F7E14622B124FF5BD32A0
:10482000580E7CB96C77122F1D7CB87C7F12A5E0E6
:104830000BE07E733725BC7E38BA0B907E732884DC
:10484000BC7938997E7336AA7A7337250A373E3495
:10485000CA397E1836E77E0836AB121F461BFDE4C8
:104860007AB33723DA3B229D32121FAD4D33227CBF
:10487000AB7E7002AC7A09B326FA097326FB022DCF
:104880006ECA796C8880707402ACB809F526FA0992
:104890007526FB7A71247CBF12A88B50586CEE8071
:1048A0004FBCE868497E7002AC7E12C7136C9990C9
:1048B00060AAE49370187EB32A7014BEB126780EF5
:1048C0000A2F1240CFBE34000118037E9001BE9023
:1048D00001781B7CBE12486F7DF37CB812486FBD17
:1048E0003F08047CBE80027CB86C77122F1D0BE061
:1048F000124FEE38AC0B807E732884BC783888DA8F
:104900007922CAD8CA797EA32A6E7E472899E47A8A
:10491000B328A67EB326F0BEB0002848124FCA289E
:10492000436CFF803B7E5002AC5F09D2273609E220
:1049300027377E5002AC5E491204FC6D229E272A66
:1049400053BD125819124A20491204FC6D229E27A9
:104950002A51BD12580874017AB328A680060BF0BC
:10496000BC7F38C1E47AB328A77EB3268370401297
:104970004DC2283B6CFF80337E5002AC5F09D226CB
:10498000FA09E226FB124A204902057A6D119D14AC
:10499000BD01480D7E1002AC1E4920057ABD21588C
:1049A0000874017AB328A780060BF0BC7F38C912BF
:1049B0004A29E47AB328A97E3728882E372886BE6C
:1049C00037289F280674017AB328A974017AB3287E
:1049D000AA6CFF801F124A16492525F77D439D4288
:1049E0007D34121FADBE37289D0807E47AB328AA8C
:1049F000800A0BF07E732884BC7F38D96CFF800955
:104A0000124A16593525F70BF07E732884BC7F387F
:104A1000EFDA79DAD8227CBF12486F7402ACBF2279
:104A20000A1D0A2A2D213E2422CA3BC2006C886C32
:104A3000997E5728997DE57ED728977EF738BF4D18
:104A4000FF68047DE50EE46CCC7EA32A6E7CEA7ED2
:104A5000B328A514682114681424C2680824FB68CC
:104A600016244578107CCA7EE32A6D800A7E732A5C
:104A70006D2CE780026CEE6CFF800F7CBF12486FDC
:104A8000BE34025808020B800BF07E732884BC7F72
:104A900038E9BE8003400281536CFF80180ACF0AB8
:104AA000FC2DFC3EF449CF057A6DFF9DFEBDCF582D
:104AB000020B900BF0BCEF38E47EF7288EBEF4FFBB
:104AC0009C48107EF7288ABEF4006408407EB32616
:104AD00083703A4C9978366CFF802E0AFF0ACC2DF1
:104AE000CF3EC449FC057ABDFE081C49FC04FCBD50
:104AF000FD58146D339D3D124611BDF30809122F68
:104B0000774004D20080060BF0BCEF38CE6DFF9EDC
:104B1000F72A4FBEF707F80802C200124C5650029F
:104B2000C2003000207EB33A38047AB33A387E733C
:104B30003A38BE7005281D74057AB33A3874017A84
:104B4000B328A8800F7E733A38BE700028061E7006
:104B50007A733A386CDD124DC23805124FCA287983
:104B60007EB328A7B401097EB328AABEB001686944
:104B70007EB328A8B401626CFF801E7E7002AC7FF9
:104B800009B326FAF524097326FB7A7125122EB291
:104B900008057ED001800A0BF07E732884BC7F3824
:104BA000DA6CFF802C7E7002AC7F09B32736F524C7
:104BB000097327377A7125122D6EBE34FF6A580F9C
:104BC000E5257E70E2122F7C40057ED001800A0B25
:104BD000F07E732885BC7F38CC6CFF801C0A3F0AAE
:104BE000FC2DF33EF449FF057ABDFE080A122F772B
:104BF00040057ED00180060BF0BCEF38E07E372800
:104C00008ABE340064580C7E27288EBE24FFB0086C
:104C1000026CDDBE34005058026CDD4CDD78257E20
:104C2000B33A39047AB33A397E733A39BE700A28F6
:104C300022740A7AB33A397EB328A86002D21412D9
:104C4000AE39800F7E733A39BE700028061E707A26
:104C5000733A39DA3B22A212227E90017E9461C01F
:104C60007E8400FF0B4A307A3728A17EB461C27E71
:104C7000A400FF0B5A307A3728A37E34614F126F9D
:104C800076E47AB328AC124DB312A97E50146DCCE1
:104C90009EC72A5ABEC7288E080812A8A160031210
:104CA0004DD2124DCA68117EB328A7B4010A7EB353
:104CB00028AAB40103124DD212AA894005E47AB39E
:104CC00028A8124DCA68067EB33A386007E47AB362
:104CD00028AD806F124DBA2805E47AB328AD300FA5
:104CE00005E47AB328AD12AAC7500A124DB312A92F
:104CF000C77C9B80177EB3268470117EB326857097
:104D00000B124DBA28067E9003124DB37EC707FAE8
:104D1000BEC405DC0817124DBA28126DCC9DCDBE5D
:104D2000C7288E5808124DDEE47AB328AD0A290B45
:104D30004A30AD327A3728A10A290B5A30AD327A7F
:104D40003728A3124C56500DE47AB328AD124DC249
:104D50002803124DDE7EC7288ABDCD081F7E2400A1
:104D6000027D3D121C646E34FFFF0B34BE37288E6B
:104D7000580A124C565005E47AB328AD12A1C0B4BB
:104D80000105E47AB328AD12AA2F7EB33488BEB0F1
:104D900000281F147AB334887018E47AB328AD124F
:104DA0004FD27AB316917AB316907AB328847AB335
:104DB00026832274017AB328AD227E832884BE80A4
:104DC00000227E732884BE7000227EB328A8BEB065
:104DD000012274027AB33488124FD2022B3EE47A55
:104DE000B334887AB328AC7402022B3E1249021203
:104DF0004C59124FA67EB337CAB4011E7E3461C02F
:104E00001287F77E240005AD127A1728A17E14615F
:104E1000C2124E4EAD327A3728A37EB3344E6007AD
:104E2000147AB3344E80067EB328AC600912887DB4
:104E3000128B5D12B76D7EB328AD600912BBDA121A
:104E4000A83A02AD0A227D2E9D237E1461497E047C
:104E500000FF0B0A30227DE39F117E146143128212
:104E600055906135E49370037D3E22906136E49362
:104E7000B401067E832A6F80047E832A7012C79B4A
:104E8000BEE4003F381E7E24003F9D2E7E14614705
:104E9000124E4E124F9B906145124F9248027F1066
:104EA0009F017F101257F0BEA000283C7D149E1475
:104EB000003FBD1E381B124FDABD1E40147D349ECC
:104EC000340040124E46124F85483A7F101B1C801A
:104ED00034124FDABD1E50377D349E340020124EFE
:104EE00046124F9B7D1F80234CAA7823124FC3BDCF
:104EF0005E381C7D349E340040124E46124F854869
:104F0000047F101B1C0A0B7D1F9D106D002F10BE0F
:104F1000E4003F286F124FC3BD5E28687DD40BD4D8
:104F20001ED47D5D1B54BD5E400C7D359D3E6D22C3
:104F30007E14614B800A7D3E9D3D6D227E14614D45
:104F40007E0400FF0B0A10121CA7124F9FBD5E7D4E
:104F50001F400C1E141B146D009F017F1080061E45
:104F6000146D002F10906145124F9258047F1080ED
:104F700013906146E4930A0B7D1F9D106D00BF10D6
:104F800008027F1022AD326D227C767C651A249057
:104F90006146E4930A1B6D00BF1022AD326D227C86
:104FA000767C651A242212AD736017124DB37E37DA
:104FB00028A13E347A3728A17E3728A33E347A3799
:104FC00028A3227D549E54003F227E732885BE7004
:104FD000002274017AB328ACE4227D049E04001FF1
:104FE0007ED460D17EC400FF0B6A102D10227E7328
:104FF0002884BC7E227E0400FF0B0A2022CAD8CA65
:10500000797E732A6E7EF32A6DACF77D373E347E4F
:10501000081F34E4121F6B7EB3387BB401687E73C3
:10502000387CBE7000285F6CDD80407E3403E8125F
:105030002673123CFB6D3380287E35243E34493381
:105040000DC8121FAD7A35267E35247D133E1449D6
:10505000211F34BE252658077E252659211F340BD3
:10506000347A3524BE752438D00BD07E73387CBC9E
:105070007D38B87D373E34CA397E181F347E080D1E
:10508000C8121F461BFDDA79DAD822A209E4337A66
:10509000B3388E7E733892BE732B0B680AE50C70A2
:1050A0000612512E1250A8227E732B5E7A7338930B
:1050B00022CAD8CA797CDB9061C5E4937CABBED0B0
:1050C0008078187EE0FF6CFF800B12512238047C40
:1050D000EB7CDF0BF0BCAF38F1801ABED0817815C5
:1050E0006CEE6CFF800B12512240047CEB7CDF0BDA
:1050F000F0BCAF38F1BCAD38026CDD7CBD1266028D
:105100001251467E732B1B7A73388212515F7E7365
:105110002B0B7A7338921250A87AD3386ADA79DA7C
:10512000D8227E9005AC9F09B42633BCBE227E7384
:105130002B0B7A7338927E732B1B7A7338827E73B3
:105140002B1C7A7338817E732B107A73388322304C
:105150000003125146A201920212521E02515F7EBA
:10516000732B1C7A733881227440123E765009D218
:1051700000D20112514F801C74011251A27E43389B
:105180007F7E5064AC451288537AB32B1B7E0F3A56
:105190001B1255F512515F7E732B1B7A73388202F6
:1051A0005146CA3B7CDBE47AB32B101257DA7EC03F
:1051B0000A1256C8300AFD740112000E7E1F3A1BF7
:1051C0001297FA7D73BE74FFFF78091252122E34C3
:1051D00000038018BE74800028071252120B35801D
:1051E0000BBE744000280C1252120B341B0A301BE9
:1051F000C078BEBED00178097E1F3A1B128FFB7D9E
:10520000737E1F3A0A6931001A7A732B107D37DAE0
:105210003B227E0F3A0A2E14001A0B0A3022CA3B98
:105220007E34FFFF7A35357EB33875F52A7EB32A92
:105230006DF52B7EB32A6EF52C7EB32A70F52D7E8C
:10524000B32A6FF52E7E3427107A352F7E18400052
:105250007A1D311256C1300AFD740112000E7E080B
:1052600034001256B96CFF803512549A6CEE8019D6
:105270007E112CAC1E3E047E3002AC3F2D107E1DF4
:10528000312D310B1A101254A1E52EBCBE38E1E5C8
:105290002E1254B07402ACBF593534000BF0E52D1A
:1052A000BCBF38C512C75E680B7E3410001254D6DE
:1052B000593533FE6CFF807812549A6CEE801412CC
:1052C00056921E341E2450034E60801478F47D13D1
:1052D0001254A1E52ABCBE38E6E52A1254B0740483
:1052E000ACBF5935035FE52ABEB12D503512549A33
:1052F0007EE12A80141256921E341E2450034E6002
:10530000801478F47D131254A1E52DBCBE38E6E577
:105310002A0A3B6D22E52D0A1B6D009F011254B431
:1053200080047E3410007404ACBF593503610BF067
:10533000E52EBCBF3882E52D0A1B6D007E1800CC1F
:10534000121CB26CFF802E7402ACBF492534000AD7
:105350005FAD537E1410009D15AD12740C1E141E0B
:105360000450034E20801478F47D217402ACBF59A0
:105370002534000BF0E52DBCBF38CCE52B0A1B6DA6
:10538000007E18007A121CB26CFF805B7E3004AC89
:105390003F4921035F0AFFADF37DDF2ED41000AD3E
:1053A000D2740C1ED41EC450044ED480001478F362
:1053B0007D2D5921035FE52ABEB12D50287404AC20
:1053C000BF492503617E1410009D1FAD12740C1E91
:1053D000141E0450034E20801478F47D217404AC14
:1053E000BF592503610BF0E52BBCBF389F7E733896
:1053F000770A376D22740C2F111478FB7EF4006449
:105400007D1F121CB07DE37AE5357E7338780A374C
:105410006D22740C2F111478FB7D1F121CB07D635C
:105420006CFF80207402ACBF49453400BE4535286E
:10543000097E3535593534008008BD46500459651C
:1054400034000BF0E52DBCBF38DA6CFF803A7404F1
:10545000ACBF4945035FBE453528097E3535593512
:10546000035F8008BD4650045965035F49450361E9
:10547000BE453528097E3535593503618008BD465E
:105480005004596503610BF0E52BBCBF38C03002F6
:10549000067E0D311255F5DA3B229F117A1F24F456
:1054A000226D007E1F24F42F107A1F24F40BE022BB
:1054B0000A1B6D007E1F24F4121CB27A1F24F47E96
:1054C000252F740C7D137D326D2260052F11147809
:1054D000FB0B14021CB07EA12C7402A422CA3B7EDA
:1054E000081F341256B97E1F3A207A1D2690612774
:1054F00093F52D7EB339C8B401067E3839CA8004CD
:105500007E3805F86D337A352A740212001E7EB398
:1055100039C9700E7EB339C7700874017AB339C9BE
:10552000A1B17EB339C9700674017AB339C97EB3AB
:1055300039C8B40117752C0080091254D61255E5EC
:10554000125681E52DBEB12C38F0801B752C0080E1
:105550000F1254D61255E53E243E241E24125681C5
:10556000E52DBEB12C38EA7E3461591222247A35F9
:105570002E7E181F347F0112A703752C008016128F
:1055800054D61255DEBE352A08091254D61255DEFD
:105590007A352A052CE52DBEB12C38E31255ED40A5
:1055A000257EB339C8B4011E051DE51DBEB00A40F5
:1055B00015751D00E52D0A3B3E34CA397E1D267F38
:1055C00003121F461BFD740212001E1255ED500BF4
:1055D00074027AB33A1FE47AB339C9DA3B22493507
:1055E0001F34021FAD7F132D350B1A20227E372B5F
:1055F00003BE352A221255FF0B347A732B1C22CAA4
:10560000797F109F001257F04CAA78067E34004034
:10561000806C6C9980380AE92EE460AC7D7E7AF16A
:10562000827AE183E4937C8B9060AAE493700E7E8F
:10563000F32A6EACF87EB32A700AFB2DF77DEF3E9D
:10564000E47F612DDE0B6AD06DCC2F060B90BCA9D8
:1056500038C4BE08000078020B0C0A5A6D447F1053
:105660007F02121CB27F010B0C7E34CA007E240024
:1056700008121CB2BE3400FA28047E3400FADA792B
:10568000227E0D262D150B0A309D3259351F34050B
:105690002C227E112CAC1F3E047E3002AC3E2D101D
:1056A0007E1D312D310B1A207A2724F27402ACBEF4
:1056B00049353400AD23740C227E340038E4021FD7
:1056C0006B7E082A6D120BB8E412000E74017E7016
:1056D000991211FA02004EB403051256E78002E453
:1056E000221256CC7401221277F6E412000E7E08C4
:1056F0002A6D020BB8127F563802E422127F454908
:105700005533E8BEB00238030237330256D77E0B5A
:10571000707A732B0B297000047A732B5E2970004A
:10572000017A732B10297000037A732B1C1257E82F
:105730001257E1D200C20102514FCAF86CFF803407
:105740007E73004EBC7F682A7E3005AC3F1257C185
:10575000CA397E3038AC3F1257CF121F461BFD7E30
:1057600034008CCA397E308CAC3F1257B6121F46BB
:105770001BFD0BF09061C5E493BCBF38C37E2300D2
:105780004E7E3005AC231257C1CA397E23004E7EAF
:105790003038AC231257CF121F461BFD7E34008CCD
:1057A000CA397E23004E7E308CAC231257B6121FAE
:1057B000461BFDDAF8222E14012F6D007E18035FC0
:1057C000222E1426336D0012570E7E340038222EFE
:1057D00014004F6D007E183400227E082A6D020BE3
:1057E000B87E082A6D0201201262A57A372B172293
:1057F0009060A7E4937CAB2224AB681024EF681C74
:1058000024DE682624DE782F7405802D7EB303FF06
:10581000B4052A1225DF12585B0258447EB303FFF9
:10582000B4051A1225DF75E9FF227EB303FFB40524
:105830000C1225DF02583E74017AB303FF2275E78C
:105840006B025844E47E34D7FC7E2400FF7A1BB000
:105850007E34D7FD7A1BB075E9FF227E14D7E87E2F
:105860000400FF7E3447527E245550793000021BDD
:105870000A207E3445207E24414479300006792078
:1058800000047E3499337E2466CC7930000A792076
:1058900000087E3441477E24464C7930000E792042
:1058A000000C227E0838B71258DA7E0838BF12582A
:1058B000DA1258EF1258F60258BA7E3738B7BE34AB
:1058C000000028157E733A34BE7005500C7EB33745
:1058D000F57006123A6D123A74220B0A30E54D0A41
:1058E0002BBD3228049D3280026D331B0A30227E8C
:1058F000082BB30258DA7E0834410258DA7E732846
:10590000937A7328947E732A027A732A03E47AB313
:105910002A06227E3703EC0B347A3703EC7E3703FA
:10592000EEBE3703EC280302592E22025913E59AE2
:105930006005D29CA9D6DF22CA7BCA6BCA5BCA4B60
:10594000CA2BCA1BCA0BC0D0C083C08212592BD02D
:1059500082D083D0D0DA0BDA1BDA2BDA4BDA5BDABF
:105960006BDA7B32740122E4125C0212B85F7E347F
:1059700003E8122673125FCB125C6D12B7E712B800
:105980006B12000A12B877125B5F12B887D2AF129F
:10599000B7F11259B9125BD4125C337E0803F012CE
:1059A0005BAE906050E493CAB8906051E4937C7B06
:1059B0007E24FFFFDAB8021134D2C843ED0FC2EAE9
:1059C00075B313A9D1B4A9C0B4125B4FE41259DC6A
:1059D0000259D3A9C5CAE47AB33A3A22CAF87CFB81
:1059E0007402125A5A4CFF78055E70DF80034E70C5
:1059F0002074021259FDDAF82274067D307D237C72
:105A00006B0A147C737D527CAB7EB33A3AB4A542E8
:105A1000125AFA75B501A936B3FCA9C6B375B5001B
:105A2000A936B3FCA9C6B375B500A936B3FCA9C69F
:105A3000B37A61B5A936B3FCA9C6B37A71B5A936F4
:105A4000B3FCA9C6B37AA1B5A936B3FCA9C6B3A95C
:105A5000D2B42274047D300259FD7C6B6C776CAA41
:105A60007EB33A3AB4A552125AFA75B505A936B3BF
:105A7000FCA9C6B375B500A936B3FCA9C6B375B504
:105A800000A936B3FCA9C6B37A61B5A936B3FCA99F
:105A9000C6B375B500A936B3FCA9C6B375B500A9E0
:105AA00036B3FCA9C6B37E71B575B500A936B3FC93
:105AB000A9C6B37EA1B5A9D2B47C476C550A3A4DAC
:105AC00032227D427F607D03125B4F7402125A5A6C
:105AD0007DF34EF400014EF4000A125AF37A453673
