:10000000021ECC02BD3AEBAA082222020049B40229
:1000100004A9B7EA2224FFA997EA2202BD0EB4027E
:1000200004A9B6EA2224FFA996EA220281477F604A
:10003000A9C2EA74011212967F0612048D7F06028D
:1000400008D02202816302335D323202004A120F6D
:1000500069021279000000000000320200760102FD
:10006000040810204080F5FDE5FE2202005A023708
:10007000FAFFFF020F19CA7BCA6BCA5BCA4BCA2BB5
:10008000CA1BCA0BC0D0C083C082D20F7E0F33CD33
:10009000693000047A7333DD7E7333DD0A375E34F2
:1000A00000046804D20E8002C20E7E34001F793034
:1000B0000004C2C312119E1281A67E1F33CD693186
:1000C00000025E340040682E6CAA7E1002AC1A7EDC
:1000D0001F33CD7F712DF06917009C591033D10B60
:1000E000A0BEA00378E4691100A47A1733D969315E
:1000F00000A27A3733D7A9C1C4D082D083D0D0DA56
:100100000BDA1BDA2BDA4BDA5BDA6BDA7B327D1334
:100110007E1F3A001B1A10C2C6D2EE22FFFF542CDB
:10012000CA797F507CEB7E3400247E08002C7E242C
:100130000002126416E52CBEB0003802214AE52CFC
:10014000BEB0182802214A7EE12CBEE018380221F8
:10015000787E341D45793500027E341D29793500BD
:1001600004BEE0816802217174237A5BB0741C4183
:100170005D74017A5BB0415D7CBE14BEB015400277
:1001800041097EA003A490018A730201CB0201CB36
:100190000202090201CB0202090201D10201CB02D3
:1001A00002090202090201CB0202090201CB02028A
:1001B000090202090201FB0202090201DF0201CB6E
:1001C0000201ED0201ED0201CB21CB7E341D19416C
:1001D0000D7E341D45793500027E341CE241157ECA
:1001E000341D19793500027E341CB241157E341C51
:1001F00096793500027E341CC641157E341D0A797D
:100200003500027E341CF141157E341D45793500E0
:10021000027E341D2979350004BEE01628024124EF
:100220007CFE413B7EF016BEE049680241320BF095
:10023000413BBEE04A6802413B0BF17E7003AC7F5C
:100240007D232E241D697A51827A4183E4937A5B5F
:10025000B02E341D6A7A71827A6183E49339B500D5
:1002600001DA7922CA3B7F3074011212DE29730051
:10027000F32E70FF920129B300F41212AF7F031224
:100280000BE97F031205932973000A0A377E0F33A7
:10029000CD79300024297300A30A273E243E243E52
:1002A000243E243E243E243E24693300FF4D327E0A
:1002B0000F33CD793000022973000A0A47297300F1
:1002C000050A579D54F53529B300A5700B29B300D5
:1002D000F8297300F7120A24297300A52E70FF92E3
:1002E00001E535120995693300FD7E0F33CD793074
:1002F0000028692300FB3E243E243E243E243E2465
:100300003E24297300FA0A372D327E0F33CD79301F
:10031000002A297300F90A377E0F33CD7930002C7B
:100320007E3400017E0F33CD793000347E34010BF2
:100330007E0F33CD7930002E297300050A377E0FEA
:1003400033CD79300010693300A87E0F33CD79307A
:10035000001C693300AA7E0F33CD7930001E6CAAD1
:100360007E5002AC5A691301012D127E0400FF0B6E
:100370000A307E0F33CD2D12793000440BA0BEA081
:100380000C40DDDA3B22CAF87F707E7BF0297700D3
:1003900001BC7F28027CF7691700066D007E3400DF
:1003A000F274FF121FEE7F07120DC4A9D6CB6CAA00
:1003B000802D6C77801F7E100BAC1A0A172D013E22
:1003C00004691700062D106D000B0A206E24FFFF34
:1003D0001B0A200B7029670001BC6738D90BA07E6F
:1003E0007B60BC6A38CC693700067E0F3A097930E9
:1003F00000047C4F6C550A3F2D327E0F3A0979304C
:10040000000C6D117E1F3A091B1A107E3400D012A9
:100410000E1C6CAABEA00450187E7004AC7A7CB787
:100420007E1F3A096941002660421E441478FB8011
:100430003BBEA008501B0A3A1B363E343E347CB704
:100440007E1F3A096941002860221E441478FB800F
:100450001B0A3A9E3400083E343E347CB77E1F3A75
:10046000096941002A60051E441478FB5E44000FB0
:100470007E5002AC5A693700062D326D221B1A409D
:100480000BA0BEA00B408DA9C6CBDAF822297000C4
:100490009629900098296000972980008DBE8004DD
:1004A00038046CAA8021BE800838057EA001801720
:1004B000BE801038057EA002800DBE802038057EEB
:1004C000A00380037EA004BE900328037E9003BE99
:1004D000803F28037E803FBE600128037E6001BE0E
:1004E000700228026C770A283E243E243E243E24D3
:1004F0003E247C896C993E443E443E442D420A266B
:100500003E243E243E243E242D240A373E343E34ED
:100510002D327E7F3A007937000229B0008C7C4B67
:100520006C5529B0008B0A3B2D327E7F33C579375D
:100530000080693000A07E7F3A007937000C693076
:10054000009E5E34E00F29B0008C0A2B1B243E2451
:100550003E243E243E242D327E7F33C579370082EF
:100560000A2A3E243E243E243E2429B000990A3B18
:100570002D327E7F3A00793700066930009C7E7FFD
:100580003A00793700086930009A7E0F3A007930D6
:10059000000A227F6074011212DE293600F5292636
:1005A00000A3291600A4BE200228037E2002BE104C
:1005B0004028037E10407E3400047CB260053E3447
:1005C0001478FB7C070A317E2F33CD793200127C00
:1005D00073AC700A21121DB37C270A327E2F33CDF3
:1005E000793200147C73AC70292600F60A22AD32F1
:1005F0000A218D327D437C73AC700A21121DB37CBD
:10060000A77C2A7CB92CABBEA00C50037EA00CBEEC
:10061000200C50037E200C0A200A31121DB37DE30A
:100620000A3A0B34AD3E0B34BE34020040047E3433
:1006300001FF294600F77E5002AC450AF2ADFE2DBF
:100640002F0B24BE24020040047E2401FF0A137EE7
:100650007F33CD7917000A1E247C456C551E342D3E
:10066000327E0F33CD7930000C0A3A7E0F33CD79CC
:10067000300022227F21A9D6CB693000047E7F3A48
:100680000979370004693000087E7F3A097937001C
:1006900006693000067E7F3A097937000829700024
:1006A000017C476C557E0B700A372D327E7F3A09EC
:1006B0007937000C297000020A371B347E7F3A0913
:1006C0007937000A6930000A7E7F3A097937000ECF
:1006D0006930000C7E7F3A09793700106930000ECE
:1006E0007E7F3A0979370012297000037C276C332A
:1006F0007E1F3A091B1A107E3400A0120E1C7E1FAA
:100700003A096911001A7A2B306911001C3932003C
:10071000016911001679120002691100187912009E
:10072000046911002279120006691100247912006F
:10073000086911001E7912000A693100207932001F
:100740000CA9C6CB227C7B7E7F33CD6947000C6C25
:10075000883E446907000A695700021E541E541E51
:10076000541E541E541E541E545E5400037E140026
:10077000047002E17A3E141478FB7CA30ADAADD04F
:100780007DCD6D117917008C7CB77002E1931ED47A
:100790001478FBBED401003802E1A17ED40100E14F
:1007A000ADBED400104002E1AD7ED400107D3D12FC
:1007B000116A0A1B7E1F33CD791100907E1F33CD45
:1007C00079D1008E7E7F33CD69370008AD3C8D3DF9
:1007D000793700927E1400067E1F33CD7911009484
:1007E0007D249D200A3AAD327E0F33CD79300096BC
:1007F0007E3400107E0F33CD7930009822B28622ED
:10080000CA3B7C577C4B5E4003693000045E603F0E
:100810006CAA0A4A69F0000A69E000082DF47E7BA0
:10082000B00AFB7D4F7C896C997DF40AEA69D0009F
:100830000E69C0000C2DDE7E6BB00A4B2D4F7ED0B2
:1008400028ACD57EF002ACFA7DD72DD67EF0F0AC88
:10085000F42DD77E7F39FC2DFD7947018C0BA0BE8E
:10086000A00E78AE6CAA7E9002AC9A69F000020BE2
:100870000AE02DF40B7A407ED028ACD57EF002AC95
:10088000FA7DD72DD67EF0F0ACF42DD77E7F39FCE3
:100890002DFD794701800BA0BEA00440C97E90F0D9
:1008A000AC947428ACB57DF52DF47E2F39FC2D5F0A
:1008B00079320188693000067E30F0AC347428AC9F
:1008C0005B2D217E0F39FC2D127930018ADA3B2213
:1008D0002960000B0A46296000040A262D247C6545
:1008E00029B00006BCB628027C6B2970000529B02F
:1008F0000007BCB728027C7B6CAA6D227E9002ACFC
:100900009A7E7F33C52DF4792700020BA0BEA02369
:1009100078EA6CAA80550A2A7F702DF22957004C7C
:10092000BE50235023294700B40AD47D4D7C896CE6
:10093000997DD47E9002AC957E7F33C52DF40BF566
:100940000B7A404D4D1B7A400A4A7F702DF429479F
:10095000004C0AD47E9002AC9A7E7F33C52DF40BF6
:10096000F50B7A404D4D1B7A400BA0BC6A38A76C42
:10097000AA801D0A2A7F702DF22967006F0A467E21
:100980005002AC5A7E7F33C52DF2794700480BA048
:10099000BC7A38DF227C5B7E0F33CD694000223089
:1009A000016B6DFF7D3FBE5010282E7E54FFFF79F6
:1009B0005000429E50106CAA80117EE400017CBA67
:1009C00060053EE41478FB2D3E0BA0BC5A38EB7E4C
:1009D0006F33CD79360040802579F000406CAA80D5
:1009E000117EF400017CBA60053EF41478FB2D3FC3
:1009F0000BA0BC5A38EB7E7F33CD793700427D3473
:100A00002E34000C7E7F33CD79370016226D33797A
:100A10003000407E0F33CD793000427E1F33CD79D8
:100A2000410016227C177C3B6D337E2F33CD79320B
:100A300000407E2F33CD793200427E7F33CD69571F
:100A400000127CAB693700021E341E341E341E3483
:100A50001E341E341E345E3400037CB77E44000412
:100A600060053E441478FB7C290A220A3A121DB321
:100A70000A232D327CB77C616C770A0B1E042D0390
:100A80007907000C7C73AC720A2A121DB37E0F33F7
:100A9000CD793000166D337E0F33CD7930002222B0
:100AA000A9D6CB693000067E2F3A09793200046955
:100AB0003000087E2F3A0979320008297000027C44
:100AC000476C55297000030A372D327E2F3A097979
:100AD00032000C7E0B707C47297000010A372D32E2
:100AE0007E2F3A097932000A297000040A377E2FD6
:100AF0003A097932000E29B0000554017C2B6C3381
:100B00007E1F3A091B1A107E3400C0120E1CA9C6A3
:100B1000CB22CA797CAB5EA0036C777E5002AC57C7
:100B200069D0000E69C0000C2DD2296600010AF6BA
:100B30007D4F7C896C997DF47E6B600A462D4F7EDB
:100B4000F0F0ACFA2D277E7F39FC2DF27947025464
:100B50000B70BE700E40C4694000047EF0F0ACFA29
:100B60007E1F39FC2D37794102506930000674F040
:100B7000A47E0F39FC2D1579300252DA7922A9D6DC
:100B8000CBC21E693000047E2F3A09793200046915
:100B90003000067E2F3A0979320006693000087E5F
:100BA0002F3A09793200087E0B707C476C5529700A
:100BB00000010A372D327E2F3A097932000C297054
:100BC00000020A377E2F3A097932000E29B000035D
:100BD00054010A5B7CABE47E1F3A091B1A50693052
:100BE000000A120E1CA9C6CB22693000AE7E2F333C
:100BF000CD79320006295000A60A557D231E249D7A
:100C0000257E2F33CD792200187D231E241B257EBF
:100C10002F33CD79220038692000FD1E349D329E8D
:100C200034000A7E2F33CD79320026297000A70ABE
:100C3000377E2F33CD7932001A2970000B0A27290D
:100C40007000042D327E2F33CD793200080208D097
:100C5000A9D6CB693000047E2F3A097932000469A5
:100C60003000067E2F3A0979320006693000087E8E
:100C70002F3A09793200087E0B707C476C55297039
:100C800000010A372D327E2F3A097932000C297083
:100C900000020A377E0F3A097930000E6D117E1F6F
:100CA0003A091B1A107E3400E0120E1CA9C6CB2292
:100CB000CA3BF5247F417F30E5257E0800261201DE
:100CC00020E524BEB02328037524236CAA80360AAD
:100CD0003A2D397D287E1BB0BEB126400D74230A03
:100CE0004A7F032D147A0BB080197E1BB00A3B2E6D
:100CF00035287A71827A6183E4930A4A7F132D340E
:100D00007A1BB00BA0E524BCBA38C4DA3B22A9D6C2
:100D1000CB692000047E2F3A097922000469200063
:100D2000087E2F3A09792200087E0B500A557CABC9
:100D3000E4295000010A252D257E2F3A0979220049
:100D40000C295000020A257E0F3A097920000E7EF8
:100D50000F3A097930000A6D117E1F3A091B1A10EB
:100D60007E340040120E1CA9C6CB227CAB7E340020
:100D7000017E0F3A007930000EC21DE47AB339FBD0
:100D80005EA0030A1A3E147E1F33C51B1A107E0F85
:100D900033C52E1400840B0A304E70201B0A3074A9
:100DA000011212567E0F3A000B0A304E700C1B0ACD
:100DB00030A9D3CD7E0F3A000B150B0A304E7001CF
:100DC0001B0A30227F10A9D6CB691100027E2F3A70
:100DD0000979120004691100047E2F3A0979120082
:100DE00006691100067E2F3A09791200087E1B3031
:100DF0000A037E140100AD10297100010A372D315C
:100E00007E0F3A097930000C6D117E1F3A091B1ACA
:100E1000107E340060120E1CA9C6CB22A9D7CB7D50
:100E2000234E50017E0F3A090B0A304D321B0A3017
:100E3000801E7E0F3A090B0A307D235E240008BE17
:100E4000240008780BA9D7CB4E70041B0A30D21EA1
:100E50007E0F3A090B0A307D235E248000BE248079
:100E60000078CF4E60401B0A306D117E1F3A091B7F
:100E70001A1022CA3BF5247F417F30E5257E080009
:100E8000261201206CAA80360A3A2D397D287E1B55
:100E9000B0BEB127400D741C0A4A7F032D147A0B93
:100EA000B080197E1BB00A3B2E352A7A71827A6196
:100EB00083E4930A4A7F132D347A1BB00BA0E524F8
:100EC000BCBA38C4DA3B22CAF87DE27DD37CFBBED3
:100ED000300128067EF40010800FBE300028067E08
:100EE000F4000880047EF400047D1F6D006D337EE5
:100EF000240010121E527F017D3D6D22121DE57DE2
:100F00001E121DFF7404ACBF7E0F33CD2D1579303A
:100F1000008279200080DAF822CA7BCA6BCA5BCAD9
:100F20004BCA2BCA1BCA0BC0D0C083C082D21D7E45
:100F30000F3A000B0A307C577A5339FB4E700C1B6A
:100F40000A30C2C66D337E0F3A007930000E12119E
:100F50009E1281A6D082D083D0D0DA0BDA1BDA2B96
:100F6000DA4BDA5BDA6BDA7B327403121256A9D1F0
:100F7000C47E0F33C52E1400840B0A304E70201B24
:100F80000A307E1400017E1F33C51B1A107E0F33FA
:100F9000CD0B160B0A304E70011B0A30C20FE47ADB
:100FA000B333DD7E1F33C50B1A305E34000178F396
:100FB00074020212567C6B6CAA80177E9002AC9A67
:100FC0007E7F39FC2DF40B7A207F702DF41B7A2064
:100FD0000BA0BC7A38E56CAA80207E5002AC5A7E09
:100FE0007F39FC2DF2692700380AF70A4A2D4F3E57
:100FF000447F702DF41B7A200BA0BC6A38DC22FFE2
:10100000CA797CAB5EA0036C777E5002AC577F60E0
:101010002DD2296600010AF67D4F7C896C997DF4FA
:101020007E6B600A462D4F7EF0F0ACFA2D277E7F56
:1010300039FC2DF2794702540B70BE700E40CADAAB
:101040007922295000F5AC5B7E0F33CD6930000C5E
:101050000A563E54BE24020040047E2401FFBD25F2
:10106000281F2E14000C6C661B0A301E247C456C55
:10107000557E0F33CD2E14000C0B0A304D321B0A57
:1010800030227C6B6CAA7E5028AC577E9002AC9AC2
:101090002D427E50F0AC562D247E7F39FC2DF26916
:1010A00027018C6C440A4A7F602DD47E6BB07C8B08
:1010B0006C994D247927018C0BA0BEA00E40C7224D
:1010C0007C6B6CAA7E5028AC577E9002AC9A2D4265
:1010D0007E50F0AC562D247E7F39FC2DF26927011D
:1010E0008C6C550A4A7F602DD47E6BB00A4B4D2420
:1010F0007927018C0BA0BEA00E40C9221262BD7CD4
:101100006B12BFE47C7B6CAABE60156804A5BF159A
:1011100022BC7668057EA0F1800B12C06ABEB05179
:1011200068037EA0F27CBA12C0654CAA68051267FB
:10113000CC80FE22A9D6CB543F5E701F7C2B6C3333
:101140003E143E142E1400050A373E343E343E341D
:101150003E343E342D317E0F3A09793000027E0F45
:101160003A0979200014A9C6CB227D236C667E3013
:1011700002AC362E141F9F7A31827A2183E4930ABF
:101180001BBD1228070B60BE601440E27E7002ACEB
:10119000672E341FA07A71827A6183E493227E0FD6
:1011A00033C52E1400840B0A305E70DF1B0A3074C6
:1011B000031212567E1400037E1F33C51B1A107EC5
:1011C0001F33C50B1A305E34000178F3E402125667
:1011D0002E3404007E0F33CD793000607E3404005D
:1011E0009D327E0F33CD793000627E3400017E0F58
:1011F00033CD793000640A3B7E0F33CD7930006601
:10120000227CA5BE34000028100A1B3E147D237CDE
:10121000456C552D210A3A80080A2B3E247C676CC8
:10122000772D327E0F3A0079300004227CA77E1F92
:1012300033C56941008A5E44100F0A1A3E143E14F9
:101240003E143E140A5BC42354E07CABE42D514DA4
:10125000457941008A227E0F33C5693000845E7073
:10126000E71BB1680C14680C0BB178054E70108048
:10127000034E700879300084227E34001F7E0F33C5
:10128000CD79300004A9D2CD7E0F33CD0B0A304E7C
:1012900070011B0A3022BEB000280AA9D7CAA9D300
:1012A000CBA9D2CB22A9C7CAA9C3CBA9C2CB223012
:1012B000010A54030A3B2E34020080026D337E0F74
:1012C00033CD7930003A227E0F33C56930008A6011
:1012D000054E601080035E60EF7930008A22BEB058
:1012E000002809A9D6CAD2CDA9D1CB22A9C6CAC283
:1012F000CDA9C1CB227E34000F7E0F33CD793000D3
:1013000004C2C3D2EB22060E151A1F262B2D2E2F38
:101310002C2A241F1A140F080303060B10151C2275
:10132000282D34393D400E0300000003080C11162F
:101330001C232B32373C40454A4D4C4B4A484646CD
:1013400045454444434445786555020D141B212509
:101350002B313736332D282019140D080102050BC7
:1013600010181E232A30353A3E3F000101000000CC
:1013700000000104090F151D242A30353B3E3F4073
:101380003F3E3D3D3C3C3B3B39371A2D65551B29C3
:10139000271E14111A262E373D3F3D372E21160CDD
:1013A0000501000001030A131D262E33383A1621C9
:1013B0002B32302A272A2F2D241A1007010002076A
:1013C0001019232D3641494C4A453C342A27517186
:1013D00050552812111823292B2A2E353C3E3F390F
:1013E00031281E150E0603010000030C16202B32B7
:1013F0003739202932373128212A312D231B130870
:10140000010001050C182029343E474F504D453C42
:10141000343126CB50551D2F2C251A1B2029313154
:101420002E2D353D3F3D382C22150D0601000106BD
:10143000101B242F383D0D1B273132281E14151D7B
:101440002831342A1F14090100040D17212C3540BE
:101450004747443C34301B825055192E2A1F181B15
:10146000222D302E2E353D3F3D3A2F24180F0701F7
:101470000000030B161E29323A3D111F2832302678
:101480001B141C252E352E23191104000108101CD5
:1014900025303840423F39322C27C0D15055182CC6
:1014A000291E1413161E29302E2C2B373D3F3E3992
:1014B00030251B100801000209131F2D383C111A9A
:1014C000232F332920160E131D283231281E160B08
:1014D00002000108121E29333B3F3C322926306EA0
:1014E0005055162B24170D0A0E15242825232B36AC
:1014F0003B3D3B372B20150B040000030E1927330F
:101500003D3F13212E373A31271C131C28343E3718
:101510002D22180C0100030D1825313C4748423894
:101520002E2A31625055352E27221F1B16100C080B
:101530000604020000000103060B0E12171D2226EE
:101540002A3035393D3F0000010406080B10161BF8
:101550001F23282D32363B4044484A4B4C4B4A48C7
:101560004643403E3C3A3C9C345509171D262E37D5
:101570003C3F3B332B221A110B05030101000000F5
:1015800001060A1119222A32393D30302F2C261E2D
:10159000170D05000001060E151E262C323A414893
:1015A000505B616464605B56514FD82C3355261CE8
:1015B00019181818181818181717150F090401000A
:1015C00000000001040B12181F2831373C400107AE
:1015D0000E141C232C343E444C545B605D554F4923
:1015E000433D38322B26221F1E1C1C1C1C1D66541A
:1015F00074553E2C211D1D1D1D1D1D1D1D1D1D1D58
:101600001E1E1D1A110C07020000030A121C232CB7
:1016100038400C00060F172229323B41474F555CDA
:101620006671793E766D645A524B423935333232A7
:101630003131F3DB7455090706060505040404047B
:1016400003020202010000000000030A10141B2222
:10165000282E34393D40000B11161B22282C33391B
:1016600040464D52565C61686D7373717171707054
:101670006F6F6F6F6D6E79804455171312121110D2
:101680000F0D0C0B09080704030201000000010400
:101690000B10161D242931393D40000E161A1F2447
:1016A000292E33383E434750555962696E757CFF89
:1016B0007D7C79736D68605A57565D084455000704
:1016C0000B0D101216171718181919191C1E2022A5
:1016D000232527292B3032333538393B3D3F3E29EE
:1016E0001F180F07060C121D252D363E3B352C26E4
:1016F0002019110A0303091018242C333A3E609B69
:101700003255000505050403020305070A0E1119E9
:101710001B1C1D1C1C1D1F22252A3133353738394F
:101720003C4000121C242B343C392F2921160F0D6C
:10173000141E2A333127201810070A101A262F37B3
:101740003D3FFB8F32552C231F19130C070300005C
:101750000001050A0F161D232A30363B3E403F3E4E
:101760003B38332F2B280901000103090E141B21DC
:10177000272E363B3E4141403D3A362F2B26201C3A
:1017800016100C0A090B36DC30551A090501000049
:10179000000205090F161C222A3136393C3E3F3F14
:1017A0003D3830271F18120B0605071219222C3658
:1017B0003F49535C6366645F584C433D342B221BA6
:1017C000150B04000001040B1318F10C3055182CF4
:1017D00034393C3D3F3F3F3D3B36302A241C160DFB
:1017E000060100000001010305090F171E24010274
:1017F000080E141A2128303740495055595C5C585E
:1018000051483F38312B251D17110A0401019DBF96
:101810003055160702000000000104080E161F28AC
:1018200030383C3E3F403F3F3D3B37322C251D1674
:101830000F0C53463E352E27201A140D06010000CA
:10184000030A131A20272D333A40484F54585A5A46
:101850005857C65530550701040A1018202A323847
:101860003C3E3F3E3D3B393530272119120B0603E4
:10187000010000000000321D1209050100000105F1
:101880000D17202A323B454E5863696B6A645D57D9
:101890004F474038322F1AB5305521130C08050236
:1018A0000100000103080F171E242B32393D3E3F73
:1018B0003F3D3A363029211A161305090E141A2213
:1018C0002930383F474D51514F4D494239312B2531
:1018D0001E171008030000010305AF133055383FF1
:1018E0003D3A362E261F140B0602000000010205A9
:1018F000090E141C232A34383A3B3D3D3D3D291A3C
:10190000100904000001040C141C22282F373F4743
:101910004F565A5B59564E4740373028221F2AA946
:1019200030553E3B38332B241D16100703010000B1
:1019300000010103060C151C23292F35383B3C3EC2
:101940003F3F1F100A0600000002040C12181E255B
:101950002C353C424A515656534E49403A332C2579
:101960001F1CF9A230551F2B3135383B3E3F3F3D00
:101970003A342D27231D1710090401000001030626
:101980000A0F151B202345423E38342D241C151107
:101990000B06020000000103070D12182028303644
:1019A0003C424748494A659D30551C2A33393C3EE4
:1019B0003F3F3E3D3A352E28231C150F09040100F8
:1019C00000010104080D13191E22403E3A332F294D
:1019D000221B15100A050100000102050A11171C3F
:1019E000242A30353B4043444545CBC6305505039A
:1019F00004070A101721282E33383C3E3F3F3E3B58
:101A000038312921180F0904010000000000263593
:101A10003D454B5153524F4C46413B342E251E17EA
:101A2000110903000002060C12181E242C31F4B612
:101A300030550A050505080F16202931363A3C3E77
:101A40003F3F3E3C3A332D241C140F080400000095
:101A5000010235464E565D65686660574F473F3711
:101A60002E251E161006020001050B151D282F3904
:101A70004145F0BC30550703030304070F17202826
:101A800030363B3D3F3F3D39362D251D160D0802B2
:101A90000000010203052E3F4850595F6768635DEF
:101AA000524A3E352B2018100A03000001070E1978
:101AB000222B313A4247EFC930553B3C3C3B39364B
:101AC0002F272119110B05010000010204060A103D
:101AD000161F262D33393C3E3F3F22313B41474DB7
:101AE00056595A5855514B433D3529201811090371
:101AF00000000103070F151B21262BA03055373896
:101B000037342D261C160E090402000000010205C0
:101B10000A101720262E353A3C3E3F3F3E3E3040CD
:101B20004950595E605D5650474139332A201A109A
:101B30000A05010000030810171F252F383C37C382
:101B400030553B3D3D3B3832271C130E0803000047
:101B5000000103070B1218202831393D3F403F3F59
:101B60003E3E33454E575D656C6A66635C534A4042
:101B7000382E251A110804000002091019212A32F2
:101B8000393E07903055392B241C150E09060506E1
:101B900009101922272E353B3E3F3D38322C261F97
:101BA00019130B05010006000102060B11171D2475
:101BB0002A2F32343536373B41474E565D616465D6
:101BC0006563605C5754D14A465500010305070818
:101BD0000A0B0C0E0F111214161A1E2224272A2C7F
:101BE0002E313336383A3C3E3F3F010E141B23283A
:101BF0002E353A40484F565D62615A534E47403B3E
:101C0000352D29221B17100905016D7D5455000241
:101C1000030506080B10131617191B1D1F2122227E
:101C200022222325282E313436383A3C3E3F0617EF
:101C3000202730383E39322B251E1810090910187C
:101C40001F262F363C382F271F180F080102C77593
:101C5000315500000000010103080D121517181A74
:101C60001B1C1D1D1E1F22272E35383B3D3E3F40AD
:101C70003F3E06151B23292F373C372E27201A13EA
:101C80000E141A21272F383F3D352E262018110B10
:101C90000300673F315500010203040506070809E8
:101CA0000A0B0C0D0E0F10111213141C1D1E1F20F9
:101CB00021220405060708090A0B0C0D0E0F10114E
:101CC0001213141516170001020304050607080E67
:101CD0000F1011121314151600010203041C1D1E0F
:101CE0001F20000102030E0F1011121314151617F6
:101CF00018030405060708090A0B0C0D0E0F101136
:101D000012131415161718191A1B060504030201DD
:101D1000001C1D1E1F2021000000010203040506F7
:101D200007081C1D1E1F20212200010203040506B6
:101D30000708090A0B0C0D0E0F10111213141516BB
:101D40001718191A1B000102030405060708090ADF
:101D50000B0C0D0E0F101112131415161718191A5B
:101D60001B1C1D1E1F20212200010101101C02103E
:101D70001C000101040F1C000101061B0F070E1CB3
:101D80000823150001010A10190B141C0C0F180070
:101D900001010E23150F0D19000101110D14121070
:101DA00019131C10141A1015101916231C49231C82
:101DB0004A231CC2D57CB430E708B2D56E24FFFF9D
:101DC0000B247CB630E712B2D56E34FFFF0B348D96
:101DD000326E24FFFF0B2480028D3230D5066E3424
:101DE000FFFF0B34227D51AD037D027D21AD052D1A
:101DF00012AD352D21227D02AD31AD102D21226D88
:101E00000074104D00780B4D2278278D317D126DB6
:101E100022227D437D326D222F112D445002A50FC9
:101E2000BF1040049F100B901478ED7F016D227D50
:101E300034227D417D138D247D022F004004BD049A
:101E400040049D040B141478F17D237D317D106DC9
:101E50000022C2D57CB030E708B2D59F229F207FF8
:101E6000027CB430E713B2D59F229F217F12121E4D
:101E7000019F229F207F028003121E0130D5069F02
:101E8000229F217F12226CAA4D11681A1E54680EDF
:101E90000B38201B18200B350B151B5478F25006FD
:101EA0007E39407A1940226CAA4D11681E1E54508A
:101EB0000C7E1B007A190068120B1C0B140B1A0005
:101EC0001B18000B1D0B151B5478F2227584017E24
:101ED000443FFFE47A49B01B4478F97EF83A117523
:101EE0000C00750D00750E02750F00C208C2097551
:101EF0001F00C210C211751864751964751A007537
:101F00001B00C213756100756200C20AC20B7563C3
:101F100000C215756400C217756500C218C219C2E7
:101F20001A756600C20C755F00756064C21BC21C26
:101F3000756700D205D206D207D21DC20ED20F7E1F
:101F40000400FF7E1420400B0A405D44681A69209B
:101F500000020B0E0B44800A7E0BB07A29B00B24D2
:101F60000B0C1B4478F280DF0227FD0000004700C5
:101F7000CB01000010FDC7FB7EFBFB01BB0C9E19D3
:101F8000002145000E010F02100311041205130673
:101F9000140715081609170A180B190C1A0D1BDF60
:101FA00022C321A920941F811E701D621C551B4A4B
:101FB0001A4119381831172B16251521141C13191D
:101FC0001216111310110F100ECAF87F20800A7E0E
:101FD0001BF07A2BF00B340B5469FFFFFC7DEF1BD9
:101FE000E479EFFFFC4DFF78E67F10DAF8227D43BD
:101FF0007F1080071B447A0BB00B144D4478F522F8
:102000000563312018130F0D0C0A09080706050493
:10201000320119010002F804E705CE06C207B5082F
:10202000FF00010200FF01020001FF02000102FFA8
:102030007D23BE24000048037D32226D339D322271
:102040000004348C00000000000103FF01000125A2
:10205000F601000138C10000023913000000023906
:10206000150000000139170000013592000001350C
:102070009300000435A800FF00FF000A3628000086
:1020800000000000000000000001363205000136AB
:102090008D000001344F0000013A0F00000236A409
:1020A0000000000136C7000001373600000137414B
:1020B0000000013742000001374300003C376E004A
:1020C0000000000000000000000000000000000010
:1020D0000000000000000000000000000000000000
:1020E00000000000000000000000000000000000F0
:1020F0000000000000000000000000000137E600C2
:10210000000137E700000137E800000133C001009B
:102110000233C300000001006800000100690000F4
:1021200001006A00000137EB010001386500000181
:102130003A1000000633F93F1F5011201000013300
:10214000FF2400013A040000013A050000013A06AC
:102150000000013A070000013A080000012FA90021
:1021600000013346000001028C00000202AD0000B5
:10217000000102EB0000043866000000000001349A
:1021800049000001344A000002344B0000000134D1
:102190004D640001344E0000013A110000013A0D77
:1021A0000000013A0E0000022BB92BBF00012F7F67
:1021B0000200012FA800000139E60000013964FF88
:1021C00000013965000001396600000139674000EF
:1021D00001396840000439FC0000500000043A0056
:1021E00000006400000433C500006C00000433C923
:1021F000000068C0000433CD00006800000433DE36
:102200000000400000043A0900006000000003E8FC
:10221000000C02260320000A01AE02BC000C00C81C
:1022200001F4000C003C012C000A003C0064000694
:10223000003C005000060000000E1C2305DC0032AC
:1022400003E800280000001E1240571227CE122279
:102250006112348312ABCB02225A74017AB337EF86
:102260002212286812229602226A7E3400036D220E
:102270000222737D437EA333E2BEA00550167E701A
:1022800004AC7A594333E5592333E77CBA047AB373
:1022900033E2C322D3226D337E2406FC1222737EE6
:1022A0003400017E24077A0222737E3460A3122256
:1022B000F41225ED1262CA12281F1240571227C7C6
:1022C00012CCA11222611234831257A212ABCB029C
:1022D000225A7E34614F7E2400FF0B1A307A372A4F
:1022E0005A7E3461517E2400FF0B1A307A372A5C03
:1022F0007E3461537E2400FF0B1A30227E346155F8
:102300001222F47A3728957E3461BA1222F47A3791
:1023100028997E3461B81222F47A3728977E346285
:10232000121222F47A37289B7E3461BC1222F47A8E
:1023300037289D7E3461BE1222F47A37289F7E347E
:1023400061C01222F412CD091222F47A3728A39028
:1023500061C4E4937AB328A5E47AB328A812B763DA
:102360003E347E0825F7E4021FEE12251D7EB337AA
:10237000F6B401167E3462341222F47A372A5A7E79
:102380003462361222F47A372A5C7EB328A8B4016C
:10239000377E34623E1222F47A372A5A7E34624003
:1023A0001222F47A372A5C7E3462421222F47A379F
:1023B0002A4F7E3462441222F47A372A517E3462E4
:1023C000461222F47A372A537EB32A0270217E27DE
:1023D0002A5A7D327E140004AD137D31122492BE40
:1023E00034005028047E3400502D327A372A5A2285
:1023F0007E5400547E4400FF6932000469220002CA
:102400000B2A107A1D267A15247E3400207E0800BF
:10241000247E2400061264167E34614F1222F41EBC
:10242000341E347A7303A07E3461511222F40E34C8
:102430000E347A7303A17E3461551222F412249271
:102440007A7303A27E3461571222F41224927A73B3
:1024500003A37E3461591222F41224927A7303A4E6
:102460007E34615B1222F41224927A7303A57E34C7
:102470000059CA397E34615F7E2400FF7E0803A6BE
:10248000121FC91BFDE5257AB303D1E5287AB303F2
:10249000C0221E341E341E341E3422906099E493F0
:1024A0007AB32A4D90609EE4937AB32A4E7E3461CB
:1024B000551222F412CD001222F47A372A517E14DA
:1024C00061597E0400FF0B0A207A272A537A372AA3
:1024D0005590609DE4937AB32A591222D212CCCD42
:1024E0007E3462121222F47A372A6090609FE4935D
:1024F0007AB32A649060A0E4937AB32A657E34604C
:10250000A11222F47A372A667E34615B1222F47AB1
:10251000372A62E47AB32A6B7AB31692221222D255
:1025200012CCCD7E3461551222F412CD001222F469
:102530007A372A517E3461591222F47A372A53228B
:102540007E3462481222F47A372A5A7E34624A1262
:1025500022F47A372A5C7E34624C1222F47A372ACB
:102560004F7E34624E1222F47A372A517E34625002
:102570001222F47A372A5322CAF87EF338C6BEF004
:1025800005780B74017AB338C61200098052BEF088
:102590000478131227F21222F41225EDE47AB32BF9
:1025A00002123F55803ABEF00678191227F2122225
:1025B000F41225ED124961E47AB32B1E127B30121E
:1025C000CD2D801CBEF007781D1227F21222F412C6
:1025D00025ED12821150FB127B561227D71234833D
:1025E00074027AB338C6DAF8227E3403E86D227AB0
:1025F0002734387A37343A227EB303C514685D1421
:102600007802C19914686D24036802C19112CD4704
:10261000380830140F12CD3F680A1250F6E47AB32E
:1026200039AB80757EB303A630E06E7E7303A70AD4
:10263000277E340400AD327EB303F0B4010B7E3448
:1026400062641222F42E340400BE3739A9504A12B3
:1026500050F61227EBE47AB339AD803D12CD47280E
:1026600033E47AB303C57EB339ABB401031227EB6D
:10267000D21C80207E3460A51222F41225ED128F28
:10268000981222AAE47AB303C57AB3344ED21C80DE
:10269000081227EBE47AB3344E128FFF02269FCA4A
:1026A000D8CA797EB303C5B401028002E1C26CDDF1
:1026B0006CFF1290E57DF312821150FB74017AB326
:1026C00039AC1237A01212C712001E740A123E2D26
:1026D000123FEC7EE72B0D7AE5247EE32AFA7404A0
:1026E0007AB32AFA7EE72B0D5EE4003F7AE72B0DE2
:1026F0007EB32AFA1293787C7B7408AC7B7E24002C
:1027000004121DB37D237D3F122492AD327A372B04
:1027100007123F3512912C1225E97EB303F0B40164
:1027200004741080027406124503123FAE800F80BD
:1027300007128FC4E412906E2093F61290B5301DEC
:10274000F7301CF4D2011237E0E41212DE0BD01283
:102750004CD71291447EA339AB4CAA780674017A07
:10276000B339AC4CAA680B7EB303F07005E47AB3BE
:1027700039AB12CCD878187EB339AB6012E47AB397
:1027800039AB7AB32A027AB32A037EF001801C1295
:10279000CCD868107EB339AB700A7EF001E47AB30E
:1027A00003C58007BED0145002E117E47AB32B04AE
:1027B0007E35247A372B0D7AE32AFA4CFF68031210
:1027C0003483DA79DAD8227E340DAC1225ED123F4B
:1027D00055127B300227D7301310127B6E50031234
:1027E0004F3412786B12A5B1C2132274017AB3036D
:1027F000C52274017AB338C67E3460A3221262CA3D
:102800001223F012281F1222487EB303C724FD684A
:10281000090BB178F4122BA680EF1232E480EA1291
:1028200067F71265E112000A12CCAC7E1804007A38
:102830001F06F87E0F06F87E1F06F4127FFA7E1838
:10284000080A7A1F13867E180DC87A1F138A7E0F16
:10285000138A7E1F13861278481277D112249B1296
:102860006FFF122876022868E47AB333E27AB33332
:10287000E37AB333E42212703D7E240003AD327E4E
:102880000828AE74FF121FEE129C187E0829BC1295
:10289000289E7E082A027E34000BE4021FEE6CAAFA
:1028A0008020740312A7BD7F102D3439B1000A12A5
:1028B0002B6A7F702DF3794700142D317941002860
:1028C0000BA01228C838DB22906099E493BCBA228E
:1028D000CAF87E6829BC6CAA80197E70FF122B850D
:1028E000E40A4A19B41F3474FF19B41F4619B41FFF
:1028F000500BA01228C838E27E732A02A5BF00231D
:102900007EB3344F700241DF6CAA80107E447FFF9B
:10291000122B8F79400014122B7C0BA01228C83880
:10292000EB41DF7EB3344F703DBE700028386CAA97
:10293000802A7E9009AC9A493428AE122B8F7930C8
:102940000014493428B07F062D1279300028740114
:102950000A3A19B31F3419A428B20BA07EB32A0275
:10296000BCBA38CE41DF6CAA8017122B6A3E3459AC
:1029700043154E5943155059431576594315780B55
:10298000A01228C838E46CAA803D6CFF80327E70AB
:1029900002AC7F7F062D1369300014BE347FFF68C0
:1029A0001D0A4F09B41F50B4FF14122B745932156D
:1029B0004E6930002859321550122B9980070BF0C0
:1029C000122B6238C90BA07EB3344FBCBA38BB6C33
:1029D000AA80240A3A09B31F46B4FF196CFF80107D
:1029E0000A4F09B41F50B4FF05122B9980070BF052
:1029F000122B6238EB0BA01228C838D76CAA801AA9
:102A00007E7009AC7A494328AE122B745942157670
:102A1000493328B0593215780BA07EB32A02BCBACC
:102A200038DE7E34154E7A371F407E3415767A377D
:102A30001F427E34159E7A371F447E73344F7A735B
:102A40001F3E7E732A027A731F3F7E081F3E1203C9
:102A5000866CAA80597E70FF6CFF80197E5002AC94
:102A60005F4912159E0A2ABD2178080A3F09731F83
:102A70004680070BF0122B6238E2BE70FF682D1201
:102A80002B8574010A4719B41F347E9009AC9A490A
:102A90002428AE7E3002AC372D1D7D0C7920001429
:102AA000494428B07E5002AC57122B7C0BA07E63A9
:102AB0002A02BC6A389F6CAA80200A3A09B31F34E4
:102AC000BEB0016813122B6A7F062D1379400014E3
:102AD0002D3D7D2C794100280BA01228C838DB7EC3
:102AE000F32A027AF3344F6CAA80680A3A09B31FBA
:102AF00034B4012C122B5B29B1000AB40106740313
:102B000039B1000A122B5B2931000AA5BB0306E488
:102B10007A1BB08032A5BB002E74027A1BB08027CE
:102B2000122B5B29B1000ABEB00268027014740156
:102B30007A1BB07C2F0BF07E3009AC2319A128B290
:102B4000800574037A1BB0122B5B7E1BB039B10079
:102B50000A0BA01228C83893DAF8220A3A2D3D7DD4
:102B60002C22906099E493BCBF227E447FFF7E704C
:102B700002AC7A227E5002AC5A3E24227F062D12ED
:102B800079400028227E5009AC5A197228B2227E60
:102B90005002AC5A7F062D12220A3A19F31F4674CE
:102BA0000119B41F502212578F1281377EB303C709
:102BB000B4016B12BEA97E3460A51222F41225ED79
:102BC0001244BE12370C12337650DE12A9EA126B91
:102BD000207EB303C4B40104E4122FCA126D821222
:102BE000581140C5127C5F12581140BD12474E1259
:102BF0002C301287BA12892C12898112984F122810
:102C0000D01276A21277231298B112A86812C39E2E
:102C10001270491257FB1225F812509C808B1282B9
:102C20001C022C247EB303C4B40104E4022FCA2284
:102C30001259B9122E2A122E2A1258C712476B1295
:102C40002E92122E2A1285EE122E2A122F30122EBA
:102C50002A022C54CA3B7524006CCC6CDD7EC40067
:102C60003CCAC97E1837AA7E08376E121FC91BFDE1
:102C70007EF328840ACF3EC4CAC97E1826FA7E088D
:102C80001F34121FC91BFD6C886CEEA1287EC40383
:102C9000FF7EC0FF6C99804C7402ACB909B51F343B
:102CA000BEB0FF683D7CB9122E7960367402ACB9B3
:102CB00009751F350A277402ACBE097537AB122E91
:102CC000727D137402ACB909751F340A277402AC03
:102CD000BE097537AA122E722D13BDC128047DC1FD
:102CE0007CC90B90BCF938B0BEC0FF68397E700259
:102CF000AC7C09B31F3409731F35124724BE372A31
:102D00005A48237E7002AC7C09531F347402ACBD58
:102D100019551F7009531F3519551F7174FF19B3C9
:102D20001F340B800BD00BE07E73376DBC7E280206
:102D3000818D7CE8806D6DDD7E80FF6C99803C7CB0
:102D4000B9122E796033122FD2BEB0FF682B0973EF
:102D50001F35128E2B7F710B7A50BE540000580520
:102D60006D551B7A500B7AC0BDCD080D122FD2F5D0
:102D70002409C31F357DDC7C890B90BCF938C0BEAB
:102D800080FF681D7E71247402ACBD19751F701917
:102D9000C51F717EA0FF7E7002AC7819A31F340B93
:102DA000D00BE0906099E493BCBE388A90609AE4BE
:102DB000937CAB7402A4CA597E181F707E081F341E
:102DC000121FC91BFD7CFD122FDC7E0837AA74FF81
:102DD000121FEEBEF00028380A3F3E34CA397E1872
:102DE0001F347E0826FA121FC91BFD0A3F3E34CA53
:102DF000397E181F347E0837AA121FC91BFD6CEEDE
:102E0000800A7CBE7E7001122EF10BE0BCFE38F20F
:102E10007AF3376D7AF32884906099E493BEB328EF
:102E20008450047AB32884DA3B22CA796CFF6CEEB2
:102E300080317CBE122E7960287E340002CA39AC03
:102E40007E2E3426FA6D227E3002AC3F2E1426FAF6
:102E50006D00121FC91BFD7CBF7E7001122EF10B8D
:102E6000F00BE01247EC38CA7AF32884DA79227E34
:102E700039700A379D320220307C7B126D3209A2F4
:102E800027727CB754070A3B2E34005E1244B55CAF
:102E9000BA226C006C1180137CB1122E79600A1278
:102EA000854040057E0001800A0B107E732884BC9B
:102EB0007138E57CB06C77129C24BE0001680B7CF5
:102EC000B07E7001129C24B401216C1180157CB17C
:102ED000122E79600C12854050077CB16C77122E4F
:102EE000F10B107E032884BC0138E3227CB37E7092
:102EF000017C677C7BC423541F7CAB7CB754070ADE
:102F00002B2E24005E1245DE7C7B4C66680F0A2A5D
:102F10002E2427727E29B04CB77A29B0227CB76460
:102F2000FF0A2A2E2427727E29705C7B7A29702260
:102F3000CAF87ED400097EB328847008F563C20AFB
:102F4000C20B8071BEB0023866B402287E7326FCC4
:102F50000A277E7326FA122E72BE34000558157E9B
:102F60007326FD0A277E7326FB122E72BE340005DF
:102F70005802804E6CFF80307CBF129E641A4B7CDE
:102F8000BF1247597D5D3E54BD545804D20B800A90
:102F90007D5D0E54BD544802C20B200B04BDD458B5
:102FA00005756328800F0BF01259B238CB8006E507
:102FB0006324FBF563E563BEB0000806D20A15631F
:102FC0008005756300C20ADAF8227003D28622C235
:102FD00086227E7002AC7909B31F3422906099E496
:102FE000937C7B7402AC7B22CAF87CABBEA03438E5
:102FF000030230FBBEA03578077EB32B1002321AD5
:10300000BEA0366805BEA037781D7E35087D230B2F
:10301000247A25082E37348A7E39B0BEA03768025C
:10302000411A751E36411ABEA0386805BEA039780F
:103030001B7EF338E67CBF047AB338E6BEA039784D
:1030400003751E380A3F09B32B21411ABEA03A6806
:1030500005BEA03B781B7EF338E87CBF047AB3380A
:10306000E8BEA03B7803751E3A0A3F09B32B4441E2
:103070001ABEA0FB78067EB32B12411ABEA05E7862
:10308000267E0F33C56930008E0A561E541E541E0C
:10309000545E540001030354C00A365E3400037CBE
:1030A000A74CBA4480411ABEA03C6805BEA03D783A
:1030B0001B7EF338EA7CBF047AB338EABEA03D78C1
:1030C00003751E3C0A3F09B32A7A411ABEA03E6826
:1030D00005BEA03F781B7EF338EC7CBF047AB33882
:1030E000ECBEA03F7803751E3E0A3F09B32A9D41FE
:1030F0001ABEA040400DBEA04D38080A3A09B338A8
:10310000C2411ABEA04E6805BEA04F781E7EF3399C
:10311000077CBF047AB33907BEA04F7803751E4EF3
:103120000A3F2E3734887E39B0411ABEA051680557
:10313000BEA05278287E1460006D002E0400FF7E31
:10314000B339120A3B6D222F107E1B70047AB339FB
:1031500012BEA0527803751E517CB7411ABEA05C06
:103160006805BEA05D781A7EF338DB7CBF047AB3B5
:1031700038DBBEA05D7803751E5C7CBF12321D413A
:103180001ABEA060400DBEA06C38080A3A09B333DD
:10319000DC411ABEA06D7804E50E807EBEA0F46806
:1031A00005BEA0F578187E350A7D230B247A250A02
:1031B00009B33490BEA0F57861751EF4805CBEA0A2
:1031C000F06805BEA0F178097C1A2E1020A5E780D2
:1031D00049BEA0F26805BEA0F3781B7E15103E1410
:1031E0007E1F348C2D310B1A30BEA0F278040A56A3
:1031F00080287D538024BEA0F67804E50F801BBE96
:10320000A0F7780D7E3462487E2400FF0B1A5080B0
:1032100009BEA0FD7803E48001E4DAF8227CABBEAD
:10322000A00040117EB32A6EBCBA28097402A449DA
:1032300025340080517E132A6EBC1A381C7E032A66
:103240006D0A100A212D120A3ABD31580C9D323EEA
:10325000343E34492332BA802D7E032A6D0A200A77
:10326000117D412D420A3ABD3448197E1002AC014D
:103270002D01BD30580E9D319D323E343E344923E0
:1032800032BC8002E4227E340064AD23740C1E3410
:103290001E2450034E60801478F47CB722CAF88054
:1032A000387CBF12321D0A1B7E632A6E7E7002AC10
:1032B000677E1002AC1F2D037E1F138A2D30123241
:1032C000DC9D351B1A100BF01232DC7E732A6E0A5D
:1032D000272D250A3FBD3248C8DAF8227EA32A6D81
:1032E0007402A4221240277EB303C7B4036912BE3E
:1032F000A91225E912349D7EB338C230E7E91233B2
:10330000761233673E34CA397E1804007E0804FC06
:10331000121FC91BFD1233673E34CA397E18047E62
:103320007E08057A121FC91BFD7EB32B1DB4011543
:1033300012A9EA126B20126D82127C5F12474E12A4
:103340002C301247FA12488412329D7EB338C25490
:103350007F7AB338C2809012821C020046E47AB3AE
:103360002B027AB32B1E227E732A740A277E732ABD
:10337000730A372D3222CA3B12821150FB7EF32B87
:103380000F7CBF12A6BF12BEFB7EB32B1FF5287E9B
:10339000B32B20F5297EB303C7B4010F12ACC47E52
:1033A000B316917006123483C381801233673E34A2
:1033B000CA397E1806FC7E08047E121FC91BFD1246
:1033C00033673E34CA397E18077A7E080400121F1C
:1033D000C91BFD7EB303C7B4030712AA2F7A37397E
:1033E0000974017AB316901227CE12AA1D7EC33338
:1033F00046127B7FE41212DE1234837E08047E7A4A
:103400000D2A7E1806767EB32B721293077E08046F
:10341000007A0D2A7E1805F87EB325F01293077EF8
:10342000D32B1F7EE32B20E5287AB32B1FE529122F
:103430007B6A50057CBC12AF5D7E34080A7E040DA9
:10344000C87D207D101278EF7AD32B1F7AE32B20D2
:103450007CBF12A65B12A7F27EB3344E047AB3345B
:103460004E7E73344EBE70FA280674647AB3344EBE
:103470007EB3169060097EB316916003D38001C3BA
:10348000DA3B22E47AB333E47AB333E3124EEFB497
:1034900001047401800274037AB333E42230083BE0
:1034A000C2081225787E7338C77A732A4D7E733826
:1034B000C87A732B1D7E7338C87A732B017EB3389C
:1034C000C960187E340002123BE57E340001123BD5
:1034D000E56D33123BE5E47AB338C912450D023489
:1034E000E1E50C7002C100E50C30E010530CFE1257
:1034F000B0551277D47E082A6D1208D0E50C30E161
:1035000006530CFD12C013E50C30E232530CFB7E67
:10351000B32B1260097E082A6D120593800B7EB3CF
:103520002B657E732B64120A247E732B122E70FF80
:103530009201906051E4939EB32A77120995E50CAD
:1035400030E347530CF77E7338F47A732B0F12A6CF
:10355000397AB32FA9BEB0FF680B430C207E732FBE
:10356000A97A7338CC124FE2124FD47E7338F5BE6D
:10357000732B6268067A732B62D210301009C21066
:1035800012A7C7E412074512ABCBE50C30E40F538A
:103590000CEF7E4338F67E500AAC45124050E50CE5
:1035A00030E64E530CBF7E7338E2BE7007280674B7
:1035B000077AB338E2A9D5CB740E1200667C7B5E25
:1035C000700F7E6338E20A262E24000312771A7CDD
:1035D000654C76740E1236391200661236C87E7348
:1035E00038E57A732B147E7338E47A732B1F12CD6F
:1035F0002DE50C30E50A530CDF7EB338CC0248AA27
:103600002212CD36B40114CA397E1839027E08253B
:10361000EE121FC91BFD1237F18012CA397E18390C
:10362000027E082B70121FC91BFD12783202363041
:103630007A1F2AFC7A0F2AF822F5FD7A71FE22CA37
:1036400079A9D5CB74027E703F123639740F1200FF
:10365000667CFB740F7C7F5E70FE123639740C1230
:1036600000667CFB547F6808740C7E70F812363953
:10367000906118E4937CABBEA007380B1236FD7C3A
:10368000B70A7B0B758016906117E493B4010EBEE8
:10369000A00728091236FD0A772E740007740E7CE5
:1036A0007F12363974071200667CFB5EF0FB906077
:1036B00002E4930A3B3E343E344CF774077C7F129D
:1036C00036C5DA792212363975FDFFA9C5CB226DD0
:1036D000337E0800247E240012126416E53420E7AD
:1036E0001BA9D5CB74037E7127123639740B7E71FA
:1036F0002F123639740C7E71301236C5220A3A2EDA
:103700003400033E343E343E343E34227E2403A053
:1037100030115CC211097200020A371237037A377E
:103720002A4F097200030A371237037A372A5109E0
:103730007200040A371237037A372A537E2970122F
:1037400037707A372A5A097200011237707A372A8D
:103750005C097200050A371237037A372A62097248
:103760000041BE732A6B68077A732A6B023777228F
:103770000A373E343E34221237FAD21A02335D7CC5
:103780006BA9D5CB740F1236397A61FC1236C81288
:103790006559D200128F8D1237CF1212DE021296A7
:1037A0007AB32B0070141278321236307E180676F7
:1037B0007A1F06F47E18047E8010B401111237F1CE
:1037C00012363012CCAC7E1804007A1F06F822D2D2
:1037D000021237D7740122A9D0CEA202A991C92220
:1037E0003001061237CF021296128F86C2020237BC
:1037F000D77E1F25F27E0F25EE227E732A6B2E7058
:10380000FF22CAF87C6BA5BE00097CB7123FFCD230
:10381000084184A5BE013D7A7338C3A5BFAD0280BF
:103820002FA5BFAE04D2094184A5BFAA0512CD249D
:10383000801EA5BFAB0A7E34057A7A37348A8010A1
:10384000A5BFAC02800241847E3404FC7A37348AFE
:103850006D332100BE60044020BE6008381B123A60
:1038600087A5BE07076D337A350A4184A5BE0802D5
:10387000800241841207FD4184A5BE0A09430C2041
:103880007A7338CC4184A5BE0B08123A87123FE9FF
:103890004184BE601B4007BE601C3802411CBE60F4
:1038A0001E400DBE60233808123A89430C40418403
:1038B000BE6015401ABE60183815123A89D208A5A4
:1038C000BE15028002418474077AB338C64184A5CC
:1038D000BE1907E47AB338DB4184BE60244007BEDA
:1038E000602C3802411CA5BE2D1B123A892009020A
:1038F00041847E6338EE7C466C550A372D323E3467
:103900007A35084184BE602F400ABE6033380543D3
:103910000C08411CA5BE340F430C10BE7064380265
:10392000411C7E7064411CBE60386804A5BE39210C
:10393000430C017EF338E77CBF047AB338E70A2FE3
:1039400019722B21A5BE390280024184751E3841AF
:1039500084BE603A6804A5BE3B21430C027EF33866
:10396000E97CBF047AB338E90A2F19722B44A5BE4B
:103970003B0280024184751E3A4184A5BEFB094387
:103980000C047A732B124184A5BE50067A73391247
:103990004184BE603C6804A5BE3D21430C017EF31A
:1039A00038EB7CBF047AB338EB0A2F19722A7AA558
:1039B000BE3D0280024184751E3C4184BE603E686B
:1039C00004A5BE3F21430C017EF338ED7CBF047A91
:1039D000B338ED0A2F19722A9DA5BE3F028002411D
:1039E00084751E3E4184BE6040400DBE6042380872
:1039F000123A89750D01800AA5BE430B123A8975EA
:103A00000D02123601807DA5BE4408123A89123A91
:103A1000F78071BE60456804A5BE4605123A8980EC
:103A200063BE604E6804A5BE4F20430D047EF3398B
:103A3000087CBF047AB339080A2F2E2734887A29E4
:103A400070A5BE4F3F751E4E803AA5BE6D057A71BA
:103A50000E8031BE60F04025BE60F338207C162E0B
:103A600010207CB7A5F7A5BEF31A7E15127E0510AF
:103A70003E047E1F348C2D301B1A108007A5BEF625
:103A8000037A710FDAF822D2080A26197238C22294
:103A90007C6B123AEF78057CB6023B31B404057CAE
:103AA000B602380222309019C290E51C7009751CCC
:103AB00001E591F51E80117E7191E51E123A900587
:103AC0001E30910BC291051EE51E123AD0F59122CF
:103AD0007C7B6CAA123AEF78097CB712806E7CABC3
:103AE000800AB404077CB7122FE87CAB7CBA227E34
:103AF000B338C2C454072212CD36B40117CA397E76
:103B00001825EE7E083902121FC91BFD12CD1B12AB
:103B100037F1801ACA397E182B707E083902121FBD
:103B2000C91BFD7E372B767A3734881278320236FD
:103B3000307CA77C3BA5BB00077CBA123FFC802CE5
:103B4000BE30EB6804A5BBEC097CB37C7A12816AB9
:103B5000801ABE30804015BE30DF38107CB3248020
:103B60007C7A1287FCA5BB8F03751D01A5BBFC05E4
:103B70007CBA023B7C74017AB303FF2224AB681049
:103B800024EF681C24DE682624DE782F7405802D3F
:103B90007EB303FFB4052A123BC212BD95023E4E0E
:103BA0007EB303FFB4051A123BC275E9FF227EB350
:103BB00003FFB4050C123BC2023E4874017AB30302
:103BC000FF227E3400017D2380127E300480057444
:103BD000FA123E2D7C231B30A5BA00F37D321B2444
:103BE0004D3378E622CAD8CA797DD3906050E493E9
:103BF0007CFB906051E4937C8B0A380ACF2DC30B79
:103C0000C47D3C7CE71225E9A9D0C4A9D5CB7407B3
:103C10001200667C8B74077E700F1236C57E5400CE
:103C2000787E1F33C9795100067E5400807E1F3391
:103C3000C9795100087E54000C7E1F33C9795100A8
:103C400010BED40002780B7E1F33C9123DD0440150
:103C500080207E1F33C9123DD044081B1A504DDD11
:103C60007E1F33C97807123DD054FB8005123DD02A
:103C700044041B1A507E1F33C569E100846951005A
:103C8000907DF52E3400905EA0F61B1A507EB30393
:103C9000D1BEB0064003B4FF0E123DDB54E6123D28
:103CA000D84E5401A4800C123DDB5E54FEE6123D5A
:103CB000D844A41B1A50BED40002782D7E1F33C9ED
:103CC000123DD05E54000F1B1A507E1F33C9123DA7
:103CD000D044501B1A507E340002123BC6123E0ADA
:103CE000123DE77A373490A18C6CDDA1864CDD78EB
:103CF000046C99802BBCFD40120ACD099C2AB8BEE9
:103D0000902340037E90220B9080150A3F0ACD9DA0
:103D1000C3099C2ADBBE901C40037E901B2E90247E
:103D20007E1F33C9123DD05E54000F1B1A500AC9C2
:103D30003EC43EC43EC43EC47E1F33C9123DD04D76
:103D40005C1B1A50E50E6007E50EBEB06428067EC7
:103D50003400028004E50E0A3B123BC6123E0ABE46
:103D6000D400017810123E0A123DE77402ACBD592E
:103D7000353492800F123DE70A5E0A2D2D253E2430
:103D8000593234920BD0BCED280281EDA9D5CB7409
:103D9000077C781236C5A9C0C47E1F33C579E100FF
:103DA000847E1F33C579F100906D337E0F33C9795E
:103DB0003000067E0F33C9793000087E0F33C97991
:103DC0003000107E0F33C97930000EDA79DAD8224C
:103DD0002E34000E0B1A50221B1A507E1F33C52E94
:103DE0003400840B1A50227E0F33C96930000A7DDB
:103DF000236D336910000C6D002F1074071E341EE4
:103E00002450034E60801478F4227E3400017E0F2B
:103E100033C9793000047E0F33C9693000125E3433
:103E2000000168F27E34000179300012227CAB8000
:103E30000E7E70038001007C671B70A5BE00F77CBE
:103E40006A1BA0A5BE00EA2275E76B023E4EE47E27
:103E500034D7FC7E2400FF7A1BB07E34D7FD7A1B5A
:103E6000B075E9FF227C967CA71237A07CBA1212AB
:103E7000C7740A123E2D7CB912001E023E7ECA3B58
:103E80007EE32A747EF32AFA74017AB32AFA123F87
:103E900035123FEC1233677E172AFE6D00121FEEBB
:103EA0007ED0071225E96CCC80197E3400017CBDE0
:103EB00060053E341478FB7C67123F3C4C767A29CF
:103EC000700BC0123F460A3CBD3248DE123F9D30A7
:103ED0001DFD12CCF67EB32A737C7E1293706CCCDF
:103EE00080297402ACBC493506FCBE34154050191B
:103EF0007E3400017CBD60053E341478FB7CB764E1
:103F0000FF123F3C5C7B7A29700BC0123F460A3C93
:103F1000BD3248CE1BD0BED0005888124377740201
:103F2000123FF41243F5740212001E7AF32AFA12B9
:103F30003F35DA3B227E082A6D02048D0A2C2E279B
:103F40002AFE7E2970227E732A740A377E532A73D2
:103F50000A252D23227EB32B02704112821150FBC1
:103F6000E46C776C66123E657E0806FC7E1F06F4E4
:103F70007EB32B7212926474017E70017E60011216
:103F80003E657E08077A7E1F06F47EB325F0129206
:103F90006474027AB32B02E47AB31690227402128C
:103FA000001E7EB32AFC1243F5740212001E740533
:103FB0007E709B12122C1244807EB32AFC020D6B81
:103FC0007ED72B0DBEB0012802E42212783B123FAF
:103FD000357AD72B0D7E732AFA123770E47E5001A2
:103FE000121201123FAE740122B282226D33E46CD0
:103FF0005502120112001E7EB32AFC227AB338C287
:10400000C45407BEB0046803B4020474038007609C
:1040100003B4010774017AB303C72274017AB303AE
:10402000C7E47AB338C22212CD2412CD1B6D337A85
:10403000350A1249271248A174507AB338F67E2403
:104040000320124050E412CCA36D337A37344B2254
:104050007D3274FA0211D074017AB303C712A7C774
:104060001212F51242E3E41207457E2403D41240F3
:104070005074011237A01247F37E34D00C12010E97
:1040800012408D7E340001123FEE0210FC740112CA
:10409000001EE41237A01240A5E412001E740112A3
:1040A00037A00240A5CA3B7ED32A737EC32A747E02
:1040B000081F441244777E081F8A7E340046121F70
:1040C000EE7E081FD07E34000AE4121FEE7E081F29
:1040D000DA7E34000A121FEE7EF32AFC7E182ADCF8
:1040E0007A1D247E181FD07A1D287CBD7C7C7E081A
:1040F0002AB91241C56CEE802B0A3E09A32ADC0ABC
:104100003A2E341F831244B57CABBEA01C50130A58
:104110003E1241BD0A4A19B41F447EB32AFB19B4AA
:104120001F8A0BE0BCCE38D16CEE80240A3E09A376
:104130002AB9BEA02350170A2E0A3C2D321241BDC7
:104140000A4A19B41F607EB32AFB19B41FA60BE0FC
:10415000BCDE38D87EB32AFD7E081FE460097E18D5
:104160001FD0124289800312436F6CEE7E181FE449
:104170007A1F1F347402ACBE49351FD07A371F38FE
:104180007402ACBE49351FDA7A371F3A7E700EAC26
:104190007E2E341F446D227A1F1F3C7E700EAC7E33
:1041A0002E341F8A7A1F1F407E081F347CBF7C7EFE
:1041B0001208000BE0BEE00540B2DA3B222E372A9F
:1041C000FE7E39B0227C577CAB6C7780500A477EEC
:1041D0007D242DF47E7B600A462E441F837A9182D3
:1041E0007A8183E4937C6BBE600D38127ED400012B
:1041F0007CB660053ED41478FB7E7D2880159E60D9
:104200000E7ED400017CB660053ED41478FB7E7D22
:10421000280BF50B7A404D4D1B7A400B70BC57387C
:10422000AC6C7780580A277F702DF27E7B60BE6071
:104230000D381112428260053E441478FB7E7D28C1
:104240000BF6802FBE601B38169E600E12428260F5
:10425000053E441478FB7E7D282EF4000680149ED3
:10426000601C12428260053E441478FB7E7D282E3D
:10427000F400080B7A204D241B7A200B70BCA73861
:10428000A4227E4400017CB6227F71693700027D42
:104290005312763B0B7A202D251B0A206927000438
:1042A0007D52C454F07CABE41E341E342D3579307D
:1042B0000002693700067D537CABE43E543E541E39
:1042C000241E241E241E242D257920000469270085
:1042D000087C456C551224921E341E342D327930E0
:1042E000000622CAF8906051E4937CFB7E081F34DC
:1042F00012436F7E081F3C12C049D2007E082ADCA0
:104300007CBF12BFE97E081F347A0F1F587F017AE5
:10431000171F5C7D327A371F5E7E181F3C7A1F1F85
:10432000646C77800E12C05B500712C05219511F87
:104330003C0B70BCF738EE12435CE4124364E412A9
:104340000B126D337A371F5C7A371F5E12435C7431
:10435000011243647401120B12DAF822A9C6EA7E34
:10436000081F5822120B12A9D6EA7E081F58227E77
:10437000340008E4021FEECAD8CA797EF00A74013C
:104380007AB32AFA1233677CE7805D1225E9123F7F
:104390009D301DFD12CCF61293686CDD803D7E5081
:1043A00002AC5D493206FCBE34147850140A1D2E4E
:1043B000172AFE7E19B0BEB000281E147A19B080EC
:1043C00018BE34192828100A3D1241BDBEB0FF683E
:1043D00008047A39B080021BE00BD0123F460A3D38
:1043E000BD3248BA4CEE68087CAF1BF04CAA789BF3
:1043F000DA79DAD822CA797CFB7E0824F212447773
:104400007EA32A737E732A746CEE801D0A2E0962C5
:104410002ADC0A261245DA7C6BBE601C50090A2E83
:1044200012446D19B224F20BE0BC7E38DF6CEE80D2
:104430001A0A2E09622AB9BE6023500D0A1E0A27E5
:104440002D2112446D19B2250E0BE0BCAE38E26C82
:10445000EE7E300EAC3E2E1424F26D007CBF7C7ECE
:104460001210820BE0BEE00540E7DA79222E272AFF
:10447000FE7E29B00A26227E340046743F021FEEDB
:104480006CAA80220A3A09732ADC2E341F83124454
:10449000B57C7B0A477E5002AC5A7E0F33C52D1285
:1044A000794000480BA07E632A74BC6A38D6222D5E
:1044B000322E3420207A71827A6183E493227EB393
:1044C00003C5702E7E7303A8BE701040026C777E09
:1044D000B303F0B401037E70060A372E34200012B5
:1044E00044B57CABE5670A3B2E3739A97A3739A941
:1044F000800C7EA303A9BEA07F28037EA07F7CBA88
:104500000245037567007AB3344DC21C22E50D6085
:1045100052E50D30E006530DFE123F35E50D30E15A
:1045200014530DFD7EB33906700474018001E4124A
:104530003FF4124564E50D30E229530DFBE47AB3F4
:1045400039077EB33906700A740112001E127832E0
:104550008007E412001E1237F11236307EB32AFCB7
:104560000243F522CA797CFB7E081F341244777E11
:10457000A32A737E632A746CEE801E0A2E09722AA7
:10458000DCBE701C50110A271245DA7C7B7EB32AF0
:10459000FB0A2719B21F340BE0BC6E38DE6CEE80CC
:1045A000170A3E09732AB9BE7023500A7E632AFB9C
:1045B0000A2719621F500BE0BCAE38E56CEE7E3066
:1045C0000EAC3E2E141F346D007CBF7C7E1210C0DA
:1045D0000BE0BEE00540E7DA79222E241F837A51F2
:1045E000827A4183E49322CA3B6DEE7EC32A6E7EBB
:1045F000D32A6D7EB303F0B40103E4E11D7EB3283A
:10460000847002C18C7EB32A036002807F7EA32661
:10461000FA7E7326FB7A71246CEE6DFF6CFF0A47FD
:104620008020124720BE340096081D0BE0BEA0007B
:1046300028067CBA1412472E12473E580312472B05
:104640001B44BE44000058DAE5240A4B801E124782
:1046500020BE34009608210BE0BEA00028067CBADC
:104660001412472E12473E580312472B7D240B2469
:104670007D420A3CBD2348D6BEE0035002800D0AAD
:104680002F7D3F121DB3BE3400280807E47AB337EC
:1046900042E11D6DDDBEA00028087CBA1412473827
:1046A0002DD30A3D1B340ACABDC358087CBA041274
:1046B00047382DD37E7008802A7E5002AC577DC2C9
:1046C0002EC420107D1C7A31827A2183E4931ACB88
:1046D000BDCD080F7DC22EC420117D2C1245DE1ADF
:1046E000CB2DEC7C671B70A5BE00CE7CBA12473880
:1046F000122030BE340AF008042EE40028BEE40084
:10470000FA28047EE400FA7EB337420A3BBD3E50ED
:10471000087D3E7CB77AB337427EB33742DA3B221C
:104720007CBA7C79128E2B0B1A30227CBA047C79ED
:104730001247242DF30BF0227E71240247240A2D08
:104740001B240A3ABD32227CBD7C7E024724128C97
:10475000FE1245E77AB32A0C227CAB7E7002AC7A5B
:1047600009B326FA097326FB024724CA796C8880AC
:10477000707402ACB809F526FA097526FB7A712423
:104780007CBF12A95450586CEE804FBCE868497E3B
:104790007002AC7E12A1DB6C999060AAE493701851
:1047A0007EB32A7014BEB126780E0A2FE5250A3B87
:1047B000128C9218037E9001BE9001781B7CBE1271
:1047C00047597DF37CB8124759BD3F08047CBE8031
:1047D000027CB86C77122EF10BE01247EC38AC0B70
:1047E000807E732884BC783888DA79227E732884A6
:1047F000BC7E227E082A6D02002ECAD8CA797E733A
:104800002A6E7EF32A6DACF77D373E347E081F3466
:10481000E4121FEE7EB338DDB401647E7338DEBE71
:104820007000285B6CDD803C1225E91233766D3315
:1048300080287E35243E3449330DC81220307A3525
:10484000267E35247D133E1449211F34BE2526586B
:10485000077E252659211F340B347A3524BE752452
:1048600038D00BD07E7338DEBC7D38BC7D373E340B
:10487000CA397E181F347E080DC8121FC91BFDDA05
:1048800079DAD822A20EE4337AB338F07E7338F4A2
:10489000BE732B0F680AE50C70061249271248A157
:1048A000227E732B627A7338F522CAD8CA797CDBF0
:1048B0009061C5E4937CABBED08078187EE0FF6C3D
:1048C000FF800B12491B38047CEB7CDF0BF0BCAF84
:1048D00038F1801ABED08178156CEE6CFF800B1217
:1048E000491B40047CEB7CDF0BF0BCAF38F1BCAD66
:1048F00038026CDD7CBD12AC8B12493F7E732B1FDE
:104900007A7338E41249587E732B0F7A7338F41295
:1049100048A17AD338CCDA79DAD8227E9005AC9FD8
:1049200009B42633BCBE227E732B0F7A7338F47E13
:10493000732B1F7A7338E47E732B207A7338E37EEF
:10494000732B147A7338E52230000312493FA20119
:104950009202124A170249587E732B207A7338E369
:10496000227440127B6A5009D200D2011249488059
:104970001C740112499B7E4338E17E5064AC4512A1
:1049800089D57AB32B1F7E0F33DE124DEF124958B3
:104990007E732B1F7A7338E402493FCA3B7CDBE409
:1049A0007AB32B14124FD47EC00A124EC2300FFDC0
:1049B000740112000E7E1F33DE128EF77D73BE74FB
:1049C000FFFF7809124A0B2E3400038018BE748052
:1049D000002807124A0B0B35800BBE744000280CD0
:1049E000124A0B0B341B0A301BC078BEBED00178B4
:1049F000097E1F33DE1289F47D737E1F33CD69314A
:104A0000001A7A732B147D37DA3B227E0F33CD2EBA
:104A100014001A0B0A3022CA3B7E34FFFF7A353568
:104A20007EB338D7F52A7EB32A6DF52B7EB32A6E76
:104A3000F52C7EB32A70F52D7EB32A6FF52E7E34C9
:104A400027107A352F7E1840007A1D31124EBB3068
:104A50000FFD740112000E7E083400124EB36CFF7D
:104A60008035124C946CEE80197E112CAC1E3E04E5
:104A70007E3002AC3F2D107E1D312D310B1A1012ED
:104A80004C9BE52EBCBE38E1E52E124CAA7402AC5C
:104A9000BF593534000BF0E52DBCBF38C512CD121F
:104AA000680B7E341000124CD0593533FE6CFF80F9
:104AB00078124C946CEE8014124E8C1E341E2450CE
:104AC000034E60801478F47D13124C9BE52ABCBE23
:104AD00038E6E52A124CAA7404ACBF593532BAE55F
:104AE0002ABEB12D5035124C947EE12A8014124E0C
:104AF0008C1E341E2450034E60801478F47D1312F3
:104B00004C9BE52DBCBE38E6E52A0A3B6D22E52D1F
:104B10000A1B6D009F01124CAE80047E341000749D
:104B200004ACBF593532BC0BF0E52EBCBF3882E572
:104B30002D0A1B6D007E180199121E016CFF802E3C
:104B40007402ACBF492534000A5FAD537E141000D7
:104B50009D15AD12740C1E141E0450034E208014BB
:104B600078F47D217402ACBF592534000BF0E52D9B
:104B7000BCBF38CCE52B0A1B6D007E18007A121ED4
:104B8000016CFF805C7404ACBF492532BA0A1FADCA
:104B9000137EF410009DF1ADF2740C1EF41EE4506F
:104BA000044EF480001478F37D2F7404ACBF5925B3
:104BB00032BAE52ABEB12D50267404ACBF49253265
:104BC000BC2E141000AD12740C1E141E0450034EA3
:104BD00020801478F47D217404ACBF592532BC0BBD
:104BE000F0E52BBCBF389E7E7338D90A376D22742E
:104BF0000C2F111478FB7EF400647D1F121DFF7DC5
:104C0000E37AE5357E7338DA0A376D22740C2F119A
:104C10001478FB7D1F121DFF7D636CFF80207402E2
:104C2000ACBF49453400BE453528097E3535593578
:104C300034008008BD465004596534000BF0E52D62
:104C4000BCBF38DA6CFF803A7404ACBF494532BA55
:104C5000BE453528097E3535593532BA8008BD46FE
:104C60005004596532BA494532BCBE453528097EE3
:104C70003535593532BC8008BD465004596532BCC3
:104C80000BF0E52BBCBF38C03002067E0D31124D53
:104C9000EFDA3B229F117A1F24F4226D007E1F243D
:104CA000F42F107A1F24F40BE0220A1B6D007E1FE4
:104CB00024F4121E017A1F24F47E252F740C7D1318
:104CC0007D326D2260052F111478FB0B14021DFF3D
:104CD0007EA12C7402A422CA3B7E081F34124EB35C
:104CE0007E1F39FC7A1D267EB32A74F52D7EB339DA
:104CF000ACB401067E3839AE80047E3805F86D33D9
:104D00007A352A740212001E7EB339AD700E7EB35E
:104D100039AB700874017AB339ADA1AB7EB339AD4C
:104D2000700674017AB339AD7EB339ACB40117752E
:104D30002C008009124CD0124DDF124E7BE52DBEA7
:104D4000B12C38F0801B752C00800F124CD0124D06
:104D5000DF3E243E241E24124E7BE52DBEB12C38AE
:104D6000EA7E3461591222F47A352E7E181F347F80
:104D70000112A1E8752C008016124CD0124DD8BE3D
:104D8000352A0809124CD0124DD87A352A052CE55F
:104D90002DBEB12C38E3124DE740257EB339ACB4BB
:104DA000011E0561E561BEB00A4015756100E52D83
:104DB0000A3B3E34CA397E1D267F03121FC91BFDE4
:104DC000740212001E124DE7500B74027AB339FBC5
:104DD000E47AB339ADDA3B2249351F340220307F03
:104DE000132D350B1A20227E372B07BE352A2212AF
:104DF0004DF90B347A732B2022CA797F109F001251
:104E00004FEA4CAA78067E340040806C6C9980385A
:104E10000AE92EE460AC7D7E7AF1827AE183E49344
:104E20007C8B9060AAE493700E7EF32A6EACF87EC1
:104E3000B32A700AFB2DF77DEF3EE47F612DDE0B78
:104E40006AD06DCC2F060B90BCA938C4BE080000F8
:104E500078020B0C0A5A6D447F107F02121E017FEC
:104E6000010B0C7E34C4007E240009121E01BE34E6
:104E700000FA28047E3400FADA79227E0D262D15F8
:104E80000B0A309D3259351F34052C227E112CAC73
:104E90001F3E047E3002AC3E2D107E1D312D310BA5
:104EA0001A207A2724F27402ACBE49353400AD23AF
:104EB000740C227E340038E4021FEE7E082A6D1244
:104EC0000BE9E412000E74017E709912122C02009C
:104ED0004EB40305124EE18002E422124EC6740164
:104EE0002212CCEDE412000E7E082A6D020BE912AC
:104EF00082083802E422124FF2495533E5BEB0026F
:104F00003803023FC0024ED17E0B707A732B0F29FB
:104F10007000047A732B62297000017A732B1429B4
:104F20007000037A732B20124FE2124FDBD200C2C3
:104F300001024948CAF86CFF80347E732FA9BC7FF8
:104F4000682A7E3005AC3F124FB0CA397E3038AC8B
:104F50003F124FC9121FC91BFD7E34008CCA397E17
:104F6000308CAC3F124FBE121FC91BFD0BF090617D
:104F7000C5E493BCBF38C37E232FA97E3005AC2384
:104F8000124FB0CA397E232FA97E3038AC23124F7E
:104F9000C9121FC91BFD7E34008CCA397E232FA97C
:104FA0007E308CAC23124FBE121FC91BFDDAF822D3
:104FB0002E1426336D00124F087E340038222E1432
:104FC000308A6D007E1832BA222E142FAA6D007E10
:104FD000183400227E082A6D020BE97E082A6D0231
:104FE0000264124FFA7A372B1B229060A7E4937C5D
:104FF000AB227EA333E37404A4227E232B0F7E33E3
:1050000038F37E3460D67E2400FF0B1A00AC232DCB
:1050100010BE14000A50047E14000A7E632B10BEDA
:10502000140F3C40047E140F3CBE1407084003E4F8
:105030008021BE140384401690611BE4937C7BBEE8
:10504000700128047401800B7A732B108009906121
:105050001BE4937AB32B107E732B10BC766802D2BC
:10506000107E2401F47D318D327C17BE1007280399
:105070007E10077E1F33C569510086541F0A013E0A
:10508000043E043E043E043E042D05790100866D75
:10509000007E34B8007E24000B021E527E083919AF
:1050A0001250D37E0839211250D31250E81250EF1B
:1050B0000250B37E373919BE34000028157E733490
:1050C0004EBE7005500C7EB303F070061250F612FF
:1050D00027EB220B0A30E5670A2BBD3228049D32EC
:1050E00080026D331B0A30227E082BB70250D37E1C
:1050F0000839EF0250D36D337A3739A922CAF87EC6
:10510000A32A027EB32A03BEA0013821BEB0013813
:105110001C7E472886BE44001E280280107EF32F86
:10512000804CFF68177E472BB74D44780F1250F61E
:1051300074017AB339AB7AB303C580354CAA78369B
:10514000B401337E372BB77A372F827EB32F80B4EA
:10515000031F7E372BB7BE340000281574047AB3C2
:105160002F807E372F987E272F9A12520E4107806C
:105170000012C80641077EC729087ED7290A4CFFBE
:1051800078197057BEA00178527D3C7D2D12C7A1C1
:1051900012520A74017AB32F808040BEF001782E3B
:1051A0007E272F889E272F907E14628A1252C7BDB9
:1051B0002338137E272F969E272F8E7E14628C1203
:1051C00052C7BD23281574037AB32F808005BEF023
:1051D0000378087AC72F987AD72F9A7EB32F8060EA
:1051E000267D3C7D2D7E172BBB7E072BBD1254C226
:1051F0000A2B7E732F7F0A37BD32580B12520A7A60
:10520000C72BBB7AD72BBDDAF8227D3C7D2D7D42A2
:105210007D137D241257B77D3112C67002521F7E56
:10522000032FA8BE00F0500241B841AD6C997EB387
:105230002F7FBEB0205005047AB32F7F7E1F2BBF77
:105240007A1F1F347E800180497404ACB849352B25
:10525000BF49252BC17E171F347E071F361254C24B
:105260007C1B7E032F7FBC0138260B907E7004AC24
:10527000782E342BBF7E141F347404121E867E34A5
:105280001F347E3004AC392E142BBF7404121E86DA
:105290000B807E032FA8BC0838AF0A590B547C0B37
:1052A0007A032FA87E032F7FBE0020500B7E032F92
:1052B000A8BE00EC4002412C227D349E3400407D8B
:1052C0002E9D237E1461497E0400FF0B0A30227D4F
:1052D000E39F117E1461431255ED906135E49370A4
:1052E000037D3E22906136E493B401067E832A6FEB
:1052F00080047E832A70128924BEE4003F381E7E1B
:1053000024003F9D2E7E1461471252C71254049010
:1053100061451253FB48027F109F017F10124FEA34
:10532000BEA00028327D149E14003FBD1E3813120B
:1053300054AC400E1252B91253EE48327F101B1C6F
:10534000802C1254AC50317D349E3400201252BF58
:105350001254047D1F801D4CAA781D1254A5BD5EF9
:1053600038161252B91253EE48047F101B1C0A0B58
:105370007D1F9D106D002F10BEE4003F286F12545A
:10538000A5BD5E28687DD40BD41ED47D5D1B54BDA5
:105390005E400C7D359D3E6D227E14614B800A7D02
:1053A0003E9D3D6D227E14614D7E0400FF0B0A1070
:1053B000121DF6125408BD5E7D1F400C1E141B14F6
:1053C0006D009F017F1080061E146D002F109061EC
:1053D000451253FB58047F108013906146E4930AF2
:1053E0000B7D1F9D106D00BF1008027F1022AD3293
:1053F0006D227C767C651A24906146E4930A1B6DCD
:1054000000BF1022AD326D227C767C651A24227E8C
:105410007337EE7A7338647E2733DB7E1461C812EB
:1054200052C71E34BD32500674017AB337EE7E1473
:1054300061C81252C7BD325008E47AB337EC125536
:10544000567E3737F4BD3250047A2737F412AED483
:10545000380A12AECC38051257F3283D12555D7E3E
:105460001461C81252C71E341E34BD3228217EB3C7
:1054700037EC047AB337EC7E7337ECBE7032281405
:1054800074327AB337EC12AEE57AB338618005E452
:105490007AB337EC7D3202AFCD02549C1255B4E49E
:1054A0007AB337FA227D549E54003F227D049E0435
:1054B000001F7ED460D17EC400FF0B6A102D10BD8A
:1054C0001E227D517D129D351220307CA7125788F7
:1054D0007CB7BCBA50037CBA22227D137E5462583A
:1054E00012550950217E54625A12550928187E140B
:1054F000625C1252C7BD32500D7E14625E1252C7FA
:10550000BD322802E4227401227E4400FF0B2A30BF
:10551000BD312212540F0255197EB337EE600F745D
:10552000017AB337F67EB3386470031255BE7EB38A
:1055300037F6B4010C740312554D1222F43E348038
:1055400007E412554D1222F47A372A62227AB336D2
:10555000B27E34615B2274027AB337EE227EB337B7
:10556000FAB401030255567EB33860047AB338604A
:105570007EB337EEB402187EB3385F047AB3385F77
:10558000B4010674017AB3386074017AB337EE7EE1
:1055900073385FBE7003400F74017AB337FA125547
:1055A000561255BE1255B47E733860BE700A280379
:1055B0000255B422E47AB338607AB3385F22E47AD1
:1055C000B337EC6CAA800D6D447E700CAC7A5943F5
:1055D00038030BA01257E338EEE47AB337ED6D339E
:1055E0007A3737F47A3737E9227E14628E7E0400E8
:1055F000FF0B0AF022CAF86CFF7EB72F9C7EC72FE4
:105600009E7E972F847ED72F867EA72F987EE72FAA
:105610009AE47E732FA81B707D2B7D1C1257397066
:1056200002E12C7E732FA8BE700A2813E47E700955
:105630007E272FA07E172FA21257397002E12C7EF1
:10564000732FA8BE70142813E47E70137E272FA436
:105650007E172FA61257397002E12C7E3462721227
:105660005731BDFC284C7E346270125731BDFB505F
:10567000417EB32F81703B7E3462761222F4125544
:10568000E97D8F9D83BE872F8250277E34627412FE
:1056900057EB9DF8BEF72F8228187DFC3EF4BDFB2A
:1056A0004002E12CBDA950057EF020807F7EF021D4
:1056B000807A7E34627A125731BDFB286F7E346265
:1056C00078125731BDFC50647EB32F81705E7E34FA
:1056D000627E1222F41255E97DAF9DA3BEA72F82F0
:1056E000504A7E34627C7E2400FF0B1AA09DFABED5
:1056F000F72F8228377DFB3EF4BDFC502FBDED50C7
:10570000057EF02280261257D849352BBB49152B30
:10571000BD49252BAB49052BAD9D10BE14002018AB
:10572000089D32BE34001058037EF0237CBFDAF8A7
:10573000227E2400FF0B1AF0227D417D027C377C03
:105740002B7404ACB249352BBF49F52BC17404ACA2
:10575000B349252BBF49552BC11294C07D3F9D35C0
:105760001220309D341220307E54626A7E4400FF45
:105770000B2A20BD32500F1257887E14626A125FC6
:10578000B85003740122E4227D319D300220301292
:10579000CCA11250F67A37344B1227C71234830249
:1057A00057A21257E0500474198002740A7AB33673
:1057B0008EE47AB3368F227EA32FA8BEA0F05017B6
:1057C0007404A459352BBF1257D859252BC17EB369
:1057D0002FA8047AB32FA8227EA32FA87404A42292
:1057E000A20A229061C5E493BCBA227E2400FF0B7A
:1057F0001A80227E7326F5BE7000227E7328937A6B
:105800007328947E732A027A732A03E47AB32A06F1
:1058100022C2007EB3169160067EB3169070071206
:1058200058292802D200A200227E732884BE70016B
:1058300022CA3B7E772A5C129C5F7D633E343E34F5
:105840007EE4000A1258BF7EB328A8600F7E37336B
:10585000C3BD3648073E343E341258BFBE64044CC4
:10586000080F129D7350067EB328A86004740A8046
:10587000137EB328A8600C7EB333C1BEB0002808E5
:10588000148001E47AB333C17EE72A5C7D3E12378F
:10589000057E5333C1BE50002812BD3F58047DF32E
:1058A0008006BDEF08027DFE7AF72A5C125829288F
:1058B0000312598A7A6733C37A772A5CDA3B227DEE
:1058C0002E121DB37DF322129FDE125831129FF566
:1058D000129C980258D6CA3B122E2A7EB3288460A6
:1058E000067EB333C06009E47AB333C27AB3334778
:1058F0007EB333C070696C99805D7402ACB9098560
:1059000026FA09F526FB7CB9129D5140486CEE80C1
:105910003C7402ACBE09D5334809C533490A280A8C
:105920003D12598278250A2F0A3C125982781C7C34
:10593000B91247597E14622B125FB8580E7CB96CAD
:1059400077122EF17CB87C7F125FCA0BE07E733336
:10595000C2BC7E38BC0B907E732884BC79389B7E99
:105960007333477A7333C20A373E34CA397E1833E9
:10597000847E083348121FC91BFDE47AB333C0DAB2
:105980003B229D321220304D3322CAF86CFF801723
:105990007CBF124759BE372A5C580A7CBF129D480B
:1059A000AC7F125FC20BF01259B238E4122E2ADA21
:1059B000F8227E732884BC7F22CAD8CA79C2006DBF
:1059C000887A873962E47AB31F58E562BEB0FF5027
:1059D0000205627EB32884600C127F470B1A80BEDA
:1059E0008707FA280AC2146D887A87392341E4129E
:1059F00091E060127E34620E1257EB7A87391912E9
:105A00005B4B7A8739237E8739194D886806740184
:105A10007AB328A96CFF8077E40A3F19B31F3412C8
:105A20005B657E081F527CBD7C7E125CFD7D937E93
:105A3000873923BD8950047A9739237E873962BD1F
:105A40008950047A973962E562BEB005381F7E0836
:105A50003925125B925007125B5CD200802F7E08C2
:105A600039257E181F5212923250228010125B4B41
:105A7000BD8938197E081F521291545010125B5C78
:105A80007E081F587E181F521291A3D2000BF012ED
:105A900059B238843000336CFF801C125B657E087D
:105AA0001F58125B9240090A3F09B31F34B4010525
:105AB0007CBF125B720BF01259B238DF7562007E48
:105AC00034620E1222F47A3739197E631F587E70C1
:105AD00006AC670B34CA397E181F587E0839251268
