:1000000002181102B66BEBAA08222202005AB402AF
:1000100004A9B7EA2224FFA997EA2202583AB402B7
:1000200004A9B6EA2224FFA996EA220270837F601F
:10003000A9C2EA74011213967F061205B47F060264
:1000400009A12202709FF5FDE5FE22020071121047
:10005000A2021379000000000000320200760102C3
:10006000040810204080D201022321020072022FD6
:10007000FA3232021052CA7BCA6BCA5BCA4BCA2B15
:10008000CA1BCA0BC0D0C083C082D20F7E0F3AFAFF
:10009000693000047A733B0A7E733B0A0A375E3488
:1000A00000046804D20E8002C20E7E34001F793034
:1000B0000004C2C312129E12710E7E1F3AFA6931F9
:1000C00000025E340040682E6CAA7E1002AC1A7EDC
:1000D0001F3AFA7F712DF06917009C59103AFE0BF8
:1000E000A0BEA00378E4691100A47A173B06693129
:1000F00000A27A373B04A9C1C4D082D083D0D0DA21
:100100000BDA1BDA2BDA4BDA5BDA6BDA7B327D1334
:100110007E1F3B291B1A10C2C6D2EE22FFFF542CB1
:10012000CA797F507CEB7E3400247E08002C7E242C
:1001300000021259B2E52CBEB0003802214AE52C6B
:10014000BEB0762802214A7EE12CBEE0763802213C
:10015000787E34179D793500027E34178179350019
:1001600004BEE0816802217174237A5BB0741C6163
:100170008474017A5BB061847CBE14BEB0754002A9
:1001800061337EA003A42E54018C89540202FB0229
:1001900002FB0203330202FB0203330202ED0202FE
:1001A000FB0203330203330202FB0203330202FBAE
:1001B000020333020333020325020333020309025D
:1001C00002FB0203170203170202FB0203330203BE
:1001D00033020333020333020333020333020333D4
:1001E00002033302033302033302033302033302F5
:1001F00003330203330203330203330203330203E4
:1002000033020333020333020333020333020333A3
:1002100002033302033302033302033302033302C4
:1002200003330203330203330203330203330203B3
:100230003302033302033302033302033302033373
:100240000203330203330203330203330203330294
:100250000333020333020333020333020333020383
:100260003302033302033302033302033302033343
:100270000203330203330203330203330203330264
:100280000333020333020333020333020333020353
:100290003302033302033302033302033302033313
:1002A0000203330203330203330203330203330234
:1002B0000333020333020333020333020333020323
:1002C00033020333020333020333020333020333E3
:1002D0000203330203330203330203330203330204
:1002E00003330203330203330202FB41FB7E341764
:1002F0009D793500027E34173A613F7E341771795B
:100300003500027E341781613F7E341771793500E4
:10031000027E34170A613F7E3416EE793500027E84
:1003200034171E613F7E341762793500027E341720
:1003300049613F7E34179D793500027E34178179FB
:10034000350004BEE0162802614E7CFE61627EF03C
:1003500016BEE072500261620A3E9E3400720B3497
:100360002CF77E7003AC7F7D232E2417C17A518237
:100370007A4183E4937A5BB02E3417C27A71827A21
:100380006183E49339B50001DA7922CA3B7F307486
:10039000011213DE297300F32E70FF920129B300BE
:1003A000F41213AF7F03120D727F031206BA297382
:1003B000000A0A377E0F3AFA79300024297300A325
:1003C0000A273E243E243E243E243E243E243E244E
:1003D000693300FF4D327E0F3AFA793000022973FB
:1003E000000A0A47297300050A579D54F53429B3BA
:1003F00000A5700B29B300F8297300F7120BAD2983
:100400007300A52E70FF9201E534120B1E693300B4
:10041000FD7E0F3AFA79300028692300FB3E243E26
:10042000243E243E243E243E24297300FA0A372D1C
:10043000327E0F3AFA7930002A297300F90A377EA2
:100440000F3AFA7930002C7E3400017E0F3AFA79A7
:100450003000347E34010B7E0F3AFA7930002E29B9
:100460007300050A377E0F3AFA79300010693300BD
:10047000A87E0F3AFA7930001C693300AA7E0F3A41
:10048000FA7930001E6CAA7E5002AC5A6913010141
:100490002D127E0400FF0B0A307E0F3AFA2D1279DE
:1004A0003000440BA0BEA00C40DDDA3B22CAF87F2E
:1004B000707E7BF029770001BC7F28027CF76917EA
:1004C00000066D007E3400F274FF1219367F0712A9
:1004D0000EEDA9D6CB6CAA802D6C77801F7E100BF9
:1004E000AC1A0A172D013E04691700062D106D0085
:1004F0000B0A206E24FFFF1B0A200B7029670001E6
:10050000BC6738D90BA07E7B60BC6A38CC693700E9
:10051000067E0F3B38793000047C4F6C550A3F2D26
:10052000327E0F3B387930000C6D117E1F3B381B3B
:100530001A107E3400D0120F456CAABEA0045018C9
:100540007E7004AC7A7CB77E1F3B38694100266020
:10055000421E441478FB803BBEA008501B0A3A1B85
:10056000363E343E347CB77E1F3B386941002860FC
:10057000221E441478FB801B0A3A9E3400083E3445
:100580003E347CB77E1F3B386941002A60051E441B
:100590001478FB5E44000F7E5002AC5A69370006A7
:1005A0002D326D221B1A400BA0BEA00B408DA9C698
:1005B000CBDAF822297000962990009829600097DC
:1005C0002980008DBE800438046CAA8021BE80087A
:1005D00038057EA0018017BE801038057EA00280FD
:1005E0000DBE802038057EA00380037EA004BE904F
:1005F0000328037E9003BE803F28037E803FBE60B9
:100600000128037E6001BE700228026C770A283E32
:10061000243E243E243E243E247C896C993E443E64
:10062000443E442D420A263E243E243E243E242DB0
:10063000240A373E343E342D327E7F3B2979370001
:100640000229B0008C7C4B6C5529B0008B0A3B2DE5
:10065000327E7F3AF279370080693000A07E7F3B9E
:10066000297937000C6930009E5E34E00F29B00014
:100670008C0A2B1B243E243E243E243E242D327E15
:100680007F3AF2793700820A2A3E243E243E243EF5
:100690002429B000990A3B2D327E7F3B297937000F
:1006A000066930009C7E7F3B29793700086930005D
:1006B0009A7E0F3B297930000A227F607401121361
:1006C000DE293600F5292600A3291600A4BE200243
:1006D00028037E2002BE104028037E10407E340096
:1006E000047CB260053E341478FB7C070A317E2F0F
:1006F0003AFA793200127C73AC700A211215D57C5B
:10070000270A327E2F3AFA793200147C73AC7029B2
:100710002600F60A22AD320A218D327D437C73AC6D
:10072000700A211215D57CA77C2A7CB92CABBEA0FF
:100730000C50037EA00CBE200C50037E200C0A201F
:100740000A311215D57DE30A3A0B34AD3E0B34BEA7
:1007500034020040047E3401FF294600F77E500237
:10076000AC450AF2ADFE2D2F0B24BE24020040043E
:100770007E2401FF0A137E7F3AFA7917000A1E24AD
:100780007C456C551E342D327E0F3AFA7930000CC0
:100790000A3A7E0F3AFA7930002222A9D6CB693084
:1007A00000047E2F3B3879320004693000067E2F2A
:1007B0003B3879320006693000087E2F3B387932A9
:1007C00000087E0B707C476C55297000010A372D9C
:1007D000327E2F3B387932000C297000020A377EB6
:1007E0000F3B387930000E6D117E1F3B381B1A10FD
:1007F0007E3400E0120F45A9C6CB22A21722FFFFCC
:100800007F21A9D6CB693000047E7F3B3879370041
:1008100004693000087E7F3B387937000669300074
:10082000067E7F3B3879370008297000017C476CD1
:10083000557E0B700A372D327E7F3B387937000C9E
:10084000297000020A371B347E7F3B387937000A53
:100850006930000A7E7F3B387937000E6930000C22
:100860007E7F3B38793700106930000E7E7F3B3841
:1008700079370012297000037C276C337E1F3B38C8
:100880001B1A107E3400A0120F457E1F3B386911E1
:10089000001A7A2B306911001C39320001691100ED
:1008A000167912000269110018791200046911000A
:1008B00022791200066911002479120008691100DA
:1008C0001E7912000A693100207932000CA9C6CBCA
:1008D00022CA3B7C577C4B5E4003693000045E605B
:1008E0003F6CAA0A4A69F0000A69E000082DF47E0C
:1008F0007BB00AFB7D4F7C896C997DF40AEA69D054
:10090000000E69C0000C2DDE7E6BB00A4B2D4F7EB1
:10091000D028ACD57EF002ACFA7DD72DD67EF0F093
:10092000ACF42DD77E7F3B252DFD7947018C0BA0A4
:10093000BEA00E78AE6CAA7E9002AC9A69F000025E
:100940000B0AE02DF40B7A407ED028ACD57EF00265
:10095000ACFA7DD72DD67EF0F0ACF42DD77E7F3B60
:10096000252DFD794701800BA0BEA00440C97E90D3
:10097000F0AC947428ACB57DF52DF47E2F3B252D7D
:100980005F79320188693000067E30F0AC3474281B
:10099000AC5B2D217E0F3B252D127930018ADA3B8D
:1009A000222960000B0A46296000040A262D247CB7
:1009B0006529B00006BCB628027C6B2970000529A9
:1009C000B00007BCB728027C7B6CAA6D227E900227
:1009D000AC9A7E7F3AF22DF4792700020BA0BEA0DC
:1009E0002378EA6CAA80550A2A7F702DF2295700D5
:1009F0004CBE50235023294700B40AD47D4D7C8936
:100A00006C997DD47E9002AC957E7F3AF22DF40BEA
:100A1000F50B7A404D4D1B7A400A4A7F702DF42920
:100A200047004C0AD47E9002AC9A7E7F3AF22DF4B5
:100A30000BF50B7A404D4D1B7A400BA0BC6A38A7D2
:100A40006CAA801D0A2A7F702DF22967006F0A4662
:100A50007E5002AC5A7E7F3AF22DF2794700480B65
:100A6000A0BC7A38DF227C7B7E7F3AFA6947000C93
:100A70006C883E446907000A695700021E541E54E0
:100A80001E541E541E541E541E545E5400037E14E5
:100A900000047002419B3E141478FB7CA30ADAAD7B
:100AA000D07DCD6D117917008C7CB7700241B41EDA
:100AB000D41478FBBED40100380241C27ED40100B8
:100AC00041CEBED40010400241CE7ED400107D3D08
:100AD00012126A0A1B7E1F3AFA791100907E1F3AA1
:100AE000FA79D1008E7E7F3AFA69370008AD3C8DE5
:100AF0003D793700927E1400067E1F3AFA79110084
:100B0000947D249D200A3AAD327E0F3AFA79300066
:100B1000967E3400107E0F3AFA79300098227C5B82
:100B20007E0F3AFA6940002230016B6DFF7D3FBEB7
:100B30005010282E7E54FFFF795000429E50106CBA
:100B4000AA80117EE400017CBA60053EE41478FBC3
:100B50002D3E0BA0BC5A38EB7E6F3AFA7936004036
:100B6000802579F000406CAA80117EF400017CBAE7
:100B700060053EF41478FB2D3F0BA0BC5A38EB7E89
:100B80007F3AFA793700427D342E34000C7E7F3A6A
:100B9000FA79370016226D33793000407E0F3AFA29
:100BA000793000427E1F3AFA79410016227C177C88
:100BB0003B6D337E2F3AFA793200407E2F3AFA7934
:100BC0003200427E7F3AFA695700127CAB693700E7
:100BD000021E341E341E341E341E341E341E345E77
:100BE0003400037CB77E44000460053E441478FB67
:100BF0007C290A220A3A1215D50A232D327CB77CA9
:100C0000616C770A0B1E042D037907000C7C73AC12
:100C1000720A2A1215D57E0F3AFA793000166D3312
:100C20007E0F3AFA7930002222A9D6CB693000062D
:100C30007E2F3B3879320004693000087E2F3B3824
:100C400079320008297000027C476C552970000336
:100C50000A372D327E2F3B387932000C7E0B707CA8
:100C600047297000010A372D327E2F3B3879320038
:100C70000A297000040A377E2F3B387932000E298A
:100C8000B0000554017C2B6C337E1F3B381B1A10BF
:100C90007E3400C0120F45A9C6CB22CA797CAB5E58
:100CA000A0036C777E5002AC5769D0000E69C0007B
:100CB0000C2DD2296600010AF67D4F7C896C997D46
:100CC000F47E6B600A462D4F7EF0F0ACFA2D277E45
:100CD0007F3B252DF2794702540B70BE700E40C445
:100CE000694000047EF0F0ACFA7E1F3B252D377979
:100CF0004102506930000674F0A47E0F3B252D158B
:100D000079300252DA7922A9D6CBC21E69300004AA
:100D10007E2F3B3879320004693000067E2F3B3845
:100D200079320006693000087E2F3B38793200089E
:100D30007E0B707C476C55297000010A372D327E7E
:100D40002F3B387932000C297000020A377E2F3B86
:100D5000387932000E29B0000354010A5B7CABE401
:100D60007E1F3B381B1A506930000A120F45A9C676
:100D7000CB22693000AE7E2F3AFA79320006295034
:100D800000A60A557D231E249D257E2F3AFA79223E
:100D900000187D231E241B257E2F3AFA7922003865
:100DA000692000FD1E349D329E34000A7E2F3AFADF
:100DB00079320026297000A70A377E2F3AFA793255
:100DC000001A2970000B0A27297000042D327E2F8B
:100DD0003AFA793200080209A1CA3BF5247F417F23
:100DE00030E5257E080026120120E524BEB0232828
:100DF000037524236CAA80360A3A2D397D287E1B80
:100E0000B0BEB126400D74230A4A7F032D147A0B1D
:100E1000B080197E1BB00A3B2E35287A71827A6128
:100E200083E4930A4A7F132D347A1BB00BA0E52488
:100E3000BCBA38C4DA3B22A9D6CB692000047E2F85
:100E40003B3879220004692000087E2F3B38792244
:100E500000087E0B500A557CABE4295000010A259E
:100E60002D257E2F3B387922000C295000020A25BF
:100E70007E0F3B387920000E7E0F3B387930000A18
:100E80006D117E1F3B381B1A107E340040120F4537
:100E9000A9C6CB227CAB7E3400017E0F3B29793082
:100EA000000EC21DE47AB33B245EA0030A1A3E146E
:100EB0007E1F3AF21B1A107E0F3AF22E1400840B9A
:100EC0000A304E70201B0A3074011213567E0F3BFD
:100ED000290B0A304E700C1B0A30A9D3CD7E0F3B74
:100EE000290B150B0A304E70011B0A30227F10A906
:100EF000D6CB691100027E2F3B38791200046911AC
:100F000000047E2F3B3879120006691100067E2FFF
:100F10003B38791200087E1B300A037E140100ADB5
:100F200010297100010A372D317E0F3B38793000CE
:100F30000C6D117E1F3B381B1A107E340060120F9F
:100F400045A9C6CB22A9D7CB7D234E50017E0F3BAE
:100F5000380B0A304D321B0A30801E7E0F3B380B97
:100F60000A307D235E240008BE240008780BA9D730
:100F7000CB4E70041B0A30D21E7E0F3B380B0A305A
:100F80007D235E248000BE24800078CF4E60401B0D
:100F90000A306D117E1F3B381B1A1022CA3BF52404
:100FA0007F417F30E5257E0800261201206CAA8053
:100FB000360A3A2D397D287E1BB0BEB127400D740C
:100FC0001C0A4A7F032D147A0BB080197E1BB00ACD
:100FD0003B2E352A7A71827A6183E4930A4A7F1321
:100FE0002D347A1BB00BA0E524BCBA38C4DA3B22FE
:100FF0000563312018130F0D0C0A090807060504B4
:10100000CAF87DE27DD37CFBBE300128067EF40069
:1010100010800FBE300028067EF4000880047EF4A5
:1010200000047D1F6D006D337E2400101216747F46
:10103000017D3D6D221216077D1E1216217404AC2F
:10104000BF7E0F3AFA2D157930008279200080DAC0
:10105000F822CA7BCA6BCA5BCA4BCA2BCA1BCA0B13
:10106000C0D0C083C082D21D7E0F3B290B0A307CCA
:10107000577A533B244E700C1B0A30C2C66D337E28
:101080000F3B297930000E12129E12710ED082D0C1
:1010900083D0D0DA0BDA1BDA2BDA4BDA5BDA6BDAD5
:1010A0007B327403121356A9D1C47E0F3AF22E1468
:1010B00000840B0A304E70201B0A307E1400017E23
:1010C0001F3AF21B1A107E0F3AFA0B160B0A304E1B
:1010D00070011B0A30C20FE47AB33B0A7E1F3AF25A
:1010E0000B1A305E34000178F374020213567C6BE5
:1010F0006CAA80177E9002AC9A7E7F3B252DF40B64
:101100007A207F702DF41B7A200BA0BC7A38E56C16
:10111000AA80207E5002AC5A7E7F3B252DF26927A3
:1011200000380AF70A4A2D4F3E447F702DF41B7A8F
:10113000200BA0BC6A38DC22CA797CAB5EA0036CB1
:10114000777E5002AC577F602DD2296600010AF6E7
:101150007D4F7C896C997DF47E6B600A462D4F7EB5
:10116000F0F0ACFA2D277E7F3B252DF27947025413
:101170000B70BE700E40CADA7922295000F5AC5BC4
:101180007E0F3AFA6930000C0A563E54BE24020023
:1011900040047E2401FFBD25281F2E14000C6C6620
:1011A0001B0A301E247C456C557E0F3AFA2E140023
:1011B0000C0B0A304D321B0A30227C6B6CAA7E501D
:1011C00028AC577E9002AC9A2D427E50F0AC562D42
:1011D000247E7F3B252DF26927018C6C440A4A7FCF
:1011E000602DD47E6BB07C8B6C994D247927018C5B
:1011F0000BA0BEA00E40C7227C6B6CAA7E5028AC10
:10120000577E9002AC9A2D427E50F0AC562D247E33
:101210007F3B252DF26927018C6C550A4A7F602D92
:10122000D47E6BB00A4B4D247927018C0BA0BEA055
:101230000E40C922A9D6CB543F5E701F7C2B6C3365
:101240003E143E142E1400050A373E343E343E341C
:101250003E343E342D317E0F3B38793000027E0F14
:101260003B3879200014A9C6CB227D236C667E30E2
:1012700002AC362E1418E77A31827A2183E4930A7D
:101280001BBD1228070B60BE601440E27E7002ACEA
:10129000672E3418E87A71827A6183E493227E0F94
:1012A0003AF22E1400840B0A305E70DF1B0A307491
:1012B000031213567E1400037E1F3AF21B1A107E8F
:1012C0001F3AF20B1A305E34000178F3E402135631
:1012D0002E3404007E0F3AFA793000607E34040028
:1012E0009D327E0F3AFA793000627E3400017E0F23
:1012F0003AFA793000640A3B7E0F3AFA7930006698
:10130000227CA5BE34000028100A1B3E147D237CDD
:10131000456C552D210A3A80080A2B3E247C676CC7
:10132000772D327E0F3B2979300004227CA77E1F67
:101330003AF26941008A5E44100F0A1A3E143E14C4
:101340003E143E140A5BC42354E07CABE42D514DA3
:10135000457941008A227E0F3AF2693000845E703E
:10136000E71BB1680C14680C0BB178054E70108047
:10137000034E700879300084227E34001F7E0F3ABD
:10138000FA79300004A9D2CD7E0F3AFA0B0A304E1A
:1013900070011B0A3022BEB000280AA9D7CAA9D3FF
:1013A000CBA9D2CB22A9C7CAA9C3CBA9C2CB223011
:1013B000010A54030A3B2E34020080026D337E0F73
:1013C0003AFA7930003A227E0F3AF26930008A60A8
:1013D000054E601080035E60EF7930008A22BEB057
:1013E000002809A9D6CAD2CDA9D1CB22A9C6CAC282
:1013F000CDA9C1CB227E34000F7E0F3AFA7930009E
:1014000004C2C3D2EB220215C16E00807CB1337CD2
:10141000B033680D0468EF7CB5337CB43378037F58
:1014200010220468E17D5092F77D457D51BF214037
:10143000067C807F017F121215847EA1D05CB004EF
:10144000780320D5C17CB00478075002B2D50215CC
:10145000C992D5BE80FF68F67CB89CB06C00602A4B
:10146000B418057C4102159D50FB80032F00047CBD
:101470009B5E900778F630E4067C437D106D00306B
:10148000E3087C437C327C210A0030F5199F1078F8
:101490000E220215C61B8068F92F1150020B707CBA
:1014A000B530E7F1801B2D317CB5A5397C5B50113F
:1014B0000B8078030215C91E341350034E60801A46
:1014C0002B02159D74F86CAA6E40806E0080BEB031
:1014D000FF68277C837C975C3B5C7BBF10682AF4A9
:1014E000400D7C382D15F45C3B500F0B04800B7CB9
:1014F000792D35F45C7B50020B24BF10680B7CB057
:1015000020E7067CB420E701B3227EA020800C7E79
:10151000A01080057EA0086C556D333392D5500A1B
:101520006E34FFFF6E24FFFF0B1CA5EC3340062F2B
:1015300011D5F0F6227CBA247EA2D5137C767C6588
:10154000A5CC92E77C5B227CB5337CB43392D54E3C
:101550005080248140039F11227C457C567C676C1F
:101560007724E0500E7E1CFFFF221E341E24500301
:101570004E60800478F430D50A6E34FFFF6E24FF8D
:10158000FF0B1C222D0092D50E104E10807D422D97
:10159000445002B2D54E50806C447CB8222C44504A
:1015A000120B1C7E40005E507FBE18000078040BBA
:1015B000806816A2D57CB8137C4B7CB592E77C5B27
:1015C000227E1CFFFF229F11227E24FF8020D50255
:1015D0006C456D3322C2D57CB430E708B2D56E2499
:1015E000FFFF0B247CB630E712B2D56E34FFFF0B41
:1015F000348D326E24FFFF0B2480028D3230D506ED
:101600006E34FFFF0B34227D51AD037D027D21AD91
:10161000052D12AD352D21227D02AD31AD102D21CC
:10162000226D0074104D00780B4D2278278D317D8E
:10163000126D22227D437D326D222F112D445002E6
:10164000A50FBF1040049F100B901478ED7F016D23
:10165000227D34227D417D138D247D022F004004A4
:10166000BD0440049D040B141478F17D237D317D6D
:10167000106D0022C2D57CB030E708B2D59F229F02
:10168000207F027CB430E713B2D59F229F217F12C6
:101690001216239F229F207F02800312162330D52B
:1016A000069F229F217F12226CAA4D11681A1E5498
:1016B000680E0B38201B18200B350B151B5478F2C5
:1016C00050067E39407A1940226CAA4D11681E1EC0
:1016D00054500C7E1B007A190068120B1C0B140B63
:1016E0001A001B18000B1D0B151B5478F222000169
:1016F00002030405060708090A0B0C0D0E0F101152
:101700001213141C1D1E1F202122040506070809A0
:101710000A0B0C0D0E0F10111213141516170001E1
:10172000020304050607080E0F10111213141516F4
:1017300000010203041C1D1E1F20000102030E0FE6
:1017400010111213141516171803040506070809BB
:101750000A0B0C0D0E0F1011121314151617181971
:101760001A1B060504030201001C1D1E1F20210078
:10177000000001020304050607081C1D1E1F20218E
:1017800022000102030405060708090A0B0C0D0ECE
:101790000F101112131415161718191A1B00010235
:1017A000030405060708090A0B0C0D0E0F10111291
:1017B000131415161718191A1B1C1D1E1F20212281
:1017C00000010101101C02101C000101040F1C008B
:1017D0000101061B0F070E1C0823150001010A104A
:1017E000190B141C0C0F180001010E23150F0D19F5
:1017F000000101110D14121019131C10141A1015E8
:10180000101916231C72231573231C74231C750EC8
:101810001C7584017E443FFFE47A49B01B4478F98B
:101820007EF83B3D7564007565007566027567005E
:10183000C208C209756C00C210C211750C64750D26
:1018400064750E00750F00751A00C213756D007572
:101850006E00C20AC20B756F00C215757000C21708
:10186000757100C218C219757200C21AC20C751EB9
:1018700000751F64C21BC21C757300D205D206D24C
:1018800007D21DC20ED20F7E0400FF7E1419780B02
:101890000A405D44681A692000020B0E0B44800A5E
:1018A0007E0BB07A29B00B240B0C1B4478F280DF3E
:1018B00002274A0000004700CB01000010FDC7FBD3
:1018C0007EFBFB01BB0C9E19002145000E010F029F
:1018D0001003110412051306140715081609170A38
:1018E000180B190C1A0D1BDF22C321A920941F818C
:1018F0001E701D621C551B4A1A4119381831172BCE
:1019000016251521141C13191216111310110F107E
:101910000ECAF87F20800A7E1BF07A2BF00B340B66
:101920005469FFFFFC7DEF1BE479EFFFFC4DFF786E
:10193000E67F10DAF8227D437F1080071B447A0B84
:10194000B00B144D4478F522320119010002F8045D
:10195000E705CE06C207B508FF00010200FF01023D
:101960000001FF02000102FF7D23BE2400004803A6
:101970007D32226D339D3222000435A2000000002A
:10198000000103FF01000125F601000139CA000032
:10199000023A1C000000023A1E000000013A20003A
:1019A000000138FEFF0001029600000102970000CE
:1019B00004030600FF00FF000A0386000000000089
:1019C00000000000000001039005000103EB00008F
:1019D0000A001000000000000000000000000133B9
:1019E000FF000001344F00000236BE000000013647
:1019F000E10000013750000001375B000001375C57
:101A0000000001375D00003C3806000000000000C7
:101A100000000000000000000000000000000000C6
:101A200000000000000000000000000000000000B6
:101A300000000000000000000000000000000000A6
:101A40000000000000000001387E000001387F0027
:101A50000001388000000137FF0100023802000059
:101A60000001007400000100750000010076000014
:101A700001388301000138FD0000013B3C000006F5
:101A800033F930000000000000013AB16400013A6F
:101A9000B26400023AB3000000013B330000013B96
:101AA000340000013B350000013B360000013B37AC
:101AB0000000012FC80000013365000001348A00D6
:101AC000000234AB0000000134E9000004396F006B
:101AD0000000000001336601002833671E03675CC5
:101AE00020140359552026023232203401383E207A
:101AF0001E03675C201E03675C201E03675C201EBC
:101B000003675C20000133B700000133B800001CFC
:101B100033B9505050505050505050505050505079
:101B20005050505050505050505050505050002332
:101B300033D550505050505050505050505050503D
:101B40005050505050505050505050505050505095
:101B50005050505050000133F80000013B2D000060
:101B6000013B2E0000023B2F000000013B316400CE
:101B7000013B320000013B3D00000103FD0000017C
:101B800003FE0000013B0F0000022BD82BDE0001FA
:101B90002F9E0200012FC70000043B2500005000CB
:101BA00000043B290000640000043AF200006C00CD
:101BB00000043AF6000068C000043AFA0000680029
:101BC00000043B0B0000400000043B3800006000B4
:101BD000000003E8000C02260320000A01AE02BC4C
:101BE000000C00C801F4000C003C012C000A003C71
:101BF00000640006003C005000060000000E1C239C
:101C000000000000000000000000000000000000D4
:101C10000E1C2305DC003203E800280000001E1221
:101C20008CA112B648121E87121CA5121C70121D20
:101C300040021C34121C457EB32B2E12A7107401D7
:101C40007AB338872212A7AE74017AB3388322128E
:101C50001CDC125866125B91128CA1121CDC121C47
:101C6000A512C4AE121C70121D40121D70021C344D
:101C7000127181121CC2021C797E3400036D220293
:101C80001C827D437EA33438BEA00550167E7004AE
:101C9000AC7A5943343B5923343D7CBA047AB3348B
:101CA00038C322D322121F03121ED8021CAE3013D7
:101CB000101247C550031244971268D912837CC290
:101CC00013226D337E2406FC121C827E3400017EBA
:101CD00024077A021C8274017AB339CF7E340DACAA
:101CE0006D227A2703EC7A3703EE22CAF87EF339A5
:101CF000CFBEF005780B74017AB339CF120009809A
:101D000036BEF0047808121CD6121EFE8029BEF0E2
:101D100006780E121CD61243D4121ED3123FE8804E
:101D200016BEF0077817121CD6121F4B50FB121F5D
:101D30005F121CAE121D4074027AB339CFDAF8225A
:101D4000E47AB3343A7AB33439126FB0B40104741C
:101D500001800274037AB3343A2212C4AE12C3541F
:101D60007A373B2F121CDC121CA5121D40021D707D
:101D70001257EC500474198002740A7AB336A8E43E
:101D80007AB336A922CA3B121F4B50FB7EF32B2E8F
:101D90007CBF1283FB12B8F37EB32B3EF5287EC3C3
:101DA0002B3F121E877EB33926B4010F12439A7E51
:101DB000B316917006121D40C3C184121F6A3E34CF
:101DC000CA397E1806FC7E08047E1219111BFD120A
:101DD0001F6A3E34CA397E18077A7E080400121939
:101DE000111BFD7EB33926B4030712965B7A373A8E
:101DF0001274017AB31690121CA51296CB1242C32C
:101E0000E41213DE121D407E08047E7A0D297E182E
:101E100006767EB32B91128C427E0804007A0D293F
:101E20007E1805F87EB325F0128C427ED32B3E7EC1
:101E3000E32B3FE5287AB32B3E7AC32B3F7E340851
:101E40000A7E040DC87D207D1012695D7AD32B3E79
:101E50007AE32B3F7CBF12830012A2717EB33B3228
:101E6000047AB33B327E733B32BE70FA2806746448
:101E70007AB33B327EB3169060097EB3169160034D
:101E8000D38001C3DA3B227EB333F8B401447E73BE
:101E900033B8BE7333B7683A7EB33366B4010F12FA
:101EA000B65A7005121F563829E47AB333667EB3EA
:101EB00033B81241C8121D40121F562806121EFECA
:101EC000121ED312C4FA7E7333B87A7333B77AB35F
:101ED00033F822E47AB32B3D7EB32B3D701F1227DB
:101EE000D8121F4B50FB1268D9121F5F2013031228
:101EF000837C74027AB32B3DE47AB3169122E47AA0
:101F0000B32B217EB32B217041121F4B50FBE46C8D
:101F1000776C66121F797E0806FC7E1F06F47EB37E
:101F20002B91128B9F74017E70017E6001121F79CC
:101F30007E08077A7E1F06F47EB325F0128B9F740D
:101F4000027AB32B21E47AB31690227EB3343AB4EA
:101F50000102C322D3227E373B2FBE34000022125F
:101F600047C55003D21322C213227E732A930A2735
:101F70007E732A920A372D32227C967CA7123694E1
:101F80007CBA1213C7740A1224047CB912001E0210
:101F90001F92CA3B7EE32A937EF32B1974017AB316
:101FA0002B191221D712C546121F6A7E172B1D6DE1
:101FB000001219367ED0071227D86CCC80197E34D7
:101FC00000017CBD60053E341478FB7C6712C518A7
:101FD0004C767A29700BC012214F2D230A3CBD325A
:101FE00048DC12215C301DFD12C50E7EB32A927CA6
:101FF0007E128D866CCC80297402ACBC493506FCFF
:10200000BE34154050197E3400017CBD60053E345D
:102010001478FB7CB764FF12C5185C7B7A29700BBF
:10202000C012214F2D230A3CBD3248CC1BD0BED05C
:102030000058841220CF7402123FC512204D740242
:1020400012001E7AF32B191221D7DA3B22CA797CAF
:10205000FB7E0824F212BAE47EA32A927E732A93AE
:102060006CEE801D0A2E09622AFB0A2612BAED7C4C
:102070006BBE601C50090A2E1220C519B224F20B47
:10208000E0BC7E38DF6CEE801A0A2E09622AD8BEC8
:102090006023500D0A1E0A272D211220C519B225D2
:1020A0000E0BE0BCAE38E26CEE7E300EAC3E2E1471
:1020B00024F26D007CBF7C7E1211BA0BE0BEE005FD
:1020C00040E7DA79222E272B1D7E29B00A2622CA64
:1020D000D8CA797EF00A74017AB32B19121F6A7C70
:1020E000E7805F1227D812215C301DFD12C50E1249
:1020F0008D7E6CDD803D7E5002AC5D493206FCBEBB
:1021000034147850140A1D2E172B1D7E19B0BEB042
:1021100000281E147A19B08018BE34192828100A15
:102120003D1237F3BEB0FF6808047A39B080021B55
:10213000E00BD012214F2D230A3DBD3248B84CEEA2
:1021400068087CAF1BF04CAA7899DA79DAD8227E3D
:10215000732A930A377E532A920A252274021200A8
:102160001E7EB32B1B12204D740212001E74057EBE
:10217000709B12132C12217F7EB32B1B020E946CCA
:10218000AA80220A3A09732AFB2E3418CB1282F74E
:102190007C7B0A477E5002AC5A7E0F3AF22D1279B0
:1021A0004000480BA07E632A93BC6A38D6227ED7B3
:1021B0002B2CBEB0012802E4221271011221D77A21
:1021C000D72B2C7E732B19124F7AE47E50011213F9
:1021D0000112216D7401227E082A8C0205B4CA3BCB
:1021E0007EB33924B40102800261136CCC6CDD7EB5
:1021F000B3394FB401087EE0107EF03280067EE0F5
:10220000067EF0141282537DF3121F4B50FB7401B3
:102210007AB33AB81236941213C712001E740A1217
:10222000240412C5467EE72B2C7AE5257EB32B19B4
:10223000F52474047AB32B197EE72B2C5EE4003F5F
:102240007AE72B2C7EB32B19128DB87C7B7408ACEB
:102250007B7E2400041215D57D237D3F128755AD6A
:10226000327A372B261221D712828A41F41227D8CC
:1022700030110241FA7CBE1282E712216D800F807C
:102280000712236BE41223A32093F612233B301D85
:10229000F7301CF4D201122321E41213DE0BC0121A
:1022A00080B11287F97EA33AB74CAA780674017AF6
:1022B000B33AB84CAA680B7EB3394F7005E47AB3D1
:1022C0003AB712231678187EB33AB76012E47AB39D
:1022D0003AB77AB32A207AB32A217ED001801B1222
:1022E000231668107EB33AB7700A7ED001E47AB341
:1022F00039248006BCFC2802416DE47AB32B237E8E
:1023000035257A372B2CE5247AB32B194CDD68035D
:10231000121D40DA3B227E733B240A375E340002F2
:10232000223001061227DF02139612C568C202028C
:102330002332A9D0CEA202A991C922301D05C20123
:10234000122321A9D1CDA9C5EA301C03201D1412E6
:10235000236BA9D0CEA9C4C974021223A3A9D0CEDD
:10236000A9D4C9A9C1CDD20102232174817AB33B7A
:102370002D22801D12236B1282196805C2011223BF
:10238000217EB3343ABEB0026818201C15E4122333
:10239000A32093E012236BA9D1CDA9C5EA74020250
:1023A00023A3227CAB7EB33B2DB481384CAA7805A5
:1023B000A9D0878029BEA001780FC2AFA9D0CEA92D
:1023C000C7C9A9D187D2AF8015BEA0027816C2AF07
:1023D000209309A9D0CEA9D7C9A9D187D2AF00002F
:1023E00000000000E47AB33B2D22D20080123000BE
:1023F0000C1282196807C200C20112232112237233
:10240000301CEB227CAB800E7E70038001007C6769
:102410001B70A5BE00F77C6A1BA0A5BE00EA2212B5
:10242000236B12822175CD00A9D6EBA9D7CDC2CEE0
:10243000123FCD12279A74011223A3A9C6EBA9C794
:10244000CDD2CEE5257E712402244B7C6BA9D5CB61
:10245000740F1225197A61FC122564125AF5D20004
:1024600012B7DA1227DF1213DE0213967EB3392475
:1024700014685D147802A10C14686D24036802A12D
:102480000412C576380830140F1277F3680A12C3A5
:1024900054E47AB33AB780747EB3390530E06D7E88
:1024A0007339060A277E340400AD327EB3394FB447
:1024B000010B7E34627B12C1312E340400BE373AE8
:1024C000B5504912C354122512E47AB33AB9803C8C
:1024D00012C5762832E47AB339247EB33AB7B40110
:1024E00003122512D21C801F74FF7AB338FE12C566
:1024F0006F12241F121C4FE47AB339247AB33B3293
:10250000D21C8008122512E47AB33B321281F10208
:1025100021DE74017AB3392422F5FD7A71FE22A9F5
:10252000D5CB74027E703F122519740F1200467CC1
:102530007B740F5E70FE122519740C120046547FD6
:102540006808740C7E70F81225197E7072740E1271
:10255000251974071200467C7B5E70FB7407022508
:102560006112251975FDFFA9C5CB22CAD8CA797D8C
:10257000D3906050E4937CFB906051E4937C8B0A91
:10258000380ACF2DC30BC47D3C7CE71227D8A9D0D5
:10259000C4A9D5CB74071200467C8B74077E700FDC
:1025A0001225617E5400787E1F3AF6795100067E2E
:1025B0005400807E1F3AF6795100087E54000C7E4C
:1025C0001F3AF679510010BED40002780712273E58
:1025D0004401801C12273E44081B1A504DDD7E1F0B
:1025E0003AF6780712274254FB800512274244042A
:1025F0001B1A507E1F3AF269E10084695100907DF8
:10260000F52E3400905EA0F61B1A507EB33930BE12
:10261000B0064003B4FF0E1227CC54E61227C94E71
:102620005401A4800C1227CC5E54FEE61227C94444
:10263000A41B1A50BED40002782512273E5E540017
:102640000F1B1A5012273E44501B1A507E340002B2
:10265000123BC71248551248327A3735A6C1FA6C78
:10266000DDC1F44CDD78046C99802BBCFD40120A6E
:10267000CD099C2AD7BE902340037E90220B9080E8
:10268000150A3F0ACD9DC3099C2AFABE901C40033F
:102690007E901B2E902412273E5E54000F1B1A5072
:1026A0000AC93EC43EC43EC43EC412273E4D5C1B14
:1026B0001A50E5666007E566BEB06428067E340001
:1026C000028004E5660A3B123BC7124855BED4009F
:1026D0000178101248551248327402ACBD59353594
:1026E000A8800F1248320A5E0A2D2D253E24593249
:1026F00035A80BD0BCED2802C163A9D5CB74077CEB
:1027000078122561A9C0C47E1F3AF279E100847E67
:102710001F3AF279F100906D337E0F3AF67930006E
:10272000067E0F3AF6793000087E0F3AF6793000CF
:10273000107E0F3AF67930000EDA79DAD8227E1F51
:102740003AF62E34000E0B1A50221258661267C940
:10275000125B91121C1F7EB3392624FD68090BB150
:1027600078F4124DFC80EF122ADA80EA6D337E088D
:1027700000247E2400121259B2E53420E71BA9D5AB
:10278000CB74037E7127122519740B7E712F1225CD
:1027900019740C7E71301225612212C568C20012B4
:1027A0005FE0C202122332C20012B7DAA9D5CB749D
:1027B0000F1200467A1BB0740F6C77122519E5FCD6
:1027C0007A0BB043FC100225641B1A507E1F3AF2AC
:1027D0002E3400840B1A50227E3403E8021CE0D20F
:1027E00002122332740122CAF87CABBEA034380333
:1027F0000228FABEA03578077EB32B2F022A10BE1E
:10280000A0366805BEA037781D7E35607D230B2479
:102810007A25602E3735A07E39B0BEA037680241D8
:1028200010751D364110BEA0386805BEA039781B52
:102830007EF339EF7CBF047AB339EFBEA039780359
:10284000751D380A3F09B32B404110BEA03A6805F8
:10285000BEA03B781B7EF339F17CBF047AB339F11B
:10286000BEA03B7803751D3A0A3F09B32B634110A4
:10287000BEA0FB78067EB32B314110BEA05E782649
:102880007E0F3AF26930008E0A561E541E541E54B2
:102890005E540001030354C00A365E3400037CA773
:1028A0004CBA44804110BEA03C6805BEA03D781BD8
:1028B0007EF339F37CBF047AB339F3BEA03D7803CD
:1028C000751D3C0A3F09B32A994110BEA03E680518
:1028D000BEA03F781B7EF339F57CBF047AB339F58F
:1028E000BEA03F7803751D3E0A3F09B32ABC4110C4
:1028F000BEA040400DBEA04D38080A3A09B339CBFE
:102900004110BEA04E6805BEA04F781E7EF33A105F
:102910007CBF047AB33A10BEA04F7803751D4E0AEF
:102920003F2E37359E7E39B04110BEA0516805BE9E
:10293000A05278287E1460006D002E0400FF7EB344
:102940003A1B0A3B6D222F107E1B70047AB33A1B90
:10295000BEA0527803751D517CB74110BEA05C68C3
:1029600005BEA05D781A7EF339E47CBF047AB339E2
:10297000E4BEA05D7803751D5C7CBF122A13411074
:10298000BEA060400DBEA06C38080A3A09B303909F
:10299000807EBEA06D7804E5668075BEA0F46805F3
:1029A000BEA0F578187E35627D230B247A25620956
:1029B000B335A6BEA0F57858751DF48053BEA0F0BF
:1029C0006805BEA0F178097C1A2E1078A5E7804032
:1029D000BEA0F26805BEA0F3781B7E15683E147E8B
:1029E0001F35A22D310B1A30BEA0F278040A568092
:1029F0001F7D53801BBEA0F67804E5678012BEA041
:102A0000F7780474648009BEA0FD7803E48001E4D3
:102A1000DAF8227CABBEA00040117EB32A8DBCBA8E
:102A200028097402A44925340080517E132A8DBCE4
:102A30001A381C7E032A8C0A100A212D120A3ABD6C
:102A400031580C9D323E343E34492332D9802D7E9C
:102A5000032A8C0A200A117D412D420A3ABD3448CE
:102A6000197E1002AC012D01BD30580E9D319D32F2
:102A70003E343E34492332DB8002E4227E3400645B
:102A8000AD23740C1E341E2450034E60801478F461
:102A90007CB722CAF880387CBF122A130A1B7E63D7
:102AA0002A8D7E7002AC677E1002AC1F2D037E1F44
:102AB000138A2D30122AD29D351B1A100BF0122AC0
:102AC000D27E732A8D0A272D250A3FBD3248C8DAE7
:102AD000F8227EA32A8C7402A422123FFA7EB33914
:102AE00026B4037812B7E51227D8123D7BE567704C
:102AF00003E4800274017E700112B6297EB339CBE3
:102B000030E7DA121D85121F6A3E34CA397E180476
:102B1000007E0804FC1219111BFD121F6A3E34CA04
:102B2000397E18047E7E08057A1219111BFD7EB3CA
:102B30002B3CB4011512A3451265C61256D8128655
:102B400072122F2E122B6C12487812402F122A93D9
:102B50007EB339CB547F7AB339CB808112BBC202AA
:102B60002B627EB3396D700312368A2212758F1272
:102B70002FC5122D7F1298C7122D7F129AB8127C82
:102B8000D3122F52122D7F128ECB122D7F127E93D5
:102B9000122D7F022B96CA3B7524006CCC6CDD7E17
:102BA000C4003CCAC97E1838427E08380612191182
:102BB0001BFD7EF328840ACF3EC4CAC97E1826FABC
:102BC0007E081F341219111BFD6C886CEE816A7E21
:102BD000C403FF7EC0FF6C99804C7402ACB909B588
:102BE0001F34BEB0FF683D7CB9122F3960367402C5
:102BF000ACB909751F350A277402ACBE0975384394
:102C0000127F397D137402ACB909751F340A277419
:102C100002ACBE09753842127F392D13BDC128049C
:102C20007DC17CC90B90BCF938B0BEC0FF68397E4D
:102C30007002AC7C09B31F3409731F35122DC8BE56
:102C4000372A7948237E7002AC7C09531F34740202
:102C5000ACBD19551F7009531F3519551F7174FFED
:102C600019B31F340B800BD00BE07E733805BC7E8C
:102C7000280261CF7CE881F96DDD7E80FF6C998050
:102C8000507CB9122F39604712C504BEB0FF683FAF
:102C900009731F351256C27F710B7A50BE54000063
:102CA00058056D551B7A507EB32A88600E7E5728D2
:102CB0008ABE54019058047ED4003C0B7AC0BDCD2E
:102CC000080D12C504F52409C31F357DDC7C890B72
:102CD00090BCF938ACBE80FF681D7E71247402ACD4
:102CE000BD19751F7019C51F717EA0FF7E7002ACE3
:102CF0007819A31F340BD00BE0BEE00A5002817894
:102D000090609AE4937CAB7402A4CA597E181F7039
:102D10007E081F341219111BFD7CFD7E0838427E8F
:102D200034001474FF121936BEF00028380A3F3EF2
:102D300034CA397E181F347E0826FA1219111BFD79
:102D40000A3F3E34CA397E181F347E0838421219B1
:102D5000111BFD6CEE800A7CBE7E700112775F0B4A
:102D6000E0BCFE38F27AF338057AF328847E7328C3
:102D700084BE700A2806740A7AB32884DA3B22CA11
:102D8000796CFF6CEE80317CBE122F3960287E3466
:102D90000002CA39AC7E2E3426FA6D227E3002AC97
:102DA0003F2E1426FA6D001219111BFD7CBF7E7098
:102DB0000112775F0BF00BE0127E6B38CA7AF328B2
:102DC00084DA79227CBA7C791256C20B1A3022CA74
:102DD0003B6DEE7EC32A8D7ED32A8C7EB3394FB4F1
:102DE0000103E4E1057EB328847002C1747EB32A36
:102DF000216002807F7EA326FA7E7326FB7A7124EF
:102E00006CEE6DFF6CFF0A478020122DC4BE3400AB
:102E100096081D0BE0BEA00028067CBA14122F0BEA
:102E2000122F1B5803122F081B44BE44000058DA0F
:102E3000E5240A4B801E122DC4BE34009608210BD7
:102E4000E0BEA00028067CBA14122F0B122F1B58CC
:102E500003122F087D240B247D420A3CBD2348D653
:102E6000BEE0035002800D0A2F7D3F1215D5BE34FF
:102E700000280807E47AB3375CE1056DDDBEA000E9
:102E800028087CBA14122F152DD30A3D1B340ACA08
:102E9000BDC358087CBA04122F152DD37E7008804C
:102EA0002A7E5002AC577DC22EC419487D1C7A314F
:102EB000827A2183E4931ACBBDCD080F7DC22EC444
:102EC00019497D2C12BAF11ACB2DEC7C671B70A529
:102ED000BE00CE7CBA122F15121968BE340AF00853
:102EE000042EE40028BEE400FA28047EE400FA7E02
:102EF000B3375C0A3BBD3E50087D3E7CB77AB337A2
:102F00005C7EB3375CDA3B227CBA047C79122DC834
:102F10002DF30BF0227E7124022DC80A2D1B240AEA
:102F20003ABD32227CB87C79122DC8BD3D22129860
:102F300076122DCF7AB32A2A227C7B12BD8B09A26E
:102F400027727CB754070A3B2E34005E1282F75C6E
:102F5000BA226C006C1180137CB1122F39600A12F6
:102F60002FAC40057E0001800A0B107E732884BCC4
:102F70007138E57CB06C77129F95BE0001680B7CC0
:102F8000B07E7001129F95B401216C1180157CB147
:102F9000122F39600C122FAC50077CB16C7712776E
:102FA0005F0B107E032884BC0138E3227402ACB1AD
:102FB000092526FA093526FB7CB27C737CB7B41B45
:102FC00002D322C322CAF87EB32884602A6C998077
:102FD0001E129F2E7CB87C7F122FBC50107CB87CB8
:102FE0007F122DC8BE34019058031277E40B907EF7
:102FF000732884BC7938DADAF8227EB328A87E34C4
:103000003E807003E4800274011233CD12302F38F9
:10301000127E732685BE700038097E732684BE70CA
:103020000028097EB32A886003D21922C219227EA1
:10303000732884BE700022CA797EE0017EC47FFFBF
:103040007DFC7ED480007D4D7E632A8E7E732A8F28
:103050007EA001802A0A2A7EB32A8D0AEB2DE23E49
:10306000E4492E04FCBD2F58027DF212359E492200
:1030700004FCBD24080712359E494204FC0BA00A3B
:10308000E61BE40A2ABD2E48CC7EA00180177E50A4
:1030900002AC5A49E204FCBDEC58027DCEBDED08FD
:1030A000027DDE0BA00A271B240AEABDE248DFBD31
:1030B000D458047DE480027DED7AE71F347EE4007D
:1030C000017AE728A17EE400027AE728A37EB40112
:1030D000187EA40096E47AB328AC1232EA7E34FC5F
:1030E000B87E84FE5C7EB32A87B401047D9B800495
:1030F0007D9B3E946CFF6CAA80327E3002AC3A0914
:103100005126FA094126FB7E3002AC34491104FCF9
:10311000BD1B48160A057EB32A8D0A1B2D103E14CE
:10312000491104FCBD1B48020BF00BA07EB32884A0
:10313000BCBA38C6BDC35817BDF858136D559E5755
:103140002A79BE57288E083912AB256034802F7E2D
:10315000572A793E546E54FFFF0B54BE57288E08F1
:10316000206D559D5BBE5707FE08166D559D59BED7
:103170005707FC080C4CFF780812AB256003123689
:103180007B12A4ED4005E47AB328A81275606806A6
:103190007EB33B366007E47AB328AD417412302F1A
:1031A0002805E47AB328AD301405E47AB328AD12CB
:1031B000A52B500A1232EA12A3717CEB80677EB312
:1031C0002684700D7EB32685700712302F2802806A
:1031D0004E7E572A70BD5438087E572A72BD5D282E
:1031E0000D7EB32A88600712302F280280314CFFF1
:1031F00078336D559D5B0E54BD5C1810BD5F180C87
:103200007DFB0EF4BDFD1804BDF408197EB32A88B9
:1032100070131232F1BEB001680B12302F28067EF7
:10322000E0031232EA7EF71F34BEF405DC08171201
:10323000302F28126DFF9DFABEF7288E58081236DF
:103240005FE47AB328AD7EF73B2FBEF403E8501657
:103250007403ACBE7A5728A17402ACBE7DF53EF46F
:103260007AF728A3800E0AFE7AF728A17402ACBE72
:103270007A5728A31207FB500DE47AB328AD123019
:103280002F280312365F7EF7288ABDFA081D7D3A83
:103290007D2E1215D56E34FFFF0B34BE37288E58A5
:1032A0000A1207FB5005E47AB328AD1232F1B401DB
:1032B00005E47AB328AD12A3D4500312367B12A4CE
:1032C000547EB30074BEB000281D147AB30074702D
:1032D00016E47AB328AD74017AB328AC12C4FA7A32
:1032E000B328847AB32683DA792274017AB328ADBD
:1032F00022CA3B1237FB380261B87EC300774CCC40
:10330000783D7AB30077E47AB300796CAA8026120C
:1033100033C37E7002AC7A09D326FA09E326FB7A1E
:1033200049D019E40001740119B400081235975905
:103330003400020BA07EB32884BCBA38D2807F7CD4
:10334000FC6CAA80351233C37E49D009E400010920
:10335000B4000870041BF0801F1235977D23493498
:1033600000029D321219687DF3BEF400230809742F
:103370000519B400087571010BA0BCFA38C74CFFE1
:10338000780280267E730079BE700440226CAA8089
:103390000E1233C309B40008BEB00568060BA0BC0A
:1033A000FA38EEBCFA780375710012366D800F7C26
:1033B000B7047AB30079800612366D757100E57135
:1033C000DA3B227E9009AC9A2E44007A22CA3B7CDA
:1033D000FB7DA37524007525006CEE7EB3288470F8
:1033E00013125BDD6D331234E67EB33A8D60051443
:1033F0007AB33A8D7EB32A87B40102800281DE7EE1
:10340000B32A88600281937E3401907E1407D01223
:1034100035A728787EB33A8D6007147AB33A8D8148
:10342000E37E3400647E240BB8129F52F524B4016D
:1034300002800281E37E732685BE7004280281E348
:103440007E732684BE7004280281E37E732A21BE27
:103450007004280281E312302F28097E34000512FF
:1034600034E6F572BED00478028007BED00378023D
:1034700080007EC0017CBC12A872F525BEB0016838
:1034800007E572BEB005285B740280536D331234B9
:10349000E680507E3401907E140BB81235A7280CBC
:1034A00074027AB32A887AA73A6D801D7EB3288485
:1034B000600C7EB3268560067EB326847008740196
:1034C0007AB32A8880037EE001BEE001680D7E3772
:1034D0003A6D4D336805BEF0017808E48001E47A66
:1034E000B32A88DA3B227D237E63288C7E73288D65
:1034F0004D2278126D337A373AB374647AB33AB1A5
:103500007AB33AB2E4227E533AB11A157D011B0414
:103510001A26BD2048360B141A26BD21182E7E53BC
:103520003AB21A157D011B041A27BD20481E0B1440
:103530001A27BD2118167E273AB30B247A273AB3EF
:10354000BE240064400C7E24006480026D227A2731
:103550003AB37A633AB17A733AB27E573AB32212E7
:103560003FF1B40114CA397E183A0B7E0825EE12D9
:1035700019111BFD123CFD8012CA397E183A0B7ED0
:10358000082B8F1219111BFD123D1B02358E7A1F5D
:103590002B1B7A0F2B17227CBD7C7E022DC80AEADA
:1035A0000A2B2D2E3E24227D211235B27CDBBED08B
:1035B00000227D027EB32685BEB000281F6CAA8043
:1035C000117E5002AC5A492204FCBD2008028053EF
:1035D0000BA07E532A8DBC5A38E78002E4227E433A
:1035E0002684BE400028226CAA80140A4A0A052DAF
:1035F000043E04490004FCBD01080280260BA07EA5
:10360000432A8CBC4A38E48002E4221237FB284D5E
:103610007E47288ABD43180BBEB004400E7EB32AF5
:10362000887008740A7AB33A8DE4227E272A7B7D5B
:10363000323E34BE37288A48037401227D323E343C
:103640003E34BE37288A48037402227E340006AD19
:1036500032BE37288A4803740322740422E422E429
:103660007AB300747AB328AC740202368BE47AB36E
:1036700000787AB300777AB300792274027AB300C3
:103680007474017AB328AC02368AE47AB32B217AB7
:10369000B32B3D227AB32B1F7014123D1B12358EB3
:1036A0007E1806767A1F06F47E18047E8010B40118
:1036B00011123CFD12358E125FE97E1804007A1F4C
:1036C00006F822740112001EE41236941236DBE46E
:1036D00012001E74011236940236DBCA3B7ED32AD6
:1036E000927EC32A937E081F4412BAE47E081F8A82
:1036F0007E3400461219367E081FD07E34000AE45C
:103700001219367E081FDA7E34000A1219367EF34B
:103710002B1B7E182AFB7A1D247E181FD07A1D28A9
:103720007CBD7C7C7E082AD812BAFA6CEE802B0A0B
:103730003E09A32AFB0A3A2E3418CB1282F77CAB3F
:10374000BEA01C50130A3E1237F30A4A19B41F4494
:103750007EB32B1A19B41F8A0BE0BCCE38D16CEEA5
:1037600080240A3E09A32AD8BEA02350170A2E0A95
:103770003C2D321237F30A4A19B41F607EB32B1A5C
:1037800019B41FA60BE0BCDE38D87EB32B1C7E0814
:103790001FE460097E181FD012B8748003128D6375
:1037A0006CEE7E181FE47A1F1F347402ACBE4935DC
:1037B0001FD07A371F387402ACBE49351FDA7A370A
:1037C0001F3A7E700EAC7E2E341F446D227A1F1F6E
:1037D0003C7E700EAC7E2E341F8A7A1F1F407E08FE
:1037E0001F347CBF7C7E1208D10BE0BEE00540B2E6
:1037F000DA3B222E372B1D7E39B0227EB32884BEC1
:10380000B00022CAF87C6BA5BE00097CB7123C034D
:10381000D2084185A5BE013D7A7339CCA5BFAD0262
:10382000802FA5BFAE04D2094185A5BFAA05123FCE
:10383000DF801EA5BFAB0A7E34057A7A3735A080BB
:1038400010A5BFAC02800241857E3404FC7A373576
:10385000A06D332101BE60044020BE6008381B12F9
:103860003A88A5BE07076D337A35624185A5BE0843
:103870000280024185123CF74185A5BE0A094364D6
:10388000207A7339D54185A5BE0B08123A88123CBF
:10389000FA4185BE601B4007BE601C3802411DBE58
:1038A000601E400DBE60233808123A8A43644041CE
:1038B00085BE6015401ABE60183815123A8AD208C3
:1038C000A5BE15028002418574077AB339CF4185C0
:1038D000A5BE1907E47AB339E44185BE60244007E8
:1038E000BE602C3802411DA5BE2D1B123A8A20094C
:1038F0000241857E6339F77C466C550A372D323E8E
:10390000347A35604185BE602F400ABE6033380589
:10391000436408411DA5BE340F436410BE70643873
:1039200002411D7E7064411DBE60386804A5BE3929
:10393000214364017EF339F07CBF047AB339F00A85
:103940002F19722B40A5BE390280024185751D38A2
:103950004185BE603A6804A5BE3B214364027EF304
:1039600039F27CBF047AB339F20A2F19722B63A59E
:10397000BE3B0280024185751D3A4185A5BEFB090B
:103980004364047A732B314185A5BE50067A733A9D
:103990001B4185BE603C6804A5BE3D214364017E99
:1039A000F339F47CBF047AB339F40A2F19722A99D7
:1039B000A5BE3D0280024185751D3C4185BE603E2D
:1039C0006804A5BE3F214364017EF339F67CBF0441
:1039D0007AB339F60A2F19722ABCA5BE3F028002BB
:1039E0004185751D3E4185BE6040400DBE60423838
:1039F00008123A8A756501800AA5BE430B123A8AFD
:103A000075650212355F807DA5BE4408123A8A12A0
:103A10003AF88071BE60456804A5BE4605123A8A30
:103A20008063BE604E6804A5BE4F204365047EF3EC
:103A30003A117CBF047AB33A110A2F2E27359E7AA9
:103A40002970A5BE4F3F751D4E803AA5BE6D057A03
:103A500071668031BE60F04025BE60F338207C1670
:103A60002E10787CB7A5F7A5BEF31A7E156A7E05E1
:103A7000683E047E1F35A22D301B1A108007A5BE9C
:103A8000F6037A7167DAF822D2080A26197239CB5E
:103A9000227C6B123AF078057CB6023B32B4040506
:103AA0007CB602380322309019C290E51B7009756C
:103AB0001B01E591F51D80117E7191E51D123A9172
:103AC000051D30910BC291051DE51D123AD1F591EE
:103AD000227C7B6CAA123AF078097CB7123C2E7CCF
:103AE000AB800AB404077CB71227E77CAB7CBA2210
:103AF0007EB339CBC4540722123FF1B40117CA393F
:103B00007E1825EE7E083A0B1219111BFD123FD6C6
:103B1000123CFD801ACA397E182B8F7E083A0B1290
:103B200019111BFD7E372B957A37359E123D1B02EE
:103B3000358E7CA77C3BA5BB00077CBA123C03807A
:103B40002CBE30EB6804A5BBEC097CB37C7A127008
:103B5000C5801ABE30804015BE30EF38107CB324CB
:103B6000807C7A1271DCA5BB8F03751C01A5BBFCA0
:103B7000057CBA023B7D74017AB303FF2224AB6853
:103B80001024EF681C24DE682624DE782F7405805C
:103B90002D7EB303FFB4052A123BC312B6C6023B07
:103BA000EC7EB303FFB4051A123BC375E9FF227E16
:103BB000B303FFB4050C123BC3023BE674017AB3B6
:103BC00003FF227E3400017D2380127E30048005B5
:103BD00074FA1224047C231B30A5BA00F37D321B37
:103BE000244D3378E62275E76B023BECE47E34D754
:103BF000FC7E2400FF7A1BB07E34D7FD7A1BB075A3
:103C0000E9FF227AB339CBC45407BEB0046803B4C9
:103C10000204740380076003B4010774017AB339A6
:103C2000262274017AB33926E47AB339CB2270059F
:103C30007EB339CB22BEB0033815756C0030120646
:103C40007E18030A80047E1803487A1D088008BE87
:103C5000B05E3810756C000A1B7E1D082D311B34B8
:103C60007E1BB022BEB0D36803B4D410B4D3086DA9
:103C7000337A373A1C8002151D027026BEB0EB68FD
:103C800003B4EC03023CC5BEB080400CBEB0EF38BC
:103C9000070A3B09B3387F22B4FC057EB3392622DC
:103CA000B4FD176CAA7EB328A860034EA0017EB3B2
:103CB000388E60034EA0027CBA22B4FE057EB32B80
:103CC0002E2274FF22B4EB05E47AB33A217E733AD4
:103CD000210A272E24000612BAF17CAB7CB7047AA5
:103CE000B33A21B4030BE47AB33A216D337A373A0D
:103CF0001E751DEB7CBA22B28622B282227E1F255F
:103D0000F27E0F25EE227AB32B1F7005123D1B8029
:103D100006B40106123CFD12358E227E1F2B937EC7
:103D20000F2B8F22E5656052E56530E0065365FE96
:103D30001221D7E56530E1145365FD7EB33A0F706B
:103D40000474018001E4123FC512BA6EE56530E2E9
:103D5000295365FBE47AB33A107EB33A0F700A74C4
:103D60000112001E123D1B8007E412001E123CFDD2
:103D700012358E7EB32B1B02204D2230083BC20829
:103D8000121CEB7E7339D07A732A6C7E7339D17A28
:103D9000732B3C7E7339D17A732B207EB339D2607A
:103DA000187E34000212256B7E34000112256B6DE3
:103DB0003312256BE47AB339D2123D24023DBFE5BC
:103DC000647002C1E1E56430E0105364FE123EE22B
:103DD00012686D7E082A8C1209A1E56430E1065351
:103DE00064FD1241DDE56430E2325364FB7EB32BA7
:103DF0003160097E082A8C1206BA800B7EB32B84B0
:103E00007E732B83120BAD7E732B312E70FF9201CC
:103E1000906051E4939EB32A96120B1EE56430E342
:103E20004A5364F77E7339FD7A732B2E12835A7AC4
:103E3000B32FC8BEB0FF680B4364207E732FC87ACF
:103E40007339D51241C0123FB77E7339FEBE732B52
:103E50008168067A732B81D210301009C210124784
:103E6000B5E4120A66121C4512A70CE56430E40F93
:103E70005364EF7E4339FF7E500AAC45123FBEE5E6
:103E80006430E64E5364BF7E7339EBBE700728067C
:103E900074077AB339EBA9D5CB740E1200467C7B3C
:103EA0005E700F7E6339EB0A262E240003123F4713
:103EB0007C654C76740E1225191200461225647E1C
:103EC0007339EE7A732B337E7339ED7A732B3E128E
:103ED0003FE8E56430E50A5364DF7EB339D502403C
:103EE0006022123FCD12B5CC906050E4930A3B7D26
:103EF000132E142A996D0009B32A98123F2B0A3BFE
:103F00007D132E142B406D0009B32B3F123F2B0A5B
:103F10001B2E142A9B123F38E525123F2F0A1B2E19
:103F2000142B42123F38E5240219367E3400021267
:103F30001936906050E493226D00906091E4930AEA
:103F40003B1B35220B18203E243E243E243E2422D7
:103F50007C677C7BA5BF0017BE6000280F74017AC8
:103F6000B32A25E47AB32A277AB32A2802985FA5D0
:103F7000BE001B6CAA7E60FF7E5009AC5A196229F4
:103F8000660BA0BEA00A78F074017AB32A246CAA4A
:103F900080207E3009AC3A2E1428AE123F441B1804
:103FA000207E3009AC3A2E1428B0123F441B182052
:103FB0000BA0BC7A38DC227E082A8C020D727D327E
:103FC00074FA0212D012001E7EB32B1B227E080050
:103FD000257E180024227E3725F47A37359E227EEE
:103FE000340DC87A3735A0227E7339EC7A732B3FB3
:103FF000227EB33A0F7E34000422123FDF123FD6F6
:104000006D337A35621240261240DD12404F7450F3
:104010007AB339FF7E240320123FBEE412C4B06D90
:10402000337A373B2F227E732B2E7A7339FD22A2EF
:104030000EE4337AB339F97E7339FDBE732B2E68E3
:104040000DE56470091240261240DD12404F227EB9
:10405000732B337A7339EE7E732B817A7339FE2298
:10406000CAD8CA797CDB7EA004BED08078187EE0F6
:10407000FF6CFF800B1240BD38047CEB7CDF0BF043
:10408000BCAF38F1801ABED08178156CEE6CFF8021
:104090000B1240BD40047CEB7CDF0BF0BCAF38F171
:1040A000BCAD38026CDD7CBD1242131240D512400B
:1040B000261240577AD339D5DA79DAD8227E90059C
:1040C000AC9F09B42633BCBE227AB32B917E732BEE
:1040D000817A7339FE7E732B337A7339EE7E732BBC
:1040E0003E7A7339ED7E732B3F7A7339EC22CAF82E
:1040F0001246BD12431D7E340023CA391247A8124E
:1041000019111BFD0A3FCA3912479B1219111BFDD9
:1041100074601247D6CA3912414F7E08338F121984
:10412000111BFD7E340028CA3912414F7E08263308
:104130001219111BFD1241BA90612BE4937AB32539
:10414000F090612FE4931240C9124026DAF8227EE3
:104150003461EC7E2400FF22CAF81246BD7E340092
:1041600023CA397E1833D57E082B401219111BFD46
:104170000A3FCA397E1833B97E082B631219111B06
:10418000FD745C1247D6CA397E1833677E08338FB8
:104190001219111BFD7E340028CA397E1833677E40
:1041A0000826331219111BFD1241BA74067AB32581
:1041B000F01240C9124026DAF822741E7AB32B2E70
:1041C0001242497A372B3A22B40105124158800332
:1041D0001240EE124393E4120A660241DD7E082487
:1041E000F21247EB6C77800E128D7450071247F471
:1041F000195124F20B707E532A8DBC5738EAA9C698
:10420000EA7E0824F2E4121138A9D6EA7E0824F2E4
:10421000021138CAF87CFB7405ACBF124722124762
:10422000191247071247107AF32FC87CBF1247FDB7
:104230001241C07405ACBF09B5263712431D121CCC
:1042400037E47AB31691DAF8227E232B2E7E3339A7
:10425000FCAC232E1401F4BE14000A50047E14009A
:104260000A7E632B2FBE140F3C40047E140F3CBE0D
:104270001407084003E4800274017AB32B2F7E7385
:104280002B2FBC766802D2107E2401F47D318D3252
:104290007C17BE100728037E10077E1F3AF2695173
:1042A0000086541F0A013E043E043E043E043E04C0
:1042B0002D05790100866D007E34B8007E24000B48
:1042C0000216747EA32FC8BEA0FF6848BEA3336544
:1042D00068427405A412472212431512471912436B
:1042E000151247101247C550097EB32FC81247FD5B
:1042F00080061243151247071241C01243937E7382
:104300002B330A377E0F3AFA7930001A7E732FC8A2
:104310007A733365227EA32FC87405A4227EA32B53
:1043200081BCAB68067AB32B81D210301009C21061
:104330001247B5E4020A66221241BC30100CC210CA
:104340001247B5300004E4120A6630000912A7AE25
:1043500012A70C028657227E0B707A732B2E2970BF
:1043600000047A732B81297000017A732B33297032
:1043700000037A732B3F1241C0124393D200C20153
:10438000024383300003124412A2019202126CEC29
:104390000240E57E082A8C02038B7EB338836006D8
:1043A000147AB33883221287197EB3390A700E7ECD
:1043B000B33B3CB40107E412421312A6681246CB89
:1043C0001284907EA3390A7AA33B3CBEB0FF6803F7
:1043D0000242132274407AB32B3F1247C55009D2D0
:1043E00000D201124383801C740112441B7E4339A6
:1043F000EA7E5064AC45127FDD7AB32B3E7E0F3BE4
:104400000B12472B1240E57E732B3E7A7339ED0277
:1044100044127E732B337A7339EE22CA3B7CDBE481
:104420007AB32B33123FB77EC00A126CDD300FFD1A
:10443000740112000E7E1F3B0B1280517D73BE74FF
:10444000FFFF780912448B2E3400038018BE74805D
:1044500000280712448B0B35800BBE744000280CDB
:1044600012448B0B341B0A301BC078BEBED00178BF
:10447000097E1F3B0B127FFC7D737E1F3AFA693168
:10448000001A7A732B337D37DA3B227E0F3AFA2EED
:1044900014001A0B0A3022CAF86CFF7E732FC8BCB6
:1044A0007F682A7E3005AC3F12450DCA397E303810
:1044B000AC3F1245261219111BFD7E34008CCA39FF
:1044C0007E308CAC3F12451B1219111BFD0BF0BE48
:1044D000F00440C77E232FC87E3005AC2312450D63
:1044E000CA397E232FC87E3038AC231245261219D4
:1044F000111BFD7E34008CCA397E232FC87E308C80
:10450000AC2312451B1219111BFDDAF8222E1426BA
:10451000336D001243577E340038222E1430A96DBB
:10452000007E1832D9222E142FC96D007E18340057
:1045300022CAD8CA79906050E4937CDB906051E441
:10454000937CEB7E732A93BC7E28047CF780027CEC
:10455000FE7AD32A8C7AE32A8D7AD32A907AE32AB8
:10456000917AD32A927AE32A9374017AB32A967ABB
:10457000D32A8E0A3E1B347A732A8F906091E4937B
:104580007AB32A97906094E4937AB32A980A3DCA42
:10459000397E3460527E2400FF7E082A9912191158
:1045A0001BFD0A3FCA397E3460757E2400FF7E08F9
:1045B0002ABC1219111BFD7E340023CA391247A8E8
:1045C0001219111BFD123EE212686D7AD32A947AF9
:1045D000E32A95125F8B7401123694E47AB32B2090
:1045E0007AB32B211263AE7A372B2C74037AB32B58
:1045F00022E47AB32B2374027AB32B247E3401187D
:104600007A372B2674047AB32B257E34000F7A3741
:104610002B287E34205F7A372B2A1246C474017A05
:10462000B32B2F74207AB32B3074047AB32B32124D
:1046300041BAE47AB32B3C7AB32B3D7E3401F47A51
:10464000372B3874017AB32B3174607AB32B3F74F3
:10465000677AB32B3E6D337A372B347A372B367427
:10466000037AB32B337E3400307A372B8974047A83
:10467000B32B867E3400057A372B87E47AB32B85FB
:104680007E34046D7A372B8B74017AB32B827405D8
:104690007AB32B83E47AB32B8474017AB32B7FE44F
:1046A0007AB32B807E3418B37A372B8D0A3ECA3901
:1046B00012479B1219111BFDDA79DAD8229060514A
:1046C000E4937CFB74207AB32B812212A5E7024687
:1046D000D17EB33886600F74017AB3388E7EB338DA
:1046E000FC700312A6727EB3388EB4010C74037A88
:1046F000B336CC7E3414008009E47AB336CC7E34F1
:104700000A007A372A8122097526357A732B3E22D0
:10471000097526367A732B3F22097526347A732B56
:104720003322097526337A732B2E221247350B3428
:104730007A732B3F22CA797F109F006CAA0A4A2EF7
:104740004460AC12BBB97C9B7EF32A8DACF97EB37E
:104750002A8F0AFB2DF77DEF3EE47F612DDE0B6A89
:10476000D06DCC2F060BA0BEA00378D1BE080000F0
:1047700078020B0C7E5400037F107D151216217FEA
:10478000010B0C7E34C4007E240009121623BE34B3
:1047900000FA28047E3400FADA79227E3460FB7E47
:1047A0002400FF7E082B63227E3460D87E2400FF25
:1047B0007E082B40227E082A8C12038B7E082A8CCE
:1047C000740302117A7EB33926B403087EB339E14B
:1047D0007002C322D3227AB32B3F74677AB32B3E85
:1047E00074037AB32B337E340028227E34001C7489
:1047F0003F0219360A2709522B630A1622CAF87C8F
:10480000FB7E340038CA39AC7F2E342FC96D227E2E
:104810000834001219111BFD7E34008CCA39AC7F9C
:104820002E3430A96D227E0832D91219111BFDDAFF
:10483000F8227E0F3AF66930000A7D236D33691045
:10484000000C6D002F1074071E341E2450034E60A0
:10485000801478F4227E3400017E0F3AF67930001D
:10486000047E0F3AF6693000125E34000168F27E71
:104870003400017930001222CAD8CA797E732A8D99
:104880007EF32A8CACF77D373E347E081F34E41269
:1048900019367EB339E6B401647E7339E7BE700021
:1048A000285B6CDD803C1227D8121D856D33802873
:1048B0007E35243E3449330DC81219687A35267E78
:1048C00035247D133E1449211F34BE252658077E0A
:1048D000252659211F340B347A3524BE752438D04F
:1048E0000BD07E7339E7BC7D38BC7D373E34CA3986
:1048F0007E181F347E080DC81219111BFDDA79DAF3
:10490000D8227EB33923B40104E402490E22700395
:10491000D28622C28622CA3B7524006CEE75250021
:104920007526007528036CCC752E00752F007E4807
:1049300029BC12754812724C6CDD803212C557BE0C
:10494000F00A5028124E817E1BB0B4011F124E880F
:10495000701A29010050BE002D5011BE0000280C15
:104960007AD12D7403A5F77AF11A80070BD0124E75
:104970007338C9124E99286CB403107E340009CAEA
:104980003912C4C97E312DAC3B80196CDD80247E88
:104990003009AC3D09B1290CB4FF167E040009CAE8
:1049A0000912C4C92E1429086D001219111BFD80AB
:1049B000070BD0124E7338D77E111A2E1010A5E7B0
:1049C0007CABBEA003780A6C33124E907A1B308009
:1049D00013BEA00178057EA00180037EA002124EC6
:1049E000907A1BA07EB32A2970197EB32A257013F2
:1049F0007EB32A26700D124E9938087EB32A2C7089
:104A000002A1A0124E99280314A5F77EB32A2C60A8
:104A100005147AB32A2C3012067E58034880047E8F
:104A200058030A7F05125FF27E732A227A5B706C4C
:104A3000DDA14E12C5577CBF540F124E927E1BB0A3
:104A4000F5287CBF54F0BEB0002802A14C0ADF7FDD
:104A5000142D3D7E1BB0B40110124E88700B7EB336
:104A60002A2C7005E439B10050E528600261CE12AD
:104A70004E88600261CE7EB32A2C600261CE7E70C9
:104A800009AC7D49232908BE24001E2808BE240441
:104A90001A5002614609B3290F09732910122DC853
:104AA000BE3400C858026129124DF529B10050707A
:104AB000297EC40009CAC97E7009AC7D2E3429083C
:104AC000127F972E1402986D001219111BFD124DC2
:104AD000F52E3400501257EF804F7409ACBD4935A4
:104AE000290A7409ACBF4925029A1295E812C54EED
:104AF0007409ACBF492502989D321219682DC3BEB6
:104B0000C40064583912C4B91272A8B40107124D16
:104B1000F339B10050124DF529B10050BEB02D50FF
:104B2000082E340050047A1BB07528037403124D0C
:104B3000F57A1BB07F142D3C39B1000A802112C4D4
:104B400097124DF380157F142D3D29710050BE70D2
:104B500000280312C497742D124E8139B10050E51C
:104B600028706B12C4B91272A8F52FB40142124E0C
:104B70007A29B000467006740139B000462D397D9F
:104B80002829710046BE70013844E5287003752855
:104B900003742D124E7A39B00050752E0174037FC4
:104BA000042D137A0BB02D397D2839B1000A801EEF
:104BB00012C54EBE34001E2815BE34041A500F1202
:104BC0004E8129B100467006740239B10046E528CD
:104BD000BEB0037802A14C7E0800287CBF1297AFBC
:104BE0005002A14C7409ACBD09B5290DF525740915
:104BF000ACBD09B5290EC454F0F5267E732A6CBCF1
:104C00007F28587EB32A27702A75300F7E0800252A
:104C10000A3F2E3402F26D22740112720A7530209E
:104C20007E0800260A3F2E3402FC6D227410127298
:104C30000A800E0A3F09B302F2F52509B302FCF51A
:104C400026124E7A7E0BB0B40111E419B302F20AB7
:104C50003F19B302FC7525007526007EB32A83B484
:104C6000FF137525007409ACBD09B5290CBEB0FF52
:104C700068037525017E9009AC9D495429087A5531
:104C8000294954290A7A552BE528B4013CE40A3F06
:104C900019B303862D397D2839B1003C7527007E74
:104CA00071277409AC7B09B30395540FBCBF78100E
:104CB000492303917A2529495303937A552B800977
:104CC0000527E527BEB00A40D67E55295EA00F7A9B
:104CD00055297E552B5EA00F7A552B0974290C0A95
:104CE00057C454F07CABE47D252E252B7A252BBEB2
:104CF00070FF6819E528BEB001680205240BE0E5E5
:104D0000280A5B12B8CE7D352E352980077E3529DD
:104D10002E34C0007A35297E25297E7006AC7C7F32
:104D2000052D13792000027E252B7F052D13792078
:104D30000004E5252D3B7D2A39B100067EA1267EA3
:104D40007006AC7C2D3B39A100070BC00BD0124E76
:104D50007328024133E52439B500017EB3394FB4DD
:104D600001097EB32A26B40117800DBEE000380683
:104D70007EB32A26600AB2121270A6740112490E7E
:104D80007EB32A25600B7EB32A2C70057F04125C4B
:104D900078E47AB32A297AB32A257AB32A2680219D
:104DA0007F04125C787E00106D117ED0057CB2A568
:104DB000F60B007CB3A5F60B001BD078F0E412498B
:104DC0000E7E34005ACA397E1829087E08039112D3
:104DD00019111BFD4CEE780D7E0803917E34005AAC
:104DE00074FF121936E52E1277FBE52E7AB32A2BC3
:104DF000DA3B22742D0ACF7F142D3C22121D5A1249
:104E000070737EB33926B4016412B7E512C56F1210
:104E100082A2124F1612B648121D8550E212A34507
:104E20001265C67EB33923B40104E412490E12564A
:104E3000D8124EA540C9128672124EA540C1122F3B
:104E40002E122B6C124F81127C76128E38125CBDA2
:104E500012946912783712949F127BB212BF2412F7
:104E600049161257FF128233124EBD809212BBC2F6
:104E70000249027E732A6CBC7D220A3F7F042D13F7
:104E8000220A3F2D397D28227C1F2E1010A5E722F3
:104E9000E51A0A3B2D397D28227E111A2E1010A505
:104EA000E7BEB00022C2007EB3169160067EB31644
:104EB000907007128FAB2802D200A200227E083A1F
:104EC00022124F017E083A2A124F017EB32A8860CF
:104ED000077E083A6D124F0112C49012C40D024EA3
:104EE000E17E373A22BE34000028157E733B32BE85
:104EF0007005500C7EB3394F700612C35412251240
:104F0000220B0A30E5730A2BBD3228049D32800241
:104F10006D331B0A30227E2438FF301151C2110933
:104F2000720002124F6F7A372A6E09720003124F15
:104F30006F7A372A7009720004124F6F7A372A721B
:104F40007E2970124F7A7A372A7909720001124F3E
:104F50007A7A372A7B09720005124F6F7A372A81D5
:104F600009720040BE732A8768047A732A87220A6E
:104F7000373E343E343E343E34220A373E343E34EB
:104F800022024F84CA3B7528007EB32A8EF52A7E02
:104F9000B32A8FF52B7525007EB31691B4010280DC
:104FA000030251D16CDD0251C07E7002AC7D09B3A9
:104FB00026FAF52909C326FB7526027527027CBD52
:104FC000125587D2001266977EB3390AB4011E7E4D
:104FD000B32A21B401177EB32884B401107E372888
:104FE00086BE34000A4006752603752703E529604E
:104FF0000512C4D748037526014CCC680CE52B0A72
:105000002B1B240A3CBD324803752701752500750A
:1050100024008051E524BCBD684912AF8D7AA12CD3
:1050200009B326FBF52D0A2AE5291254F8BE3400EF
:10503000041830E52D0A2B0A3C9D32121968BE3443
:105040000004181F1251D4400AE52C7E712D122F36
:10505000BC5005752500800375250175260175274F
:105060000180070524129F1C38AA1251D4500B123C
:105070005222752600752700800B1257EC500675DA
:105080002603752703E525700221796CFF6CEE126B
:1050900051F01815E52A0A5BBD35480D1251E51887
:1050A00008E52B0A5BBD3558031251FD0BE0BEE04D
:1050B0000378DC0BF0BEF00378D37EA12B1BA0BCE1
:1050C000AC68064CCC68022179E529BEB0003802F4
:1050D000217912C4D7480221797E1800647A1D41D3
:1050E0004CCC78057540028007BCAC780375400055
:1050F0006CFF7EA1403EA07E9006AC9F7CB92CBA8E
:10510000242E1251DB7E1400641216187CB9243050
:105110000A1B0B18101A021A001216747E0D41BFDA
:105120001058037A1D410BF0BEF00378C57E1D4177
:10513000BE18000058077E1800017A1D416CFF74EC
:1051400006ACBF24301251DB7E0D411216077E08DB
:1051500000641216747D43E5290A3B1B340A5F2D57
:10516000530A2C1B247EA1400A3A2D321256C21B30
:105170001A400BF0BEF00378C6E5267E71277C6DE1
:105180007E512812524DE525602F6CFF6CEE1251B6
:10519000F01815E52A0A5BBD35480D1251E51808CF
:1051A000E52B0A5BBD3558031251FD0BE0BEE00351
:1051B00078DC0BF0BEF00378D312522205280BD016
:1051C0007E732884BC7D2803024FA9E5287AB32882
:1051D00084DA3B22E5297C7C022FBC0A3B0B383069
:1051E0001A261A24220A2E0A3C2D32BE340001222D
:1051F0000A3FE5290A4B2D34BE340001221B440A24
:105200005F2D540A2C1B240A3E2D32122DC87D23FB
:105210007C7E3E707406ACBF2CB7242E0A3B1B3834
:1052200020226C336C22801C7CB212569950137C65
:10523000B212557C7D0312678C49553B1A7D401292
:105240008FBF0B207E732A94BC7238DC22CA3B7A53
:10525000414512B4557409ACBF7D952E9427766DE7
:10526000887EE72A85E439B400067E7002AC7E09A8
:10527000B326FAF55009B326FBF5517E732A8D7CCF
:105280006D7E0800541254A5F552E5507E732A8CA9
:105290007C6C7E0800531254A57CABE5537E7154A0
:1052A0001256C27DF37AF55C7EF4159E7AF55E8522
:1052B00053568554577AA1588552597EB32A78F5AA
:1052C0005A755B00E545B40108E55A1EB01EB0F5FD
:1052D0005A7E0800561257F77D236D337EB715A00E
:1052E0006DAA2F517E3715A26D227D036D117E3779
:1052F00015A42F107A1D467E3715A66D227D037EDC
:105300003715A82F107A1D4A7F650A4CE5500A5BB5
:105310009D54F54E61E90A4DE5510A5B9D54F54FE8
:1053200061D3E54EBEB000580261D17E732A8CBEB7
:10533000714E180261D1E54FBEB000580261D17EB6
:10534000732A8DBE714F180261D1E54E7E714F12E6
:105350002DC87E532A780A257DF39DF2BEF4000005
:10536000086FBDEF18097F142E3400061257EFE5C1
:10537000500A2BE54E12548A180BE5510A2BE54FC3
:1053800012548A084CE54E7E714F7C6E12B81AF5A5
:1053900055B402067D3F0E349DF3E555BEB002685C
:1053A00005E555B4012B125479E54E1254807E1D4B
:1053B000469F107A1D46125479E54F1254807E1D87
:1053C0004A9F107A1D4A1254799F511A261A249F17
:1053D00061054F0A2DE5510A3B2D321A27E54F1A78
:1053E0003BBD3218026122054E0A2CE5500A3B2DC6
:1053F000321A37E54E1AFBBDF318026116BE58008B
:105400000078020B5CBE68000078020B6C7E1D46C3
:105410007F051254961B4A307E1D4A7F0612549611
:10542000793400027EB32A84600D1ED41EC4500459
:105430004ED480001478F3BE68007F28047E680094
:105440007F7D3D397400057409ACBE0975277C3930
:10545000740006BE700F2806740F39B400067EA1D2
:10546000507E7009AC7F19A3277D7EA1517E700903
:10547000AC7F19A3277EDA3B227D3F1A261A24220D
:105480001A1B1A021216077F01221A3B9D321219AB
:1054900068BE3400012274062F111478FB12162303
:1054A0002E18002022CAF87CF67C877C9B0A2F7D70
:1054B000323E340B347CB7BCF938140AF81BF40ABA
:1054C0003F9DF30A39BD3F18067CAB0A39801DBCED
:1054D000F9280D0A390A5F2D530B547CABE4801078
:1054E0000A3F0A582D530A399D537CAB9D327CB735
:1054F0007A0BB07CBADAF8220A3B9D320219687E38
:1055000030647E20646C11804A0A310B347C078041
:10551000387E7002AC7009B326FA12557409B326AE
:10552000FA1254F87C977E7002AC7009B326FB1215
:10553000557409B326FB1254F87C87BC3928027CC9
:1055400039BC2828027C280B007EB32884BCB038E4
:10555000C00B107EB32884BCB138AEA5BB64026C0E
:1055600033A5BA64026C22BC2328047CA280027C8E
:10557000A37CBA220A2B7E7002AC71227E732A8D24
:10558000AC7B2E34001B22CA797C5B7E432884BE10
:1055900040012802C1967EA32A8D7E7002AC750957
:1055A000F326FA09E326FB7CBF7C7E1256C27F51AC
:1055B0007C1E7C3F7E032A8F7E232A8E0A3A6DDD75
:1055C0009DD30A9A0AC01BC50A51BD5C5802C196F8
:1055D0000A531B54BE54000048557CB3141256990C
:1055E000504D7CB31412557C7DE37D5E1256B50B95
:1055F0001AF07D5D3E547F152D350B1A80BEF400E8
:105600000008119D8FBE84000058046D5580027DF6
:10561000581B1A507CB024FEBCB178137D4E1B443D
:105620007D541256B50B1A50BD5808031B1A800A38
:10563000830B840A52BD85585D7CB3041256995081
:10564000557CB30412557C7DE37D1E3E147E1F13F2
:105650008A7F612DD10B6AF07D193E147F652DD1B3
:105660000B6A10BEF4000008119D1FBE1400005804
:10567000046D5580027D511B6A507CB024FEBCB184
:1056800078147D4E1B447D043E042D300B1A00BD62
:105690000108031B1A10DA79227CAB6C770A272EDB
:1056A0002460AC12BAF1BCBA7802D3220B70BE707F
:1056B0000340EAC3223E547E1F138A2D35227CBD4F
:1056C0007C7E7E132A8DAC1B3E047E3002AC372DCF
:1056D000107E1F138A2D31221256EA12006E1257C5
:1056E00046301605125222C216227EB32A8760095E
:1056F0001257CA1256FA025758221257A312573B92
:105700007EB303FD025707B401307EB32A87B4018C
:10571000297EA328846C77801D7E5002AC570962D5
:1057200026FB7EB32A8D14BCB678097E34003C7A01
:10573000372A70220B70BCA738DF227EB32A87B4C9
:10574000010302A8512212A7E07EB32A887008E460
:105750007AB303FD02575822E47AB32893129FD0FC
:1057600012BC4D7EB31691B401087E7328847A73FF
:1057700028927E1804FC7A1F06F8125FE912BD9287
:105780001264007EB31690B401187E7326837A7378
:1057900026F37E7326857A7326F57E7326847A73C4
:1057A00026F42212C52B7E3400827A372A7B7E347F
:1057B000FF6A7A372A7D0257B97E3401187A372A70
:1057C0006E7A372A707A372A72227EB32A87B4011A
:1057D0001A74017AB303FD7E632A937E7002AC676C
:1057E0002E3404FC6D227F0102A92D22A20A227E02
:1057F0001BB0047A1BB022120C297E37159E227E24
:105800007328937A7328947E732A207A732A21E46A
:105810007AB32A24227E3703EC0B347A3703EC7EEA
:105820003703EEBE3703EC28030258302202581526
:10583000E59A6005D29CA9D6DF22CA7BCA6BCA5BF7
:10584000CA4BCA2BCA1BCA0BC0D0C083C082125815
:105850002DD082D083D0D0DA0BDA1BDA2BDA4BDAF8
:105860005BDA6BDA7B32E4125AC412B77C1227D8A7
:10587000125FD912251F12B6BC12B79312000A127A
:10588000B79F125A4F12B7AFD2AF12B70E1258B419
:1058900012276C125AF57E0803F0125A9E9060503F
:1058A000E493CAB8906051E4937C7B7E24FFFFDAD6
:1058B000B8021234D2C843ED0FC2EA75B313A9D1AE
:1058C000B4A9C0B4125A3FE41258D70258CEA9C5A1
:1058D000CAE47AB33B3D22CAF87CFB7402125956E3
:1058E0004CFF78055E70DF80034E70207402125802
:1058F000F8DAF82274067D307D237C6B0A147C7301
:105900007D527CAB7EB33B3DB4A53C1259EA75B5E4
:1059100001A936B3FC12594FA936B3FC12594FA94D
:1059200036B3FCA9C6B37A61B5A936B3FCA9C6B330
:105930007A71B5A936B3FCA9C6B37AA1B5A936B3B5
:10594000FCA9C6B3A9D2B42274047D300258F8A9C8
:10595000C6B375B500227C6B6C776CAA7EB33B3DF9
:10596000B4A5461259EA75B505A936B3FC12594FCC
:10597000A936B3FC12594FA936B3FCA9C6B37A6154
:10598000B5A936B3FC12594FA936B3FC12594FA929
:1059900036B3FCA9C6B37E71B575B500A936B3FCA4
:1059A000A9C6B37EA1B5A9D2B47C476C550A3A4DBD
:1059B00032227D427F607D03125A3F740212595693
:1059C0007DF34EF400014EF4000A1259E37A453695
:1059D0007D306D227F061259FB5EF4FFFD1259E304
:1059E0000258CE74027D3F0258F8A9C2B4A9C6B3CA
:1059F0002274061259567D036C1122125A097E3503
:105A00003612B7FEA9D2B4D3227D52F53A7CB67CC9
:105A1000A50A44F5397F21F538A9C2B4740B125A8E
:105A200034E53A125A34E539125A34E538125A3408
:105A3000E4025A34F5B5A936B3FCA9C6B3D322A9FA
:105A4000D5CAA9D1EAA9C1EA74A57AB33B3D22E43B
:105A50007AB339CB7E08030A125FF27E0803487ED0
:105A600034003E1219367E18030A7A1D08125A8035
:105A7000025A73751B00751D007EB339CBF5912258
:105A8000025A83906000E49354FE759100C290C264
:105A900091C2C954FEF592D2E8C2C0D2AD22D2C999
:105AA00075F23075F38075F40C75F5016CAAE5F5A7
:105AB0005480B480F9E5F6125F600BA0BEA00D40E3
:105AC000EDC2C922A9C4CAA9C5CABEB008500312F2
:105AD000822AA9D0CEA9C0C9D202122332A9C2EA11
