:1000000002181102B740EBAA08222202005AB402D9
:1000100004A9B7EA2224FFA997EA22024CECB40211
:1000200004A9B6EA2224FFA996EA22024B397F608E
:10003000A9C2EA74011213967F061205B47F060264
:1000400009A122026455F5FDE5FE2202007112109D
:10005000A2021379000000000000320200760102C3
:10006000040810204080D201022321020072022FD6
:10007000FA3232021052CA7BCA6BCA5BCA4BCA2B15
:10008000CA1BCA0BC0D0C083C082D20F7E0F3AFAFF
:10009000693000047A733B0A7E733B0A0A375E3488
:1000A00000046804D20E8002C20E7E34001F793034
:1000B0000004C2C312129E1264887E1F3AFA69318C
:1000C00000025E340040682E6CAA7E1002AC1A7EDC
:1000D0001F3AFA7F712DF06917009C59103AFE0BF8
:1000E000A0BEA00378E4691100A47A173B06693129
:1000F00000A27A373B04A9C1C4D082D083D0D0DA21
:100100000BDA1BDA2BDA4BDA5BDA6BDA7B327D1334
:100110007E1F3B291B1A10C2C6D2EE22FFFF542CB1
:10012000CA797F507CEB7E3400247E08002C7E242C
:100130000002124E64E52CBEB0003802214AE52CC4
:10014000BEB0762802214A7EE12CBEE0763802213C
:10015000787E34179D793500027E34178179350019
:1001600004BEE0816802217174237A5BB0741C6163
:100170008474017A5BB061847CBE14BEB0754002A9
:1001800061337EA003A42E54018C89540202FB0229
:1001900002FB0203330202FB0203330202ED0202FE
:1001A000FB0203330203330202FB0203330202FBAE
:1001B000020333020333020325020333020309025D
:1001C00002FB0203170203170202FB0203330203BE
:1001D00033020333020333020333020333020333D4
:1001E00002033302033302033302033302033302F5
:1001F00003330203330203330203330203330203E4
:1002000033020333020333020333020333020333A3
:1002100002033302033302033302033302033302C4
:1002200003330203330203330203330203330203B3
:100230003302033302033302033302033302033373
:100240000203330203330203330203330203330294
:100250000333020333020333020333020333020383
:100260003302033302033302033302033302033343
:100270000203330203330203330203330203330264
:100280000333020333020333020333020333020353
:100290003302033302033302033302033302033313
:1002A0000203330203330203330203330203330234
:1002B0000333020333020333020333020333020323
:1002C00033020333020333020333020333020333E3
:1002D0000203330203330203330203330203330204
:1002E00003330203330203330202FB41FB7E341764
:1002F0009D793500027E34173A613F7E341771795B
:100300003500027E341781613F7E341771793500E4
:10031000027E34170A613F7E3416EE793500027E84
:1003200034171E613F7E341762793500027E341720
:1003300049613F7E34179D793500027E34178179FB
:10034000350004BEE0162802614E7CFE61627EF03C
:1003500016BEE072500261620A3E9E3400720B3497
:100360002CF77E7003AC7F7D232E2417C17A518237
:100370007A4183E4937A5BB02E3417C27A71827A21
:100380006183E49339B50001DA7922CA3B7F307486
:10039000011213DE297300F32E70FF920129B300BE
:1003A000F41213AF7F03120D727F031206BA297382
:1003B000000A0A377E0F3AFA79300024297300A325
:1003C0000A273E243E243E243E243E243E243E244E
:1003D000693300FF4D327E0F3AFA793000022973FB
:1003E000000A0A47297300050A579D54F53429B3BA
:1003F00000A5700B29B300F8297300F7120BAD2983
:100400007300A52E70FF9201E534120B1E693300B4
:10041000FD7E0F3AFA79300028692300FB3E243E26
:10042000243E243E243E243E24297300FA0A372D1C
:10043000327E0F3AFA7930002A297300F90A377EA2
:100440000F3AFA7930002C7E3400017E0F3AFA79A7
:100450003000347E34010B7E0F3AFA7930002E29B9
:100460007300050A377E0F3AFA79300010693300BD
:10047000A87E0F3AFA7930001C693300AA7E0F3A41
:10048000FA7930001E6CAA7E5002AC5A6913010141
:100490002D127E0400FF0B0A307E0F3AFA2D1279DE
:1004A0003000440BA0BEA00C40DDDA3B22CAF87F2E
:1004B000707E7BF029770001BC7F28027CF76917EA
:1004C00000066D007E3400F274FF1219367F0712A9
:1004D0000EEDA9D6CB6CAA802D6C77801F7E100BF9
:1004E000AC1A0A172D013E04691700062D106D0085
:1004F0000B0A206E24FFFF1B0A200B7029670001E6
:10050000BC6738D90BA07E7B60BC6A38CC693700E9
:10051000067E0F3B38793000047C4F6C550A3F2D26
:10052000327E0F3B387930000C6D117E1F3B381B3B
:100530001A107E3400D0120F456CAABEA0045018C9
:100540007E7004AC7A7CB77E1F3B38694100266020
:10055000421E441478FB803BBEA008501B0A3A1B85
:10056000363E343E347CB77E1F3B386941002860FC
:10057000221E441478FB801B0A3A9E3400083E3445
:100580003E347CB77E1F3B386941002A60051E441B
:100590001478FB5E44000F7E5002AC5A69370006A7
:1005A0002D326D221B1A400BA0BEA00B408DA9C698
:1005B000CBDAF822297000962990009829600097DC
:1005C0002980008DBE800438046CAA8021BE80087A
:1005D00038057EA0018017BE801038057EA00280FD
:1005E0000DBE802038057EA00380037EA004BE904F
:1005F0000328037E9003BE803F28037E803FBE60B9
:100600000128037E6001BE700228026C770A283E32
:10061000243E243E243E243E247C896C993E443E64
:10062000443E442D420A263E243E243E243E242DB0
:10063000240A373E343E342D327E7F3B2979370001
:100640000229B0008C7C4B6C5529B0008B0A3B2DE5
:10065000327E7F3AF279370080693000A07E7F3B9E
:10066000297937000C6930009E5E34E00F29B00014
:100670008C0A2B1B243E243E243E243E242D327E15
:100680007F3AF2793700820A2A3E243E243E243EF5
:100690002429B000990A3B2D327E7F3B297937000F
:1006A000066930009C7E7F3B29793700086930005D
:1006B0009A7E0F3B297930000A227F607401121361
:1006C000DE293600F5292600A3291600A4BE200243
:1006D00028037E2002BE104028037E10407E340096
:1006E000047CB260053E341478FB7C070A317E2F0F
:1006F0003AFA793200127C73AC700A211215D57C5B
:10070000270A327E2F3AFA793200147C73AC7029B2
:100710002600F60A22AD320A218D327D437C73AC6D
:10072000700A211215D57CA77C2A7CB92CABBEA0FF
:100730000C50037EA00CBE200C50037E200C0A201F
:100740000A311215D57DE30A3A0B34AD3E0B34BEA7
:1007500034020040047E3401FF294600F77E500237
:10076000AC450AF2ADFE2D2F0B24BE24020040043E
:100770007E2401FF0A137E7F3AFA7917000A1E24AD
:100780007C456C551E342D327E0F3AFA7930000CC0
:100790000A3A7E0F3AFA7930002222A9D6CB693084
:1007A00000047E2F3B3879320004693000067E2F2A
:1007B0003B3879320006693000087E2F3B387932A9
:1007C00000087E0B707C476C55297000010A372D9C
:1007D000327E2F3B387932000C297000020A377EB6
:1007E0000F3B387930000E6D117E1F3B381B1A10FD
:1007F0007E3400E0120F45A9C6CB22A21722FFFFCC
:100800007F21A9D6CB693000047E7F3B3879370041
:1008100004693000087E7F3B387937000669300074
:10082000067E7F3B3879370008297000017C476CD1
:10083000557E0B700A372D327E7F3B387937000C9E
:10084000297000020A371B347E7F3B387937000A53
:100850006930000A7E7F3B387937000E6930000C22
:100860007E7F3B38793700106930000E7E7F3B3841
:1008700079370012297000037C276C337E1F3B38C8
:100880001B1A107E3400A0120F457E1F3B386911E1
:10089000001A7A2B306911001C39320001691100ED
:1008A000167912000269110018791200046911000A
:1008B00022791200066911002479120008691100DA
:1008C0001E7912000A693100207932000CA9C6CBCA
:1008D00022CA3B7C577C4B5E4003693000045E605B
:1008E0003F6CAA0A4A69F0000A69E000082DF47E0C
:1008F0007BB00AFB7D4F7C896C997DF40AEA69D054
:10090000000E69C0000C2DDE7E6BB00A4B2D4F7EB1
:10091000D028ACD57EF002ACFA7DD72DD67EF0F093
:10092000ACF42DD77E7F3B252DFD7947018C0BA0A4
:10093000BEA00E78AE6CAA7E9002AC9A69F000025E
:100940000B0AE02DF40B7A407ED028ACD57EF00265
:10095000ACFA7DD72DD67EF0F0ACF42DD77E7F3B60
:10096000252DFD794701800BA0BEA00440C97E90D3
:10097000F0AC947428ACB57DF52DF47E2F3B252D7D
:100980005F79320188693000067E30F0AC3474281B
:10099000AC5B2D217E0F3B252D127930018ADA3B8D
:1009A000222960000B0A46296000040A262D247CB7
:1009B0006529B00006BCB628027C6B2970000529A9
:1009C000B00007BCB728027C7B6CAA6D227E900227
:1009D000AC9A7E7F3AF22DF4792700020BA0BEA0DC
:1009E0002378EA6CAA80550A2A7F702DF2295700D5
:1009F0004CBE50235023294700B40AD47D4D7C8936
:100A00006C997DD47E9002AC957E7F3AF22DF40BEA
:100A1000F50B7A404D4D1B7A400A4A7F702DF42920
:100A200047004C0AD47E9002AC9A7E7F3AF22DF4B5
:100A30000BF50B7A404D4D1B7A400BA0BC6A38A7D2
:100A40006CAA801D0A2A7F702DF22967006F0A4662
:100A50007E5002AC5A7E7F3AF22DF2794700480B65
:100A6000A0BC7A38DF227C7B7E7F3AFA6947000C93
:100A70006C883E446907000A695700021E541E54E0
:100A80001E541E541E541E541E545E5400037E14E5
:100A900000047002419B3E141478FB7CA30ADAAD7B
:100AA000D07DCD6D117917008C7CB7700241B41EDA
:100AB000D41478FBBED40100380241C27ED40100B8
:100AC00041CEBED40010400241CE7ED400107D3D08
:100AD00012126A0A1B7E1F3AFA791100907E1F3AA1
:100AE000FA79D1008E7E7F3AFA69370008AD3C8DE5
:100AF0003D793700927E1400067E1F3AFA79110084
:100B0000947D249D200A3AAD327E0F3AFA79300066
:100B1000967E3400107E0F3AFA79300098227C5B82
:100B20007E0F3AFA6940002230016B6DFF7D3FBEB7
:100B30005010282E7E54FFFF795000429E50106CBA
:100B4000AA80117EE400017CBA60053EE41478FBC3
:100B50002D3E0BA0BC5A38EB7E6F3AFA7936004036
:100B6000802579F000406CAA80117EF400017CBAE7
:100B700060053EF41478FB2D3F0BA0BC5A38EB7E89
:100B80007F3AFA793700427D342E34000C7E7F3A6A
:100B9000FA79370016226D33793000407E0F3AFA29
:100BA000793000427E1F3AFA79410016227C177C88
:100BB0003B6D337E2F3AFA793200407E2F3AFA7934
:100BC0003200427E7F3AFA695700127CAB693700E7
:100BD000021E341E341E341E341E341E341E345E77
:100BE0003400037CB77E44000460053E441478FB67
:100BF0007C290A220A3A1215D50A232D327CB77CA9
:100C0000616C770A0B1E042D037907000C7C73AC12
:100C1000720A2A1215D57E0F3AFA793000166D3312
:100C20007E0F3AFA7930002222A9D6CB693000062D
:100C30007E2F3B3879320004693000087E2F3B3824
:100C400079320008297000027C476C552970000336
:100C50000A372D327E2F3B387932000C7E0B707CA8
:100C600047297000010A372D327E2F3B3879320038
:100C70000A297000040A377E2F3B387932000E298A
:100C8000B0000554017C2B6C337E1F3B381B1A10BF
:100C90007E3400C0120F45A9C6CB22CA797CAB5E58
:100CA000A0036C777E5002AC5769D0000E69C0007B
:100CB0000C2DD2296600010AF67D4F7C896C997D46
:100CC000F47E6B600A462D4F7EF0F0ACFA2D277E45
:100CD0007F3B252DF2794702540B70BE700E40C445
:100CE000694000047EF0F0ACFA7E1F3B252D377979
:100CF0004102506930000674F0A47E0F3B252D158B
:100D000079300252DA7922A9D6CBC21E69300004AA
:100D10007E2F3B3879320004693000067E2F3B3845
:100D200079320006693000087E2F3B38793200089E
:100D30007E0B707C476C55297000010A372D327E7E
:100D40002F3B387932000C297000020A377E2F3B86
:100D5000387932000E29B0000354010A5B7CABE401
:100D60007E1F3B381B1A506930000A120F45A9C676
:100D7000CB22693000AE7E2F3AFA79320006295034
:100D800000A60A557D231E249D257E2F3AFA79223E
:100D900000187D231E241B257E2F3AFA7922003865
:100DA000692000FD1E349D329E34000A7E2F3AFADF
:100DB00079320026297000A70A377E2F3AFA793255
:100DC000001A2970000B0A27297000042D327E2F8B
:100DD0003AFA793200080209A1CA3BF5247F417F23
:100DE00030E5257E080026120120E524BEB0232828
:100DF000037524236CAA80360A3A2D397D287E1B80
:100E0000B0BEB126400D74230A4A7F032D147A0B1D
:100E1000B080197E1BB00A3B2E35287A71827A6128
:100E200083E4930A4A7F132D347A1BB00BA0E52488
:100E3000BCBA38C4DA3B22A9D6CB692000047E2F85
:100E40003B3879220004692000087E2F3B38792244
:100E500000087E0B500A557CABE4295000010A259E
:100E60002D257E2F3B387922000C295000020A25BF
:100E70007E0F3B387920000E7E0F3B387930000A18
:100E80006D117E1F3B381B1A107E340040120F4537
:100E9000A9C6CB227CAB7E3400017E0F3B29793082
:100EA000000EC21DE47AB33B245EA0030A1A3E146E
:100EB0007E1F3AF21B1A107E0F3AF22E1400840B9A
:100EC0000A304E70201B0A3074011213567E0F3BFD
:100ED000290B0A304E700C1B0A30A9D3CD7E0F3B74
:100EE000290B150B0A304E70011B0A30227F10A906
:100EF000D6CB691100027E2F3B38791200046911AC
:100F000000047E2F3B3879120006691100067E2FFF
:100F10003B38791200087E1B300A037E140100ADB5
:100F200010297100010A372D317E0F3B38793000CE
:100F30000C6D117E1F3B381B1A107E340060120F9F
:100F400045A9C6CB22A9D7CB7D234E50017E0F3BAE
:100F5000380B0A304D321B0A30801E7E0F3B380B97
:100F60000A307D235E240008BE240008780BA9D730
:100F7000CB4E70041B0A30D21E7E0F3B380B0A305A
:100F80007D235E248000BE24800078CF4E60401B0D
:100F90000A306D117E1F3B381B1A1022CA3BF52404
:100FA0007F417F30E5257E0800261201206CAA8053
:100FB000360A3A2D397D287E1BB0BEB127400D740C
:100FC0001C0A4A7F032D147A0BB080197E1BB00ACD
:100FD0003B2E352A7A71827A6183E4930A4A7F1321
:100FE0002D347A1BB00BA0E524BCBA38C4DA3B22FE
:100FF0000563312018130F0D0C0A090807060504B4
:10100000CAF87DE27DD37CFBBE300128067EF40069
:1010100010800FBE300028067EF4000880047EF4A5
:1010200000047D1F6D006D337E2400101216747F46
:10103000017D3D6D221216077D1E1216217404AC2F
:10104000BF7E0F3AFA2D157930008279200080DAC0
:10105000F822CA7BCA6BCA5BCA4BCA2BCA1BCA0B13
:10106000C0D0C083C082D21D7E0F3B290B0A307CCA
:10107000577A533B244E700C1B0A30C2C66D337E28
:101080000F3B297930000E12129E126488D082D054
:1010900083D0D0DA0BDA1BDA2BDA4BDA5BDA6BDAD5
:1010A0007B327403121356A9D1C47E0F3AF22E1468
:1010B00000840B0A304E70201B0A307E1400017E23
:1010C0001F3AF21B1A107E0F3AFA0B160B0A304E1B
:1010D00070011B0A30C20FE47AB33B0A7E1F3AF25A
:1010E0000B1A305E34000178F374020213567C6BE5
:1010F0006CAA80177E9002AC9A7E7F3B252DF40B64
:101100007A207F702DF41B7A200BA0BC7A38E56C16
:10111000AA80207E5002AC5A7E7F3B252DF26927A3
:1011200000380AF70A4A2D4F3E447F702DF41B7A8F
:10113000200BA0BC6A38DC22CA797CAB5EA0036CB1
:10114000777E5002AC577F602DD2296600010AF6E7
:101150007D4F7C896C997DF47E6B600A462D4F7EB5
:10116000F0F0ACFA2D277E7F3B252DF27947025413
:101170000B70BE700E40CADA7922295000F5AC5BC4
:101180007E0F3AFA6930000C0A563E54BE24020023
:1011900040047E2401FFBD25281F2E14000C6C6620
:1011A0001B0A301E247C456C557E0F3AFA2E140023
:1011B0000C0B0A304D321B0A30227C6B6CAA7E501D
:1011C00028AC577E9002AC9A2D427E50F0AC562D42
:1011D000247E7F3B252DF26927018C6C440A4A7FCF
:1011E000602DD47E6BB07C8B6C994D247927018C5B
:1011F0000BA0BEA00E40C7227C6B6CAA7E5028AC10
:10120000577E9002AC9A2D427E50F0AC562D247E33
:101210007F3B252DF26927018C6C550A4A7F602D92
:10122000D47E6BB00A4B4D247927018C0BA0BEA055
:101230000E40C922A9D6CB543F5E701F7C2B6C3365
:101240003E143E142E1400050A373E343E343E341C
:101250003E343E342D317E0F3B38793000027E0F14
:101260003B3879200014A9C6CB227D236C667E30E2
:1012700002AC362E1418E77A31827A2183E4930A7D
:101280001BBD1228070B60BE601440E27E7002ACEA
:10129000672E3418E87A71827A6183E493227E0F94
:1012A0003AF22E1400840B0A305E70DF1B0A307491
:1012B000031213567E1400037E1F3AF21B1A107E8F
:1012C0001F3AF20B1A305E34000178F3E402135631
:1012D0002E3404007E0F3AFA793000607E34040028
:1012E0009D327E0F3AFA793000627E3400017E0F23
:1012F0003AFA793000640A3B7E0F3AFA7930006698
:10130000227CA5BE34000028100A1B3E147D237CDD
:10131000456C552D210A3A80080A2B3E247C676CC7
:10132000772D327E0F3B2979300004227CA77E1F67
:101330003AF26941008A5E44100F0A1A3E143E14C4
:101340003E143E140A5BC42354E07CABE42D514DA3
:10135000457941008A227E0F3AF2693000845E703E
:10136000E71BB1680C14680C0BB178054E70108047
:10137000034E700879300084227E34001F7E0F3ABD
:10138000FA79300004A9D2CD7E0F3AFA0B0A304E1A
:1013900070011B0A3022BEB000280AA9D7CAA9D3FF
:1013A000CBA9D2CB22A9C7CAA9C3CBA9C2CB223011
:1013B000010A54030A3B2E34020080026D337E0F73
:1013C0003AFA7930003A227E0F3AF26930008A60A8
:1013D000054E601080035E60EF7930008A22BEB057
:1013E000002809A9D6CAD2CDA9D1CB22A9C6CAC282
:1013F000CDA9C1CB227E34000F7E0F3AFA7930009E
:1014000004C2C3D2EB220215C16E00807CB1337CD2
:10141000B033680D0468EF7CB5337CB43378037F58
:1014200010220468E17D5092F77D457D51BF214037
:10143000067C807F017F121215847EA1D05CB004EF
:10144000780320D5C17CB00478075002B2D50215CC
:10145000C992D5BE80FF68F67CB89CB06C00602A4B
:10146000B418057C4102159D50FB80032F00047CBD
:101470009B5E900778F630E4067C437D106D00306B
:10148000E3087C437C327C210A0030F5199F1078F8
:101490000E220215C61B8068F92F1150020B707CBA
:1014A000B530E7F1801B2D317CB5A5397C5B50113F
:1014B0000B8078030215C91E341350034E60801A46
:1014C0002B02159D74F86CAA6E40806E0080BEB031
:1014D000FF68277C837C975C3B5C7BBF10682AF4A9
:1014E000400D7C382D15F45C3B500F0B04800B7CB9
:1014F000792D35F45C7B50020B24BF10680B7CB057
:1015000020E7067CB420E701B3227EA020800C7E79
:10151000A01080057EA0086C556D333392D5500A1B
:101520006E34FFFF6E24FFFF0B1CA5EC3340062F2B
:1015300011D5F0F6227CBA247EA2D5137C767C6588
:10154000A5CC92E77C5B227CB5337CB43392D54E3C
:101550005080248140039F11227C457C567C676C1F
:101560007724E0500E7E1CFFFF221E341E24500301
:101570004E60800478F430D50A6E34FFFF6E24FF8D
:10158000FF0B1C222D0092D50E104E10807D422D97
:10159000445002B2D54E50806C447CB8222C44504A
:1015A000120B1C7E40005E507FBE18000078040BBA
:1015B000806816A2D57CB8137C4B7CB592E77C5B27
:1015C000227E1CFFFF229F11227E24FF8020D50255
:1015D0006C456D3322C2D57CB430E708B2D56E2499
:1015E000FFFF0B247CB630E712B2D56E34FFFF0B41
:1015F000348D326E24FFFF0B2480028D3230D506ED
:101600006E34FFFF0B34227D51AD037D027D21AD91
:10161000052D12AD352D21227D02AD31AD102D21CC
:10162000226D0074104D00780B4D2278278D317D8E
:10163000126D22227D437D326D222F112D445002E6
:10164000A50FBF1040049F100B901478ED7F016D23
:10165000227D34227D417D138D247D022F004004A4
:10166000BD0440049D040B141478F17D237D317D6D
:10167000106D0022C2D57CB030E708B2D59F229F02
:10168000207F027CB430E713B2D59F229F217F12C6
:101690001216239F229F207F02800312162330D52B
:1016A000069F229F217F12226CAA4D11681A1E5498
:1016B000680E0B38201B18200B350B151B5478F2C5
:1016C00050067E39407A1940226CAA4D11681E1EC0
:1016D00054500C7E1B007A190068120B1C0B140B63
:1016E0001A001B18000B1D0B151B5478F222000169
:1016F00002030405060708090A0B0C0D0E0F101152
:101700001213141C1D1E1F202122040506070809A0
:101710000A0B0C0D0E0F10111213141516170001E1
:10172000020304050607080E0F10111213141516F4
:1017300000010203041C1D1E1F20000102030E0FE6
:1017400010111213141516171803040506070809BB
:101750000A0B0C0D0E0F1011121314151617181971
:101760001A1B060504030201001C1D1E1F20210078
:10177000000001020304050607081C1D1E1F20218E
:1017800022000102030405060708090A0B0C0D0ECE
:101790000F101112131415161718191A1B00010235
:1017A000030405060708090A0B0C0D0E0F10111291
:1017B000131415161718191A1B1C1D1E1F20212281
:1017C00000010101101C02101C000101040F1C008B
:1017D0000101061B0F070E1C0823150001010A104A
:1017E000190B141C0C0F180001010E23150F0D19F5
:1017F000000101110D14121019131C10141A1015E8
:10180000101916231C72231573231C74231C750EC8
:101810001C7584017E443FFFE47A49B01B4478F98B
:101820007EF83B3D7564007565007566027567005E
:10183000C208C209756C00C210C211750C64750D26
:1018400064750E00750F00751A00C213756D007572
:101850006E00C20AC20B756F00C215757000C21708
:10186000757100C218C219757200C21AC20C751EB9
:1018700000751F64C21BC21C757300D205D206D24C
:1018800007D21DC20ED20F7E0400FF7E1419780B02
:101890000A405D44681A692000020B0E0B44800A5E
:1018A0007E0BB07A29B00B240B0C1B4478F280DF3E
:1018B00002274A0000004700CB01000010FDC7FBD3
:1018C0007EFBFB01BB0C9E19002145000E010F029F
:1018D0001003110412051306140715081609170A38
:1018E000180B190C1A0D1BDF22C321A920941F818C
:1018F0001E701D621C551B4A1A4119381831172BCE
:1019000016251521141C13191216111310110F107E
:101910000ECAF87F20800A7E1BF07A2BF00B340B66
:101920005469FFFFFC7DEF1BE479EFFFFC4DFF786E
:10193000E67F10DAF8227D437F1080071B447A0B84
:10194000B00B144D4478F522320119010002F8045D
:10195000E705CE06C207B508FF00010200FF01023D
:101960000001FF02000102FF7D23BE2400004803A6
:101970007D32226D339D3222000435A2000000002A
:10198000000103FF01000125F601000139CA000032
:10199000023A1C000000023A1E000000013A20003A
:1019A000000138FEFF0001029600000102970000CE
:1019B00004030600FF00FF000A0386000000000089
:1019C00000000000000001039005000103EB00008F
:1019D0000A001000000000000000000000000133B9
:1019E000FF000001344F00000236BE000000013647
:1019F000E10000013750000001375B000001375C57
:101A0000000001375D00003C3806000000000000C7
:101A100000000000000000000000000000000000C6
:101A200000000000000000000000000000000000B6
:101A300000000000000000000000000000000000A6
:101A40000000000000000001387E000001387F0027
:101A50000001388000000137FF0100023802000059
:101A60000001007400000100750000010076000014
:101A700001388301000138FD0000013B3C000006F5
:101A800033F930000000000000013AB16400013A6F
:101A9000B26400023AB3000000013B330000013B96
:101AA000340000013B350000013B360000013B37AC
:101AB0000000012FC80000013365000001348A00D6
:101AC000000234AB0000000134E9000004396F006B
:101AD0000000000001336601002833671E03675CC5
:101AE00020140359552026023232203401383E207A
:101AF0001E03675C201E03675C201E03675C201EBC
:101B000003675C20000133B700000133B800001CFC
:101B100033B9505050505050505050505050505079
:101B20005050505050505050505050505050002332
:101B300033D550505050505050505050505050503D
:101B40005050505050505050505050505050505095
:101B50005050505050000133F80000013B2D000060
:101B6000013B2E0000023B2F000000013B316400CE
:101B7000013B320000013B3D00000103FD0000017C
:101B800003FE0000013B0F0000022BD82BDE0001FA
:101B90002F9E0200012FC70000043B2500005000CB
:101BA00000043B290000640000043AF200006C00CD
:101BB00000043AF6000068C000043AFA0000680029
:101BC00000043B0B0000400000043B3800006000B4
:101BD000000003E8000C02260320000A01AE02BC4C
:101BE000000C00C801F4000C003C012C000A003C71
:101BF00000640006003C005000060000000E1C239C
:101C000000000000000000000000000000000000D4
:101C10000E1C2305DC003203E800280000001E1221
:101C20003B0B12B631121E87121CA5121C70121D1E
:101C300040021C34121C457EB32B2E12A9E77401FE
:101C40007AB338872212AA8574017AB338832212B4
:101C50001CDC124D18125469123B0B121CDC121CB6
:101C6000A512C44D121C70121D40121D70021C34AE
:101C70001264F3121CC2021C797E3400036D22022E
:101C80001C827D437EA33438BEA00550167E7004AE
:101C9000AC7A5943343B5923343D7CBA047AB3348B
:101CA00038C322D322121F03121ED8021CAE3013D7
:101CB00010125E86500312AAFA1259EB128D9FC2BF
:101CC00013226D337E2406FC121C827E3400017EBA
:101CD00024077A021C8274017AB339CF7E340DACAA
:101CE0006D227A2703EC7A3703EE22CAF87EF339A5
:101CF000CFBEF005780B74017AB339CF120009809A
:101D000036BEF0047808121CD6121EFE8029BEF0E2
:101D100006780E121CD6125DCF121ED312C5098092
:101D200016BEF0077817121CD6121F4B50FB121F5D
:101D30005F121CAE121D4074027AB339CFDAF8225A
:101D4000E47AB3343A7AB33439125DB6B401047428
:101D500001800274037AB3343A2212C44D12C2EEE7
:101D60007A373B2F121CDC121CA5121D40021D707D
:101D7000129E8D500474198002740A7AB336A8E456
:101D80007AB336A922CA3B121F4B50FB7EF32B2E8F
:101D90007CBF128E1E12B9687EB32B3EF5287EC31F
:101DA0002B3F121E877EB33926B4010F12A4067E84
:101DB000B316917006121D40C3C184121F6A3E34CF
:101DC000CA397E1806FC7E08047E1219111BFD120A
:101DD0001F6A3E34CA397E18077A7E080400121939
:101DE000111BFD7EB33926B40307129C5B7A373A88
:101DF0001274017AB31690121CA5129CCB123DD31B
:101E0000E41213DE121D407E08047E7A0D297E182E
:101E100006767EB32B911263867E0804007A0D2924
:101E20007E1805F87EB325F01263867ED32B3E7EA6
:101E3000E32B3FE5287AB32B3E7AC32B3F7E340851
:101E40000A7E040DC87D207D10125A6F7AD32B3E76
:101E50007AE32B3F7CBF128D2312A1477EB33B3226
:101E6000047AB33B327E733B32BE70FA2806746448
:101E70007AB33B327EB3169060097EB3169160034D
:101E8000D38001C3DA3B227EB333F8B401447E73BE
:101E900033B8BE7333B7683A7EB33366B4010F12FA
:101EA000B72F7005121F563829E47AB333667EB314
:101EB00033B812B643121D40121F562806121EFEDA
:101EC000121ED312C4A47E7333B87A7333B77AB3B5
:101ED00033F822E47AB32B3D7EB32B3D701F1227DB
:101EE000D8121F4B50FB1259EB121F5F2013031225
:101EF0008D9F74027AB32B3DE47AB3169122E47A73
:101F0000B32B217EB32B217041121F4B50FBE46C8D
:101F1000776C66121F797E0806FC7E1F06F47EB37E
:101F20002B911262E374017E70017E6001121F79B1
:101F30007E08077A7E1F06F47EB325F01262E374F2
:101F4000027AB32B21E47AB31690227EB3343AB4EA
:101F50000102C322D3227E373B2FBE34000022125F
:101F60005E865003D21322C213227E732A930A275D
:101F70007E732A920A372D32227C967CA712366213
:101F80007CBA1213C7740A1224047CB912001E0210
:101F90001F92CA3B7EE32A937EF32B1974017AB316
:101FA0002B191221D712C4F8121F6A7E172B1D6D30
:101FB000001219367ED0071227D86CCC80197E34D7
:101FC00000017CBD60053E341478FB7C6712C4C2FE
:101FD0004C767A29700BC012214F2D230A3CBD325A
:101FE00048DC12215C301DFD12C4B87EB32A927CFD
:101FF0007E1263F66CCC80297402ACBC493506FCB9
:10200000BE34154050197E3400017CBD60053E345D
:102010001478FB7CB764FF12C4C25C7B7A29700B16
:10202000C012214F2D230A3CBD3248CC1BD0BED05C
:102030000058841220CF740212411812204D7402ED
:1020400012001E7AF32B191221D7DA3B22CA797CAF
:10205000FB7E0824F21241207EA32A927E732A93EB
:102060006CEE801D0A2E09622AFB0A261241297C89
:102070006BBE601C50090A2E1220C519B224F20B47
:10208000E0BC7E38DF6CEE801A0A2E09622AD8BEC8
:102090006023500D0A1E0A272D211220C519B225D2
:1020A0000E0BE0BCAE38E26CEE7E300EAC3E2E1471
:1020B00024F26D007CBF7C7E1211BA0BE0BEE005FD
:1020C00040E7DA79222E272B1D7E29B00A2622CA64
:1020D000D8CA797EF00A74017AB32B19121F6A7C70
:1020E000E7805F1227D812215C301DFD12C4B812A0
:1020F00063EE6CDD803D7E5002AC5D493206FCBE75
:1021000034147850140A1D2E172B1D7E19B0BEB042
:1021100000281E147A19B08018BE34192828100A15
:102120003D1237C1BEB0FF6808047A39B080021B87
:10213000E00BD012214F2D230A3DBD3248B84CEEA2
:1021400068087CAF1BF04CAA7899DA79DAD8227E3D
:10215000732A930A377E532A920A252274021200A8
:102160001E7EB32B1B12204D740212001E74057EBE
:10217000709B12132C12217F7EB32B1B020E946CCA
:10218000AA80220A3A09732AFB2E3418CB128D1A20
:102190007C7B0A477E5002AC5A7E0F3AF22D1279B0
:1021A0004000480BA07E632A93BC6A38D6227ED7B3
:1021B0002B2CBEB0012802E42212647B1221D77AB4
:1021C000D72B2C7E732B191265B2E47E50011213AB
:1021D0000112216D7401227E082A8C0205B4CA3BCB
:1021E0007EB33924B40102800261136CCC6CDD7EB5
:1021F000B3394FB401087EE0107EF03280067EE0F5
:10220000067EF0141287837DF3121F4B50FB74017E
:102210007AB33AB81236621213C712001E740A1249
:10222000240412C4F87EE72B2C7AE5257EB32B1903
:10223000F52474047AB32B197EE72B2C5EE4003F5F
:102240007AE72B2C7EB32B191263FE7C7B7408ACCF
:102250007B7E2400041215D57D237D3F126EE5ADF3
:10226000327A372B261221D712879741F41227D8BA
:1022700030110241FA7CBE128D0A12216D800F804E
:102280000712236BE41223A32093F612233B301D85
:10229000F7301CF4D201122321E41213DE0BC0121A
:1022A0008857128FED7EA33AB74CAA780674017A4C
:1022B000B33AB84CAA680B7EB3394F7005E47AB3D1
:1022C0003AB712231678187EB33AB76012E47AB39D
:1022D0003AB77AB32A207AB32A217ED001801B1222
:1022E000231668107EB33AB7700A7ED001E47AB341
:1022F00039248006BCFC2802416DE47AB32B237E8E
:1023000035257A372B2CE5247AB32B194CDD68035D
:10231000121D40DA3B227E733B240A375E340002F2
:10232000223001061227DF02139612C523C20202D1
:102330002332A9D0CEA202A991C922301D05C20123
:10234000122321A9D1CDA9C5EA301C03201D1412E6
:10235000236BA9D0CEA9C4C974021223A3A9D0CEDD
:10236000A9D4C9A9C1CDD20102232174817AB33B7A
:102370002D22801D12236B128C8B6805C201122343
:10238000217EB3343ABEB0026818201C15E4122333
:10239000A32093E012236BA9D1CDA9C5EA74020250
:1023A00023A3227CAB7EB33B2DB481384CAA7805A5
:1023B000A9D0878029BEA001780FC2AFA9D0CEA92D
:1023C000C7C9A9D187D2AF8015BEA0027816C2AF07
:1023D000209309A9D0CEA9D7C9A9D187D2AF00002F
:1023E00000000000E47AB33B2D22D20080123000BE
:1023F0000C128C8B6807C200C201122321122372B7
:10240000301CEB227CAB800E7E70038001007C6769
:102410001B70A5BE00F77C6A1BA0A5BE00EA2212B5
:10242000236B128C9375CD00A9D6EBA9D7CDC2CE64
:1024300012C4EF12279A74011223A3A9C6EBA9C7ED
:10244000CDD2CEE5257E712402244B7C6BA9D5CB61
:10245000740F1225197A61FC12256412B7A4D200F8
:1024600012B8B11227DF1213DE0213967EB339249D
:1024700014685D147802A10C14686D24036802A12D
:102480000412C531380830140F128645680A12C28A
:10249000EEE47AB33AB780747EB3390530E06D7EEE
:1024A0007339060A277E340400AD327EB3394FB447
:1024B000010B7E34627B12C1862E340400BE373A93
:1024C000B5504912C2EE122512E47AB33AB9803CF3
:1024D00012C5312832E47AB339247EB33AB7B40155
:1024E00003122512D21C801F74FF7AB338FE12C566
:1024F0002A12241F121C4FE47AB339247AB33B32D8
:10250000D21C8008122512E47AB33B32128C63028B
:1025100021DE74017AB3392422F5FD7A71FE22A9F5
:10252000D5CB74027E703F122519740F1200467CC1
:102530007B740F5E70FE122519740C120046547FD6
:102540006808740C7E70F81225197E7072740E1271
:10255000251974071200467C7B5E70FB7407022508
:102560006112251975FDFFA9C5CB22CAD8CA797D8C
:10257000D3906050E4937CFB906051E4937C8B0A91
:10258000380ACF2DC30BC47D3C7CE71227D8A9D0D5
:10259000C4A9D5CB74071200467C8B74077E700FDC
:1025A0001225617E5400787E1F3AF6795100067E2E
:1025B0005400807E1F3AF6795100087E54000C7E4C
:1025C0001F3AF679510010BED40002780712273E58
:1025D0004401801C12273E44081B1A504DDD7E1F0B
:1025E0003AF6780712274254FB800512274244042A
:1025F0001B1A507E1F3AF269E10084695100907DF8
:10260000F52E3400905EA0F61B1A507EB33930BE12
:10261000B0064003B4FF0E1227CC54E61227C94E71
:102620005401A4800C1227CC5E54FEE61227C94444
:10263000A41B1A50BED40002782512273E5E540017
:102640000F1B1A5012273E44501B1A507E340002B2
:102650001249B41248231248007A3735A6C1FA6CE1
:10266000DDC1F44CDD78046C99802BBCFD40120A6E
:10267000CD099C2AD7BE902340037E90220B9080E8
:10268000150A3F0ACD9DC3099C2AFABE901C40033F
:102690007E901B2E902412273E5E54000F1B1A5072
:1026A0000AC93EC43EC43EC43EC412273E4D5C1B14
:1026B0001A50E5666007E566BEB06428067E340001
:1026C000028004E5660A3B1249B4124823BED400D6
:1026D0000178101248231248007402ACBD593535F8
:1026E000A8800F1248000A5E0A2D2D253E2459327B
:1026F00035A80BD0BCED2802C163A9D5CB74077CEB
:1027000078122561A9C0C47E1F3AF279E100847E67
:102710001F3AF279F100906D337E0F3AF67930006E
:10272000067E0F3AF6793000087E0F3AF6793000CF
:10273000107E0F3AF67930000EDA79DAD8227E1F51
:102740003AF62E34000E0B1A5022124D181258DB96
:10275000125469121C1F7EB3392624FD68090BB17F
:1027600078F412463080EF122ADA80EA6D337E0860
:1027700000247E240012124E64E53420E71BA9D504
:10278000CB74037E7127122519740B7E712F1225CD
:1027900019740C7E71301225612212C523C20012F9
:1027A000B79BC202122332C20012B8B1A9D5CB74B2
:1027B0000F1200467A1BB0740F6C77122519E5FCD6
:1027C0007A0BB043FC100225641B1A507E1F3AF2AC
:1027D0002E3400840B1A50227E3403E8021CE0D20F
:1027E00002122332740122CAF87CABBEA034380333
:1027F0000228FABEA03578077EB32B2F022A10BE1E
:10280000A0366805BEA037781D7E35607D230B2479
:102810007A25602E3735A07E39B0BEA037680241D8
:1028200010751D364110BEA0386805BEA039781B52
:102830007EF339EF7CBF047AB339EFBEA039780359
:10284000751D380A3F09B32B404110BEA03A6805F8
:10285000BEA03B781B7EF339F17CBF047AB339F11B
:10286000BEA03B7803751D3A0A3F09B32B634110A4
:10287000BEA0FB78067EB32B314110BEA05E782649
:102880007E0F3AF26930008E0A561E541E541E54B2
:102890005E540001030354C00A365E3400037CA773
:1028A0004CBA44804110BEA03C6805BEA03D781BD8
:1028B0007EF339F37CBF047AB339F3BEA03D7803CD
:1028C000751D3C0A3F09B32A994110BEA03E680518
:1028D000BEA03F781B7EF339F57CBF047AB339F58F
:1028E000BEA03F7803751D3E0A3F09B32ABC4110C4
:1028F000BEA040400DBEA04D38080A3A09B339CBFE
:102900004110BEA04E6805BEA04F781E7EF33A105F
:102910007CBF047AB33A10BEA04F7803751D4E0AEF
:102920003F2E37359E7E39B04110BEA0516805BE9E
:10293000A05278287E1460006D002E0400FF7EB344
:102940003A1B0A3B6D222F107E1B70047AB33A1B90
:10295000BEA0527803751D517CB74110BEA05C68C3
:1029600005BEA05D781A7EF339E47CBF047AB339E2
:10297000E4BEA05D7803751D5C7CBF122A13411074
:10298000BEA060400DBEA06C38080A3A09B303909F
:10299000807EBEA06D7804E5668075BEA0F46805F3
:1029A000BEA0F578187E35627D230B247A25620956
:1029B000B335A6BEA0F57858751DF48053BEA0F0BF
:1029C0006805BEA0F178097C1A2E1078A5E7804032
:1029D000BEA0F26805BEA0F3781B7E15683E147E8B
:1029E0001F35A22D310B1A30BEA0F278040A568092
:1029F0001F7D53801BBEA0F67804E5678012BEA041
:102A0000F7780474648009BEA0FD7803E48001E4D3
:102A1000DAF8227CABBEA00040117EB32A8DBCBA8E
:102A200028097402A44925340080517E132A8DBCE4
:102A30001A381C7E032A8C0A100A212D120A3ABD6C
:102A400031580C9D323E343E34492332D9802D7E9C
:102A5000032A8C0A200A117D412D420A3ABD3448CE
:102A6000197E1002AC012D01BD30580E9D319D32F2
:102A70003E343E34492332DB8002E4227E3400645B
:102A8000AD23740C1E341E2450034E60801478F461
:102A90007CB722CAF880387CBF122A130A1B7E63D7
:102AA0002A8D7E7002AC677E1002AC1F2D037E1F44
:102AB000138A2D30122AD29D351B1A100BF0122AC0
:102AC000D27E732A8D0A272D250A3FBD3248C8DAE7
:102AD000F8227EA32A8C7402A422123ACF7EB33944
:102AE00026B4037812B8BC1227D8124007E56770E5
:102AF00003E4800274017E700112B6127EB339CBFA
:102B000030E7DA121D85121F6A3E34CA397E180476
:102B1000007E0804FC1219111BFD121F6A3E34CA04
:102B2000397E18047E7E08057A1219111BFD7EB3CA
:102B30002B3CB401151247361253FB12460E12A15C
:102B4000EA122F2E122B6C1248461248D0122A93EA
:102B50007EB339CB547F7AB339CB808112BBDE028E
:102B60002B627EB3396D700312365822127DB31278
:102B70002FC5122D7F127F41122D7F1280FC127CF7
:102B800010122F52122D7F129639122D7F1286B3FA
:102B9000122D7F022B96CA3B7524006CCC6CDD7E17
:102BA000C4003CCAC97E1838427E08380612191182
:102BB0001BFD7EF328840ACF3EC4CAC97E1826FABC
:102BC0007E081F341219111BFD6C886CEE816A7E21
:102BD000C403FF7EC0FF6C99804C7402ACB909B588
:102BE0001F34BEB0FF683D7CB9122F3960367402C5
:102BF000ACB909751F350A277402ACBE0975384394
:102C00001287597D137402ACB909751F340A2774F1
:102C100002ACBE097538421287592D13BDC1280474
:102C20007DC17CC90B90BCF938B0BEC0FF68397E4D
:102C30007002AC7C09B31F3409731F35122DC8BE56
:102C4000372A7948237E7002AC7C09531F34740202
:102C5000ACBD19551F7009531F3519551F7174FFED
:102C600019B31F340B800BD00BE07E733805BC7E8C
:102C7000280261CF7CE881F96DDD7E80FF6C998050
:102C8000507CB9122F39604712C4AEBEB0FF683F06
:102C900009731F351294267F710B7A50BE540000C1
:102CA00058056D551B7A507EB32A88600E7E5728D2
:102CB0008ABE54019058047ED4003C0B7AC0BDCD2E
:102CC000080D12C4AEF52409C31F357DDC7C890BC9
:102CD00090BCF938ACBE80FF681D7E71247402ACD4
:102CE000BD19751F7019C51F717EA0FF7E7002ACE3
:102CF0007819A31F340BD00BE0BEE00A5002817894
:102D000090609AE4937CAB7402A4CA597E181F7039
:102D10007E081F341219111BFD7CFD7E0838427E8F
:102D200034001474FF121936BEF00028380A3F3EF2
:102D300034CA397E181F347E0826FA1219111BFD79
:102D40000A3F3E34CA397E181F347E0838421219B1
:102D5000111BFD6CEE800A7CBE7E70011280010B9F
:102D6000E0BCFE38F27AF338057AF328847E7328C3
:102D700084BE700A2806740A7AB32884DA3B22CA11
:102D8000796CFF6CEE80317CBE122F3960287E3466
:102D90000002CA39AC7E2E3426FA6D227E3002AC97
:102DA0003F2E1426FA6D001219111BFD7CBF7E7098
:102DB000011280010BF00BE0127FE638CA7AF3288B
:102DC00084DA79227CBA7C791294260B1A3022CAD2
:102DD0003B6DEE7EC32A8D7ED32A8C7EB3394FB4F1
:102DE0000103E4E1057EB328847002C1747EB32A36
:102DF000216002807F7EA326FA7E7326FB7A7124EF
:102E00006CEE6DFF6CFF0A478020122DC4BE3400AB
:102E100096081D0BE0BEA00028067CBA14122F0BEA
:102E2000122F1B5803122F081B44BE44000058DA0F
:102E3000E5240A4B801E122DC4BE34009608210BD7
:102E4000E0BEA00028067CBA14122F0B122F1B58CC
:102E500003122F087D240B247D420A3CBD2348D653
:102E6000BEE0035002800D0A2F7D3F1215D5BE34FF
:102E700000280807E47AB3375CE1056DDDBEA000E9
:102E800028087CBA14122F152DD30A3D1B340ACA08
:102E9000BDC358087CBA04122F152DD37E7008804C
:102EA0002A7E5002AC577DC22EC419487D1C7A314F
:102EB000827A2183E4931ACBBDCD080F7DC22EC444
:102EC00019497D2C12412D1ACB2DEC7C671B70A566
:102ED000BE00CE7CBA122F15121968BE340AF00853
:102EE000042EE40028BEE400FA28047EE400FA7E02
:102EF000B3375C0A3BBD3E50087D3E7CB77AB337A2
:102F00005C7EB3375CDA3B227CBA047C79122DC834
:102F10002DF30BF0227E7124022DC80A2D1B240AEA
:102F20003ABD32227CB87C79122DC8BD3D22127A7E
:102F3000EA122DCF7AB32A2A227C7B12BD2209A263
:102F400027727CB754070A3B2E34005E128D1A5C40
:102F5000BA226C006C1180137CB1122F39600A12F6
:102F60002FAC40057E0001800A0B107E732884BCC4
:102F70007138E57CB06C77129F0FBE0001680B7C46
:102F8000B07E7001129F0FB401216C1180157CB1CD
:102F9000122F39600C122FAC50077CB16C77128065
:102FA000010B107E032884BC0138E3227402ACB10B
:102FB000092526FA093526FB7CB27C737CB7B41B45
:102FC00002D322C322CAF87EB32884602A6C998077
:102FD0001E12866E7CB87C7F122FBC50107CB87C91
:102FE0007F122DC8BE340190580312831A0B907EB5
:102FF000732884BC7938DADAF8227EB328A87E34C4
:103000003E807003E4800274011233A412302F3822
:10301000127E732685BE700038097E732684BE70CA
:103020000028097EB32A886003D21922C219227EA1
:10303000732884BE700022CA797EE0017E247FFF5F
:103040007D827E4480007DF47E632A8E7E732A8F8B
:103050007EA001801E0A0A7EB32A8D0A1B2D103E17
:103060001449E104FCBDE858027D8EBDEF08027DE5
:10307000FE0BA00A161B140AEABDE148D87EA00187
:1030800080177E3002AC3A49E104FCBDE258027D73
:103090002EBDE408027D4E0BA00A171B140AEABDE0
:1030A000E148DFBD4F58047D3F80027D347A371FF1
:1030B0003412A2D57EE400027AE728A37EB4011878
:1030C0007EA40096E47AB328AC1232C17E34FCB8F8
:1030D0007E14FE5C7A15247EB32A87B401047D9B9E
:1030E00080047D9B3E946CFF6CAA80327E1002AC03
:1030F0001A093026FA092026FB7E1002AC1249007C
:1031000004FCBD0B48160AD37EB32A8D0A0B2D0D85
:103110003E04490004FCBD0B48020BF00BA07EB33B
:103120002884BCBA38C6BD235818BE852458136DF0
:10313000559E572A79BE57288E083912A7666034E3
:10314000802F7E572A793E546E54FFFF0B54BE5792
:10315000288E08206D559D5BBE5707FE08166D55DD
:103160009D59BE5707FC080C4CFF780812A76660F3
:103170000312364912A9514005E47AB328A81295E2
:103180001368067EB33B366007E47AB328AD414D41
:1031900012302F2805E47AB328AD301405E47AB351
:1031A00028AD12A98F500A1232C112A7D57CEB802C
:1031B0004D7EB32684700D7EB32685700712302FA6
:1031C000280280347E572A70BD5F38087EF72A7245
:1031D000BDF4280D7EB32A88600712302F280280A4
:1031E000174CFF78197EB32A8870131232C8BEB00C
:1031F00001680B12302F28067EE0031232C17EF7E1
:103200001F34BEF405DC081712302F28126DFF9D05
:10321000FABEF7288E580812362DE47AB328AD7E10
:10322000F73B2FBEF403E850167403ACBE7A572860
:10323000A17402ACBE7DF53EF47AF728A3800E0A95
:10324000FE7AF728A17402ACBE7A5728A31207FBB6
:10325000500DE47AB328AD12302F280312362D7E9C
:10326000F7288ABDFA081B7D3A7D2E1215D56D8888
:103270009D83BE87288E580A1207FB5005E47AB357
:1032800028AD1232C8B40105E47AB328AD12A838CB
:10329000500312364912A8B87EB30074BEB000289D
:1032A0001D147AB300747016E47AB328AD74017AF1
:1032B000B328AC12C4A47AB328847AB32683DA790B
:1032C0002274017AB328AD22CA3B1237C938026191
:1032D0008F7EC300774CCC783D7AB30077E47AB325
:1032E00000796CAA802612339A7E7002AC7A09D3D8
:1032F00026FA09E326FB7A49D019E4000174011982
:10330000B4000812356E593400020BA07EB3288435
:10331000BCBA38D2807F7CFC6CAA803512339A7E8E
:1033200049D009E4000109B4000870041BF0801FB3
:1033300012356E7D23493400029D321219687DF3E7
:10334000BEF400230809740519B400087571010B57
:10335000A0BCFA38C74CFF780280267E730079BE85
:10336000700440226CAA800E12339A09B40008BE81
:10337000B00568060BA0BCFA38EEBCFA780375718C
:103380000012363B800F7CB7047AB30079800612B6
:10339000363B757100E571DA3B227E9009AC9A2EBE
:1033A00044007A22CA3B7CFB7DA37524007525006E
:1033B0006CEE7EB3288470131254B56D331234BD95
:1033C0007EB33A8D6005147AB33A8D7EB32A87B402
:1033D0000102800281B57EB32A886002816A7E3450
:1033E00001907E1407D012357528787EB33A8D602F
:1033F00007147AB33A8D81BA7E3400647E240BB808
:1034000012AAB7F524B40102800281BA7E73268520
:10341000BE7004280281BA7E732684BE700428021E
:1034200081BA7E732A21BE7004280281BA12302F1D
:1034300028097E3400051234BDF572BED00478022E
:103440008007BED003780280007EC0017CBC12558C
:1034500050F525BEB0016807E572BEB005285B7463
:103460000280536D331234BD80507E3401907E143F
:103470000BB8123575280C74027AB32A887AA73AE9
:103480006D801D7EB32884600C7EB3268560067E29
:10349000B32684700874017AB32A8880037EE00121
:1034A000BEE001680D7E373A6D4D336805BEF00110
:1034B0007808E48001E47AB32A88DA3B227D237E0F
:1034C00063288C7E73288D4D2278126D337A373ABB
:1034D000B374647AB33AB17AB33AB2E4227E533A1F
:1034E000B11A157D011B041A26BD2048360B141A8B
:1034F00026BD21182E7E533AB21A157D011B041ADF
:1035000027BD20481E0B141A27BD2118167E273A06
:10351000B30B247A273AB3BE240064400C7E240007
:103520006480026D227A273AB37A633AB17A733AA9
:10353000B27E573AB32212C512B40114CA397E18AA
:103540003A0B7E0825EE1219111BFD1237D180129D
:10355000CA397E183A0B7E082B8F1219111BFD12E7
:1035600037EF0235657A1F2B1B7A0F2B17227CBD94
:103570007C7E022DC87D211235807CDBBED00022EE
:103580007D027EB32685BEB000281F6CAA80117E06
:103590005002AC5A492204FCBD20080280530BA003
:1035A0007E532A8DBC5A38E78002E4227E4326846B
:1035B000BE400028226CAA80140A4A0A052D043E47
:1035C00004490004FCBD01080280260BA07E432AAA
:1035D0008CBC4A38E48002E4221237C9284D7E4769
:1035E000288ABD43180BBEB004400E7EB32A8870F3
:1035F00008740A7AB33A8DE4227E272A7B7D323E14
:1036000034BE37288A48037401227D323E343E346A
:10361000BE37288A48037402227E340006AD32BECB
:1036200037288A4803740322740422E422E47AB31C
:1036300000747AB328AC7402023659E47AB3007885
:103640007AB300777AB300792274027AB300747483
:10365000017AB328AC023658E47AB32B217AB32B23
:103660003D227AB32B1F70141237EF1235657E1886
:1036700006767A1F06F47E18047E8010B4011112BB
:1036800037D112356512C4587E1804007A1F06F827
:1036900022740112001EE41236621236A9E41200EE
:1036A0001E74011236620236A9CA3B7ED32A927E6C
:1036B000C32A937E081F441241207E081F8A7E344D
:1036C00000461219367E081FD07E34000AE4121913
:1036D000367E081FDA7E34000A1219367EF32B1B61
:1036E0007E182AFB7A1D247E181FD07A1D287CBDE7
:1036F0007C7C7E082AD812BB166CEE802B0A3E0911
:10370000A32AFB0A3A2E3418CB128D1A7CABBEA02A
:103710001C50130A3E1237C10A4A19B41F447EB323
:103720002B1A19B41F8A0BE0BCCE38D16CEE802462
:103730000A3E09A32AD8BEA02350170A2E0A3C2D00
:10374000321237C10A4A19B41F607EB32B1A19B45A
:103750001FA60BE0BCDE38D87EB32B1C7E081FE40E
:1037600060097E181FD0126E8B800312C4D56CEED8
:103770007E181FE47A1F1F347402ACBE49351FD077
:103780007A371F387402ACBE49351FDA7A371F3AD0
:103790007E700EAC7E2E341F446D227A1F1F3C7E3D
:1037A000700EAC7E2E341F8A7A1F1F407E081F3495
:1037B0007CBF7C7E1208D10BE0BEE00540B2DA3B54
:1037C000222E372B1D7E39B0227EB32884BEB00056
:1037D000227E1F25F27E0F25EE227AB32B1F700565
:1037E0001237EF8006B401061237D1123565227EFA
:1037F0001F2B937E0F2B8F22CAF87C6BA5BE00096E
:103800007CB7124B55D208417AA5BE013D7A733977
:10381000CCA5BFAD02802FA5BFAE04D209417AA5C9
:10382000BFAA05123AFB801EA5BFAB0A7E34057AFB
:103830007A3735A08010A5BFAC028002417A7E3471
:1038400004FC7A3735A06D3301F6BE60044020BE1B
:103850006008381B123A7DA5BE07076D337A3562C2
:10386000417AA5BE08028002417A123AC0417AA587
:10387000BE0A094364207A7339D5417AA5BE0B0884
:10388000123A7D123AC3417ABE601B4007BE601CEB
:1038900038024112BE601E400DBE60233808123A45
:1038A0007F436440417ABE6015401ABE60183815E7
:1038B000123A7FD208A5BE15028002417A74077AB7
:1038C000B339CF417AA5BE1907E47AB339E4417A16
:1038D000BE60244007BE602C38024112A5BE2D1BDD
:1038E000123A7F200902417A7E6339F77C466C5593
:1038F0000A372D323E347A3560417ABE602F400A55
:10390000BE603338054364084112A5BE340F4364DA
:1039100010BE7064380241127E70644112BE60387D
:103920006804A5BE39214364017EF339F07CBF04ED
:103930007AB339F00A2F19722B40A5BE39028002E2
:10394000417A751D38417ABE603A6804A5BE3B21B4
:103950004364027EF339F27CBF047AB339F20A2F52
:1039600019722B63A5BE3B028002417A751D3A4154
:103970007AA5BEFB094364047A732B31417AA5BE54
:1039800050067A733A1B417ABE603C6804A5BE3D7E
:10399000214364017EF339F47CBF047AB339F40A1D
:1039A0002F19722A99A5BE3D028002417A751D3CED
:1039B000417ABE603E6804A5BE3F214364017EF3A8
:1039C00039F67CBF047AB339F60A2F19722ABCA5DE
:1039D000BE3F028002417A751D3E417ABE60404082
:1039E0000DBE60423808123A7F756501800AA5BE97
:1039F000430B123A7F756502123536807DA5BE44B1
:103A000008123A7F123A868071BE60456804A5BEEE
:103A10004605123A7F8063BE604E6804A5BE4F2003
:103A20004365047EF33A117CBF047AB33A110A2F3E
:103A30002E27359E7A2970A5BE4F3F751D4E803AC0
:103A4000A5BE6D057A71668031BE60F04025BE600E
:103A5000F338207C162E10787CB7A5F7A5BEF31A94
:103A60007E156A7E05683E047E1F35A22D301B1A26
:103A7000108007A5BEF6037A7167DAF822D2080A29
:103A800026197239CB2212C512B40117CA397E1811
:103A900025EE7E083A0B1219111BFD123AC6123799
:103AA000D1801ACA397E182B8F7E083A0B12191151
:103AB0001BFD7E372B957A37359E1237EF02356521
:103AC000B28622B282227E3725F47A37359E2212C0
:103AD0003AFB123AC66D337A3562123FFE123FDF6F
:103AE0001248F074507AB339FF7E240320123B044D
:103AF000E412C44F6D337A373B2F227E340DC87ADF
:103B00003735A0227D3274FA0212D074017AB339AB
:103B100026123EC61213F5123B41E4120A667E24B9
:103B200003D4123B0474011236621263DE7E34D079
:103B30000C12010E1236917E340001E46C55021312
:103B400001CAF8906051E4937CFB7E081F3412C4D4
:103B5000D57E081F3C12B6EED2007E082AFB7CBF41
:103B600012BAEC7E081F347A0F1F587F017A171F94
:103B70005C7D327A371F5E7E181F3C7A1F1F646C93
:103B800077800E12B700500712B6F719511F3C0B81
:103B900070BCF738EE123BBAE4123BC2E4120C9B45
:103BA0006D337A371F5C7A371F5E123BBA7401128D
:103BB0003BC27401120C9BDAF822A9C6EA7E081FE8
:103BC0005822120C9BA9D6EA7E081F5822E5647081
:103BD0000281EFE56430E0105364FE123CF01259AC
:103BE0007F7E082A8C1209A1E56430E1065364FD4A
:103BF00012B658E56430E2325364FB7EB32B316079
:103C0000097E082A8C1206BA800B7EB32B847E7341
:103C10002B83120BAD7E732B312E70FF92019060BF
:103C200051E4939EB32A96120B1EE56430E34A5387
:103C300064F77E7339FD7A732B2E128D7D7AB32F44
:103C4000C8BEB0FF680B4364207E732FC87A7339F7
:103C5000D5123DCB123FF77E7339FEBE732B8168C0
:103C6000067A732B81D210301009C210123EC6E4BE
:103C7000120A66121C4512A9E3E56430E40F53648E
:103C8000EF7E4339FF7E500AAC45123B04E56430B9
:103C9000E64E5364BF7E7339EBBE70072806740787
:103CA0007AB339EBA9D5CB740E1200467C7B5E70DB
:103CB0000F7E6339EB0A262E240003123D557C65E6
:103CC0004C76740E1225191200461225647E733943
:103CD000EE7A732B337E7339ED7A732B3E12C5095E
:103CE000E56430E50A5364DF7EB339D50249012229
:103CF00012C4EF12B5DE906050E4930A3B7D132EA0
:103D0000142A996D0009B32A98123D390A3B7D1394
:103D10002E142B406D0009B32B3F123D390A1B2E88
:103D2000142A9B123D46E525123D3D0A1B2E142BFD
:103D300042123D46E5240219367E3400021219363D
:103D4000906050E493226D00906091E4930A3B1BD5
:103D500035220B18203E243E243E243E24227C673C
:103D60007C7BA5BF0017BE6000280F74017AB32AC0
:103D700025E47AB32A277AB32A28029EF8A5BE0042
:103D80001B6CAA7E60FF7E5009AC5A196229660B33
:103D9000A0BEA00A78F074017AB32A246CAA80200D
:103DA0007E3009AC3A2E1428AE123D521B18207EEC
:103DB0003009AC3A2E1428B0123D521B18200BA02B
:103DC000BC7A38DC22741E7AB32B2E123E2D7A3741
:103DD0002B3A227EA32FC8BEA0FF6848BEA333653E
:103DE00068427405A412C4DD123E2512C46B123E53
:103DF00025125FF4125E8650097EB32FC812AB9471
:103E00008006123E25125FEB123DCB123FF07E730F
:103E10002B330A377E0F3AFA7930001A7E732FC897
:103E20007A733365227EA32FC87405A4227E232BC8
:103E30002E7E3339FCAC232E1401F4BE14000A503C
:103E4000047E14000A7E632B2FBE140F3C40047EB8
:103E5000140F3CBE1407084003E4800274017AB3D7
:103E60002B2F7E732B2FBC766802D2107E2401F498
:103E70007D318D327C17BE100728037E10077E1F10
:103E80003AF269510086541F0A013E043E043E0482
:103E90003E043E042D05790100866D007E34B80095
:103EA0007E24000B021674123DC730100CC2101293
:103EB0003EC6300004E4120A6630000912AA8512D8
:103EC000A9E302A236227E082A8C12038B7E082ADE
:103ED0008C740302117A7E0B707A732B2E2970007A
:103EE000047A732B81297000017A732B33297000B7
:103EF000037A732B3F123DCB123FF0D200C2010276
:103F00003F02300003125E0DA20192021289850267
:103F10003FE7CAF87CFB7405ACBF12C4DD12C46B6A
:103F2000125FEB125FF47AF32FC87CBF12AB9412CE
:103F30003DCB7405ACBF09B52637123FB0121C3714
:103F4000E47AB31691DAF822CAF812B70A123FB02F
:103F50007E340023CA3912C4811219111BFD0A3F95
:103F6000CA3912C4741219111BFD12B718CA3912BA
:103F70003FA77E08338F1219111BFD7E340028CA1B
:103F800039123FA77E0826331219111BFD123DC5B9
:103F900090612BE4937AB325F090612FE493123F64
:103FA000CB123FFEDAF8227E3461EC7E2400FF2241
:103FB0007EA32B81BCAB68067AB32B81D210301064
:103FC00009C210123EC6E4020A66227AB32B917E21
:103FD000732B817A7339FE7E732B337A7339EE7EBD
:103FE000732B3E7A7339ED7E732B3F7A7339EC2253
:103FF0007E082A8C02038B7E082A8C020D727E7347
:104000002B2E7A7339FD2230083BC208121CEB7E3E
:104010007339D07A732A6C7E7339D17A732B3C7ED4
:104020007339D17A732B207EB339D260187E340075
:104030000212256B7E34000112256B6D3312256B45
:10404000E47AB339D212404B023BCDE5656052E5CC
:104050006530E0065365FE1221D7E56530E1145363
:1040600065FD7EB33A0F700474018001E4124118BB
:104070001240A2E56530E2295365FBE47AB33A10B9
:104080007EB33A0F700A740112001E1237EF8007D8
:10409000E412001E1237D11235657EB32B1B0220AD
:1040A0004D22CA797CFB7E081F341241207EA32A50
:1040B000927E632A936CEE801E0A2E09722AFBBE42
:1040C000701C50110A271241297C7B7EB32B1A0ADF
:1040D0002719B21F340BE0BC6E38DE6CEE80170A75
:1040E0003E09732AD8BE7023500A7E632B1A0A2712
:1040F00019621F500BE0BCAE38E56CEE7E300EACA2
:104100003E2E141F346D007CBF7C7E1211F80BE034
:10411000BEE00540E7DA792212001E7EB32B1B2297
:104120007E340046743F0219362E2418CB7A518211
:104130007A4183E493227CAB6C770A272E2460AC0F
:1041400012412DBCBA7802D3220B70BE700340EA34
:10415000C322CA797C5B7E432884BE400128024189
:10416000617EA32A8D7E7002AC7509F326FA09E3FD
:1041700026FB7CBF7C7E1294267F517C1E7C3F7E7A
:10418000032A8F7E232A8E0A3A6DDD9DD30A9A0A6E
:10419000C01BC50A51BD5C580241610A531B54BE85
:1041A00054000048557CB314124136504D7CB31472
:1041B00012426D7DE37D5E1242640B1AF07D5D3E1E
:1041C000547F152D350B1A80BEF4000008119D8F09
:1041D000BE84000058046D5580027D581B1A507C27
:1041E000B024FEBCB178137D4E1B447D5412426452
:1041F0000B1A50BD5808031B1A800A830B840A52FD
:10420000BD85585D7CB30412413650557CB3041211
:10421000426D7DE37D1E3E147E1F138A7F612DD18A
:104220000B6AF07D193E147F652DD10B6A10BEF428
:10423000000008119D1FBE14000058046D55800237
:104240007D511B6A507CB024FEBCB178147D4E1B9E
:10425000447D043E042D300B1A00BD0108031B1AD7
:1042600010DA79223E547E1F138A2D35227E732A5E
:104270008DAC7B2E34001B226C336C22801C7CB2F4
:1042800012413650137CB212426D7D03124606492C
:10429000553B1A7D401297AC0B207E732A94BC725A
:1042A00038DC22CA3B7528007EB32A8EF52A7EB3FD
:1042B0002A8FF52B7525007EB31691B4010280027A
:1042C00081ED6CDD81DD7E7002AC7D09B326FAF5EF
:1042D0002909C326FB7526027527027CBD124152AF
:1042E000D2001244F07EB3390AB4011E7EB32A21F3
:1042F000B401177EB32884B401107E372886BE34FB
:10430000000A4006752603752703E5296005124556
:104310005048037526014CCC680CE52B0A2B1B2456
:104320000A3CBD32480375270175250075240080BD
:1043300051E524BCBD684912AFCA7AA12C09B32645
:10434000FBF52D0A2AE529124582BE3400041830F7
:10435000E52D0A2B0A3C9D32121968BE3400041860
:104360001F124527400AE52C7E712D122FBC5005E7
:1043700075250080037525017526017527018007C5
:10438000052412863538AA124527500B124278753B
:104390002600752700800B129E8D5006752603752A
:1043A0002703E525700281966CFF6CEE12454318D9
:1043B00015E52A0A5BBD35480D1245381808E52B6E
:1043C0000A5BBD35580312455D0BE0BEE00378DCA7
:1043D0000BF0BEF00378D37EA12B1BA0BCAC68060B
:1043E0004CCC68028196E529BEB000380281961255
:1043F0004550480281967E1800647A1D414CCC7865
:10440000057540028007BCAC78037540006CFF7EE8
:10441000A1403EA07E9006AC9F7CB92CBA242E12FF
:10442000452E7E1400641216187CB924300A1B0B2A
:1044300018101A021A001216747E0D41BF1058038C
:104440007A1D410BF0BEF00378C57E1D41BE1800F9
:104450000058077E1800017A1D416CFF7406ACBF3E
:10446000243012452E7E0D411216077E080064127C
:1044700016747D43E5290A3B1B340A5F2D530A2C31
:104480001B247EA1400A3A2D321294261B1A400B9F
:10449000F0BEF00378C6E5267E71277C6D7E51283C
:1044A00012783FE525602F6CFF6CEE12454318151E
:1044B000E52A0A5BBD35480D1245381808E52B0A78
:1044C0005BBD35580312455D0BE0BEE00378DC0BA5
:1044D000F0BEF00378D312427805280BD07E732803
:1044E00084BC7D280241C6E5287AB32884DA3B22C1
:1044F0006C336C2280287CB2124136501F7CB21281
:10450000426D3E347E7F138A2DF30B7A30124606BD
:1045100059353B1A3000056D331B7A300B207E7302
:104520002A94BC7238D022E5297C7C022FBC0A3B3D
:104530000B38301A261A24220A2E0A3C2D32BE3499
:104540000001220A3FE5290A4B2D34BE3400012226
:10455000E52A0A2B1B24E5290A3BBD32221B440A0B
:104560005F2D540A2C1B240A3E2D32122DC87D23A8
:104570007C7E3E707406ACBF2CB7242E0A3B1B38E1
:1045800020220A3B9D320219687E30647E20646CD2
:1045900011804A0A310B347C0780387E7002AC707F
:1045A00009B326FA1245FE09B326FA1245827C9712
:1045B0007E7002AC7009B326FB1245FE09B326FBE0
:1045C0001245827C87BC3928027C39BC2828027CB1
:1045D000280B007EB32884BCB038C00B107EB328F3
:1045E00084BCB138AEA5BB64026C33A5BA64026C5E
:1045F00022BC2328047CA280027CA37CBA220A2B42
:104600007E7002AC71227CA30B307402A42212468D
:104610002012006E1246B3301605124278C21622DE
:104620007EB32A87600912943C126F860247622289
:10463000121D5A1264457EB33926B4016412B8BC07
:1046400012C52A128CC512654E12B631121D855044
:10465000E21247361253FB7EB33923B40104E4124D
:104660006D7812460E1246C540C912A1EA1246C51F
:1046700040C1122F2E122B6C1247AD1247B012956B
:10468000A612747E129BE412703F129D441273BAFC
:1046900012BEBB126860124CB1128CA51246DD80AE
:1046A0009212BBDE0246A77EB33923B40104E402B2
:1046B0006D7822126EEE7EB32A887008E47AB30316
:1046C000FD02476222C2007EB3169160067EB316D9
:1046D00090700712974B2802D200A200227E083A5F
:1046E000221247217E083A2A1247217EB32A886087
:1046F000077E083A6D12472112C42A12C38202476C
:10470000017E373A22BE34000028157E733B32BE4C
:104710007005500C7EB3394F700612C2EE1225128E
:10472000220B0A30E5730A2BBD3228049D32800229
:104730006D331B0A30226C33801F7CB3124136402C
:10474000167CB312426D7D436D557D043E047E1F81
:10475000138A2D301B1A500B307E232A94BC233829
:10476000D922E47AB32893129F4A12BBE47EB3168F
:1047700091B401087E7328847A7328927E1804FC11
:104780007A1F06F812C45812BD291252357EB3168C
:1047900090B401187E7326837A7326F37E73268580
:1047A0007A7326F57E7326847A7326F4220242A356
:1047B0000247B3CA796CFF7ED72A796CEE80317CD0
:1047C000BE127C83BD3D48267CBE122F39601F7E01
:1047D000C40009CAC97E7009AC7E2E34277612C582
:1047E000392E1428AE6D001219111BFD0BF00BE0D1
:1047F000127FE638CA7A7328937AF32A20DA79226C
:104800007E0F3AF66930000A7D236D336910000C83
:104810006D002F1074071E341E2450034E60801448
:1048200078F4227E3400017E0F3AF6793000047E5F
:104830000F3AF6693000125E34000168F27E3400EF
:10484000017930001222CAD8CA797E732A8D7EF38C
:104850002A8CACF77D373E347E081F34E4121936BB
:104860007EB339E6B401647E7339E7BE7000285B1D
:104870006CDD803C1227D8121D856D3380287E3573
:10488000243E3449330DC81219687A35267E352402
:104890007D133E1449211F34BE252658077E252648
:1048A00059211F340B347A3524BE752438D00BD0EF
:1048B0007E7339E7BC7D38BC7D373E34CA397E18FB
:1048C0001F347E080DC81219111BFDDA79DAD822BF
:1048D000A20EE4337AB339F97E7339FDBE732B2E01
:1048E000680DE5647009123FFE123FDF1248F022A6
:1048F0007E732B337A7339EE7E732B817A7339FE94
:1049000022CAD8CA797CDB7EA004BED08078187E0B
:10491000E0FF6CFF800B12495E38047CEB7CDF0B00
:10492000F0BCAF38F1801ABED08178156CEE6CFF08
:10493000800B12495E40047CEB7CDF0BF0BCAF388F
:10494000F1BCAD38026CDD7CBD123F12123FD712B4
:104950003FFE1248F87AD339D5DA79DAD8227E9038
:1049600005AC9F09B42633BCBE2224AB681024EFEB
:10497000681C24DE682624DE782F7405802D7EB323
:1049800003FFB4052A1249B0124C1C0249D97EB368
:1049900003FFB4051A1249B075E9FF227EB303FF85
:1049A000B4050C1249B00249D374017AB303FF2253
:1049B0007E3400017D2380127E3004800574FA125B
:1049C00024047C231B30A5BA00F37D321B244D3315
:1049D00078E62275E76B0249D9E47E34D7FC7E2461
:1049E00000FF7A1BB07E34D7FD7A1BB075E9FF2239
:1049F0007CA77C3BA5BB00077CBA124B55802CBE24
:104A000030EB6804A5BBEC097CB37C7A124BE080E8
:104A10001ABE30804015BE30EF38107CB324807C45
:104A20007A124B80A5BB8F03751C01A5BBFC057CCE
:104A3000BA02496A74017AB303FF227C6B124A9A64
:104A400078057CB60249F0B404057CB60237F8223A
:104A5000309019C290E51B7009751B01E591F51D99
:104A600080117E7191E51D124A3B051D30910BC2EC
:104A700091051DE51D124A7BF591227C7B6CAA12E3
:104A80004A9A78097CB7124AA27CAB800AB4040720
:104A90007CB71227E77CAB7CBA227EB339CBC454F7
:104AA000072270057EB339CB22BEB0033815756C72
:104AB000003012067E18030A80047E1803487A1D0F
:104AC000088008BEB05E3810756C000A1B7E1D0899
:104AD0002D311B347E1BB022BEB0D36803B4D4107A
:104AE000B4D3086D337A373A1C8002151D024C642A
:104AF000BEB0EB6803B4EC03024BAEBEB080400C1A
:104B0000BEB0EF38070A3B09B3387F22B4FC057EFC
:104B1000B3392622B4FD176CAA7EB328A860034ED1
:104B2000A0017EB3388E60034EA0027CBA22B4FE90
:104B3000057EB32B2E2274FF22CA7BCA2BCA1BCA46
:104B40000BC083C082124A50D082D083DA0BDA1BAA
:104B5000DA2BDA7B327AB339CBC45407BEB004689F
:104B600003B40204740380076003B4010774017A7C
:104B7000B339262274017AB33926E47AB339CB22C9
:104B80007C6B2E60DD68262E60FD68211B61681D30
:104B90001B6268191B6168151B6068112E600A781A
:104BA000047A7338FE0A2B197238FFD21122B4EB43
:104BB00005E47AB33A217E733A210A272E240006AF
:104BC00012412D7CAB7CB7047AB33A21B4030BE4D9
:104BD0007AB33A216D337A373A1E751DEB7CBA22CF
:104BE000BEB0EB6803B4EC337E273A1E4D22780E3C
:104BF000A5BFAA0A7E2400017A273A1E151D7E272A
:104C00003A1EBE2400017810A5BF09067E340002BA
:104C100080026D337A373A1E751DEA227E14D7E87A
:104C20007E0400FF7E3447527E24555079300002C6
:104C30001B0A207E3445207E2441447930000679C9
:104C40002000047E3499337E2466CC7930000A79C2
:104C50002000087E3441477E24464C7930000E798E
:104C600020000C227EA32FC77E7004AC7A0B34BECA
:104C7000373A1C40397E373A1C0B347A373A1CBE1F
:104C800034000178057EB3395222BE340002780325
:104C90007CBA22BE34000250097D231B2509B233A1
:104CA000F9229E3400032E372BD87E39B02274FFB0
:104CB000227E7328937A7328947E732A207A732A2B
:104CC00021E47AB32A24227E3703EC0B347A3703AB
:104CD000EC7E3703EEBE3703EC2803024CE22202DF
:104CE0004CC7E59A6005D29CA9D6DF22CA7BCA6B65
:104CF000CA5BCA4BCA2BCA1BCA0BC0D0C083C082B6
:104D0000124CDFD082D083D0D0DA0BDA1BDA2BDA68
:104D10004BDA5BDA6BDA7B32E4124F7612B84C1264
:104D200027D812B8AA12251F12B79112B863120021
:104D30000A12B86F124F0112B87FD2AF12B7DE124B
:104D40004D6612276C12B7A47E0803F0124F5090E4
:104D50006050E493CAB8906051E4937C7B7E24FF5A
:104D6000FFDAB8021234D2C843ED0FC2EA75B313AA
:104D7000A9D1B4A9C0B4124EF1E4124D89024D80FC
:104D8000A9C5CAE47AB33B3D22CAF87CFB7402127F
:104D90004E084CFF78055E70DF80034E7020740271
:104DA000124DAADAF82274067D307D237C6B0A143A
:104DB0007C737D527CAB7EB33B3DB4A53C124E9CD4
:104DC00075B501A936B3FC124E01A936B3FC124EDB
:104DD00001A936B3FCA9C6B37A61B5A936B3FCA95B
:104DE000C6B37A71B5A936B3FCA9C6B37AA1B5A981
:104DF00036B3FCA9C6B3A9D2B42274047D30024DE7
:104E0000AAA9C6B375B500227C6B6C776CAA7EB379
:104E10003B3DB4A546124E9C75B505A936B3FC12B0
:104E20004E01A936B3FC124E01A936B3FCA9C6B394
:104E30007A61B5A936B3FC124E01A936B3FC124E05
:104E400001A936B3FCA9C6B37E71B575B500A93604
:104E5000B3FCA9C6B37EA1B5A9D2B47C476C550AF0
:104E60003A4D32227D427F607D03124EF174021270
:104E70004E087DF34EF400014EF4000A124E957A6E
:104E800045367D306D227F06124EAD5EF4FFFD1279
:104E90004E95024D8074027D3F024DAAA9C2B4A96D
:104EA000C6B3227406124E087D036C1122124EBB4B
:104EB0007E353612B8D5A9D2B4D3227D52F53A7CCC
:104EC000B67CA50A44F5397F21F538A9C2B4740B24
:104ED000124EE6E53A124EE6E539124EE6E5381294
:104EE0004EE6E4024EE6F5B5A936B3FCA9C6B3D347
:104EF00022A9D5CAA9D1EAA9C1EA74A57AB33B3DD2
:104F000022E47AB339CB7E08030A12C4CC7E0803AC
:104F1000487E34003E1219367E18030A7A1D0812A4
:104F20004F32024F25751B00751D007EB339CBF53E
:104F30009122024F35906000E49354FE759100C2B7
:104F400090C291C2C954FEF592D2E8C2C0D2AD223D
:104F5000D2C975F23075F38075F40C75F5016CAA41
:104F6000E5F55480B480F9E5F612C4610BA0BEA04B
:104F70000D40EDC2C922A9C4CAA9C5CABEB0085015
:104F800003128C9CA9D0CEA9C0C9D202122332A987
:104F9000C2EA75C10675C20CD20012B8B1A9C1C46B
:104FA000A9D2C4A9C2E122740A7AB32A6C74107A15
:104FB000B32A6D126F757A372A74741E7AB32A7801
:104FC00012C4E67E2400827A272A7B7E24FF6A7A36
:104FD000272A7D7A372A7FE47AB32A8374047AB346
:104FE0002A847E3400647A372A857E340A007A3730
:104FF0002A8174017AB32A87E47AB32A8874017A01
:10500000B3393FE47AB31692227E340004CA397E63
:1050100034612D7E2400FF7E082B8F1219111BFD99
:105020007E342A2D7A372B95E47AB32B937AB32BDF
:10503000947E340004CA391258D27E0825EE121923
:10504000111BFD7E342B977A3725F4E47AB325F2D1
:1050500074017AB325F322CAD8CA79906050E493D8
:105060007CDB906051E4937CEB7E732A93BC7E28BA
:10507000047CF780027CFE7AD32A8C7AE32A8D7A2C
:10508000D32A907AE32A917AD32A927AE32A9374E4
:10509000017AB32A967AD32A8E0A3E1B347A732A6F
:1050A0008F906091E4937AB32A97906094E4937A16
:1050B000B32A980A3DCA397E3460527E2400FF7EAE
:1050C000082A991219111BFD0A3FCA397E346075EE
:1050D0007E2400FF7E082ABC1219111BFD7E3400BD
:1050E00023CA3912C4811219111BFD123CF0125946
:1050F0007F7AD32A947AE32A9512500974011236E2
:1051000062E47AB32B207AB32B211251E37A372B46
:105110002C74037AB32B22E47AB32B2374027AB370
:105120002B247E3401187A372B2674047AB32B256E
:105130007E34000F7A372B287E34205F7A372B2A73
:1051400012B71174017AB32B2F74207AB32B3074F9
:10515000047AB32B32123DC5E47AB32B3C7AB32BDD
:105160003D7E3401F47A372B3874017AB32B3174D5
:105170005C7AB32B3F74677AB32B3E6D337A372B4F
:10518000347A372B3674037AB32B337E3400307A7B
:10519000372B8974047AB32B867E3400057A372B3B
:1051A00087E47AB32B857E34046D7A372B8B7401B8
:1051B0007AB32B8274057AB32B83E47AB32B84748D
:1051C000017AB32B7FE47AB32B807E3418B37A371D
:1051D0002B8D0A3ECA3912C4741219111BFDDA79DB
:1051E000DAD8226D336CAA80140A2A09B22AFB5439
:1051F0000178054E700180034E70100BA07E532A7B
:1052000093BC5A38E46CAA801F0A2A09B22AD8BE75
:10521000B00D38054E70C0800DBEB01B38054E6015
:105220000880034E60500BA012522E38DC227EB351
:105230002A92BCBA22CA3B7EB47FFF7DAB7D8B6DC8
:10524000227D327D9B7524006C997E7804FC7E085B
:10525000057AE47AB308087AB308097AB326F67AAD
:10526000B326F87AB326F77AB326F96CAA805F12D0
:1052700053AA0B6AC0BDCA58027DACBDC308027DEB
:105280003C2D717D600B3AD0BDD958027D9D7E6763
:105290002A727E740003AD76BDC70802052412533E
:1052A000970B3AD0BDCD080B7EB326F7047AB32610
:1052B000F780191253A00B3AC06ED4FFFF0BD4BD78
:1052C000CD58097EB326F9047AB326F90BA07EB334
:1052D0002A93BCBA38997AA707FE7A370802E524E0
:1052E0007AB308097A97080612538F2DF56CAA80B5
:1052F000501253AA0B6AD0BDD858027D8DBDD2087A
:10530000027D2D7E672A707E740003AD76BDD708BE
:10531000020B901253970B3AC0BDDC080B7EB326EC
:10532000F6047AB326F680171253A00B3AD06D9983
:105330009D9CBDD958097EB326F8047AB326F80B94
:10534000A012522E38AB7A8707FC7A2708007A938E
:10535000080812538F2D156CAA80147E9002AC9A07
:105360007F702DF40B7A90BD9B58027DB90BA01273
:10537000522E38E77AB70804BD8A58027DA87AA76A
:1053800007F8BD3258027D327A3707FADA3B227EBF
:10539000A32A937402A4227E7462277E6400FF22F3
:1053A0007EF002ACFA2D7F7D6E227EF002ACFA7F99
:1053B000672DD722CA797A1D287A0D247E752C7E16
:1053C000B32A8860147EB3388E700E7EB3390A70AB
:1053D000087EB33B3570020E747A752F7E0D247EE5
:1053E0001D2812560B7A752E12538F7E0D242D1503
:1053F0007E1D282D351256C2DA79227E372A6E1E7E
:10540000347A352C7E0804FC7E1804001253B47ED6
:105410003728990E347A352C7E08057A7E18047E5A
:105420001253B412543D129FBE02542CE47AB303BB
:10543000FE7EB328A86005E47AB303FE22CA3B7E51
:10544000F32A8D7EE32A8E7ED32A8F6CCC80137C48
:105450007CAC7F3E347E0F138A2D137CBD12A021BD
:105460000BC0BCEC38E9DA3B221257E91250571254
:10547000004212C4587E1804007A1F06F87E0F06F8
:10548000F87E1F06F41262BC7E18080A7A1F138683
:105490007E180DC87A1F138A7E0F138A7E1F13860B
:1054A0001259C81254D4124FA712594712552D122F
:1054B00064F30254B5E47AB33A707AB33A6F7E0873
:1054C0003A8E7E3400231219367E083A717E3400FB
:1054D0001C0219360254D77E3401187A3728957E7B
:1054E0003402267A3728997E3400967A3728977ABC
:1054F00037289B7E3400507A37289D7E3400347ADA
:1055000037289F12A2D57E3400027A3728A374016F
:105510007AB328A5E47AB328A81255263E347E082B
:1055200025F7E402193690609A930A3B227E0828F8
:10553000AE7E34010E74FF121936129EEC7E0829DD
:10554000BC126DC77E082A207E34000BE402193697
:105550007C9B7E733A70A5BF000E7E63288C0A2761
:1055600019623A8E740180207EB3288C7E083A8EB0
:105570001255EF70177E83288C7E733A700A571984
:10558000853A8E7EB33A70047AB33A707E733A6F7E
:10559000A5BF000E7E63288D0A2719623A71740137
:1055A00080207EB3288D7E083A711255EF70177EE9
:1055B00083288D7E733A6F0A5719853A717EB33A04
:1055C0006F047AB33A6F7EA33A70BCA950197E7308
:1055D0003A6FBC7950117E5003AC590E240A170A59
:1055E0003A2D31BD3248061254B5740122E4226CC2
:1055F0006680120A267F702DF27E7BA0BCAB7803FA
:105600007401220B60BC7638EAE422CA3B7F617FDA
:10561000507E732A8D0A373E34CA397F167F0512B1
:1056200019111BFD6CDD12579A7AB31F6C6CCC807C
:10563000471256B178407402ACBC7F162D350B1A58
:10564000E07D3F1219687D137D3E121968BD315807
:10565000027DFEBEE52F08057EE52F800B6D339E93
:10566000352FBD3E08027DE37D3E1257937EB31F6A
:105670006C047AB31F6C0BC07E732A8FBC7C38B16C
:105680007E731F6C4C77681D1257D108027D7F6CAA
:10569000CC800A1256B178031257BC0BC07E732A15
:1056A0008FBC7C38EE0BD0BED0025002C126DA3B54
:1056B000220AEC097E2AFB0A375E3400010AEDBD9E
:1056C0003E22CA3B7F617F507E141C0F7E0400FF88
:1056D00012941A7A1D301292E93E34CA397F167F2D
:1056E000051219111BFD6CDD12579A7AB31F346C29
:1056F000CC804C1257AC40451257A250407402ACBB
:10570000BC7F162D350B1A107D3F1219687D037D65
:1057100031121968BD3058027DF1BE152E08057E84
:10572000152E800B6D009E052EBD0108027D107D9B
:10573000311257937EB31F34047AB31F340BC01257
:10574000578C38AF7E731F344C7768341257D108AA
:10575000027D7FBE752E08057E752E800B6DEE9E38
:10576000E52EBDE708027D7E6CCC800F1257AC4061
:10577000081257A250031257BC0BC012578C38ECBA
:105780000BD0BED0035002C1E8DA3B227E732A8ED2
:10579000BC7C221A261A242F41227EF47FFF9F44CC
:1057A000E4227C1D2E1031A5E7BCAB220AEC09AE29
:1057B0002AD87C1D2E1030A5E7BCAB227402ACBCED
:1057C0007F162D350B1AE09DE77F152D351B1AE04E
:1057D000220A176D007F141216747D731219687DEA
:1057E000E37D3F121968BD3E22E47AB339CB7AB328
:1057F00039CC906050937AB339CD906051E4937A6C
:10580000B339CEE47AB339CF740A7AB339D0E47AB3
:10581000B339D17AB339D274017AB339D474257AD1
:10582000B339D874467AB339D974647AB339EA741F
:10583000047AB339EBE47AB339D774677AB339EDC4
:10584000745C7AB339EC74037AB339EE74407AB38A
:1058500039E9E47AB339E474FA7AB339E2741E7A36
:10586000B339E374017AB339E1740D7AB339E07472
:10587000017AB339E5E47AB339E67AB339E77E08D9
:1058800039EF7E34002C12193674017AB339FA7468
:10589000F47AB339FB74197AB339FC741E7AB339CC
:1058A000FD7E340004CA391258D27E083A0B121910
:1058B000111BFD74057AB33A1874017AB33A0F7E5E
:1058C000340028CA39123FA77E0826331219111B4B
:1058D000FD227E3461297E2400FF227E5400547E06
:1058E0004400FF69320004692200020B2A107A1D6D
:1058F000267A15247E3400207E0800247E240006AB
:10590000124E6474257AB338FF74207AB339007468
:10591000117AB339017AB339027AB3390374A07AB0
:10592000B339047E34006ACA397E3461657E24004E
:10593000FF7E0839051219111BFDE5257AB33930B0
:10594000E5287AB3391F227E08265B7E34023AE4CA
:105950001219367E08268C7E3400C874FF12193660
:105960007E0826B47E3400C812193690609AE493FB
:105970007C7B7409AC7B7E08277674FF021936CADB
:10598000F87E732A970A477E732A900A572D547E11
:10599000A32A92BCAB28027CBA7EF32A917EA32A6A
:1059A00093BCAF28027CFA7525017E082AD87E18A0
:1059B0002A99120DD97525017E082AFB7E182ABC6A
:1059C0007CBF120F9CDAF8227F607EA32A8C7EB304
:1059D0002A8DA47DF53EF47F017D3FE41219367FC8
:1059E000067D3F1219367AB31691227E0F138A7EF6
:1059F00018080ACA3B7A1D297F30125CF37A5531A8
:105A00007EB32B3CF52EE47AB32B3C7F037E1D291D
:105A10001259C8125DAD123FF7752D00125D0430AA
:105A20000FFD7401125F9E7E1440007D217D0712E0
:105A30005A6F125BB66D3380197E352F3E347F036B
:105A40002D130B0A207E0D292D131263E57E352FB1
:105A50000B347A352F7E3531BE352F38DC052DE5F8
:105A60002DBEB00140B6E52E7AB32B3CDA3B227E48
:105A7000B32A8CCA3B7CDB7A05387D717A25367A6D
:105A80003534125E8650776CCC80117E732A8D126D
:105A90005B95125B7B7E343400125B9E12578C3810
:105AA000EA6CCC80537EA32A8D7C7A125B95753A82
:105AB0000080277EB339E0BEB13A7E70042808AC7E
:105AC0007C494332D98006AC7C494332DB7E713A53
:105AD0007402AC7B59433450053A7EB32A8FBEB171
