:1000000002164202BC27EBAA08222202005AB402BE
:1000100004A9B7EA2224FFA997EA22025831B402C0
:1000200004A9B6EA2224FFA996EA2202725C7F6044
:10003000A9C2EA74011213967F061205B47F060264
:1000400009A12202731DF5FDE5FE220200711210C6
:10005000A2021379000000000000320200760102C3
:10006000040810204080C21822D322020072B286F7
:10007000223232021052CA7BCA6BCA5BCA4BCA2BED
:10008000CA1BCA0BC0D0C083C082D2147E0F33E417
:10009000693000047A7333F47E7333F40A375E34C4
:1000A00000046804D2138002C2137E34001F79302A
:1000B0000004C2C312129E1273FF7E1F33E4693123
:1000C00000025E340040682E6CAA7E1002AC1A7EDC
:1000D0001F33E47F712DF06917009C591033E80B32
:1000E000A0BEA00378E4691100A47A1733F0693147
:1000F00000A27A3733EEA9C1C4D082D083D0D0DA3F
:100100000BDA1BDA2BDA4BDA5BDA6BDA7B327D1334
:100110007E1F344B1B1A10C2C6D2EE22FFFF542C96
:10012000CA797F507CEB7E3400247E08002D7E242B
:100130000002126648E52DBEB0003802214AE52DC6
:10014000BEB0762802214A7EE12DBEE0763802213B
:10015000787E3414B5793500027E341499793500EF
:1001600004BEE0816802217174237A5BB0741C6163
:100170008474017A5BB061847CBE14BEB0754002A9
:1001800061337EA003A42E54018C89540202FB0229
:1001900002FB0203330202FB0203330202ED0202FE
:1001A000FB0203330203330202FB0203330202FBAE
:1001B000020333020333020325020333020309025D
:1001C00002FB0203170203170202FB0203330203BE
:1001D00033020333020333020333020333020333D4
:1001E00002033302033302033302033302033302F5
:1001F00003330203330203330203330203330203E4
:1002000033020333020333020333020333020333A3
:1002100002033302033302033302033302033302C4
:1002200003330203330203330203330203330203B3
:100230003302033302033302033302033302033373
:100240000203330203330203330203330203330294
:100250000333020333020333020333020333020383
:100260003302033302033302033302033302033343
:100270000203330203330203330203330203330264
:100280000333020333020333020333020333020353
:100290003302033302033302033302033302033313
:1002A0000203330203330203330203330203330234
:1002B0000333020333020333020333020333020323
:1002C00033020333020333020333020333020333E3
:1002D0000203330203330203330203330203330204
:1002E00003330203330203330202FB41FB7E341467
:1002F000B5793500027E341452613F7E3414897919
:100300003500027E341499613F7E341489793500BA
:10031000027E341422613F7E341406793500027E59
:10032000341436613F7E34147A793500027E3414F9
:1003300061613F7E3414B5793500027E34149979B9
:10034000350004BEE0162802614E7CFE61627EF03C
:1003500016BEE072500261620A3E9E3400720B3497
:100360002CF77E7003AC7F7D232E2414D97A518222
:100370007A4183E4937A5BB02E3414DA7A71827A0C
:100380006183E49339B50001DA7922CA3B7F307486
:10039000011213DE297300F32E70FF920129B300BE
:1003A000F41213AF7F03120D727F031206BA297382
:1003B000000A0A377E0F33E479300024297300A342
:1003C0000A273E243E243E243E243E243E243E244E
:1003D000693300FF4D327E0F33E479300002297318
:1003E000000A0A47297300050A579D54F53429B3BA
:1003F00000A5700B29B300F8297300F7120BAD2983
:100400007300A52E70FF9201E534120B1E693300B4
:10041000FD7E0F33E479300028692300FB3E243E43
:10042000243E243E243E243E24297300FA0A372D1C
:10043000327E0F33E47930002A297300F90A377EBF
:100440000F33E47930002C7E3400017E0F33E479E1
:100450003000347E34010B7E0F33E47930002E29D6
:100460007300050A377E0F33E479300010693300DA
:10047000A87E0F33E47930001C693300AA7E0F3365
:10048000E47930001E6CAA7E5002AC5A6913010157
:100490002D127E0400FF0B0A307E0F33E42D1279FB
:1004A0003000440BA0BEA00C40DDDA3B22CAF87F2E
:1004B000707E7BF029770001BC7F28027CF76917EA
:1004C00000066D007E3400F274FF1217657F07127C
:1004D0000EEDA9D6CB6CAA802D6C77801F7E100BF9
:1004E000AC1A0A172D013E04691700062D106D0085
:1004F0000B0A206E24FFFF1B0A200B7029670001E6
:10050000BC6738D90BA07E7B60BC6A38CC693700E9
:10051000067E0F3C5E793000047C4F6C550A3F2DFF
:10052000327E0F3C5E7930000C6D117E1F3C5E1BED
:100530001A107E3400D0120F456CAABEA0045018C9
:100540007E7004AC7A7CB77E1F3C5E6941002660F9
:10055000421E441478FB803BBEA008501B0A3A1B85
:10056000363E343E347CB77E1F3C5E6941002860D5
:10057000221E441478FB801B0A3A9E3400083E3445
:100580003E347CB77E1F3C5E6941002A60051E44F4
:100590001478FB5E44000F7E5002AC5A69370006A7
:1005A0002D326D221B1A400BA0BEA00B408DA9C698
:1005B000CBDAF822297000962990009829600097DC
:1005C0002980008DBE800438046CAA8021BE80087A
:1005D00038057EA0018017BE801038057EA00280FD
:1005E0000DBE802038057EA00380037EA004BE904F
:1005F0000328037E9003BE803F28037E803FBE60B9
:100600000128037E6001BE700228026C770A283E32
:10061000243E243E243E243E247C896C993E443E64
:10062000443E442D420A263E243E243E243E242DB0
:10063000240A373E343E342D327E7F344B793700E6
:100640000229B0008C7C4B6C5529B0008B0A3B2DE5
:10065000327E7F33DC79370080693000A07E7F34C2
:100660004B7937000C6930009E5E34E00F29B000F2
:100670008C0A2B1B243E243E243E243E242D327E15
:100680007F33DC793700820A2A3E243E243E243E12
:100690002429B000990A3B2D327E7F344B793700F4
:1006A000066930009C7E7F344B7937000869300042
:1006B0009A7E0F344B7930000A227F607401121346
:1006C000DE293600F5292600A3291600A4BE200243
:1006D00028037E2002BE104028037E10407E340096
:1006E000047CB260053E341478FB7C070A317E2F0F
:1006F00033E4793200127C73AC700A211215297C24
:10070000270A327E2F33E4793200147C73AC7029CF
:100710002600F60A22AD320A218D327D437C73AC6D
:10072000700A211215297CA77C2A7CB92CABBEA0AB
:100730000C50037EA00CBE200C50037E200C0A201F
:100740000A311215297DE30A3A0B34AD3E0B34BE53
:1007500034020040047E3401FF294600F77E500237
:10076000AC450AF2ADFE2D2F0B24BE24020040043E
:100770007E2401FF0A137E7F33E47917000A1E24CA
:100780007C456C551E342D327E0F33E47930000CDD
:100790000A3A7E0F33E47930002222A9D6CB6930A1
:1007A00000047E2F3C5E79320004693000067E2F03
:1007B0003C5E79320006693000087E2F3C5E79325B
:1007C00000087E0B707C476C55297000010A372D9C
:1007D000327E2F3C5E7932000C297000020A377E8F
:1007E0000F3C5E7930000E6D117E1F3C5E1B1A10AF
:1007F0007E3400E0120F45A9C6CB220237F9FFFF75
:100800007F21A9D6CB693000047E7F3C5E7937001A
:1008100004693000087E7F3C5E793700066930004D
:10082000067E7F3C5E79370008297000017C476CAA
:10083000557E0B700A372D327E7F3C5E7937000C77
:10084000297000020A371B347E7F3C5E7937000A2C
:100850006930000A7E7F3C5E7937000E6930000CFB
:100860007E7F3C5E793700106930000E7E7F3C5EF3
:1008700079370012297000037C276C337E1F3C5EA1
:100880001B1A107E3400A0120F457E1F3C5E6911BA
:10089000001A7A2B306911001C39320001691100ED
:1008A000167912000269110018791200046911000A
:1008B00022791200066911002479120008691100DA
:1008C0001E7912000A693100207932000CA9C6CBCA
:1008D00022CA3B7C577C4B5E4003693000045E605B
:1008E0003F6CAA0A4A69F0000A69E000082DF47E0C
:1008F0007BB00AFB7D4F7C896C997DF40AEA69D054
:10090000000E69C0000C2DDE7E6BB00A4B2D4F7EB1
:10091000D028ACD57EF002ACFA7DD72DD67EF0F093
:10092000ACF42DD77E7F34472DFD7947018C0BA089
:10093000BEA00E78AE6CAA7E9002AC9A69F000025E
:100940000B0AE02DF40B7A407ED028ACD57EF00265
:10095000ACFA7DD72DD67EF0F0ACF42DD77E7F3467
:10096000472DFD794701800BA0BEA00440C97E90B1
:10097000F0AC947428ACB57DF52DF47E2F34472D62
:100980005F79320188693000067E30F0AC3474281B
:10099000AC5B2D217E0F34472D127930018ADA3B72
:1009A000222960000B0A46296000040A262D247CB7
:1009B0006529B00006BCB628027C6B2970000529A9
:1009C000B00007BCB728027C7B6CAA6D227E900227
:1009D000AC9A7E7F33DC2DF4792700020BA0BEA0F9
:1009E0002378EA6CAA80550A2A7F702DF2295700D5
:1009F0004CBE50235023294700B40AD47D4D7C8936
:100A00006C997DD47E9002AC957E7F33DC2DF40B07
:100A1000F50B7A404D4D1B7A400A4A7F702DF42920
:100A200047004C0AD47E9002AC9A7E7F33DC2DF4D2
:100A30000BF50B7A404D4D1B7A400BA0BC6A38A7D2
:100A40006CAA801D0A2A7F702DF22967006F0A4662
:100A50007E5002AC5A7E7F33DC2DF2794700480B82
:100A6000A0BC7A38DF227C7B7E7F33E46947000CB0
:100A70006C883E446907000A695700021E541E54E0
:100A80001E541E541E541E541E545E5400037E14E5
:100A900000047002419B3E141478FB7CA30ADAAD7B
:100AA000D07DCD6D117917008C7CB7700241B41EDA
:100AB000D41478FBBED40100380241C27ED40100B8
:100AC00041CEBED40010400241CE7ED400107D3D08
:100AD00012126A0A1B7E1F33E4791100907E1F33C5
:100AE000E479D1008E7E7F33E469370008AD3C8D18
:100AF0003D793700927E1400067E1F33E4791100A1
:100B0000947D249D200A3AAD327E0F33E479300083
:100B1000967E3400107E0F33E479300098227C5B9F
:100B20007E0F33E46940002230016B6DFF7D3FBED4
:100B30005010282E7E54FFFF795000429E50106CBA
:100B4000AA80117EE400017CBA60053EE41478FBC3
:100B50002D3E0BA0BC5A38EB7E6F33E47936004053
:100B6000802579F000406CAA80117EF400017CBAE7
:100B700060053EF41478FB2D3F0BA0BC5A38EB7E89
:100B80007F33E4793700427D342E34000C7E7F338E
:100B9000E479370016226D33793000407E0F33E45C
:100BA000793000427E1F33E479410016227C177CA5
:100BB0003B6D337E2F33E4793200407E2F33E4796E
:100BC0003200427E7F33E4695700127CAB69370004
:100BD000021E341E341E341E341E341E341E345E77
:100BE0003400037CB77E44000460053E441478FB67
:100BF0007C290A220A3A1215290A232D327CB77C55
:100C0000616C770A0B1E042D037907000C7C73AC12
:100C1000720A2A1215297E0F33E4793000166D33DB
:100C20007E0F33E47930002222A9D6CB693000064A
:100C30007E2F3C5E79320004693000087E2F3C5ED6
:100C400079320008297000027C476C552970000336
:100C50000A372D327E2F3C5E7932000C7E0B707C81
:100C600047297000010A372D327E2F3C5E79320011
:100C70000A297000040A377E2F3C5E7932000E2963
:100C8000B0000554017C2B6C337E1F3C5E1B1A1098
:100C90007E3400C0120F45A9C6CB22CA797CAB5E58
:100CA000A0036C777E5002AC5769D0000E69C0007B
:100CB0000C2DD2296600010AF67D4F7C896C997D46
:100CC000F47E6B600A462D4F7EF0F0ACFA2D277E45
:100CD0007F34472DF2794702540B70BE700E40C42A
:100CE000694000047EF0F0ACFA7E1F34472D37795E
:100CF0004102506930000674F0A47E0F34472D1570
:100D000079300252DA7922A9D6CBC22269300004A6
:100D10007E2F3C5E79320004693000067E2F3C5EF7
:100D200079320006693000087E2F3C5E7932000877
:100D30007E0B707C476C55297000010A372D327E7E
:100D40002F3C5E7932000C297000020A377E2F3C5E
:100D50005E7932000E29B0000354010A5B7CABE4DB
:100D60007E1F3C5E1B1A506930000A120F45A9C64F
:100D7000CB22693000AE7E2F33E479320006295051
:100D800000A60A557D231E249D257E2F33E479225B
:100D900000187D231E241B257E2F33E47922003882
:100DA000692000FD1E349D329E34000A7E2F33E4FC
:100DB00079320026297000A70A377E2F33E4793272
:100DC000001A2970000B0A27297000042D327E2F8B
:100DD00033E4793200080209A1CA3BF5257F417F3F
:100DE00030E5267E080027120120E525BEB0232825
:100DF000037525236CAA80360A3A2D397D287E1B7F
:100E0000B0BEB127400D74230A4A7F032D147A0B1C
:100E1000B080197E1BB00A3B2E35297A71827A6127
:100E200083E4930A4A7F132D347A1BB00BA0E52587
:100E3000BCBA38C4DA3B22A9D6CB692000047E2F85
:100E40003C5E79220004692000087E2F3C5E7922F6
:100E500000087E0B500A557CABE4295000010A259E
:100E60002D257E2F3C5E7922000C295000020A2598
:100E70007E0F3C5E7920000E7E0F3C5E7930000ACA
:100E80006D117E1F3C5E1B1A107E340040120F4510
:100E9000A9C6CB227CAB7E3400017E0F344B793067
:100EA000000EC221E47AB334465EA0030A1A3E144F
:100EB0007E1F33DC1B1A107E0F33DC2E1400840BD4
:100EC0000A304E70201B0A3074011213567E0F3404
:100ED0004B0B0A304E700C1B0A30A9D3CD7E0F3459
:100EE0004B0B150B0A304E70011B0A30227F10A9E4
:100EF000D6CB691100027E2F3C5E79120004691185
:100F000000047E2F3C5E79120006691100067E2FD8
:100F10003C5E791200087E1B300A037E140100AD8E
:100F200010297100010A372D317E0F3C5E793000A7
:100F30000C6D117E1F3C5E1B1A107E340060120F78
:100F400045A9C6CB22A9D7CB7D234E50017E0F3CAD
:100F50005E0B0A304D321B0A30801E7E0F3C5E0B4A
:100F60000A307D235E240008BE240008780BA9D730
:100F7000CB4E70041B0A30D2227E0F3C5E0B0A302F
:100F80007D235E248000BE24800078CF4E60401B0D
:100F90000A306D117E1F3C5E1B1A1022CA3BF525DC
:100FA0007F417F30E5267E0800271201206CAA8051
:100FB000360A3A2D397D287E1BB0BEB128400D740B
:100FC0001C0A4A7F032D147A0BB080197E1BB00ACD
:100FD0003B2E352B7A71827A6183E4930A4A7F1320
:100FE0002D347A1BB00BA0E525BCBA38C4DA3B22FD
:100FF0000563312018130F0D0C0A090807060504B4
:10100000CAF87DE27DD37CFBBE300128067EF40069
:1010100010800FBE300028067EF4000880047EF4A5
:1010200000047D1F6D006D337E2400101215C87FF3
:10103000017D3D6D2212155B7D1E1215757404AC89
:10104000BF7E0F33E42D157930008279200080DADD
:10105000F822CA7BCA6BCA5BCA4BCA2BCA1BCA0B13
:10106000C0D0C083C082D2217E0F344B0B0A307CAB
:10107000577A5334464E700C1B0A30C2C66D337E0D
:101080000F344B7930000E12129E1273FFD082D0B3
:1010900083D0D0DA0BDA1BDA2BDA4BDA5BDA6BDAD5
:1010A0007B327403121356A9D1C47E0F33DC2E1485
:1010B00000840B0A304E70201B0A307E1400017E23
:1010C0001F33DC1B1A107E0F33E40B160B0A304E55
:1010D00070011B0A30C214E47AB333F47E1F33DC90
:1010E0000B1A305E34000178F374020213567C6BE5
:1010F0006CAA80177E9002AC9A7E7F34472DF40B49
:101100007A207F702DF41B7A200BA0BC7A38E56C16
:10111000AA80207E5002AC5A7E7F34472DF2692788
:1011200000380AF70A4A2D4F3E447F702DF41B7A8F
:10113000200BA0BC6A38DC22CA797CAB5EA0036CB1
:10114000777E5002AC577F602DD2296600010AF6E7
:101150007D4F7C896C997DF47E6B600A462D4F7EB5
:10116000F0F0ACFA2D277E7F34472DF279470254F8
:101170000B70BE700E40CADA7922295000F5AC5BC4
:101180007E0F33E46930000C0A563E54BE24020040
:1011900040047E2401FFBD25281F2E14000C6C6620
:1011A0001B0A301E247C456C557E0F33E42E140040
:1011B0000C0B0A304D321B0A30227C6B6CAA7E501D
:1011C00028AC577E9002AC9A2D427E50F0AC562D42
:1011D000247E7F34472DF26927018C6C440A4A7FB4
:1011E000602DD47E6BB07C8B6C994D247927018C5B
:1011F0000BA0BEA00E40C7227C6B6CAA7E5028AC10
:10120000577E9002AC9A2D427E50F0AC562D247E33
:101210007F34472DF26927018C6C550A4A7F602D77
:10122000D47E6BB00A4B4D247927018C0BA0BEA055
:101230000E40C922A9D6CB543F5E701F7C2B6C3365
:101240003E143E142E1400050A373E343E343E341C
:101250003E343E342D317E0F3C5E793000027E0FED
:101260003C5E79200014A9C6CB227D236C667E30BB
:1012700002AC362E1417167A31827A2183E4930A4F
:101280001BBD1228070B60BE601440E27E7002ACEA
:10129000672E3417177A71827A6183E493227E0F66
:1012A00033DC2E1400840B0A305E70DF1B0A3074AE
:1012B000031213567E1400037E1F33DC1B1A107EAC
:1012C0001F33DC0B1A305E34000178F3E40213564E
:1012D0002E3404007E0F33E4793000607E34040045
:1012E0009D327E0F33E4793000627E3400017E0F40
:1012F00033E4793000640A3B7E0F33E479300066D2
:10130000227CA5BE34000028100A1B3E147D237CDD
:10131000456C552D210A3A80080A2B3E247C676CC7
:10132000772D327E0F344B79300004227CA77E1F4C
:1013300033DC6941008A5E44100F0A1A3E143E14E1
:101340003E143E140A5BC42354E07CABE42D514DA3
:10135000457941008A227E0F33DC693000845E705B
:10136000E71BB1680C14680C0BB178054E70108047
:10137000034E700879300084227E34001F7E0F33C4
:10138000E479300004A9D2CD7E0F33E40B0A304E4D
:1013900070011B0A3022BEB000280AA9D7CAA9D3FF
:1013A000CBA9D2CB22A9C7CAA9C3CBA9C2CB223011
:1013B000010A54030A3B2E34020080026D337E0F73
:1013C00033E47930003A227E0F33DC6930008A60E2
:1013D000054E601080035E60EF7930008A22BEB057
:1013E000002809A9D6CAD2CDA9D1CB22A9C6CAC282
:1013F000CDA9C1CB227E34000F7E0F33E4793000BB
:1014000004C2C3D2EB220001020304050607080947
:101410000A0B0C0D0E0F10111213141C1D1E1F2091
:1014200021220405060708090A0B0C0D0E0F1011E6
:101430001213141516170001020304050607080EFF
:101440000F1011121314151600010203041C1D1EA7
:101450001F20000102030E0F10111213141516178E
:1014600018030405060708090A0B0C0D0E0F1011CE
:1014700012131415161718191A1B06050403020176
:10148000001C1D1E1F202100000001020304050690
:1014900007081C1D1E1F202122000102030405064F
:1014A0000708090A0B0C0D0E0F1011121314151654
:1014B0001718191A1B000102030405060708090A78
:1014C0000B0C0D0E0F101112131415161718191AF4
:1014D0001B1C1D1E1F20212200010101101C0210D7
:1014E0001C000101040F1C000101061B0F070E1C4C
:1014F0000823150001010A10190B141C0C0F180009
:1015000001010E23150F0D19000101110D14121008
:1015100019131C10141A1015101916231C722315F8
:1015200073231C74231C750E1CC2D57CB430E708D1
:10153000B2D56E24FFFF0B247CB630E712B2D56E15
:1015400034FFFF0B348D326E24FFFF0B2480028D9D
:101550003230D5066E34FFFF0B34227D51AD037D52
:10156000027D21AD052D12AD352D21227D02AD313B
:10157000AD102D21226D0074104D00780B4D227896
:10158000278D317D126D22227D437D326D222F11F8
:101590002D445002A50FBF1040049F100B901478EB
:1015A000ED7F016D227D34227D417D138D247D02EE
:1015B0002F004004BD0440049D040B141478F17DF9
:1015C000237D317D106D0022C2D57CB030E708B29A
:1015D000D59F229F207F027CB430E713B2D59F2293
:1015E0009F217F121215779F229F207F0280031276
:1015F000157730D5069F229F217F12226CAA4D11AC
:10160000681A1E54680E0B38201B18200B350B155A
:101610001B5478F250067E39407A1940226CAA4D4C
:1016200011681E1E54500C7E1B007A190068120BA4
:101630001C0B140B1A001B18000B1D0B151B5478E8
:10164000F2227584017E443FFFE47A49B01B44785E
:10165000F97EF83C68750C00750D00750E02750F6B
:1016600000C20BC20C751F00C215C205C206C2071C
:10167000C20DC20EC216C218756000756100C20F9D
:10168000C210756200C21A756300C21B751B00751B
:101690001C00C21CC21D756400C21EC211751D0053
:1016A000751E64C21FC220756500D208D209D20A15
:1016B000D221C213D2147E0400FF7E1417A70B0A96
:1016C000405D44681A692000020B0E0B44800A7EBC
:1016D0000BB07A29B00B240B0C1B4478F280DF028C
:1016E00025FB0000004700CB01000010FDC7FB7E7A
:1016F000FBFB01BB0C9E19002145000E010F0210DF
:1017000003110412051306140715081609170A1801
:101710000B190C1A0D1BDF22C321A920941F811E57
:10172000701D621C551B4A1A4119381831172B16A7
:10173000251521141C13191216111310110F100E58
:10174000CAF87F20800A7E1BF07A2BF00B340B54F2
:1017500069FFFFFC7DEF1BE479EFFFFC4DFF78E6AE
:101760007F10DAF8227D437F1080071B447A0BB08C
:101770000B144D4478F522320119010002F804E7F8
:1017800005CE06C207B508FF00010200FF010200F6
:1017900001FF02000102FF7D23BE24000048037DFB
:1017A00032226D339D32220004348C000000000090
:1017B0000133FF01000124500100013B2E00000213
:1017C0003B81000000023B83000000013B850000DC
:1017D00001344F0000013A62FF00013C6400000147
:1017E0003C6500000235BC0000000135EC00000142
:1017F00036650000013666000001366700003C389F
:10180000EC000000000000000000000000000000EC
:1018100000000000000000000000000000000000C8
:1018200000000000000000000000000000000000B8
:10183000000000000000000000000000000001396E
:1018400064FF000239650000000139E0010002393F
:10185000E30000000131B900000131BA000001319C
:10186000BB00000133DB00000139E70100013A61F0
:101870000000013C6600000633F930000000000063
:1018800000013C446400013C456400023C46000009
:1018900000013C590000013C5A0000013C5B000083
:1018A000013C5C0000013C5D00000100660000019D
:1018B00002D700000102D8FF000102DB0000020293
:1018C000FC00000001033A0000043AD300000000CD
:1018D0000001385301002838541E02314020130201
:1018E0002D40202C0237402032023240201E02318F
:1018F00040201E023140201E023140201E02314095
:1019000020000138A400000138A500001C38A650B2
:1019100050505050505050505050505050505050C7
:101920005050505050505050505050002338C250DA
:1019300050505050505050505050505050505050A7
:101940005050505050505050505050505050505097
:101950005050000138E50000013C530000013C54A8
:101960000000023C55000000013C576400013C5857
:101970000000013C680000013C620000013C630083
:1019800000013C480000022A1D2A2300012DE30229
:1019900000012E0C00000434470000500000043405
:1019A0004B00006400000433DC00006C00000433D2
:1019B000E0000068C0000433E40000680000043365
:1019C000F50000400000043C5E00006000000003E1
:1019D000E8000C02260320000A01AE02BC000C0045
:1019E000C801F4000C003C012C000A003C0064001B
:1019F00006003C005000060000000E1C2300000002
:101A0000000000000000000000000000000E1C2389
:101A100004B00050032000410000003212472012A1
:101A2000B4C4121CA5121AA2121A6D121B38021A83
:101A300031121A427EB3298212A3E574017AB339B6
:101A4000EB2212A4F474017AB339E722121AD412E9
:101A500026B0124796124720121AD4121AA212C1A7
:101A600080121A6D121B38121B68021A3112749EF2
:101A7000121ABA021A767E3400036D22021A7F7D92
:101A8000437EA3377ABEA00550167E7004AC7A5907
:101A900043377D5923377F7CBA047AB3377AC32220
:101AA000D322121D24121CF6021AAB30180B12C1DD
:101AB000F31268D2126B25C218226D337E240648B9
:101AC000121A7F7E3400017E2406A8021A7F740158
:101AD0007AB33B347E340DAC6D227A2703EF7A372C
:101AE00003F122CAF87EF33B34BEF005780B740193
:101AF0007AB33B3412000A8036BEF0047808121A1A
:101B0000CE121D1F8029BEF006780E121ACE124684
:101B10003D121CF112C2058016BEF0077817121A8A
:101B2000CE121D6C50FB120066121AAB121B3874D9
:101B3000027AB33B34DAF822E47AB3377C7AB337EB
:101B40007B1273A5B401047401800274037AB33765
:101B50007C2212C1801286097A373C55121AD4129F
:101B60001AA2121B38021B68740C7AB33592E47AFD
:101B7000B335937E083594740C7E34000A121765D1
:101B80007E08359E12C1D17E0835BF7E34000A1210
:101B900017656D337A3735D674FF7AB335BE22CAEE
:101BA0003B121D6C50FB7EF329827CBF126BA91285
:101BB0006E437EB32992F5297EC329931274AC1229
:101BC0001CA57EB33A8AB4010F12434F7EB315A110
:101BD0007006121B38C381A212C14C3E34CA397E32
:101BE0001806487E0804601217401BFD12C14C3EC7
:101BF00034CA397E1806A87E0804001217401BFD5F
:101C00007EB33A8AB403071293527A373B77740152
:101C10007AB315A0121AA21293C2E41213DE121B99
:101C2000387E0804607A0D2A7E1805E07EB329E527
:101C30001291107E0804007A0D2A7E1805807EB36A
:101C4000244A1291107ED329927EE32993E5297AC2
:101C5000B329927AC329937E34071A7E040CD87D67
:101C6000207D107EB328E0122AB37AD329927AE33A
:101C700029937CBF126AAD129F697EB33C58047AE7
:101C8000B33C587E733C58BE70FA280674647AB32D
:101C90003C587EB315A060097EB315A16003D380C4
:101CA00001C3DA3B227EB338E5B401447E7338A524
:101CB000BE7338A4683A7EB33853B4010F12B4D659
:101CC0007005121F933829E47AB338537EB338A5D0
:101CD0001241F8121B38121F932806121D1F121CE6
:101CE000F112C19F7E7338A57A7338A47AB338E5B0
:101CF00022E47AB329917EB329917022121F8C12AB
:101D00001D6C50FB12C1F31268D21200662018033A
:101D1000126B2574027AB32991E47AB315A122E4F7
:101D20007AB329757EB329757041121D6C50FBE49E
:101D30006C776C66121F9C7E0806487E1F06407EEC
:101D4000B329E512906D74017E70017E6001121F4F
:101D50009C7E0806A87E1F06407EB3244A12906D22
:101D600074027AB32975E47AB315A0227EB3377C66
:101D7000B40102C322D322CA3B7EB33A88B4010223
:101D80008002C1B56CCC6CDD7EE0107EF032128F2B
:101D90006E7DF3121D6C50FB74017AB33BD5122E8D
:101DA000D91213C712001E740A12275012C1EB7EFB
:101DB000E729807AE5267EB3296DF52574047AB388
:101DC000296D7EE729805EE4003F7AE729807EB3B3
:101DD000296D12917F7C7B740AAC7B12579C7D230A
:101DE0007D3F1229D2AD327A37297A12220E128F14
:101DF0007EC196121F8C301602C19C7CBE126C9E56
:101E00001220FF800F8007121F0DE4121F45209340
:101E1000F6121EC33021F7D201121EF3E41213DEB4
:101E20000BC01287EC800F8007121F0DE4121F45B4
:101E30002093F6121EC3121EB878033020F2128FC0
:101E4000967EA33BD44CAA780674017AB33BD54C5A
:101E5000AA680B7EB33AB37005E47AB33BD4121E82
:101E6000B878187EB33BD46012E47AB33BD47AB32B
:101E7000287A7AB3287B7ED0018021121EB868169A
:101E80007EB33BD47010A9D0CEA9D4C97ED001E4D2
:101E90007AB33A888006BCFC2802A1F3E47AB3291D
:101EA000777E35267A372980E5257AB3296D4CDD92
:101EB0006803121B38DA3B227E7334460A375E34DD
:101EC000000222302105C201121EF3A9D1CDA9C5FD
:101ED000EA302003202114121F0DA9D0CEA9C4C9B5
:101EE0007402121F45A9D0CEA9D4C9A9C1CDD2016F
:101EF000021EF330010612C22F0213961287A1C2EE
:101F000002021F04A9D0CEA202A991C92274817A2B
:101F1000B33C5322801D121F0D1283416805C2017C
:101F2000121EF37EB3377CBEB0026818202015E481
:101F3000121F452093E0121F0DA9D1CDA9C5EA7447
:101F400002021F45227CAB7EB33C53B481384CAABD
:101F50007805A9D0878029BEA001780FC2AFA9D08B
:101F6000CEA9C7C9A9D187D2AF8015BEA002781665
:101F7000C2AF209309A9D0CEA9D7C9A9D187D2AF22
:101F8000000000000000E47AB33C53227E3403E8F2
:101F9000021AD87E373C55BE340000227C967CA7BE
:101FA000122ED97CBA1213C7740A1227507CB912A8
:101FB000001E021FB5CA3B7EE328E77EF3296D743D
:101FC000017AB3296D12220E12C1EB12C14C7E1799
:101FD00029716D001217657ED007121F8C6CCC80A2
:101FE000197E3400017CBD60053E341478FB7C67AB
:101FF00012C1B34C767A29700BC01221C20A3CBDC3
:102000003248DE1220EE3021FD1227F37EB328E69F
:102010007C7E1291776CCC80297402ACBC49350669
:1020200048BE34154050197E3400017CBD60053E29
:10203000341478FB7CB764FF12C1B35C7B7A2970DF
:102040000BC01221C20A3CBD3248CE1BD0BED0000C
:10205000588812211174021227E312206C740212A4
:10206000001E7AF3296D12220EDA3B22CA797CFB1C
:102070007E0824021272537EA328E67E7328E76C42
:10208000EE801D0A2E0962294F0A261271D07C6B40
:10209000BE601C50090A2E1220E419B224020BE083
:1020A000BC7E38DF6CEE801A0A2E0962292CBE60D5
:1020B00023500D0A1E0A272D211220E419B2241ED6
:1020C0000BE0BCAE38E26CEE7E300EAC3E2E14243B
:1020D000026D007CBF7C7E1211BA0BE0BEE00540B1
:1020E000E7DA79222E2729717E29B00A2622740286
:1020F00012001E7EB3296F12206C740212001E742F
:10210000057E709B12132C1221937EB3296F020E51
:1021100094CAD8CA797EF00A74017AB3296D12C1C3
:102120004C7CE78061121F8C1220EE3021FD1227BB
:10213000F312916F6CDD80417E5002AC5D49320636
:1021400048BE34147850140A1D2E1729717E19B018
:10215000BEB0002822147A19B0801CBE3419282879
:10216000140A3D2E3729717E39B0BEB0FF680804CD
:102170007A39B080021BE00BD01221C20A3DBD3279
:1021800048B64CEE68087CAF1BF04CAA7897DA7919
:10219000DAD8226CAA80220A3A0973294F2E341603
:1021A000FA126BBE7C7B0A477E5002AC5A7E0F331C
:1021B000DC2D12794000480BA07E6328E7BC6A380A
:1021C000D6227E7328E70A377E5328E60A252D2378
:1021D000227C9B7ED72980BE90012802E4227CB914
:1021E0001273984C99780C7EC729805EC4003F7AA0
:1021F000C7298012220E7AD729807E73296D124C4E
:10220000B5E47E50011213011220FF7401227E08F2
:1022100028E00205B4E50D6052E50D30E006530DEF
:10222000FE12220EE50D30E114530DFD7EB33B741A
:10223000700474018001E41227E31271DDE50D30B2
:10224000E229530DFBE47AB33B757EB33B74700A0D
:10225000740112001E1230878007E412001E123033
:1022600069122C427EB3296F02206C22300B3BC2D4
:102270000B121AE37E733B357A7328C07E733B36AC
:102280007A7329907E733B367A7329747EB33B3719
:1022900060187E3400021223C37E3400011223C36F
:1022A0006D331223C3E47AB33B371222150222B0F6
:1022B000E50C700261C2E50C30E010530CFE1245D3
:1022C0002E1268667E0828E01209A1E50C30E106AE
:1022D000530CFD124211E50C30E232530CFB7EB37D
:1022E000298560097E0828E01206BA800B7EB32992
:1022F000D87E7329D7120BAD7E7329852E70FF927D
:1023000001906051E4939EB328EA120B1EE50C3055
:10231000E331530CF77E733B627A73298212411DBD
:1023200012699C7E733B63BE7329D568067A732954
:10233000D5D2153015071245F9E4120A66121A4271
:1023400012A3E1E50C30E413530CEF7E433B647EB3
:10235000500AAC457D3274FA1212D0E50C30E653C7
:10236000530CBF7E733B50BE7007280674077AB3C8
:102370003B50A9D5CB740E1200467C7B5E700F7E5D
:10238000633B500A262E2400033E243E243E243E76
:10239000247C654C76740E1225A91200461225F491
:1023A0007E733B537A7329877E733B527A732992EB
:1023B00012C205E50C30E50A530CDF7EB33B3A024E
:1023C00042CB22CAD8CA797DD3906050E4937CFB7B
:1023D000906051E4937C8B0A380ACF2DC30BC47DE7
:1023E0003C7CE7121F8CA9D0C4A9D5CB740712007E
:1023F000467C8B74077E700F1225F17E5400787E28
:102400001F33E0795100067E5400807E1F33E0794F
:102410005100087E54000C7E1F33E079510010BE3D
:10242000D40002780712258E4401801C12258E44A8
:10243000081B1A504DDD7E1F33E078071225925499
:10244000FB800512259244041B1A507E1F33DC6961
:10245000E10084695100907DF52E3400905EA0F675
:102460001B1A507EB33A94BEB0064003B4FF0E125E
:10247000259D54E612259A4E5401A4800C12259DE8
:102480005E54FEE612259A44A41B1A50BED40002E4
:10249000782112258E1227EB12258E44501B1A50DC
:1024A0007E34000212264B12268D12266A7A3734A9
:1024B00090A14A6CDDA1444CDD78046C99802BBC62
:1024C000FD40120ACD099C292BBE902340037E902B
:1024D000220B9080150A3F0ACD9DC3099C294EBE50
:1024E000901C40037E901B2E902412258E1227EB09
:1024F0000AC93EC43EC43EC43EC412258E4D5C1B78
:102500001A50E50E6007E50EBEB06428067E340062
:10251000028004E50E0A3B12264B12268DBED40023
:1025200001781012268D12266A7402ACBD5935341A
:1025300092800F12266A0A5E0A2D2D253E245932FA
:1025400034920BD0BCED280281B7A9D5CB74077C9F
:10255000781225F1A9C0C47E1F33DC79E100847EA6
:102560001F33DC79F100906D337E0F33E07930005A
:10257000067E0F33E0793000087E0F33E0793000BB
:10258000107E0F33E07930000EDA79DAD8227E1F20
:1025900033E02E34000E0B1A50221B1A507E1F33CC
:1025A000DC2E3400840B1A5022F5FD7A71FE22A92C
:1025B000D5CB74027E703F1225A9740F1200467CA1
:1025C0007B740F5E70FE1225A9740C120046547FB6
:1025D0006808740C7E70F81225A97E7070740E1253
:1025E00025A974071200467C7B5E70FB74070225E8
:1025F000F11225A975FDFFA9C5CB221226B01265DF
:10260000CF124796121A1C7EB33A8A24FD68090B32
:10261000B178F4124AE280EF1230C980EA6D337E5D
:102620000800257E240012126648E53520E71BA924
:10263000D5CB74037E71281225A9740B7E713012DC
:1026400025A9740C7E71311225F1227D2380127E22
:102650003004800574FA1227507C231B30A5BA0081
:10266000F37D321B244D3378E6227E0F33E0693050
:10267000000A7D236D336910000C6D002F10740764
:102680001E341E2450034E60801478F4227E3400E1
:10269000017E0F33E0793000047E0F33E0693000B3
:1026A000125E34000168F27E34000179300012229B
:1026B000E412BCCA12BD69121F8C12BDC71225AF2D
:1026C00012BC7812BD8012000912BD8C1273431225
:1026D000BD9CD2AF12BCFB12679C12261D12278C28
:1026E0007E0803F3125F98906050E493CAB890603C
:1026F00051E4937C7B7E24FFFFDAB802123424ABD2
:10270000681024EF682024DE682E24DE783B7405F0
:1027100080397EB333FFB405367E34000112264B78
:1027200012BC820227CC7EB333FFB405227E340074
:102730000112264B75E9FF227EB333FFB405107EEC
:1027400034000112264B0227C674017AB333FF22EC
:102750007CAB800E7E70038001007C671B70A5BE81
:1027600000F77C6A1BA0A5BE00EA227C6BA9D5CB32
:10277000740F1225A97A61FC1225F412278CD2005D
:102780001287CA12C22F1213DE021396CAF8A2AF22
:10279000E4337CFBD2001287AFA9D0CBC2AFA9D063
:1027A0009E759D00A9D09E759C20A9D09EA9D49EFF
:1027B000A9D0CD7441122750A9D09EA9D79E2EF042
:1027C000FF92AFDAF82275E76B0227CCE47E34D7AC
:1027D000FC7E2400FF7A1BB07E34D7FD7A1BB075D7
:1027E000E9FF2212001E7EB3296F225E54000F1BE8
:1027F0001A5022740212001E7E080648227C7BBEFC
:102800007034380201F2A5BF35057EB3298322BE9C
:1028100070366804A5BF37197E25087D120B147A1F
:1028200015082E27348A7E29B0A5BF3703751A36BE
:1028300022BE70386804A5BF39197EA33B547CBA08
:10284000047AB33B54A5BF3903751A380A3A09B361
:10285000299422BE703A6804A5BF3B197EA33B565B
:102860007CBA047AB33B56A5BF3B03751A3A0A3AC1
:1028700009B329B722A5BFFB057EB3298522A5BFD1
:102880005E227E0F33DC6940008E0A381229D45E46
:102890003400017CB7030354C00A385E3400034C93
:1028A000B7448022BE703C6804A5BF3D197EA33B9F
:1028B000587CBA047AB33B58A5BF3D03751A3C0A4D
:1028C0003A09B328ED22BE703E6804A5BF3F197EC9
:1028D000A33B5A7CBA047AB33B5AA5BF3F03751A8F
:1028E0003E0A3A09B3291022BE7040400CBE704D1A
:1028F00038070A3709B33B3022BE704E6804A5BFC3
:102900004F1C7EA33B757CBA047AB33B75A5BF4FC1
:1029100003751A4E0A3A2E3734887E39B022BE70BB
:10292000516804A5BF52267EF460006DEE2EE400CF
:10293000FF7EB33B800A1B6D002F077E0B60047A7D
:10294000B33B80A5BF5203751A517CB622BE70609E
:10295000400CBE706C38070A3709B3039322A5BF39
:102960006D03E50E22BE70F46804A5BFF5167E2542
:102970000A7D120B147A150A09B23490A5BFF5032B
:10298000751AF422BE70F06804A5BFF1087C172EFA
:102990001020A5E722BE70F26804A5BFF31C7E25B7
:1029A000103E247E0F348C2D120B0A20A5BFF20599
:1029B0000A347CB7227D327CB722A5BFF603E50F2F
:1029C00022A5BFF703746422A5BFFD02E422E4221E
:1029D0001E341E341E341E341E3422CA69CAF81234
:1029E000C2177C4B906050E4937C5B6D117EB329E1
:1029F000920A0B9E04004012C15B3E047EB302D8D3
:102A0000BCBA780241AEBEA00A50047D3180130AE0
:102A1000EA9EE4000A7EF404CCADFE7D3F1229D08C
:102A20001E340AE47DF38DFE7D3F7CB41EB00AEBBC
:102A30006DFF9DF3ADFE7D4F6CFF80157EF41000A1
:102A40009DF42DF07ED002ACDF59F634000BF02D52
:102A500043BC4F38E7BEA01450047D3180110A0AF0
:102A60009E0400147E140333AD107D311229D00A68
:102A7000057D138D107D317C451E400A046D119D2E
:102A800013AD107D416C44801D7E1410009D147E9A
:102A90001004AC14591002877D142E141000591024
:102AA00002890B402D43BC5438DF7AA302D8DAF8F0
:102AB000DA6922CAD8CA797CFB7DA07DB17DD27D3E
:102AC000C312A9FD50657EB329821229DB6CEE800A
:102AD0000D122BB1122B977E343400122BBE7E7355
:102AE00028E2BC7E38EB6CEE803B122BB16CDD80B3
:102AF000227E733B45BC7D74042808ACBE49350278
:102B0000878006ACBE493502897402ACBD593534A4
:102B1000500BD07E7328E3BC7D38D6122B977E34C1
:102B20003450122BBEBCFE38C1802C7AF324027EB6
:102B30007328E37A732403E47AB3240574067AB322
:102B400024047AB724067AB7240A7E0824027E7306
:102B500029920A37120E377AA7240AE47AB324049A
:102B6000122BA87AF324027EB32990700FE47AB373
:102B700024057AB724067E340020801074017AB3CD
:102B800024057AC724067AD724086D33126FB01251
:102B90000D07DA79DAD822740C7AB3240474017A36
:102BA000B32402E47AB324057E7328E17A73240304
:102BB000227E7328E1AC7E3E347D9B2D93227A37B2
:102BC00024067D397A3724087A37240A7E082402BD
:102BD00012079B0BE0227E0824027E34000CE412D4
:102BE0001765122BA8129FC3A9D1CB126FA87A37F1
:102BF00024067E1F33F57A3724087E1F12967A3713
:102C0000240A6D33126FB0020D0712A166122BD683
:102C100002006612C20EB40114CA397E183B707EDF
:102C20000824481217401BFD1230698012CA397EF1
:102C3000183B707E0829E31217401BFD12308702F3
:102C40002C427A1F296F7A0F296B22CAF87C6BA558
:102C5000BE00097CB7127278D20BC1CDA5BE013D72
:102C60007A733B31A5BFAD02802FA5BFAE04D20C55
:102C7000C1CDA5BFAA0512C1FC801EA5BFAB0A7EAF
:102C80003405207A37348A8010A5BFAC028002C197
:102C9000CD7E3404C07A37348A6D33A149BE6004D6
:102CA0004020BE6008381B122ED0A5BE07076D332A
:102CB0007A350AC1CDA5BE08028002C1CD12006ED0
:102CC000C1CDA5BE0A09430C207A733B3AC1CDA5FC
:102CD000BE0B08122ED0123FF9C1CDBE601B4007BB
:102CE000BE601C3802C165BE601E400DBE60233848
:102CF00008122ED2430C40C1CDBE6015401ABE60F2
:102D0000183815122ED2D20BA5BE15028002C1CDE5
:102D100074077AB33B34C1CDA5BE1907E47AB33B3F
:102D200049C1CDBE60244007BE602C3802C165A5F4
:102D3000BE2D1B122ED2200C02C1CD7E633B5C7CCB
:102D4000466C550A372D323E347A3508C1CDBE6007
:102D50002F400ABE60333805430C08C165A5BE3458
:102D60000F430C10BE70643802C1657E7064C1658B
:102D7000BE60386804A5BE3921430C017EF33B5583
:102D80007CBF047AB33B550A2F19722994A5BE392A
:102D9000028002C1CD751A38C1CDBE603A6804A563
:102DA000BE3B21430C027EF33B577CBF047AB33B0E
:102DB000570A2F197229B7A5BE3B028002C1CD75F3
:102DC0001A3AC1CDA5BEFB09430C047A732985C10B
:102DD000CDA5BE50067A733B80C1CDBE603C680471
:102DE000A5BE3D21430C017EF33B597CBF047AB361
:102DF0003B590A2F197228EDA5BE3D028002C1CDB4
:102E0000751A3CC1CDBE603E6804A5BE3F21430C8F
:102E1000017EF33B5B7CBF047AB33B5B0A2F1972E4
:102E20002910A5BE3F028002C1CD751A3EC1CDBE9C
:102E30006040400DBE60423808122ED2750D0180F0
:102E40000AA5BE430B122ED2750D02122C13807DE3
:102E5000A5BE4408122ED212302F8071BE60456884
:102E600004A5BE4605122ED28063BE604E6804A53E
:102E7000BE4F20430D047EF33B767CBF047AB33B08
:102E8000760A2F2E2734887A2970A5BE4F3F751AEF
:102E90004E803AA5BE6D057A710E8031BE60F0405D
:102EA00025BE60F338207C162E10207CB7A5F7A530
:102EB000BEF31A7E15127E05103E047E1F348C2D43
:102EC000301B1A108007A5BEF6037A710FDAF822BC
:102ED000D20B0A2619723B30227AB329737014126E
:102EE0003087122C427E1805E07A1F06407E1804B7
:102EF000608010B40111123069122C42125F857E7D
:102F00001804007A1F064422740112001EE4122ED7
:102F1000D9122F20E412001E7401122ED9022F2084
:102F2000CA3B7ED328E67EC328E77E081E54127271
:102F3000537E081E9A7E3400461217657E081EE0F6
:102F400012C1D17E081EEA7E34000A1217657EF394
:102F5000296F7E18294F7A1D257E181EE07A1D29BB
:102F60007CBD7C7C7E08292C12BF1B6CEE80290A5C
:102F70003E09A3294F0A3A2E3416FA126BBE7CABD7
:102F8000BEA01C50110A3E12C19519B41E547EB346
:102F9000296E19B41E9A0BE0BCCE38D36CEE802299
:102FA0000A3E09A3292CBEA02350150A2E0A3C2D47
:102FB0003212C19519B41E707EB3296E19B41EB6B3
:102FC0000BE0BCDE38DA7EB329707E081EF460099F
:102FD0007E181EE0129B97800312BEF76CEE7E18DF
:102FE0001EF47A1F1E447402ACBE49351EE07A37C7
:102FF0001E487402ACBE49351EEA7A371E4A7E70FE
:103000000EAC7E2E341E546D227A1F1E4C7E700E26
:10301000AC7E2E341E9A7A1F1E507E081E447CBF42
:103020007C7E1208D10BE0BEE00540B2DA3B2212F2
:10303000C20EB40117CA397E1824487E083B7012AC
:1030400017401BFD123090123069801ACA397E1861
:1030500029E37E083B701217401BFD7E3729E97A71
:10306000373488123087022C427E1F244C7E0F2476
:1030700048227AB3297370051230878006B401069E
:10308000123069122C42227E1F29E77E0F29E3228B
:103090007E37244E7A3734882212C1FC1230906D6C
:1030A000337A350A1240A61242781245E874507AF3
:1030B000B33B647E2403207D3274FA1212D0E412F2
:1030C000C1826D337A373C55221230997EB33A8AE9
:1030D000B4037512BDCE121F8C12226CE50F700363
:1030E000E4800274017E700112B4A57EB33B3030DF
:1030F000E7DA121B9F12C14C3E34CA397E18040015
:103100007E0804C01217401BFD7E7328E70A373E75
:1031100034CA397E1804607E0805201217401BFD52
:103120007EB32990B40112128C531259BC12A1A57E
:103130001257BE123159123FFC1240867EB33B300B
:10314000547F7AB33B30808412BFDF02314E7EB3AE
:103150003AD17004E4123B9922127B9212339112FD
:103160007DA5123391129BF41233911256A412339F
:1031700091127E2B129B08123391129A9A1233915C
:10318000023183CA3B7526006CDDE47AB31EBC7E37
:10319000C4003CCAC97E1839287E0838EC12174092
:1031A0001BFD7EF326DE0ACF3EC4CAC97E18255415
:1031B0007E081E441217401BFD6C996CEE41647E24
:1031C000C403FF7ED0FF6CCC80507402ACBC09B548
:1031D0001E44BEB0FF68417CBC1237C6603A740220
:1031E000ACBC09851E450A287402ACBE0985392984
:1031F0000A381292EC7402ACBC09851E440A287489
:1032000002ACBE098539280A389D321217972D1352
:10321000BDC128047DC17CDC0BC0BCFC38ACBED079
:10322000FF683F7E7002AC7D09B31E4409731E45E2
:103230001233D6BE3728CD48297E7002AC7D098373
:103240001E447EA31EBC7E5002AC5A19821E800909
:10325000B31E4519B21E8174FF19B31E440B9012A0
:10326000C2270BE07E8338E7BC8E280221BF7CE9B1
:10327000610C6DDD7525FF6CCC805F7CBC1237C6A0
:1032800060561237B0BEB0FF684E09731E45123744
:10329000E37F510B5AC0BEC4000058056DCC1B5AC9
:1032A000C07EB328DC600E7EC726E4BEC401905801
:1032B000047ED4003C0B5AC0BDCD081C1237B009A7
:1032C000731E451255FBB4010F1237B0F52609D312
:1032D0001E450B5AD07AC1250BC0BCFC389DE52594
:1032E000BEB0FF68257E51267EA31EBC7E7002AC58
:1032F0007A19531E8019D31E817E70FF7E5125746A
:1033000002AC5B19721E4412C2270BE0BEE00A50E9
:1033100002417290609AE4937CAB7402A4CA597E15
:10332000181E807E081E441217401BFD7EF31EBC33
:103330007E0839287E34001474FF121765BEF00031
:1033400028350A3F3E34CA397E181E447E0825546B
:103350001217401BFD0A3F3E34CA397E181E447EB8
:103360000839281217401BFD6CEE80077CBE123F07
:103370005F0BE0BCFE38F57AF338E77AF326DE7EA1
:103380007326DEBE700A2806740A7AB326DEDA3B9C
:1033900022CA796CFF6CEE802E7CBE1237C6602587
:1033A0007E340002CA39AC7E2E3425546D227E3024
:1033B00002AC3F2E1425546D001217401BFD7CBF3C
:1033C000123F5F0BF00BE0127F4138CD7AF326DE1F
:1033D000DA79227E71251237E30B1A3022CA3B6D4F
:1033E000EE7EC328E17ED328E07EB33AB3B4010376
:1033F000E4A10E7EB326DE7002817A7EB3287B6064
:103400000280777EA325547E7325557A71256CEE54
:103410006DFF6CFF0A47801C1237BA081D0BE0BE17
:10342000A00028067CBA1412369F12C1E25803127B
:10343000369C1B44BE44000058DEE5250A4B801A2A
:103440001237BA08210BE0BEA00028067CBA14127D
:10345000369F12C1E2580312369C7D240B247D4214
:103460000A3CBD2348DABEE0035002800D0A2F7DDE
:103470003F121529BE3400280807E47AB33666A146
:103480000E6DDDBEA00028087CBA141233D32DD3F4
:103490000A3D1B340ACABDC3580B7CBA047E712591
:1034A0001233D62DD37E7008802A7E5002AC577D11
:1034B000C22EC417777D1C7A31827A2183E4931A55
:1034C000CBBDCD080F7DC22EC417787D2C1271D4D0
:1034D0001ACB2DEC7C671B70A5BE00CE7CBA1233D4
:1034E000D3121797BE340AF008042EE40028BEE475
:1034F00000FA28047EE400FA7EB336660A3BBD3E3D
:1035000050087D3E7CB77AB336667EB33666DA3BCA
:10351000227CBD7C7E7F04CA3B7F707CE77CDB7EA7
:10352000C0047EB328E0F5277EB328E1F5267ED4DB
:1035300000C86CFF1237DFE5270A1B1B140ACDBD3C
:10354000C15814E5260A1B1B140ACEBDC158084CED
:10355000EE68044CDD78034EF0100B1AC0BEC400B8
:10356000C8080C7E1726E4BE1403200802C15BBE07
:10357000C40064080C7EC726E4BEC403205802C100
:103580005B6CAA7C8D801C7C9EBE800048117EB343
:1035900028E0BCB8080912369258140BA080020B20
:1035A000A01B801A2C1A3D9D321AC8BDC318D8BC66
:1035B000CA18054EF001C15B6CAA7C8D801C7C9EF4
:1035C000BE800048117EB328E0BCB80809123692CC
:1035D00058140BA080020BA00B801A2C1A3D2D3220
:1035E0001AC8BDC348D8BCCA18054EF002806C6C1E
:1035F000AA7C9E801C7C8DBE900048117EB328E181
:10360000BCB9080912369258140BA080020BA01BFB
:10361000901A2C1A3E9D321AC9BDC318D8BCCA18BC
:10362000054EF00480356CAA7C9E801C7C8DBE907B
:103630000048117EB328E1BCB9080912369258142B
:103640000BA080020BA00B901A2C1A3E2D321AC927
:10365000BDC348D8BCCA18034EF0084CFF682E7E84
:103660007BB0BCBD40037A7BD029B70002BCBD381B
:103670000439D7000229B70001BCBE400439E70075
:103680000129B70003BCBE380439E700037CBFDA68
:103690003B227CB87C791233D6BD3D227CBA047CB7
:1036A000791233D62DF30BF022CA3B7CE77CDBBECC
:1036B000D000280812C1665803C3E1A56CAA6CFFAC
:1036C0007CBD7C7E1233D6BE34025858067E440040
:1036D0009680047E4400C87CCD800B7CBC1237A849
:1036E000080C0BA00BC07EB328E2BCBC38ED7CCD2F
:1036F000800F0A3C1B347CB71237A808090BA01BAB
:10370000C0BEC00038EC7CCE800F7CBD7C7C123308
:10371000D6BD34080C0BF00BC07EB328E3BCBC381C
:10372000E97CCE80117CBD0A3C1B341233D6BD34FB
:1037300008090BF01BC0BEC00038EABEF00540050A
:10374000BEA0032808E47AB338E8C38058BEA001BD
:1037500068107E5003AC5A0A3FBD320815BEA00265
:10376000401074327AB338E87AD338E97AE338EA29
:10377000800E7EB338E8BEB0002805147AB338E86E
:103780007EB338E8601F7EB338E9BCBD78177EB3DE
:1037900038EA0A2B7D120B140A3EBD3118070B3490
:1037A000BD324801D3DA3B227C7E1233D6BD3422AF
:1037B0007E7002AC7C09B31E44227CBA7C79123341
:1037C000D6BE340096227C7B125B7B09A225CC7C82
:1037D000B754070A3B2E34005E126BBE5CBA227CE3
:1037E000BD7C7E7E1328E1AC1B3E047E3002AC37EC
:1037F0002D107E1F129A2D31227EB327027E343E79
:10380000807003E480027401123C9B123834381239
:103810007E7324DFBE700038097E7324DEBE700024
:10382000280A7EB328DC6004D21D8002C21DE47A1F
:10383000B33C67227E7326DEBE700022CA3B75252C
:10384000017EA47FFF7D7A7D6A7E8480007D987EE4
:103850006328E27E7328E37EA001801E0A2A7EB3DD
:1038600028E10A1B2D123E14492104C0BD2758022D
:103870007D72BD2908027D920BA00A161B140A2A2C
:10388000BD2148D87EA00180217E3002AC3A49019A
:1038900004C0BD0658027D60BD0808027D80492134
:1038A0000520BD2A58027DA20BA00A171B140A2A64
:1038B000BD2148D5BD8958067D397DB380027DB8CC
:1038C0007AB52D7EB400017AB726FB7EB400027A69
:1038D000B726FD7EB401187E3400967A3526E47A48
:1038E000B32706123BA27E34FE5C7A35287E34FF75
:1038F0002E7A352A752C006CAA80257E5002AC5A8F
:1039000009722554096225557E5002AC564922049D
:10391000C0BD2B480912A3D0BD2B4802052C0BA01B
:103920007EB326DEBCBA38D3129FCCBEB0002803CB
:10393000123B897E3528BD3618077E352ABD3708EB
:10394000136D339E3728CDBE3726E8083F123F3C23
:10395000603A80357E3728CD3E346E34FFFF0B341D
:10396000BE3726E808266D339D3BBE37070E081C80
:103970007D3B0E346E34FFFF0B34BE37070C080C52
:10398000E52C7008123F3C6003123B896D339E3773
:1039900028C2BD3A080D7EA726E8BEA4FDA858039C
:1039A000123B8912A34A4005E47AB327027EB3276B
:1039B00002BEB00168067EB33C5C6007E47AB327C0
:1039C0000741D6123834282B7EA338EBBEA000283E
:1039D0001D7EB3287B70177EA400047AA726FBBE49
:1039E000A002780F7EA4000A7AA726FB8005E47A5D
:1039F000B32707301905E47AB3270712A388500FBD
:103A0000E47AB31E44123BA212A0A9F52580767E6B
:103A1000B324DE70127EB324DF700C123834280712
:103A2000123F4E406080587EA728C4BDA938087E4A
:103A3000A728C6BDA828127EB328DC600C12383433
:103A40002807E47AB31E448036E52C70386DAA9DB1
:103A5000AB0EA4BDA61810BDA7180C7DAB0EA4BD5F
:103A6000A81804BDA9081E7EB328DC7018123BB745
:103A7000BEB0016810123834280B123F4E40067554
:103A80002503123BA27EA52DBEA405DC0818123822
:103A90003428136DAA9EA526BEA726E85808123B17
:103AA000A9E47AB327077EA73C55BEA403E85017C4
:103AB0007EA1257403A47A5726FB123F3F7DA53EC5
:103AC000A47AA726FD800FE5250AAB7AA726FB126C
:103AD0003F3F7A5726FD123F39500DE47AB327074E
:103AE0001238342803123BA97EA726E4BEA5260877
:103AF0001A7E3526123FCB6DAA9DA3BEA726E85895
:103B00000A123F395005E47AB32707123BB7B401D4
:103B100005E47AB327077E7324DF0A377E5324DE59
:103B20000AA52DA3780A123FE02805123F4640124D
:103B30007E7331B9BE700038097E7331BABE700031
:103B4000281B6C33800C7CB3123F56AC73129D392A
:103B50000B307E2326DEBC2338EC12339112A10CED
:103B60007EB331B9BEB000281D147AB331B97016D6
:103B7000E47AB3270774017AB3270612C19F7AB398
:103B800026DE7AB324DDDA3B2274027AB331B974CB
:103B9000017AB32706E4023B997AB329757AB329EF
:103BA000912274017AB3270722E47AB331B97AB348
:103BB00027067402023B99CA3B7EB326DEBEB000E4
:103BC000380281867EC331BC4CCC78417AB331BC9B
:103BD000E47AB331BE6CAA802A123C917E7002ACAA
:103BE0007A09D3255409E325557A49D019E400010F
:103BF000740119B400087CBD7C7E1233D6593400A0
:103C0000020BA07EB326DEBCBA38CE807F7CFC6C73
:103C1000AA8035123C917E49D009E4000109B40024
:103C20000870041BF0801F7CBD7C7E1233D67D2380
:103C300049340002123FE8BEF40023080974051954
:103C4000B40008751C010BA0BCFA38C74CFF780201
:103C500080267E7331BEBE700440226CAA800E1294
:103C60003C9109B40008BEB00568060BA0BCFA3848
:103C7000EEBCFA7803751C00123F2B800F7CB70452
:103C80007AB331BE8006123F2B751C00E51CDA3B6F
:103C9000227E9009AC9A2E4431BF22CA3B7CFB7D28
:103CA000A37525007526006CEE7EB326DE70131218
:103CB00047E26D33123DEE7EB33C2F6005147AB3BC
:103CC0003C2F7EB328DBB401028002A1E67EB3283C
:103CD000DC6002A17F7E3401907E1407D0123E6F1B
:103CE0003802A1787EB33C2F6007147AB33C2FA131
:103CF000EB7E3400647E240BB812A639F525B4019E
:103D0000028002A1EB7E7324DFBE70042802A1EBC7
:103D10007E7324DEBE70042802A1EB123F46280207
:103D2000A1EB12383428297E340005123DEEF564EB
:103D3000123E67381B7EB726E4BEB4012C58117EB4
:103D4000B726E8BEB4FF9C08076D33123DEEF5645C
:103D5000BED00478028007BED003780280007EC007
:103D6000017CBC12A57EF526BEB0016807E564BEE5
:103D7000B00528777402806F6D33123DEE806C7E43
:103D80003401907E140BB8123E6F280C74027AB383
:103D900028DC7AA73C0F801D7EB326DE600C7EB344
:103DA00024DF60067EB324DE700874017AB328DC59
:103DB00080037EE001123E6738177E3726E4BE346A
:103DC000012C580D7E3726E8BE34FF9C08037EE0A8
:103DD00001BEE001680D7E373C0F4D336805BEF033
:103DE000017808E48001E47AB328DCDA3B227D2301
:103DF0007E6326E67E7326E74D2278126D337A378E
:103E00003C4674647AB33C447AB33C45E4227E5326
:103E10003C441A157D011B041A26BD2048360B149C
:103E20001A26BD21182E7E533C451A157D011B0410
:103E30001A27BD20481E0B141A27BD2118167E27ED
:103E40003C460B247A273C46BE240064400C7E246A
:103E5000006480026D227A273C467A633C447A7380
:103E60003C457E573C46227E733C67BE7002227DF5
:103E700021123E7A7CDBBED000227D027EB324DF9D
:103E8000BEB000281F6CAA80117E5002AC5A492295
:103E900004C0BD20080280570BA07E5328E1BC5A05
:103EA00038E78002E4227E4324DEBE400028226CF4
:103EB000AA80140A4A0A052D043E04490004C0BD24
:103EC000010802802A0BA07E4328E0BC4A38E48027
:103ED00002E4227EB326DEBEB000284D7E4726E4F3
:103EE000BD43180BBEB004400E7EB328DC700874CE
:103EF0000A7AB33C2FE4227E2728CF7D323E34BE9F
:103F00003726E448037401227D323E343E34BE3706
:103F100026E448037402227E340006AD32BE372602
:103F2000E44803740322740422E422E47AB331BD2A
:103F30007AB331BC7AB331BE22A21B227401227E35
:103F4000A1257402A4227E73287BBE7004227E7396
:103F50001E44BE700A226C77123F627E7002227E7F
:103F600070017C677C7BC423541F7CAB7CB75407F7
:103F70000A2B2E24005E1271D47C7B4C66680F0ADB
:103F80002A2E2425CC7E29B04CB77A29B0227CB7C2
:103F900064FF0A2A2E2425CC7E29705C7B7A297046
:103FA0002212A7636015123BA27E3726FB3E347AAD
:103FB0003726FB7E3726FD3E348008123FC8500767
:103FC000123FF07A3726FD22A21D227E2400020233
:103FD00015297CB86C77023F627CB96C77023F622E
:103FE0007E7326DFBE7000229D321217977DF3226A
:103FF0007E3400017A3726FB22B28222CAD8CA79DF
:104000007E7328E17EF328E0ACF77D373E347E08EE
:104010001E44E41217657EB33B4BB401647E733BD0
:104020004CBE7000285B6CDD803C121F8C121B9F05
:104030006D3380287E35253E3449330CD8121797CE
:104040007A35277E35257D133E1449211E44BE2531
:104050002758077E252759211E440B347A3525BE63
:10406000752538D00BD07E733B4CBC7D38BC7D377A
:104070003E34CA397E181E447E080CD81217401BE5
:10408000FDDA79DAD822A213E4337AB33B5E7E7389
:104090003B62BE732982680DE50C70091240A612BE
:1040A00042781245E8227E7329827A733B6222CAE3
:1040B000F81245201243367E340023CA391245DBFC
:1040C0001217401BFD0A3FCA391245CE1217401B7A
:1040D000FD12460BCA3912410E7E08387C12174079
:1040E0001BFD7E340028CA3912410E7E08248D1231
:1040F00017401BFD12411790612BE4937AB3244AB9
:1041000090612FE4931242641240A6DAF8227E34C2
:1041100061EC7E2400FF22741E7AB329821241854D
:104120007A37298E22CAF81245207E340023CA39F4
:104130007E1838C27E0829941217401BFD0A3FCA18
:10414000397E1838A67E0829B71217401BFD124683
:104150000BCA397E1838547E08387C1217401BFD74
:104160007E340028CA397E1838547E08248D1217F0
:10417000401BFD12411774067AB3244A124264129E
:1041800040A6DAF8227E2329827E333B61AC232EBF
:104190001401F4BE14000A50047E14000A7E632940
:1041A00083BE140F3C40047E140F3CBE140708402D
:1041B00003E4800274017AB329837E732983BC7679
:1041C0006802D2157E2401F47D318D327C17BE1039
:1041D0000728037E10077E1F33DC69510086541FB9
:1041E0000A0112C15B2D05790100866D007E34B88D
:1041F000007E24000B0215C8B4010512412580037E
:104200001240AF7E0828E012038BE4120A660242D5
:10421000117E08240212BEFF6C77800E12BF11506F
:104220000712BF08195124020B707E5328E1BC57B6
:1042300038EAA9C6EA7E082402E4121138A9D6EAAF
:104240007E08240202113812411930150A1245F96C
:10425000300004E4120A6630000912A4F412A3E14B
:10426000024622227AB329E57E7329D57A733B630D
:104270007E7329877A733B537E7329927A733B52FC
:104280007E7329937A733B5122CAD8CA797CDB7E2C
:10429000F005ACFD0977248D7A7329820977248E85
:1042A0007A7329870977248F7A7329920977249062
:1042B0007A73299312411D09B72491124336121AB9
:1042C00034E47AB315A1DA79DAD822CAD8CA797C6B
:1042D000DB7EA004BED080781A7EE0FF6CFF800DEC
:1042E00012432CBCBE38047CEB7CDF0BF0BCAF3837
:1042F000EF801CBED08178176CEE6CFF800D1243EE
:104300002CBCBE40047CEB7CDF0BF0BCAF38EFBCB8
:10431000AD38026CDD7CBD1242891242701240A69B
:104320001245F07AD33B3ADA79DAD8227E9005AC9E
:104330009F09B4248D227EA329D5BCAB68067AB32D
:1043400029D5D2153015071245F9E4020A6622CAAA
:10435000F87EF0FF7EB339E76007147AB339E7805F
:104360004912475A7EB33A6E7015E47AB328EB7E51
:10437000B33C66B40122E4124289126FC280197EF6
:10438000B328EB700B906091E4937AB328EB80082C
:10439000124592126CA87CFB7E733A6E7A733C666F
:1043A000BEF0FF68057CBF124289DAF822CA799014
:1043B0006050E49312C2177CEB7EB328E7BCBE28A2
:1043C000047CFB80027CFE7AA328E07AE328E17A71
:1043D000A328E47AE328E57AA328E67AE328E7E449
:1043E0007AB328EA7AA328E27AE328E390609193EB
:1043F0007AB328EB906094E4937AB328EC0A3ACA33
:10440000397E3460527E2400FF7E0828ED1217406A
:104410001BFD0A3FCA397E3460757E2400FF7E088A
:1044200029101217401BFD7E340023CA391245DBC8
:104430001217401BFD12452E1268661263FB7401B1
:10444000122ED9E47AB329747AB329751265817A68
:1044500037298074037AB32976E47AB32977740212
:104460007AB329787E3401187A37297A74047AB3BA
:1044700029797E34000F7A37297C7E34205F7A37A1
:10448000297E12452774017AB3298374207AB329CF
:104490008474047AB32986124117E47AB329907A96
:1044A000B329917E3401F47A37298C74017AB329C7
:1044B000851246E574317AB329926D337A372988AB
:1044C0007A37298A74027AB329877E3400307A37A2
:1044D00029DD74047AB329DA7E3400057A3729DBC2
:1044E000E47AB329D97E34046D7A3729DF74017AEE
:1044F000B329D674057AB329D7E47AB329D87401DD
:104500007AB329D3E47AB329D47E3416E27A3729F0
:10451000E10A3ECA391245CE1217401BFDDA792254
:10452000906051E4937CFB74207AB329D5221287E2
:10453000C11246EC906050E4930A3B7D132E142880
:10454000ED6D0009B328EC12457B0A3B7D132E1458
:1045500029946D0009B3299312457B0A1B2E142858
:10456000EF1245881B35E52612457F0A1B2E1429BC
:10457000961245881B35E5250217657E3400021228
:104580001765906050E493226D00906091E4930A67
:104590003B22126EAF0245987EB339EA600F740178
:1045A0007AB339F27EB33A60700312A5267EB3392E
:1045B000F2B4010C74037AB335D57E340C00800953
:1045C000E47AB335D57E3406007A3728D5227E3496
:1045D00060FB7E2400FF7E0829B7227E3460D87EEF
:1045E0002400FF7E082994227E7329877A733B5327
:1045F0007E7329D57A733B6322C2157E0828E012A8
:10460000038B7E0828E0740302117A74407AB32980
:104610009374317AB3299274027AB329877E340075
:10462000282212475A6D337A373A5E6CAA12A23D9D
:104630000BA0BEA00440F6E47AB339F3221246E59B
:1046400074011246697E433B4F7E5064AC45127F35
:10465000F77AB329921242807E7329927A733B5281
:104660007E7329877A733B5322CA3B7CDBE47AB39F
:10467000298712699C7EC00A126A773014FD740182
:1046800012000E7E1F33F512806B7D73BE74FFFF28
:1046900078091246D92E3400038018BE7480002891
:1046A000071246D90B35800BBE744000280C124609
:1046B000D90B341B0A301BC078BEBED00178097EEE
:1046C0001F33F51280167D737E1F33E46931001AA3
:1046D0007A7329877D37DA3B227E0F33E42E14006C
:1046E0001A0B0A302274407AB32993226CAA6C996F
:1046F000800C0AF909BF28EDBCBA68070B90124775
:104700001838EF12471868070BA0BEA02340DF7AC5
:104710000BA0746E7A1BB022906050E493BCB92257
:1047200074017AB33A8A1245FB1213F512BE6BE498
:10473000120A667E2403D47D3274FA1212D07401F8
:10474000122ED91291687E34D00C12010E122F084D
:104750007E340001E46C550213017E3733EE1229DA
:10476000D27A373A5E6CAA8024BEA00450270A3A57
:10477000096339F7BE600450127E5002AC5A4942B8
:1047800033E87E700CAC6759433A010BA07EB33915
:10479000F4BCBA38D4221264491243AD120042125A
:1047A0005F857E1804007A1F06447E0F06447E1F34
:1047B0000640126FD97E18071A7A1F12967E180CBF
:1047C000D87A1F129A7E0F129A7E1F12961268AF25
:1047D000125FFA12585D1267FF12683712749E0258
:1047E00047E2E47AB33C127AB33C117E083C307E57
:1047F0003400141217657E083C137E34001C021727
:10480000657EB33A87B40104E402480D227003D2F6
:104810008622C28622CA3B752600752700752800AD
:10482000752900752C037531007532007E38281605
:1048300012B79312B4E7752500124B596003753215
:10484000010525E525B40AF17EB3288370127EB3F5
:10485000287F700C7EB328807006E532700241AB71
:10486000752500124B5960082E342886147A39B009
:104870000525E525B40AEC3017067E4836E28004AB
:104880007E4836A47F0412738F7E73287C7A4B7027
:104890007525004155E52512B7DC124ADB09B5271D
:1048A00066F52B540F0A3B2D377D267E1BB0F52C69
:1048B000E52B54F0BEB00028024153E52CBEB003F6
:1048C000780241537E08002CE52B1299C250024118
:1048D00053124ADB09B52767F528124ADB09B527C9
:1048E00068C454F0F5297E7328C0BE712B286B7EF6
:1048F000B32881702E75330F7E080028E52B0A3B04
:104900002E3436906D227401124C0F7533207E08C0
:104910000029E52B0A3B2E34369A6D227410124C76
:104920000F8014E52B0A3B09B33690F528E52B0AD6
:104930003B09B3369AF529E52B0A3B7F032D137EFD
:104940000BB0B40115E419B336906CAAE52B0A3B01
:1049500019A3369A7528007529007EB328D7B4FFAD
:1049600012752800124ADB09B52766BEB0FF68033E
:104970007528017E91257409AC9B495427627A55AC
:104980002D495427647A552FE52CB401476CAA7E33
:10499000712B7404AC7B19A33192E52B0A3B2D37A4
:1049A0007D2639A1003C752A007E712A7409AC7BF2
:1049B00009B33724540FBEB12B7810492337207A1E
:1049C000252D495337227A552F8009052AE52ABE1D
:1049D000B00A40D57E552D5EA00F7A552D7E552FFD
:1049E0005EA00F7A552F097427660A57C454F07CCD
:1049F000ABE47D252E252F7A252FBE70FF6819E5A3
:104A00002CBEB001680205260527E52C0A5B129B27
:104A1000EC7D352E352D80077E352D2E34C0007A65
:104A2000352D7E252D124B517F042D137920000248
:104A30007E252F7F042D1379200004E5282D397D54
:104A40002839B100067EA129124B512D3939A10018
:104A500007053105257E7328C0BE71252802019502
:104A6000E52639B400017EB33AB3B401097EB32818
:104A700080B40119800FE527BEB00038067EB32848
:104A800080600AB217127324740112480D7EB32895
:104A90007F6009E53270057F03124BD4E47AB328B6
:104AA000837AB3287F7AB3288080097F03124BD49E
:104AB000E412480D7E34005ACA397E1827627E08F7
:104AC00037201217401BFDE527700D7E0837207E2A
:104AD00034005A74FF121765DA3B227EA12574094F
:104AE000A422121B5212730D7EB33A8AB4015C12D7
:104AF000BDCE1287A8126C59124C5112B4C4121BAD
:104B00009F50E2128C537EB33A87B40104E41248FA
:104B10000D1259BC124B6240CC12A1A5124B62126D
:104B200057BE123159124EC1127A1112940A1277DD
:104B30004A124E681274B71295071285CA124815A8
:104B40001257F6128349124B7E809A12BFDF024839
:104B5000017E71317406AC7B22E5250A3B09B3283E
:104B60008622C2007EB315A160067EB315A0700B2D
:104B70007E7326DEBE70012802D200A200227E08CB
:104B80003B87124BBF7E083B8F124BBF7EB328DCA6
:104B900060077E083C0F124BBF12C14512C11902BB
:104BA0004BA27E373B87BE34000028127E733C58F0
:104BB000BE700550097EB33AB3700312816E220BAA
:104BC0000A30E5650A2BBD3228049D3280026D3320
:104BD0001B0A30226CAA7403125F8E7F102D3439A9
:104BE000B1000A1279FD7F702DF3794700142D3141
:104BF00079410028E40A4A7F102D3439B100467FFC
:104C0000102D3439B100500BA0BEA00A40C8227C40
:104C10009B7F717E7B804C8878077E0B907A7B909F
:104C2000220A287E0B800A389D32121797E5330A34
:104C30002BBD3208157E7BA07E0BB0BCBA7CBA2897
:104C4000042CB980029CB97A7BB07E7B707A0B70A1
:104C5000227E243A63301651C21609720002124CA9
:104C6000AA7A3728C209720003124CAA7A3728C4DC
:104C700009720004124CAA7A3728C67E2970124C99
:104C8000B57A3728CD09720001124CB57A3728CF92
:104C900009720005124CAA7A3728D509720040BE65
:104CA0007328DB68047A7328DB220A373E343E34EB
:104CB0003E343E34220A373E343E3422CA3B7EE341
:104CC000287A4CEE78206CFF6D117402ACBF124E46
:104CD0005DAC3F19A135F174020A1F19B1365B0BA7
:104CE000F0BEF00A78E212949D7E240050AD327D31
:104CF000432E440C806CFFC12F7409ACBF09D5272B
:104D00000C5ED00FBED00A4002C12D0A1D09B12889
:104D100016BEB0017802C116752500124ADB09C51E
:104D200035F1BCCD6802C109492535EF7409ACBF26
:104D30004935270A9D321217977D03124ADB492510
:104D400035ED7409ACBF1292FC2D030A1C09A13683
:104D50005BBEA00028177E3002AC3C590136470AE2
:104D60001C2E14365B7CBA147A19B0C12D7402ACB7
:104D7000BC49153647BE14006428087D312D34BD6A
:104D8000304020BE14005A2808BE04005A28028071
:104D9000727D312E340064BD305008BE140064288A
:104DA000028060BE04028028560A1D09B1281670D0
:104DB000047403800274010A1D19B1281674030AD1
:104DC0001C19B12820BEE00028631BE07E7009ACEE
:104DD0007F2E3427087E141E4474091215FC7E7041
:104DE00009AC7E1299BAAC3F124E547E341E447EFA
:104DF0003009AC3E124E541BF07402ACBC800474FB
:104E000002ACBC5905364780240525E525BEB00A0D
:104E10005002A11B80176D117402ACBD124E5DAC27
:104E20003D19A135F174020A1D19B1365B0BF0BCB6
:104E3000EF280281F9E47AB315A27E34005ACA3908
:104E40007E1827087E0835ED1217401BFD7AE328EF
:104E50007ADA3B222E14270874090215FC591536FC
:104E6000477EA0FF7E3009227EB33AB37003124C16
:104E7000BC024E74CA797EF3287A7EE3287B7CBF1D
:104E80007C7E1297D77CBF1298434CEE78157E3407
:104E9000005ACA397E1827087E0827BC1217401B03
:104EA000FD800B7EB3288170057CBF1292767CBF9B
:104EB000129A16BEF000280674017AB32883DA79B4
:104EC00022024EC4CA3B7EB328CCF52D752A007E43
:104ED000B328E2F52B7EB328E3F52C7526007EB3CC
:104EE00015A1B40102800302513675290002512434
:104EF0007EA1297402A412C1D97527027528027EE9
:104F0000B33A6EB4011E7EB3287BB401177EB3267C
:104F1000DEB401107E3726E0BE34000A4006752755
:104F2000037528034CDD6807E52B12C16A48037539
:104F300027014CCC680CE52C0A2B1B240A3CBD3203
:104F40004803752801752600752500802DE525BECE
:104F5000B129682412AF90093325550A2A0A3D1257
:104F6000C1C718140A230A3C12C1C7180B752601C1
:104F7000752701752801800B05257E2326DEBE21BD
:104F80002538CA1297CD5006752703752803E526E4
:104F9000700302508B6CFF6CEE0A3F0A2D12513DDC
:104FA0001815E52B0A3BBD23480D1251391808E5A9
:104FB0002C0A3BBD2358061253FC1B38200BE0BEC5
:104FC000E00378D50BF0BEF00378CC7EA12C1BA0BB
:104FD000BCAC68074CCC680302508BBED0003803D1
:104FE00002508BE52B12C16A480302508B7E1800D9
:104FF000647A1D414CCC78057540028007BCAC78C2
:10500000037540006CFF7EA1403EA07E9006AC9FE1
:105010007CB92CBA242E12514B7E14006412156CEC
:105020007CB924300A1B0B18101A021A001215C87A
:105030007E0D41BF1058037A1D410BF0BEF003787E
:10504000C57E1D41BE18000058077E1800017A1D5C
:10505000416CFF7406ACBF243012514B7E0D4112DF
:10506000155B7E0800641215C87D430A3D1B340A97
:105070005F2D530A2C1B247EA1400A3A2D32123791
:10508000E31B1A400BF0BEF00378C8E52C14BCBC3F
:1050900068044CCC7822E52B14BCBD68044CDD7848
:1050A000171251440B1A207E340003AD3212579C64
:1050B0007D431251441B1A407EA328CC7AA12DE5D2
:1050C0002B14BCBD780A0A3A2E34000A7A7328CC15
:1050D000E5277E71287E61297E512A6C4412515544
:1050E000E52D7AB328CCE52660366CFF6CEE0A3FDE
:1050F0000A2D12513D1815E52B0A3BBD23480D1210
:1051000051391808E52C0A3BBD2358061253FC1BE5
:1051100038200BE0BEE00378D50BF0BEF00378CC6E
:10512000052A05297E7326DEBE71292803024EF06A
:10513000E52A7AB326DEDA3B220A3E0A2C2D23BE6C
:10514000240001227CBD7C7C0237E30A3B0B383013
:105150001A261A2422CA3B7A41451257AB7409AC6D
:10516000BF7D952E9425D06D887EE728D9E439B48B
:1051700000061257B4F55009B32555F5517E732832
:10518000E17C6D7E0800541253A9F552E5507E7300
:1051900028E07C6C7E0800531253A97CABE5537E5B
:1051A00071541237E37DF37AF55C7EF414AE7AF530
:1051B0005E8553568554577AA1588552597EB32837
:1051C000CCF55A755B00E545B40108E55A1EB01EE2
:1051D000B0F55A7E0800561257A37D236D337EB773
:1051E00014B06DAA2F517E3714B26D227D036D115C
:1051F0007E3714B42F107A1D467E3714B66D227D8B
:10520000037E3714B82F107A1D4A7F650A4CE5508B
:105210000A5B9D54F54E41EF0A4DE5510A5B9D54E2
:10522000F54F41D9E54EBEB000580241D77E7328F4
:10523000E0BE714E180241D7E54FBEB000580241A2
:10524000D77E7328E1BE714F180241D7E54E7E71BB
:105250004F1233D67E5328CC0A257DF39DF2BEF43F
:1052600000000873BDEF180D7F142E3400067E1B5E
:10527000B0047A1BB0E5500A2BE54E125390180B80
:10528000E5510A2BE54F125390084CE54E7E714FC5
:105290007C6E12BDE7F555B402067D3F0E349DF3DA
:1052A000E555BEB0026805E555B4012B12537FE504
:1052B0004E1253867E1D469F107A1D4612537FE57F
:1052C0004F1253867E1D4A9F107A1D4A12537F9FAC
:1052D000511A261A249F61054F0A2DE5510A3B2DCC
:1052E000321A27E54F1A3BBD3218024124054E0AF7
:1052F0002CE5500A3B2D321A37E54E1AFBBDF31848
:10530000024118BE58000078020B5CBE68000078AD
:10531000020B6C7E1D467F0512539C1B4A307E1D7E
:105320004A7F0612539C793400027EB328D8600D60
:105330001ED41EC450044ED480001478F3BE6800FE
:105340007F28047E68007F7D3D397400057409ACB8
:10535000BE097525D639740006BE700F2806740F75
:1053600039B400067EA1507E7009AC7F19A325D701
:105370007EA1517E7009AC7F19A325D8DA3B227D2E
:105380003F1A261A24221A1B1A0212155B7F0122C9
:105390001A3B9D32121797BE340001227C451257EA
:1053A000951215772E18008022CAF87CF67C877C2F
:1053B0009B0A2F7D323E340B347CB7BCF938140A7B
:1053C000F81BF40A3F9DF30A39BD3F18067CAB0A6F
:1053D00039801DBCF9280D0A390A5F2D530B547C06
:1053E000ABE480100A3F0A582D530A399D537CAB19
:1053F0009D327CB77A0BB07CBADAF8220A4D1B4496
:105400000A5F2D540A2C1B240A3E2D321233D67DFE
:10541000237C7E3E707406ACBF2CB7242E0A3B2240
:10542000CA3B7EF326DEE47AB335C96CEE80637E38
:105430007002AC7E09B32555F52509B32554F52630
:105440007ED0016CCC8045BCCE683F7E7002AC7CC7
:1054500009A325557AA12709B32554F5280A2AE579
:10546000250A3B1253921815125571BE340002489A
:105470000CE5287E71271255FB70020BD0BED002BE
:10548000400874027AB335C980060BC0BCFC38B73B
:105490000BE0BCFE389912549CDA3B22CAF87E33EA
:1054A00026DE6C2280457402ACB20915255409052C
:1054B00025557EA0016C99802CBC9268267E7002D6
:1054C000AC790983255409F325550A280A3112536A
:1054D00092180B0A2F0A3012539208020BA0BEA09A
:1054E0000350060B90BC3938D00B20BC3238B77E45
:1054F000B33665BEB0002812147AB33665BEB01458
:1055000028087E34008C7A3728CD7EB33A6E705EE0
:105510007EB33C5C70587EB339F270527E373B915B
:10552000BE34001450487EB328DC70427E3726E437
:10553000BE34032058387EB326DEBEB003402FBEF3
:10554000A003402A7EB324DFBEB00350097EB324FB
:10555000DEBEB00340187EB32550BEB00850097EB1
:10556000B32551BEB0084006741E7AB33665DAF82A
:1055700022E5280A2BE5260A3B9D320217977E304A
:10558000647E20646C11804A0A310B347C078038B9
:105590007E7002AC7009B325541255F309B325543B
:1055A0001255777C977E7002AC7009B32555125561
:1055B000F309B325551255777C87BC3928027C390D
:1055C000BC2828027C280B007EB326DEBCB038C085
:1055D0000B107EB326DEBCB138AEA5BB64026C33C3
:1055E000A5BA64026C22BC2328047CA280027CA39E
:1055F0007CBA220A2B7E7002AC7122CAF87C877CAE
:10560000FB7EB3287B7016125685BE340190580D70
:105610007E370712BE3400505803E4805E4CFF789A
:10562000140A3F0B347C9712569312568CBD3F08D8
:1056300049740180467EB328E214BCBF78140A5F27
:105640001B547CAB12569312567EBD3F082C74013E
:1056500080290A3F7D531B547CAB0B347C97125638
:105660008C7DF312567E2DF31256857E2400031294
:105670001529BDF3080474018001E4DAF8227CBA2C
:105680007C780233D67CBF7C780233D67CB97C78B8
:105690000233D67CBF7C781233D67E24000A1215E2
:1056A000297DF322CA79C2007EF0031294717EE351
:1056B000287B7E341E447A3702FC7E7326DEBE7061
:1056C000013802E18C12AEA092121257D57CBF12A3
:1056D000AA174CEE680E7EA302D94CAA780A7EB3B4
:1056E00002DA7004D2008025BEE001280BE51EBE60
:1056F000B0082804D2008015D2007EB326DEBCBEDE
:10570000780B2012084CAA78046CFFC20020000518
:105710007CBF12AA177E0802DE12B00E7AB302DD39
:10572000BEB326DE50457E3302DD80317E7002AC92
:1057300073092302FE091302FF2E3702FC0B3850B7
:105740007E9328E1AC920A312D433E447E1F129A8B
:105750002D341B1A507CB37E7001123F627C031BF8
:1057600030A5B800C774017AB302DB7EA302DD7AEC
:10577000A326DE7402A4CA597E1802FE7E082554B0
:105780001217401BFD12557EF51E8006751E641211
:1057900057C9DA79227C567C676C77227E24000414
:1057A000021529120C297E3714AE227CF57CE67C8A
:1057B000D77CCB227E7002AC7E09B32554221254D2
:1057C000201233DD7AB32884227E08033B7E340026
:1057D000B4E40217656CAA12C1A96D2212C17654F5
:1057E000FE12C173540712C17354FB7A0BB00BA0A5
:1057F000BEA01E40E2227E7326ED7A7326EE7E73F3
:10580000287A7A73287BE47AB3287E227E3703EFE6
:105810000B347A3703EF7E3703F1BE3703EF2803EB
:105820000258272202580CE59A6005D29CA9D6DFBF
:1058300022CA7BCA6BCA5BCA4BCA2BCA1BCA0BC023
:10584000D0C083C082125824D082D083D0D0DA0B4B
:10585000DA1BDA2BDA4BDA5BDA6BDA7B32740A7A30
:10586000B328C074107AB328C11258DE7A3728C81A
:10587000741E7AB328CC1258BF7E2400827A27285F
:10588000CF7E24FF6A7A2728D17A3728D3E47AB3E7
:1058900028D774047AB328D87E3400647A3728D99C
:1058A0007E3406007A3728D574017AB328DBE47A8F
:1058B000B328DC74017AB33AA3E47AB315A2227E4A
:1058C0003400967A3728CD221258BF7E3400827A6F
:1058D0003728CF7E34FF6A7A3728D10258DE7E34EB
:1058E00001187A3728C27A3728C47A3728C6221294
:1058F00058C87EB339F2B4010C7E3401187A3728C7
:10590000CD7A3728CF1259567EB32702B4011F7EB5
:1059100034015E7A3728CD7E34012C7A3728CF7E49
:105920003401907A3728C27E34017C1258E67EB367
:10593000287A70217E2728CD7D327E140004AD1395
:105940007D311229D2BE34005028047E3400502DFF
:10595000327A3728CD227EB328DC6003025D16221E
:105960001258C81259A17EB33C6202596DB401307D
:105970007EB328DBB401297EA326DE6C77801D7EF2
:105980005002AC57096225557EB328E114BCB678A5
:10599000097E34003C7A3728C4220B70BCA738DF5C
:1059A000227EB328DBB40103025D16227EB328DB1E
:1059B0006009125D371259600259D4221259AC1293
:1059C00007FB1258EF7EB328DC7008E47AB33C6220
:1059D0000259D422E47AB326ED125D591262BC7EDC
:1059E000B315A1B401087E7326DE7A7326EC7E1807
:1059F00004C07A1F0644125F85125A1F125BB67EDE
:105A0000B315A0B401187E7324DD7A73254D7E731F
:105A100024DF7A73254F7E7324DE7A73254E227E2F
:105A20000824E07E340003E41217657E0824E37E38
:105A30003400031217657AB324DD7AB324DE7AB317
:105A400024DF7AB3254A7AB3254B7AB3254C7E18E6
:105A500024C9125B8D6C55125AE57AB324DF7E1887
:105A600024B5125B9D6C55125AE57AB324DE6C772F
:105A70008014125B6E60053E241478FB125B772E57
:105A80002424E0125B827E6324DEBC6738E46C77FA
:105A90008014125B6E60053E241478FB125B772E37
:105AA0002424E3125B827EA324DFBCA738E47EB308
:105AB00024DEA47AB324DD7E182540125B8D7E504F
:105AC00001125AE57AB3254C7E182536125B9D7E6D
:105AD0005001125AE57CAB7AA3254B7EB3254CA42A
