:1000000002238A02CCC41B0A30222202001A0001F9
:1000100001002202CD38EBAA0822320265FE000060
:1000200000FFFF023C26023FCCFFFF026847CA3BAD
:100030007D727D637D271206487D367D271206C5B9
:10004000DA3B2202685F7F71A9D6CB693000047E5B
:100050006F73ED79360004693000067E6F73ED79B9
:10006000360006693000087E6F73ED793600087E31
:100070007BA07C6A6C777E6F73ED7936000E7C4BCB
:100080006C55E5270A3B4D327E2F73ED7932001017
:10009000297700020A373E343E343E343E34295735
:1000A00000047C464C577E2F73ED2E54000E0B2A15
:1000B000304D321B2A30297700017C476C55297757
:1000C00000037C647E2F73ED7932000A7E0B707C16
:1000D00047297000010A372D327E0F73ED79300009
:1000E0000C6D117E1F73ED1B1A107E340030120A46
:1000F0005EA9C6CB220102040810204080B28622ED
:10010000DD0A22F5E2D01D2F3DB3C24CD02F05FAF7
:10011000FFFFFFFFFFFFFFFFFFFFFFFFFFFF87A6C0
:10012000CA3B7F307E3BB0F52A29B30001BEB12A1D
:100130002802F52A691300066D007E3400F274FF70
:100140001224377F03120A06A9D6CB752800803304
:1001500075290080237E1128740BAC1BE5290A1B2E
:100160002D013E04691300062D106D000B0A306E40
:1001700034FFFF1B0A30052929730001BE7129389D
:10018000D405287E3B70BE712838C5693300067ED1
:100190000F73ED79300004E52A0A2B7D327C676C01
:1001A000772D327E0F73ED7930000C6D117E1F7349
:1001B000ED1B1A107E3400D0120A5E752800E52867
:1001C000BEB00450177EA1287404A47E1F73ED698D
:1001D00011002660441E141478FB803DE528BEB053
:1001E00008501BE5280A5B1B563E543E547E1F7385
:1001F000ED6911002860221E141478FB801BE5288D
:100200000A5B9E5400083E543E547E1F73ED6911F4
:10021000002A60051E141478FB5E14000F7EA128CE
:100220007402A4693300062D356D221B1A100528AF
:10023000E528BEB00B4087A9C6CBDA3B226D337EE2
:100240000F73F1793000127E0F73F12E1400140B2E
:100250000A305E607F1B0A30E538541F0A2B7E0F80
:1002600073F12E1400120B0A304D321B0A30E5399F
:1002700054010A2B3E243E243E243E243E247E0F7D
:1002800073F12E1400120B0A304D321B0A30E53A7E
:1002900054030A2B3E243E243E243E243E243E2486
:1002A0007E0F73F12E1400120B0A304D321B0A30F0
:1002B0007E3536BE34000278637E0F73F12E140053
:1002C000140B0A304E60801B0A30E53B541F7C4BF8
:1002D0006C557E0F73F12E1400120B0A304D321B39
:1002E0000A30E53C54010A5BC42354E07CABE47E55
:1002F0000F73F12E1400120B0A304D351B0A30E536
:100300003D54030A5B030354C07CABE47E0F73F1DE
:100310002E1400120B0A304D351B0A30227F21A902
:10032000D6CB693000047E7F73ED793700046930E5
:1003300000087E7F73ED79370006693000067E7F06
:1003400073ED79370008297000017C476C557E0BEE
:10035000700A372D327E7F73ED7937000C297000DB
:10036000020A371B347E7F73ED7937000A6930004B
:100370000A7E7F73ED7937000E6930000C7E7F7343
:10038000ED793700106930000E7E7F73ED7937000C
:1003900012693000107E7F73ED79370030297000CC
:1003A000037C276C337E1F73ED1B1A107E3400A074
:1003B000120A5E7E1F73ED6911001A7A2B306911E3
:1003C000001C39320001691100167912000269110E
:1003D00000187912000469110022791200066911CF
:1003E0000024791200086911001E7912000A69318F
:1003F00000207932000CA9C6CB22CA3B7A254C7F5B
:10040000307A354AA2AC9208C2AC7E1F73F16931D2
:1004100000045E3410007A376642C209120C17A23B
:100420000892ACA9D3CBA9D5CB7E3400017E0F7343
:10043000B4793000067E0F73B4693000064D33780E
:10044000F47E354A2E3480001B0A307E1F73B46957
:100450003100084D3368F46D3380207D233E247FC6
:10046000032D120B0A207E0F73B41B0A207E0F731C
:10047000B4692000084D2268F40B34BE354C40DBD3
:10048000A9C5CBA9C3CB7E3766422E34FFFF9209A4
:10049000120C17DA3B22CA3B7A254C7F307A354A58
:1004A000A2AC9208C2AC7E1F73F1693100045E34C5
:1004B00010007A376642C209120C17A20892ACD219
:1004C000CDA9D5CB7E3400017E0F73B879300006FC
:1004D0007E0F73B8693000064D3378F47E354A2EAE
:1004E0003480001B0A307E1F73B8693100084D3319
:1004F00068F46D3380207D233E247F032D120B0A88
:10050000207E0F73B81B0A207E0F73B86920000885
:100510004D2268F40B34BE354C40DBA9C5CBC2CDAF
:100520007E3766422E34FFFF9209120C17DA3B2207
:10053000CA797CAB6D777E0F73F1693000065E344B
:10054000000268182E14000E0B0A305E70FB1B0AA6
:100550003074037AB373AC751E038003E4805A4C85
:10056000AA685480447E1F73F1693100065E34002E
:1005700001780AE47AB373AC751E00803C7E3400C7
:100580000112641E0B74BE7403E8281D7E0F73F104
:100590002E14000E0B0A304E70041B0A3074027ABF
:1005A000B373AC751E02E480107E1F73F1693100D5
:1005B0000E5E34000378AE7401DA7922CA797CAB1E
:1005C0006D777E0F73F1693000065E3400026818A3
:1005D0002E14000E0B0A304E70041B0A3074027A7F
:1005E000B373AC751E028003E4805A4CAA68548031
:1005F000447E1F73F1693100065E340001780AE41D
:100600007AB373AC751E00803C7E34000112641E08
:100610000B74BE7403E8281D7E0F73F12E14000EB8
:100620000B0A305E70FB1B0A3074037AB373AC752F
:100630001E03E480107E1F73F16931000E5E3400EA
:100640000868AE7401DA7922CA3B7D727D63A2AC80
:100650009203C2AC7E1F73F1693100045E34100056
:100660007A3761D2C209120C17A20392ACA9D3CB7C
:10067000A9D5CB7E3400017E0F73B4793000067E9D
:100680000F73B4693000064D3378F47D362E348014
:10069000001B0A307E1F73B4691100084D1168F405
:1006A0001B1A707E1F73B4693100084D3368F4A9BA
:1006B000C5CBA9C3CB7E3761D22E34FFFF9209127E
:1006C0000C17DA3B22CA3B7D727D63A2AC9203C257
:1006D000AC7E1F73F1693100045E3410007A37611B
:1006E000D2C209120C17A20392ACD2CDA9D5CB7EEF
:1006F0003400017E0F73B8793000067E0F73B8693D
:100700003000064D3378F47D362E3480001B0A30DD
:100710007E1F73B8691100084D1168F41B1A707EB2
:100720001F73B8693100084D3368F4A9C5CBC2CD39
:100730007E3761D22E34FFFF9209120C17DA3B226A
:10074000CA3B7D73A2AC9200C2AC7E1F73F169619B
:1007500000045E641000C209120C17A20092ACA93A
:10076000D3CBA9D5CB7E3400017E0F73B479300092
:10077000067E1F73B4691100064D1178F41B1A70C0
:100780007E0F73B4693000084D3368F46D331B0A73
:10079000307E1F73B4691100084D1168F46971004F
:1007A00002A9C5CBA9C3CB2E64FFFF9209120C1777
:1007B0007D37DA3B227E08015E7E340018E4122485
:1007C00037A9D1CBD2CC7E3400047E08015E740CF4
:1007D000120AB5A9D1CBC2CC6CAA7E7002AC7A7ECB
:1007E00008015E2D130B0A207C456C550B0A300A5C
:1007F000364D321B0A300BA0BEA00C40DD22FFFF9D
:10080000CA3B7D73A2AC9200C2AC7E1F73F16961DA
:1008100000045E641000C209120C17A20092ACD250
:10082000CDA9D5CB7E3400017E0F73B87930000698
:100830007E1F73B8691100064D1178F41B1A707E83
:100840000F73B8693000084D3368F46D331B0A30FC
:100850007E1F73B8691100084D1168F469710002B8
:10086000A9C5CBC2CD2E64FFFF9209120C177D37AC
:10087000DA3B22A9D6CB693000067E2F73ED7932A0
:100880000004693000087E2F73ED7932000829706A
:1008900000027C476C55297000030A372D327E2FE9
:1008A00073ED7932000C7E0B707C47297000010AD1
:1008B000372D327E2F73ED7932000A297000040A39
:1008C000377E2F73ED7932000E29B0000554017C7C
:1008D0002B6C337E1F73ED1B1A107E3400C0120A7E
:1008E0005EA9C6CB22A9D6CBC232693000047E2FC6
:1008F00073ED79320004693000067E2F73ED793292
:100900000006693000087E2F73ED793200087E0BF7
:10091000707C476C55297000010A372D327E2F7389
:10092000ED7932000C297000020A377E2F73ED79C1
:1009300032000E29B0000354010A5B7CABE47E1F39
:1009400073ED1B1A506930000A120A5EA9C6CB2249
:10095000A9D6CB692000047E2F73ED7922000469AB
:100960002000087E2F73ED792200087E0B500A5577
:100970007CABE4295000010A252D257E2F73ED79EB
:1009800022000C295000020A257E0F73ED79200009
:100990000E7E0F73ED7930000A6D117E1F73ED1B13
:1009A0001A107E340040120A5EA9C6CB22CA3B6CE4
:1009B000AA7E9002AC9A7F702DF40B7A405E800381
:1009C0001B7A407E9006AC9A7CB97F71600D1EF454
:1009D0001EE450044EF480001478F37D4F5E440012
:1009E0003F7D747CEF6CFF3E743E747ED002ACDAC7
:1009F0007F602DD60B6AF04DF71B6AF00BA0BEA0EE
:100A00000440AEDA3B227F10A9D6CB691100027EEA
:100A10002F73ED79120004691100047E2F73ED79B4
:100A2000120006691100067E2F73ED791200087E10
:100A30001B300A037E140100AD10297100010A3732
:100A40002D317E0F73ED7930000C6D117E1F73ED2B
:100A50001B1A107E340060120A5EA9C6CB22A9D7E9
:100A6000CB7D234E50017E0F73ED0B0A304D321BB0
:100A70000A30801E7E0F73ED0B0A307D235E24004A
:100A800008BE240008780BA9D7CB4E70041B0A308F
:100A9000D2327E0F73ED0B0A307D235E248000BEC0
:100AA00024800078CF4E60401B0A306D117E1F738A
:100AB000ED1B1A10227E2400017E7F73BC79270073
:100AC000067E7F73BC692700064D2278F45E607F46
:100AD0001B7A307E1F73BC693100084D3368F46C9B
:100AE000AA80206D447E1F73BC1B1A407E1F73BCFE
:100AF000694100084D4468F4694100021B0A400B3B
:100B0000150BA0BCBA38DC22CA797CAB6C99802D5D
:100B10007EF002ACF97F602DD70B6AF05EF4FC002A
:100B20001B6AF07F712DF70B7AE07EF002ACF97F43
:100B3000602DD70B6AF04DFE1B6AF00B90BCA938F4
:100B4000CFDA79220B38205E50C01B38200B0A20E8
:100B50005E40071B0A20E52A0A5B0B38204D251B47
:100B60003820E5290A3B7D237C456C553E243E24F4
:100B70003E240B0A304D321B0A3022A9D6CB543FFB
:100B80005E701F7E1400017E7F73ED791700027C7A
:100B90002B6C330A372D317E0F73ED793000327EA6
:100BA0000F73ED79200014A9C6CB1207B5020D59B9
:100BB000302B31A9D2EAA9C2EA6D337E0F73F179E5
:100BC0003000167E34012C7E0F73F179300018C28C
:100BD0002B7E0F73F12E1400140B0A305E70FB1B7A
:100BE0000A30C22A22A2AC92087E0F73F10B0A309F
:100BF0005E341000680B0B150B0A304E60101B0A98
:100C000030C2AC7E0F73F10B160B0A304E60101B16
:100C10000A30A20892AC22A2AC920AC2AC7E0F7338
:100C2000F130090A0B160B0A304E601080080B16C3
:100C30000B0A305E60EF1B0A30A20A92AC220B0A4C
:100C4000305E34FC7F1B0A300A2B5E2400073E24F2
:100C50003E243E243E243E243E243E240B0A304DB6
:100C6000321B0A3022A9D7CA7E2400017E0F73F5F9
:100C70001B0A207E2409607E0F73F5792000027E16
:100C80000F73F579300004220B0A205E24801F1BAD
:100C90000A207D235E40033E243E243E243E243E23
:100CA000240B0A302D321B0A30220B0A305E60C73B
:100CB0001B0A3054070A3B7D237C456C553E243E7D
:100CC000243E240B0A304D321B0A3022CA3B7D726F
:100CD0007A0D297D637E0D297D271203FA7D367EEC
:100CE0000D297D27120496DA3B220B0A305E609FA5
:100CF0001B0A3054030A5BC42354E07CABE40B0AA8
:100D0000304D351B0A30220B0A305E70E71B0A306B
:100D100054030A2B3E243E243E240B0A304D321B42
:100D20000A30227CA70B0A305E604060034E608070
:100D30007CBA543F7C4B6C554D321B0A30220B0A57
:100D40005054E01B0A507D525E54001F0B0A204D88
:100D5000251B0A2079300002227EB3016EB4E7120F
:100D60007EB3016FB4160B7EB3016B5401B4010264
:100D700080FE220B0A305E600F1B0A300A5BC454EF
:100D8000F07CABE40B0A304D351B0A30220B0A30E5
:100D90005E60FC1B0A3054037C4B6C550B0A304DD3
:100DA000321B0A30220B0A205E50FC1B0A207D23D6
:100DB0005E2400030B0A304D321B0A3022D22BD2A4
:100DC0002A7E0F73F12E1400140B0A304E70021B92
:100DD0000A30227D230B0A305E34F8001B0A304DA6
:100DE000321B0A30227D230B0A305E34F8001B0AC6
:100DF000304D321B0A30220B0A305E700370034EF6
:100E0000700C1B0A3022020D141B21252B313736A2
:100E1000332D282019140D080102050B10181E236C
:100E20002A30353A3E3F0001010000000000010475
:100E3000090F151D242A30353B3E3F403F3E3D3DC6
:100E40003C3C3B3B39371A2D65551B29271E141195
:100E50001A262E373D3F3D372E21160C0501000086
:100E600001030A131D262E33383A16212B32302A5D
:100E7000272A2F2D241A1007010002071019232DED
:100E80003641494C4A453C342A2751715055281265
:100E9000111823292B2A2E353C3E3F3931281E15A7
:100EA0000E0603010000030C16202B3237392029CF
:100EB00032373128212A312D231B13080100010567
:100EC0000C182029343E474F504D453C343126CB39
:100ED00050551D2F2C251A1B202931312E2D353D23
:100EE0003F3D382C22150D0601000106101B242F52
:100EF000383D0D1B273132281E14151D2831342A88
:100F00001F14090100040D17212C35404747443CAC
:100F100034301B825055192E2A1F181B222D302EBB
:100F20002E353D3F3D3A2F24180F07010000030BDB
:100F3000161E29323A3D111F283230261B141C255B
:100F40002E352E23191104000108101C25303840BD
:100F5000423F39322C27C0D15055182C291E14136A
:100F6000161E29302E2C2B373D3F3E3930251B10C5
:100F70000801000209131F2D383C111A232F3329B1
:100F800020160E131D283231281E160B02000108F0
:100F9000121E29333B3F3C322926306E5055162B0A
:100FA00024170D0A0E15242825232B363B3D3B37ED
:100FB0002B20150B040000030E1927333D3F13218E
:100FC0002E373A31271C131C28343E372D22180C9B
:100FD0000100030D1825313C474842382E2A316262
:100FE0005055352E27221F1B16100C080604020030
:100FF00000000103060B0E12171D22262A30353978
:101000003D3F0000010406080B10161B1F23282D6E
:1010100032363B4044484A4B4C4B4A484643403E9C
:101020003C3A3C9C34552D2824221F1C19161310C1
:101030000C0805020003070A0E1116191E22272CA0
:10104000303336393D40000206090B0E11141618D4
:101050001B1F222528292B2C2D2E2F3032333536DD
:1010600038393B3C3E40AC6A3455251E1A171511E1
:101070000E0B09070402010205090D1013171B1EB0
:101080002125292D3033373B3E4000060C10131923
:101090001F23272B2F3336383A3A3A3B3B3B3C3C15
:1010A0003C3C3C3D3D3D3E3E3F40CAD8345509178F
:1010B0001D262E373C3F3B332B221A110B05030113
:1010C0000100000001060A1119222A32393D303090
:1010D0002F2C261E170D05000001060E151E262CAE
:1010E000323A4148505B616464605B56514FD82C82
:1010F00033550611181E22272A2C29251F18110BDB
:10110000050100000103060A111820262C32363B87
:101110003D3F48372E241A110A04000001050B1226
:101120001B2128303741474E54534E48413B332C06
:1011300028250B673355060C1519222B2F363C3EFC
:101140003F393429251D140F0702000000020C103E
:10115000101010101010363532312D28251F18139D
:101160000A0200000003080C172126313B3F4546C8
:10117000464646464646F059335500060F19212A81
:101180002E322A2118140C060200010B131D252AE9
:10119000323A3F3F3F3F3F3F3F3F231F1B17130C58
:1011A000090101060E121B242D373B3F3F3D393606
:1011B0002E252020202020202020F47B3355050DD3
:1011C00019232D31342C221E150D08040200020CA7
:1011D0001019212A2E373F3F3F3F3F3F3F3F1C1B07
:1011E0001816100D040003050C161E262A353D3F67
:1011F0003E3C3B3A393836363636363636368D3A18
:101200003355050D131920262E353C3D372F201957
:10121000110B0502000001060C171D232930363B77
:101220003E3E282522201D18140F08020000040746
:101230000C11181E242C333A3E3F3E3C38312A21F3
:101240001A1A06333355261C1918181818181818A6
:101250001717150F0904010000000001040B1218F4
:101260001F2831373C4001070E141C232C343E4408
:101270004C545B605D554F49433D38322B26221F4D
:101280001E1C1C1C1C1D665474553E2C211D1D1D4E
:101290001D1D1D1D1D1D1D1D1E1E1D1A110C0702CD
:1012A0000000030A121C232C38400C00060F1722E2
:1012B00029323B41474F555C6671793E766D645AE1
:1012C000524B4239353332323131F3DB7455090731
:1012D00006060505040404040302020201000000DE
:1012E0000000030A10141B22282E34393D40000B45
:1012F00011161B22282C333940464D52565C61682A
:101300006D737371717170706F6F6F6F6D6E7980C7
:1013100044551713121211100F0D0C0B0908070476
:1013200003020100000001040B10161D24293139AD
:101330003D40000E161A1F24292E33383E434750D5
:10134000555962696E757CFF7D7C79736D68605A52
:1013500057565D08445500070B0D10121617171845
:10136000181919191C1E2022232527292B30323346
:101370003538393B3D3F3E291F180F07060C121D1B
:10138000252D363E3B352C262019110A0303091062
:1013900018242C333A3E609B3255000505050403A2
:1013A000020305070A0E11191B1C1D1C1C1D1F2200
:1013B000252A3133353738393C4000121C242B3470
:1013C0003C392F2921160F0D141E2A3331272018DE
:1013D00010070A101A262F373D3FFB8F32550000A9
:1013E0000103080B12181B20222223242627292B55
:1013F00030313132323435373B3E3F3F3F3F7B6DFA
:101400005F53403623140B030E1E29352920110784
:1014100006161F2D35434C596872747474749027E6
:1014200032552C231F19130C070300000001050A75
:101430000F161D232A30363B3E403F3E3B38332FAC
:101440002B280901000103090E141B21272E363B0E
:101450003E4141403D3A362F2B26201C16100C0AE7
:10146000090B36DC30551A09050100000002050998
:101470000F161C222A3136393C3E3F3F3D3830277B
:101480001F18120B0605071219222C363F49535C10
:101490006366645F584C433D342B221B150B0400DC
:1014A0000001040B1318F10C3055182C34393C3D55
:1014B0003F3F3F3D3B36302A241C160D06010000FD
:1014C0000001010305090F171E240102080E141A5A
:1014D0002128303740495055595C5C5851483F38B5
:1014E000312B251D17110A0401019DBF3055160728
:1014F00002000000000104080E161F2830383C3E90
:101500003F403F3F3D3B37322C251D160F0C5346C5
:101510003E352E27201A140D06010000030A131A67
:1015200020272D333A40484F54585A5A5857C655D9
:1015300030550701040A1018202A32383C3E3F3E3D
:101540003D3B393530272119120B060301000000FD
:101550000000321D12090501000001050D17202AA7
:10156000323B454E5863696B6A645D574F4740385C
:10157000322F1AB5305521130C0805020100000165
:1015800003080F171E242B32393D3E3F3F3D3A36AC
:101590003029211A161305090E141A222930383F52
:1015A000474D51514F4D494239312B251E171008D7
:1015B000030000010305AF133055383F3D3A362E86
:1015C000261F140B0602000000010205090E141C60
:1015D000232A34383A3B3D3D3D3D291A1009040089
:1015E0000001040C141C22282F373F474F565A5B2A
:1015F00059564E4740373028221F2AA930553E3BC6
:1016000038332B241D1610070301000000010103CD
:10161000060C151C23292F35383B3C3E3F3F1F103D
:101620000A0600000002040C12181E252C353C424C
:101630004A515656534E49403A332C251F1CF9A2A5
:1016400030551F2B3135383B3E3F3F3D3A342D2737
:10165000231D171009040100000103060A0F151BC2
:10166000202345423E38342D241C15110B06020060
:1016700000000103070D1218202830363C4247486D
:10168000494A659D30551C2A33393C3E3F3F3E3D1B
:101690003A352E28231C150F09040100000101040E
:1016A000080D13191E22403E3A332F29221B151014
:1016B0000A050100000102050A11171C242A303511
:1016C0003B4043444545CBC63055050304070A104B
:1016D0001721282E33383C3E3F3F3E3B38312921ED
:1016E000180F090401000000000026353D454B514C
:1016F00053524F4C46413B342E251E17110903000F
:101700000002060C12181E242C31F4B630550A05BE
:101710000505080F16202931363A3C3E3F3F3E3C36
:101720003A332D241C140F08040000000102354632
:101730004E565D65686660574F473F372E251E162B
:101740001006020001050B151D282F394145F0BC7C
:1017500030550703030304070F17202830363B3D9D
:101760003F3F3D39362D251D160D080200000102B0
:1017700003052E3F4850595F6768635D524A3E3506
:101780002B2018100A03000001070E19222B313AF2
:101790004247EFC930553B3C3C3B39362F27211996
:1017A000110B05010000010204060A10161F262D68
:1017B00033393C3E3F3F22313B41474D56595A5801
:1017C00055514B433D3529201811090300000103F1
:1017D000070F151B21262BA03055373837342D26FF
:1017E0001C160E0904020000000102050A10172051
:1017F000262E353A3C3E3F3F3E3E30404950595EF2
:10180000605D5650474139332A201A100A050100FD
:1018100000030810171F252F383C37C330553B3DB8
:101820003D3B3832271C130E08030000000103075C
:101830000B1218202831393D3F403F3F3E3E334593
:101840004E575D656C6A66635C534A40382E251AB4
:10185000110804000002091019212A32393E0790AC
:10186000305508020000000205070C12191F2B3228
:10187000373B3D3F3F3E3D3A372F29231D160F0989
:101880000606473D362F271E1610090300000104E7
:10189000070D141D262D333A424E535556544F48CA
:1018A0004242439E30550200000103070C131C24E2
:1018B0002D373F3D3B393634312E2B2720160E086D
:1018C0000303030404045D50463E362C20160D0627
:1018D00002000B16222A333C444C555D69797D7613
:1018E0006D6359504847123E3055030102060A16EF
:1018F000202530393E3F3F3C3A322822190E05025E
:10190000000000010101010101012923180F0B034F
:10191000000001081117212A2F3A4243423E383471
:101920002C241F1C1C1C1C1C1C1C7FD23055392B4A
:10193000241C150E0906050609101922272E353B11
:101940003E3F3D38322C261F19130B0501000600BF
:101950000102060B11171D242A2F32343536373B6E
:1019600041474E565D6164656563605C5754D14A7A
:1019700046553C37332F25201B100C08020000036E
:10198000070C161B1F2A2F333D3D392F2B282828E3
:101990002828020000000204070C0F131C20242D2D
:1019A0003032353636363636393D42484A4B4B4B67
:1019B0004B4B10A24655322C271C160C0703000077
:1019C0000002040D111A1F252F333C3D342F2A210C
:1019D0001D1C1C1C1C1C0100000002060A0E161A0D
:1019E00022262B31323536383A3B3E414A4C4D4E59
:1019F0004E4E4E4E4E4E433346551A13100D0B0AA3
:101A00000C11162025292E32373C3F3C38332E2925
:101A1000241E190F0B070200000000060B101519F9
:101A20001D1E1F1E1F1F202124292F393E41444700
:101A3000494B4C4E4E4F4E4D4D4D0A2446550001DC
:101A4000030507080A0B0C0E0F111214161A1E229A
:101A500024272A2C2E313336383A3C3E3F3F010EA4
:101A6000141B23282E353A40484F565D62615A5365
:101A70004E47403B352D29221B17100905016D7D6E
:101A80005455403938363533312E2C2B292725240F
:101A9000221F1D1A181514120F0C09070402010049
:101AA0000000000D151D232A323B434850575D634B
:101AB00068655E58514A453F38322B261F1610087C
:101AC00004016AEC54550100000000000000000011
:101AD0000102040507090D1013181F24272B2E31AE
:101AE0003436393C3E4000070F13161A1E222528B3
:101AF0002F363B3F43474B4C4C4C4946433F3A35CE
:101B0000322D27211D1AB5D05455000101010203C1
:101B1000030405090F161D22282D30323437393AB7
:101B20003C3D3E3E3F3F3E3E3C3A222E363F464CF9
:101B300051565B5E605E5C58534D4945413A3531C4
:101B40002D27231F19110D0803003B38545500029F
:101B5000030506080B10131617191B1D1F2122223F
:101B600022222325282E313436383A3C3E3F0617B0
:101B7000202730383E39322B251E1810090910183D
:101B80001F262F363C382F271F180F080102C77554
:101B9000315500000000010103080D121517181A35
:101BA0001B1C1D1D1E1F22272E35383B3D3E3F406E
:101BB0003F3E06151B23292F373C372E27201A13AB
:101BC0000E141A21272F383F3D352E262018110BD1
:101BD0000300673F31550DD0708F00FFD02F04A751
:101BE000248702A90000000000000000000000009F
:101BF0000000000000000000413732014435410080
:101C0000FFFFFFFFFFFFFFFFFFFFFFFFFFFFFFFFE4
:101C1000FFFFFFFFFFFFFF08303031000000000032
:101C200000000000000000000100010101010101AD
:101C30000101010101010101010101010101010194
:101C400001000108081022102200000110011000FC
:101C50000300030110011001000300040005000649
:101C6000000700080009000A000B000C000D000E20
:101C7000000F0010001100120013001400150016D0
:101C8000001700180019001A001B001C001D001E80
:101C9000001F002000210022002300240025002630
:101CA000002700280029002A002B002C002D002EE0
:101CB000002F003000310032003300340035003690
:101CC000003700380039003A003B003C003D003E40
:101CD000003F0040004100420043004400450046F0
:101CE000004700480049004A004B004C004D004EA0
:101CF000004F005000510052005300540055005650
:101D0000005700580059005A005B005C005D005EFF
:101D1000005F0060006100620063006400650066AF
:101D2000006700680069006A006B006C006D006E5F
:101D3000006F00700071007200730074007500760F
:101D4000007700780079007A007B007C007D007EBF
:101D5000007F00800081008200830084008500866F
:101D6000008700880089008A008B008C008D008E1F
:101D7000008F0090009100920093009400950096CF
:101D8000009700980099009A009B009C009D009E7F
:101D9000009F00A000A100A200A300A400A500A62F
:101DA00000A700A800A900AA00AB00AC00AD00AEDF
:101DB00000AF00B000B100B200B300B400B500B68F
:101DC00000B700B800B900BA00BB00BC00BD00BE3F
:101DD00000BF00C000C100C200C300C400C500C6EF
:101DE00000C700C800C900CA00CB00CC00CD00CE9F
:101DF00000CF00D000D100D200D300D400D500D64F
:101E000000D700D800D900DA00DB00DC00DD00DEFE
:101E100000DF00E000E100E200E300E400E500E6AE
:101E200000E700E800E900EA00EB00EC00ED00EE5E
:101E300000EF00F000F100F200F300F400F500F60E
:101E400000F700F800F900FA00FB00FC00FD00FEBE
:101E500000FF010001010102010301040105010667
:101E6000010701080109010A010B010C010D010E16
:101E7000010F011001110112011201110110010FD6
:101E8000010E010D010C010B010A010901080107F6
:101E9000010601050104010301020101010000FF27
:101EA00000FE00FD00FC00FB00FA00F900F800F75E
:101EB00000F600F500F400F300F200F100F000EF8E
:101EC00000EE00ED00EC00EB00EA00E900E800E7BE
:101ED00000E600E500E400E300E200E100E000DFEE
:101EE00000DE00DD00DC00DB00DA00D900D800D71E
:101EF00000D600D500D400D300D200D100D000CF4E
:101F000000CE00CD00CC00CB00CA00C900C800C77D
:101F100000C600C500C400C300C200C100C000BFAD
:101F200000BE00BD00BC00BB00BA00B900B800B7DD
:101F300000B600B500B400B300B200B100B000AF0D
:101F400000AE00AD00AC00AB00AA00A900A800A73D
:101F500000A600A500A400A300A200A100A0009F6D
:101F6000009E009D009C009B009A0099009800979D
:101F70000096009500940093009200910090008FCD
:101F8000008E008D008C008B008A008900880087FD
:101F90000086008500840083008200810080007F2D
:101FA000007E007D007C007B007A0079007800775D
:101FB0000076007500740073007200710070006F8D
:101FC000006E006D006C006B006A006900680067BD
:101FD0000066006500640063006200610060005FED
:101FE000005E005D005C005B005A0059005800571D
:101FF0000056005500540053005200510050004F4D
:10200000004E004D004C004B004A0049004800477C
:102010000046004500440043004200410040003FAC
:10202000003E003D003C003B003A003900380037DC
:102030000036003500340033003200310030002F0C
:10204000002E002D002C002B002A0029002800273C
:102050000026002500240023002200210020001F6C
:10206000001E001D001C001B001A0019001800179C
:102070000016001500140013001200110010000FCC
:10208000000E000D000C000B000A000900080007FC
:10209000000600050004000300000000000000002E
:1020A0000000000000000000000000000000000030
:1020B00000000000181200050000000006000600E5
:1020C00006000600060006000600060006000600E0
:1020D00006000600060006000600061812020500AB
:1020E00000000005000500050005000500050005CD
:1020F00000050005000500050005000500050005B8
:102100000005181202050100000005000500050089
:102110000500050005000500050005000500050097
:102120000500050005000500051812020502000063
:102130000005000500050005000500050005000577
:102140000005000500050005000500050005000567
:10215000010A1E400800640DAC00C8019A01360156
:102160003605DC05DC05DC019001900A0002000167
:102170000A06213C000000000000000000000000F2
:1021800000000000000000001601000187010005AA
:1021900001D0000100150101040002000000000050
:1021A00000000000000000001D0000000000FF0013
:1021B00064000000000000030300000000000000B5
:1021C000000000000000000000000001D00100003D
:1021D000000000000000000000000200044004387D
:1021E000021C424202100210010F010F0870043855
:1021F0003E3E01F001F000FF00FF1000C80258034E
:102200002002D007D0012C00440004010502020482
:1022100004068000C81388100306012C025803200E
:102220001F4028015E02BC001412050F0334019AFE
:1022300006680064040A0500000438000008700005
:102240003201F401F4032000C8006C001E0080027B
:102250001C021C006407D0021C021C006407D00092
:1022600000043800000870006400A000A009C40148
:102270002CC2D57CB430E708B2D56E24FFFF0B2406
:102280007CB630E712B2D56E34FFFF0B348D326E60
:1022900024FFFF0B2480028D3230D5066E34FFFF01
:1022A0000B34227D51AD037D027D21AD052D12AD94
:1022B000352D21227D02AD31AD102D21226D00740E
:1022C000104D00780B4D2278278D317D126D222222
:1022D0007D437D326D222F112D445002A50FBF107A
:1022E00040049F100B901478ED7F016D227D342205
:1022F0007D417D138D247D022F004004BD044004E8
:102300009D040B141478F17D237D317D106D002226
:10231000C2D57CB030E708B2D59F229F207F027CD7
:10232000B430E713B2D59F229F217F121222BF9FA4
:10233000229F207F0280031222BF30D5069F229F5A
:10234000217F12226CAA4D11681A1E54680E0B3898
:10235000201B18200B350B151B5478F250067E39C4
:10236000407A1940226CAA4D11681E1E54500C7EF2
:102370001B007A190068120B1C0B140B1A001B1897
:10238000000B1D0B151B5478F2227584017E447FCF
:10239000FFE47A49B01B4478F97EF87402C225C282
:1023A00026C227C221C222751200C22CC22DC22809
:1023B000C229C22EC214C215C216D217D218C2190F
:1023C000C21AC21BC21CC20BC20CC20DC20EC20F6B
:1023D000C210C211C212C213C22FC230D22AC22BE3
:1023E000751E00751F017E0400FF7E1426A50B0AD2
:1023F000405D44681A692000020B0E0B44800A7E7F
:102400000BB07A29B00B240B0C1B4478F280DF024E
:102410002FA0CAF87F20800A7E1BF07A2BF00B34A5
:102420000B5469FFFFFC7DEF1BE479EFFFFC4DFFD0
:1024300078E67F10DAF8227D437F1080071B447A0C
:102440000BB00B144D4478F522FF00010200FF0190
:10245000020001FF02000102FF7D23BE24000048AC
:10246000037D32226D339D32220000000000000007
:10247000000000000000000000000000000000005C
:10248000000000000000000000000000000000004C
:10249000000000000000000000000000000000003C
:1024A000000000000000000000000000000000002C
:1026A000000000000000014D400100014D46010006
:1026B000014D4805000351D3000000000651D6002B
:1026C0000000000000000651DC00000000000000D7
:1026D0000173FD01000229EC0000000171EAFF0016
:1026E0000A00080000000000000000000000087060
:1026F000220500000200020002000C7052010300DB
:10270000030000030000030000000173FF0000014C
:1027100072F200000273FB000000017372000001FE
:1027200073CF0000016EBBFF00016ED40000026E8B
:10273000D5000000046ED70000000000016F4900C2
:10274000000173DA01000173DB00000173E3000094
:102750000271E80000000603F93F1F50112010002D
:102760000103FF34000272620005000172A7FF003E
:102770000172A8FF0001716D640001740100000185
:1027800073A200000173A705000173AB040001737D
:10279000AC01000173B000000173E8010001740294
:1027A00001000173C0000002242B2431000127F135
:1027B000020001281A00000172ADFF000172AE0094
:1027C000000172AF00000172B040000172B1400020
:1027D0000473ED00009000000473B4000094000046
:1027E0000473B800009800000473BC00009C000053
:1027F00004015A00008000000473F1000091000001
:102800000473F500009200000003E8005100030388
:1028100020005000030258004E000401C2004B008B
:102820000401400047000400C80044000400780090
:102830003E00050064003C00051264C97AB329FF1C
:10284000E47AB3298E02284DD20112285D741F7AD2
:10285000B36E2F7AB36E3022123ED7D201E47AB330
:1028600070627AB370636CAA12BEB6BEA00378F829
:10287000E47AB370D77AB3706430010312284D2222
:10288000CA3BC2041233AAC20C300B11C20B12CEC7
:10289000F9123A35123EED124F04122848D20412B2
:1028A00033AAC20112CE3D300D3CC20D12DC9B7D1D
:1028B000235E240001682F5E340002680512DA9B53
:1028C0008011751E0174017AB373AC7F03123E92BE
:1028D000123FB0123EEDC20112285DE51E123A8E83
:1028E000741F7AB36E30D20112CE3DDA3B227405EA
:1028F0007AB373E71228807EB36E2F600D800612C4
:102900002C36122880124E9850F57EB36E30600D32
:102910008006122C361228801249FB50F50229201D
:102920007E6373AC7E7370617426A5BE0308ACB77A
:10293000491570798006ACB7491570757D217A27E5
:102940004D4F3014107E240027CA2912DB22122496
:10295000121BFDC214227EA32992BEA00578087422
:10296000017AB32992801BBEA004781C74017AB34B
:1029700029927E3421571229A5122C3A1228481286
:1029800028EE74027AB32992227A37699DE47AB3E9
:1029900074007E3421677E2400FF0B1A307A376979
:1029A000A77E3421697E2400FF0B1A30229021512A
:1029B000E4937AB36999122F607E34215B1229A5C2
:1029C0007A37699B7E34215D1229A57A37699D7E0D
:1029D00034215F1229A5122B137A37699F7E342187
:1029E000611229A512DC4A1229A57A3769A37E341F
:1029F00021651229A5122B137A3769A51229921283
:102A00002B137A3769A990219BE4937AB369AD902F
:102A10002154E4937AB369AE7E3421551229A57A04
:102A20003769AF7E34216B1229A57A3769ABE47A16
:102A3000B369B17AB369B27AB369B37AB369B47A74
:102A4000B369B57AB369B67AB369B77AB369B87A54
:102A5000B369B97AB369BA227E34215B1229A5120F
:102A60002F787A7371ED7E34215D1229A5122B41E6
:102A70007A7371EE7E3421631229A5122B417A7389
:102A800071EF7E3421631229A5122B417A7371F004
:102A90007E34216B1229A5122F787A7371F27E345D
:102AA000006ACA397E34216F7E2400FF7E0871F3EC
:102AB0001224121BFD227EB3723DB40105122B1AA3
:102AC000800F7EB369B3B40105122F4380031269EE
:102AD000A87EB3740070177EB3698C70117EB369E1
:102AE000B3700B7E34216D1229A57A37699B12C40D
:102AF000C168117E3421611229A512DC4A1229A570
:102B00007A3769A37E34215F1229A5122B137A37F5
:102B1000699F226E34FFFF0B34227E34215B122921
:102B2000A5122F5C7E34215D1229A5122989122F4E
:102B30006A122B397A7371EE227A7371ED7E3769DE
:102B40009D0E340E340E340E340E3422302C0F7E93
:102B5000B3725BB4010874017AB36E2E8003125213
:102B6000F9C22C7EB329FFB40102800261FD126517
:102B7000C7124AA01246191228EE7E342159122992
:102B8000A5122C3A12935A7EB32426700280551255
:102B9000B7FD7EB37211B40102D2861271A97EB361
:102BA00069B27006122AB612D1DB12B2527EB32479
:102BB000267002802F7401122C12122CD5129EB195
:102BC000129EB47402122C121289157403122C1264
:102BD000129FC57404122C1212A44B1270F07EB313
:102BE0002426700B12B1D61262FA12D08C616312D5
:102BF00080581265A112CC551263036163D204128E
:102C000033F4022C0512D0537EB37211B40102D2F8
:102C100086221BB1681014681314681624037815F3
:102C2000E47AB369962212001902AAEA1278B30272
:102C30008F7A028D2F227E3409C46D227A2729EEE5
:102C40007A3729F0221252BB7EB329FFB4037012E7
:102C5000340C1228EE122C367EB3298E30E75B7EC0
:102C6000B3299F7005C2041233F4122880300F0874
:102C7000C20F1228581233847EB3299F7005129315
:102C800043800612935A12976E7EB36E2EB40117CC
:102C900012B7FD740212C44312D1DB12501B12C2D0
:102CA0006F12B252122CD51251C67EB3299F700AF0
:102CB0007EB3298E547F7AB3298E1262E08089D246
:102CC0002CD2041233F4022CC9E47AB373E46D33CA
:102CD0007A3773E522C22D7EB369B170031272DDBB
:102CE000122F0312B98D122F03126F32122F0312FB
:102CF0007E55122F03126A01122F03022CFECA3BCB
:102D0000C2007ED367EE0A3D3E34CA397E1866643F
:102D10007E085D101224121BFD6C117527006CCC0F
:102D2000A1D87E4403FF7EE0FF6CFF805A7CBF1277
:102D300069BA605112DC92BE00FF684909055D1155
:102D40000A107E7002AC7C090372F80A30129AF500
:102D500008049D3180046D339D3212DC920AF074B8
:102D600002ACBC090572F70A107D219D2FBE24001C
:102D70000008049D1F80046D119D122D13BD412874
:102D8000047D417CEF0BF0BCDF38A2BEE0FF68465B
:102D90007E7002AC7E09B35D1009735D11126C1573
:102DA0007D137402ACBE09B55D10129EE5BD1348DB
:102DB000257E7002AC7E09035D107EA1277402A4FB
:102DC00019055D4C09035D1119055D4D74FF19B3BB
:102DD0005D100B1005270BC07E037333BC0C28025B
:102DE000A1227CC1C1766D007EE0FF6CFF805A7C21
:102DF000BF1269BA60517E3002AC3F09B15D10BEAE
:102E0000B0FF684309715D11126C157D43C200BDAE
:102E1000045802D20030002F7EB369B260147E7372
:102E2000698DBE7002400B7E3767F4127F35BD346A
:102E300018157E7002AC7F09B35D10F52809B35DEB
:102E400011F5297D047CEF0BF0BCDF38A2BEE0FF5A
:102E500068227EA1287E31277402AC3B19A15D4C0B
:102E6000E52919B15D4D7EA0FF7E3002AC3E19A16F
:102E70005D1005270BC0902151E493BCBC2802A132
:102E8000E6902152E4937CAB7402A4CA597E185D8B
:102E90004C7E085D101224121BFD7ED127128CE59A
:102EA0007402AC7B7E0872F774FF122437BED00028
:102EB00028370A3D3E34CA397E185D107E086664A4
:102EC0001224121BFD0A3D3E34CA397E185D107E65
:102ED0000872F71224121BFD6CCC8009D2027CBC54
:102EE0001269D00BC0BCDC38F37AD373337AD36762
:102EF000EE902151E493BEB367EE50047AB367EECF
:102F0000DA3B22CA796CFF6CEE802C7CBE1269BA67
:102F100060237E340002CA39AC7E2E3466646D2292
:102F20007E3002AC3F2E1466646D001224121BFD2D
:102F3000D202126FC60BE0129CFA38CF7AF367EE1A
:102F4000DA79227E3400AA122F5C7E3400641229C2
:102F500089122F6A122B397A7371EE227A37699BA4
:102F6000902153E4937AB3699A226E34FFFF0B34B5
:102F70007A3769A97E37699B1E341E341E341E348D
:102F80001E34227E3421571229A5122C3A12662CA7
:102F9000122FC51264C97AB329FF1257B002284D07
:102FA00012662C122A58122FC5123FC01228397EE1
:102FB000B3721424FD68090BB178F4122B4C80EF26
:102FC000122C4580EA128FEC12626C12907312532D
:102FD000CE1290C11229AD1290A2128CED12B9D46A
:102FE000123E21022FE6D20112285D6CAA7E637385
:102FF000AC7E7027AC6709636F870A2A1297AF7C93
:103000007BBC6778047AA370617E5026AC5A197233
:1030100070650BA0BEA00378D47E737061BE700390
:103020004005E47AB370611230337E7370617A7355
:1030300070E9227EB370617CAB6C77BCA7782F12ED
:10304000DC261230D912DA4659127079590270779B
:103050007E0815A0591270815902707F7E081A08E7
:1030600059127085590270837E081E7080527E50FE
:1030700004AC5A0A172D212E2424491297B37C6BD5
:103080007EB373AC0A0B1230D912DA46591270793A
:10309000590270770A067E140D38AD107DF12EF4BA
:1030A0002A006DEE59F2708159E2707F7DF12EF4A5
:1030B0002E6859F2708559E270832E1432D06D005B
:1030C00059127089590270870B70BE70035002014B
:1030D0003B227E35297C670A0F7E14023CAD10220C
:1030E000CA3B7CF77CEB7528077E3401777A352B59
:1030F000752D007E3424697E2400FF7E145D3A7EA7
:1031000054023C1223676D66800E7E347FFF7D265D
:103110003E24593211380B647E376E317D230B26E5
:10312000BD2638E62E3400081230D7123361E4127F
:1031300024377EB373E4B4010A7E3773E5122F7A25
:103140007A352B740AACBE4925702C7E352BAD32F6
:1031500009B5702A600C1E341E2450034E60801482
:1031600078F47A352BE5280A5B1B54F52741CCE52A
:10317000277E34000160053E341478FB7A3529122D
:103180002C36E527BEB00758156D66800C1230D27C
:103190007D212D2612DB520B6412336F38EF6D66E2
:1031A0001230D27E276E312D262D2112DB521233A2
:1031B0006878ED7CBE1230D7123361124C5D052D5C
:1031C000E52D5401B4010874017AB373E8800E7ED2
:1031D0007373A30A371E340B347A7373E81233EF18
:1031E000E527BEB007586A6D6680617D563E54493A
:1031F000350CD07D4312DCFA08077D239E252B80F9
:10320000046D229D247A252E492511387D4212DC39
:10321000FA08059E252B80046D229D247A2530BE58
:10322000252E4013593511381230D77D212D26090E
:103230005251E419565D3ABE352B500E1233767D4D
:10324000232D262E2451E41269F80B6412336F38B3
:103250009A6D667E176E312D167D513E5449050CD0
:10326000D07D3012DCF208077D409E452B80046D36
:10327000449D437A452E494511387D3412DCF208CD
:10328000059E452B80046D449D437A4530BE452EF6
:1032900040115905113812337B2D31097351E4194E
:1032A000715D3ABE052B500E1233767D232D212EF3
:1032B0002451E41269F81233687898300B02615E89
:1032C000300C02615E300D02615E1527E527BEB04D
:1032D000014802216F7EB329AEBEB002686C126352
:1032E000B768677E081138740AACBE1257066D665F
:1032F00080257D263E2449321138BE3403E8281546
:10330000BE343E80500F09765D3A1230D77D212DB4
:1033100026197251E40B6412336F38D66D667E271E
:103320006E312D267D123E1449311138BE3403E82A
:103330002813BE343E80500D09725D3A1230D72DED
:1033400021197251E412336878D474017AB373E8A6
:103350007CBE1230D7123361124C5D124F04DA3B3F
:10336000222E1451E46D00220B64BE640004227E00
:10337000376E31BD36227E552964FF0A2F7E340216
:103380003CAD3222E47AB303CD12DBDD12DAC31294
:103390003C1A123FB0C2041233AA1259C5BEB00182
:1033A0006803125C83D2040233AAA2AC9205C2ACB9
:1033B0007E0F73F130040A0B160B0A304E70038037
:1033C000080B160B0A305E70FC1B0A30A20592AC8B
:1033D000227E3401167E085D107E2400121203FA4C
:1033E0007E3401167E085D347E240012120496128B
:1033F0003384D2048006300B03123E077EB303CD24
:10340000BEB00168F1300403020BE522302576C21C
:1034100025122956D2041233F47E7329BEBE73736B
:10342000AC68077A7373AC1228587EB329ACBEB36C
:1034300069C3681454057AB329AC7E7329AC7A73D6
:1034400069C31261EC12568E7EB329ADBEB369C456
:10345000681454057AB329AD7E7329AD7A7369C4B3
:103460001261EC12568E7EB3299C54FE7AB3299CCD
:103470007EB3299D6003125D317EB329BC600312C7
:1034800047BB1233847E374D4D4D336815D204123D
:1034900033F41234BC7EB3299C54FD7AB3299C02C8
:1034A0003384227EB329C01249237E374D4D4E60AE
:1034B000017A374D4D4E70207A374D4DCA3B7EF321
:1034C00073AC7E3027AC3F09B16F86F52709B16F29
:1034D00087F5287E040027CA092E146F866D007EAA
:1034E0001829BF1224121BFD7427ACBF09E56F8A8F
:1034F0007ED0B5ACDE2E640100E41255521236E7E0
:103500005E240100680C5E60FE7A374D4D7CBF1270
:1035100038141236E75E240001682E5E70FE7A379A
:103520004D4D7EB329BF1237FC500C7EB329BF121C
:10353000915A12636580127EA1277E7027AC7F1995
:10354000A36F86E5277AB329BF1236E75E2400020F
:1035500068375E70FD7A374D4D7EB329C012C0B416
:1035600050157EB329C0124002500C7EB329C01200
:10357000492312636580127EA1287E7027AC7F19D3
:10358000A36F87E5287AB329C01236E75E240004CA
:10359000682A5E70FB1237AF7E302CAC3E12387654
:1035A00074017E7027AC7F12DCE312DA851236EEEE
:1035B0001237F512DA761291491255C61236E75EC5
:1035C000240008680E5E70F77A374D4D7EB329C22D
:1035D0001291021236E75E240010680C5E70EF1242
:1035E00037B61236EE1237F51236E75E2400206841
:1035F000375E70DF7A374D4D4E60021237AF12DA08
:103600008512370E740AACBF12DBC712370E7E70FC
:1036100027AC7F12DBD27CBF12D09812DA76123739
:10362000087E240010120CCC1236E75E240040689D
:10363000205E70BF7A374D4DBEF0037CBF1257B786
:103640007807AC6712DC6E8005AC6712DC65124C43
:103650005D1236E75E240080680A5E707F7A374D1F
:103660004D123FCC1236E75E240200683B5E60FDDF
:103670007A374D4D7427ACBF49E56F8D0BE47EF76B
:1036800029E8ADEFBE787FFF28047E787FFF7E08B3
:10369000006412DD027E0800A012DD027E080064D4
:1036A0007D3F12D0E2120CCC1236E75E2404006893
:1036B0000E5E60FB7A374D4D7EB3299812BF3412EF
:1036C00036E75E24100068075E60EF7A374D4D12D2
:1036D00036E75E242000680C5E60DF7A374D4D7C53
:1036E000BF12582ADA3B227E374D4D7D23227E3091
:1036F0002CAC3E2E1400E26D00740AACBF4935704C
:1037000032492570301209AD7D362E3400067E30E8
:103710002CAC3E2E1400E26D0022CA3BF52B7F310B
:103720007A0D277E180CD07A1D2E1233847E0D2739
:1037300012909A30030C7E1811387A1D327F0312D2
:10374000909AE46803123384D2041233F4300323D2
:103750006D33801712DCEA7E0D322D120B0A507D7C
:10376000233E241296021B0A200B347A352C12DCDD
:103770001C38E16D33801F12DCEA7E0D2E2D120BFA
:103780000A203E347E0D272D130B0A302D321B0AE2
:10379000307E352C0B347A352C12DC1C38D97E0D5A
:1037A000271257003003057F03125700DA3B227AB5
:1037B000374D4D4E60107A374D4D7CBFCAF87CFBBB
:1037C0001263657EA329C17E7027AC7F19A36F8821
:1037D0006CAA7E5002AC5A494229C67E7027AC7F43
:1037E0002D3259436F8D0BA0BEA01040E57CBF1257
:1037F000543BDAF8227E240004020CCC7C7B740853
:10380000AC7BBE34004E3802C322BE34001E5002D0
:10381000C322D3227C7B7427ACB709956F8A7E6361
:1038200029B77402ACB7196570227E6329B8740297
:10383000ACB7196570237402AC7B2E3470227E14F1
:1038400000291223447E302CAC397D312E3400D631
:103850002E1400D86D00120B447E70B5AC792E3456
:1038600001007E302CAC391238767E240002020C26
:10387000CC7E302CAC3F2E1400D66D0022CA797C51
:10388000EBBEE004400221571257F4BEF0034002A1
:1038900021577402ACBE09B57023543F0A3B742C07
:1038A000ACBF593500D67402ACBE09B57022541FA6
:1038B0007C6B6C77123965742CACBF593500D8120B
:1038C000387174017E7027AC7E12DCE37E302CAC44
:1038D0003F1237137E7027AC7E12DBD27E302CACC9
:1038E0003F2E1400D812395A09756F860A371239DB
:1038F00065120DD37E302CAC3F2E1400DA12395AEB
:1039000009756F870A37123965120DE57E302CACC8
:103910003F2E1400DA6D00740AACBE12DA947E30C9
:103920002CAC3F123713740AACBE12DBC77E302CAE
:10393000AC3F2E1400EA12395A09B56F89120CAA4D
:10394000E41255527E70B5AC7F2E340100123871EE
:103950007E240016120CCCDA79226D007427ACBEDE
:10396000226D000A3F3E343E343E3422123A057D39
:10397000015E040001780AE47AB373AC751E00801E
:10398000315E14000278077401123A0E80247EB36F
:1039900073ACBEB001680270191239FC680B740276
:1039A0007AB373AC751E02800974037AB373AC7575
:1039B0001E03740112387D7EB373AC2400682D247D
:1039C000FD681604782A123A055E140002682C126B
:1039D00039FC782774010205BC123A055E14000216
:1039E00068191239FC68147401020530E402387D4C
:1039F000123E8E123FB07401123A0E226931000E4F
:103A00005E340008227E1F73F169110006227AB32A
:103A100073AC751E0122CAF812D0027EF0017CBF81
:103A200012387D0BF0BEF00478F4E51E7004E41249
:103A3000387DDAF8227E0F73F1693000065E3400BB
:103A4000016818123B465E340002680312DA9B7468
:103A50000312D134740112387D802E12D053123FDC
:103A6000B7740112D134E412387D7E0F73F12E1435
:103A7000000A0B0A304E60101B0A30E47AB373A3BD
:103A8000123C1A123E00123E4DE51E023A8E7CABED
:103A90001255291BA068121BA068131BA068142EC6
:103AA000A00378121257C8800D12D02D800812572B
:103AB000E1800312D040023AB9E47AB303D56CAA8C
:103AC000800D125C8A2EB303D57AB303D50BA07E8A
:103AD000B303CABCBA38EB22301D2AC21DD21F1252
:103AE0003B5C5E34000274016805120530800312ED
:103AF0003A0E7E3400017EA11E7408A4593503AA33
:103B0000E51E023A8E302033C220C21F123B5C5E9B
:103B1000340002740168051205BC8003123A0E7E5F
:103B2000B373A4B4010E7E3400027EA11E7408A4F7
:103B3000593503AAE51E123A8E8007301F04E51E90
:103B40007003023384222E1400140B0A304E7001CD
:103B50001B0A30751E0174017AB373AC7E1F73F1BA
:103B600069310006227C6B7E70FF7CB6248CBEB06F
:103B70000A400281117EA003A4903B7D73023BBBEF
:103B8000023C11023B9B023BA9023BB2023BC40236
:103B90003BE0023BCF023BE5023BE57E1F73F16950
:103BA00031000E5E34000480687E1F73F11239FC10
:103BB000805F123B5C5E3400028056123B5C5E34D8
:103BC0000001804D123B5C5E3404000A36800B120B
:103BD0003B5C5E3408000A361E341E341E348031CD
:103BE0007E71EF802C7E7373A17CB7047AB373A1CE
:103BF0000A270972015E7EB329B2047AB329B27032
:103C0000097EB329B1047AB329B1A5BE7D03751A23
:103C10007C7CB7221B0A30123DEF7E0F73F12E140D
:103C200000140B0A3022CA7BCA6BCA5BCA4BCA2B70
:103C3000CA1BCA0BC0D0C083C0827E0F73F169302B
:103C400000045E34800068240B0A305E3480006813
:103C50001B123E926E70401B0A307E0F73F10B15E3
:103C60000B0A304E6080123C14123E007E0F73F13E
:103C7000693000045E34000268170B0A305E3400BD
:103C800002680E0B150B0A304E7002123C14123EE5
:103C9000007E0F73F1693000045E34000168200B70
:103CA0000A305E34000168170B150B0A304E7001A4
:103CB0001B0A30123F9A123C1A4E70011B0A307ECA
:103CC0000F73F1693000045E34000868170B0A3086
:103CD0005E340008680E0B150B0A304E70081B0A84
:103CE00030123EB57E0F73F1693000045E3400047B
:103CF00068170B0A305E340004680E0B150B0A308F
:103D00004E70041B0A30123E9A7E0F73F169300028
:103D1000045E34400068310B0A305E34400068288D
:103D20000B150B0A304E60401B0A30D20C7EB37369
:103D3000A0BEB0C85005047AB373A07EB373A0B41C
:103D4000010612284D123E077E0F73F16930000400
:103D50005E34200068190B0A305E34200068100BB6
:103D6000150B0A304E60201B0A30D20C123E077E23
:103D70000F73F1693000045E34100068260B0A30BE
:103D80007D235E241000681B5E3408002E34FFFF84
:103D900092110B150B0A304E60081B0A301259E6BF
:103DA000125A257E0F73F1693000045E34004068BA
:103DB000290B0A305E34004068200B150B0A304E88
:103DC00070401B0A307E1F73F16931000A5E340FA8
:103DD000C0122F781E347A7373A3D082D083D0D0D0
:103DE000DA0BDA1BDA2BDA4BDA5BDA6BDA7B32D2FC
:103DF0000BD20F123B5C5E3400017803023EAB2213
:103E00005E70FE1B0A3022302B16A9D2EAA9C2EA44
:103E100012CEE2C22B123C1A123FB0C22A023EC698
:103E200022CA3B12DC9B5E34000168107F03123B08
:103E3000465E340002681312DA9B800E123FB77F91
:103E400003123C1E123E00123E4DDA3B22123E8609
:103E50001258EC123E861258E07EB373AC7E7002AC
:103E6000123E77748C1264D01246FD5E70EF1B0A0E
:103E700030123E86023E77700C1258FB120CEA128A
:103E800058BC020496227EB373AC7E7001227E0F72
:103E900073F12E14000E0B0A3022D20DD20F123BFA
:103EA0005C5E3400026803023EAB22120BB0202A93
:103EB00003023EC622D20DD20F123B5C5E340002DA
:103EC0007803023EAB22120BE5125C8374027AB3D4
:103ED00003CE7AB303CF226D337A374D43D2041227
:103EE00033F412396CE51E123A8E023EED12DCC834
:103EF00012DC261230D97D212E2451E47A274D4F31
:103F00006D227A274D417E2469D27A274D4B7E243B
:103F10000027CA2912DB221224121BFD7E34000264
:103F2000CA397E6373ACAC672E3470226D227E0872
:103F300029B71224121BFD7EA373AC740AA4493561
:103F4000702E7A3729C47EB373AC12D0C77EB37398
:103F5000AC12D0987EB373AC125896123F9209758A
:103F600070527A7329AE123F92097570537A732991
:103F7000AF123F92097570547A7329B07E7373AC97
:103F80007A7329BE023F87E51E7AB3299A227E08FA
:103F900000527EA373AC7403A422D20BD20F123B47
:103FA0005C5E3400016808E47AB373A0023EAB2281
:103FB0005E70FB1B0A3022751E00E47AB373AC22DC
:103FC00012919B12CEF9120026023A16CA3B7E6766
:103FD00069C57E7769C774011255527EB369D17E77
:103FE0003401007E0869D27D26600B12049612DA35
:103FF000F91203FA80091203FA12DAF9120496DAB6
:104000003B227C7B7408AC7BBE3400125002C3227E
:10401000D3227C2BA5BAFA057EB34D4622A5BAFC65
:1040200003740122BE205B38070A3209B3298E22AD
:10403000BE206A6804A5BA6B1D7E374D437D230BF5
:10404000247A274D432E3751BB7E3930A5BA6B03F6
:10405000751A6A7CB322BE206E6804A5BA6F1D7EF5
:10406000374D417D230B247A274D412E374D4F7E0E
:104070003930A5BA6F03751A6E7CB322BE206C6806
:1040800004A5BA6D1D7E3751B97D230B247A2751C3
:10409000B92E374D4B7E3930A5BA6D03751A6C7C3D
:1040A000B322BE20896804A5BA8A1D7E3751BF7D20
:1040B000230B247A2751BF2E3751BD7E3930A5BA44
:1040C0008A03751A897CB322BE2070400ABE207F05
:1040D00038057CB2023B65BE20816804A5BA8238EF
:1040E0007EB329A57CABBEA020400DBEA0405008E9
:1040F0000A3A0933662480117E241BD80A3B2D32EC
:104100006D222E2400FF7E1B30047AB329A5A5BAA8
:104110008203751A817CB322A5BA86057EB34D4809
:1041200022A5BA87057EB34D4022A5BA88197E1F05
:1041300073F1693100105E3438000A561E541E5463
:104140001E545E54000722BE2090400ABE209438C0
:10415000057CB2026338BE20996804A5BA9A1B7E1A
:10416000334D457CB3047AB34D450A33093351C10D
:10417000A5BA9A03751A997CB322A5BA9B057EB39A
:104180004D4722A5BAF6057EB373E422A5BAF70B14
:104190007E5773E57E4400648D5422E4227C7B6C60
:1041A000AA1246F578097CB7126FFF7CAB800AB47F
:1041B00004077CB71240127CAB7CBA22309019C243
:1041C00090E5137009751301E591F51A80117E7160
:1041D00091E51A1241E7051A30910BC291051AE5D3
:1041E0001A12419DF591227C6B1246F578057CB63A
:1041F00002645DB404057CB60241FC227C6BA5BE62
:10420000FA047A734D46A5BE00077CB71264A1A1DB
:10421000E3A5BE0F0D74017AB3299D7AB3299ED20E
:104220002522A5BE2E0D74017AB329BC7AB329BD0F
:10423000D22522A5BE12057A7329A022A5BE112D72
:10424000A5BF011E7EB3299F6002C10274017AB32B
:10425000299FE47AB329A17EB3298E44807AB329B9
:104260008E22A5BF00028002C10202DCC8BE609996
:104270006804A5BE9A1D7EA34D477CBA047AB34D4F
:10428000470A2A197251C1A5BE9A028002C102755D
:104290001A9922A5BE9B097A734D477A734D452220
:1042A000A5BE01116D227A274D437A73298F7CB701
:1042B0001262AFA1E3BE605B280281E9A5BE3011A6
:1042C0007E5329BEBC577802C102BE70044002C1B1
:1042D00002BE6020400CBE60223807BE7003280278
:1042E000C1027CB624F9BEB029400261707EA003F1
:1042F000A49042F5730246020243700243700243E7
:104300007002460202460202460202460202437060
:10431000024602024370024370024370024370027D
:1043200043700243700243700243700243700243C1
:104330007002437002437002437002437002437084
:1043400002437002437002437002437002437002E2
:104350004370024370024370024370024370024391
:104360007002460202460202460202437002460200
:104370000A261972298E7CB61BB2BEB03440028167
:10438000AB7EA003A4904389730244250244AB0290
:1043900044250244AB0244290244250244AB0244B2
:1043A000AB0244AB0244AB0244AB0244AB0244ABAD
:1043B0000244AB0244AB0244AB0244AB0244AB0246
:1043C00044AB0244AB0244AB0244710244AB02442E
:1043D0007E0244AB02449102442502442502442E4D
:1043E00002442E02442E0244AB0244A00244AB021B
:1043F00044AB0244AB024437024437024437024420
:10440000AB0244AB0244AB0244AB0244AB024425D2
:1044100002444002444902445202445B0244AB025B
:1044200044AB024464D22581AB1200FD807D7E271F
:104430004D4D4E402080347E274D4D4E4001802B07
:104440007E274D4D4E500180227E274D4D4E50020D
:1044500080197E274D4D4E500480107E274D4D4EC5
:10446000500880077E274D4D4E50107A274D4D80C5
:104470003A7E5329A61246037A274D41802D7E535A
:1044800029A81246033E247A2751B97A274D49803C
:104490001A7E5329AA1246033E247A274D43800BE5
:1044A0007E5329B11246037A5373A1BE603840147B
:1044B000BE6056380F0A265E240001BE2400017833
:1044C000031263C8BE6058400B7E274D4D4E40021C
:1044D0007A274D4DA5BE0A028002A1E37E374D4DDD
:1044E0004E60047A374D4DA1E3BE606C6804A5BEF2
:1044F0006D2B7E274D4D4E50807A274D4D7E274D9A
:10450000497D120B147A174D492E274D4B7A29708D
:10451000A5BE6D028002A1E3751A6CA1E3BE606EB8
:104520006804A5BE6F437E274D4D4E50407A274DFF
:104530004D7E4329A66C557EB329A70A1B2D120474
:104540007AB329A770097EB329A6047AB329A67A7B
:10455000174D417E274D4F2D217A2970A5BE6F0240
:104560008002A1E3751A6E807ABE6070400CBE6056
:104570007F38077CB6125D138069A5BE860F7CB7B5
:1045800054077AB34D4853C3F842C38056A5BE873B
:104590000F7CB754037AB34D4053C2FC42C28043F0
:1045A000A5BE88295E70077E0F73F12E1400100BD4
:1045B0000A205E40C71B0A200A377D237C456C55C4
:1045C0001246121246FD4D321B0A308016A5BEF669
:1045D000067A7373E4800CA5BEF7087464ACB77AEE
:1045E0005773E530250A7EB3299C44017AB3299C90
:1045F0007E374D4D4D33680A7EB3299C44027AB311
:10460000299C227C256C330A272D21220A253E2451
:104610003E243E243E243E24227E3471ED30265E2C
:10462000C2267E395012460C7A27699B0953000135
:1046300012460C7A27699D7EB371EBB4031309A36C
:1046400000030A2A12460E7A2769A319A3000280E2
:1046500016B40213095300020A151263BF3E147AFE
:104660001769A3195300030953000512460C7A2752
:1046700069AB097300407A7369B17A73722D7E3722
:10468000699B7A37725D4D33780B7E34215B12293A
:10469000A57A37725D227C677C7BA5BF000DBE606A
:1046A000002805E47AB3699302B1B5A5BE00176C82
:1046B000AA800E7E60FF7E5009AC5A196268DC0B3E
:1046C000A012890D38ED6CAA80267E3009AC3A2EF6
:1046D0001468240B18201246101B18207E3009ACD9
:1046E0003A2E1468260B18201246101B18200BA017
:1046F000BC7A38D6227EB3298EC45407227E0F732B
:10470000F12E1400100B0A302230000543C38080C4
:104710000353C37F30000543C280800353C27F7EB2
:104720000F73F13000081247014E60C48006124733
:10473000015E603B1B0A302212CC1812CC2F1247AC
:10474000A312475CA9D6EB74017E708212CB59A9E3
:10475000C6EBD20012475CD200024709A9D0CE3086
:104760000004A9D5C922A9C5C9221297DB400612A7
:1047700097F112000A1247A31247AB800B7EB37267
:104780003D6002800012CBF43013F27EB373A8BEFA
:10479000B0002805147AB373A8D2001247ABD20038
:1047A000024709C200124709C20022A200A992CB07
:1047B000A200A992CAA200A991CB22CA3B7E73692A
:1047C000C37A735D107E7369C47A735D117ED329D9
:1047D000C07EE329B77EF329B87E085D127E3400DF
:1047E00008E41224377E340020CA397E1829C67E98
:1047F000085D1A1224121BFD74057AB329C0E47AED
:10480000B329B774027AB329B86CCC7E3400027431
:1048100002ACBC593529C60BC0BEC01078F11234A9
:10482000A36CCC4CCC780D7EB36E355401B401042E
:1048300074018012BEC00178147EB36E3554021E1E
:10484000B0B4010974047AB369C3E48034BEC00211
:1048500078167EB36E3554041EB01EB0B40109E460
:104860007AB369C374018019BEC00378467EB36E03
:10487000355408C423541FB40139E47AB369C374AE
:10488000047AB369C47E3421571229A5122C3A74D4
:104890001F7AB36E2F1228EE7E7373AC0A071230A4
:1048A000D90A3C2E376E312D31097351E40A2C1987
:1048B000725D120BC0BEC004680201236CCC0A3CBE
:1048C00009735D1212DC261230D90A2C2E276E31A4
:1048D0002D21197251E40BC0BEC00440E17E735D0E
:1048E000107A7369C37E735D117A7369C47AD329B0
:1048F000C07AE329B77AF329B87E340020CA397E1A
:10490000185D1A7E0829C61224121BFD1234A3E476
:104910007AB329BD7AB329BCDA3B227426ACBF092D
:10492000B57065CA3B7CFB6CEE7427ACBE19F56FA5
:10493000870BE0BEE00478F17E6401006CEE7E300F
:104940002CAC3E2E1400DA123961120DE512DA7623
:1049500012915040E9DA3B227CBF7E737061CA79C4
:104960007CF77CEBD21612491BBEE0037CBE7E7046
:10497000267807AC7F12DC6E8005AC7F12DC6512F6
:104980004C5DDA7922CA797CFBC2027CBF12BE5C24
:10499000E51E605D6CEE7426ACBE09B570726038C1
:1049A000124F137C7E12495ED202BEF003A2019226
:1049B000037426780CACBE49157089490570878050
:1049C0000AACBE491570814905707F49357085492B
:1049D0002570837CBF12371A200B06200C03300D84
:1049E00009300203124958C3800E0BE0BEE00340B9
:1049F000A5300203124958D3DA7922CAF8C2007EE0
:104A0000F373AC200B06200C03300D03C3419D7ED5
:104A10002400017CBF60053E241478FB7E736E3059
:104A20006C665C754D3368747CBF124FFF5002D2C8
:104A300000D2041233F4A20092017CBF12498540D7
:104A400003C380597CBF7E7370E912495EE47C7FAA
:104A5000129776A20092037E0F22DC7E181A087C41
:104A6000BF12371A124958200B06200C03300D03D1
:104A7000C3802A123384124B65C20112285D124E84
:104A80009160053E341478FB6E70FF5E736E307A71
:104A9000736E30124F04124AA0D38001D3DAF82289
:104AA0007E7371F77EB37212703AE51E701D7E63DD
:104AB00071F5BE601428057E60148007A5BE000352
:104AC0007E60010A267E3400648074E51EB4030211
:104AD0008044124B5EB401067E3401F480617E3462
:104AE00003E8805BE51E700E7E6371F6BE607F2872
:104AF000537E607F804E7E6373E9BE603B4012123E
:104B00004B5EB401067E3401F480267E3403E880D7
:104B100020E51EB403087E73722C0A378015301D01
:104B200018124B5EB401067E3401F480047E340317
:104B3000E88D321B347C67800B0A277E3403E81231
:104B400022717C677E737219AC677E240018122272
:104B5000717A73739FC2136D337A37739B227EB35E
:104B600073A40A2722CA797E6815A07EB373ACB4F9
:104B700003047E681E707E7369C07A735D3B7E732A
:104B800069BF7A735D3AE47AB35D3C7AB35D3D6D9B
:104B9000337A375D446CFF7E7026AC7F09B3707248
:104BA000700281317EB373ACB4030A49F370894952
:104BB000E37087800849F3708149E3707F7D3F7A15
:104BC000375D3E7D3D7A375D407D3F7A375D4212ED
:104BD0004C467EB76E316CEE0A0E2D0B3E047F16EE
:104BE0002D300B1A107F17124C4D78EC124FFB50E2
:104BF00035124C3D7DA37AA75D3E7EA41A087AA7A4
:104C00005D40124C3D7DA37AA75D42124C466CEE8E
:104C10000A0E2D0B3E0449101A08124C3D4925700E
:104C200083124C4D78EA6CAA7E7026AC7F19A37073
:104C3000720BF0BEF00350026197DA79227426AC51
:104C4000BF49357085227E085D3A0208E52D300B9C
:104C50001AA09DA11B1AA00BE0BEE00422CA3B7F54
:104C6000307CABBEA0044002C1157427A409B56F07
:104C70008AF538E41255527EF769C57EE769C72D7B
:104C8000EF7AE5367E085F7612DA6E7EB369D16020
:104C9000626DEE802E7EE5323EE4493E69D27A3581
:104CA000347F032E15327E0B5019530290124E3E64
:104CB00060053E241478FB122F7A3E342E345F9A1E
:104CC000124E187AE532BEF53238CA7AF5328019BA
:104CD000124E2660053E241478FB122F7A3E342EA5
:104CE000345F76124E187AE5327EE536BEE532380C
:104CF000DF80676DEE8016124E2660053E24147824
:104D0000FB122F7A3E342E345F76124E187AE5323B
:104D1000BEF53238E27AF53280387E35323E34499B
:104D20002369D27A25347F032E15327E0B701972D7
:104D300002907D5212617A60053E141478FB126174
:104D4000853E242E245F9A1261A67E35320B347A7A
:104D500035327E3536BE353238C07E4536124E5D30
:104D60007A730176124E697AB30177124E497AB39B
:104D700001780B44124E5D7A730290124E697AB339
:104D80000291124E497AB302927EB369C354050A66
:104D90003B4E375F767A375F767EB369C454050A37
:104DA0003B4E375F9A7A375F9A124E512E74001637
:104DB0007D377E085F761262557D377E085F9A12D6
:104DC000625C124E512E7400286D337A35327E3576
:104DD00032095301777C256C3309530176124E79E1
:104DE00040EC7D377E085FBE7E24008D1203FA6D95
:104DF000337A35327E3532095302917C256C330982
:104E0000530290124E7940EC7D377E085FBE7E24BF
:104E1000008D120496DA3B220B38E04DE21B38E09D
:104E20007EE5320BE4227EE5323EE4493E69D27AE9
:104E300035347F032E15327E0B50195301767D5386
:104E40005E54000F7E240001227CBA54F0C4540F3B
:104E5000227EF13874B5ACFB2E740100227D540B18
:104E6000447F132D357E1B70227F132D347E1BA0B3
:104E70007CBA540F3EB03EB0220A252D217D131E70
:104E8000143E1459215FBE0B357A3532BE34011AF7
:104E9000227E3400017CBF22CAF87EF373AC200B63
:104EA00006200C03300D03C38057124E9160053E5F
:104EB000341478FB7E536E2F6C445C574D2268404F
:104EC0007EB329BC70084E736E307A736E30124F09
:104ED000131254CF4003C38028200B06200C03304C
:104EE0000D03C3801C124E9160053E341478FB6E96
:104EF00070FF5E736E2F7A736E2F124AA0D38001FB
:104F0000D3DAF822E47AB373B1024F0C6D337A37F7
:104F100073EA22D2041233F47CBF22E47AB3721211
:104F2000D213124F0C024F28123B5C5E3400016812
:104F300004D220C21D22302724C2277E7371EA7A50
:104F400073721274FF7AB371EA7EA372124CAA785C
:104F500005124F1B8007BEA0017802D21E301E032F
:104F600012D0567EB3721214685B1BB1685F2403C3
:104F7000786E124FE438077EB373DCB40116124F1B
:104F80000C7EB371F330E05B7EB3723DB4015430FC
:104F90001251802E7EB371F330E0487E3773EA7E83
:104FA0004403E87D538D547E5371F40A15BD51506E
:104FB000117EB3723DB4012B7E2400C88D32BD3109
:104FC000402102D056124FE42819024FEC7E3421C2
:104FD000591229A5122C3A124738122F83024F1B5F
:104FE00012A790227E73698CBE7000227EB3723D40
:104FF00060052012058000024F1B227EB373AC7C3B
:10500000ABD2027EB373A47004C202800B4CAA68B8
:1050100005BEA0037802C202A20222CAF87E1400D2
:105020001E7E0400FF693000017E0B507A375D114F
:105030007A535D10C2006DCC7EB4FFFF20240221A4
:10504000587ED40468CAD912517C1224121BFD6DFB
:10505000AA7DDA80267D2D3E24491248D8BE140050
:10506000000806493248D880046D339D31593248D2
:10507000D8BD3C28047DC37DBD0BD47E376E31BDC9
:105080003D38D27E3751D1BD3C50047AC751D17ED4
:105090003751C7BD3C5010BEB4FFFF680A7E375180
:1050A000CF0B347A3751CF7E7369C00A277D3B8D91
:1050B000327CF5BEF0004007BEF01D3802D2007D04
:1050C000DA7D3D3E34492351C1BD2C5051BEB4FF61
:1050D000FF684B09BD51D3B40125492351DCBD2BD9
:1050E00078107DA32EA451D60BA8200B241BA8203A
:1050F00080324DDD7814300025800F8021800B4DEB
:10510000DD78073000188002801459B351DC7E240A
:105110000001592351D6740119BD51D38006740181
:1051200019BD5D1049A351C9492351D6BD2A280490
:10513000592351C909BD5D10B401116D2259235184
:10514000DC6DAA59A351D6E419BD51D30BD4BED4FA
:105150000003680201C1801A7E0851D37E34000327
:10516000E41224377E0851D61251757E0851DC12A4
:105170005175DAF8227E3400060224377E1F22E0C1
:105180007E0848D8227E340468CA3912517C122421
:10519000121BFD6D337D133E14490148D8BE040037
:1051A000000806492148D880046D229D20592148D5
:1051B000D849014470BD202804592144700B34BEE5
:1051C00034023440D0227E3751E27A7329A27EB372
:1051D000299FB40102800241A87EB3298E44807ABF
:1051E000B3298E7EA751E2BEA4000538306DDD7A6A
:1051F000D751D17AD751CF7E0851C97E340006E409
:105200001224377E3404687D1DAD132E1444706D56
:1052100000E41224370BD4BED4000278E67EA751F6
:10522000E20BA47AA751E2BEA400052805D22412FD
:1052300051857E7329A00AA73EA43EA42EA4000592
:10524000BEA751E278746DDD4DDD78046DBB800A38
:105250007D3D1B343E3449B34470BED402347804DF
:105260006DCC80087DCD3EC449CC44727D3B2D3C45
:105270007E24000A8D327D3D3E342E3444700B383E
:10528000A02DA21B38A00BD4BED4023478BAC224FD
:10529000E47AB3299F6DAA7AA74D437E3444707A8D
:1052A0003751BB7AA751E222C2247EA751E24DAA10
:1052B00068086DAA7AA751E2D20F22E47AB372127B
:1052C0006D337A3751B912632F125320123ED7C271
:1052D0000112285D7E340468CA397E1F22DC7E0FED
:1052E00022E01224121BFD1233840252ED7E08705C
:1052F000DF7E34000AE4022437E47AB372127401C8
:105300007AB373AC7AB36E2E12CECF125320123A08
:1053100035123EED1257B0128FD31252ED022848CB
:105320007E0803AA7E340020E41224377E34000174
:105330007A3703AA7AB303AC74017AB303ADE47A83
:10534000B303AE7EB373A4B401317E3400021253B2
:10535000BA12539E7A7303B774017AB303B8E47A2E
:10536000B303B97E3400021253A712539E7A73031B
:10537000BF7AB303C07AB303C1800A7E340001123E
:1053800053BA1253A77E3400017A3703C274017AEC
:10539000B303C47AB303C574027AB303C6227E731F
:1053A00073A31E340B34227A3703BA74017AB30321
:1053B000BC7AB303BD7AB303BE227A3703B2740159
:1053C0007AB303B47AB303B5E47AB303B6227E3476
:1053D0000027CA397E3420B47E2400FF7E086F8601
:1053E0001224121BFD7E340027CA397E3420DB7E56
:1053F0002400FF7E086FAD1224121BFD7E340027AF
:10540000CA397E3421027E2400FF7E086FD4122424
:10541000121BFD7E340027CA397E3421297E2400E8
:10542000FF7E086FFB1224121BFD6C887CB812549F
:105430003B0B80BE800440F40253207C9B12D0FDC5
:105440007E500AAC595932702C7427ACB949056F9B
:105450008B5902702E49156F8D0B14AD106D0059CC
:1054600012703259027030125484AC7919A3702A28
:105470007427ACB949356F8D0B34125484AC79194B
:10548000A3702B2212548D7CAB7E700A22E480051F
:105490000B341E3404BE34001038F522CA3B7CEBBA
:1054A000C2027E7027AC7E09F36F8A1255CD4CEE96
:1054B0006818D202E419B36F887CBE12543B1255AF
:1054C000291255D7123AB912557EA202DA3B22CAE6
:1054D000797CFBD200C2016D337A37739B7427ACA1
:1054E000BF09E56F887CBF12549C92017CBF1255A6
:1054F000F092003000077CBF7C7F1230E07EB32941
:10550000BC700C7CBF12D16D9231203102C20030D0
:1055100001127427ACBF19E56F887CBF12543B7C25
:10552000BF12553DA200DA7922E47AB303CA12DB36
:10553000DD7AB303CD12DAC37AB303D522CA3B7C3A
:10554000EB1257F41255CDE51E123A8E12557EDA43
:105550003B227CAB7E08005E7CBA120DF77E080011
:105560009A120DF77E3400087E08005E1257A97E5D
:105570003400087E08009A7E240001020496E4129A
:1055800055527E302CAC3F2E1400D66D0074017E37
:105590007027AC7E09736F88120D237E302CAC3FD0
:1055A0002E1400DA6D00740AACBE09B5702A120D13
:1055B000737D360B35742CACBF492500DA12002EF2
:1055C0007D36742CACBF492500D602002E7ED0B5A6
:1055D000ACDF2E640100227E3400041257BF740138
:1055E0001257FD7E7373AC7A7303D07A7303D122A2
:1055F000CAF87CABC2021257B7AC6709F370657C7E
:10560000BA1256236CAA6C777E5026AC5719A2703A
:10561000710B70A5BF03F13002057CBF124923D383
:10562000DAF8227C9B7E2400017CB960053E2414BC
:1056300078FB7E836E2F0A385D32680B1230337E22
:105640008370617A8370E96CAA7EB370E9BCBA7822
:10565000086C88125684E4801F7E2400017CB960A7
:10566000053E241478FB7EB36E2F0A3B5D32680C36
:105670007E8001125684740119B370720BA0BEA013
:105680000340C6227E7026AC7A1983707122CAD874
:10569000CA797CF77CEBE41255526CDD7E70B5ACB8
:1056A0007D2E3401002E3400167A35291207407AF7
:1056B000352B7E35291208007A352D7E252B5E503C
:1056C000F87A252B5E70F87A352D7CBE54050A3B9E
:1056D0004E352B7A352B7CBF54050A3B4E352D7A3F
:1056E000352D7E35297E252B1206487E35297E25CF
:1056F0002D1206C50BD0BED00340A1DA79DAD8222C
:105700007EA12B740AA44935702C7DB37F707D3B3C
:1057100012548D7C7B0A572E54000B7E18000160BA
:10572000052F111478FB74042F111478FB7D1B12C4
:1057300022BD7F61BEB40010686E7E7369BF7A734C
:105740005F767E7369C07A735F77740B7AB35F7824
:105750007DAF7AA75F7A7AA75F7EBEB40002380D6C
:10576000E47AB35F787ED400108DDB6DCC7E085F69
:10577000767D3D1209507E476E317EA0047D343E19
:10578000347F572DB30B5A107F161222B47EB35FAD
:1057900078600C1E341E2450034E60801478F41B75
:1057A0005A300B441BA078D5227E2400010203FA54
:1057B0007E340DAC022C3A7E6370617E7026227EB0
:1057C000240CD07E141138226D331257BF7E57033C
:1057D000AA1257FDE40257D87AB303D07AB303D1A3
:1057E000227E3400021257BF7E5703BA1257FD744F
:1057F000020257D87427ACBE09F56F8A227C1B7D44
:10580000437EA303CABEA005501E7E7007AC7A5922
:105810004303D6592303D8591303DA191303DC7C45
:10582000BA047AB303CAC322D3227C9B7403ACB9F3
:1058300009857052BE8329AE68087E8329AE19851A
:10584000705209857053BE8329AF68087E8329AFE3
:105850001985705309857054BE8329B068087E830A
:1058600029B0198570547E0800521258731258B925
:1058700002049609B57052120CEA7E0800527403B5
:10588000ACB909B57053120D8D7E0800527403AC8B
:10589000B909B57054227C9B7E0800527403ACB9E0
:1058A000125873120D074C9978097E080052740142
:1058B000120CEA1258BC020496120D077E370052F1
:1058C0007A37008E7E3400027E0800527E2400016A
:1058D0001203FA7E3400027E08008E7E240001222C
:1058E00070091258FB1258B902049622700C125813
:1058F000FB120D8D1258BC020496225E70037E08C6
:1059000000527CB7221246FD4E70101B0A307EB347
:1059100073AC7E737052123E777EB373AC7E73703D
:10592000531258EC7EB373AC7E7370540258E07C13
:105930003BD204125CB1125C941B30681D1B3068B2
:10594000231B3068291B30682F0B327873125905DE
:105950007E1F03AE7E0F03AA80527E1F03B67E0F0A
:1059600003B280487E1F03BE7E0F03BA803E7E1FB7
:1059700003C67E0F03C280347E340008CA397E71AC
:105980001E7408AC7B2E3403AA6D227E0861D212ED
:1059900024121BFD7E3400017A3761D27E7373E8D6
:1059A0007A7361D47E1F61D67E0F61D27A1D3A7AF6
:1059B0000D3612023D74017AB303CD120DBD800283
:1059C000C204A204221259DD3802E4227EA303CBD2
:1059D0007407A4495503D612592FE433227E73036A
:1059E000CABE7303CB227EB303CDB401377EA303BB
:1059F000CB7AA303CC7EB303D3047AB303D37EB3B1
:105A000003D2047AB303D2125C8ABEB303D2381431
:105A1000E47AB303D27CBA047AB303CB1259DD28FB
:105A200003125C83227EB303CDB40102800241C81D
:105A30007E7303CABE7303CC28747E6303CC7E706E
:105A400007AC67495303D67CAB7E4303D37E500239
:105A5000AC452D32493303D87A351C4D33684FD2CB
:105A6000301BA068101BA0680C1BA068081BA06856
:105A7000040BA27839125AC93011047402800274DE
:105A8000017EA303D30A3A19B303CE7EB303D370C6
:105A90000E7E7303D5BE70012805120BE5800F7EC4
:105AA0000F73F10B160B0A305E60EF1B0A301259B0
:105AB000DD381574027AB303CDC22B123C1A123FA3
:105AC000B0E51E7003023E4D22CA3B7E951C6D88D8
:105AD0007EB303D3F54C7EB369D1600A7EC769C536
:105AE0007ED769C780087ED769C57EC769C7203061
:105AF00002813A7EE76E317EF4000AA9D7EA7E5F22
:105B0000015A695502646975000C4D75125C5A5949
:105B10007500C66955025C7E5F015A69B500044D87
:105B2000B5125C5A59B500C87E5F015A69B5025A70
:105B30007E3F015A69530002BD5B280C7E5F015A0B
:105B4000695500027D4580087E2F015A6942025A3C
:105B5000125C5A594500CA7E2F015A0B2A50125C1A
:105B60006119A400CC7E2F015A69520258125C615F
:105B700019A400CD6DBB7D4BBE44000178040BF42D
:105B800080237CB97EA4000160053EA41478FB7ECE
:105B9000B369C30A5B5D5A6805125C3D80076D55A9
:105BA000125C4C0BF40B44BE44000378CB7EB3690B
:105BB000D160057AC54A80037AB54A125C6F7D4B85
:105BC000800C0B0A501B1A500B150B350B44BDD41F
:105BD00038F07DFD2EF54A7AF54A7EF401367D4B8C
:105BE000BE44000178040BF480237CB97EA400013C
:105BF00060053EA41478FB7EB369C40A5B5D5A68F5
:105C000005125C3D80076D55125C4C0BF40B44BED5
:105C100044000378CB7EB369D160037AB54A125C45
:105C20006F7D4B800C0B0A501B1A500B350B150B5C
:105C300044BDC438F0A9C7EAC230DA3B227D5F0B0D
:105C4000F43E547E3F015A2D750B3A507DAE0BE465
:105C50003EA47F342D7A1B3A50227EA14C7408A4B6
:105C6000225E54007F7CAB7E914C7408AC9B227DFD
:105C7000AF3EA47E0F015A2D1A7EA54A3EA47F1482
:105C80002D3A2274037AB303CD227E7007AC7A09D1
:105C9000B303DC226CAA7EB373A30A3B1E340B341D
:105CA0007E5008AC5A197203AF0BA0BEA00440E6A8
:105CB00022E51E70217E3773A94D3378F8124AA071
:105CC0007E3400057A3773A9BE34002128087E345B
