:1000000002231802D2101B0A30222202001A000119
:10001000010022025C42EBAA0822320270D00000EA
:1000200000FFFF025D50B28622FFFF02714BCA3B08
:100030007D727D637D271206487D367D271206C5B9
:10004000DA3B220271637F71A9D6CB693000047E4E
:100050006F7D6679360004693000067E6F7D6679B3
:10006000360006693000087E6F7D66793600087EAE
:100070007BA07C6A6C777E6F7D667936000E7C4B48
:100080006C55E5270A3B4D327E2F7D667932001094
:10009000297700020A373E343E343E343E34295735
:1000A00000047C464C577E2F7D662E54000E0B2A92
:1000B000304D321B2A30297700017C476C55297757
:1000C00000037C647E2F7D667932000A7E0B707C93
:1000D00047297000010A372D327E0F7D6679300086
:1000E0000C6D117E1F7D661B1A107E3400301209C4
:1000F000ECA9C6CB220102040810204080025AB1AC
:10010000EB84147BD8A0275FB4F44B0BD02F0CF3F7
:10011000FFFFFFFFFFFFFFFFFFFFFFFFFFFF87A6C0
:10012000CA3B7F307E3BB0F52A29B30001BEB12A1D
:100130002802F52A691300066D007E3400F274FF70
:100140001223BF7F03120994A9D6CB7528008033F0
:1001500075290080237E1128740BAC1BE5290A1B2E
:100160002D013E04691300062D106D000B0A306E40
:1001700034FFFF1B0A30052929730001BE7129389D
:10018000D405287E3B70BE712838C5693300067ED1
:100190000F7D6679300004E52A0A2B7D327C676C7E
:1001A000772D327E0F7D667930000C6D117E1F7DBC
:1001B000661B1A107E3400D01209EC752800E52861
:1001C000BEB00450177EA1287404A47E1F7D66690A
:1001D00011002660441E141478FB803DE528BEB053
:1001E00008501BE5280A5B1B563E543E547E1F7D7B
:1001F000666911002860221E141478FB801BE52814
:100200000A5B9E5400083E543E547E1F7D66691171
:10021000002A60051E141478FB5E14000F7EA128CE
:100220007402A4693300062D356D221B1A100528AF
:10023000E528BEB00B4087A9C6CBDA3B226D337EE2
:100240000F7D6A793000127E0F7D6A2E1400140B28
:100250000A305E607F1B0A30E538541F0A2B7E0F80
:100260007D6A2E1400120B0A304D321B0A30E5391C
:1002700054010A2B3E243E243E243E243E247E0F7D
:100280007D6A2E1400120B0A304D321B0A30E53AFB
:1002900054030A2B3E243E243E243E243E243E2486
:1002A0007E0F7D6A2E1400120B0A304D321B0A306D
:1002B0007E3536BE34000278637E0F7D6A2E1400D0
:1002C000140B0A304E60801B0A30E53B541F7C4BF8
:1002D0006C557E0F7D6A2E1400120B0A304D321BB6
:1002E0000A30E53C54010A5BC42354E07CABE47E55
:1002F0000F7D6A2E1400120B0A304D351B0A30E5B3
:100300003D54030A5B030354C07CABE47E0F7D6A5B
:100310002E1400120B0A304D351B0A30227F21A902
:10032000D6CB693000047E7F7D6679370004693062
:1003300000087E7F7D6679370006693000067E7F83
:100340007D6679370008297000017C476C557E0B6B
:10035000700A372D327E7F7D667937000C29700058
:10036000020A371B347E7F7D667937000A693000C8
:100370000A7E7F7D667937000E6930000C7E7F7DB6
:1003800066793700106930000E7E7F7D6679370010
:1003900012693000107E7F7D667937003029700049
:1003A000037C276C337E1F7D661B1A107E3400A0F1
:1003B0001209EC7E1F7D666911001A7A2B306911D3
:1003C000001C39320001691100167912000269110E
:1003D00000187912000469110022791200066911CF
:1003E0000024791200086911001E7912000A69318F
:1003F00000207932000CA9C6CB22CA3B7A254D7F5A
:10040000307A354BA2AC9209C2AC7E1F7D6A69314D
:1004100000045E3410007A37700CC20A120BA5A2D9
:100420000992ACA9D3CBA9D5CB7E3400017E0F7D38
:100430003A793000067E0F7D3A693000064D3378F8
:10044000F47E354B2E3480001B0A307E1F7D3A69C6
:100450003100084D3368F46D3380207D233E247FC6
:10046000032D120B0A207E0F7D3A1B0A207E0F7D82
:100470003A692000084D2268F40B34BE354D40DB4C
:10048000A9C5CBA9C3CB7E37700C2E34FFFF920ACF
:10049000120BA5DA3B22CA3B7A254D7F307A354BC9
:1004A000A2AC9209C2AC7E1F7D6A693100045E3441
:1004B00010007A37700CC20A120BA5A20992ACD2B6
:1004C000CDA9D5CB7E3400017E0F7D3E793000066C
:1004D0007E0F7D3E693000064D3378F47E354B2E1D
:1004E0003480001B0A307E1F7D3E693100084D3389
:1004F00068F46D3380207D233E247F032D120B0A88
:10050000207E0F7D3E1B0A207E0F7D3E6920000865
:100510004D2268F40B34BE354D40DBA9C5CBC2CDAE
:100520007E37700C2E34FFFF920A120BA5DA3B22A5
:10053000CA797CAB6D777E0F7D6A693000065E34C8
:10054000000268182E14000E0B0A305E70FB1B0AA6
:100550003074037AB329F1751E038003E4805A4C8A
:10056000AA685480447E1F7D6A693100065E3400AB
:1005700001780AE47AB329F1751E00803C7E3400CC
:10058000011261410B74BE7403E8281D7E0F7D6A61
:100590002E14000E0B0A304E70041B0A3074027ABF
:1005A000B329F1751E02E480107E1F7D6A69310057
:1005B0000E5E34000378AE7401DA7922CA797CAB1E
:1005C0006D777E0F7D6A693000065E340002681820
:1005D0002E14000E0B0A304E70041B0A3074027A7F
:1005E000B329F1751E028003E4805A4CAA68548036
:1005F000447E1F7D6A693100065E340001780AE49A
:100600007AB329F1751E00803C7E340001126141ED
:100610000B74BE7403E8281D7E0F7D6A2E14000E35
:100620000B0A305E70FB1B0A3074037AB329F17534
:100630001E03E480107E1F7D6A6931000E5E340067
:100640000868AE7401DA7922CA3B7D727D63A2AC80
:100650009203C2AC7E1F7D6A693100045E341000D3
:100660007A376B9CC20A120BA5A20392ACA9D3CB1A
:10067000A9D5CB7E3400017E0F7D3A793000067E0D
:100680000F7D3A693000064D3378F47D362E348084
:10069000001B0A307E1F7D3A691100084D1168F475
:1006A0001B1A707E1F7D3A693100084D3368F4A92A
:1006B000C5CBA9C3CB7E376B9C2E34FFFF920A12A9
:1006C0000BA5DA3B22CA3B7D727D63A2AC9203C2CA
:1006D000AC7E1F7D6A693100045E3410007A376B8E
:1006E0009CC20A120BA5A20392ACD2CDA9D5CB7E97
:1006F0003400017E0F7D3E793000067E0F7D3E691D
:100700003000064D3378F47D362E3480001B0A30DD
:100710007E1F7D3E691100084D1168F41B1A707E22
:100720001F7D3E693100084D3368F4A9C5CBC2CDA9
:100730007E376B9C2E34FFFF920A120BA5DA3B2208
:10074000CA3B7D73A2AC9200C2AC7E1F7D6A696118
:1007500000045E641000C20A120BA5A20092ACA9AC
:10076000D3CBA9D5CB7E3400017E0F7D3A79300002
:10077000067E1F7D3A691100064D1178F41B1A7030
:100780007E0F7D3A693000084D3368F46D331B0AE3
:10079000307E1F7D3A691100084D1168F4697100BF
:1007A00002A9C5CBA9C3CB2E64FFFF920A120BA5E9
:1007B0007D37DA3B227E08015F7E340018E4122385
:1007C000BFA9D1CBD2CC7E3400047E08015F740C6B
:1007D000120A43A9D1CBC2CC6CAA7E7002AC7A7E3D
:1007E00008015F2D130B0A207C456C550B0A300A5B
:1007F000364D321B0A300BA0BEA00C40DD22FFFF9D
:10080000CA3B7D73A2AC9200C2AC7E1F7D6A696157
:1008100000045E641000C20A120BA5A20092ACD2C2
:10082000CDA9D5CB7E3400017E0F7D3E7930000608
:100830007E1F7D3E691100064D1178F41B1A707EF3
:100840000F7D3E693000084D3368F46D331B0A306C
:100850007E1F7D3E691100084D1168F46971000228
:10086000A9C5CBC2CD2E64FFFF920A120BA57D371E
:10087000DA3B22A9D6CBC230693000047E2F7D66D8
:1008800079320004693000067E2F7D6679320006D9
:10089000693000087E2F7D66793200087E0B707CFF
:1008A000476C55297000010A372D327E2F7D6679FD
:1008B00032000C297000020A377E2F7D66793200E3
:1008C0000E29B0000354010A5B7CABE47E1F7D66F9
:1008D0001B1A506930000A1209ECA9C6CB22A9D60E
:1008E000CB692000047E2F7D6679220004692000F8
:1008F000087E2F7D66792200087E0B500A557CAB5E
:10090000E4295000010A252D257E2F7D66792200DD
:100910000C295000020A257E0F7D667920000E7E8C
:100920000F7D667930000A6D117E1F7D661B1A10DF
:100930007E3400401209ECA9C6CB22CA3B6CAA7EC9
:100940009002AC9A7F702DF40B7A405E80031B7A84
:10095000407E9006AC9A7CB97F71600D1EF41EE457
:1009600050044EF480001478F37D4F5E44003F7DC8
:10097000747CEF6CFF3E743E747ED002ACDA7F6014
:100980002DD60B6AF04DF71B6AF00BA0BEA00440F9
:10099000AEDA3B227F10A9D6CB691100027E2F7DF3
:1009A0006679120004691100047E2F7D66791200B9
:1009B00006691100067E2F7D66791200087E1B30C5
:1009C0000A037E140100AD10297100010A372D3190
:1009D0007E0F7D667930000C6D117E1F7D661B1ABF
:1009E000107E3400601209ECA9C6CB22A9D7CB7DBA
:1009F000234E50017E0F7D660B0A304D321B0A30AC
:100A0000801E7E0F7D660B0A307D235E240008BEAB
:100A1000240008780BA9D7CB4E70041B0A30D230C3
:100A20007E0F7D660B0A307D235E248000BE24800D
:100A30000078CF4E60401B0A306D117E1F7D661B13
:100A40001A10227E2400017E7F7D42792700067ED7
:100A50007F7D42692700064D2278F45E607F1B7A15
:100A6000307E1F7D42693100084D3368F46CAA80E6
:100A7000206D447E1F7D421B1A407E1F7D426941CE
:100A800000084D4468F4694100021B0A400B150B35
:100A9000A0BCBA38DC22CA797CAB6C99802D7EF080
:100AA00002ACF97F602DD70B6AF05EF4FC001B6A84
:100AB000F07F712DF70B7AE07EF002ACF97F602DAC
:100AC000D70B6AF04DFE1B6AF00B90BCA938CFDA49
:100AD00079220B38205E50C01B38200B0A205E4064
:100AE000071B0A20E52A0A5B0B38204D251B3820FE
:100AF000E5290A3B7D237C456C553E243E243E245B
:100B00000B0A304D321B0A3022A9D6CB543F5E70FF
:100B10001F7E1400017E7F7D66791700027C2B6C9E
:100B2000330A372D317E0F7D66793000327E0F7D9E
:100B30006679200014A9C6CB1207B5020CE730284D
:100B400031A9D2EAA9C2EA6D337E0F7D6A793000FD
:100B5000167E34012C7E0F7D6A79300018C2287E03
:100B60000F7D6A2E1400140B0A305E70FB1B0A30D6
:100B7000C22722A2AC92097E0F7D6A0B0A305E3436
:100B80001000680B0B150B0A304E60101B0A30C2A8
:100B9000AC7E0F7D6A0B160B0A304E60101B0A30BC
:100BA000A20992AC22A2AC920BC2AC7E0F7D6A303D
:100BB0000A0A0B160B0A304E601080080B160B0A3F
:100BC000305E60EF1B0A30A20B92AC220B0A305E43
:100BD00034FC7F1B0A300A2B5E2400073E243E248F
:100BE0003E243E243E243E243E240B0A304D321B3C
:100BF0000A3022A9D7CA7E2400017E0F7D6E1B0A0F
:100C0000207E2409607E0F7D6E792000027E0F7D9C
:100C10006E79300004220B0A205E24801F1B0A20FC
:100C20007D235E40033E243E243E243E243E240B8E
:100C30000A302D321B0A30220B0A305E60C71B0AB5
:100C40003054070A3B7D237C456C553E243E243EB0
:100C5000240B0A304D321B0A3022CA3B7D727A0DBA
:100C6000297D637E0D297D271203FA7D367E0D29AD
:100C70007D27120496DA3B220B0A305E609F1B0A26
:100C80003054030A5BC42354E07CABE40B0A304DC0
:100C9000351B0A30220B0A305E70E71B0A30540302
:100CA0000A2B3E243E243E240B0A304D321B0A30D0
:100CB000227CA70B0A305E604060034E60807CBAE5
:100CC000543F7C4B6C554D321B0A30220B0A50545A
:100CD000E01B0A507D525E54001F0B0A204D251B5D
:100CE0000A2079300002227EB3016FB4E7127EB38E
:100CF0000170B4160B7EB3016C5401B4010280FE86
:100D0000220B0A305E600F1B0A300A5BC454F07C71
:100D1000ABE40B0A304D351B0A30220B0A305E6003
:100D2000FC1B0A3054037C4B6C550B0A304D321BB4
:100D30000A30220B0A205E50FC1B0A207D235E2411
:100D400000030B0A304D321B0A3022D228D2277EF4
:100D50000F7D6A2E1400140B0A304E70021B0A30ED
:100D6000227D230B0A305E34F8001B0A304D321B03
:100D70000A30227D230B0A305E34F8001B0A304D06
:100D8000321B0A30220B0A305E700370034E700C67
:100D90001B0A3022020D141B21252B313736332D2F
:100DA000282019140D080102050B10181E232A30E3
:100DB000353A3E3F00010100000000000104090F28
:100DC000151D242A30353B3E3F403F3E3D3D3C3CD7
:100DD0003B3B39371A2D65551B29271E14111A263E
:100DE0002E373D3F3D372E21160C05010000010333
:100DF0000A131D262E33383A16212B32302A272A81
:100E00002F2D241A1007010002071019232D364137
:100E1000494C4A453C342A27517150552812111823
:100E200023292B2A2E353C3E3F3931281E150E062C
:100E300003010000030C16202B32373920293237EA
:100E40003128212A312D231B1308010001050C181C
:100E50002029343E474F504D453C343126CB505528
:100E60001D2F2C251A1B202931312E2D353D3F3DBC
:100E7000382C22150D0601000106101B242F383DC9
:100E80000D1B273132281E14151D2831342A1F143A
:100E9000090100040D17212C35404747443C3430EC
:100EA0001B825055192E2A1F181B222D302E2E352D
:100EB0003D3F3D3A2F24180F07010000030B161E7B
:100EC00029323A3D111F283230261B141C252E359D
:100ED0002E23191104000108101C25303840423F10
:100EE00039322C27C0D15055182C291E1413161E28
:100EF00029302E2C2B373D3F3E3930251B10080161
:100F0000000209131F2D383C111A232F33292016F4
:100F10000E131D283231281E160B02000108121E66
:100F200029333B3F3C322926306E5055162B24176F
:100F30000D0A0E15242825232B363B3D3B372B204D
:100F4000150B040000030E1927333D3F13212E37E4
:100F50003A31271C131C28343E372D22180C01006F
:100F6000030D1825313C474842382E2A316250552E
:100F7000352E27221F1B16100C0806040200000045
:100F80000103060B0E12171D22262A3035393D3F6C
:100F90000000010406080B10161B1F23282D3236F3
:100FA0003B4044484A4B4C4B4A484643403E3C3AFF
:100FB0003C9C34552D2824221F1C191613100C0894
:100FC00005020003070A0E1116191E22272C3033C2
:100FD00036393D40000206090B0E111416181B1F6E
:100FE000222528292B2C2D2E2F3032333536383917
:100FF0003B3C3E40AC6A3455251E1A1715110E0BAA
:1010000009070402010205090D1013171B1E2125F3
:10101000292D3033373B3E4000060C1013191F2397
:10102000272B2F3336383A3A3A3B3B3B3C3C3C3C4F
:101030003C3D3D3D3E3E3F40CAD8345509171D2634
:101040002E373C3F3B332B221A110B0503010100C5
:10105000000001060A1119222A32393D30302F2CA6
:10106000261E170D05000001060E151E262C323A0D
:101070004148505B616464605B56514FD82C3355D6
:101080000611181E22272A2C29251F18110B0501CD
:1010900000000103060A111820262C32363B3D3F82
:1010A00048372E241A110A04000001050B121B21D7
:1010B00028303741474E54534E48413B332C282566
:1010C0000B673355060C1519222B2F363C3E3F3942
:1010D0003429251D140F0702000000020C10101007
:1010E00010101010363532312D28251F18130A0222
:1010F00000000003080C172126313B3F45464646B9
:1011000046464646F059335500060F19212A2E321D
:101110002A2118140C060200010B131D252A323A4D
:101120003F3F3F3F3F3F3F3F231F1B17130C09012A
:1011300001060E121B242D373B3F3F3D39362E252D
:101140002020202020202020F47B3355050D19235A
:101150002D31342C221E150D08040200020C10192A
:10116000212A2E373F3F3F3F3F3F3F3F1C1B181672
:10117000100D040003050C161E262A353D3F3E3C8B
:101180003B3A393836363636363636368D3A33557A
:10119000050D131920262E353C3D372F2019110B34
:1011A0000502000001060C171D232930363B3E3E88
:1011B000282522201D18140F0802000004070C1116
:1011C000181E242C333A3E3F3E3C38312A211A1A4D
:1011D00006333355261C191818181818181817171D
:1011E000150F0904010000000001040B12181F284C
:1011F00031373C4001070E141C232C343E444C5420
:101200005B605D554F49433D38322B26221F1E1C23
:101210001C1C1C1D665474553E2C211D1D1D1D1DBE
:101220001D1D1D1D1D1D1E1E1D1A110C0702000077
:10123000030A121C232C38400C00060F17222932F7
:101240003B41474F555C6671793E766D645A524B0F
:101250004239353332323131F3DB74550907060632
:10126000050504040404030202020100000000005A
:10127000030A10141B22282E34393D40000B11168E
:101280001B22282C333940464D52565C61686D73E1
:101290007371717170706F6F6F6F6D6E798044557F
:1012A0001713121211100F0D0C0B0908070403027B
:1012B0000100000001040B10161D242931393D40A6
:1012C000000E161A1F24292E33383E434750555915
:1012D00062696E757CFF7D7C79736D68605A5756C4
:1012E0005D08445500070B0D101216171718181932
:1012F00019191C1E2022232527292B30323335387B
:10130000393B3D3F3E291F180F07060C121D252DA6
:10131000363E3B352C262019110A030309101824E8
:101320002C333A3E609B3255000505050403020349
:1013300005070A0E11191B1C1D1C1C1D1F22252A26
:101340003133353738393C4000121C242B343C39BA
:101350002F2921160F0D141E2A33312720181007AC
:101360000A101A262F373D3FFB8F3255000001032C
:10137000080B12181B20222223242627292B303168
:101380003132323435373B3E3F3F3F3F7B6D5F5319
:10139000403623140B030E1E29352920110706168B
:1013A0001F2D35434C5968727474747490273255EC
:1013B0002C231F19130C070300000001050A0F1648
:1013C0001D232A30363B3E403F3E3B38332F2B28EF
:1013D0000901000103090E141B21272E363B3E4153
:1013E00041403D3A362F2B26201C16100C0A090BC3
:1013F00036DC30551A0905010000000205090F16F8
:101400001C222A3136393C3E3F3F3D3830271F18D9
:10141000120B0605071219222C363F49535C6366EE
:10142000645F584C433D342B221B150B0400000114
:10143000040B1318F10C3055182C34393C3D3F3F48
:101440003F3D3B36302A241C160D060100000001EA
:10145000010305090F171E240102080E141A212882
:10146000303740495055595C5C5851483F38312B12
:10147000251D17110A0401019DBF305516070200F2
:101480000000000104080E161F2830383C3E3F4083
:101490003F3F3D3B37322C251D160F0C53463E3542
:1014A0002E27201A140D06010000030A131A202704
:1014B0002D333A40484F54585A5A5857C65530550C
:1014C0000701040A1018202A32383C3E3F3E3D3BBB
:1014D000393530272119120B0603010000000000E6
:1014E000321D12090501000001050D17202A323BAB
:1014F000454E5863696B6A645D574F474038322FD9
:101500001AB5305521130C0805020100000103082B
:101510000F171E242B32393D3E3F3F3D3A363029CE
:10152000211A161305090E141A222930383F474D87
:1015300051514F4D494239312B251E1710080300D8
:1015400000010305AF133055383F3D3A362E261FB4
:10155000140B0602000000010205090E141C232AC8
:1015600034383A3B3D3D3D3D291A10090400000145
:10157000040C141C22282F373F474F565A5B5956EC
:101580004E4740373028221F2AA930553E3B38337A
:101590002B241D1610070301000000010103060C97
:1015A000151C23292F35383B3C3E3F3F1F100A06B0
:1015B00000000002040C12181E252C353C424A5132
:1015C0005656534E49403A332C251F1CF9A230552C
:1015D0001F2B3135383B3E3F3F3D3A342D27231DED
:1015E000171009040100000103060A0F151B202330
:1015F00045423E38342D241C15110B060200000014
:101600000103070D1218202830363C424748494A4A
:10161000659D30551C2A33393C3E3F3F3E3D3A35AF
:101620002E28231C150F0904010000010104080DD8
:1016300013191E22403E3A332F29221B15100A058A
:101640000100000102050A11171C242A30353B4015
:1016500043444545CBC63055050304070A101721FE
:10166000282E33383C3E3F3F3E3B38312921180F6E
:10167000090401000000000026353D454B5153523E
:101680004F4C46413B342E251E1711090300000222
:10169000060C12181E242C31F4B630550A05050527
:1016A000080F16202931363A3C3E3F3F3E3C3A3344
:1016B0002D241C140F0804000000010235464E566C
:1016C0005D65686660574F473F372E251E1610062A
:1016D000020001050B151D282F394145F0BC30557E
:1016E0000703030304070F17202830363B3D3F3F15
:1016F0003D39362D251D160D080200000102030597
:101700002E3F4850595F6768635D524A3E352B2033
:1017100018100A03000001070E19222B313A424724
:10172000EFC930553B3C3C3B39362F272119110B73
:1017300005010000010204060A10161F262D333988
:101740003C3E3F3F22313B41474D56595A58555137
:101750004B433D3529201811090300000103070FF1
:10176000151B21262BA03055373837342D261C1653
:101770000E0904020000000102050A101720262E9F
:10178000353A3C3E3F3F3E3E30404950595E605DF9
:101790005650474139332A201A100A050100000328
:1017A0000810171F252F383C37C330553B3D3D3BB4
:1017B0003832271C130E08030000000103070B1228
:1017C00018202831393D3F403F3F3E3E33454E577C
:1017D0005D656C6A66635C534A40382E251A1108B1
:1017E00004000002091019212A32393E07903055B1
:1017F00008020000000205070C12191F2B32373BAC
:101800003D3F3F3E3D3A372F29231D160F0906065F
:10181000473D362F271E1610090300000104070D4F
:10182000141D262D333A424E535556544F484242CA
:10183000439E30550200000103070C131C242D3772
:101840003F3D3B393634312E2B2720160E0803033B
:10185000030404045D50463E362C20160D0602009B
:101860000B16222A333C444C555D69797D766D63B5
:1018700059504847123E3055030102060A162025EA
:1018800030393E3F3F3C3A322822190E0502000013
:1018900000010101010101012923180F0B030000C0
:1018A00001081117212A2F3A4243423E38342C2492
:1018B0001F1C1C1C1C1C1C1C7FD23055392B241CCB
:1018C000150E0906050609101922272E353B3E3F45
:1018D0003D38322C261F19130B05010006000102AA
:1018E000060B11171D242A2F32343536373B41475A
:1018F0004E565D6164656563605C5754D14A4655D8
:101900003C37332F25201B100C0802000003070C66
:10191000161B1F2A2F333D3D392F2B282828282816
:10192000020000000204070C0F131C20242D30328B
:10193000353636363636393D42484A4B4B4B4B4BA3
:1019400010A24655322C271C160C0703000000027B
:10195000040D111A1F252F333C3D342F2A211D1C45
:101960001C1C1C1C0100000002060A0E161A22266E
:101970002B31323536383A3B3E414A4C4D4E4E4E75
:101980004E4E4E4E433346551A13100D0B0A0C1192
:10199000162025292E32373C3F3C38332E29241E71
:1019A000190F0B070200000000060B1015191D1E71
:1019B0001F1E1F1F202124292F393E414447494B18
:1019C0004C4E4E4F4E4D4D4D0A24465500010305D9
:1019D00007080A0B0C0E0F111214161A1E222427C8
:1019E0002A2C2E313336383A3C3E3F3F010E141B31
:1019F00023282E353A40484F565D62615A534E4770
:101A0000403B352D29221B17100905016D7D5455CA
:101A1000403938363533312E2C2B29272524221FE7
:101A20001D1A181514120F0C0907040201000000FA
:101A3000000D151D232A323B434850575D636865EE
:101A40005E58514A453F38322B261F1610080401B4
:101A50006AEC545501000000000000000000010283
:101A6000040507090D1013181F24272B2E313436B7
:101A7000393C3E4000070F13161A1E2225282F3628
:101A80003B3F43474B4C4C4C4946433F3A35322D44
:101A900027211D1AB5D0545500010101020303048A
:101AA00005090F161D22282D30323437393A3C3DB6
:101AB0003E3E3F3F3E3E3C3A222E363F464C51563C
:101AC0005B5E605E5C58534D4945413A35312D2788
:101AD000231F19110D0803003B385455000203055C
:101AE00006080B10131617191B1D1F212222222274
:101AF0002325282E313436383A3C3E3F061720271E
:101B000030383E39322B251E1810090910181F26AF
:101B10002F363C382F271F180F080102C775315583
:101B200000000000010103080D121517181A1B1CF4
:101B30001D1D1E1F22272E35383B3D3E3F403F3E98
:101B400006151B23292F373C372E27201A130E1476
:101B50001A21272F383F3D352E262018110B030060
:101B6000673F31550DD0708F00FFD02F04A7248719
:101B700002A90000000000000000000000000000BA
:101B80000000000000004137320144354100FFFFF2
:101B9000FFFFFFFFFFFFFFFFFFFFFFFFFFFFFFFF55
:101BA000FFFFFFFFFF0830303100000000000000A1
:101BB000000000000000010001010101010101011C
:101BC0000101010101010101010101010101010006
:101BD000010808102210220000011001100003006B
:101BE00003011001100100030004000500060007B6
:101BF00000080009000A000B000C000D000E000F89
:101C00000010001100120013001400150016001738
:101C100000180019001A001B001C001D001E001FE8
:101C20000020002100220023002400250026002798
:101C300000280029002A002B002C002D002E002F48
:101C400000300031003200330034003500360037F8
:101C500000380039003A003B003C003D003E003FA8
:101C60000040004100420043004400450046004758
:101C700000480049004A004B004C004D004E004F08
:101C800000500051005200530054005500560057B8
:101C900000580059005A005B005C005D005E005F68
:101CA0000060006100620063006400650066006718
:101CB00000680069006A006B006C006D006E006FC8
:101CC0000070007100720073007400750076007778
:101CD00000780079007A007B007C007D007E007F28
:101CE00000800081008200830084008500860087D8
:101CF00000880089008A008B008C008D008E008F88
:101D00000090009100920093009400950096009737
:101D100000980099009A009B009C009D009E009FE7
:101D200000A000A100A200A300A400A500A600A797
:101D300000A800A900AA00AB00AC00AD00AE00AF47
:101D400000B000B100B200B300B400B500B600B7F7
:101D500000B800B900BA00BB00BC00BD00BE00BFA7
:101D600000C000C100C200C300C400C500C600C757
:101D700000C800C900CA00CB00CC00CD00CE00CF07
:101D800000D000D100D200D300D400D500D600D7B7
:101D900000D800D900DA00DB00DC00DD00DE00DF67
:101DA00000E000E100E200E300E400E500E600E717
:101DB00000E800E900EA00EB00EC00ED00EE00EFC7
:101DC00000F000F100F200F300F400F500F600F777
:101DD00000F800F900FA00FB00FC00FD00FE00FF27
:101DE00001000101010201030104010501060107CF
:101DF00001080109010A010B010C010D010E010F7F
:101E0000011001110112011201110110010F010E47
:101E1000010D010C010B010A01090108010701066E
:101E200001050104010301020101010000FF00FEA0
:101E300000FD00FC00FB00FA00F900F800F700F6D6
:101E400000F500F400F300F200F100F000EF00EE06
:101E500000ED00EC00EB00EA00E900E800E700E636
:101E600000E500E400E300E200E100E000DF00DE66
:101E700000DD00DC00DB00DA00D900D800D700D696
:101E800000D500D400D300D200D100D000CF00CEC6
:101E900000CD00CC00CB00CA00C900C800C700C6F6
:101EA00000C500C400C300C200C100C000BF00BE26
:101EB00000BD00BC00BB00BA00B900B800B700B656
:101EC00000B500B400B300B200B100B000AF00AE86
:101ED00000AD00AC00AB00AA00A900A800A700A6B6
:101EE00000A500A400A300A200A100A0009F009EE6
:101EF000009D009C009B009A009900980097009616
:101F0000009500940093009200910090008F008E45
:101F1000008D008C008B008A008900880087008675
:101F2000008500840083008200810080007F007EA5
:101F3000007D007C007B007A0079007800770076D5
:101F4000007500740073007200710070006F006E05
:101F5000006D006C006B006A006900680067006635
:101F6000006500640063006200610060005F005E65
:101F7000005D005C005B005A005900580057005695
:101F8000005500540053005200510050004F004EC5
:101F9000004D004C004B004A0049004800470046F5
:101FA000004500440043004200410040003F003E25
:101FB000003D003C003B003A003900380037003655
:101FC000003500340033003200310030002F002E85
:101FD000002D002C002B002A0029002800270026B5
:101FE000002500240023002200210020001F001EE5
:101FF000001D001C001B001A001900180017001615
:10200000001500140013001200110010000F000E44
:10201000000D000C000B000A000900080007000674
:1020200000050004000300000000000000000000A4
:1020300000000000000000000000000000000000A0
:10204000000018120005000000000600060006004F
:102050000600060006000600060006000600060050
:102060000600060006000600061812020500000021
:102070000005000500050005000500050005000538
:102080000005000500050005000500050005000528
:1020900018120205010000000500050005000500FA
:1020A0000500050005000500050005000500050008
:1020B00005000500050005181202050200000005D4
:1020C00000050005000500050005000500050005E8
:1020D0000005000500050005000500050005010AD2
:1020E0001E401400640DAC00C8012C011801360517
:1020F000DC05DC05DC019001900A000177010A068D
:10210000213C000000000000000000000000000072
:10211000000000000000160100018701000C01D042
:102120000001001501010400020000000000000091
:102130000000000000001D0000000000FF0064001F
:10214000000000000001010000000000000000008D
:1021500000000000000000000001D00100000000AD
:102160000000000000000000020004400438021CCF
:10217000424202580258010F010F087004383E3ED7
:1021800001F001F000FF00FF1000C8025803200218
:10219000D007D0012C00440004010502020404060B
:1021A0008000C81388100306012C025803201F402A
:1021B00028015E02BC001412050F0258012C04B065
:1021C0000064043232005003E8005008200032015D
:1021D000F401F4032000C8006C001E0080021C0201
:1021E0001C006407D0021C021C006407D00000041D
:1021F0003800000870006400A000A009C4012CC2CF
:10220000D57CB430E708B2D56E24FFFF0B247CB632
:1022100030E712B2D56E34FFFF0B348D326E24FFDF
:10222000FF0B2480028D3230D5066E34FFFF0B3455
:10223000227D51AD037D027D21AD052D12AD352DE1
:1022400021227D02AD31AD102D21226D0074104D83
:1022500000780B4D2278278D317D126D22227D432F
:102260007D326D222F112D445002A50FBF10400466
:102270009F100B901478ED7F016D227D34227D41FB
:102280007D138D247D022F004004BD0440049D0475
:102290000B141478F17D237D317D106D0022C2D5A1
:1022A0007CB030E708B2D59F229F207F027CB430FB
:1022B000E713B2D59F229F217F1212224D9F229FAA
:1022C000207F02800312224D30D5069F229F217F5E
:1022D00012226CAA4D11681A1E54680E0B38201B6E
:1022E00018200B350B151B5478F250067E39407AB6
:1022F0001940226CAA4D11681E1E54500C7E1B0002
:102300007A190068120B1C0B140B1A001B18000B17
:102310001D0B151B5478F2227584017E447FFFE467
:102320007A49B01B4478F97EF87D7BC222C223C271
:1023300024C21EC21F751200C229C22AC22BC22586
:10234000C226C22CC215C216C217D218D219C20C8C
:10235000C20DC20EC20FC210C211C212C213C214E9
:10236000C22DC22ED227C228751E00751F017E0401
:1023700000FF7E14262D0B0A405D44681A69200078
:10238000020B0E0B44800A7E0BB07A29B00B240B93
:102390000C1B4478F280DF0227F6CAF87F20800AFF
:1023A0007E1BF07A2BF00B340B5469FFFFFC7DEFA2
:1023B0001BE479EFFFFC4DFF78E67F10DAF8227D11
:1023C000437F1080071B447A0BB00B144D4478F503
:1023D00022FF00010200FF01020001FF02000102D2
:1023E000FF7D23BE24000048037D32226D339D32E1
:1023F00022000000000000000000000000000000BB
:1024000000000000000000000000000000000000CC
:1024100000000000000000000000000000000000BC
:1024200000000000000000000000000000000000AC
:10243000000000000000000000000000000000009C
:102620000000000000000000000000000000014D5C
:10263000400100014D460100014D4805000351D302
:10264000000000000651D600000000000000065106
:10265000DC000000000000000103FF0100017D73A9
:102660000000027C2B000000017B58FF000A0008DC
:1026700000000000000000000000000178F20000EF
:1026800008798F0500000200020002000C79BF01EA
:10269000030003000003000003000000017D780038
:1026A00000017C720000017C730000027D76000056
:1026B00000017CF30000017D550000015F91FF00E7
:1026C0000160E000000260E10000000460E300003F
:1026D00000000001667D00000266CE000000017D62
:1026E000600100017D610000017D350000017D3643
:1026F0000000017D370000017D380000017D3900B8
:1027000000027B560000000629F93F1F50112010DF
:10271000000129FF3400017ADB6400017D7A0000AA
:102720000129E500000129EA05000129EE04000263
:1027300029EF0000000129F101000129F500000145
:1027400003FE0100017D7B0100017D460000017C4C
:102750002DFF00017C2E0000017C2F0000017C3049
:102760004000017C31400002242B2431000127F17C
:10277000020001281A0000047D6600009000000499
:102780007D3A0000940000047D3E000098000004A3
:102790007D4200009C000004015B000080000004FA
:1027A0007D6A0000910000047D6E00009200000030
:1027B00003E8005100030320005000030258004EBC
:1027C000000401C2004B000401400047000400C89F
:1027D000004400040078003E00050064003C000551
:1027E0001227EBE47AB37BCD0247E074017AB37B26
:1027F000827AB37D2D22125A301229D9124A8B12B5
:1028000091691227E07EB37B8224FD68090BB178C1
:10281000F412281B80EF1245AF80EA3029137EB3F3
:102820007BC9B4010C74017AB378E97AB37D738003
:102830000312587EC2297EB37D2DB40102800201AD
:10284000CD12709912635E12543C1244DC7E342027
:10285000E712292612464E124E4F7EB324267002EE
:10286000805212C16D7EB37B7FB40102D2867EB3EB
:10287000746D7006122A3712DD7E127BE67EB32459
:10288000267002802F74011228E2122F40129C9FA2
:10289000129B3974021228E2128A0574031228E28C
:1028A00012A78A74041228E21277681278067EB39F
:1028B0002426700B12C0F112597912DAC1013612B6
:1028C000815112707312D60A1259820136D2041243
:1028D0003FA70228D512DAB37EB37B7FB40102D2C0
:1028E00086221BB1680D1468100BB1781CE47AB312
:1028F00074502212001902B7EE12A9BB12C4FE7A5C
:10290000B3745312B9F1028F3C227A377458E47AC7
:10291000B37D797E3420F57E2400FF0B1A307A37A0
:1029200074627E3420F77E2400FF0B1A3022902040
:10293000DFE4937AB37454122F367E3420E91229DF
:10294000267A3774567E3420EB1229267A3774584B
:102950007E3420ED122926122A947A37745A7E3456
:1029600020EF12292612EAAE1229267A37745E7EEB
:102970003420F3122926122A947A3774601229130C
:10298000122A947A377464902129E4937AB3746894
:102990009020E2E4937AB374697E3420E31229260E
:1029A0007A37746A7E3420F91229267A377466E4FD
:1029B0007AB3746C7AB3746D7AB3746E7AB3746FDD
:1029C0007AB374707AB374717AB374727AB37473BD
:1029D0007AB374747AB37475227E3420E91229268E
:1029E000122AEE7A737B5B7E3420EB122926122AA0
:1029F000A37A737B5C7E3420F1122926122AA37AF3
:102A0000737B5D7E3420F1122926122AA37A737B10
:102A10005E7E3420F9122926122AEE7A737B607EBC
:102A200034006ACA397E3420FD7E2400FF7E087B94
:102A30006112239A1BFD227EB37BABB40105122ADF
:102A4000AE800F7EB3746EB40105122AC7800312E4
:102A500073447EB37D7970177EB3744670117EB374
:102A6000746E700B7E3420FB1229267A377456124E
:102A7000CC5068117E3420EF12292612EAAE1229BA
:102A8000267A37745E7E3420ED122926122A947A33
:102A900037745A226E34FFFF0B34227A737B5B7ECD
:102AA0003774580E340E340E340E340E34227E3405
:102AB00000C8122F327E3400B412290A122AE01202
:102AC0002A9B7A737B5C227E3400AA122F327E34DA
:102AD000006412290A122AE0122A9B7A737B5C2274
:102AE0006E34FFFF0B347A3774647E3774561E34AD
:102AF0001E341E341E341E3422CA3B7CF77CEB7518
:102B000028077E3402007A352B752D007E3423F1A0
:102B10007E2400FF7E1467047E54023C1222F56D71
:102B200066800E7E347FFF7D263E24593211380B9D
:102B3000647E3778EC7D230B26BD2638E62E3400E4
:102B400008122D7C12EA88E41223BF7EB303FAB484
:102B5000010A7E3703FB122AF07A352B740AACBEC9
:102B6000492579997E352BAD3209B57997600C1ED0
:102B7000341E2450034E60801478F47A352BE528F7
:102B80000A5B1B54F52781DFE5277E3400016005D1
:102B90003E341478FB7A352912464AE527BEB00741
:102BA00058136D66800A122D777D212D2612E98239
:102BB00012EA9638F16D66122D777E2778EC2D2675
:102BC0002D2112E982BE64000478EC7CBE122D7CBB
:102BD00012EA88122D85052DE52D5401B4010874E3
:102BE000017AB303FE800E7E7329E60A371E340B8A
:102BF000347A7303FE123FA2E527BEB00758666D14
:102C000066805D7D563E5449350CD07D4312EB55B0
:102C100008077D239E252B80046D229D247A252E76
:102C2000492511387D4212EB5508059E252B80045D
:102C30006D229D247A2530BE252E4013593511383A
:102C4000122D7C7D212D26095251E419566704BEB0
:102C5000352B500A12E9007D232D2612E90E0B6454
:102C600012EA96389E6D667E1778EC2D167D513EE1
:102C70005449050CD07D3012EB4D08077D409E4530
:102C80002B80046D449D437A452E494511387D348F
:102C900012EB4D08059E452B80046D449D437A45FB
:102CA00030BE452E40115905113812E9052D310964
:102CB0007351E419716704BE052B500A12E9007DB7
:102CC000232D2112E90E0B64BE6400047899300CA8
:102CD00002A174300D02A174300E02A1741527E513
:102CE00027BEB001480261887EB37BEDBEB00268AA
:102CF0006F12EB45686A7E081138740AACBE124B3D
:102D0000C06D6680257D263E2449321138BE3403CD
:102D1000E82815BE343E80500F09766704122D7CDA
:102D20007D212D26197251E40B6412EA9638D66D76
:102D3000667E2778EC2D267D123E1449311138BE6F
:102D40003403E82813BE343E80500D097267041224
:102D50002D7C2D21197251E40B64BE64000478D1DE
:102D600074017AB303FE7CBE122D7C12EA88122D08
:102D70008512D315DA3B227E35297C670A0F7E1433
:102D8000023CAD1022CA3B7F307CABBEA0044002A7
:102D9000E12F7427A409B578F7F53CE4123D267EAF
:102DA000F774807EE774822DEF7AE53A7E086B9C9B
:102DB000126CF27EB3748C60626DEE802E7EE5360E
:102DC0003EE4493E748D7A35387F032E15367E0BEE
:102DD000501953029112E82B60053E241478FB121F
:102DE0002AF03E342E346BC012E8BA7AE536BEF5CE
:102DF0003638CA7AF536801912E81360053E241475
:102E000078FB122AF03E342E346B9C12E8BA7AE535
:102E1000367EE53ABEE53638DF80676DEE80161205
:102E2000E81360053E241478FB122AF03E342E3459
:102E30006B9C12E8BA7AE536BEF53638E27AF5369A
:102E400080387E35363E344923748D7A25387F03A9
:102E50002E15367E0B70197202917D52126CA9608C
:102E6000053E141478FB126CB43E242E246BC01261
:102E70006CD27E35360B347A35367E353ABE3536F1
:102E800038C07E453A12EA0B7A73017712E92C7A40
:102E9000B3017812EB5D7AB301790B4412EA0B7A35
:102EA00073029112E92C7AB3029212EB5D7AB302AB
:102EB000937EB3747E54050A3B4E376B9C7A376B16
:102EC0009C7EB3747F54050A3B4E376BC07A376BD8
:102ED000C012E9FF2E7400167D377E086B9C126EBF
:102EE000647D377E086BC0126E6B12E9FF2E740092
:102EF000286D337A35367E3536095301787C256C5A
:102F0000330953017712E8A240EC12EA671203FA80
:102F10006D337A35367E3536095302927C256C3313
:102F20000953029112E8A240EC12EA67120496DA01
:102F30003B227A3774569020E1E4937AB374552299
:102F4000C22B7EB3746C700312C9E4123738123787
:102F50008012373812C30712373812CD561237385D
:102F6000123481123738022F69CA3BC2007ED372F5
:102F7000300A3D3E34CA397E18702E7E0866DA1259
:102F8000239A1BFD6C117527006CCC0230447E44E3
:102F900003FF7EE0FF6CFF805A7CBF1237EB60516D
:102FA00012EB07BE00FF6849090566DB0A107E7058
:102FB00002AC7C09037C790A3012A5DF08049D313C
:102FC00080046D339D3212EB070AF07402ACBC0929
:102FD000057C780A107D219D2FBE24000008049DE9
:102FE0001F80046D119D122D13BD4128047D417C6D
:102FF000EF0BF0BCDF38A2BEE0FF68467E7002AC8B
:103000007E09B366DA097366DB1231587D137402E8
:10301000ACBE09B566DA129B5EBD1348257E700210
:10302000AC7E090366DA7EA1277402A4190567162F
:10303000090366DB1905671774FF19B366DA0B100D
:1030400005270BC07E037CB4BC0C2803022F8E7CAA
:10305000C180766D007EE0FF6CFF80407CBF123740
:10306000EB60377E3002AC3F09B166DABEB0FF6874
:1030700029097166DB1231587D43C200BD04580234
:10308000D2003000157E7002AC7F09B366DAF528F5
:1030900009B366DBF5297D047CEF0BF0BCDF38BC9F
:1030A000BEE0FF68227EA1287E31277402AC3B1966
:1030B000A16716E52919B167177EA0FF7E3002AC23
:1030C0003E19A166DA05270BC09020DFE493BCBC53
:1030D00038819020E0E4937CAB7402A4CA597E1836
:1030E00067167E0866DA12239A1BFD7ED1271237F7
:1030F000D67402AC7B7E087C7874FF1223BFBED0EE
:103100000028370A3D3E34CA397E1866DA7E0870D8
:103110002E12239A1BFD0A3D3E34CA397E1866DA08
:103120007E087C7812239A1BFD6CCC8009D2027C2D
:10313000BC1237100BC0BCDC38F37AD37CB47AD322
:1031400072309020DFE493BEB3723050047AB372D1
:1031500030DA3B227CB97C7012998E7D133E147E4E
:103160001F22E02D310B1A3022CA3B7C967C6B7EED
:10317000D0FF753EFF129778C2057E2400647EB3AF
:103180007259B4010612CC58C341C0BE900A28033C
:10319000C341C07E10077404ACB9191529B17DF282
:1031A0007CF67CE7C203C2047C1F7AF13A800812E5
:1031B00036A008087A113A1236C558F37C1F7AF106
:1031C0003B80081236A008087A113B1236FC48F3FF
:1031D000753D0012A766BEB13B7808D2040A6A1B8F
:1031E000648008E53A7004D2036CDD7C0E7AE13C21
:1031F00020040F30033B800A7CBD12369108087A08
:10320000013C1236CE58F17C0E7C8E80097CBD12BA
:10321000369108137C807CB0047C0B1A5B7E73743F
:103220007B1A17BD5148E6E53C0AEB0A589D5EF54E
:103230003DC2027C0E7AE13C800A7CBF12369108C6
:10324000087A013C1236CE58F1753F00E53C700417
:10325000D202F53E7C1F7AF13A30022F80081236F6
:10326000AA08087A113A1236C558F37C1F7AF13B46
:1032700080081236AA08087A113B1236FC48F3E59A
:103280003A0A1BE53B0A5B9D51F53F7E3004AC39A1
:10329000098129B1BE813D4016BE813F5002800F99
:1032A00009B129B0601320040620030330020A7418
:1032B0000119B129B0D2058005E419B129B0A205E0
:1032C000DA3B22CA3B7EE3747A7EB3747BF52CC270
:1032D000027E3421B17E2400FF0B1AC07E177236A5
:1032E000BD1C58047DC10EC47EB37D3560047EC410
:1032F00000FA6CDD81677402ACBD09C5702E0975DA
:10330000702F7A71277CBC1231587DB3BDCB080277
:1033100081657EB37D356017BEC003500281657E36
:1033200073747A0A571B560A1CBD1508028165BCC6
:10333000EC38028165E52CBEB127380281657D1B22
:103340000E147DEB0EE40EE42DE16DFF1236F285D6
:10335000272B802C6C997CFC801B7CBF7E712B12F0
:1033600034791809BDB048051236BD8006E52ABC7F
:10337000BF58071BF0BEF00058E04C996809152BA8
:10338000E52BBEB00058CD1236E9583685272B8084
:103390002A1236D7801B7CB87E712B12347918091B
:1033A000BDB048051236B58006E529BCB828060B25
:1033B00080BCE838E14C996809152BE52BBEB000BC
:1033C00058CF1236F2E52C0AAB1BA4E5270A1BBD29
:1033D0001A586D1236E080296C997CFC80187CBFED
:1033E0001234761809BDB048051236BD8006E52AAC
:1033F000BCBF58071BF0BEF00058E34C99680905A4
:1034000028E52CBEB12838D01236E958331236E000
:1034100080271236D780187CB81234761809BDB0D0
:1034200048051236B58006E529BCB828060B80BCD5
:10343000E838E44C9968090528E52CBEB12838D253
:103440007EB37D3560067ED4001980079021B0E4FC
:10345000930ADBBDDF380ED2027AC37D31E5277ACD
:10346000B37D32800C0BD07E737230BC7D2802415C
:10347000F6A202DA3B227E71281231587D03BDE0AC
:10348000227EB3746D6002C18812C3D77802C188EE
:103490007EA37230BEA001781B7EB3724670157E8B
:1034A000B3702E7AB37C757EB3702F7AB37C76E4DA
:1034B0007AB37C77BEA000283EC2006C1180211236
:1034C00037DE7E737C750A271A391237C7580F7E8C
:1034D000737C760A271A301237C75802D2000B10B5
:1034E00012369938DA30000C7EB37C77BEB0C85003
:1034F0000B048004E48001E47AB37C777E7372303D
:10350000BE70025002C1887EB37447B401028002CB
:10351000C1886DEE6C11801A1237DE1231547DD3E2
:10352000BDDE080C7DED7A9372387A0372397C81A6
:103530000B1012369938E16C11C181BC817802C13F
:103540007F7E3002AC3109B1702EF52B09B1702F9E
:10355000F52C7EA372387AA12D7EB37239F52EBE7A
:10356000A12B2804E52B8002E52DF527E52DBEB122
:103570002B5004E52B8002E52DF529E52EBEB12C5C
:103580002804E52C8002E52EF528E52EBEB12C504E
:10359000057EA12C80037EA12E7AA12AE5271AFBA5
:1035A000E5291A1B9D1F0B147CB3F52FE5281A1B68
:1035B0001A5A9D510B54F5301236897DF3E530BE11
:1035C000B12F5050E528BEB000080215287E737454
:1035D0007D0AC71BC4E52A1A1BBD1C5802052A7E9A
:1035E00091291236897DE380231B906DDD7E012AAF
:1035F000800E123154BD3D08051231547DD31B009D
:10360000E528BCB008ECBDDE58027DEDE527BCB96D
:1036100048D7804EE527BEB000080215277E737498
:103620007C0AC71BC4E5291A1BBD1C580205297E4C
:10363000012A1236897DE380231B006DDD7E9129EE
:10364000800E123154BD3D08051231547DD31B90BC
:10365000E527BCB908ECBDDE58027DEDE528BCB01D
:1036600048D77D3F3E343E347E24000A1221FFBD00
:103670003E580C7E737C77BE7028500312370C0BBB
:10368000101236992802A13B22E52B7E712C0231C3
:10369000587C70123158BD3F227E737230BC71224B
:1036A0007CB17C7E123158BD3F227CB17E713E12CE
:1036B0003158BD3F220BF40B907A8129220BF40B79
:1036C000907AF12A227CB1147C1BBEB000227CB01F
:1036D000147C0BBEB000226C990A1C0B147C832254
:1036E000E5270A5B0B54F528220A5E1B540A1CBD11
:1036F00015220A5C0B54F5297AC12A227CB1047C7C
:103700001B1AEB7E83747C1A18BDE122C2027CB1C5
:103710007C7BC423541F7CAB1271FE30020F0A3A2B
:103720002E3470A67E39A04CBA7A39B02264FF0AD2
:103730002A2E2470A602E912CA796CFF6CEE802C46
:103740007CBE1237EB60237E340002CA39AC7E2E79
:1037500034702E6D227E3002AC3F2E14702E6D0020
:1037600012239A1BFDD2021237780BE0129B4338CA
:10377000CF7AF37230DA79227CBF1237100BF02245
:10378000127F9C283A7EB3744770347E377232BE03
:10379000340026282F7EB37D39BEB0025026047A2D
:1037A000B37D396C338009C2027CB31237100B3001
:1037B0007E237230BC2338EFE47AB372308005E4A4
:1037C0007AB37D390237389D321223E1BE340002CC
:1037D0002274FF1223BF9020DFE4937C7B227402CB
:1037E000ACB10995702E0905702F227C7BC423543F
:1037F0001F0A2B09A270A61271FE5CBA227EB37B4F
:10380000FF123C007E374D4D4E60017A374D4D4ED4
:1038100070207A374D4DCA3B7EF329F17E3027ACBC
:103820003F09B178F3F52709B178F4F5287E040053
:1038300027CA092E1478F36D007E187BFE12239A96
:103840001BFD7427ACBF09E578F77ED0B5ACDE2E42
:10385000640100E4123D26123A3B5E240100680C2C
:103860005E60FE7A374D4D7CBF124017123A3B5EC8
:10387000240001682E5E70FE7A374D4D7EB37BFECC
:10388000123FFF500C7EB37BFE124078123AB48098
:10389000127EA1277E7027AC7F19A378F3E5277AE3
:1038A000B37BFE123A3B5E24000268375E70FD7AFD
:1038B000374D4D7EB37BFF12C6E850157EB37BFFBC
:1038C00012410E500C7EB37BFF123C00123AB480C2
:1038D000127EA1287E7027AC7F19A378F4E5287AA0
:1038E000B37BFF123A3B5E240004682D5E70FB122E
:1038F0003A6E7E302CAC3E123BDB74017E7027ACFE
:103900007F123FCA123BE2123A42123CE2123C3DA5
:103910007D36742CACBE1265D5123A3B5E2400088D
:10392000680E5E70F77A374D4D7EB37C011240C44D
:10393000123A3B5E240010680C5E70EF123A75126A
:103940003A42123CE2123A3B5E24002068375E7035
:10395000DF7A374D4D4E6002123A6E123BE2123A58
:1039600062740AACBF123FE9123A627E7027AC7FE4
:10397000123FF47CBF12DACD123C3D123A5C7E2439
:103980000010120C5A123A3B5E24004068175E7019
:10399000BF7A374D4D123F4F7805123F20800312FA
:1039A0003E95122D85123A3B5E240080680A5E70B7
:1039B0007F7A374D4D12927A123A3B5E24020068AC
:1039C0003B5E60FD7A374D4D7427ACBF49E578FA10
:1039D0000BE47EF77C27ADEFBE787FFF28047E786E
:1039E0007FFF7E080065123CE97E0800A1123CE9D9
:1039F0007E0800657D3F12DB17120C5A123A3B5EBF
:103A0000240400680E5E60FB7A374D4D7EB37BD791
:103A100012C571123A3B5E24100068075E60EF7AAF
:103A2000374D4D123A3B5E242000680C5E60DF7A11
:103A3000374D4D7CBF125FFBDA3B227E374D4D7D0B
:103A400023227E302CAC3E2E1400E36D00740AACB1
:103A5000BF4935799F4925799D12093B7D362E3422
:103A600000067E302CAC3E2E1400E36D00227A3727
:103A70004D4D4E60107A374D4D7CBFCAF87CFB121D
:103A80003AB47EA37C007E7027AC7F19A378F56CD6
:103A9000AA7E5002AC5A49427C057E7027AC7F2D2D
:103AA00032594378FA0BA0BEA01040E57CBF124FFC
:103AB00087DAF82212EB45683AE51E60367EB37B62
:103AC000FE7E737BFF12D2FA7D237E340003AD327B
:103AD0007E24000A8D326CAA7E5002AC5A49127CB8
:103AE00005BD13280759327C0512EA5B0BA0BEA066
:103AF0001078E522CA797CEBBEE004400261CA126C
:103B0000EAC9BEF003400261CA7402ACBE09B579CD
:103B100090543F0A3B742CACBF593500D77402ACAB
:103B2000BE09B5798F541F7C6B6C77123BCF742C18
:103B3000ACBF593500D9123BD674017E7027AC7EDC
:103B4000123FCA7E302CAC3F123A677E7027AC7EA3
:103B5000123FF47E302CAC3F1240717427ACBE098A
:103B60007578F3123BCD120D617E302CAC3F123CC8
:103B7000367427ACBE097578F4123BCD120D737EF6
:103B8000302CAC3F123C36740AACBE123BF17E3096
:103B90002CAC3F123A67740AACBE123FE97E302C5F
:103BA000AC3F2E1400EB6D007427ACBE09B578F65F
:103BB000120C38E4123D267E70B5AC7F2E34010025
:103BC000123BD67E240016120C5ADA79220A373EAE
:103BD000343E343E34227E302CAC3F2E1400D76D60
:103BE00000227E302CAC3E2E1400DB6D00740AAC3B
:103BF000BF09B57997020D017426ACBF09B579D319
:103C0000CA3B7CFB6CEE7427ACBE19F578F40BE074
:103C1000BEE00478F17E6401006CEE7E302CAC3E98
:103C2000123C360A3F123BCF120D73123C3D12403C
:103C3000BA40E8DA3B222E1400DB6D00227D360B01
:103C400035742CACBE492500DB02002E7E1F7D6A38
:103C5000691100067D015E040001780AE47AB32947
:103C6000F1751E00802F5E1400027805123CF08072
:103C7000247EB329F1BEB00168027019123CD968E4
:103C80000B74027AB329F1751E02800974037AB3AA
:103C900029F1751E037401123AF47EB329F1240050
:103CA000682524FD6812047822123CFA682A123C26
:103CB000D9782574010205BC123CFA681B123CD964
:103CC00068167401020530E4023AF47E0F7D6A1230
:103CD0003FD11247EB123CF0226931000E5E3400F6
:103CE00008227E240004020C5A7E377C25020C1622
:103CF00074017AB329F1751E01227E1F7D6A691154
:103D000000065E14000222CAF812D7CB7EF0017CB6
:103D1000BF123AF40BF0BEF00478F4E51E7004E430
:103D2000123AF4DAF8227CAB7E08005F7CBA120DFE
:103D3000857E08009B120D857E3400087E08005F9A
:103D400012DBA27E3400087E08009B7E2400010264
:103D500004967CBF7E7379CFCA797CF77CEBD2174F
:103D6000123BF8BEE0037CBE7E70267807AC7F1263
:103D70003F228005AC7F123E97122D85DA7922CA48
:103D8000797CFBC2027CBF12C7FBE51E60586CEE5B
:103D90007426ACBE09B579E06033123FD97C7E123F
:103DA0003D58D202BEF003A20192037426780CACF7
:103DB000BE491579F7490579F5800AACBE491579F0
:103DC000EF490579ED12C7F27CBF124B13200C06A8
:103DD000200D03300E09300203123D52C3800E0B3A
:103DE000E0BEE00340AA300203123D52D3DA79224A
:103DF000CAF8C2007EF329F1200C06200D03300E14
:103E000003C3C1927E2400017CBF60053E24147868
:103E1000FB7E7378EB6C665C754D3368747CBF1207
:103E200097E55002D200D204123FA7A20092017C73
:103E3000BF123D7F4003C380597CBF7E737A571207
:103E40003D58E47C7F129820A20092037E0F22DC72
:103E50007E181A087CBF124B13123D52200C06200C
:103E60000D03300E03C3802A1243D712C70CC201C0
:103E700012465E123FC360053E341478FB6E70FF3D
:103E80005E7378EB7A7378EB12D31512635ED3808E
:103E900001D3DAF822AC67491379E3490379E122C7
:103EA000CAF87E70787EB329F160583005557EA33C
:103EB0007D2DBEA003684C7EB379D270467EB37868
:103EC000F2047AB378F2BCB75003302A24BEA001C2
:103ED000781FC22AD22DE47AB378F26C77123FE1D0
:103EE0007E085AD4122D857E7329F17A7379CB809E
:103EF0002C302D29123F3A7805123F20801A123EAD
:103F0000958015E47AB378F2302D12123F3A780595
:103F1000123F208003123E95122D85C22DDAF82221
:103F2000AC67491379E7490379E522700C1261C641
:103F3000120C7812608802049622E47E6379CB7EAC
:103F40007003AC67097379BF123F2B7EF379CBBE48
:103F5000F0037CBF7E6379CF7E702622CAF87CFB9B
:103F6000BEF003501CBE70035017D204123FA712BC
:103F70003BF87EB329F17C7F123D587AF379CFD29A
:103F800015DAF8227E3401167E0866DA7E240012E5
:103F90001203FA7E3401167E0866FE7E2400121299
:103FA00004961243D7D2048006300C03125D367E8D
:103FB000B303CEBEB00168F1300403120B73C20527
:103FC000023EA07E3400017CBF22097378F5020C0A
:103FD000B12E14000E0B0A3022D204123FA77CBF70
:103FE00022123F2B7EB329F1224935799F49257949
:103FF0009D02093B2E3478FA6D227410020A967CD9
:104000007B7408AC7BBE34004E3802C322BE340041
:104010001E5002C322D3227C7B7427ACB70995784B
:10402000F77E637BF67402ACB71965798F7E637B8C
:10403000F77402ACB7196579907402AC7B2E3479B1
:104040008F7E1400291222D27E302CAC397D312E85
:104050003400D7124071120AD27E70B5AC792E347A
:1040600001007E302CAC39123BDB7E240002020CB6
:104070005A2E1400D96D0022CA3B7CFB6CEE7427CB
:10408000ACBE19F578F30BE0BEE00478F17E640174
:10409000006CEE7E302CAC3E1240710A3F123BCFDA
:1040A000120D617D360B34742CACBE492500D9123B
:1040B000002E1240BA40DCDA3B222E6400B50BE041
:1040C000BEE00322CA3B7CFB6CEE7427ACBE19F544
:1040D00078F60BE0BEE00478F17E64010A6CEE7EB7
:1040E000302CAC3E2E1400EB6D007CBF120C38124D
:1040F00041031206481241031206C51240BA40DFBE
:10410000DA3B227D36742CACBE492500EB227C7B49
:104110007408AC7BBE3400125002C322D3227C2B25
:10412000A5BAFA057EB34D4622A5BAFC0374012256
:10413000BE205B38070A3209B37BCD22BE206A68F5
:1041400004A5BA6B1D7E374D437D230B247A274D82
:10415000432E3751BB7E3930A5BA6B03751A6A7C82
:10416000B322BE206E6804A5BA6F1D7E374D417D17
:10417000230B247A274D412E374D4F7E3930A5BA77
:104180006F03751A6E7CB322BE206C6804A5BA6DED
:104190001D7E3751B97D230B247A2751B92E374D17
:1041A0004B7E3930A5BA6D03751A6C7CB322BE20E4
:1041B000896804A5BA8A1D7E3751BF7D230B247AF6
:1041C0002751BF2E3751BD7E3930A5BA8A03751AE3
:1041D000897CB322BE2070400ABE207F38057CB2A5
:1041E0000242A9BE20816804A5BA82387EB37BE46E
:1041F0007CABBEA020400DBEA04050080A3A093357
:104200006FEE80117E241B660A3B2D326D222E2418
:1042100000FF7E1B30047AB37BE4A5BA8203751AD3
:10422000817CB322A5BA86057EB34D4822A5BA8704
:10423000057EB34D4022A5BA88197E1F7D6A69317B
:1042400000105E3438000A561E541E541E545E542C
:10425000000722BE2090400ABE209438057CB2029E
:104260006F57BE20996804A5BA9A1B7E334D457CD2
:10427000B3047AB34D450A33093351C1A5BA9A0341
:10428000751A997CB322A5BA9B057EB34D4722A52A
:10429000BAF6057EB303FA22A5BAF70B7E5703FBE5
:1042A0007E4400648D5422E4227C6B7E70FF7CB6D9
:1042B000248CBEB00A400261557EA003A49042C186
:1042C000730242FF0243550242DF0242ED0242F610
:1042D0000243080243240243130243290243297E76
:1042E0001F7D6A6931000E5E34000480687E1F7D88
:1042F0006A123CD9805F12436E5E3400028056120F
:10430000436E5E340001804D12436E5E3404000A39
:1043100036800B12436E5E3408000A361E341E349B
:104320001E3480317E71EF802C7E7329E47CB704CB
:104330007AB329E40A270972015F7EB37BF1047A1C
:10434000B37BF170097EB37BF0047AB37BF0A5BE3A
:104350007D03751A7C7CB7222E1400140B0A304E94
:1043600070011B0A30751E0174017AB329F17E1F9A
:104370007D6A6931000622301A23C21AD21C124308
:104380006E5E340002740168051205308003123C31
:10439000F27E3400011247F2E51E024492301D2CD9
:1043A000C21DC21C12436E5E340002740168051205
:1043B00005BC8003123CF27EB329E7B401077E34CA
:1043C00000021247F2E51E1244928007301C04E5F9
:1043D0001E70030243D722E47AB303CE12EA171207
:1043E000E8C81245A31247EBC2041243FD12D7E5F9
:1043F000BEB0016803125FB0D2040243FDA2AC92CA
:1044000005C2AC7E0F7D6A30040A0B160B0A304ED3
:10441000700380080B160B0A305E70FC1B0A30A27A
:104420000592AC22CA3BC2041243FDC20D300C11EE
:10443000C20C12917512454412472E12D315124721
:10444000DBD2041243FDC20112D2D3300E3CC20EA5
:1044500012EB107D235E240001682F5E3400026899
:10446000051247FD8011751E0174017AB329F17F91
:1044700003123FD11247EB12472EC20112465EE5EE
:104480001E124492741F7AB378EBD20112D2D3DA9F
:104490003B227CAB1265601BA068121BA068131B3B
:1044A000A068142EA00378121267CE800D12DA8451
:1044B00080081267E7800312DA970244BDE47AB3FA
:1044C00003D66CAA800D12EA9D2EB303D67AB303ED
:1044D000D60BA07EB303CBBCBA38EB2274057AB3FB
:1044E00003FD1244247EB378EA600D800612464A2A
:1044F00012442412642350F57EB378EB600D8006DD
:1045000012464A124424123DF050F502450E7E63D5
:1045100029F17E7379CF7426A5BE0308ACB749157F
:1045200079E78006ACB7491579E37D217A274D4FAD
:104530003015107E240027CA2912E94C12239A1B39
:10454000FDC215227E0F7D6A693000065E340001CF
:1045500068181243585E34000268031247FD740362
:1045600012DB697401123AF4802E12DAB312EB19DD
:10457000740112DB69E4123AF47E0F7D6A2E140096
:104580000A0B0A304E60101B0A30E47AB329E61297
:1045900045A3125F191260E2E51E0244921B0A3025
:1045A000125F207E0F7D6A2E1400140B0A30221237
:1045B00058407EB37D2DB4037B1246811244DC1239
:1045C000464A7EB37BCD30E7667EB37BDE7005C2A4
:1045D00004123FA7124424301008C2101246591288
:1045E00043D77EB37BDE70051298018006124E4FD2
:1045F0001298187EB32426700512597980B47EB3C0
:1046000078E9B4011712C16D740212CBCD12DD7EB0
:104610001256E012CBC2127BE6122F40126F847E3C
:10462000B37BDE700A7EB37BCD547F7AB37BCD1231
:10463000595FA1B2D229D204123FA702463EE47AC2
:10464000B303FA6D337A3703FB227E3409C46D223B
:104650007A277D1C7A377D1E22124718D201E47A10
:10466000B379D07AB379D16CAA12B798BEA0037887
:10467000F8E47AB37A457AB379D23001031247E08D
:1046800022302276C222124FF5D204123FA77E7347
:104690007BFDBE7329F168077A7329F11246597EB2
:1046A000B37BEBBEB3747E681454057AB37BEB7EA8
:1046B000737BEB7A73747E126D82126DEB7EB37B2B
:1046C000ECBEB3747F681454057AB37BEC7E737BC5
:1046D000EC7A73747F126D82126DEB7EB37BDB54C8
:1046E000FE7AB37BDB7EB37BDC600312685A7EB359
:1046F0007BFB600312480B1243D77E374D4D4D3381
:104700006815D204123FA71238167EB37BDB54FD26
:104710007AB37BDB0243D7226D337A374D43D20421
:10472000123FA7123C4CE51E12449202472E12EB98
:104730003412496B122D7E7D212E2451E47A274DAF
:104740004F6D227A274D417E24748D7A274D4B7E02
:10475000240027CA2912E94C12239A1BFD7E34003B
:1047600002CA397E6329F1AC672E34798F6D227EBF
:10477000087BF612239A1BFD7EA329F1740AA44933
:1047800035799B7A377C037EB329F112DAFC7EB34C
:1047900029F112DACD7EB329F11260671247D309ED
:1047A0007579BF7A737BED1247D3097579C07A7337
:1047B0007BEE1247D3097579C17A737BEF7E73293B
:1047C000F17A737BFD0247C8E51E7AB37BD9227E5E
:1047D0000800537EA329F17403A422D20112465E7D
:1047E000741F7AB378EA7AB378EB225E70FB1B0A07
:1047F00030227EA11E7408A4593503AB22751E0217
:1048000074027AB329F174010205BCCA3B7E737449
:104810007E7A7366DA7E73747F7A7366DB7ED37B0F
:10482000FF7EE37BF67EF37BF77E0866DC7E34005A
:1048300008E41223BF7E340020CA397E187C057E2E
:104840000866E412239A1BFD74057AB37BFFE47AB1
:10485000B37BF674027AB37BF76CCC7E34000274BF
:1048600002ACBC59357C050BC0BEC01078F11237C4
:10487000FD6CCC4CCC780D7EB378F05401B40104BF
:1048800074018012BEC00178147EB378F054021E09
:10489000B0B4010974047AB3747EE48034BEC002FB
:1048A00078167EB378F054041EB01EB0B40109E44B
:1048B0007AB3747E74018019BEC00378467EB378E3
:1048C000F05408C423541FB40139E47AB3747E74DD
:1048D000047AB3747F7E3420E512292612464E7482
:1048E0001F7AB378EA1244DC7E7329F10A07122D8D
:1048F0007E0A3C2E3778EC2D31097351E40A2C19CD
:104900007266DC0BC0BEC004680201736CCC0A3C4A
:10491000097366DC12496B122D7E0A2C2E2778EC67
:104920002D21197251E40BC0BEC00440E17E7366B4
:10493000DA7A73747E7E7366DB7A73747F7AD37BE4
:10494000FF7AE37BF67AF37BF77E340020CA397E68
:104950001866E47E087C0512239A1BFD1237FDE4DD
:104960007AB37BFC7AB37BFBDA3B227E6329F10AC4
:1049700006227EB379CF7CAB6C77BCA7782B12492B
:104980006B122D7E124A09590279E57E0815A0594D
:104990001279EF590279ED7E081A08591279F35904
:1049A0000279F17E081E70804E7E5004AC5A0A17C0
:1049B0002D212E2423D1124A827C6B7EB329F10A49
:1049C0000B122D7E124A09590279E50A067E140D52
:1049D00038AD107DF12EF42A006DEE59F279EF59C1
:1049E000E279ED7DF12EF42E6859F279F359E279EE
:1049F000F12E1432D06D00591279F7590279F50B66
:104A000070BE70035002217A222E1451E46D007E94
:104A10005026AC57591279E3590279E17E085AD4ED
:104A2000591279EB590279E97E085898591279E7B9
:104A300022D20112465E6CAA7E6329F17E7027ACF9
:104A400067096378F40A2A124A7E7C7BBC67780483
:104A50007AA379CF7E5026AC5A197279D30BA0BEB7
:104A6000A00378D47E7379CFBE70034005E47AB397
:104A700079CF1249727E7379CF7A737A57222E24B6
:104A800021B77A51827A4183E49322128FDC126E2D
:104A90007B124AE41290FC12908212292E1290632B
:104AA0001290C3124AAC125F84024A316D337A37D6
:104AB0007D33E47AB37D317AB37D327AB37D2E02D1
:104AC0004AC27AB37D2F7AB37D30227E3420E5123C
:104AD000292612464E125A30124A8B1227EB124FD9
:104AE000D70247E07E1815A07A1F22DC7E1804004A
:104AF0007A1F22E07E0F22DC124B0B7E0F22E07E1B
:104B00003404681223BF7AB32426227E340468E476
:104B10000223BFCA3BF52B7F317A0D277E180CD0BC
:104B20007A1D2E1243D77E0D27124B0B30030C7EBD
:104B30001811387A1D327F03124B0BE468031243BD
:104B4000D7D204123FA73003236D338017124BA82E
:104B50007E0D322D120B0A507D233E24124C651B14
:104B60000A200B347A352C124BB038E16D33801F9C
:104B7000124BA87E0D2E2D120B0A203E347E0D27DF
:104B80002D130B0A302D321B0A307E352C0B347A54
:104B9000352C124BB038D97E0D27124BBA30030595
:104BA0007F03124BBADA3B227E352C7D233E242232
:104BB0007E3778EC0B36BE352C227EA12B740AA4EE
:104BC000493579997DB37F707D3B124F787C7B0AA4
:104BD000572E54000B7E18000160052F111478FB2E
:104BE00074042F111478FB7D1B12224B7F61BEB41D
:104BF0000010686E7E73747A7A7369407E73747B7A
:104C00007A736941740B7AB369427DAF7AA76944BC
:104C10007AA76948BEB40002380DE47AB369427ECF
:104C2000D400108DDB6DCC7E0869407D3D1208DE1E
:104C30007E4778EC7EA0047D343E347F572DB30B45
:104C40005A107F161222427EB36942600C1E341E37
:104C50002450034E60801478F41B5A300B441BA080
:104C600078D5229D547F032D120B0A202D2522CAB0
:104C70003B7C677C7B6D227A25297E2778EC0B268E
:104C80007A252B7CB61297E592013001064C777895
:104C900002A1ED124F517AA1337426A449B579EFE0
:104CA00049A579ED499579F3498579F17E3466DC3A
:104CB0001E343E347D736D667E346B461E343E3446
:104CC0006D227A1D2D7E180CD07A1D347F037E183C
:104CD00011387401124E1A124DF07E35317D133E9B
:104CE0001449010CD0492111389D202D177D061241
:104CF0004DFD78E63001797E737A57BE7133683A9C
:104D00006D3380297E35277D233E247F042D120BB1
:104D10000A5049421A082D457F052D120B0A1049E9
:104D20005215A02D51124C631B0A200B347A3527E3
:104D30007E352BBE352738CC80367E181A087A1D72
:104D4000347E0D2D7E1815A07401124E1A7E1D2D75
:104D50007A1D347F037F13127DEF124DF0124E1235
:104D600049421A08495215A0124C63124DFD78EDC4
:104D70007F0312C92A7A3529124DF0124E127F2371
:104D80002D520B2A10BE14000008050B2A208004A7
:104D90006D229D21BE25292812BE14000008050B96
:104DA0002A2080046D229D217A2529124E0078CB7D
:104DB0007E3529BE347FFF28077E347FFF7A352970
:104DC0007E35297A377A4D2001237E0811387E18E6
:104DD0000CD0127EB8124DF07E25313E2449320CA3
:104DE000D0593211387E3531124E0078EBDA3B2241
:104DF0007E3778EC7A35316D337A3527221B0A20DD
:104E00000B347A35317E35270B347A3527BE3400A2
:104E100004227E35317D233E24227CAB7F617F706E
:104E20007E086FAE124FDE7EB3747B7AB36FAF7EB7
:104E3000B3747A7AB36FAEE4127F03127ED17AA391
:104E40006FB16D337A376FB87E086FAE020873CAE0
:104E50003BD2001256A450FBA22DE4337CCB7EE360
:104E600003D57AE324277ED303D60A3E09B303CFC2
:104E700060380A3B1B347CA77AA37BF8B401047426
:104E8000018001E47AB32426E40A3E19B303CF0972
:104E9000F303D17CBE7C7F1298207CBE7C7F12C63F
:104EA0007B7EB303D5047AB303D57E7303D6BE737A
:104EB00003D5381512442412C8B77E737BCA2E70EE
:104EC000FF9205123EA01243777EB32426BEB001A6
:104ED00068077EB37D2DB40346740AACBF493579AB
:104EE000997E0F22D8124BC47CBE7C7F12985192BF
:104EF000007EB329E7700CBEE0014007E47AB324DA
:104F000026C2007CBE7C7F124C6F300012127E2EB7
:104F10007CBE7C7F12C5D47AE37BF97AF329F57ED7
:104F2000B37D2DB401031299214CCC68081298ADC1
:104F3000E47AB324267CBD14BCBE7803120B731232
:104F40004FE6127C5950077CBF7C7E12B49EDA3B40
:104F5000227EB37A4C124F5B7CAB227C7B6CAA6CBA
:104F6000660A26124A7EBCB778047CA680070B60CE
:104F7000BE600340EC7CBA22E480050B341E34048E
:104F8000BE34001038F5227C9B12DB327E500AAC16
:104F900059593279997427ACB9490578F859027989
:104FA0009B491578FA0B14AD106D005912799F5971
:104FB00002799D124FCC19A379977427ACB9493562
:104FC00078FA0B34124FCC19A3799822124F787CBF
:104FD000AB7E700AAC79227E340DAC02464E7E3434
:104FE000000CE40223BF7EB329F6BEB0C85005040E
:104FF0007AB329F6227EA37BD1BEA005780874017E
:105000007AB37BD1801BBEA004781C74017AB37B79
:10501000D17E3420E512292612464E1247DB124477
:10502000DC74027AB37BD1227C6BA5BEFA047A735E
:105030004D46A5BE00077CB712716E8107A5BE0F55
:105040000D74017AB37BDC7AB37BDDD22222A5BE5C
:105050002E0D74017AB37BFB7AB37BFCD22222A59E
:10506000BE12057A737BDF22A5BE1125A5BF0116EE
:105070007EB37BDE6002812674017AB37BDEE47A44
:10508000B37BE002EA7DA5BF00028002812602EB2D
:1050900034BE60996804A5BE9A1D7EA34D477CBAB4
:1050A000047AB34D470A2A197251C1A5BE9A0280EB
:1050B000028126751A9922A5BE9B097A734D477AFB
:1050C000734D4522A5BE01116D227A274D437A7397
:1050D0007BCE7CB7126EDC8107BE605B2802610D5F
:1050E000A5BE30117E537BFDBC5778028126BE7071
:1050F0000440028126BE6020400CBE60223807BEFC
:105100007003280281267CB624F9BEB02940022112
:10511000947EA003A4905119730254260251940264
:1051200051940251940254260254260254260254E9
:105130002602519402542602519402519402519431
:1051400002519402519402519402519402519402DA
:10515000519402519402519402519402519402517B
:105160009402519402519402519402519402519428
:1051700002519402519402519402519402519402AA
:10518000519402519402542602542602542602518C
:10519000940254260A2619727BCD7CB61BB2BEB08F
:1051A00034400241CF7EA003A49051AD7302524916
:1051B0000252CF0252490252CF02524D02524902CC
:1051C00052CF0252CF0252CF0252CF0252CF0252DE
:1051D000CF0252CF0252CF0252CF0252CF0252CF51
:1051E0000252CF0252CF0252CF0252CF0252950248
:1051F00052CF0252A20252CF0252B502524902527B
:10520000490252520252520252520252CF0252C428
:105210000252CF0252CF0252CF02525B02525B02C5
:10522000525B0252CF0252CF0252CF0252CF0252F1
:10523000CF02524902526402526D02527602527FEC
:105240000252CF0252CF025288D22241CF12002600
:10525000807D7E274D4D4E402080347E274D4D4E23
:105260004001802B7E274D4D4E500180227E274DE0
:105270004D4E500280197E274D4D4E500480107EB9
:10528000274D4D4E500880077E274D4D4E50107AC9
:10529000274D4D803A7E537BE51254277A274D41A6
:1052A000802D7E537BE71254273E247A2751B97A0A
:1052B000274D49801A7E537BE91254273E247A27D2
:1052C0004D43800B7E537BF01254277A5329E4BE62
:1052D00060384014BE6056380F0A265E240001BEB6
:1052E000240001780312EA5BBE6058400B7E274D14
:1052F0004D4E40027A274D4DA5BE0A02800281071D
:105300007E374D4D4E60047A374D4D8107BE606C3F
:105310006804A5BE6D2B7E274D4D4E50807A274DDB
:105320004D7E274D497D120B147A174D492E274D7E
:105330004B7A2970A5BE6D0280028107751A6C81B7
:1053400007BE606E6804A5BE6F437E274D4D4E506C
:10535000407A274D4D7E437BE56C557EB37BE60A54
:105360001B2D12047AB37BE670097EB37BE5047AC9
:10537000B37BE57A174D417E274D4F2D217A297059
:10538000A5BE6F0280028107751A6E807ABE6070BA
:10539000400CBE607F38077CB6126EBE8069A5BE29
:1053A000860F7CB754077AB34D4853C3F842C38085
:1053B00056A5BE870F7CB754037AB34D4053C2FC49
:1053C00042C28043A5BE88295E70077E0F7D6A2E8B
:1053D0001400100B0A205E40C71B0A200A377D23E9
:1053E0007C456C5512543512551C4D321B0A3080C9
:1053F00016A5BEF6067A7303FA800CA5BEF70874EC
:1054000064ACB77A5703FB30220A7EB37BDB4401DE
:105410007AB37BDB7E374D4D4D33680A7EB37BDB41
:1054200044027AB37BDB227C256C330A272D2122B0
:105430000B18203E243E243E243E24227E347B5BF7
:10544000302360C2237E39500A251254333E247A19
:10545000277456095300010A251254333E247A2733
:1054600074587EB37B59B4031509A300030A2A12AA
:1054700054333E247A27745E19A300028016B402C6
:1054800013095300020A1512D30C3E147A17745EE6
:105490001953000309730005123BCD3E343E347AA4
:1054A0003774667E3774567A377BCB4D33780B7EF4
:1054B0003420E91229267A377BCB227C677C7BA5B6
:1054C000BF000DBE60002805E47AB3744D02C0D061
:1054D000A5BE00176CAA800E7E60FF7E500DAC5AF0
:1054E0001962736E0BA012551438ED6CAA80207EE1
:1054F000300DAC3A2E1472661254301B18207E30D8
:105500000DAC3A2E1472681254301B18200BA0BC3C
:105510007A38DC229020DFE493BCBA227E0F7D6AC9
:105520002E1400100B0A302230000543C380800384
:1055300053C37F30000543C280800353C27F7E0F78
:105540007D6A3000081255204E60C4800612552036
:105550005E603B1B0A302212567412DAB61255C234
:1055600012557BA9D6EB74017E70821255DEA9C656
:10557000EBD20012557BD200025528A9D0CE3000C4
:1055800004A9D5C922A9C5C9221256A4400612569B
:10559000BA12000A1255C21255CA800B7EB37BABF9
:1055A000600280001256553014F27EB329EBBEB073
:1055B000002805147AB329EBD2001255CAD2000292
:1055C0005528C200125528C20022A200A992CBA2DF
:1055D00000A992CAA200A991CB22E47E70FF7C6B45
:1055E0007EB329E5B48168A5BE0002805CA5BE013A
:1055F00022C2AF0A275E2400026802D2957A71CDDA
:10560000A9D0CEA9C6C9A9D0CEA9C7C9A9D187D2C8
:10561000AF8036A5BE021812569A700FA9D0CEA937
:10562000C7C9A9D0CEA9D6C9A9D187D2AF801AA59A
:10563000BE031C12569A700FA9D0CEA9D7C9A9D003
:10564000CEA9C6C9A9D187D2AF000000000000E4EE
:105650007AB329E522800E1256741256A440142003
:1056600014111255DA12569F70ED12567412E9DFBA
:105670000255DE2274817AB329E522800E12567417
:105680001256A440142014111255DA12569F70EDD0
:1056900012567412E9DF0255DE22C2AF7A71CDA232
:1056A00093E43322300C03125D367EB303CF7006D1
:1056B0007EB303D06002D322C322800312567B1232
:1056C00056A450F82220140612DAAA12000A301C3E
:1056D000031243D71256A440061256BA02000A22F9
:1056E000CAF87E14001E7E0400FF693000017E0BA4
:1056F000507A3766DB7A5366DAC2006DCC7EB4FF2F
:10570000FF20210302581C7ED40468CAD9126F4EB0
:1057100012239A1BFD6DAA7DDA80267D2D3E244939
:105720001248D8BE1400000806493248D880046DDB
:10573000339D31593248D8BD3C28047DC37DBD0B13
:10574000D47E3778ECBD3D38D27E3751D1BD3C5048
:10575000047AC751D17E3751C7BD3C5010BEB4FF4B
:10576000FF680A7E3751CF0B347A3751CF126E5D06
:105770007D3B8D327CF5BEF0004007BEF01D380247
:10578000D2007DDA7D3D3E34492351C1BD2C5051BC
:10579000BEB4FFFF684B09BD51D3B4012549235165
:1057A000DCBD2B78107DA32EA451D60BA8200B2492
:1057B0001BA82080324DDD7814300025800F802119
:1057C000800B4DDD78073000188002801459B351EA
:1057D000DC7E240001592351D6740119BD51D380B8
:1057E00006740119BD66DA49A351C9492351D6BDD2
:1057F0002A2804592351C909BD66DAB401116D2262
:10580000592351DC6DAA59A351D6E419BD51D30BCC
:10581000D4BED400036803025784801A7E0851D393
:105820007E340003E41223BF7E0851D61258397E1D
:105830000851DC125839DAF8227E3400060223BF00
:10584000E47AB37B806D337A3751B91259561258C6
:10585000A8124718C20112465E7E340468CA397E17
:105860001F22DC7E0F22E012239A1BFD1243D70277
:1058700058727E087A4D7E34000AE40223BFE47A2F
:10588000B37B8074017AB329F17AB378E91259AE07
:105890001258A812454412472E124FD712587212AE
:1058A00047DBE47AB37D73227E0803AB7E340020AD
:1058B000E41223BF7E3400017A3703AB7AB303AD21
:1058C00074017AB303AEE47AB303AF7EB329E7B4CD
:1058D00001317E3400021259421259267A7303B8FC
:1058E00074017AB303B9E47AB303BA7E34000212C6
:1058F000592F1259267A7303C07AB303C17AB303BE
:10590000C2800A7E34000112594212592F7E34009F
:10591000017A3703C374017AB303C57AB303C6743B
:10592000027AB303C7227E7329E61E340B34227A2F
:105930003703BB74017AB303BD7AB303BE7AB303F2
:10594000BF227A3703B374017AB303B57AB303B6CF
:10595000E47AB303B7227E737BD37A7378E9221299
:1059600047C87E7329E67A737BD4125956E47AB31A
:1059700074477AB374460259797E737B827A737D59
:105980002D221259A712598B0259797E087D4F0298
:1059900059920B0A30BE3729DE28069E3729DE8051
:1059A000026D331B0A30227E08242902599290206E
:1059B000DEE4937AB329E722A9D2EAA9C2EA6D33D9
:1059C0007E0F7D6A7930001012551C4E34DC0E1BA0
:1059D0000A307E3401C27E0F7D6A7930001E7E0F50
:1059E0007D6A123FD14E70101B0A30125D1F120BE0
:1059F000737E34FFFF7E0F7D6A793000026D337E47
:105A00000F7D6A79300014125A277E34F04F125AF3
:105A100027D2041243FD53C3F875C38553C2FC4318
:105A2000C281D2AC0259AE7E0F7D6A793000042269
:105A3000E4125CF1125C28125ADE125AD3125C1185
:105A40007E34001C120BF312464A125C01125BF00A
:105A5000125BFB125BF5125C1C125D0F125B9B125A
:105A6000D2A31200FD1259B8D2AF125B18125AF429
:105A7000901BD3E493CAB8901BD4E4937C7B7E2420
:105A80000133DAB8025A87CA797CF77CEB7C7F1243
:105A90000B09A9D6CB5EE03F5EF03F7C4E6C550A09
:105AA0003F2D327E0F7D6679300032A9C6CBDA7980
:105AB00022D20012557BA9D0CBA9C6CA125C35A947
:105AC000D39EA9C3B9C28AD2AA025ACCA9D09EA990
:105AD000D79E22C28DC28F125BE8A9C0932275ECBB
:105AE000FF75EEFF75EB2375ACC0125CFFA9D5AD59
:105AF000A9C5ED227E08700E125B4D7E3400207A1F
:105B000035277E180020125B57025B0CA9C5CAA975
:105B1000C794E47AB37D7A226C77A9C7B3A9C6B3D8
:105B2000D2C843ED0FC2EA0B70BE700328037E702B
:105B3000030A573E543E543E543E542E540003F53F
:105B4000B3A9D1B4A9C0B4125B4D025B0CA9D79420
:105B500074A57AB37D7A22125B657E352712D1F463
:105B6000A9D2B4D3227D52F52B7CB67CA50A44F58C
:105B70002A7F21F529A9C2B4740B125B90E52B1280
:105B80005B90E52A125B90E529125B90E4025B9042
:105B9000F5B5A936B3FCA9C6B3D322E47AB37BCD5D
:105BA0007E082933125C087E0829717E34003E127B
:105BB00023BF7E1829337A1F29D8125BCD025BC020
:105BC000751300751A007EB37BCDF59122025BD070
:105BD000C292125BE8901B66E49354FEF592D2E801
:105BE000C2C0A9D495D2AD22759100C290C29122B3
:105BF000C288D2A822A9D5CDD29922A9D6CDD29831
:105C000022A9D099A9C6DF227E34003E74FF022368
:105C1000BFA9C3CBC2CDC2CCA9D6EA22759A2FA9FF
:105C2000D199D29CA9D6DF22A9C5CBA9D1CBA9D223
:105C3000CAA9D2CB22A9D09EA9D49E759D00759CDD
:105C40002022CAB8CA39125C35125ACC7E3729DEF6
:105C50000B347A3729DE7E3729F20B347A3729F272
:105C6000125CE8280A7E3729EF1B347A3729EF7E49
:105C7000B37B82B401407EB329F4047AB329F47E65
:105C80007329F4BE700A282EE47AB329F47E7329AE
:105C9000E9BE737D7278087E3729E00B34800A7E76
:105CA000737D727A7329E96D337A3729E0BE340047
:105CB000FA280375E9FF7EB329E26005147AB32957
