:100000000028100029110000590200006f020000b2
:10001000850200009b020000b10200000000000009
:100020000000000000000000000000003926000071
:1000300049260000000000004b2600005b2600005f
:100040005f2600009324000079260000cd240000e4
:100050007b2600007d2600008d2600009d260000e6
:10006000c7020000bb260000bd260000bf2600001e
:10007000c1260000c3260000c526000000000000c5
:100080000000000000000000000000000000000070
:100090000000000000000000000000000000000060
:1000a0000000000000000000000000000000000050
:1000b0000000000000000000000000000000000040
:1000c000c903000000f002f800f062f80aa090e80e
:1000d000000c82448344aaf10107da4501d100f003
:1000e00057f8aff2090ebae80f0013f0010f18bf6e
:1000f000fb1a43f001031847acf50000ccf50000f3
:100100000a444ff0000c10f8013b13f0070408bf3d
:1001100010f8014b1d1108bf10f8015b641e05d0db
:1001200010f8016b641e01f8016bf9d113f0080f90
:100130001ebf10f8014bad1c0c1b09d16d1e58bf22
:1001400001f801cbfad505e014f8016b01f8016b59
:100150006d1ef9d59142d6d37047000000230024cc
:1001600000250026103a28bf78c1fbd8520728bfc7
:1001700030c148bf0b6070471fb5024802490ef0fe
:10018000bffe1fbd000810000028100010b510bdf4
:10019000dff80cd0fff7f0ff02f0a1fb0ef0b1ff8b
:1001a0000028100003b4fff7f1ff03bc0ef0dcffe2
:1001b0001a4b19680868b0e8f00f80f309884ff00f
:1001c000000080f311884ef00d0e70470000000013
:1001d00003480068006880f3088862b600df00bf4b
:1001e00008ed00e0eff309800c4b1a6820e9f00fee
:1001f000106008b54ff0200080f3118800f02ffd4b
:100200004ff0000080f31188bde8084019680868c5
:10021000b0e8f00f80f30988704700bf0428100091
:1002200001b44ff0200080f3118801bc704701b485
:100230004ff0000080f3118801bc704740ba70474e
:10024000c0ba7047401e0028fcdc704700be7047f3
:1002500040ba7047c0ba70471ef0040f0cbfeff3ee
:100260000880eff309804ff0010102f046b91ef05b
:10027000040f0cbfeff30880eff309804ff0020189
:1002800002f03bb91ef0040f0cbfeff30880eff350
:1002900009804ff0030102f030b91ef0040f0cbfcb
:1002a000eff30880eff309804ff0040102f025b965
:1002b0001ef0040f0cbfeff30880eff309804ff03e
:1002c000050102f01ab91ef0040f0cbfeff308800d
:1002d000eff309804ff0000102f00fb910b50446aa
:1002e00000f029fc20460ef0b1fc044600f0bafbf9
:1002f000204610bd10b5040008d000f01cfc2046bc
:100300000ef0d3fcbde8104000f0acbb10bd00f116
:1003100008014ff0ff32c0e90112c1600161002104
:1003200001607047002101617047426853684b606b
:1003300043688b605368996051604160086101684f
:10034000491c0160704710b50b685a1c02d000f1bf
:10035000080202e0026904e05268546824689c4282
:10036000fad953684b6099608a60516008610168ee
:10037000491c016010bdd0e901128a60d0e9011268
:10038000516001694a68824201d182684a60002254
:1003900002610868401e08607047000010b5031f26
:1003a0004ff0807420381c6081610021416140f869
:1003b000202910bd1d4810b5016841f47f0101607e
:1003c000016841f07f4101604ff0e0201849416130
:1003d00007210161174900200860fff7f9fe00209e
:1003e00010bd704711494ff080501c3908607047ac
:1003f00010b5fff715ff0f480168491c016010bddb
:100400000c490868401e086001d1fff710bf704713
:10041000064910b51c394ff080500860fff700ff07
:1004200000f0d5fabde81040fff701bf20ed00e075
:1004300098990300002810002de9f0410e460500b0
:100440004ff000072ad05020fff748ff040025d0c6
:10045000b84605fb06f0401cc4f84c80fff73eff91
:100460002060c0b105fb0601c4f838806160a0605f
:10047000691e01fb0600e563e060781ec4e91060b8
:10048000a06404f11000fff742ff04f12400fff71d
:100490003eff274602e02046fff72cff3846bde826
:1004a000f08170b50446fff7a3ff04f12405a06caa
:1004b0000ae0606a50b1284600f0e6fc08b100f09e
:1004c00035fda06c401ea0640028f2dc4ff0ff3622
:1004d000a664fff795fffff78bff04f11005606c32
:1004e0000ae0206950b1284600f0cefc08b100f0c7
:1004f0001dfd606c401e60640028f2dc6664bde88f
:100500007040fff77dbf10b51346026c04466ab118
:1005100083b1e0680ef014fce168206c091ae16018
:100520002268914202d26168081ae060a06b401c08
:10053000a06310bda0680ef003fc216ca068084405
:10054000a06061688842f1d32068a060eee72de9e1
:10055000ff41002582b01f46884604464fea050643
:10056000fff746ffa16be06b814213d23a4641464a
:100570002046fff7c8ff606a38b104f1240000f09c
:1005800083fc012801d1fff72dfffff739ff012080
:1005900006b084e7049808b11db106e0fff730ff0c
:1005a0001de0684600f098fc0125fff729ff00f0e8
:1005b000c2fafff71dff606c401c00d16664a06c9e
:1005c000401c00d1a664fff71bff04a9684600f099
:1005d00089fc30b12046fff764ff00f043fa0020a9
:1005e000d6e7fff705ffa06be16b884210d1fff75c
:1005f00007ff04f11000049900f02dfc2046fff7de
:1006000050ff00f02ffa0028aad1fff7ebfea7e772
:10061000fff7f6fe2046fff744ff00f023fa9fe7be
:10062000944ac16c1268914201d0002070470023a7
:100630001a4619468be72de9f0411e4615460f462e
:100640000446fff7edfda06be16b884217d23246fe
:1006500039462046fff757ffa06c411c03d0401cd1
:10066000a06401240ce0606a0028fad004f12400a0
:1006700000f00afc0028f4d001202860f1e70024f3
:10068000fff7d5fd20460ae730b403680d46002b7e
:100690000cd0026cc1688c18c46041688c4200d3d5
:1006a000c360c168284630bc0ef04abb30bc7047fe
:1006b0002de9ff43002683b0984689460446374615
:1006c00000f12405fff794fea06b30b36948e6689b
:1006d0000068e06449462046fff7d6ffb8f1000ff6
:1006e0000ed0e660606a28b1284600f0cdfb08b164
:1006f000fff778fefff784fe012007b0bde8f08326
:10070000a06b401ea06320690028f3d004f1100004
:1007100000f0bafb0128ebd0ece7059808b11eb158
:1007200006e0fff76dfe1de0684600f0d5fb0126f0
:10073000fff766fe00f0fff9fff75afe606c401c01
:1007400000d16764a06c401c00d1a764fff758fe7d
:1007500005a9684600f0c6fb30b12046fff7a1feb0
:1007600000f080f90020c8e7fff742fea06b38b127
:10077000fff746fe2046fff794fe00f073f9a1e76d
:10078000fff73efe2846059900f065fb2046fff77f
:1007900088fe00f067f9002894d1fff723fe91e767
:1007a00070b515460e460446fff73afda06bc8b17a
:1007b00031462046fff768ffa06b401ea063606cc7
:1007c000411c03d0401c606401240ce02069002817
:1007d000fad004f1100000f057fb0028f4d00120fb
:1007e0002860f1e70024fff722fd204670bd10b518
:1007f0000446fff7fdfda46bfff702fe204610bd87
:10080000806b704710b504461b48002100ebc10205
:100810005368a34203d1002240f8312002e0491c72
:100820000a29f3d32068fff765fd2046bde8104094
:10083000fff760bd806b08b1002070470120704752
:10084000816bc06b814201d101207047002070474d
:1008500010b5094b002200bf53f832401cb1521ca6
:100860000a2af9d310bd43f8321003ebc2014860e5
:1008700010bd000004281000b82a10002de9f05f18
:100880008346dde90a6815469a46894648200c9f4a
:10089000fff724fd04004ad01fb9a800fff71efd92
:1008a0000746676338003fd0a900a5220ef08dfaf5
:1008b0006ff0030101eb8501606b3546084420f0c1
:1008c00007074946102204f138000ef0cffa002045
:1008d00084f847000f2d00d30e25e5622086608640
:1008e000201dfff71ffd04f11800fff71bfdc5f1e8
:1008f0000f012461a1615246594638466462fff7f0
:100900004dfd2060b8f1000f01d0c8f80040fff79e
:100910006ffdfb4d6868401c68602868dff8e48361
:1009200040b1686968b331e02046fff7e3fc4ff05f
:10093000ff3449e02c606868012827d15ff0000788
:1009400007eb870108eb8100fff7e1fc7f1c0f2f0d
:10095000f6d3ed48fff7dbfceb481430fff7d7fc8c
:10096000e9482830fff7d3fce7483c30fff7cffcdd
:10097000e5485030fff7cbfce34828631430686348
:1009800004e02868c06ab04200d82c60e06ae968d8
:10099000884200d9e860a96a491ca962296988428d
:1009a00000d9286100eb800108eb8100211dfff7d1
:1009b000bcfc0124fff724fd686928b12868c06adf
:1009c000b04201d2fff70efd2046bde8f09f2de9b1
:1009d000f041cb4ca06920b1e069401ce061bde86a
:1009e000f081a068401ca060a0684ff0ff3570b98e
:1009f000206b616b21636063606a401c6062206be6
:100a00000068a8b1206bc068c0684068e062a06858
:100a1000e16a8842e3d3bb4f206b006850b1206b82
:100a2000c068c668a1687068814205d2e062d6e7f6
:100a3000e562ece7e562d2e7301dfff79cfcb06aa7
:100a400018b106f11800fff796fcf06a2169884298
:100a500000d9206100eb800007eb8000311dfff71b
:100a600064fcd9e72de9f0470026fff7c1fca44c50
:100a7000a069401ea061a069a8bb606898b3dff8b8
:100a80008882002508f12808dff878921ae0c0680b
:100a9000c76807f11800fff76efc381dfff76bfc05
:100aa000f86a2169884200d9206100eb800109ebd6
:100ab0008100391dfff739fcf86a2168c96a88424c
:100ac00000d30125d8f8001040460029dfd1e069a5
:100ad00028b909e0fff77bffe069401ee061e069ab
:100ae0000028f7d105e009e0012d02d0206a012895
:100af00004d1002001262062fff774fcfff780fc80
:100b00003046bde8f08770b57d4c054620684560ed
:100b1000a0682168854201f1040104d2606bbde840
:100b20007040fff710bc206bfff70dfce06a8542b8
:100b300000d2e56270bd72488169491c81617047cd
:100b400010b50b460246fff7f6ff10686c49c41853
:100b50008b68984205d9a0420ed98868844202d891
:100b60000ae0a042f9d914600868001dfff703fcf1
:100b70002046fff7c8ff00e01460fff773ff00286e
:100b800003d1bde81040fff72dbc10bd10b5020029
:100b90000fd0fff7d0ff5a48816800688c18001dfd
:100ba000fff7e9fb2046fff7aefffff75bff0028ea
:100bb00003d1bde81040fff715bc10bd10b50446c9
:100bc000fff716fc0cb94e480468e46afff718fcfe
:100bd000204610bd2de9f04100270d4606460f299d
:100be00000d30e25fff704fcdff81481d8f80000cd
:100bf000864201d1002608e03eb13446e06aa842b0
:100c000029d0854204d926b904e0d8f80040f5e798
:100c100006b90127c5f10f01e562a161394d00eb6d
:100c20008000616905eb8000814210d1201dfff733
:100c3000a2fbe06ad8f810204146904200d9086132
:100c400000eb800005eb8000211dfff76efb012ffc
:100c500001d1fff7c7fbbde8f041fff7d1bb284842
:100c60008269284922b1012101627047521e026146
:100c7000026902eb820251f82220002a0269f5d0b3
:100c800002eb820201eb82014a68526801f108031b
:100c90004a609a4201d152684a60d1680160704747
:100ca00070b50646fff7a4fb154d2868864201d1b2
:100cb000002619e0c6b13446201dfff75cfba06a90
:100cc00018b104f11800fff756fb0f48211d3c3006
:100cd000fff72bfbfff794fb002e0fd1686928b1bb
:100ce000bde87040fff77ebb2c68e5e706483c3066
:100cf00000686968884209d10020286070bd000042
:100d000004281000082b1000342c1000bde870409f
:100d1000a5e7f04b426900219a4206d1806aa3f10f
:100d20001402904201d000b901210846704770b505
:100d30000400e3d0e84d28688442dfd0fff758fb79
:100d40002046fff7e6ff012816d1201dfff713fb11
:100d5000e06a2969884200d92861e04900eb8000f7
:100d600001eb8000211dfff7e0fae06a2968c96afb
:100d7000884201d3fff736fbbde87040fff740bb68
:100d8000bce770b500260446fff7c3ff01281fd15a
:100d9000d14da86920b1cf4804f11801143815e0ed
:100da000e06a2968c96a884201d3012600e000266a
:100db000201dfff7e0fae06a2969884200d928611e
:100dc000c64900eb800001eb8000211dfff7adfa62
:100dd000304693e7c14c2068012801d9fff702fb98
:100de0000df00efcf7e71fb5002400940194029467
:100df00023464022baa1bc480394fff73ffd0128d7
:100e000009d1fff70dfab448012141618460bde8c2
:100e10001f40fff7cfba1fbd10b5fff701faae496b
:100e200000204861bde81040fff7dbba10b5fff7be
:100e3000dffaa9488468fff7e3fa204610bd10b531
:100e4000fff7eef9a4488468fff7f1f9204610bdda
:100e5000a1484068704770b59f4d0c46296818310d
:100e6000fff771fa2868001dfff785fa601c04d0af
:100e7000a8682044bde8704045e62968bde8704098
:100e8000091d9448fff751ba70b5c068c46804f1f1
:100e900018000646fff76ffa8f4da86918b18d4804
:100ea000314614380de0201dfff765fae06a296924
:100eb000884200d92861894900eb800001eb80005d
:100ec000211dfff732fae06a2968c96a884201d316
:100ed000012013e7002011e77f494a6a0260896810
:100ee0004160704770b50d460446fff781fa2868e7
:100ef000411c14d0784a2168536a994203d0616832
:100f0000936899420dd9616893685b1a834208d24d
:100f10009268511a401a28602046fff7ddff00242e
:100f200000e00124fff76cfa2046e7e66a49012059
:100f3000086270476848006870476748416919b19e
:100f4000806918b102207047002070470120704767
:100f500070b5614d064639b14fea0104fff748fa12
:100f6000208e304211d101e02c68f7e7201dfff7f9
:100f700002faa06a18b104f11800fff7fcf955480d
:100f8000211d1430fff7d1f96686fff739fa686939
:100f900018b1bde87040fff725ba6868012802d093
:100fa000bde870405be600202860a7e670b5054606
:100fb00009b9494801680c46fff71afa608ea84340
:100fc0006086208ea8432086bde87040fff718badf
:100fd000404b4269002114339a4206d1806aa3f142
:100fe0002802904201d000b901210846704770b52f
:100ff00006460c002bd0384d2868844227d0fff7d6
:10100000f7f9208e30432086608e30421bd0204678
:10101000fff7deff012816d1201dfff7acf9e06acb
:101020002969884200d928612c4900eb800001eb36
:101030008000211dfff779f9e06a2968c96a8842b2
:1010400001d3fff7cff9bde87040fff7d9b955e6f6
:1010500070b5002605460c000dd0fff7e1f8208e94
:1010600028432086608e284227d02046fff7b0ff15
:10107000012802d021e0304640e6174da86920b192
:10108000144804f11801143815e0e06a2968c96aa7
:10109000884201d3012600e00026201dfff76bf9ee
:1010a000e06a2969884200d928610c4900eb800078
:1010b00001eb8000211dfff738f9fff7b8f8dae7f8
:1010c000054810b50468fff793f9248efff798f9e7
:1010d000204610bd702c100004281000082b1000b2
:1010e00049444c4500000000d50d0000f0b507460e
:1010f000002003460b4e11e057f82350032200bf97
:101100004feac20c45fa0cf484ea2064e4b2521ea1
:1011100056f8244084ea0020f2d55b1c8b42ebdbbe
:10112000f0bd0000b4f100000d4880470d480047b5
:10113000fee7fee7fee7fee7fee7fee7fee7fee787
:10114000fee7fee7fee7fee7fee7fee7fee7fee777
:10115000fee7fee7fee7fee7fee7fee7fee7fee767
:1011600093110000c50000004ff0005090f82110ce
:1011700011f00c0105d0042905d0082905d07821eb
:1011800004e00f2102e01e2100e03c2180f828103d
:101190007047704710b50849042001240023c1f8a6
:1011a000fc00064a14601360054ba0221a70c1f8b7
:1011b000fc01c86710bd000084e000e0d4030022f9
:1011c00002e400e010b5042000f0d6f8052000f09d
:1011d000d3f8062000f0d0f8072000f0cdf8082062
:1011e00000f0caf87649002008607549203108608f
:1011f00074490880724a121d1060714a24321060ce
:1012000088806f4a083210606d4a28321060088169
:101210006b4a0c3210606a4a2c3210608881684a2e
:1012200010321060664a30321060088206210420b5
:1012300000f0baf80621052000f0b6f806210846ad
:1012400000f0b2f80621072000f0aef804210820d3
:1012500000f0aaf8042000f09bf8052000f098f8b0
:10126000062000f095f8072000f092f8082000f022
:101270008ff8042000f074f8052000f071f80620c3
:1012800000f06ef8072000f06bf8bde81040082071
:1012900000f066b800eb80004ff6ff7101ea4001f4
:1012a000474800220260c206118601210160704792
:1012b000434900200860704700eb80004ff6ff7143
:1012c00001ea40013e480022001d02604ff000523a
:1012d000918601210160704739490020091d08608d
:1012e000704700eb80004ff6ff7101ea400134487f
:1012f0000022083002604ff0005211870121016086
:1013000070472f49002008310860704700eb8000cb
:101310004ff6ff7101ea4001294800220c300260bb
:101320004ff000529187012101607047244900204d
:101330000c310860704700eb80004ff6ff7101ea46
:1013400040011f480022103002601e4a0e321180f8
:101350000121016070471a49002010310860704770
:1013600000f01f020121914040094ff0e02202eb02
:101370008000c0f80011704700f01f020121914069
:1013800040094ff0e02202eb8000c0f88011704766
:1013900000f01f020121914040094ff0e02202ebd2
:1013a0008000c0f8801270474907090e002803da50
:1013b00000f00f00044a00e0044a81547047000026
:1013c000240500223200002014ed00e000e400e0db
:1013d00059480121016000210160704757480121ef
:1013e000016000210160704710b5002000f08bf80b
:1013f000534800220260fff7f1fffff7e9ff514871
:1014000002605149a0200870002000f088f8bde873
:101410001040002000f06bb84a4801211c380160e0
:1014200000210160704710b50446002000f06bf801
:1014300043484149046001200860002000f06ff833
:10144000bde81040002000f052b830b53c4889b0eb
:101450000468002c11d0202168460df0e0fc3b48c8
:1014600000783a4b00216a465b1c02e0cd5c555483
:10147000491c8142fadb1146a04709b030bd2e4914
:1014800001201c39086070473048203000782f490f
:1014900021310978401a00f03f0070472c4902784a
:1014a0000a7042784a7082788a70c278ca7002796b
:1014b0000a7142794a7182798a71c079c87170471c
:1014c00024480068417882784ff00050437a0374d2
:1014d000214b1b78437443891b0a83744389c3746b
:1014e00001754275c1798175017ac175704700f047
:1014f0001f020121914040094ff0e02202eb8000e1
:10150000c0f80011704700f01f020121914040090e
:101510004ff0e02202eb8000c0f88011704700f02d
:101520001f020121914040094ff0e02202eb8000b0
:10153000c0f88012704700005c840022a0000022e6
:101540003c2810007c04002200e400e0000400209d
:1015500000020020442810008c28100010b509203b
:1015600000f019f80a2000f016f8092000f01ff822
:101570000a2000f01cf80521092000f024f80521bc
:101580000a2000f020f815487f2141708170017118
:101590000021017010bd00f01f020121914040099f
:1015a0004ff0e02202eb8000c0f88011704700f09d
:1015b0001f020121914040094ff0e02202eb800020
:1015c000c0f8801270474907090e002803da00f0be
:1015d0000f00034a00e0034a81547047480000208e
:1015e00014ed00e000e400e0704710b5a44c0720c3
:1015f00060700020207044f2c000608000bf00bf17
:1016000000bf4cf2c000608000bf00bf00bf4cf2c2
:10161000e00060800920fef715fe44f2e0006080e3
:1016200000bf00bf00bf4ff48040608010bdf0b528
:1016300000252e464ff00054e02716e0883401f0d4
:101640003f0160702170678000bf00bf00bfd4f809
:1016500008c043f825c06680883c00bf6d1c521e40
:10166000491c3f2901d9401cc0b2002ae6dcf0bd6c
:101670002de9f047824c0026a41c05462680dff8a1
:1016800004920121c9f880104ff4c058a4f80080da
:1016900000bf00bf00bf00bf00bf4ff480572780ce
:1016a0003520fef7cffd2680fff79fff00f0a9f859
:1016b0005c2000f0b7f82b46012202210720fff73b
:1016c000b6ff2b1d012203210620fff7b0ff05f115
:1016d0000803012204210520fff7a9ff05f10c03ef
:1016e000012203210720fff7a2ff05f110030122c9
:1016f00004210720fff79bff00f083f8fff775ff39
:10170000278000bf00bf00bf00bf00bf00bf00bff9
:1017100000bf00bf00bfa4f8008000bf00bf00bf33
:1017200000bf00bf4ff440602080c9f88060bde872
:10173000f0872de9f0439946079b002603b18026e8
:101740000023504c1f4665044ff001081de000bf08
:1017500085f8890001f03f0c4cea060c85f888c03a
:1017600059f823c0c5f88cc0c4f8b080c4f8b07074
:10177000491cc9b2402902d3401cc0b20021d4f890
:10178000c0c0bcf1000ffad15b1c9342e0dbbde8a6
:10179000f0834ff0005282f88900002319b18020b5
:1017a00082f8880001e082f8883036480121c0f8cc
:1017b000ac10c0f8ac3000bfd0f8c0100029fbd18d
:1017c000704738b50c4605460021f820fff7e1ffc9
:1017d0000020014600902b462246f820fff7a9ff83
:1017e00038bd38b50c46054601210020fff7d1ff72
:1017f0000120002100902b4622460846fff799ff62
:1018000038bd10b51e4c4ff48040a41c208004202d
:10181000fef718fd0020208000bf00bf00bf00bf02
:1018200000bf10bd70b5164c2126a41c268000bf39
:1018300000bf00bf00bf00bf40f02105258000bff2
:1018400000bf00bf00bf00bf44f221010843208059
:101850000420fef7f7fc258000bf00bf00bf00bfdb
:1018600000bf268000bf00bf00bf00bf00bf002038
:10187000208000bf00bf00bf00bf00bf70bd0000e0
:101880008800002000100022f8b5ff4e00252c46ed
:101890003570012000f068fb0e2000f065fb0d2084
:1018a00000f062fb0c2000f05ffb032000f05cfb0b
:1018b000012000f065fb0e2000f062fb0d2000f01f
:1018c0005ffb0c2000f05cfb032000f059fb00f0f4
:1018d00084fc6a460221ed4800f0c4fdec499df805
:1018e000010008709df80000402800d00325052164
:1018f000012000f051fb05210e2000f04dfb0521d9
:101900000d2000f049fb05210c2000f045fb0621cd
:10191000032000f041fb012000f01afb0e2000f034
:1019200017fb0d2000f014fb032000f011fbb47036
:1019300074702846f8bd20f040405064704738b5b8
:1019400020f06040009014460421684601f04af9f6
:101950000099216484f83e0038bd70b5cd4c054631
:10196000002084f836002046cb4e406a032d02d07a
:10197000042d13d02ce0c74a2946fff7e0ff54f8a6
:10198000280f20f04040e061c448c0f30e002082e0
:10199000306890f88b076075e92018e0bd4a294649
:1019a000fff7cdff54f8280f042120f04040e061fc
:1019b000b848243001f016f9b84901eb8000c0f3b3
:1019c0000e002082306890f88b076075ed20a074bf
:1019d000ad484570bde87040ae4800f093bc70b5ae
:1019e000ac4c0546363400202070ab4ee12020710f
:1019f000306890f888176171363ca949012d02d0f2
:101a0000022d17d02fe0a74ac2f30e02228790f8ca
:101a1000ad27097802f0f00201f00f010a43e275e8
:101a200090f8b40720769b4a2946a068fff787ff05
:101a3000e06815e0994af432c2f30e02228790f86a
:101a4000ad27097802f0f00242ea1111e17590f831
:101a50004f0120768f4a2946e069fff770ff206a20
:101a600020f0404060646078410794f83b1002d554
:101a700021f0020105e0326892f8882702f00202a4
:101a8000114384f83b10c10705d094f83a1041f097
:101a9000020184f83a1080070028306890f8ba07ed
:101aa00001da20f0030084f83c0077484570bde877
:101ab0007040784800f0e9bb012806d0022804d025
:101ac000032801d0042801d147e788e7704773b5a0
:101ad00006469df80440744d641c07e055f8242028
:101ae00001a930469047012804d0641c052cf5d983
:101af00000207cbd9df804007cbd70b501780029f4
:101b00001cd001464822634801f005fb5e4d687811
:101b1000002813d100215f48fff7d9ff04000dd042
:101b20005d48006890f81801000708d500f08cfcab
:101b30000120a8700a2000f09afb6c7070bd002094
:101b400028702046bde87040b6e7002070478268e4
:101b5000d20005d00078c00702d00120087070477d
:101b600000207047c269d20006d00078000703d574
:101b7000022008700120704700207047426ad2009e
:101b800006d00078800703d5032008700120704735
:101b900000207047826a920006d00078400703d583
:101ba0000420087001207047002070470020087052
:101bb000012070472de9f04fdff8dc8081460f46a9
:101bc000d8f80000002400f2093b00f20130a9b06f
:101bd00001784278a24641ea02218278c07841ea3f
:101be000024141ea0065042107f10c0000f0faff10
:101bf0000646042107f1080000f0f4ff0746d8f874
:101c0000000090f80003800757d591e0012101fa08
:101c100004fe1eea050f4dd0224600201bf80240ac
:101c200009ab06e000fb064c39f81cc023f810c0d5
:101c3000401cb842f6ddbaf1010f4ff0000014d19c
:101c400018ab06e000fb064c33f8102029f81c20e6
:101c5000401cb842f6dd0ae000fb062c00fb0648fb
:101c600039f81c3029f81830401cb842f4dd25ea58
:101c70000e05a140294219d03a2209a918a801f05d
:101c80004afa4ff0010a18e0402810000410002022
:101c90008c281000982c100044281000cc860120bd
:101ca000f607100000800120b4f500004ff0000a94
:101cb000544602e04ff0000a641c002da6d129b062
:101cc000bde8f08f012707fa04f818ea050f2cd0b9
:101cd00000941bf80440720004fb06f009eb40017d
:101ce00009a80892019101f016fabaf1010f14d077
:101cf0000098089a704309eb4001019801f00bfa33
:101d000025ea0805a7402f420bd03a2209a918a8b6
:101d100001f001fa4ff0010a0ae018a8089a0199a7
:101d2000ece74ff0000a544602e04ff0000a641c52
:101d3000002dc7d1c3e72de9fe4f05469c488846d4
:101d40004ff000090068ca4600f2293b00f2053056
:101d50004c46017842784f4641ea02218278c078a9
:101d600041ea024141ea0066042108f1280000f03e
:101d700039ff0190042108f1240000f033ff0146ef
:101d80008b48006890f8000382074ff0010039d5b6
:101d900068e000bf00fa04fe1eea060f30d0a44639
:101da000012f1bf80c4004eb4102009235f9123070
:101db0000293019b1a4435f9123018d00ceb4108fc
:101dc000009f35f818c025f817c0019f474435f823
:101dd000177025f8127000bf26ea0e0600fa04f20a
:101de00032420ad09a460127ddf808900ae0009fa7
:101df00025f8179025f812a0eee700273c4601e0f1
:101e00000027641c002ec5d1bde8fe8f00fa04fe39
:101e10001eea060f24d022461bf80240631835f94b
:101e2000148035f913c0012f12d035f812700a440e
:101e300025f8147035f8122025f8132026ea0e062e
:101e400000fa04f2324208d0c146e246012709e016
:101e500025f8149025f813a0f0e700273c4601e090
:101e60000027641c002ed1d1cee71fb500f082f907
:101e700001208df800004f48019000f2cc600290e4
:101e8000f43003904c484168684688471fbd7fb5d1
:101e90004a4c49486178fff71afe10b1fff70cfe73
:101ea0007fbd002546496570a4200873404e306808
:101eb00090f81801000702d5a57000f0c0fa20784c
:101ec00001281cd08df8005030683b4c90f800037e
:101ed000c0070ad06078000707d421463548fff7cd
:101ee00069fe21463748fff726ff32480190354802
:101ef0000290f43003906168684688477fbd0220f5
:101f00008df80000e0e72a4810b500684ff00002a5
:101f100090f818010107294806d58178012907d0d2
:101f200002290ed0032912d18270bde810409ce72f
:101f30000221817000f08dfabde81040322000f0df
:101f400096b9032181704078bde81040b4e510bd1a
:101f500000f01f020121914040094ff0e02202eb06
:101f60008000c0f80011704700f01f02012191406d
:101f700040094ff0e02202eb8000c0f8801170476a
:101f800000f01f020121914040094ff0e02202ebd6
:101f90008000c0f8801270474907090e002803da54
:101fa00000f00f00084a00e0084a81547047000022
:101fb0004428100000800120982c100040281000b8
:101fc00000100020cc86012014ed00e000e400e0c9
:101fd000f0b51c2500224ff480141146fe4b002062
:101fe000a65cc718521c401c87f860600f28f7dbfe
:101ff00001f01f0040f0800083f83500491ca94221
:10200000eddbf0bd2de9f0430024f34e814625467b
:10201000274600209c4206da00eb060819f804c0a7
:1020200088f860c003e000eb060c8cf86070641c5c
:10203000401c0f28eedb501900f01f00084340f051
:10204000800086f835006d1c022de2dbbde8f083d0
:1020500000b51c231a460021e048fff7d3ff1e23da
:10206000de4800211a461c305df804ebcae7dc4864
:102070000168d94801f2877118300a7800f8112cec
:102080004a7800f8102c8a7800f80f2cca7800f8eb
:102090000e2c0a7900f80d2c8a7c4270ca7c827062
:1020a0000a7dc2704a7d02718a7d4271ca7d827149
:1020b0000a7ec2714a7e02728a7e4272ca7e827231
:1020c0000a7fc272c74a127802738a7f4273ca7f3c
:1020d000827391f82020c27391f821200274c14ac2
:1020e000521c127842745522827400f8132f11f892
:1020f000252f4270bb4b4a78db1e02f0f0021b78a2
:1021000003f00f031a4382708a78c270ca78027192
:102110000a7942714a798271b24a921e1278c2716a
:10212000b04a521e127802720a7a42728a7ac272d7
:10213000ca7a02730a7b42734a7b82738a7bc273b8
:10214000ca7b02740a7c42744a7c82748a7cc274a0
:10215000ca7c02750a7fa4490a701e2200f8132c5b
:10216000332048740b2088747047a0480168002908
:10217000fcd170479e48002202609d481c380260d6
:102180009c480261012101618260816002600160fe
:1021900002609649a0f574700b68002bfcd18e4943
:1021a0000b7b43f020030b730b7b23f040030b737b
:1021b0000b7b23f080030b730b7b23f020030b734b
:1021c000c0f8d823c0f8e0238b48027070478748d6
:1021d000183001680029fcd1704710b585480024eb
:1021e000743004608348803004608248c4600121f8
:1021f000c160c460046001600460774820210173fd
:10220000a42101737948183001680029fcd1fff737
:10221000b1fffff72cfffff71bfffff7d9fe774851
:1022200004607648203004604ff00050848510bd73
:102230006949026c4a73130a8b73130ccb73130e28
:102240000b7492faa2f2b2fa82f24a7490f83e202b
:102250008a74406cc874020a0a75020c4a75020e30
:102260008a7590faa0f0b0fa80f0c875704763499b
:1022700000220a600a0690850120086070475b48ca
:10228000001f01680129fcd1704710b50446fff713
:10229000cfff5549208f491c08804f4894f83c20b7
:1022a000193080f82120227cc270228a120a027121
:1022b000a27c8277227d4277e27c01f8012c627d4c
:1022c000c277a27dc274e27d0275454a126892f817
:1022d0009927027094f83a204a7394f83b205439b5
:1022e00000f8112c227ec276404a1938121f13685a
:1022f000012bfcd191f861100173bde8104041f24f
:102300008830b4e710b50446fff792ff36492c3405
:10231000491ca0890880324802682f48193092f879
:10232000ba3780f821302378c37123881b0a0372df
:10233000a378037363881b0a4373237983776379d4
:1023400001f8013ce379c377237a4375637ac37557
:10235000a37b4b73637c543900f80e3c92f8993799
:1023600023f0070300f81939a37a2c3cdb0702d0cd
:1023700092f8ce2701e094f8322080f836201b4aec
:10238000121f1368012bfcd191f861100173bde895
:10239000104041f288306ae71149124b0a68db1e8f
:1023a00092f8892702700a68b2f89e27428009686d
:1023b0001b7801f2a27103f00f03ca7a02f0f00257
:1023c0001a4302710a88c280b1f8052002814a7b53
:1023d0008272ca7bc27213e000100020a4011000b8
:1023e00044281000f907100053000020040b0022bd
:1023f0001c0c0022d00300224128100020050022de
:10240000897c017370473749027801f80c2c827877
:102410004a724288120a8a7202790a7682794a736b
:10242000c288120a8a73027a8a740289120aca74ea
:10243000827a8a76c27a0a77007bc8777047294900
:102440000420153908737047264920201539087370
:1024500070472449c020153908737047224900206d
:102460000860704770b5214c2368002bfcd11d46d5
:1024700003e0c6185b1c86f880508b42f9d32368b2
:10248000002bfcd102e0c45cd4545b1c8b42fad319
:1024900070bd10b5002000f0c9fe1349002008608f
:1024a00013480078002810d0104818380168002917
:1024b000fcd10c481538c078400602d50d490120e2
:1024c0000870bde81040fff7e2bc10bd10b5002059
:1024d00000f0acfe044900200860bde81040fff7a2
:1024e00012bd000015100020200500221c0b002248
:1024f0004128100040281000fee70446012006f0a5
:1025000094fa00210f20226806f0a4fa01210f207e
:10251000626806f09ffa02210f20a26806f09afa7c
:1025200003210f20e26806f095fa0c210f202269a2
:1025300006f090fa0e210f20626906f08bfa0f2147
:102540000846a26906f086fa20210f20e26906f00b
:1025500081fa3748026821210f2006f07bfa3448bf
:102560001038026822210f2006f074fa30480c3827
:10257000026823210f2006f06dfa2d480838026802
:1025800024210f2006f066fa2948001d0268252143
:102590000f2006f05ffa26483438026826210f2003
:1025a00006f058fa22481438026827210f2006f056
:1025b00051fa204800683021c06ac0f106020f209d
:1025c00006f048fafee710b5012805d0022805d02c
:1025d000032809d0032102e0012100e00221bde827
:1025e0001040032006f021ba0021032006f01dfa56
:1025f000fee710b504460146042006f016fa012c49
:1026000000d1fee710bd0146062006f00eba10b557
:1026100004460146072006f008fa24b1012c03d035
:10262000022c02d1fee7fee7fee710bd0220eee736
:1026300038ed00e00428100010b5002000f0f6fd91
:10264000bde81040fdf7b4bd704710b5002000f0a4
:10265000edfdbde81040fdf7c5bdfdf7d9be1a4838
:1026600010b5016821f004010160002000f0defdda
:10267000bde81040fef7e9be7047704710b5002076
:1026800000f0d4fdbde8104006f078b810b5002089
:1026900000f0ccfdbde8104006f0e1bb10b5002015
:1026a00000f0c4fd0948006890f82901800703d5af
:1026b000bde8104006f076b810bd7047704770470f
:1026c000704770477047000010ed00e0442810008c
:1026d00010b5422193480cf080fb92489249934aee
:1026e0000180428092498180924bc380924c048148
:1026f000924c4481924c8481924cc481924c0482cd
:10270000924c4482924c8482924cc482924c0483b8
:10271000924c4483924c8483924cc483924c0484a4
:10272000924c4484924c8484924cc484924c048590
:10273000924c4486924c8486924cc486924c048778
:10274000c387428781879149a0f84010904801686b
:102750008e48b1f89c274280b1f8a027c280b1f81a
:10276000a517018110bd8b4900200860091d086074
:10277000884940390860091d086087480078844905
:1027800000f00300096881f8e1077047f0b585b0f3
:10279000ff22142168460cf018fb6846fef768ff1c
:1027a000039803250127072645f2aa54a04202d028
:1027b0000498a0423bd1dde90001884206d002998d
:1027c000884203d00198884208d100900498a04222
:1027d00010d10098000e012805d007e05ff000003e
:1027e000fff711ff0fe00098c0f301370098c0f326
:1027f000032602e00120fff706ff0398a04214d150
:10280000009800f007056549887920f0f30207f089
:10281000030040ea0610104388715f482b380178a6
:1028200065f30201017005b0f0bd0220d8e7012078
:10283000fff7e9fef9e770b557493f202a390870dc
:10284000fef792fcfef7d0fd514c20680078a528d9
:1028500002d00120fff7cdfe5148006810b10020e2
:10286000fff7c7fe21684ff000064ff0010591f811
:10287000290182074ff0085004d5c0f89863c0f8ca
:10288000805301e0c0f8985391f82801454a00f0c0
:102890000100106091f82801111dc0f3400008608c
:1028a000fef7a2fefef78efcfef7eeff032802d134
:1028b0000020fff788fefef703fefef76bfcfef735
:1028c0004dfefff763fffff74eff206890f82901e8
:1028d0008107354801d5056070bd066070bd40f2c6
:1028e000c93010b541074881fff7a5fffff7f0fe9b
:1028f0002e493f2008602e49002008602e482d49af
:10290000016001f5f8602d490860fdf789fc00f0d1
:1029100057f800f06bf8fdf78afcfef764fa012027
:1029200010bd00000000012000800120229a01203b
:10293000eea0012042000120cc860120b42301201a
:10294000ee230120a4240120de240120442b0120b9
:102950007e2b012048220120822201202a240120ee
:10296000642401201c2a0120562a0120ce2a01209d
:10297000082b0120342301206e230120aa230120eb
:102980004e960120589601203e2201208c401000d6
:1029900044281000800900224b0000200010002075
:1029a000c8100022880400227c040022a0240120f8
:1029b00088281000903010006c281000702810003b
:1029c00070b5454d002400210120fdf735fd45f887
:1029d000240020b1fdf724fe55f8240010b9002092
:1029e000fff715fe641c072ceddb70bd1fb53a48e0
:1029f000012100240091001fcde90104234640225b
:102a000036a138480394fdf739ff012802d0012090
:102a1000fff7fdfd3048062100911838cde901048b
:102a20000023402230a132480394fdf727ff0128fc
:102a300002d00120fff7ebfd274805210091143853
:102a4000cde9010400234ff480722aa12c4803949d
:102a5000fdf714ff012802d00120fff7d8fd1e4822
:102a6000022100910838cde901040023b42225a1f8
:102a700026480394fdf702ff012802d00120fff74a
:102a8000c6fd1548042100911038cde9010400234a
:102a90004ff4c8721ea121480394fdf7effe0128f0
:102aa00002d00120fff7b3fd0b48032100910c3841
:102ab000cde9010400234ff4007219a11a480394d0
:102ac000fdf7dcfe012805d004b00120bde8104070
:102ad000fff79dbd1fbd0000b040100054736b5f39
:102ae000436d640015ec000054736b5f527074000a
:102af000c58d000054736b5f535379730000000061
:102b0000bd5a000054736b5f53530000477e0000b2
:102b100054736b5f5363616e00000000e786000032
:102b200054736b5f4d740000cfd100002de9f04766
:102b30009246012547f6f87256429946ac46002463
:102b4000089f16e030f8143031f81480a8eb030326
:102b50001bb29a4200dd1a469e4200da1e46002b46
:102b600002da4ff0000502e001dd4ff0000c04f145
:102b70000104bc42e6db55ea0c0306d0012d01d06e
:102b80002db108e0bcf1010f05d1002203e0bcf13a
:102b9000010f00d1324600252c462b4611e000bf24
:102ba00030f8136031f813c01644aceb060636b2a9
:102bb0004e4505dac9f1000c664501dd3544641c5b
:102bc0005b1cbb42ecdb95fbf4f10a44002105e001
:102bd00030f8113013442af81130491cb942f7dba0
:102be000bde8f08770b5034600200246fa4c09e0c4
:102bf0009d5c521c05f00f0604eb1515a65d2d78a3
:102c0000304428448a42f3db70bd884200d3084632
:102c10007047884200d808467047884200d308466b
:102c2000904200d3104670472de9f047d0f810c00d
:102c30000568046a85fb0c12a1fb04124269436813
:102c4000914683fb02628269e246a6fb0267761820
:102c5000d0e9021781fb07c8c069acfb00c81cebb8
:102c6000060682fb0a2ca2fb011280fb0902a0fbd4
:102c70000502401884fb0712a1fb03120818301a42
:102c80004feae071ace72de9f04389b004460068f3
:102c9000009060680190206902906068039020694c
:102ca0000490a069059020690690a0690790e069ea
:102cb00008900d466846fff7b7ff8046a068019070
:102cc000e06804906069079089466846fff7acffaa
:102cd000064660680190a068029020690490e06850
:102ce0000590a0690790606908900f466846fff755
:102cf0009bffc5e90401c5e90267c5e9008909b080
:102d0000bde8f0832de9ff4f4ff0000a89b09b46e4
:102d10005746d146d0465646554654462021684629
:102d20000cf07df80b9810e00999824431f91020dd
:102d300000fb00f102fb01668844414302fb00995d
:102d400001fb004417440d44401c5845ecdd0b9931
:102d5000abeb0100401ccde9000acde90654cde9fa
:102d60000486cde9027968460a99fff78cff0db019
:102d7000bde8f08f99480068017b427b41ea02215f
:102d8000827bc07b41ea024141ea0060400070471b
:102d9000924800680179427941ea02218279c0793a
:102da00041ea024141ea0060704700b5fff7e2ffe7
:102db0004008400000bdf8b50e460446fff7f5ff99
:102dc0000090fff7d7ff054604216846fff70aff8a
:102dd00004eb400700240099204623464ff0010ce5
:102de0000cfa03f20a4207d02a4204d037f8102026
:102df00026f81420641c401c5b1c1d2bf0dbf8bd66
:102e0000c6e7fcb50e460746fff7cfff0190fff778
:102e1000bfff0090fff7bcff0546042101a8fff7a4
:102e2000e1fe044604216846fff7dcfe00eb4400a7
:102e300007eb400700200099044603464ff0010cc1
:102e40000cfa03f20a4207d02a4204d037f81420c1
:102e500026f81020401c641c5b1c1e2bf0dbfcbd04
:102e6000f8b50e460446fff7a0ff0090fff782ff7b
:102e7000054604216846fff7b5fe04eb4007002431
:102e8000ddf80010204623464ff0010c0cfa03f247
:102e90000a4207d02a4204d037f8102026f814201e
:102ea000641c401c5b1c1d2bf0dbf8bdfcb50e4602
:102eb0000746fff77aff0190fff76aff0090fff7e0
:102ec00067ff0546042101a8fff78cfe0446042194
:102ed0006846fff787fe00eb440007eb4007002041
:102ee000ddf80010044603464ff0010c0cfa03f223
:102ef0000a4207d02a4204d037f8142026f81020be
:102f0000401c641c5b1c1e2bf0dbfcbd70b5334900
:102f10000020096801f5f57491f8e8518db191f838
:102f2000e6214ff00103d2070dd0002203fa02f68a
:102f3000354203d0a65c03fa06f10843521c052a69
:102f4000f4db400070bd91f8e91103fa01f0f8e7f5
:102f500070b522490020096801f5f57491f8e8512f
:102f6000002d09d091f8e6214ff00103d20704d0db
:102f700091f8e91103fa01f070bd03fa02f6354247
:102f800003d0a65c03fa06f10843521c052af4dbc1
:102f900070bd70b50022114c012303fa02f62568ba
:102fa00095f8e851354203d030f8125021f812500c
:102fb000521c052af1db70bd00b5fff7dbfe40f0c7
:102fc000010000bde4e6064a520102eb810101f175
:102fd0000851086070470000ccf50000442810003c
:102fe000a0240120ca0700d00422c0eb001001eb8e
:102ff000400000ebd0704ff4801101eb60000078ce
:10300000d04000f00f00e5e710b5cb0700d0042357
:10301000c0eb001001eb400000ebd0704ff48011ca
:1030200001eb60010f2408789c40a0439a401043b4
:10303000087010bd2de9f14fdff83c9283b0d9f84c
:10304000000000f2093bfff7b7ff8446fff7a0fe40
:103050000746002001900446804605464ff0010acd
:10306000cdf808000afa05f139424ed000210b468e
:103070000091012c48dbd9f80010097d491ea142be
:1030800042dd00260afa06f010ea0c0f2dd0d9f81e
:10309000000090f80003c00702d01bf8051000e004
:1030a00029463046fff79effebb1022b1bdbd9f818
:1030b00000104a7d521e9a4215dd404513d1097d0c
:1030c000039a03fb014832f9188003f1010202fb65
:1030d0000142039931f91210b8eb010100d54942c0
:1030e000009a1144009180465b1c761c1c2ec9dba3
:1030f000022c07dbdde90010401a00d5404202999e
:103100000844029000980190641c6d1c1e2da9dbe0
:10311000029804b02ce603e011f8013b00f8013bf3
:10312000521ef9d256e77cb50d460446fff73dfe28
:103130000090fff72dfe01900098042140080090b8
:103140006846fff74ffd0646042101a8fff74afd38
:103150003044820021462846fff7ddff7cbd0b4648
:10316000454909684a7d097d521c4a43014652007f
:103170001846d0e770b5044648210bf050fe0020f9
:10318000207060706060fff717ffa060fff700fe1f
:103190003a4de060384e68882082306800f2ac70aa
:1031a000c17aa174017fe174817a2175017b617517
:1031b0000178a17532494078097800f0f00001f0fb
:1031c0000f010843e075fff7a1fee061fff7c0fec5
:1031d0002062fff7eafd6062fff7dafda062e8888f
:1031e000a085e085306800f2ae70c17e84f83010b2
:1031f000417f84f83110817f84f83210017f84f898
:103200003310017884f83410807884f8350070bd6c
:103210003f21b0fbf1f13f314908b0fbf1f211441d
:103220004908b0fbf1f008444008d3e610b5044665
:10323000fcf7f6ff4ff00051012c09d10e48006851
:1032400090f81801400703d50e48007805280dd0e6
:1032500091f821003f2805d05ff03f0081f8210060
:10326000fdf782ffbde81040fcf7e1bf91f82100b7
:103270003128f7d03120f1e7442810008c401000ad
:10328000f60710008328100010b501461022fe48f2
:10329000fff741fffd4841684ff40060fdf7d8fe9d
:1032a000002803d0bde81040fdf79cb810bd70b5f4
:1032b00092b006460d4614466846fff75bff14f0d1
:1032c000050f02d001208df80000f14814f0180f0e
:1032d00009d0016891f8e81129b19df8001041f07a
:1032e00008018df8001014f0620f19d0026892f8ee
:1032f0005001c0070ed192f8020258b992f8e002cc
:10330000c00707d192f86002c00703d192f8b0015c
:10331000c00705d09df8000040f006008df80000c1
:10332000adf82e50adf81060adf82c50aff2a700fc
:10333000d54d03244ff4006601906846fef7ddfb8f
:1033400000213046fdf704fe00213046fdf72efe39
:103350002878002804d0fff736f9641e002cecdc36
:1033600012b070bd70b50446c0070ed040f2cc61fb
:10337000c8480bf032fdc84800210160416001815e
:1033800041f63031c5480bf028fdc54814f0420f16
:10339000056812d03a21c3480bf01ffd3c21c248fa
:1033a0000bf01bfd15f4787f07d13a21bf480bf0d5
:1033b00014fd3c21be480bf010fda00714d5e821f8
:1033c000bc480bf00afdf021bb480bf006fd15f4dc
:1033d000787f09d1e821b9480bf0fffcbde87040c7
:1033e000f021b7480bf0f9bc70bd2de9f04107465c
:1033f000a748006890f82010490710d590f82100e0
:103400000125c0f3011085400024ae4e05e0f1888f
:1034100070883a46fff74bff641cac42f7dbbde80f
:10342000f0812de9ff4f87b00446fff7cbfd0690f2
:10343000fff7c2fd0590042105a8fff7d3fb054661
:10344000042106a8fff7cefbdff844a245434ff066
:10345000010bdaf800004ff4786190f8210000f0d9
:1034600007070bfa07f998480bf0d9fc14216846b6
:103470000bf0d5fc00263fe092482246c188089810
:10348000fff715ff14f0050f12d07f488f494068f1
:1034900004f00afe8d4a00208b4907e051f82030e5
:1034a00032f910c0634441f82030401ca842f5dbdb
:1034b000daf8000090f8e801e8b114f0140f1ad01f
:1034c00071488349c068fff764fddaf80010804b4b
:1034d000002091f8e82169460bfa00fc12ea0c0f73
:1034e00006d051f820c033f91080c44441f820c000
:1034f000401c0528f0db761c4e45bddb14f0050fa3
:103500000bd00020704906e051f82020099b3a4179
:1035100023f81020401ca842f6dbdaf800005146e0
:1035200090f8e801002815d014f0140f12d00020f4
:103530005a466b460c6802fa00f594f8e8412c42b2
:1035400005d053f820400a9d3c4125f81040401c0e
:103550000528efdb0bb0bde8f08f2de9f74f4c4da0
:1035600082b01446286890f85011c9070ed190f81f
:10357000021259b990f8e012c90707d190f8601209
:10358000c90703d190f8b001c0077bd0fff70dfc4d
:103590000090fff735fc019004216846fff722fbfd
:1035a0000646042101a8fff71dfb304446002868a9
:1035b000a9462f4690f82100012500f0070805fada
:1035c00008f5b10040480bf02afc386890f8cf1796
:1035d000c90702d090f8d00745430027dff8e8a0dc
:1035e000dff8e0b017e000bfdde90221bbf8020020
:1035f000fff75dfe244851468268002008e000bfc6
:1036000051f8203032f910c0634441f82030401c9a
:10361000b042f5db7f1caf42e6db2b4d002152466a
:1036200007e000bf52f8210040fa08f025f8110029
:10363000491cb142f6dbd9f800004e4690f8501113
:10364000c90707d190f8b011c90703d190f8e0027b
:10365000c00707d028462168fff7adfb2846616800
:10366000fff7cffb0e48008810f4787f37d1306821
:1036700090f8e002c00732d03a222168a068fff734
:103680004afd27e02be00000444110009840100064
:1036900044281000420001203e2201200e07012094
:1036a0004c281000482201208222012034230120ce
:1036b0006e230120e02c1000c82d1000b82e100041
:1036c000a02f10008c40100090301000ca870120fd
:1036d000aa2301203c226168e068fff71cfd05b0c9
:1036e00039e72de9f043ff4b89460021d2f800c0ad
:1036f000fd4d1c6819e000bf3cf8113030f8116036
:103700009b1b1fb25ff0000303eb4306c6eb43169f
:1037100005eb46065b1c36f811801bb2b84426f850
:103720001180042bf0db491c09b2637d8b42e3dc82
:1037300055680020ed4a16e035f8103039f81010c1
:10374000591a0bb25ff00001c1eb011602eb8606bd
:10375000491c36f8107009b21f4426f8107004296d
:10376000f2db401c00b2217d8142e5dcbde8f08344
:103770002de9f041db4d0746286890f8d00040075e
:1037800012d5db4e00242868002300eb4400b0f87b
:10379000021140f2b310604306eb80023846fff797
:1037a00040fe641c042ceedb39e62de9f04fcd4dd4
:1037b000834685b0286890f8800340078fd5dff8ee
:1037c0002883ca4fdff82c93dff82ca30024286845
:1037d000142100eb4400b0f8b26368460bf01ffb05
:1037e00004eb4400c0eb441008eb40010091c4eb33
:1037f000041107eb810209eb4000cde901200aeb3f
:10380000810003906a4631465846fff7a6fe641cc5
:10381000042cdcdb63e72de9f041dff8e0820023d4
:1038200004465e1e86b0454632461946d8f800006a
:10383000fcf73eff002332461946e868fcf738ffe4
:1038400014f040050ad03a22ad49ae48fff763fcb8
:10385000ac483c22ac493a30fff75dfc2046fff70c
:1038600081fd2046fff7c1fd14f00c0001d0fff7e9
:103870007fff14f0200001d0fff797ffa34f14f053
:10388000110605d07988a24ba24a3046fff7c9fd40
:10389000f007944e09d0306890f82000000704d556
:1038a0009c48fff7c7fb9c49086014f0420410d005
:1038b000142168460bf0b3fa9148009092480190a9
:1038c0009648029096480390f9886a462046fff78a
:1038d00044fe55b1306890f88003400705d589490a
:1038e0006a463a318748fff7fcfe8e49012044467c
:1038f00008708d490870d8f80000fcf791fee06868
:10390000fcf78efe06b08ae5f0b4764940f2cc6250
:103910000e68b6f80211814201d3754911e0744d69
:10392000012100bf06eb4103b3f80041b3f80231b7
:1039300098422ed809d140f2b31001fb00f105ebfb
:103940008101f0bc7348fff7e6bb9c4221d2001b0b
:103950001a1b000290fbf2f3002040f2b3126d4cf0
:1039600051434ff4527605eb810100bf01eb400259
:10397000a2f2cc6231f91050b2f90020ad1a5d43c9
:1039800002eb252224f81020401cb042eeddf0bcf2
:103990007047491c0429c5db6449d2e72de9f0478b
:1039a000504d2968b1f8b223824222d391f85001d8
:1039b000c00703d191f8b001c00709d03a224a49a3
:1039c0004f48fff7a8fb3c2248494f48fff7a3fbad
:1039d000286890f8e012c90703d190f86002c00788
:1039e0007dd03a2243494d48fff795fb3c2242499e
:1039f0000be13d4a3d4e3f4fdff8fc90012400bff4
:103a000001eb4403b3f8b0c3b3f8b233984267d8bc
:103a100032d191f85001c00703d191f8b001c0072d
:103a200011d004eb4400c0eb441002eb40013a22f9
:103a30003348fff770fbc4eb041006eb80013c2217
:103a40003148fff768fb286890f8e012c90703d1f6
:103a500090f86002c00742d004eb4400c0eb441071
:103a600007eb40013a222d48fff755fbc4eb041148
:103a700009eb81013c22c8e09c4531d2a0eb0c004f
:103a80000002a3eb0c0390fbf3f391f85001c00785
:103a900003d191f8b001c00759d004eb4405dff819
:103aa00060c0c5eb4415002002eb450505eb400264
:103ab00035f9108032f93a2ca8eb020808fb03f81c
:103ac00002eb28222cf81020401c1d28eedbc4eb52
:103ad00004120020dff830c006eb820228e06ce020
:103ae0006de0000044281000e02c1000c82d1000ec
:103af0000e070120b82e1000a02f1000b0401000bb
:103b000048220120cc401000822201208c4010006d
:103b10003e22012042000120902810003423012081
:103b20006e2301205228100080281000721b0120f3
:103b300002eb400532f9106035f93c5c761b5e43c0
:103b400005eb26252cf81050401c1e28c6db91f8ea
:103b5000e002c00703d191f86002c0072dd004eb4a
:103b600044012c4dc1eb4411002007eb410100bf83
:103b700001eb400231f9106032f93a2cb61a5e437b
:103b800002eb262225f81020401c1d28f0db224dd8
:103b9000c4eb0412002009eb820100bf01eb4002dc
:103ba00031f9104032f93c2ca41a5c4302eb242278
:103bb00025f81020401c1e28f0dbbde8f087641caf
:103bc000042cfff61daf91f85001c00703d191f806
:103bd000b001c00709d03a2210491148fff79bfafb
:103be0003c2210491048fff796fa286890f8e01236
:103bf000c90703d190f86002c007ded03a220b4912
:103c00000448fff788fa0a493c22bde8f047024819
:103c1000fff781ba342301206e2301208e2d10007e
:103c2000482201207c2e100082220120662f1000e5
:103c3000543010002de9f84fff4a4ff0000a106889
:103c400090f80b44fd4990f8093409784fea1111b6
:103c500033b1611a00d54942994201dd4ff0010aa2
:103c600000f20c41009190f80a04914690b3fff7de
:103c70004df90446fff76cf9002607464fea540851
:103c800035464ff0010b00bf0bfa05f111ea080fa2
:103c900025d000240bfa04f139421dd0d9f80010c8
:103ca0000bfa06f091f8e811014215d0214628469a
:103cb000fff798f90099895d401a00d54042d9f87c
:103cc000001091f80a14884205dd0af00f0040f058
:103cd000020a04e006e0761c641c1e2cdadb6d1c74
:103ce0001c2dd1db5046bde8f88f10b501461022df
:103cf000d348fff710fad34841688020fdf7a8f9b0
:103d0000002803d0bde81040fcf76cbb10bd30b5f7
:103d100093b004466846fff72dfa0021012c04d029
:103d2000032c04d0022c0ad016e0012000e0082069
:103d30008df800008df814108df813100ce006209b
:103d40008df80000c0488df832108df831104168b0
:103d50004900099180680a909df80100aff2750151
:103d600040f00c00b64d01918df801000324684627
:103d7000fdf7c3fe00218020fdf7eaf80021802036
:103d8000fdf714f92878002804d0fef71cfc641e07
:103d9000002cecdc13b030bd2de9fc5f002000905e
:103da000fff7b4f80446fff7d3f80746a748002109
:103db000dff884b2016041604fea5409018188460e
:103dc0004ff0010a0320fff7a2ff9d48002426467a
:103dd000c06801900afa06f010ea090f38d00025f1
:103de0000afa05f1394230d0dbf800100afa04f083
:103df00091f8e811014228d029463046fff7f2f841
:103e0000924adbf8001032f91430b1f834c1b3eb48
:103e10000c01019b33f91430a3eb0c0c00d5494283
:103e2000bcf1000f01daccf1000c614504db8849dc
:103e300022f8143021f814000f2805d2401cc2b219
:103e400029463046fff7e0f8641c6d1c1e2dc7dbc9
:103e5000761c1c2ebedbfef7bbf808f10108b8f19a
:103e6000100fafdb0320fff752ff00263546d04688
:103e700008fa05f010ea090f19d0dff8d4a10024e0
:103e800008fa04f139420fd0dbf8001008fa06f006
:103e900091f8e811014207d01af816002146c2b283
:103ea0002846fff7b1f8761c641c1e2ce8db6d1c5d
:103eb0001c2ddddbfef78cf80320fff728ff6048a0
:103ec0006449c068fff765f8dbf80040614a0020ec
:103ed00094f8e831414640f6ff7500bf01fa00f65c
:103ee000334214d032f91060002e01ddae4203db04
:103ef00001200090bde8fc9fb4f82c713fb1b4f8ec
:103f000034c1b6eb0c0600d57642be42f0dc401c54
:103f10000528e3db0098ede72de9f05f46490a68e4
:103f200092f8300105064548037803f00f0407d4e2
:103f300092f83e1121f00f0121430170bde8f09f7e
:103f40000025dff8fca0834604702e460127894631
:103f50000320fff7dcfe3f49daf80c00fff719f801
:103f6000d9f800203b4b002092f8e81107fa00fc3a
:103f700011ea0c0f05d033f910c0b2f84d81c445d9
:103f8000dcdb401c0528f1db0f2dd7d26d1cedb218
:103f900044ea0510761c8bf80000102ed8dbcde724
:103fa0002de9f05ffff708f80446fff70bf8074626
:103fb0004fea540940f2cc6127480af00eff4ff057
:103fc0001c084ff0000a0120fff7a1fe1c48002644
:103fd000d0f804b018480068047d49e0012000fad8
:103fe00006f111ea090f42d000250120a84038420d
:103ff0003ad029463046fef7f5ff0f49dff858c0a2
:1040000009683cf91430b1f83421991a3bf914309d
:10401000a3eb020200d54942002a00da5242914243
:1040200004dd0e492cf8143021f814000f281ad2a0
:10403000401cc2b2294613e044281000f6071000c5
:104040005441100098401000942810004e96012012
:1040500058960120aa230120229a0120eea00120d7
:104060003046fef7d1ff641c6d1c1e2dbddb761c97
:104070004645b3dbfdf7acff0af1010abaf1100fb8
:10408000a1db0120fff743fefe48dff8fcb300256b
:1040900000684ff0010a067d0afa05f111ea090fde
:1040a0000fd000240afa04f0384207d01bf816009b
:1040b0002146c2b22846fef7a7ff761c641c1e2cc0
:1040c000f0db6d1c4545e7dbfdf782ffbde8f05fe7
:1040d00001201ce62de9f05fea4a116891f83001f1
:1040e000c407ea48037803f0f00514d005700026f1
:1040f0004b7d0c7ddff898a35b1cb046914604fb1a
:1041000003f783460120fff702fe2046daf8042079
:10411000d9f800100de091f83e1101f00f0129438c
:1041200001700be732f91030b1f832c16345f8dbaa
:10413000401c8742f6dc0f2ef3d2761cf6b245ea1d
:10414000060108f101088bf80010b8f1100fd9db57
:10415000f4e670b501244ff4d27120050af05ffe39
:10416000fdf736fffff7b6fffff71affc54d2868ca
:1041700090f8e80128b1fff7cffefff70dfe44ea03
:104180000044c2482a68401d017892f8fb2701f0dc
:10419000f00102f00f0211430170fff74bfd00f038
:1041a0000f0044ea0020bde8704004f0d0bc2de9c7
:1041b000f0470024fef7defd4508fef7e9fd064660
:1041c000b048dff8d0924ff0010a016801f574772a
:1041d00091f806c4bcf1000f19d000234fea030088
:1041e0000afa00f232420fd017f8038019f80020c3
:1041f000b8eb020200d55242624504dd04f00f0024
:1042000040f0080403e05b1c401c2028e8d3dff8e2
:1042100088c291f8077401f2ef36cfb10023184637
:104220004fea0a0909fa00f22a420ed0f25c1cf8a1
:104230000080b2eb080200d55242ba4204dd04f01d
:104240000f0040f0040403e05b1c401c2028e9d36d
:104250008e4a91f8ce03921c137891f8042442b14f
:10426000c01a00d54042904203dd04f00f0040f038
:104270000204864a91f8cf03521c91f80514127873
:1042800041b1801a00d54042884203dd04f00f009e
:1042900040f001042046bde8f0872de9f0477f4853
:1042a000784b002446694568d3f800302246012146
:1042b00040f6ff7901fa02f72f421fd036f9148039
:1042c000b8f1000f03dc076847f0020714e0c845a7
:1042d00003db076847f001070ee0b3f838c1b3f815
:1042e0004171e246bc44c44503dbaaeb07074745de
:1042f00003dd076847f004070760641c521c202a8e
:10430000d8d300248769d0f80860224601fa02f564
:1043100035421ed037f91450002d03dc056845f0f6
:10432000020514e04d4503db056845f001050ee08c
:10433000b3f83cc1b3f843a10ceb0a08a84503db72
:10434000aceb0a0cac4503dd056845f004050560df
:10435000641c521c202ad9d39de7f0b54f4a002097
:104360004d4fd2f8046001460446012303fa04f5d8
:10437000354203d03d5d854200d92846641c202c7f
:10438000f4d3444e9768002403fa04f53d4203d069
:10439000355d8d4200d92946641c202cf4d33b4b5b
:1043a0003e4f5b1c394d1b78ed1c1c18374b3f688a
:1043b0009b1c6e1c1b784ff0ff0c0b4447f008074a
:1043c0009c4208d21b1b1844ff2811d985f800c055
:1043d00017603170f0bda3420ad2e31a1944ff29d5
:1043e00001d8317002e086f800c017602870f0bd77
:1043f0002870eee72de9f84fdff88890264c254d20
:10440000d9f80000dff894b04ff0010a90f83001bd
:1044100040067cd53a2120460af001fdfff79dffba
:10442000fdf725fefdf714fe042003264ff00008db
:1044300000900220fff76bfcf00736d04ff0000e23
:10444000724670464f465b460afa00f1d3f804c044
:1044500011ea0c0f12d0596931f912c03968b1f85c
:1044600038118c4509da215cddf800c04ff0010eef
:104470006144ff2900ddff212154521c401c2028eb
:10448000e2d30de044281000eea00120f607100052
:1044900054411000c0011000a40110009428100025
:1044a000bef1000f01d126f00106b00729d54ff06b
:1044b000000e724670464f464fea0b030afa00f1af
:1044c000d3f808c011ea0c0f13d09969d7f800c0cf
:1044d00031f91210bcf83cc1614509da295cddf8fc
:1044e00000c04ff0010e6144ff2900ddff21295477
:1044f000521c401c2028e1d3bef1000f01d126f050
:10450000020666b1fff729fffdf7b1fd00e062e0aa
:10451000fdf79efd08f10108b8f1640f89db032661
:10452000002000900220fff7f2fbf00720d00027c8
:1045300039463846cc465a460afa00f3d2f8048087
:1045400013ea080f0ed05369dcf8008033f91130fc
:10455000b8f83881434504dd235c13b101275b1ea5
:104560002354491c401c2028e6d30fb926f001062d
:10457000b00721d5002319461846cc464fea0b0256
:104580000afa00f7d2f8088017ea080f0ed09769e8
:10459000dcf8008037f91170b8f83c81474504dd3c
:1045a0002f5c17b101237f1e2f54491c401c20286b
:1045b000e6d30bb926f00206002e0ad0fff7cdfe97
:1045c000fdf755fdfdf744fd0098401c0090642860
:1045d000a8dbbde8f88f7f223a2120460af0f5fbe0
:1045e000fff7bbfefdf743fdfdf732fd4026032735
:1045f000002000900220fff78afbf8072dd04ff033
:1046000000084246404659460afa00f3d1f804c071
:1046100013ea0c0f19d04b6933f912c040f6ff733f
:104620009c4506db012e04dd235c4ff001089b1b3b
:1046300009e0d9f80030b3f838319c4504da235c3e
:104640004ff0010833442354521c401c2028dbd374
:10465000b8f1000f01d127f00107b8072dd54ff0b1
:1046600000084246404659460afa00f3d1f808c00d
:1046700013ea0c0f19d08b6940f6ff7c33f9123026
:10468000634506db012e04dd2b5c4ff001089b1b0c
:1046900009e0d9f800c0bcf83cc1634504da2b5ce2
:1046a0004ff0010833442b54521c401c2028dbd30c
:1046b000b8f1000f01d127f002076fb1fff74dfeef
:1046c000fdf7d5fcfdf7c4fc002e05dd0098761043
:1046d000401c009064288ddb0326002000900220ff
:1046e000fff715fbf00721d0002739463846cc46a6
:1046f0004fea0b020afa00f3d2f8048013ea080f1b
:104700000ed05369dcf8008033f91130b8f83881e5
:10471000434504dd235c13b101275b1e2354491c70
:10472000401c2028e6d30fb926f00106b00721d59a
:10473000002739463846cc464fea0b020afa00f306
:10474000d2f8088013ea080f0ed09369dcf80080d5
:1047500033f91130b8f83c81434504dd2b5c13b1cb
:1047600001275b1e2b54491c401c2028e6d30fb99f
:1047700026f00206002e3ff42caffff7eefdfdf70a
:1047800076fcfdf765fc0098401c00906428a6dbd1
:104790001fe72de9f05fab4f0024ab4d38684ff0b9
:1047a0007f02264690f830118b0706d50124490672
:1047b00001d42a7004e02e7002e090f83f112970b5
:1047c00090f83011dff884824b0709d544f00204d9
:1047d000480602d488f8002006e088f8006003e06c
:1047e00090f8401188f80010002c75d03a219848b4
:1047f0000af015fb9548801c0670401e0670fdf7f8
:1048000027fcfdf734fc3868dff84892ba4690f888
:104810003001400661d54ff0100b00260220fff753
:1048200076fae00722d0d9e904320020014605e0fb
:1048300032f91170874200dd3846491c9942f7db96
:10484000daf80010b1f83621824202da2878401ee8
:1048500008e0b1f84b11814206db28785844ff2864
:1048600000ddff20287001e024f00104a0072ad514
:1048700000200146d9f81870d9f80c3006e000bfc6
:1048800037f91120824200dd1046491c9942f7dbbe
:10489000daf80010b1f83a21824205da98f80010ef
:1048a000491e88f800100ee0b1f84b11814208db78
:1048b00098f800005844ff2800ddff2088f8000029
:1048c00001e024f00204002c06d0fff746fdfdf7be
:1048d000cefb761c202ea1db23e4402600270220fd
:1048e000fff715fae0071ad0d9e9042300200146a2
:1048f00006e000bf33f911c0844500dd6046491c65
:104900009142f7dbdaf80010b1f83611814203da90
:104910002878a0eb06000de050b124f00104a007b8
:104920001fd500200146d9f818c0d9f80c3009e08d
:10493000287830442870f2e73cf91120824200ddeb
:104940001046491c9942f7dbdaf80010b1f83a1129
:10495000814203da98f80010891b12e070b124f04c
:104960000204002cb8d0012e00dd7610fff7f5fc14
:10497000fdf77dfb7f1c202fb1dbade798f8001021
:10498000314488f80010ece72de9f041314c00206b
:1049900002262060fef709fa6060fef731faa06097
:1049a0006068042140086060201dfef71bf920614b
:1049b000042104f10800fef715f9e0600220fff77a
:1049c000a6f9254d2169a86800eb41026261e26801
:1049d00002eb410100eb4100a061fff7dafe194f45
:1049e000386890f83001800601d5fff703fdfdf728
:1049f0003efb0220fff78bf9a868216900eb41021a
:104a00006261e26802eb410100eb4100a061fff747
:104a100044fc0e483968c01c027891f8fb1762f319
:104a200003010170fff7c3fb217800f00f0001f0d4
:104a30000f0146ea0141bde8f04141ea002004f0df
:104a400086b8000044281000f7071000f80710008f
:104a5000a4011000942810005441100010b5014624
:104a600010229848fef757fb974841688020fcf7d2
:104a7000effa002803d0bde81040fbf7b3bc10bd2f
:104a8000f0b5924d06460c4628684ff0ff3193b0c2
:104a900090f8b10000f00f00401c8140cf43684601
:104aa000fef768fb01208df800008df801402868b2
:104ab00000f5867001788df8121044f005018df82c
:104ac00001100297adf81060aff26f0101914178cb
:104ad0008df8151080787b4d8df8160003246846fc
:104ae000fdf70bf800218020fcf732fa002180202e
:104af000fcf75cfa2878002804d0fdf764fd641efa
:104b0000002cecdc13b0f0bd2de9f0476f4d4ff0f9
:104b10000009dff8b081286800f5707004784678e5
:104b200087781ae049462046fff7aaffd8f8040024
:104b300008f0c2f90146286890f80b2112f00f0026
:104b400000d1012012094a43b2fbf0f082b22146a3
:104b5000302004f047f8e01984b2b442e2ddbde849
:104b6000f0872de9ff5f4ff6ff764ff0000a93467e
:104b70000f46804634465546dff850911ce000bf92
:104b800038f815005146fff77bff4e48406808f0a3
:104b900093f9d9f8001091f80b2112f00f0100d110
:104ba000012112094243b2fbf1f080b2a04202d2cd
:104bb00038f8156004466d1cbd42e1dbabf80060bf
:104bc00003980480bde8ff9f2de9f0413f4d044666
:104bd0008846286888b000f1d20690f8d10006ab6c
:104be00000f00f01491c05aa3046fff7baff2a68fa
:104bf00092f8d000800721d5bdf814600121adf8ee
:104c0000006002f1f20500234ff4803c6f4607e09c
:104c1000e8563044604502d227f81100491c5b1c5d
:104c200092f8d100c0f30210401c9842f0dc002939
:104c300004dd06ab05aa3846fff793ffbdf8140064
:104c40002080bdf81810a8f8001008b0bde8f08169
:104c50002de9fc411e4e00235a1e19463068fbf711
:104c600027fd1c4c01a968466588fff7adff174f6b
:104c70003868b0f8fa10bdf80400814201d92180eb
:104c800000e02080bdf8000060803068fbf7c8fcc1
:104c9000bdf80000854207d0386890f8d000400782
:104ca00002d56088fef730fe0b49012008700b49e1
:104cb0000870bdf800202946092003f06affbde80e
:104cc000fc8100006441100098401000442810004e
:104cd000b04010008c4010005228100080281000b6
:104ce0002de9f0410178aa4c01b121700146102252
:104cf000a848fef710faa748a849a74b8568086896
:104d0000427d60684243002006e000bf35f8106035
:104d10001718401c23f817600e68767d8642f5dc74
:104d20006068401c6060096891f8b11001f00f01e3
:104d3000491c814205ddbde8f04196484838fcf742
:104d4000dcbe974841688020fcf782f9002803d038
:104d5000bde8f041fbf746bbbde8f0812de9ff5f00
:104d60004ff6ff7400258a46a046a946884edff814
:104d70002cb251e087484838fef7fcf985480221fb
:104d800048380170009931f815108185417841f05b
:104d900004014170aff2b7014160dbf80010032756
:104da00001f2c9310a7880f83020ca7880f83220c0
:104db0004a7880f83320897880f83410c6f8049057
:104dc000744886f800904838fcf797fe0021802050
:104dd000fcf7bef800218020fcf7e8f8307820b11d
:104de000fdf7f1fb7f1e002feadc6b4802f057fa5b
:104df000dbf8001091f8c82312f00f0100d1012157
:104e00001209424390b2b0fbf1f0a04203d20099e4
:104e1000044631f815806d1c5545abdb0299a1f8ad
:104e2000008003980480bde8ff9f2de9f04105460e
:104e30005a4888468cb000680aab00f2823c90f871
:104e4000812300f2a23490f8800302f00f01c2f334
:104e50000216c0f3400709aa491c6046fff77eff0f
:104e6000dfb1bdf8243001210020adf800304ff44f
:104e7000803c6f46761c07e022561a44624502d2f7
:104e800027f81120491c401cb042f5db012904dd44
:104e90000aab09aa3846fff761ffbdf82400288055
:104ea000bdf82810a8f800100cb055e77cb53d4eb1
:104eb00000235a1e19463068fbf7fafb3a4c01a949
:104ec0006846e588fff7b1ff34480168bdf8040083
:104ed000b1f8ac23824201d9a28000e0a080bdf8e5
:104ee0000000e0802081854205d091f880134907b9
:104ef00001d5fef753fd2d49012008702c4908709b
:104f00003068fbf78dfbbdf8002029460a2003f02e
:104f100040fe7cbd2de9f05f20481e4d4ff000089b
:104f20000068483d00f2c3304ff00209047846782b
:104f30008778aff2532adff858b024e01548483894
:104f4000fef718f985f80090ac85687840f0040009
:104f500068701048c5f804a04838cbf80480fcf706
:104f6000ccfd00218020fbf7f3ff00218020fcf71f
:104f70001df8094802f093f902462146312003f05a
:104f800031fee01984b2b442d8ddbde8f09f0000e4
:104f9000b0281000bc411000828f0120442810006e
:104fa00098401000b04010008c40100052281000b3
:104fb000802810002de9f041174604460d460026d2
:104fc00009e0e00703d03146384603f063fd761c64
:104fd0006d084fea340454ea0500f2d1bde8f081cf
:104fe00030b5034600204ff0ff32012505fa00f4ea
:104ff0000c4202d0521c9a4203d0401c2028f5d308
:10500000002030bdf0b50e460125074605fa06f230
:10501000fe4c0f2fd4e9151065d2dfe807f064438a
:105020004b08106464192129323a54585c00304608
:10503000fff7d6ff8540a06a0543a56253e001460d
:105040003046fff7cdff8540206c054325644ae0dc
:105050003046fff7c5ff8540e06a0543e56242e060
:105060003046fff7bdff8540206b054325633ae0de
:1050700001463046fff7b4ff8540a06c0543a564a8
:1050800031e03046fff7acff8540606b0543656358
:1050900029e001463046fff7a3ff8540e06c054359
:1050a000e56420e03046fff79bff8540606a0543da
:1050b000656218e001463046fff792ff8540e06bdd
:1050c0000543e5630fe0a06b0243a2630be0206d94
:1050d0000243226507e001463046fff781ff854025
:1050e000606c054365642068401c2060f0bd10b50d
:1050f00001461022c648fef70ef8c64841688020d7
:10510000fbf7a6ff002803d0bde81040fbf76ab903
:1051100010bd10b5fdf73cfe0446fdf719ff204316
:1051200010bd10b5fdf726fe4408fdf7effe44ea7a
:105130005000400010bd2de9f047894605464ff06c
:10514000ff34fff7eeffb14f024600207b680146b7
:105150004ff0010c0cfa01f6164200d0641cac4270
:1051600006d1b9f1010f09d022ea06000b461d2134
:10517000491c1d29eed37b60bde8f0873046f5e77a
:105180002de9f34f97b004466846fdf7f3ff12a8e8
:10519000fdf702f9fff7c5ff9c4e40087065fff769
:1051a000b8ff9d4d4ff00c084ff020094ff0400a1a
:1051b0004ff0910bb065012c0dd00627022c23d0a7
:1051c000032c28d0042c2bd00a2c49d0062c50d0ec
:1051d000082c66d077e0fdf7effe0290fdf7f2feb7
:1051e000039001208df800008df815908df816b011
:1051f00080208df817000298adf810808df812a06d
:105200004008706503985de0fff78bff0990fff79a
:1052100080ff0a900ce0fff77cff01210a9003e079
:10522000fff777ff00210a901898fff784ff099095
:105230008df80070286800f55a7081788df830106c
:10524000c1788df8331001788df8341041788df8dd
:1052500035108188adf82c100089adf82e0032e0b1
:10526000fff75fff0990fff754ff0a908df8007079
:1052700029e0fff756ff0990fff74bff0a908df8e2
:105280000070286800f2613081788df83010c178a4
:105290008df8331001788df8341040788df8350092
:1052a00011e008208df800008df815908df816b0eb
:1052b0008020adf810808df817008df812a00798a7
:1052c00070650898b06500208df814009df80110f5
:1052d0008df8320041f008018df831008df813008f
:1052e0008df80110aff2f91103260191012c12d0b3
:1052f000092c24d00a2c22d08df852008df85400ad
:105300008df85300022c11d0032c0fd0042c0dd09b
:10531000052c0bd013e0296891f8891741f003019f
:105320008df848103c21adf84a10e5e72868b0f840
:105330006e13adf84e10b0f87203adf8500012a81d
:10534000fdf761f8324c6846fcf7d7fb002180205e
:10535000fbf7fefd00218020fbf728fe20780028c7
:1053600004d0fdf730f9761e002eecdc19b0bde854
:10537000f08f2de9fc5f00210120fff701ff244899
:105380004768fdf719fe0190fdf71cfe009004210f
:1053900001a8fdf727fc064604216846fdf722fc1c
:1053a000844600200546dff864b0dff86ca000906a
:1053b0005de000bf4ff00008c1465c462846dbf8c0
:1053c0005810fff70dfe014601208840a16c0842ed
:1053d0004cd101243be000bf04fb0c51daf8000083
:1053e00037f9112090f86703b2eb001f2eda08f1ad
:1053f0000108b9f1000f00d1a146721e944225d1d7
:10540000b8f1010f22d1acf1010207e0b828100079
:10541000cc4110009840100044281000954204d15f
:10542000611e0120fff7eefd0ee007eb4101b1f92f
:105430000220b2eb001f05db35b131f9021cb1ebe4
:10544000001f01da002000e002208046641cb44204
:10545000c2dba6eb0901414508d829460220fff727
:10546000d1fd01200099a840084300906d1c6545be
:10547000a0db01253be000bf4ff0000844462ce0d4
:10548000dbf84030dbf8482000201a4311d0d94621
:105490002046dbf85810fff7a3fd014601208840a5
:1054a000d9f84810084203d1d9f84010084000d07c
:1054b000012005fb0c4137f91120daf8001091f8b2
:1054c0006713b2eb011f07da30b901200099a04041
:1054d000084201d108f10108641c6445d0dbb8f131
:1054e000000f03d0691e0120fff78cfd6d1cb54233
:1054f000c2dbbde8fc9ff0b4fd4cfc4b0021a46d69
:105500004ff0ff325ff0010606fa01f5254205d0a3
:10551000521c824202d15d5c10355d54491c202929
:10552000f2d3f0bcfcf794bdf0b4f14cef4b00218a
:10553000a46d4ff0ff32012606fa01f5254205d091
:10554000521c824202d15d5c103d5d54491c2029f1
:10555000f2d3f0bcfcf77cbd2de9f041e44c002017
:10556000a061fff7defde34d2860fff7d2fde249c1
:10557000086028680421400828602846fdf732fbaf
:10558000de4d04212860dc48fdf72cfbdc4e30604a
:105590000220fef7bcfbdb48db4a2968806800eb91
:1055a000410313603368d94a03eb410100eb41002a
:1055b0001060fff7eef8fef71dfffcf758fd022024
:1055c00003f0c5fad2480178ef2902d90021102052
:1055d00016e010310170fcf74afd00210a20fff7a8
:1055e000cffdcc4f00204ff47a68b9686369a26898
:1055f0000be0151831f91550454505dd00210f2048
:10560000bde8f04103f046ba401c9842f1db0025aa
:105610003be02846fff76fff002d02dd681efff715
:1056200083ff00210a20fff7abfd0026b86828e0c1
:10563000ae4225d0a168314430f9111041451fdd3b
:105640002846fff771ff3046fff755ff00210a207b
:10565000fff796fda168b868294430f9110040456c
:1056600003dd31460e20fff7cdfc3046fff75cff2f
:105670002846fff740ff00210a20fff781fdb868a8
:10568000761c61698e42d3db6d1c60698542c0db8c
:10569000a4e42de9f0470026374631460820fff7fd
:1056a0006ffd9c489c4d0021d0f80cc02868012457
:1056b00000f5f57990f8e82104fa01f31a4208d0d0
:1056c0003cf9113090f87d83b3eb081f00da761cab
:1056d0007f1c491c0529efdbbe420bd190f8e61177
:1056e000c90790f8e91101d00d2000e00c20bde8b9
:1056f000f04787e4002e1cd00026286804fa06f242
:1057000090f8e811114211d03cf9161090f87d2361
:10571000b1eb021f0ada90f8e60119f80610c0078b
:1057200001d00c2000e00d20fff76cfc761c052e4c
:10573000e3db21e52de9f04100210620fff720fd04
:1057400074480025744e6a4c87680ee0e068316842
:10575000284437f9100091f86513b0eb011f03dd01
:1057600029460a20fff74efc6d1c20698542eddbbf
:1057700000250ee0a0683168284437f9100091f840
:105780006513b0eb011f03dd29460b20fff73afc40
:105790006d1c60698542eddb20e42de9f041544c3d
:1057a00000200646206237e031460420fff7e8fc7f
:1057b0005848002587682be0fff7abfc01462846d8
:1057c000fff70efc014601208840216c08421ed1e3
:1057d0005149a0682844096807eb400030f9040cdf
:1057e00091f87813b0eb011f07d931460820fff775
:1057f00009fc29460920fff705fca068216a284416
:1058000007eb400030f9040c884200dd20626d1c7b
:1058100060698542d0d3761c20698642c4d337e7bd
:105820002de9f041324c002005463a4fdff8e88080
:10583000e0611ae029460320fff7a2fcbe68b6f932
:105840000210d8f8000090f87603b1eb001f03d9de
:1058500029460720fff7d6fbb6f90200e169884226
:1058600002ddb6f90200e0616d1c20698542e1d3da
:105870000ee72de9f04100210220fff781fc2548c9
:10588000254d1b4c8768286890f86003000713d5e6
:1058900000260ee0e0682968304437f9100091f8de
:1058a0007413b0eb011f03d931460320fff7aafba5
:1058b000761c20698642eddb286890f86003c006fc
:1058c00013d500260ee0a0682968304437f910008f
:1058d00091f87513b0eb011f03d931460420fff78f
:1058e00091fb761c60698642eddbd1e6c0011000b9
:1058f000b8281000982810009c281000a428100038
:10590000a028100054411000a8281000ac28100056
:10591000fa071000cc411000442810002de9fc418a
:10592000634e00235a1e19463068faf7c1fe4ff441
:105930008010411209f051fafcf799fbfcf788fb43
:10594000fcf746fb5b4c00202060fff7eafb009071
:10595000fff7dffb019004216846fdf743f9054698
:10596000042101a8fdf73ef9014600eb4500c4e91a
:105970000205c4e90451504d286890f860030107fe
:1059800001d4c00601d5fff774ff286890f86003c2
:10599000800601d5fff744ff286890f860030006f1
:1059a00001d5fff7fafe286890f86003c00701d020
:1059b000fff7c0fe286890f86013490704d590f8f7
:1059c000e80108b1fff765fe286890f8600340061b
:1059d00001d5fff7c1fd286890f86003800701d565
:1059e000fff7c7fc206800285dd0d4e90a359d4345
:1059f000e562606ad4e90f1c9843a8436062676c53
:105a000021ea0c01b943e163a16b226d9943a943db
:105a1000256b22ea0c02a943a163a16cba438a4315
:105a2000ab43a362226501220021fff7c3fa0222e1
:105a30000021e06bfff7befa03220021a06afff706
:105a4000b9fa04220021206cfff7b4fa07220021e2
:105a5000e06afff7affa08220021206bfff7aafaed
:105a600009220021a06cfff7a5fa0a220021606b31
:105a7000fff7a0fa0b220021e06cfff79bfa0c2243
:105a80000021a06bfff796fa0d220021206dfff791
:105a900091fa0e220021606cfff78cfa3068faf759
:105aa000bffdbde8fc810021084602f0f3fff5e7e9
:105ab000b0401000b828100044281000584e594c2f
:105ac000dff86481dff864914ff0ff3a0025307809
:105ad00080b10128fbd140f27d700021fbf738fa3c
