:10000000F88802008A52044B4245524C494E000087
:1000100002393839375400000005000019169600DF
:10002000010100000100080000FFFFFFFF000300C6
:1000300010000000E00100000200C00000001000FD
:100040000000030020000000D0000000030020009A
:100050000000F0000000030020000000100100007C
:100060000300200000003001000003001000000029
:1000700050010000030010000000600100000300B8
:10008000100000007001000003001000000080015B
:1000900000000300100000009001000003001000A9
:1000A0000000A0010000030010000000B0010000EB
:1000B000030010000000C001000003001000000059
:1000C000D001000003001000000000020000030047
:1000D00010000000100200000300100000002002C9
:1000E0000000030020000000700200000300400038
:1000F000000090020000020010000000000000005C
:100100006F701EC06F701ED16F707ED96F703EF31E
:100110006F703EEA6F707EFB6F80EE836F808E8C17
:100120006F802E956F80CE9D6F80AEA66F802EAFB4
:100130006F80AEB76F802EC06F80AEC86F802ED13B
:100140006F80CED96F808ED96F804ED96F800ED9D7
:100150006F80CED86F808ED86F804ED86F800ED8CB
:100160006F80CED76F808ED76F804ED76F800ED7BF
:100170006F80CED66F808ED66F804ED66F800ED6B3
:100180006F0000016F804ED66F800ED66F80CED587
:10019000731000309781FFFF9381C1361796FFFFE0
:1001A000130606FC9786FFFF9386C6F51707000027
:1001B0001307076E8322070023A05600910611073C
:1001C000E3CAC6FE9792FFFF9382C2F917A3FFFF0F
:1001D0001303931963D7620023A002009102E3CDB9
:1001E00062FE1791FFFF1301E1F7130500202A912A
:1001F000411137E5000013054581970500009385FF
:1002000065F00CC137E500001305758083450500D6
:1002100093E585002300B50037D500001305C5CE52
:100220008345050013060002B70601009386860089
:100230006387C50037E702001307470F29A037E798
:1002400002001307C71298C21305000093050000AF
:10025000EF00600501A0828001A04111B7375F491E
:10026000156322C406C61384C18093820753930387
:100270003305B7050002130600F02329B400232537
:10028000540023277400231BC400C1669846E94527
:100290001385C180032887010298231DA400B24062
:1002A000224441018280411106C6F9288D2A753702
:1002B0003929FDBF6D712324811041641C4423261C
:1002C00011102322911003A3070405468A857D653A
:1002D0000293034701009302A0046312570483436F
:1002E00011009304A005639C930208448354E10128
:1002F000F945104D0A8502966393A4028325A10057
:10030000B568B70E000193D6650013F8F63F23A435
:1003100008C703AE88C6336FDE0123A4E8C7832075
:10032000C110032481108324411051618280011186
:10033000B16722CC03A487494AC84169935264013A
:1003400026CA4EC606CE13F4120099449309D9FF6B
:1003500031297D15131305019353030163FD7900C2
:10036000832589001344140011CCB049FD1493F483
:10037000F40F0296F1FCF2406244D2444249B24981
:1003800005618280F049DDB7411106C6F3270030D0
:1003900093F277FF739002303563B716002013078E
:1003A0005009232CE3C4B9631385460023A0A3801E
:1003B000B705760A23A2B3803D4623A8C380232431
:1003C00003C6032803019378F8FC23281301032EA6
:1003D00083C6937E0EC02324D3C7032FC30A936F13
:1003E0004F002326F30B832743C593F2E7FF232A0D
:1003F00053C4416303278300832387028293BD662E
:10040000138606A6130000001305F6FF93150501D9
:1004100013D6050165FA213FB240410161BD41118A
:1004200006C62124B240410109A0C56723800766A2
:100430008280035655001307000841119303F6FF0D
:10044000B3C5E30222C4930720022380F1C0C16236
:1004500003A3820003257500416E0328030406C62A
:10046000938615009398060113D6080193050E4153
:10047000029839552380A1C0B240224441018280B4
:100480005D71A2C4C56303545500A6C2AA84138536
:100490000366034705005ED69302C4FF930720025C
:1004A0004EDE1393020186C6CAC052DC56DA5AD811
:1004B00062D466D26AD06ECE2380F1C09359030114
:1004C00015E385452300B500552413568500C966FC
:1004D0002382C666252C416883288800014503A92C
:1004E00088040299416A832A8A00416C13050C41F1
:1004F00003ABCA0113D91900130C0C41CA85B38C84
:100500008901029B83AC0C00130D3003639CAC008B
:1005100003AD7400857D856E338EAD016377DE019A
:10052000130D40042380A1C1F9A0138FF9FF930F8D
:1005300000103344FF030D4D416AC56A930D500509
:10054000496E9308E00593021400139302011354BB
:100550000301931914009397090193D90701832389
:100560008A0003A57400138B4A6603A7830472C62E
:1005700046C4029703258A002286E285744103A5BA
:100580007400829683258A0003A574004E8603A812
:10059000050493854A660298324EA24862868147D6
:1005A000814F8143630DF900835E0B00035F0600FA
:1005B000090B09066380EE072380B1C1814303471D
:1005C0004E666306170113055008631AA700B7C6E5
:1005D00009009385064013000000FD15EDFD6384BE
:1005E00003006382FC051308FDFF2380B1C1137D66
:1005F000F80FE3160DF6B640264496440649F25924
:10060000625AD25A425BB25B225C925C025DF24D4E
:10061000616182809382170013930201F69F9357C2
:100620000301854341B7395DF5BD938201C045475C
:100630002380E200A380E200238102008280411136
:1006400022C406C626C24AC0138401C083472400C0
:10065000014593F2F70F6380020613032002A30003
:10066000640083432400416693042400330574002E
:10067000035905001446034724009315090183A874
:1006800086011308E7FF131E080113D9050126850B
:1006900093550E0182986316A902034F2400B952A4
:1006A0000545930FEFFFB387F40123900700230163
:1006B0000400A3005400B240224492440249410184
:1006C0008280930E4004A300D4010145EDB741118F
:1006D00006C6B53719CD938701C083C2370013070B
:1006E000A00A13F3F20F6309E3009303B00B630A4C
:1006F0007300B24041018280B240138501C04101C4
:100700000DBBB240138501C041019DBB411122C404
:1007100041641C4406C626C203A38703B164029346
:1007200083A2044A41779303F7FF33F5720023A0B5
:10073000A44A0C440545905902961444094503A85F
:100740000603029883A8044A33EE880023A0C44B12
:10075000832E840003AF4E03029F832F8400224424
:10076000B240924403A3CF03410102834111B16619
:1007700006C622C483A7064A41779302F7FF33F3E4
:10078000570023A0664A41648323840013050009AF
:1007900083A5030382950844105901450296032856
:1007A00084000145832808038298032E84000145B4
:1007B000832E0E03829E316FB706E0FFA1470145ED
:1007C000930F0F4A370720009382F6FF03A30F0011
:1007D00093131500939503013364E30023A08F0066
:1007E00003268F4913D505011318E6006343080853
:1007F00003AE0F00FD1793F7F70FB37E5E0023A043
:10080000DF01E9F7316FB706E0FF2147930F0F4A89
:10081000B70220001383F6FF03A40F009315150001
:1008200013960501B363540023A07F0003288F496A
:10083000135506019318E80063C3080483AE0F0044
:100840007D171377F70FB3F76E0023A0FF0069F74A
:1008500003AF0F00C166B3726F0023A05F0003A354
:100860000F003364D30023A08F00B2402244410123
:10087000828005059318050113D5080195BF05056C
:10088000131E050113550E0155BF000000000000A6
:100890000000000000000000000000000000000058
:1008A0000000000000000000000000000000000048
:1008B0000000000000000000000000000000000038
:1008C0000000000000000000000000000000000028
:1008D0000000000000000000000000000000000018
:1008E0000000000000000000000000000000000008
:1008F0000000000000000000000000003B7D5201ED
:10090000411106C6A928BD2601282929FDBF7D154C
:10091000E31FA0FE678000004111B7375F4F1563EA
:1009200022C406C61384C1809382075393033345C0
:10093000B70500032329B40023255400232774009E
:10094000230B040041661446E9451385C180984E87
:100950000297231DA400B24022444101828041112C
:1009600006C622C426C2396423200488930700F0F7
:10097000B1642322F4809302000223A85442294543
:10098000F926457393034300232074800545C1264F
:10099000296703250781B7061F003568B365D500B1
:1009A0002328B780230508C603268480FD7313859A
:1009B000F37F9378F6DF23241481032E84808565EA
:1009C00093880580936E0E202324D481032F848086
:1009D000B70E10049383F33F937FFFBF2324F4816A
:1009E0008327848093E20740232454800323848058
:1009F000B376A3002324D48003268480336E1601AB
:100A00002324C4812328D801032F48C5937FEFFFF7
:100A1000232AF8C5832748092D6F93F297FF232ACD
:100A2000580803234809930270661375F3CF232AED
:100A3000A808032648093703FF0313050320B376EC
:100A40007600232AD8088325C8011306F03F93E8CF
:100A50001500232E1801032EC806936E0E102326B0
:100A6000D80723200FC0832F876A93F7EFFF232433
:100A7000F76A2324075C232E57002320A70C232288
:100A8000C70C2324A70C2326C70C83234700B70FCA
:100A9000E0FF9302505593E6130054C34C433705CF
:100AA000F8FF1306F5FF93E8050123221701232819
:100AB0000806032E480713050009937E0EC0232A5B
:100AC000D807032F8807370E00F9930EFEFFB37780
:100AD000FF01232CF80623A254102320080623220A
:100AE00008062324080603238808B70F0001B7D29D
:100AF0002700B373C3002324780883268808138350
:100B00000202B7021C0093E506022324B8088328DA
:100B1000880033FFD801B367FF012324F8002324A2
:100B200068082328A7600326080B370F01F0930FEE
:100B3000FFFF937376FF2328780A144B93F5E6FFA3
:100B40000CCB8328470213FEE8FF2322C703832E22
:100B50000705B3F7FE0133E3570023286704032595
:100B60008480B70700819382F7FF1376B5FF2324B3
:100B7000C480832384803705002993E6230023243F
:100B8000D4808325848093F8D5FF23241481032403
:100B9000070AB70529009388952F136E14002320A8
:100BA000C70B832E070A13FFEEFF2320E70B832FCB
:100BB000C704996E138F0E4033F35F003366A300B2
:100BC00070C78323C70593F6E3FF74CF232A170169
:100BD0000324C808136E14002326C8092310E7094C
:100BE000832FC70093F79FFF5CC78322C70013E3DF
:100BF0001200232667008844C1721383F2FF136634
:100C0000150090C483A3040493E61300B4C083A525
:100C1000040993E8150023A814090324C807137EC8
:100C200094FF936E2E00232ED807035F080B936F5B
:100C30000F1E2318F80B8327080B33F567002328B2
:100C4000A80A0326076B130540069373E6FF2328C3
:100C5000776A03A714099376D7F7A3A8D408832447
:100C6000080B93E504012328B80A2244B2409244B9
:100C70004101F1A8411106C62120B2404101E1A87D
:100C8000938201C045472380E200A380E2002381D4
:100C900002008280411122C406C626C24AC01384C3
:100CA00001C083472400014593F2F70F63800206D9
:100CB00013032002A30064008343240041669304CD
:100CC000240033057400035905001446034724002B
:100CD0009315090183A886011308E7FF131E080175
:100CE00013D90501268593550E0182986316A90232
:100CF000034F2400B9520545930FEFFFB387F4016A
:100D00002390070023010400A3005400B2402244B2
:100D10009244024941018280930E4004A300D40111
:100D20000145EDB7411106C6B53719CD938201C013
:100D300083C732001307A00A6318F700B240138577
:100D4000220041016F00B027B2404101828019C1E9
:100D5000120575BE8280E16783C6573703C74737E0
:100D60002D4F93821600130617003383D202C967F2
:100D7000B303E6023388E60233057300935515404A
:100D8000B3880501338ED800B30EEE00B38FEE03A7
:100D90002399F7FF8280C16783A28700411122C493
:100DA00003A3820106C623170502930500032A84C4
:100DB00002932317A402B240224441018280C167FA
:100DC00083A28700411122C403A3820106C6231C0B
:100DD00005049305A0052A840293231CA404B240B1
:100DE000224441018280C16783A28700411122C44D
:100DF00003A3820106C623170502930500032A8474
:100E000002932317A402B240224441018280B567B5
:100E1000F8573166930650559372E7FF23A657069D
:100E200003A3C7062D689373D3FF23A67706C84F85
:100E30009375E5FFCCCF2322D610232008C08280F3
:100E4000411106C6E93735675C4F316393E21700FD
:100E5000232E57008323431013E503102322A310EE
:100E60008325431013E605202322C310B24041011D
:100E7000828001112AC606CE593F3245AD674167CF
:100E800023AAE7C01303000201C585621383021180
:100E9000F24023A067C005618280B56723AA0704DA
:100EA000B84FB706E0FF937207C023AC570403A303
:100EB000C705B373D30023AE77041DC51307E00342
:100EC000636AB704938265FDEC4F05433705200044
:100ED000B31353001306F5FF33F8C300ED8EB3E8E8
:100EE000060123AE170582807D456368B500054F76
:100EF000B31FBF0023AAF705828083A88705054694
:100F0000B315B60013F8F53F13FE08C0B36E0E011B
:100F100023ACD7058280411106C622C4A967D847F1
:100F2000B706E1FF9382F6FF337357004164B36362
:100F3000830023A6770088438968936515008CC3D6
:100F40009043138508FE1368060123A00701C132F0
:100F5000032E8400C56E03DF2E46D96703274E0893
:100F6000931F1F00938607403385DF001306000898
:100F7000C9650297C96203A30200B24013546340DB
:100F800093130401224413D503414101828041118E
:100F900006C622C426C2AA846535B53F2A842685A2
:100FA000C93D953F635185023305A4409312050165
:100FB000B240224413D3024193130301924413D548
:100FC000030141018280018DD5B7B5677D5723AEFE
:100FD000E7C423A0E7C623A0E70823A2E708A96681
:100FE00083A246053708E0FF33F3020123AA660413
:100FF00083A3860533F60301B0CE23A8070683A892
:10100000470713FE08C023AAC70783AE870733FF2D
:101010000E0123ACE70765C5938365FD0546B70858
:101020002000331E7600138FF8FF930E4003B37F2A
:10103000EE0163E7BE0403A5070813971300B3137B
:10104000E60093C5F3FF3376B50023A0C70883A855
:10105000460533FEE30133FF0801B36ECF0123AA37
:10106000D60583A2870733F80201B36FF80123ACDA
:10107000F70703A3C7C5B3F6650023AED7C48280C4
:101080001393150083A24708130773F93315E6007D
:10109000134EF5FFB3785E0023A2170983AE8605D1
:1010A000337FE50113079003B3F20E0133E3E2014E
:1010B00023AC6604B45F33F80601B36FF80123ACC8
:1010C000F707636FB70003AFC7C5939E1300B31252
:1010D000D60113C3F2FFB376E30123AED7C48280F7
:1010E000938565FC83A307C6139515003316A600E8
:1010F000134EF6FFB3787E0023A017C782807D458C
:10110000636BB506054EB318BE00370F2000D14EF5
:10111000930FFFFF13C5F8FF63EABE0203AF460556
:10112000B3FEF801B37F0F01B3E5DF01ECCA83A280
:1011300007083373550023A06708B56703A7C7C521
:10114000798D23AEA7C423A817078280B84EAD15AA
:10115000B312BE0033F3F20133780701B3636800C2
:1011600023AC760483A6470813C6F2FF337ED6006D
:1011700023A2C709D9B783AF47089382B5FE0547B5
:10118000331357009343F3FF33F6F30123A2C70849
:1011900083A807C6B315B70013CEF5FFB37E1E01B3
:1011A00023A0D7C783A28605370F20001305FFFFB2
:1011B000B37FA30033F802013367F801B8CE03A36D
:1011C000470793F6F53F937303C033E6D300F0DB94
:1011D0008280797122D44AD04ECE06D626D252CC05
:1011E00056CA5AC85EC662C42A89AE89014409C576
:1011F000130416001374F40FC16783A2870013064B
:10120000A002814503A3C2004E85514A0293C164E6
:10121000930AF00F456BC56B054C9373F40F637E17
:101220007A00B250225492540259F249624AD24A88
:10123000424BB24B224C456182803385840083450A
:101240008541638A550305458939054589339315D9
:1012500014003386B9002310A60083566B4663FC46
:10126000A60023808B4703C7044163080900136865
:1012700017002388044105044DB713684700D5BF04
:10128000397126DA4AD84ED656D25ECE62CC66CABC
:10129000416906DE22DC52D45AD0C167A569A38811
:1012A00007408144930B8941130CF00FC56C930ADE
:1012B000E945938999F7B382740103C7020013F6D5
:1012C000F40F63038707138B0C4623000B0003CA3C
:1012D0000200054532C6D285C936D2850545F531AD
:1012E000054575310344194113030003B3853401E7
:1012F000B3036402324693961500338453012311DD
:10130000A400231044012390A60093054400054542
:10131000C9352285493403450B0019C503481941D5
:1013200093081800A30819418504554EE395C4F9A4
:10133000F2506254D2544259B259225A925A025B24
:10134000F24B624CD24C216182805D71A2C4A6C274
:1013500052DC56DA5AD85ED662D486C6CAC04EDE91
:1013600066D26AD06ECEC1674164C56A23890740E0
:10137000A38907408144130BD442456A938BEA84C6
:10138000456CB382640183C602001307F00F93FC1F
:10139000F40F938914006386E60C23000A4603CDFC
:1013A00002000145EA85D53CEA8501453939014508
:1013B000F93E034924411303A0052568B3036902DC
:1013C00093150D019308E8F813D60501C694939D73
:1013D0001400930E0003938F2A7181454E8D33893B
:1013E00073012310C9002311A9002390AD00034EFF
:1013F0003441930D0A46330FDE03B304FF012391FA
:10140000A40008442390C400130640055C4513055E
:1014100049008297930E9002130EF00F8548937245
:10142000FD0F63F45E064A85593A83C60D0099C6DE
:1014300003472441130D17002309A44166869385B1
:101440004400014523800D0069332685693A83CC29
:101450000D0063880C000349344113031900A309EC
:1014600064401305A002CE84E39DA9F0B640264453
:1014700096440649F259625AD25A425BB25B225CE8
:10148000925C025DF24D61618280B303A40183C569
:10149000D342638EC503014546C272C476C6F53A8F
:1014A0000145F53493151D003306B9002312A6003B
:1014B00003586C469248224EB24E637AA8002380AD
:1014C0001D01034F0441936F2F002308F441050DC4
:1014D000B9B7B307B5409392070113D30201635D17
:1014E000B500B3056040139605019353060193962A
:1014F000030113D5064182802165B363A300C5BFF4
:10150000797106D622D44AD041644ECE52CC56CA06
:101510005AC85EC626D262C4DD381C44230A044081
:10152000496503A3C7001306A0028145130525F7EB
:10153000B70900F9216A4169029313048441130B2E
:10154000F00FFD197D1AC56B930AD942834504003B
:10155000638265090545953CB56483A2840037071D
:101560000001B3F33201B3E5E3008CC46D3223A86C
:101570000406F058B708E0FF2A8C937606C0F4D82A
:1015800003A88407337E180123ACC4076932AA85F7
:1015900062858137931E050183DF4B4613DF0E0101
:1015A000B3774F0163FEFF00034309418344494180
:1015B00013658300938214002308A940230A59402D
:1015C000B793FF7F138713BAB305E400139C15008C
:1015D0002310EC010504E31B54F7B250225492543B
:1015E0000259F249624AD24A424BB24B224C4561FF
:1015F0008280797106D622D44AD041644ECE52CC34
:1016000056CA5AC85EC626D262C4EFF05F801C4438
:10161000A30A0440496503A3C7001306400581459A
:101620001305C5F9B70900F9216A4169029313044A
:10163000D442130BF00FFD197D1AC56B930A79453F
:10164000834504006384650901454132B56483A282
:10165000840037070001B3F33201B3E5E3008CC423
:10166000EFF07F8B23A80406F058B708E0FF2A8C20
:10167000937606C0F4D803A88407337E180123AC00
:10168000C407EFF05F89AA856285A135931E050125
:1016900083DF4B4613DF0E01B3774F0163FEFF007C
:1016A0000343094183445941136583009382140025
:1016B0002308A940A30A5940B793FF7F138713BAA1
:1016C000B305E400139C15002310EC010504E31995
:1016D00054F7B250225492540259F249624AD24A03
:1016E000424BB24B224C45618280411122C441647D
:1016F0001C4406C626C203A387019945130504416D
:10170000029383228400C964231BA44083A3820123
:101710009305E007138524EF82932398A4F60844E9
:101720009305E007104D138524F70296B24022443A
:101730002398A4FE92444101828041651C454111D9
:101740001306300403A3C7009305F00F130585416A
:1017500006C622C402936167130577375146C165F7
:101760009306C7388342050063685600B38355006B
:101770001384A202238C83400505E315D5FE616E18
:1017800013089002C168930E6E3B034F0500636619
:10179000E801B38FE801A386EF430505E317D5FF02
:1017A00041641C44130584419305300403A387015D
:1017B0000293A31DA444B2402244410182804111FE
:1017C000035725008352450026C283546500C56730
:1017D000456322C4C56306C64AC02393E746231265
:1017E0005346930630571384234663ED9606231021
:1017F00094004164A308044023090440A309044061
:10180000230A0440A30A044023080440238001C0A3
:10181000084449691306E0070328C50081451305FC
:1018200029EF02980C44130529F71306E00783A853
:10183000C500814582981137A134013ED13121463E
:101840002380C1C07D33130E00F82380C1C1713DD8
:10185000B2402244930E80F82380D1C102499244C1
:10186000410182809304405759B7828001A0000053
:101870000000000000000000000000000000000068
:101880000000000000000000000000000000000058
:101890000000000000000000000000000000000048
:1018A0000000000000000000000000000000000038
:1018B0000000000000000000000000000000000028
:1018C0000000000000000000000000000000000018
:1018D0000000000000000000000000000000000008
:1018E00000000000000000000000000000000000F8
:1018F0000000000000000000000000002EAF970272
:10190000EFF20F99B7371C0E55649304842D938220
:10191000C74213038002D9632382640023A05400CA
:10192000A38203DAEFB02058D9655966D56603C89B
:1019300015AD034326AD03D7E62BD96803CE98A592
:101940002D45A382A40023830401A3836400239470
:10195000E4009307842D63070E00D56E03DFAEA16C
:101960002394E701D56F2395070023A6070081453F
:1019700001458143938E0F18054E93F2F50F63EFE7
:10198000020319C123A67700238867004166144625
:1019900055685D63556503A7C6199307C82C930363
:1019A00043AB9305C5208CC323A277001306C00266
:1019B00081451305C52002976FF0CF8FB388D501FD
:1019C00003CF080063070F00B31FBE00B3E3F301AA
:1019D000054585055DB7EFF20F8AD56955645569F0
:1019E00005378D44D56A1304442613098919138ACF
:1019F000892D496B1386CA2C9385892D13054BCFEE
:101A0000EF602017EFB0E057D56703C78717A942EB
:101A100063F9E208FD1493F4F40FC1C44163832316
:101A2000830059658355E5AD83A6C31B01461305A5
:101A30004BCF8296A56503A6450B0358D405931892
:101A4000060113DE0841635EC805835E3406130F8A
:101A5000B0036368DF05835F7901954763EBF701A6
:101A60000347140683422406A1433303570063DA75
:101A70006302035BF4058D46D56E33056841B345BB
:101A8000D5024168832888001385CE2003AEC8198B
:101A90003306BB002314CA0081451306C002029E10
:101AA00089BF6FF08F80EFE2BFFEEF60D010B167AB
:101AB00003A7071393721700638D02065563930300
:101AC000E32E83C603003706F0FF9308F6FF13E505
:101AD00016002380A3008C4F03A887008562B706F9
:101AE0001000337E180123A4C70183AE070993F5C4
:101AF000050413FFFEF0936F0F0123A8F709D843E5
:101B00003363570023A2670083A3870033E5D30024
:101B100088C703A887011376F8FBB368B60023AC27
:101B2000170103AE4701937E0E8013EF1E0023AA18
:101B3000E701B16F83A70F1313F7270009CB83A227
:101B40004F0113F302809363230023AA7F006FE009
:101B50007FF631678327071393F20704638202023B
:101B600055639303E32E83C6030013E50604238025
:101B7000A3004C4B13F6058013680604232A0701C3
:101B8000B16803AE0813937E0E0863890E04EFE27A
:101B90003FF003A4C8138964D567138FF4FF9384BF
:101BA000C731B37FE40183D2840013970F0113542C
:101BB000070163015402EF60100023948400B163B5
:101BC00083A6430113F506809365050823AAB30095
:101BD0006FE05FEE0543A3806400D5B78280EFE23B
:101BE0009FE9416A83278A00D96983C519AD03A398
:101BF000C71B2A8901461385C1620293256483228B
:101C0000440B8323C40A83258A0003C519AD596791
:101C100003A8C51B834527AD931615009384C162A5
:101C200023135900231279003385D400014602980A
:101C30000326440B8328C40A032E040C832E440B72
:101C40002310190103C319AD131F0E0193DF0E01F9
:101C500093121300B367FF01B3839200B3857740FB
:101C600013D51500D5662311C9002382A6646FE041
:101C7000DFE3EFE2FFDED96C83C62CAD556921644A
:101C80009382E6FF13F3F20F596C93140301032DB3
:101C9000096C41112A8B931D13007D14E179014ACF
:101CA0001309096CE28A416EC180A56B03461CAD25
:101CB000636ECA02D5639384433503C734008547F6
:101CC000596A6318F7088352EAAD93161600032584
:101CD00009003383D2401316030141829305456EF8
:101CE000EF50903AC8C041016FE05FDB83238E0064
:101CF00093054B00014783A7C3106A865A8572C6B5
:101D0000A686829783A54B0B03C72CAD6E9D1398B7
:101D1000050113151700935808412A9B324E63D8CA
:101D2000190183A94B0B939E090193D90E4103AF6F
:101D3000CB0A931F0F0193D60F4163D8860003A4EB
:101D4000CB0A9312040113D40241050A137AFA0F45
:101D5000B1BF4E85D53893190501D5641385446DFF
:101D600093D90941A31735012285F9389384446D2D
:101D700063D6A9002285C938A397A400EFA0500E0E
:101D800001E9D965138885D323070804A30408044F
:101D900083C81AAD835EEAAD03250900139E1800BF
:101DA000338FCE41931F0F0113D60F019305456E5C
:101DB000EF50902DA3A8A4003DB7C16783A2870070
:101DC00059651306601003A382198145130545EB7D
:101DD0000283EFE2FFCBD964938444B08040931731
:101DE00015005967B302F40083D6420493058503B6
:101DF000930387B0A310D4001396150003D3A20554
:101E00003388C30083589800416EA3116400930E79
:101E1000FEFF638CD803130F0503931F1F00B387C6
:101E2000F30183D537003685A3131401A312B40040
:101E3000EFF00FFFA314A4008040835574000355F6
:101E40003400EFF0EFFDA315A4006FE0BFC6D96228
:101E500093068503138682B0139816003303060198
:101E600083539300C168D967138EF8FF03A747B067
:101E7000938E82B0638BC30703CF2E0063010F02E2
:101E8000930F850293971F005966B302F70003581A
:101E900086AD03D3A2009353180063FE630483C886
:101EA0003E0063810802130E8502131F1E00D967CE
:101EB000B30FE70183D287AD03D8AF0013D612006A
:101EC000636B0603BA9503C7D50076958343D501A6
:101ED000935E47001373F700A303D5012309650040
:101EE00063F46300A30E650082803383AE008343F6
:101EF0008302A309730293181500330E170183524E
:101F00004E04130F05030356AE05931F1F008606EC
:101F1000B387FE013388DE00A3915700A314C800E5
:101F200055B70A05B302B500D96513933200938300
:101F300005BA338863008356680095CAD96783A8B9
:101F400047B003562800014503D718006362C70253
:101F500063E0E60203DE3800835E4800636ADE0168
:101F6000035F8800B33FCF0113C51F008280014586
:101F70008280EFE25FB04111AA89AE840144114929
:101F8000A2854E8532C6713F324609C9854763F343
:101F90008700B284268541016FE03FB105041374C8
:101FA000F40FE31F24FD8144F5B7EFE27FAEAA846E
:101FB000054685450145753F09E5094689450545BD
:101FC0004D3F2A842146914509456537B362A400F7
:101FD00013060008930500040D4513F4F20F513F5A
:101FE000D967138387B0B3039300418D2384A30281
:101FF0006FE05FACEFE23FA8D96A93878AB0B38203
:10200000A70003C7820245EF03C32201854363E8AB
:10201000630A938A8AB083C61A005964832544B040
:10202000130A44B00D4481CED96403D684AD03D8DD
:1020300035009358160033B9080113041900AA8417
:10204000194E3389C40303C55A00138F0402931F2A
:102050001F00B387F501B369A40003D54700A3822D
:102060003A01B38E250183D52E07EFF06FDBD562E1
:10207000938902A403D749016370A7021376140061
:1020800029E2098809C493082003A3811A011305D2
:1020900020032382AA0025A003230A00938384023D
:1020A00093951300B304B3001A998355490B03D5D4
:1020B000A400EFF0EFD683D64901E3E1A6FC6FE080
:1020C000DF9E1308200323810A0165BFD96793822D
:1020D00087B003C7520001CF03C362009306F00F1D
:1020E0006309D30093031300238372008280238348
:1020F00002008280EFE23F985169D9690144596A30
:1021000013094944930AF00F938989AB83274AB096
:1021100083C2070063655400553F6FE01F99330386
:1021200089008344F30D6382540393931400338531
:1021300033018355050091C9268561392685B5355A
:102140002685A28529332685753505041374F40F79
:1021500075BF6D8D82803355B540058982800353EC
:1021600005008547B395B70093C2F5FFB3F362004E
:10217000231075008280835205008547B395B70010
:1021800033E35500231065008280EFE2DF8E59694A
:1021900093191500930789ABB382F90003D70200A6
:1021A000D9642A84938484B01303850331E333868E
:1021B000A40013151300B385A4007D58A394050152
:1021C00013854405A285230F060223040602A309F2
:1021D0000602230C0604A303060023090600A30E2F
:1021E0000600B53FA28513856405953F054515A8F2
:1021F000B386A40083C386051306F00F130989ABC9
:102200006386C30013851300238CA6049315130063
:10221000AE9403D89400C168138EF8FF6305C8011B
:1022200001456FE09F88D96E93844EB003AF0400E0
:10223000930F040293971F00B302FF005967835561
:10224000A7AD03D5420013060040EF80503509C505
:102250004E992310090059BF03A3040013048402FC
:10226000931614003304D300D96383D583AD03558B
:10227000A40013060040EF80903279F955B7D96772
:102280003148938287B0638105031303000C638890
:10229000650883DF420533D8AF4093771800DDCB64
:1022A0000D4E2300C601828083C352006393030254
:1022B000B387A20003C387058943E3EC63FC83D89B
:1022C0006205054EB31EAE0033EF1E01239BE205EF
:1022D000C9B703CE6200894863EBC80183DF62059A
:1022E000854E339FAE003368FF01239B020583D7E1
:1022F000620533D3A74093731300E38C03F8338E46
:10230000A20083488E05E3F6D8F883DF4205854EA8
:10231000339FAE003368FF01239A02059DBFB3834C
:10232000A20003CE830293780E046388080083CE54
:10233000520013FF1E00E31A0FFC931F8E0113D8E7
:102340008F41E35808F483C7520013F32700E302D8
:1023500003F465BF1303000C638665028343060024
:102360008D456381B30216958342850563F4D200DF
:102370000347950415D70347D5019146E302D7F2E9
:10238000054E05B78280034806008D476305F802B5
:1023900081C9894263F2B2021303000C638D6500A8
:1023A000D96383A843B083D5980063EAB60883D67F
:1023B000B8006366D7088280D963938683B0B385FB
:1023C000A60083C8D501114E938E83B06395C801D2
:1023D0000567130707B4596F832F4FB003D8BF00A9
:1023E00083D79F00637D07019302301F63E9F200EA
:1023F0003383AE008343730093F6C30091EEE37C16
:10240000F7FA9305301FE3E805FBB388AE0003CE6F
:10241000780013773E0045D383D21F00130F0503C6
:1024200083DF3F001305850313181F0013131500E6
:10243000B3870E019A9EA3915700A394FE01094E03
:102440002300C6018DBF596393068503930383B0B0
:10245000AA85931715001395160055673388A300B6
:102460001306870E83589800938F0503B382C70025
:10247000138E850093971F003387F300931E1E0071
:10248000338FCE002390120103563700D56203C369
:10249000E25B2313CF008543631D7300D56613856C
:1024A00046FA3308B5000346B80E814609456FE089
:1024B000C07D8280EFE2CFDD89472A84638DF502FB
:1024C0008D42638C5500054363956502D96313857E
:1024D00083B02A94230FB40229A8D96513141500D8
:1024E000138685AB3294D966054723100400A38078
:1024F000E6B06FE02FDCD96E930F050393038503DD
:10250000138F8EB0596893971F00939513008328FB
:1025100048B0B302FF003306BF0003D33200835636
:1025200096003307AF009314150003483703338E2A
:10253000980023126E04231DDE0493848EB0630082
:1025400008028348E703054E638BC801D56E138FDD
:102550008E0EB30FAF0083C7CF0291E3ED35269403
:102560000545230FA40271B7EFE28FD25969930793
:1025700089B0B382A70083C6E2034111230701009B
:10258000A30701000547AA8401446386E60E03C33E
:1025900022011146130989B083C382020D446308E6
:1025A000C30001446315E30013B41300060413F5DC
:1025B000130009CD8D452307B1001307003693069C
:1025C00000361306F10085452685753B33089900D2
:1025D0008348880213FE280063030E02834619090C
:1025E00001471306E1008945268551391307003656
:1025F000930600361306F100894526856933B30E2C
:10260000990003CF8E02937FCF0063830F0283462E
:10261000190905471306E100B14526858D311307D9
:102620000060930600601306F100B1452685A13BCA
:10263000B307990083C2870293F6020C95C28346C2
:10264000190905471306E1009305000C2685053995
:10265000014781461306F1009305000C26852533BA
:1026600019E80344F10001C40D476316E400034474
:10267000E10011E00944A28526852D3D41016FE06E
:102680006FC3EFE2EFC00144AD442285FD3C11E58C
:102690002285EFF00FF42285C13D05041374F40F79
:1026A000E31594FE6FE00FC1D96783A247B011050F
:1026B00013132500B383620003A78300D96523AAFF
:1026C000E5AC8280D967138747AD8346270089C66A
:1026D0009382F6FF230157005963834313AD0346EA
:1026E00037001385F3FF9375F50F6376B600130873
:1026F0001600A301070183C847AD63860800138E47
:10270000F8FF238AC7AD596F834F2FAD834E170053
:102710009387FFFF93F6F70F63F6DE0093821E00A8
:10272000A30057008280D962D967138642AD03A700
:1027300047B08346260003433600230C070E9385DB
:1027400042AD639A66009DC6D96303C513AD1308F5
:10275000F5FF6301D80283C842AD03CE1500639E26
:10276000C80163890800D96E03CF2EAD930FFFFF18
:1027700063951F018547230CF70E0345870F828061
:10278000B1476318F50AD967938247AD03C32200A6
:10279000BE86938347AD631003045967034587B032
:1027A00013784500630908025968034E28AD83C8B1
:1027B00047AD3388C801114ED96F03A64FB005430A
:1027C0008347960F231A160F231B060FB362FE00D2
:1027D000A30C560EA9A8D96583C815AD83CE3300C6
:1027E0000143138EF8FF6314DE05596F834F8FB0DA
:1027F00093F78F008DCF5966834226AD1383E8FF90
:1028000083C646ADB3836202214E3387D3001315CE
:10281000070113580501B38502019398050193D868
:102820000801C16E138FFEFF0143E397E8F91A8593
:1028300082808D420143E31C55FE5967834347ADB7
:102840005963834623AD130547AD63950302D965EC
:1028500003C685B013781600630E0800834E25006A
:10286000054EB388D603138F1800931F0F0113D89A
:102870000F0199B7034E15009388F6FF0143E398C3
:10288000C8FBD96E03CF8EB0937F2F00E3810FFA80
:1028900083472500094E938217003383D202931693
:1028A000030193D306011387E3FF9385F3FF131509
:1028B000070113960501135805019358060195B7B2
:1028C000D567496783C627A40605930247CF330E11
:1028D000550086058148014503180E0063D60601A0
:1028E000130315001375F30F9383180093F8F30F78
:1028F0002E9EE3E3C8FE82805967B146930747AD39
:10290000639ED50083C51700034E47AD938815001D
:10291000B38EC84113F6FE0F85455DB703C6370079
:1029200083C32700D96213031600330873408385DD
:1029300022AD1376F80FD5B7EFE28F952E89AD3320
:10294000DD3311E141334A85253D054455C1D96741
:1029500083A447B0CA8503D5440F793F83C2840F4F
:102960002A8401456396020003D5640FCA8569373E
:102970005963130783B083431700930583B06390B3
:1029800003025963D962034723AD03CF52AD130E3F
:10299000F7FF631DEE0105041374F40F01A88546CB
:1029A000639BD302D96F83C76FADF5D729C0854626
:1029B0006314D400636EA40203C60509636B86002A
:1029C00083C5F50863F98502636585000944638161
:1029D0000302114431A80946E39AC3FC59688348AD
:1029E00018ADD96E03CF7EAD138EF8FF5DB70544E9
:1029F00022856FE02F8C0944E5BFEFE2CF87516954
:102A00000144D96913094944596A03A749B0938A13
:102A100049B0834707006364F4006FE00F899302B5
:102A2000040313931200B303230103D5E30021C968
:102A300083448AB0A30C070E130B8AB093F5C4002D
:102A4000814489C5B1452285C53DAA8403460B0052
:102A50009376360091CA8D452285F93D268863F329
:102A6000A4002A889374F80F83A80A0003CE980F55
:102A7000B38A8800931E4E00F694A3869A0005043C
:102A80001374F40F59B7D56783D527A5B5CDD9628F
:102A9000138382B00347130001C7A3090308828090
:102AA00083464300834333098DCE639F0304D96F6C
:102AB00093870FBA83D2670303D7A703130F0010BE
:102AC0002319E309231A5308231BE308638E020228
:102AD00033835500B305B740239B6702239DB7029C
:102AE000828005456392A30203462309A3090308D4
:102AF00001EE035E4309835E63095968930808BACF
:102B0000239BC803239DD8038280EFD27FF8C1673F
:102B100083A287005964930444B0884003A38219B8
:102B200081451306A00F0293556783A304008344D5
:102B300087175965D56523809300A30605B0938F49
:102B4000452693878301014F130444B06397E4073C
:102B50001D3FC16490441440D96803280619938529
:102B60004604138508AA5946029803AE8400832EB2
:102B70000400D96F032F0E199385AE0513858FA816
:102B80005946029F9C4483220400D56303A307197E
:102B9000938502071385C3FF13062004029398440C
:102BA00008405568832607199305250B1306200452
:102BB0001305A8FB82966FD0FFEF83C52F00930EFD
:102BC0001F0013FFFE0F2380B70003C63F009107CD
:102BD000910FA38EC7FE83C8CFFF238F17FF03CEAD
:102BE000DFFFA38FC7FF9DB7EFD29FEA596483270A
:102BF00044B05965130444B083C20700130385B081
:102C0000639F0204D96383C4E3ACB1E823110300DA
:102C100023020300C16403AE8400130593042D4610
:102C2000832E8E198145829E03AF8400832F04007A
:102C3000D96283270F19938502AA13854F04594639
:102C4000829703A384000840D9658323031959465A
:102C5000938585A81305A50582936FD0BFE58345AD
:102C6000430089C51386F5FF2302C3008346230072
:102C700089C61387F6FF2301E30003483300E30B03
:102C800008F89308F8FFA301130169B7D96783C255
:102C900087B0638C0200EFD2BFDF853DB93BEFF018
:102CA0006FC5C53291376FD0FFE08280EFD25FDB16
:102CB000D96703C7C7CED56483DCC4AF0111938441
:102CC000C4AF01CB83C25400969C13930C01935C58
:102CD0000301556A03468A17D9639146138523D3A6
:102CE0006317D6062DE75964834504DAADE15568CC
:102CF0008318F863130E5009634B1E05D96E03CF7A
:102D00008ECEB94F63F5EF05D96703C797CEA942B9
:102D100063EFE20255630346E35985466315D60027
:102D2000954363F3E3025564835544FA13080004A2
:102D3000637FB800930844FA03DE28006379C80172
:102D400083DE48006375D801214F2300E501034469
:102D500005000DE8556913094926D56B03458A1707
:102D60006375A40293090402139C1900B3092C0192
:102D700083DF29009307140013FCF70F639A0F00F9
:102D80006284E9BF7D142300850005616FD01FD1E7
:102D900003D72400E366F7FF0A04330D2401E28A17
:102DA000D96D83428A17E3FD5AFC138B0A02131371
:102DB0001B003306690083562600E1CA83D3240032
:102DC00063E5D30C93952A003308B900C2856A8560
:102DD00042C4EFE0A05BA2486379950B330E8900F3
:102DE000832E0E008146814776CE114F3385F80041
:102DF0003307FD00834F05008342070033B35F00B4
:102E00006307D3007008B303F6002380F30185073E
:102E100093C61600E39CE7FD8345D1010348C10139
:102E2000638505078348F101034EE101638FC805FF
:102E300003C51DAD03C64400D56EB38FA80033078C
:102E4000AE00138F8E50814693F5FF0F1375F70F69
:102E500023A4EB59EFE0205B85426308550203434E
:102E60008A170946636766025565930F855003C646
:102E700044008345D1010345C101814623A4FB5988
:102E8000EFE060580547631BE504850A93FAFA0FE3
:102E900009BFD963938543EB0946680816C41EC66B
:102EA000EF90B03B03C81DAD8345F101B247034E1F
:102EB000E10103C64400938647EBB308B800B30EA4
:102EC000C80123A4DB5893F5F80F894613F5FE0FCC
:102ED000EFE06053224FE319E5F945BF83428A17BB
:102EE00009436366530293181B00F245330E190120
:102EF000835E2E0003DF2900330889002320B800F9
:102F00006362DF05060B4A9B23110B00BDBFD9632B
:102F1000938543EB054668083AC41EC6EF90F0332C
:102F200032468345D1010345C101930746EB03C6F1
:102F30004400894623A4FB58EFE0E04CA246E3148A
:102F4000D5FAA1B72391D90175BFEFD27FB4EF9025
:102F5000906F5967834287CED967A38707CEA9466A
:102F600063EA56005966034396CE63E566008543DF
:102F7000A38777CE55658345851709486385050185
:102F8000D968238708CE556E834E0EB0638E0E022D
:102F9000054F637BBF02954F63FEBF00D96703C730
:102FA000C7CE09EBA94663E15602D96203C692CEA9
:102FB00063ECC60059638343E3CE63970300FD319E
:102FC000EF70B06F6FD01FAF5965230905D2DDBF19
:102FD000EFD29FA903562500194403530500B305FA
:102FE0008602A94893132300D96983C629AD370EF9
:102FF0000080134AFEFFB38A4601139B1A005967EB
:10300000B387B30033C81703834417ADB30E65010C
:103010008D479382E4FF93F4F20F93022B00330366
:10302000550093034B00B30575001389E6FF137930
:10303000F90F2310050183DBEEFF83DC0E00338CD8
:103040008B02139F2C00B30FEC0133C71F03596F82
:103050002390EE000356030083DE6E0003DE0500BE
:103060003308F602931A2E00B38BFE02330B58017D
:10307000330C7B01B34C1C0323909501835FEFADB0
:103080003387DF4093131700B305750003D625007F
:1030900003D80500B386D402C163131E2800B3070A
:1030A0008602B38AC70133CB1A03D96A239065011C
:1030B000835EEFAD83A58300138B4AD3769A931B6F
:1030C0001A00330C7501835CECFF035F0C0083A7CF
:1030D000C51033848C02931F2F0003260B00B30509
:1030E0005300931B1900938A4AD33307F401B34862
:1030F00017030147268423101C018297032A0B0023
:1031000013150901416C528B935C050109ECD566DE
:103110009389466DA3A80900138A466D8149636AA5
:1031200094026FD0FF97832F8C0093054B000147CB
:1031300083A8CF1052865A85E686829803C729ADA8
:103140009305F4FF5E9A931317001E9B13F4F50F7B
:1031500075BF83A20A00139319004A861388426E32
:10316000B305680033856200EF40007203261A0140
:10317000B38E2901139F0E01330EA6000504A32868
:10318000CA0193590F011374F40F51BFD567054756
:103190002388E7D88280EFD2BF8FD56583C7C5DB90
:1031A0001D4603CEC5DBB303F6025564930404D970
:1031B00083C6140037570200930287D51393160075
:1031C000D16713870728B30EC6033305730033880E
:1031D000A200834838005966834306CC93962800A2
:1031E000A381140113F5F30F330FD301B38FE20161
:1031F000B302D70083C54F0003A302002382B400AB
:1032000023A4640009C9230006CCEF80906A2380C0
:1032100004006FD03F8A130404D92301040003483B
:1032200024008348440063761801034E04006305BC
:103230000E0023000400F1BF832E8400131F28001A
:10324000B38FEE0183A50F0091C1829583462400C0
:10325000938716002301F400D9B7D567A38B07DA4B
:103260008280D567938207DA23800200A380020060
:1032700023810200A381020023820200A3820200B4
:1032800023830200A38302008280D567938207DA3A
:1032900003C7020183C64201B383E20013F3F60FB2
:1032A0002384630003C502019305150013F6F50F8F
:1032B0002388C200828055680346C8DB9D46B75507
:1032C0000200338EC602D567938E85D5938207DAC6
:1032D00003C71201D1639388C32B3383E2000345F4
:1032E0008300330FDE01834F0F0013132500139665
:1032F0002F00B387C8009843330567008323050078
:10330000638A03020348C8DB03CE1201B3860603B7
:10331000F29283C5820093972500B69E03CF0E00DC
:10332000931F2F00FE9803A608003307F60003231F
:10333000070002838280EFD2AFF55564130404DAEC
:10334000D564834714010347040163FCE700A537F4
:1033500083421401138312009373F30FA3087400C4
:10336000CDB79382C4D903C302009373F30FE38AEA
:1033700003FC0345140183450401E364B5FC556671
:103380000348C6DB9D46375E0200B38E0603130F6B
:103390008ED583480401B3071401B30FDF0103C7BF
:1033A0001F002384E700013F23080400A308040052
:1033B0006FD04FF055688346C8DB1D473756020073
:1033C000B303D702930886D5D565D167938205DA12
:1033D0001383C72D03C5220193152500338E1301D6
:1033E000834E0E00139F2E00B30FE30183A60F0040
:1033F0003385B6001C419DC70348C8DB83C2220148
:1034000033070703939E2200B303170103C603008B
:10341000931826004693032E0300330FDE01832FFB
:103420000F00828F8280D567138707DA0345270153
:10343000B752020051661375F50F938607DA556887
:10344000138F82D59D45930EC62E0343C8DBB383ED
:103450006502B3087F0003CE18006365C50113053C
:10346000F00F8280834FC8DBB387F5033387E70112
:1034700083420700139622003383CE008323030088
:10348000B388A30003CE0800B38FC60183C70F0023
:1034900013F7F70F79F705051375F50F7DB7EFD221
:1034A0002FDF214519231D45252B29675C47B706CA
:1034B00020005564B3E2D70023265700130404DA32
:1034C000A309040023090400B93F2309A40055639C
:1034D0009D43230C73DAF93D6FD0CFDDD56793831D
:1034E00077DB03C703009372F70F6387020055650C
:1034F0008545A30EB5D88280EFD2EFD703C3030072
:103500002965130413009374F40F2380930083251B
:10351000054013F6150065FE2545D921A56603A8CB
:10352000464055699368180023A21641EF502000C9
:10353000EF50000C034EC9DB1D47B75202003303A6
:10354000C703138482D5D56ED167138F0EDA9383A8
:10355000C72C834F2F0113982F00B304830003C59A
:10356000040013840EDA938482D5931525003386E4
:10357000B3001442B388060103AE080063070E02CD
:10358000834EC9DB034F2401B30FD70313152F005C
:10359000B3879F0083C2070013972200BA9303A347
:1035A0000300B305A30090410296D56603C8F6D97F
:1035B0009378F80F6389080C8349C9DB516A930E2D
:1035C000CA2E1D4A330F3A03034E2401D565938951
:1035D00085DBB38FE40183C70F0093922700338705
:1035E0005E00832307003383C30103450300238068
:1035F000A900034624019376F60F230AD40003485A
:1036000034019378F80FA30A1401034E3401130F09
:103610001E00937FFF0FA309F40183423401834707
:10362000C9DB834324013307FA023383E4000345F3
:10363000030093152500AE9E03A60E00B306760088
:1036400003C80600B308040103CE080063ECC203FC
:10365000A3090400034F2401930F1F0093F2FF0FEF
:1036600023095400C9332309A40083432401834759
:10367000C9DB3307FA02BA9403C3140063F563008D
:1036800023804901053B6FD04FC2D567938207DA8B
:1036900003C722019306F00F6386E606556503C84B
:1036A00052010343C5DB1D46B7550200B303660252
:1036B000138E85D5D1671387C72E83C84201B38E79
:1036C000C30103CF0E00931F2F00B306F70103A31E
:1036D00006009A9883C30800B385720083CE050064
:1036E000138FFEFF6341E80783C242010348C5DB35
:1036F000330506033306AE00034E1600930FFEFF9C
:1037000063C3F205EFD2CFB8EF50202D2145712CC5
:10371000A966DC463707E0FF1303F7FFB3F867003D
:1037200023A616011D455124A56383A543402545C5
:1037300093FEE5FF23A2D3418D2C556F8542230EC6
:103740005FD86FD02FB78280EFD28FB425678327E1
:10375000C74055639303F3D993E2170023265740DC
:1037600003C503009375F50FCDCD23800300556E7F
:10377000834ECEDB1D4337550200B303D3039305BD
:1037800085D5556F5167930F0FDA9307C72983C209
:103790004F01139F22003386B3008346060013981F
:1037A0002600B388070183AE0800B382EE0103A7A9
:1037B000020015C7034ECEDB83CF4F013303C30393
:1037C00093962F00B303B30003C5030093152500A0
:1037D000AE9790433308D600832808008298753549
:1037E000D56E138F7EDB83420F0013F7F20F05CBEC
:1037F000034E0F00D5631385D3D9930FFEFF13F348
:10380000FF0F23006F008345050093F7F50F81CB71
:10381000230005003966930600082324D6886FD05C
:103820006FA955669306E6D903C806009378F80F8A
:10383000E38808FA014523800600EF0060704DB769
:10384000EFD20FA5EF80F006EFF0FFAEEF102047AC
:10385000EF40C066EF80206EEF6030247120EFF003
:103860009F93DDB7EFD2CFA29317350037550200F3
:10387000930245D83383F20083432300556713082E
:10388000C7DB23007800834608001D4EB7550200B1
:103890003306DE02938885D5D1671385C72AB38E98
:1038A000C80003CF0E00931F2F00B382AF0003A305
:1038B00002008323030063830302034708003308E5
:1038C000EE02B386080183C5060093982500338E67
:1038D000A80003260E00832E0600829EEFF01F8BA9
:1038E000EF80A07F6FD00F9DEFD2EF9855649307C4
:1038F000C4DB375902002384070039451304C4DBB5
:10390000930949D8194AB94A054B83224400639860
:103910000200394363036500B1376FD00F99130676
:1039200049D8014E83460400034706009374FE0FF6
:103930006304D700631547058323440083451600BD
:1039400033D8B30093781800638B08022304640112
:103950004840854E93123E0033835900339FBE008A
:10396000934FFFFF83462300B3F7AF0003274300C5
:103970005CC02300D40011C30297268579B7050ED9
:103980002106E3115EFB23220400AA84FDB7F3277E
:10399000003093F277FF739002308280F32700307B
:1039A00093E28700739002308280EFD26F8E4111D4
:1039B00073240030218801C42AC6D13F32453967BB
:1039C0008326078885473395A7009342F5FF33F395
:1039D000D2002320678811C0D13741016FD08F8D6D
:1039E000EFD20F8B411173240030218801C42AC605
:1039F000793F324539678326078885473395A70085
:103A0000B362D5002320578811C0493F41016FD0D0
:103A10006F8AEFD2EF87411173240030218801C4EF
:103A20002AC6B537324539678326078985473395D6
:103A3000A7009342F5FF33F3D2002328678811C013
:103A4000B13F41016FD00F87EFD28F8441117324B2
:103A50000030218801C42AC61D3F324539678326BC
:103A6000078985473395A700B362D5002328578877
:103A700011C02D3741016FD0EF83EFD26F81060562
:103A800041119374F50F73240030218801C42EC6B0
:103A9000FD3DB24539678326078B8D47B39297006A
:103AA00013C3F2FFB373D300B395950033E67500EB
:103AB0002328C78A11C0DD3541016FC0BFFF2568CB
:103AC0008146930E484313F7F60F6369B7029307D5
:103AD0001500B385F502A563058913164500938289
:103AE000F5FF13F3F20F2381634083A6034093F89D
:103AF000F6FE33EEC80023A0C3418280330FD60008
:103B0000834F0F00B382D60113981F009377F80FED
:103B10002380F20001CD2E971373F70F93881700BF
:103B2000B303D30113FEF80F2380C301850661BFE1
:103B3000EFC21FF6AE871387F7FF25649372F70F66
:103B4000A3015440832304400589B28513138500E3
:103B500013F6F3EFB36666002320D4402148636276
:103B6000F802C16303A683001305044154423E8654
:103B700082968325844A13F805FE2324044B6FC0E4
:103B80007FF3A548639117058326844A13F806FE40
:103B9000936898002324144BA56E83AF8E4F03DEE9
:103BA0000501C16293F70F80137FFE7F33E7E701C2
:103BB00023ACEE4E03A58200214603234500138566
:103BC0000E4102936DBF032E844A370501F813039B
:103BD000F5FF937E0EFE13EF6E002324E44B83DF8C
:103BE00025018322844F93F7FF7F13970701B3F3D7
:103BF000620033E6E300232CC44E79BFA966DC469D
:103C00003707E1FF9302F7FF33F35700B7030400D0
:103C100033657300D565C8C603C885DC938885DC29
:103C200063000804E16E138E8EC923A0C609296FB4
:103C3000832F0F00B167C16293E61F002320DF00CE
:103C4000984F138302045565B363670023AC770074
:103C5000854513481800A304B5DC23800801828041
:103C60006166130E86B4D1B729675447D56793822E
:103C7000A7DC05C10968B3E8060123261701032E56
:103C80000700054F936E0E102320D7012380E20119
:103C9000828079761303F6FFB3F36600232677005C
:103CA0000843936505100CC3238002008280D5670A
:103CB00003C7A7DC9382A7DCA96611CB23ACA65C63
:103CC00023AEB65C1343170023806200828023A8D2
:103CD000A65C23AAB65CFDB7EFC29FDB85673164A3
:103CE000938257DF23225410032304097977930327
:103CF000F7FFAA84337573002328A40883C5040042
:103D000003280409B70EFDFF13967500937606107D
:103D10009378F8EF33E9D80023282409032E040907
:103D2000138FFEFF4169B37FEE012328F409832737
:103D30008900938544001305040F03A387001146EF
:103D4000029383228900938544011305041C03A771
:103D500082000D460297A96303A54302FD761388EE
:103D6000F67F9375E5FF23A2B30203260409B37817
:103D70000601232814096FC0FFD3D567938287DD1E
:103D80005563D56323870214A38302142385021489
:103D90002386021423A2021223940212230403F2A4
:103DA000A38503DC8280EFC2BFCE35640145EF10EE
:103DB000600BFD54232C040624D864D85C4C516954
:103DC0001309095893E21700232E5400130300101F
:103DD000232664061305590201378323040BAD65BE
:103DE00013F5F3FE2328A40A03A705C01376F7FDF5
:103DF00023A0C5C083A605C013E8060123A005C102
:103E000083A805C013FEF8FB23A0C5C1232A040420
:103E1000232C040464CC834EB90129648324440810
:103E200013DF1E00937FFF0093F704FFB3E2F70157
:103E3000232254080343490183454901034859019A
:103E40009373F30013D745001395430013168700AF
:103E5000B366C5009378180033EE16012328C461B9
:103E6000930EE0FD556F2306D40193048FDD556357
:103E700083DFA41283536387D56503D7553A83D66E
:103E8000C412B7072900B3E2FF0013950301232AE8
:103E900054003366E50050CC13980601232A04072A
:103EA0000145D93383C8A414138EC801939F2800F9
:103EB000931E2E00338FD401B387F40183258F0026
:103EC0008843F53383A2040F85482320545C03A361
:103ED000440F2322645C8323846A13F5E3FF2324C5
:103EE000A46A8325F9002324B45C584013661700A4
:103EF00050C0544013E806012322040123871415FF
:103F00006FC05FBBD567938387DD83C6731403C718
:103F1000831463E6E602EFC2BFB7A3830314EFF096
:103F2000CFB6DD62138382E2256523226542232416
:103F30006542232665422328654A6FC0BFB7828049
:103F4000EFC21FB52564832704405563C16393F214
:103F500087FF232054408326C3DC1387F3FFE165EA
:103F6000138685DEAA8433F5E6002320A442337845
:103F7000E60023220443232404434111232604435F
:103F80002328044B89481306E1008545054523177E
:103F90001101EFF0FFB985E8556EE16E814F930690
:103FA0008EDD1304444313834E3703CF561463EA64
:103FB000EF09A56F83A74F40254593F2E7FF23A2A2
:103FC0005F40EFF09F9E55638356A3F2E163138732
:103FD00083F33305D70093150501256813D6050132
:103FE0002318C8428328084013FE88FF936E3E00C2
:103FF0002320D841A1E4EF4060392564032F444ACF
:10400000935F1F0093F71F00A5E3DD62138382E235
:10401000232264422324644223266442D566A56396
:1040200061672328644A8142138886DD13864343EF
:10403000930547370345581463EBA20241016FC053
:104040007FA73307F3010345B705B3838F00938838
:104050001F0093151500138615001378F60F2380A3
:10406000030193FFF80F91B7EF40403241BF338E09
:104070005500834EBE05B388C20093871200139F7C
:104080001E00937FFF0F2380F80193F2F70F5DB7B7
:10409000EFC21FA05564930784DD83C2E7141304A5
:1040A00084DD638C02008345541461661306F63C7C
:1040B0000145EFF0DFA023070414296383230308DD
:1040C000A56423A074420345C4149305E5079396A1
:1040D0001500834564143306D4000145EFF05FA555
:1040E0000347C414130817002306041583A80440CB
:1040F00013FE88FF23A0C4416FC0DF9BEFC2BF97B0
:1041000055699309B9DC83C709005564130484DD3C
:10411000D5648DC7296F83250F08C16FD56EB3870E
:10412000F501054523A6FEDC213D854323800900DA
:10413000A3047414A38F74D86FC03F97D56203C3D0
:1041400042311309B9DC9373F30F6393030089378A
:104150000345C41405476312E502A56503A705409E
:104160009366071023A0D54003A60540137886FF69
:104170009368180023A01541B9A083466414639B7B
:10418000A60C03564412456893080861338EC80094
:10419000931E0E01A56F13DF0E012398EF4383A733
:1041A0000F4093F287FF13E3320023A06F40834355
:1041B000741423060414A304E41413851300A30346
:1041C000A414A38FE4D8556F556E9305CF37834E53
:1041D0008EF283CF250093028EF21303CF3763FD57
:1041E000FE0783C7F4D993F3F70F6397030683475A
:1041F000D3066389D7035967834627ADD563054541
:10420000139616003308D603238FA3D8296E032FE5
:104210000E08C165D568B30FBF00D56723A6F7DDCB
:10422000239508F3850E93F3FE0F556523807200E6
:104230001307458793921300B386E20003D6260046
:1042400003539302296E13180601B3686800232EE6
:104250001E01DDB5A56509BF03C5F4D91377F50FB8
:10426000E30C07EC8346741403468414E3E6C6ECBF
:10427000D96803CE28AD034FD3060548931E1E0010
:10428000B385EE03D56FA3040414A38F04D82300D1
:104290000901A9622395BFF223A4025C23A8025C52
:1042A00023AA025C23AC025C23AE025C71B5D56725
:1042B000938287DD03C7C21411EF03C37214D56361
:1042C000138503DD93161300B305D50003D605004F
:1042D0002392C2128280EFC2AFFB5564930784DD44
:1042E00083C2971463960206EF40605CEFF01F9163
:1042F00055638343B3DC63950304130484DD0345F2
:10430000A4140347B4149305150013F6F50F230501
:10431000C4146364E600230504148346A4141388BC
:10432000C60193182800939E2600330E1401330F04
:10433000D40183258E0003250F00EFF05F97853FA2
:10434000D56F83C74F31256493F2F70F639802004E
:104350006FC04FF6EF408003EF4040030323444A11
:104360009353130013F5130075F5EFF07FD2CDB71B
:10437000EFC20FF2D56783C287DB13F3F20F63043A
:104380000300EFF05FA2D563A38003F2A9376FC0EB
:104390006FF2EFC2EFEFEFF07FD6353F6FC08FF1D6
:1043A000D567D562A38E075A2387025A8280834736
:1043B0001500614793F3F70F6387E34CEFC2AFEB50
:1043C00001112A846366771CA942638E535863E403
:1043D00072140D49636279045564D56655631304FC
:1043E00084A0D5646388032C494583490331A384A1
:1043F000064AEFC0FFFF03452400EFA0F01A4E85E8
:10440000EFC01FFF930E00F8556F2380D1992382D0
:104410000450A30C0F4E29AA9D44638F932CA54FE3
:104420006382F35391476395F310EF00501B93039E
:1044300000F8100895451305007D23807198EF0062
:10444000300D630F050AEF00B0116303052AD5692B
:10445000494503C90931EFC0BFF9EF900079EF90EA
:1044600040614A85EFC0DFF8EF00D018516A13832E
:1044700009318542D566232AAA60D56A0945A38DEC
:104480005A3E034A13000344330003C9867383CAA8
:10449000093183492300EFC0BFF51945EFC05FF52F
:1044A0002945EFC0FFF43945EFC09FF4EFD0A0736A
:1044B0005685EFC0FFF35285EFC09FF34E85EFC0E6
:1044C0003FF32285EFC0DFF2130500F82380A198A7
:1044D000630809002D45EFC0BFF13D45EFC05FF116
:1044E000D5651386C5DB032846008568138E0880D2
:1044F000B36EC801556F854F2322D6012306FFF303
:10450000100899451305007DEF009000930700F80F
:104510002380F19831A849476381E324636D7700D4
:10452000C1426383532263E67222B5466382D34657
:1045300005616FC08FD7D1476383F32063ECF32EFF
:104540005D47E397E3FED56303C403A4937224009D
:1045500063800232EFD07F86930600F81008E545AD
:104560001305007D2380D198EF00807A09CD556333
:10457000394583443331EFC0BFE70545EFE0E00B39
:104580002685EFC0FFE6930300F8238071984DB7AE
:10459000930740086380F33263EA770A9302F007D7
:1045A0006385533263E77208ED466383D32E1303AA
:1045B0000007638B632E6945E39CA3F6D56503C8AA
:1045C000D55B631A0802D5681386885A834E460065
:1045D000D96F556E13FF7EFF5967D9638547230254
:1045E000E601A38C0FA423000E42A30B07A4238C87
:1045F00003A4A38EF55A834204009946639156148E
:104600005168930808790343340003D63800556590
:104610009305855A23836500A398C500834E240023
:1046200013FFFE0F630D0F1083DFA800A398F501A1
:1046300039A2130320086385633A6367730E130579
:104640000008E397A3EEEF309005DDB59306200E4A
:104650006386D34063EB7602130300096382632809
:104660001305100B638CA32813085008E39203ED85
:104670000545EFC0FFD7930500F837660200238099
:10468000B198930E0640829E65B5930FE00E638F3E
:10469000F33B130EE00F6383C33F1307300EE39920
:1046A000E3E8D963938283D38547A387F204A38584
:1046B0000204C9A6D56503C6C5A30545A384A64AB9
:1046C00013781600D968494583490331238408AF1C
:1046D000EFC01FD203452400EFA0006D4E85EFC050
:1046E0003FD1130E00F82380C1992382045089B56D
:1046F0000D472380E19829B5D56403C404314945A9
:10470000EFC01FCFEF9040402285EFC07FCE9304D3
:1047100000F8238091981008A1451305007DEF0053
:10472000205F2380919829B5D9650548D5685566DD
:104730009D4E238105AFA38A086AA30CD66D930F03
:1047400000F82380F199EDB3596F854F230BFFA536
:10475000FDB7D96E238B0EA4DDB7D56E03CFDE5B1C
:1047600063040F00EFF0DFC3D96F93874F9C03C73B
:10477000770005E3D56383C2838D83A4938D85463B
:104780000D45A381570023A99700A383D700EFC04D
:104790003FC6D56403C38473E31303FA03452400BF
:1047A00003443400D965138805882380A588D5681B
:1047B0001945A300880003C41831EFC07FC3EFB0D0
:1047C000C05AEFB0402A2285EFC09FC23545EFC0E6
:1047D0003FC24545EFC0DFC1D56F13878F8D55664A
:1047E0008346A705D5682307062ED56E1386C8DB3A
:1047F00023860E2E83429705832E4600835337056A
:1048000013F3F600556F13158300054EA3060F2E04
:10481000D567B3655500556813EF0E10D56F238C1F
:10482000C4732398772E2319B82E2322E601A38878
:10483000CFD931B75565034415311945EFC05FBB7A
:10484000EFB0A06C2285EFC0BFBAD5651388C5DB79
:1048500083284800556E2D4513E608202322C80002
:10486000A3080ED8EFC0DFB83D45EFC07FB8C1BD8B
:104870003945D56483C43431EFC09FB70545EFD0C7
:10488000D0680145E5B9130700F82380E1988280DC
:10489000D56383C2D35B85476394F200EFF05FB0CA
:1048A000D566A39C065A61BD034E25005567230BB0
:1048B000C73571B5896913850971EFC0FFA54945F1
:1048C000EFC01FB3EF90004CF5BF896713850771E8
:1048D000EFC09FA41145EFC0BFB1EF90A00289B90E
:1048E0004945D56483C40431EFC09FB0034524001B
:1048F000EF90C00A2685EFC0BFAF1DB9D56F138EEC
:10490000CF37034F240003472E00E373EFC28343E6
:104910002400D56751689308085893921300938632
:1049200047873383D20083D5380203D61802035554
:104930002300B38EC540330FD501A314AE02A315D7
:10494000EE03FDB691431008AD451305007D2380AD
:1049500071987D2E01C5EF30C050D9BE23802199BA
:104960001008B1455DBB114E1008AD451305007D23
:104970002380C199712E01C5EF30805055BE0D477F
:104980001008B1451305007D2380E1985126E5BE4E
:1049900021432380619841650C45D56803A5883083
:1049A00003A885193D46814502981008B9451305AD
:1049B000007DB92E15C1556E03440E314945EFC037
:1049C0003FA3EF9000452285EFC09FA21008BD4590
:1049D0001305007D352EA9BE31462380C198FDB751
:1049E000D564138EC4DB03274E00B547936347009D
:1049F00023227E002380F198C164944459630345C7
:104A000013AD03A88619D968131615009305F00F86
:104A10001385C89202988C445966834E26AD03AF25
:104A20008519D96F13961E009305F00F13854F88D3
:104A3000029F034E24005967D962A30EC79B83438C
:104A40003400A388729AEF600052DDB4D96883C540
:104A5000B8D7E38F05ACEF70303CD9BC5966930EE4
:104A600086D303CF3E04E3050FAC854FA3870E0426
:104A7000A385FE050945EF60C0285DBC03494500DC
:104A8000034325000344350055659376F90F034928
:104A9000053149459374F30F36C6EFC07F95137403
:104AA000F40FB2451318840033659800EF809065C9
:104AB0004A8591B52380010093820100A380020002
:104AC000238102000547A381E20023820200828045
:104AD000014713830198938601009382219813085C
:104AE0003007834723006365F700A38106008280B7
:104AF00083C3010003CF0100B308570083CE080031
:104B0000930F1F0093F5FF0F33F50503338E7600E7
:104B1000A302DE0105071377F70F2380A10083C7E7
:104B200026009383170013FEF30F2381C60155BFA0
:104B3000EFB21FF69387019883C227000D47637C6D
:104B400057041384019803432400B94363E56304C5
:104B5000D96503C6F5D70945A300A4008546630AB5
:104B6000D6029388010003CE4800938E0100638C27
:104B7000C60103CF2800834F240093023007B38778
:104B8000EF0163DCF20085472382FE008D4FA30016
:104B9000F401230104006FB0FFF183442400138764
:104BA00021981383E4FF3305E300C16683550500B4
:104BB00003A886008348240013960501832E8801EC
:104BC000138EE8FF131F0E0193550F0113852198D3
:104BD00093540601829E914FE39BA4FAEFF05FEF9E
:104BE000930F00F86DB7D567A38207306FF05FF4BD
:104BF000EFB21FEA3567832707909383010093F292
:104C0000F7BF2320579083C61300938501009304B8
:104C100030073384D30083435400AA8633047500DD
:104C20006393860683C4250013F6F40F01E6054856
:104C3000A3810501238205009385E3FFB308B50036
:104C4000416F03DE0800832F8F0093970501931EA9
:104C50000E0103A78F0193D5070113D40E0102970C
:104C600085446305A400EFF0FFE481440545EFE0CF
:104C70003FD735658322059013E3024023206590DA
:104C800026856FB03FE303C6150085063388C5004F
:104C900083485800A38F16FF03CE1500930E1E0005
:104CA00013FFFE0FB37F9F02A380F50103C725000A
:104CB0009307F7FF93F2F70F2381550095B7D56758
:104CC00003C7C7DB8946638CE60083C2C7DB114399
:104CD0006307530083C3C7DB1545631A7502EFB240
:104CE0003FDB41111384010019A813050100EFF007
:104CF0003FF011C5EF7000180A85EFF04FEB8345C8
:104D0000340013F6F50F75D241016FB0BFDA82801F
:104D1000EFB27FD62A8AAE8932890144938401009A
:104D200083C7340093F2F70F63810202EFC08FA5AF
:104D300005049313040113D403011305803EEFC04F
:104D4000AFDDE37F8AFC014511A84A85EFF05FEAF9
:104D500071DD03431900E39B69FC05456FB0FFD487
:104D6000EFB21FD3C1649C445965130445EB03A300
:104D700087010359E4039305E003130545EB029310
:104D80008148631BA9048355B40305671306B7FF65
:104D90009386F5FF9392060193D30201636E760228
:104DA0000348D403630A08029388C503469400406D
:104DB00003AE8400938EC5FF139F0E018327CE019F
:104DC000935F0F01596593D51F00130545EF829737
:104DD0003303A4409338130046856FB0BFCDC1673D
:104DE00083A287005965056603A3C20081451305A8
:104DF00045EB0283EFB23FC8D16459699384C43153
:104E0000138A6412130449EB930949EBC16A03C680
:104E1000140083C20400930726002300F400A300BB
:104E2000540011CA03A38A0083A52400130524009B
:104E30008323030082930345040099042A94E31812
:104E40009AFCC1659045B306344113970601832847
:104E5000C6011358070193551800130549EB8298B2
:104E60006FB0BFC41DC55568832888F4B562556E00
:104E700023AE12C5832ECEF4556FD56723A0D2C7BB
:104E8000832F0FF423A0F20983A647F423A2D208AC
:104E90008280D56703A787F3B562556323AEE2C46A
:104EA0008323C3F35565556623A072C6832505F396
:104EB00023A0B208832646F3D1BFC16783A287002F
:104EC000AA85356503A38200394671050283EFB2D6
:104ED0003FBC3564FD57232AF40A232CF40AC1622F
:104EE00003A3820039461305C40183234301FD5502
:104EF0008293444C9305501713F5E4FF48CCB164FA
:104F000023A2B4100945EFC02FC11306503723A2C6
:104F1000C4100945EFC04FC09306501523A2D4100A
:104F20000945EFC06FBF23A20410232A040A232CD3
:104F3000040A6FB03FB8D162D5671383826103A7BB
:104F400007F58346C30085432303D7006307750233
:104F500001C98945630EB5020D466306C50482800A
:104F6000034FD300834FE3008348F300A303E7011B
:104F70002304F701A30417018280834703018342BE
:104F8000130183482301A303F70023045700DDB76F
:104F9000034E3301A303C701834E43012304D7010A
:104FA00083485301C1BF03456301A303A70003481E
:104FB000730123040701834883016DBFD56703A7ED
:104FC00007F5930200208346670063F1A2040343C0
:104FD0009700130505E0B303650213050020B3C570
:104FE000D3021398050193520801034E87009308DA
:104FF00005F013050010B38EC80333CFDE02B38F64
:10500000E20193970F0193D2070131A0130600101C
:105010008142E36CA6FC034777009305004033060A
:10502000A702B346D6023385D2001313050193536A
:1050300003011E8863F475001308004093180801EB
:1050400013D508018280EFB2BFA49307F03F2A84F2
:1050500063EAA702014511E20945EFF0DFED930491
:105060000040B38384401394030113550401EFF00F
:10507000FFF43383A4401316030113540601228561
:105080006FB05FA39385F5BF93940501C180E3F8EA
:10509000A4FE054511E20D45EFF0FFE9330594400C
:1050A0009312050113D50201EFF05FF13303950070
:1050B000D9B7D1679382876103D702022DCB637C76
:1050C000E5063DE603D36202A54363F2630625C10C
:1050D0001386F5FF635DC504637BE3043388E54015
:1050E0006356A8063385A5409318050113D508011A
:1050F0008545330EA740B30EEE02330F6740B3DF92
:10510000EE0393970F0193D20701BA8763F3E2008E
:1051100096871D8F93160701054313D506016398E3
:105120006500B303A6401396030113550601828060
:1051300003D3220251BFB386E540E3DAA6FE01E6BF
:1051400003D3820251B703D34202BDBFE371E5FE30
:10515000894545B7EFB25F915964D169596AD96AF7
:10516000130404AA014993894944130A8AAB596B71
:10517000938A8AA8D96BB307390183C2E70B13F36B
:10518000F200631C030493141900B383440103D594
:10519000030021C58355ABAD035504000546D694E5
:1051A000EFF07FEA2310A40083D58BAD03D5040074
:1051B0000146EFF05FE983D58BAD01462390A40053
:1051C000EFF03FEF2390A4008355ABAD03550400EF
:1051D0000546EFF01FEE2310A4000509AD450904B4
:1051E000E31BB9F86FB0DF8B83D7050003D7250029
:1051F0006374F5006366F70063FBA70063F9E700DB
:10520000330FE50093581F002390150182805563EA
:105210009303C3F61E9683460600B382E70081CA55
:10522000131E1500B30E5E0093D82E00F1BF169525
:105230000D48B3580503C9BFEFB21F835569130466
:1052400049FAD96C596AD96A516B938C8CAB590461
:105250008144130949FA130A8AA8938A0AAAC16BDE
:10526000130B4B4403D70C0013FCF40F83560400BC
:1052700015EB1385FBFF638FA600FD5E139F1400E3
:105280002312D4012311D4012310D401B30FE90157
:10529000239D0F0885042D47890C1904E394E4FC31
:1052A0006FB01F809397140033864701B382570174
:1052B0001383FBFF130D24040355060083D902005A
:1052C000639B66022312A400231334052311A40058
:1052D000231234052310A40023113405B308F90068
:1052E000239DE808330E990023000E0E2398A80A88
:1052F0002393380D45B7B383640183C5E30B13F8DB
:10530000F500E31908F86286A285EFF0FFED6286EA
:10531000EA854E85EFF05FEDB5BFD567938307153E
:10532000338EA30055678346BE00930247FA33834A
:10533000A2000346030E9385071581CA05E2D16FCB
:1053400003CF5F642300EE0115A003480E00630F36
:1053500008009308F8FF23001E0109CA338EA50038
:10536000834E0E00130F8004E36EDFFD556783222A
:1053700007F52E950343050003D60200B307660028
:105380002390F2008280EFB20FEFD1699387896199
:1053900083C2F702638602189389896103C3E90215
:1053A00063000318D564938344FAB385A30003C74D
:1053B000050E938444FA6315071683C6B50E2A8436
:1053C000556905451309C9096386A60003C6640F1C
:1053D0006319D60A194EB30EC40393078400131839
:1053E000140093921700B30809013303590085454F
:1053F00033078900338FD401835F6F0183538F0597
:105400002390F80123137300638BB6062306B702BB
:105410001308040693181800338E1401D96E83D52F
:10542000AEAD03556E0013060030EF505017631BEE
:10543000050E93058405139715005965B386E4009E
:10544000835585AD03D5060013060030EF503015A7
:1054500021C1194EB30EC40313068400131816009D
:10546000B308090183956800338FD40103158F05B4
:10547000EFC00F99930F600263E9AF0C11A82306E8
:105480000702B306890003C5C6020546E302C5F854
:10549000330389008343C3029305F00F6382B3088B
:1054A00013070406931617003385D40003566500CE
:1054B0001308F02F6365C8029948330E140393074D
:1054C0008400939217003303590083536300B38E13
:1054D000C401039F8E05930FFF0063DC7F02D96533
:1054E00003D7A5AD930617D06347D60619453306F3
:1054F000A402930E8400139F1E00B30FE90183D70B
:105500006F003388C40083188805138E18FF63C4A6
:10551000C705D56803A608F503C8F90223100601DC
:105520006FB0AFD89947B302F402131F1400B30F42
:10553000E90183950F003383540003156301EFC025
:105540002F8C93036002E3F6A3EEB3078900FD52AC
:105550002386570235BF9302840513931200B38349
:10556000640083D503001307F02F6363B7029946E5
:105570003305D402131E1400B30EC90103DF0E005D
:105580003386A400031866019308380163D7E80343
:10559000D96F83D78FAD938217D0E3C355F81943E2
:1055A000B303640206044A94035704009E9483954F
:1055B00064019386D5FEE345D7F65565032605F5C8
:1055C00003C8E902A1BFEFB2AFCC5569930749FA0E
:1055D000B382A70003C3020E631C0308D1631387C1
:1055E00043448346570F130949FA014493884344BF
:1055F0001378F40F6368D80263840603AA84428593
:10560000EF50607CCA9483CEB40ED56F054F93875C
:105610004FF506046392EE03B38F87002390AF002B
:105620006FB04FC913061400B385C80003CEE50D53
:10563000E306AEFC32846DBFB382870003D3020061
:105640006374A3002390A2000345690F9313150010
:1056500063D0D3033387870003580700D14663E93B
:105660000601D56803A608F59305C0022310B6000D
:10567000596E834ECECEE3850EFA596F834FEFAC51
:105680008947E39FFFF8D5621383820E03453306F3
:10569000F143E3F7A3F8034743067548E362E8F8EC
:1056A000D96683C8D6D913F638003DFAD56503AE5E
:1056B00005F5835E0E00138FCE012310EE018DB72A
:1056C000AA873387C5002E856358F700B382C74089
:1056D00013950201418129A0B382C700E3CAB2FE3B
:1056E00082803305A502B385B5022E956F20007424
:1056F000D5679382C7F6969603C3060003D70500C5
:1057000003D82500630503040D4FB30FE803B30767
:10571000E500954E338EFF00B352DE032391E50082
:105720004147239205013308C7409396020113D3E2
:1057300006013305A8023306C302935345001A85B8
:1057400093584600338E13012390C501828083D87D
:105750004500B303E8008D4E338E130175BF9147AA
:1057600063ECA706D5621386420D3303A6000347F8
:10577000F3009383420D2DE3D1659388856183C641
:105780000803B9CA13088504D56E131E1800138FB9
:105790004EFAB30FCF01060583D7AF00B382A30043
:1057A00003C7280303D60200B305F70063D2C5027E
:1057B000D966138886AB330E0501835E0E0083C85D
:1057C0001803338F1E016355FF008D4F2305F3012E
:1057D0003383A3002310F3008280914763E9A70479
:1057E000D5621387420D3303A7008346A30093833A
:1057F000420D89C69385F6FF2305B3003386A300C7
:105800000348F600630608009308F8FFA307160193
:10581000D96E131E1500138F8EABB30FEE0183D715
:105820000F0091E71E9523050500A3070500828060
:10583000EFB20FA3556AD9695969D964516BD56B19
:10584000130A4AFA938989AB130989A8938404AA95
:105850000144130B8B61938BCBF6130C6A01937A83
:10586000F40F5685EFF07FF783D70900BDCBD562E3
:1058700003A702F50355090033838B00138D02F54E
:105880002311A70083D604002312D700834303000B
:10589000834DEB0163830300894DD1651386454435
:1058A0003308C4008348E80B13FEF80063140E04A9
:1058B000994CB30C9403D6866E86B3059C01EFF029
:1058C0003FE3832F0D002310A900130F8A0503D592
:1058D0004F00D6866E86B3059F01EFF07FE12390DF
:1058E000A4000504AD47890909098904E319F4F600
:1058F0006FB0CF9A5565834EE55BE3840EFE568507
:10590000EFB0201FF9BF914763EDA702D562138363
:10591000420DB303A30083C5A30085C55566930656
:1059200046FA36950347050E09CF5568832808F5D2
:10593000516E834EBE6403DF0800B30FDF01239076
:10594000F8018280D56783C2E75B63870202EFB20A
:105950002F942A84EFF03FFB2285EFF01F9C2285D5
:10596000EF70A0082285EFF01FC62285EFF0BFA1DF
:10597000EFB050796FB00F948280EFB26F8ED16428
:105980009387846103D7A70103D9270001113ACA7D
:105990009302C00693848461637459001309C0069E
:1059A00052461313090193530301D5655965556A8E
:1059B00033097600130B85AB138D45FA130A0A15CC
:1059C000138C45FA938C45FAAD49938B45FA4ACE30
:1059D00083564B01FD1993F9F90F6383061C0344A9
:1059E0005C0F1308A00F6366880093081400A30AD5
:1059F0001C0F83DE4C0C831D2D05831A4D09139E4D
:105A00000E0193550E4103D9AC0D6E8576C456CC6C
:105A1000EFB01FBFAA8A6245131F090193550F41BA
:105A2000EFB01FBE931F050193970A0193D50F4155
:105A30002A8413D50741EFF0DFCA5567832507F5A0
:105A40002A8303C5C401130807F52390A50083C367
:105A5000D4019312050113D6020123857500A38595
:105A600075008346AC0EA24885EAD24E2390D5013C
:105A7000034E5C0F03CF6B0F637AEE0183CF94016B
:105A800085476395FF0072472390E50083D20500A8
:105A900063F4C2002390A5004E851AC846C442C6CE
:105AA000EFF05FEA3243C245A24E03260300835360
:105AB000060063FAB3080345A600637C550D83D640
:105AC000CB0D63F0DA0203D8EB0D63FC0501B3885C
:105AD0007540B38A580333CEBA02131F0E01935A8E
