:10000000A55A0001100C00410020000000004D0026
:10001000EFF3FFFFFFFFFFFFFFFFFFFFFFFFFFFF0C
:10002000FFFFFFFFFFFFFFFFFFFFFFFFFFFFFFFFE0
:10003000FFFFFFFFFFFFFFFFFFFFFFFFFFFFFFFFD0
:10004000FFFFFFFFFFFFFFFFFFFFFFFFFFFFFFFFC0
:10005000FFFFFFFFFFFFFFFFFFFFFFFFFFFFFFFFB0
:10006000FFFFFFFFFFFFFFFFFFFFFFFFFFFFFFFFA0
:10007000FFFFFFFFFFFFFFFFFFFFFFFFFFFFFFFF90
:10008000FFFFFFFFFFFFFFFFFFFFFFFFFFFFFFFF80
:10009000FFFFFFFFFFFFFFFFFFFFFFFFFFFFFFFF70
:1000A000FFFFFFFFFFFFFFFFFFFFFFFFFFFFFFFF60
:1000B000FFFFFFFFFFFFFFFFFFFFFFFFFFFFFFFF50
:1000C000FFFFFFFFFFFFFFFFFFFFFFFFFFFFFFFF40
:1000D000FFFFFFFFFFFFFFFFFFFFFFFFFFFFFFFF30
:1000E000FFFFFFFFFFFFFFFFFFFFFFFFFFFFFFFF20
:1000F000FFFFFFFFFFFFFFFFFFFFFFFFFFFFFFFF10
:100100000813002081010000890100008B0100001C
:1001100000000000000000000000000000000000DF
:100120000000000000000000000000008D01000041
:1001300000000000000000008F010000910100009D
:1001400093010000930100001D35000093010000A1
:10015000930100000D240000AD0700009301000092
:10016000930100009301000093010000930100003F
:10017000930100009301000093010000930100002F
:10018000930100009301000093010000930100001F
:10019000930100009301000093010000930100000F
:1001A00093010000930100009301000093010000FF
:1001B00093010000930100009301000093010000EF
:1001C00000F002F800F030F80CA030C8083824180D
:1001D0002D18A246671EAB4654465D46AC4201D17F
:1001E00000F022F87E460F3E0FCCB6460126334281
:1001F00000D0FB1AA246AB4633431847084B000019
:10020000284B00000023002400250026103A01D3CB
:1002100078C1FBD8520700D330C100D50B607047BE
:100220001FB51FBD10B510BD00F0B6FA1146FFF79F
:10023000F7FF03F0D7FC00F0CEFA03B4FFF7F2FFAC
:1002400003BC00F001FB000070B505460C461646E5
:1002500002E00FCC0FC5103E102EFAD2082E02D3AA
:1002600003CC03C5083E042E07D301CC01C5361FBD
:1002700003E021782970641C6D1C761EF9D270BDD4
:100280000748804707480047FEE7FEE7FEE7FEE72E
:10029000FEE7FEE704480549034A054B70470000A6
:1002A00085320000C1000000080F00200813002064
:1002B000080F0020F8B5042A2CD3830712D00B783E
:1002C000491C0370401C521E83070BD00B78491C3D
:1002D0000370401C521E830704D00B78491C037026
:1002E000401C521E8B079B0F05D0C91ADF0020232C
:1002F000DE1B08C90AE0FFF7A7FFF8BD1D4608C9C5
:10030000FD401C46B4402C4310C0121F042AF5D2F5
:10031000F308C91A521EF0D40B78491C0370401C14
:10032000521EEAD40B78491C0370401C012AE4D405
:1003300009780170F8BDD2B210B513029A181304EF
:100340009A1800F0C3F910BD002203098B422CD388
:10035000030A8B4211D300239C464EE003460B4315
:100360003CD4002243088B4231D303098B421CD377
:10037000030A8B4201D394463FE0C3098B4201D369
:10038000CB01C01A524183098B4201D38B01C01AA1
:10039000524143098B4201D34B01C01A5241030918
:1003A0008B4201D30B01C01A5241C3088B4201D3C7
:1003B000CB00C01A524183088B4201D38B00C01A74
:1003C000524143088B4201D34B00C01A5241411A9B
:1003D00000D201465241104670475DE0CA0F00D07E
:1003E0004942031000D34042534000229C46030977
:1003F0008B422DD3030A8B4212D3FC22890112BAFD
:10040000030A8B420CD3890192118B4208D38901D4
:1004100092118B4204D389013AD0921100E08909EC
:10042000C3098B4201D3CB01C01A524183098B42CD
:1004300001D38B01C01A524143098B4201D34B01B6
:10044000C01A524103098B4201D30B01C01A524119
:10045000C3088B4201D3CB00C01A524183088B42A0
:1004600001D38B00C01A5241D9D243088B4201D329
:100470004B00C01A5241411A00D201466346524114
:100480005B10104601D34042002B00D54942704713
:1004900063465B1000D3404201B50020C046C04611
:1004A00002BD704770477047F0B5FF252D04C6099F
:1004B000C209FF2704462E400137CB093E4348407E
:1004C0002A402B400746002A6BD0002B69D0AA4255
:1004D00067D0AB4265D0002800DA32460125ED0531
:1004E00029432C4309022002090AD21A4B0C7F240B
:1004F000E31A434C000A7C44E35C7D242404121973
:1005000014145B00A218884201D3521C00E0400082
:1005100049420C465C4324115C43DB016415E3183B
:10052000040A5C43C502200D0C4644436419250AA5
:100530005D432303EC0C0D46654300030019EB18E3
:100540004C42A34201D35B18401CD4052018002B59
:1005500007D05B00C91804D3401C002901D1400812
:1005600040003F2189048A4209D3002A08DC110691
:10057000090F04D0032149074018C00FC007F0BD80
:1005800001224100120689187F2252069142F6D2BA
:1005900005214907C84201D59010F0BDFF20C005D4
:1005A000F0BD002F00DA32461648AA4207D2AB420D
:1005B00005D21902090E17D0F80FC007F0BDFF25AC
:1005C00063002D06AB42F9D84900A942F6D8AB42E8
:1005D00001D1A942F2D0A94201D1002101E061007C
:1005E0004908D0050843F0BD1102090EFBD0FF20D9
:1005F0000243D005F0BD0A460146104654E700000C
:10060000C84700000000C07F10B501469E240002CC
:10061000CA15A307002A02D01843002A04DBA21A35
:10062000002A0CDDD04010BD1206120E01D1400090
:100630004008A21A03D4D04040420028F3DDFF2234
:1006400048001206904201D9002010BDC817C043CF
:10065000584010BD1F22030C02D10F2200041CD0F1
:10066000030E01D10002083A030F01D10001121F4D
:10067000830F01D18000921E002801DB4000521E32
:10068000D2055118021251181922904004D3491C66
:10069000002801D14908490008467047C10FC90721
:1006A00000D04042012292071143D3E7012189077C
:1006B000D0E701E004C0091F0429FBD28B0701D554
:1006C0000280801CC90700D00270704700290BD03F
:1006D000C30702D00270401C491E022904D38307BD
:1006E00002D50280801C891EE3E70022EEE700228B
:1006F000DFE7000010B5FF231B0644009C421DD815
:100700004C009C421AD80346124A0B4307D4401AA5
:1007100002D3EFF3008010BDEFF3008010BD081A84
:1007200006D2EFF3008001219043C907084302E09D
:10073000EFF30080904380F3008810BD0D231B046D
:100740001A4204D01146002000F006F810BD00F057
:100750001BF810BD00000090CA0211D54A03520FC9
:10076000002A04D0C803C043012188407047054ACD
:10077000EFF3008108010009104380F300887047FF
:10078000002070470000003010B5024800F029F842
:1007900010BD00000000C07F754600F051F8AE4665
:1007A000050069465346C008C000854618B020B50C
:1007B000FFF770FD60BC00274908B6460026C0C59B
:1007C000C0C5C0C5C0C5C0C5C0C5C0C5C0C5403D09
:1007D00049008D4670470446C046C0462046FFF794
:1007E0002CFD10B50C461107090F092904D00A2960
:1007F0000AD008290CD104E011460820FFF7ACFF0D
:1008000006E0510606D501E0510601D50120C007DA
:10081000214610BDD10607D501010909CC084907B9
:10082000000E0006044309E0410F20024907000AB8
:100830000143200E00061D22D14101430846E7E78F
:1008400000487047A40E002001491820ABBEFEE707
:1008500026000200704770B58C180578401C6B07A5
:100860005B0F01D10378401C2A1106D10278401C8D
:1008700003E00678401C0E70491C5B1EF9D12B0763
:1008800005D40023521E0DD40B70491CFAE70378DF
:10089000401CCB1A921C03E01D780D70491C5B1C98
:1008A000521EF9D5A142D8D3002070BD044840693A
:1008B000012108430249486101200249087070473C
:1008C00080000E400C00002070B502460020C87861
:1008D00000010D7928438D78AD052843034600209B
:1008E0004D79ED0628438D792D072D0A28430D7A81
:1008F000ED042843CD792D0428430D78AD0028431D
:100900004D786D00284304464D7A80263543054EC8
:100910003563FF250135AB508025AC504E898425C9
:10092000AE5070BD0020005010B502461346FF3394
:1009300065330907090F8C001C5BA0B210BD30B5F0
:10094000044600230907090F8D0063591D052D0D6D
:10095000158030BD10B50346FF3365330907090F15
:100960008C001A5110BD0146002094225258D20723
:10097000D20F002A06D001209422525801231A4394
:1009800094235A507047000070B5002400250120C0
:1009900001F0AAFA012002F07DFC0446022001F0D9
:1009A000A3FA022002F076FC0546002C01DD204669
:1009B00000E0604201214902884210DD002D01DD86
:1009C000284600E0684201214902884207DA0220F5
:1009D0000C4908700C4908700C49087007E00120A8
:1009E000084908700849087003200849087006493A
:1009F0004C702004000E8870CD702804000E087121
:100A000070BD0000130000206402002034000020AC
:100A10003CB502461046104C246801940E4C241D2F
:100A2000246800940023002900DD00BF0B4CA24283
:100A300007DD0A4C8234A24203DA5C006D46285F6F
:100A400009E0074CA24206DD054C8234A24202DADC
:100A50005C0001AD285F3CBD883E0000FF0C00003B
:100A6000FF04000010B5234800680078212823D037
:100A70000EDC102823D006DC012811D0042812D067
:100A80000F2834D112E011281CD020282FD110E0DB
:100A90003038030003F00EF806191C1F2225282BFE
:100AA00000F028FC24E000F027F821E000F0B2FA82
:100AB0001EE000F09BF81BE000F06CF818E000F07E
:100AC000D7FA15E000F000F912E000F0B5FC0FE0F5
:100AD00000F032FC0CE000F0FBFC09E000F06CFCE4
:100AE00006E000F0CDF803E000F0AAF800E000BF57
:100AF00000BF10BD74020020002021490968097858
:100B000000293CD11E4A126811701E49C978090794
:100B1000090E1C4A127911431B4A126811700121F7
:100B2000194A1268517000BF23E04100174A525C15
:100B30008100891C144B1B685A544100134A515AB6
:100B40000A128100C91C104B1B685A544100104AFC
:100B5000525C8100091D0C4B1B685A5441000C4A21
:100B6000515A0A128100491D074B1B685A54411CF7
:100B7000C8B20128D9DB0621014A126811707047FA
:100B8000780200200D0000207C02002014000020CC
:100B90001600002070B50024002011490968087073
:100BA00000BF0AE060000F4909684518A0000E491F
:100BB000085A00B22880601CC4B2012CF2DB60002D
:100BC00008490968451802210648006802F09CFFA0
:100BD00000B22880042002490968087070BD000036
:100BE000780200207C0200203800002070B500242C
:100BF000002010490968087000BF09E060000E4934
:100C00000968451860000D49085A2880601CC4B264
:100C1000012CF3DB600008490968451802210648E9
:100C2000006802F071FF00B22880042001490968C1
:100C3000087070BD780200207C0200203C0000207B
:100C400070B500250C4800680078022813D10B48C5
:100C50000068407800020949096809780843054698
:100C6000284600F07DFF0446044800680470012017
:100C700001490968087070BD780200207C020020DC
:100C800070B500250E4800680078032817D10D487C
:100C90000068407800020B49096809780843054656
:100CA0000848006884782146284600F069FF002043
:100CB000044909680870012001490968087070BD7D
:100CC000780200207C02002030B500200021924AEA
:100CD0001278002A7ED000BF52E0DC2242438F4BC4
:100CE000D2188032936DDC2242438C4C1219803230
:100CF000526D991A002901DD0A4600E04A4283003C
:100D0000874CE3589A4205DD002901DD0A4604E0DC
:100D10004A4202E08200824B9A588300804CE250A3
:100D2000002901DD0A4600E04A42524383007D4C1F
:100D3000E358D2188300E2507B4A1278012A1ED170
:100D4000DC224243754BD2188032926D5243D31746
:100D5000C400764D2D1930CD12196B41C400734D6E
:100D60002C190CC48200724B9B58DC2242436B4C02
:100D700012198032926D9A1883006D4CE250401C1B
:100D80000128AADB6B4A1288521C12B2694B1A80E6
:100D900000229A5E684B00241C5FA2424FDB0022B7
:100DA0005D4B1A70604A1278002A47D100203EE05D
:100DB00082005B4B9B5C06224243604C2468A35438
:100DC0008200574B9A5A1204130E06224243521CB9
:100DD0005A4C00E034E02468A3548200514B9B5CE1
:100DE00006224243921C554C2468A35482004D4B6A
:100DF0009A5A1204130E06224243D21C4F4C246806
:100E0000A3548200474B9A581202130E0622424303
:100E1000121D4A4C2468A3548200424B9A58130E68
:100E200006224243521D454C2468A354401C01280D
:100E3000BEDB0622424B1B681A7000E000BF69E06F
:100E40003F4A12681278022A29D10122324B1A70C5
:100E50003A4A12685278384B1A801A4612781202AF
:100E600012B21A80354A126812781B88D21812B250
:100E7000314B1A8000222C4B1A702E4B1A80002006
:100E800007E000228300264CE2508300254CE2500C
:100E9000401C0128F5DB0022284B1B681A70284AE9
:100EA00012681278032A35D101221B4B1A70234A8B
:100EB00012685278204B1A801A461278120212B227
:100EC0001A801E4A126812781B88D21812B21A4B66
:100ED0001A801A4A12689278134B1A700022154B26
:100EE0001A80002010E0002283000D4CE2508300A5
:100EF0000C4CE2500023C4000C4D2C19236063609D
:100F000083000B4CE250401C0128ECDB00220B4B11
:100F10001B681A7030BD0000B0020020C00600201F
:100F2000980200209C020020B1020020A0020020B4
:100F3000A8020020AC020020AE0200207C020020AB
:100F40007802002010B521480078012802D100F075
:100F5000BDF80CE01D481E4908601E481E49086087
:100F60001E4800681E490860FFF77CFD00BF00BFF7
:100F70001C48174908601C48174908601B48184955
:100F80000860FFF76FFD1A481149086019481249B7
:100F90000860194812490860FFF764FD17480C49BA
:100FA000086017480C49086016480D490860FFF7AB
:100FB00059FD154806490860144807490860144857
:100FC00007490860FFF74EFD10BD00001C0100201E
:100FD000740200201D010020780200202001002062
:100FE0007C020020F4010020F5010020980A002076
:100FF000F6010020F7010020980B0020F8010020E6
:10100000F9010020980C0020FA010020FB010020CB
:10101000980D002070B5002400201249096808705E
:1010200000BF0DE06000104909684518DC206043EE
:101030000E4940188030806D00B22880601CC4B218
:10104000012CEFDB600008490968451802210648B9
:10105000006802F059FD00B22880042001490968A7
:10106000087070BD780200207C020020C0060020BD
:1010700070B50024002012490968087000BF0DE017
:101080006000104909684518DC2060430E4940188B
:101090008030806D00B22880601CC4B2012CEFDB70
:1010A000600008490968451802210648006802F0F6
:1010B0002BFD00B22880042001490968087070BD2A
:1010C000780200207C0200209C07002000B500214F
:1010D00000226B4B1A7000BFCBE00B0002F0EAFC61
:1010E00008051C354C657C95ACC5664A1268664B94
:1010F0009A4208D16548664A926D12B20280024651
:10110000604B1A6007E06048614A926D12B202803B
:1011100002465C4B1A60A9E05E4A12685E4B9A4236
:1011200009D15E485A4ADC32926D12B20280024600
:10113000584B1A6008E05848554ADC32926D12B29A
:1011400002800246534B1A6090E0554A1268554B94
:101150009A4208D15448554A926D12B20280024612
:101160004F4B1A6007E04F48504A926D12B202800E
:1011700002464B4B1A6079E04D4A12684D4B9A4239
:1011800009D14D48494ADC32926D12B202800246C2
:10119000474B1A6008E04748444ADC32926D12B26D
:1011A00002800246424B1A6060E0444A1268444B97
:1011B0009A4208D14348444A926D12B202800246D4
:1011C0003E4B1A6007E03E483F4A926D12B20280E1
:1011D00002463A4B1A6049E03C4A12683C4B9A423C
:1011E00009D13C48384ADC32926D12B20280024684
:1011F000364B1A6008E03648334ADC32926D12B240
:1012000002800246314B1A6030E0334A1268334B99
:101210009A4208D13248334A926D12B20280024695
:101220002D4B1A6007E02D482E4A926D12B20280B3
:101230000246294B1A6019E02B4A12682B4B9A423E
:1012400009D12B48274ADC32926D12B20280024645
:10125000254B1A6008E02548224ADC32926D12B212
:1012600002800246204B1A6000E000BF00BF4A1C0B
:10127000D1B2012900DA30E70122014B1A7000BD1A
:101280001D0100202001002098080020980900205E
:101290001C0800202C01002024010020280100202F
:1012A000380100203001002034010020D409002042
:1012B000440100203C01002040010020500100209A
:1012C000480100204C0100208C0B00205C01002014
:1012D0005401002058010020680100206001002016
:1012E00064010020440D0020740100206C010020E6
:1012F00070010020002000220C4B1B681A7000BFF8
:101300000DE042000A4B1B68D118DC224243094B16
:10131000D2188032926D12B20A80421CD0B20128DB
:10132000EFDB0222014B1B681A7070477802002025
:101330007C0200209C07002038B500251C4800686E
:101340000078022832D11B480068447824021948EA
:1013500000680078001984B26946204602F0FAF964
:101360000546144900980968087000980004000EAA
:1013700010490968487000980002000E0D4909687C
:1013800088700098000E0B490968C870681C002816
:1013900008D1EE200749096808700120044909684E
:1013A000087003E0042002490968087038BD000095
:1013B000780200207C02002038B500251C48006817
:1013C0000078022832D11B4800684478240219486A
:1013D00000680078001984B26946204602F020FABD
:1013E0000546144900980968087000980004000E2A
:1013F00010490968487000980002000E0D490968FC
:1014000088700098000E0B490968C870681C002895
:1014100008D1EE20074909680870012004490968CD
:10142000087003E0042002490968087038BD000014
:10143000780200207C020020F8B5002620480068D1
:10144000007806283AD11F48006845782D021D48CB
:1014500000680078401985B21A480068447924026F
:101460001848006800790419240216480068C078FA
:10147000041924021348006880780419214628467C
:1014800002F096F90646701C002804D1EE200D49A2
:10149000096808700EE000200A49096808702046B3
:1014A000FFF7FCF8074608493846FEF7FDFFA9009C
:1014B000064A50500120024909680870F8BD000032
:1014C000780200207C02002000007A444C000020BA
:1014D00070B500261C4800680078062833D11B48E8
:1014E000006845782D02194800680078401985B2D7
:1014F00016480068447924021448006800790419E9
:10150000240212480068C078041924020F480068B9
:10151000807804192146284602F0B0F90646701C6E
:10152000002804D1EE2009490968087007E000206E
:1015300006490968087020B26900054A5052012026
:1015400001490968087070BD780200207C02002003
:101550008C000020F0B589B0054600200890079067
:1015600000240026069005900390039880005449BB
:101570000F585448405D02908420C05980B20190B9
:101580000120029988400199084000908421009828
:10159000C8514D480068022188434B4908600398B0
:1015A00000F000FD039800F047FE284600F018FC0C
:1015B00000B2069000BF00BF38460299FFF7B4F9A9
:1015C00004B20120C002844203DA401E001B06B2AE
:1015D00000E026460121C9020698081A00B20790C9
:1015E0003A4841790798FEF7B9FE00B2089000200A
:1015F00004903DE000BF00BF00BF00BF0498401C46
:10160000C0B204900898301806B20120C002864289
:1016100003DA401E801B04B200E0344600BF00BF66
:101620002B480078012804D120460799FFF7F0F9EC
:10163000044600BF00BFA2B20299039800F0C0FCAC
:10164000039800F0AFFC039800F0F6FD284600F088
:10165000C7FB00B206900121C9020698081A00B221
:1016600007901A4841790798FEF778FE00B2089073
:101670000898002802D004980A28BBDB00BF00BFEE
:101680000121C9022046884305900846844204DDB2
:101690000598C043401C00B2059069000D4A0598AA
:1016A000505269000C4A0798505284210198C85141
:1016B00005480068022108430349086009B0F0BDED
:1016C000040000201300002080000E400D000020C8
:1016D00000000020140000201600002010B501F0CA
:1016E00065FD2E4800680121C90388432B49086025
:1016F00008460068890208432849086028480069AC
:10170000042108432649086124480068012149054D
:1017100008432249086001F053FD2248006B402134
:101720000840002839D11F48C06A400840001D49C0
:10173000C8621C48403800684021084319494039B4
:10174000086008460068402188431649403908600F
:101750001448C06A012108431249C8620120124995
:10176000087030BF0F48C06A400840000D49C86289
:101770000C4840380068402108430A494039086055
:1017800008460068402188430649403908600548FA
:10179000C06A012108430349C86210BD00200050FF
:1017A00000ED00E0400002401900002010B501F0FB
:1017B000FDFC0B4800680121C90388430849086003
:1017C00008460068890288430549086005480069A1
:1017D000042188430349086101F0F2FC30BF10BDC9
:1017E0000020005000ED00E070B504460026002502
:1017F00001F0DCFC00BF16480069C007C00F0028DC
:10180000F9D1134880694021084311498861222099
:10181000C86060198008800048600120086100BF2E
:1018200000BF0B480069C007C00F0028F9D1084865
:10183000806940210840002805D005488069084398
:1018400003498861012601F0BBFC304670BD0000F1
:1018500000C0005010B501F0A9FC0E48006801213D
:1018600008430C49086008460068FF21013108431D
:101870000849086008460068802108430549086057
:1018800008460068082108430249086001F098FCF6
:1018900010BD000000C00050FEB505460C461646BF
:1018A000009601F083FC00200190E01C800880007D
:1018B00084B200BF20480069C007C00F0028F9D1DA
:1018C0001D488069402108431B49886100272BE09F
:1018D00000201949C86001982818800880004860D5
:1018E000002088600120086100BF00BF1248006925
:1018F000C007C00F0028F9D10F4880694021084077
:10190000002805D00C48806908430B4988610DE028
:10191000094882683846791C8FB28100009842508D
:101920002D1D361D201F84B2002CD1D100BF01F027
:1019300047FC2846FEBD000000C00050F8B5054633
:101940000C46164600270020009001F02FFCE01CFA
:101950008008800084B200BF1C480069C007C00F27
:101960000028F9D119488069402108431749886146
:1019700024E021201549C860E819800880004860EB
:10198000306888600120086100BF00BF0F4800690F
:10199000C007C00F0028F9D10C48806940210840D9
:1019A000002807D009488069084308498861012058
:1019B000009005E02D1D361D201F84B2002CD8D1CB
:1019C00000BF01F0FDFB0098F8BD000000C0005012
:1019D00010B50121022001F0E3FAFFF73BFF10BD33
:1019E00000200A49097800290ED100BF0AE0DC2155
:1019F0004143074A89188031896D8200054B99500F
:101A0000411CC8B20128F2DB70470000FC01002035
:101A10009C070020380000200021174A1180002078
:101A200026E0DC214143154A89188031896D820006
:101A3000134B9A58891A002901DA002109E0DC21A8
:101A400041430E4A89188031896D82000C4B9A58A7
:101A5000891A09B242000B4B995241001A46515A59
:101A6000054A1288891809B2034A1180411CC8B27C
:101A70000128D6DB70470000F40000209C070020FE
:101A8000380000203C00002070B50025002601F041
:101A900039FD00BF2FE001F0E5FB002425E02046E2
:101AA00000F040F90646DC20604314494018A900C4
:101AB00046502146304602F00BF8DC216143104AC3
:101AC0008918AA008850342D0DDBDC2060430C49B6
:101AD0004018A90041580C2060430A4A8218284641
:101AE000343880001150601CC4B2012CD7DB01F0E7
:101AF000ABFF681CC5B2372DCDDB70BDC006002022
:101B00009C070020B406002010B513480078002878
:101B100021D011480068000A00020F4908600F48F0
:101B20000068401E0D49086008460068002806D17C
:101B300001F0AEFD01F0E6FC64200849086001F008
:101B400045FBFFF74DFFFFF767FF01F0BDF9FFF71A
:101B5000F9F901F0DDFE10BD30000020F00000209A
:101B600070B50446022C06DA600004490D5A284676
:101B700000F096F80646304670BD00002A000020AE
:101B8000F8B504460D46022C36DA60001B490E5AA1
:101B90002B0001F08FFF0504090E17202F000221F2
:101BA000304602F07BF826E00021304602F076F85D
:101BB00021E00121304602F071F80021304600F0AA
:101BC000A1F818E00121304602F068F80121304602
:101BD00000F098F80FE00121304602F05FF830463F
:101BE00000F05EF80746012047403946304600F0D5
:101BF00089F800E000BF00BFF8BD00002A00002007
:101C000010B50246002100200AE013460341DB071D
:101C1000DB0F002B02D0012383401943431CD8B2B1
:101C20001028F2DB0904034B5B680B43014C636033
:101C300010BD000000400050014600200EE00A46A2
:101C40000241D207D20F002A06D0064A526A012367
:101C500083409A43034B5A62421CD0B21028EEDBF9
:101C6000704700000040005010B502460B4B596809
:101C7000090C00200CE013460341DB07DB0F002BAF
:101C800004D0012383400C469C432146431CD8B218
:101C90001028F0DB0904014B596010BD00400050D2
:101CA00001460548806882B210460840002801D0ED
:101CB000012070470020FCE70040005030B502468C
:101CC00000201AE013460341DB07DB0F002B12D084
:101CD000012908D10A4B1B6845000124AC4023436D
:101CE000074C236007E0064B1B6845000124AC400D
:101CF000A343034C2360431CD8B21028E2DB30BD61
:101D000000400050002905D0054A92680243044B68
:101D10009A6004E0024A92688243014B9A607047DD
:101D20000040005070B5044600250026204601F012
:101D3000DFF90546002D01DD284600E06842032159
:101D40004902884229DD00F09FFA2046FFF702FC95
:101D500000F080FA204601F0CBF90646A0001149B8
:101D60000858A91B4018A1000E4A5050A000114667
:101D70000858002802DDA000085803E0A000094927
:101D8000085840420849884203DB0020A100054A68
:101D900050503546052005490870A00001490858F3
:101DA000401970BDF8000020606D0000AC000020FC
:101DB00010B5002404E0204600F02CF9601CC4B2E9
:101DC000012CF8DB0448006802210843024908603E
:101DD00000200249087010BD80000E400C00002059
:101DE000F8B50446002100910025A80005490E58C9
:101DF0000548075D6A4639463046FEF7A0FD68464D
:101E00000088F8BD04000020130000203EB5002526
:101E10000121102001F00CF90021062001F086F8C4
:101E20000121080701F0DEF80121042001F0B8F8D3
:101E3000402001F033F80121402000F0CDFF0021C7
:101E400068464170012181700221C1700421017135
:101E5000417101210172072181710221C17101705B
:101E60001D480078022800D100E001206946487230
:101E7000002407E01948015D01208840284385B20D
:101E8000601CC4B2012CF5DB684645811449086822
:101E90006946FEF719FD134800680121C90508438A
:101EA000104908600F484030006AC90508430D49D1
:101EB000403108620846006A0121090708430949C0
:101EC000403108620748803800680121084305490D
:101ED0008039086000203EBD34000020130000203F
:101EE0000400002000010E403EB5044600250121FB
:101EF000102001F09DF80021062001F017F80121C3
:101F0000080701F06FF80121042001F049F8402092
:101F100000F0C4FF0121402000F05EFF0021684670
:101F20004170012181700221C17004210171417150
:101F300001210172072181710221C171017001210A
:101F400041720120A040284385B26846458113496B
:101F500008686946FEF7B8FC114800680121C90508
:101F600008430F4908600E484030006AC90508431D
:101F70000B49403108620846006A012109070843FD
:101F8000074940310862064880380068012108434B
:101F900003498039086000203EBD00000400002095
:101FA00000010E408200054B9958802252580123AF
:101FB000DB021A4380235A507047000004000020BF
:101FC000F8B504460D461646A00004490F5832469F
:101FD00029463846FEF7BEFCF8BD0000040000208C
:101FE00070B503468C009D00094E7059FF250135E0
:101FF0002D580726A640B543FF26013635503546F5
:102000002D581646A6403543FF260136355070BD83
:1020100004000020F1B58EB000BF00200D90002418
:102020000C9000250B900590059880007B4908587E
:1020300004907B490E98085C0390049880304068B7
:1020400080B20290012003998840029908400190D3
:102050000498803001994160002201210598FFF722
:10206000BFFF002211460598FFF7BAFF0598FFF75A
:1020700099FF059800F0E0F80E98FFF7B1FE05B261
:102080000120C002281A002803DD0120C002281AFE
:1020900002E00120C002401B06B21B200002704378
:1020A0000A907D20C000099007AB08AA09990A98F8
:1020B00000F016FAFF21F5310798884202D30898FC
:1020C000401C0890089800B20D900D9C0120C002A1
:1020D000854203DA201804B20C9403E05148001B37
:1020E00000B20C90A2B203990598FFF769FF00BFF8
:1020F00000BF002771E0780038184B490A5C0121C5
:102100000598FFF76DFF7800381847494018427866
:1021100000210598FFF764FF0598FFF743FF059836
:1021200000F08AF80E98FFF75BFE05B20120C002AE
:10213000401B06B2780038183B4A80188178304638
:10214000FEF70CF900B20D9000BF00BF0020069012
:102150003BE00698401CC0B206900D990C984018C0
:1021600000B20C900121C9020C98884204DA491E81
:102170000C98081A04B200E00C9C2C480078012846
:1021800004D131462046FEF743FC044600BF00BFA1
:10219000A2B203990598FFF713FF0598FFF702FF16
:1021A000059800F049F80E98FFF71AFE05B20120D5
:1021B000C002401B06B2780038181B4A801881788C
:1021C0003046FEF7CBF800B20D900D98002802D0F3
:1021D00006980A28BDDB781CC7B2022F8BDB00BF34
:1021E00000BF0121C902204688430B900846844263
:1021F00004DD0B98C043401C00B20B900B9881B2D9
:102200000E9840000A4A11520E984000094A165290
:1022100004988030029941600FB0F0BD04000020A6
:1022200013000020FF0700000D0000200000002028
:10223000140000201600002070B50446A0000449D8
:102240000D5800BF2846FEF78EFB0028FAD070BD5F
:10225000040000200A4800680121890588430849D4
:102260000860074880380068400840000449803909
:1022700008600448006B8021884302490863704766
:1022800000010E40002000500A48006B80210843E6
:10229000084908630848006849020843064908607D
:1022A00005488038006801210843034980390860E7
:1022B000704700000020005000010E4010B50024BF
:1022C0000D480068FF2109028843FF3001300A49A8
:1022D000086008460068000A0002086000200749FC
:1022E000087007490870642404480078054908709C
:1022F000204601F06FFB10BD300000201B000020C5
:102300001A0000204A02002010B504460A2C01DD04
:10231000012010BD204600F081F8012802D120469E
:1023200000F054F80020F4E710B5002400BF04E0EA
:102330002046FFF7E9FF601CC4B20A2CF8DD00203C
:1023400010BD000010B50D480D4909680160FF225D
:102350000421001DFDF7EFFFFF220421074808308C
:10236000FDF7E9FFFF22FD21890004480C30FDF74D
:10237000E2FFFFF72DFB002010BD0000B40200209B
:10238000903E0000F8B504460D4616461F460A2C3E
:1023900001DD0120F8BDA819FD218900884201D97D
:1023A0000120F7E720463030074B0122920200213E
:1023B00001F0EFFB04480C30411932463846FDF776
:1023C00079FF0020E6E70000B402002070B5044663
:1023D00000250A2C01DD012070BD0E480E49096858
:1023E0000160FF22FD2189000C30FDF7A4FFFD21D3
:1023F000890008480C3001F09FFB05460548456000
:1024000020463030034B01229202002101F0D1FB23
:102410000020E1E7B4020020903E000070B50446C1
:1024200000250A2C01DD012070BD204630300E4B06
:1024300001229202002101F0ACFB0B4800680B491D
:10244000884201D00120EFE7FD21890006480C30C9
:1024500001F072FB054604484068A84201D0012003
:10246000E2E70020E0E70000B4020020A55A5AA5E8
:10247000F8B504460D4616461F46002000900A2C6B
:1024800001DD0120F8BDA819FD218900884201D98C
:102490000120F7E720463030104B01229202002144
:1024A00001F077FB0D490C31481932463946FDF7EA
:1024B00001FFFD21890009480C3001F03DFB00902F
:1024C000064900984860204630300B4601229202AF
:1024D000002101F06EFB0020D4E70000B4020020D0
:1024E00030B50446084804604160806810600648C2
:1024F000C06818600448006902252840002801D0FF
:10250000002030BD0120FCE70040015070B5FF24E1
:10251000FF250120514908705148C06A0121C903B3
:102520000840002808D04E488030006BC407E40FF4
:1025300000204C4908708FE04948C06A20210840BB
:1025400000282DD0464840300069474800784100B7
:102550004018464940184078012808D04248007881
:1025600041004018414940184078112814D13E4894
:102570000078410040183D49401880783C4909786E
:10258000884209DD3B48006839490978455C38488C
:102590000078401C36490870E8B200F0BBFB5BE0F5
:1025A0002F48C06A0421084000283FD02C48046905
:1025B00031480078C007C00F00280FD02E480068AF
:1025C000400840002C49086027490C7008460078F4
:1025D00000F06EF80020294908703DE0224800789C
:1025E00041004018214940184078102808D01E4862
:1025F0000078410040181D494018407811282BD11F
:1026000019480078410040181849401880781B4943
:102610000978884220DD17490968184A12788C54D5
:1026200016480078401C1549087015E00C48C06A2F
:1026300001214902084000280ED009484030006AB4
:102640000D48006840084000401C0B49086000200D
:102650000A4908700649087070BD00001800002083
:10266000000002401900002070020020D447000042
:10267000280000206C0200202400002029000020F7
:102680000348C06A012108430149C862704700003D
:1026900040000240002001490863704700000240EA
:1026A0000249096B0143014A11637047000002406F
:1026B00010B5044660002018F849085C65286FD002
:1026C0003ADC1F286DD011DC030001F0F3F91B6B1D
:1026D0006C72767A7E8387928B9492929292929881
:1026E0009CA4A8ACB0B4B8BDC1C592002A2870D0D3
:1026F00009DC2038030001F0DDF90AB9BDC4C8CCFB
:10270000D0D4D8DCE07C602870D00CDC50286ED0AF
:1027100004DC2B286CD02C286BD1DAE0512869D04E
:102720005228F9D1E1E0612871D0622870D0632885
:102730006FD06428F0D10DE17B286BD00FDC6638B8
:10274000030001F0B7F915EEEDECEBEAE9E8E7E696
:10275000E5E4E3E2E1E0DFDEDDDCDBDA56008628FB
:1027600071D009DC7C38030001F0A4F90AEEEDEC2D
:10277000EBEAE9E8E7E6E543D02871D007DC8738E3
:10278000030001F097F905F0EFEEEDEC3600D128EB
:1027900067D0D22873D0D32872D0D428BCD13EE2DF
:1027A000E2E05FE045E20120BD49087000F0DEFD97
:1027B0003FE2BC48BC4908603BE2BC48BA490860FB
:1027C00037E2BB48B849086033E2BA48B649086006
:1027D0002FE276E00120B84908702AE20120B749CB
:1027E000087026E20120B649087022E281E074E018
:1027F0006BE018E275E0B348AB49086019E2B248F3
:10280000A949086015E2B148A749086011E289E0CA
:102810008CE09AE00DE1AE48A349086009E2AD48BA
:10282000A149086005E2AC489F49086001E2AB4855
:102830009D490860FDE1AA489B490860F9E1A94863
:1028400099490860F5E120E1A74897490860F0E15F
:10285000A64895490860ECE1A54893490860E8E17D
:10286000CAE1D0E1A34890490860E2E1A2488E495C
:102870000860DEE1A14800688B490860D9E1C6E143
:10288000C9E19F4888490860D3E19E4886490860AD
:10289000CFE19D4884490860CBE19C4882490860AB
:1028A000C7E19B4880490860C3E19A487E490860B7
:1028B000BFE199487C490860BBE198487A490860C3
:1028C000B7E1974878490860B3E1964876490860CF
:1028D000AFE1954874490860ABE1944872490860DB
:1028E000A7E1934870490860A3E192486E490860E7
:1028F0009FE191486C4908609BE196E091E08CE093
:1029000087E082E07DE078E073E06EE068E062E01E
:102910005CE056E050E04AE044E03EE038E032E07F
:102920002CE026E085486049086082E18448006820
:102930005D4908607DE1A4E09FE09AE095E090E0C9
:102940008BE086E081E07CE077E07E4800685649D5
:1029500008606EE17C4800685349086069E147E11E
:1029600042E13DE138E194E0784800684E49086072
:102970005FE1774800684C4908605AE17548006893
:102980004949086055E1744800684749086050E1CA
:1029900072480068444908604BE171480068424948
:1029A000086046E16F4800683F49086041E16E48B1
:1029B00000683D4908603CE16C4800683A4908609D
:1029C00037E16B4800683849086032E169480068BF
:1029D000354908602DE1684800683349086028E1FE
:1029E000664800683049086023E165482E49086060
:1029F0001FE164482C4908601BE163482A490860CC
:102A000017E162482849086013E1614826490860D7
:102A10000FE16048244908600BE15F4822490860E3
:102A200007E15E482049086003E15D481E490860EF
:102A3000FFE05C481C490860FBE05B481A490860FD
:102A4000F7E05A4818490860F3E059481649086009
:102A5000EFE0584814490860EBE057481249086015
:102A6000E7E0564810490860E3E055480E49086021
:102A7000DFE054480C490860DBE053480A4908602D
:102A8000D7E0524808490860D3E051480649086039
:102A9000CFE0504804490860CBE00000D447000074
:102AA000800200208C0800206C020020140100200D
:102AB000160100201801002082020020810200205F
:102AC000830200201A010020FC010020FD010020EB
:102AD00002020020070200200C0200201102002048
:102AE000160200201B0200202002002025020020E8
:102AF0002A020020620200202F020020340200205F
:102B0000380200203A0200203C0200203E02002051
:102B10004002002042020020440200204602002021
:102B20004802002063020020640200204A020020C4
:102B30004B0200204D0200201C0100201D0100203E
:102B4000200100202C010020380100204401002039
:102B5000500100205C010020680100207401002069
:102B6000800100208C01002098010020A401002099
:102B7000B0010020BC010020C8010020D4010020C9
:102B8000D8010020DA010020DC010020DE01002055
:102B9000E0010020E2010020E4010020E601002025
:102BA000E8010020EA010020EC010020EE010020F5
:102BB000F0010020F2010020F4010020F5010020C6
:102BC000980A0020F6010020F7010020980B002051
:102BD000F8010020F901002017481849086028E092
:102BE00017481649086024E016481449086020E098
:102BF0001548124908601CE0012014490870144867
:102C00000E49086015E001201249087011E01248D1
:102C10000A4908600DE011480849086009E01048B9
:102C20000649086005E00F480449086000BF00BF7E
:102C300000BF00BF10BD0000980C00206C020020F7
:102C4000FA010020FB010020980D002085020020E1
:102C50005102002084020020520200205402002071
:102C600056020020980E002070B500F08DFB05463E
:102C700000F090FB0446094805604460601C002891
:102C800002D1012006490870BE2004490872EF20D5
:102C9000487204480449086070BD00008C08002098
:102CA00000000020980E00206C0200201849C96A1C
:102CB000C907C90F164AD1620178154A403A916096
:102CC000002111601146096880221143104A403AE0
:102CD00011604178082901DD0821417041780029FF
:102CE00001D1012141704178491E094A403A91635E
:102CF0008178082901DD082181708178002901D1BE
:102D0000012181708178491E014A403AD1637047A0
:102D100040000240034A5269D1B2024A403A10616F
:102D200000BF70474000024009480068400840006A
:102D3000401C07490860084600680221884304498E
:102D4000086008460068042188430149086070470C
:102D50002400002010B50121084600F021F90548A3
:102D6000FEF74EFF002000F05DFF0221880200F018
:102D700095FF10BDFF070000F8B506460C4600257C
:102D800000BF002700BF16E00C2060431149411826
:102D9000681C800009580C2060430E4A8018AA0065
:102DA00081500C2060430B494118681C8000085872
:102DB000C719681CC5B2022DE6DB0C20604305492B
:102DC00040188660BF1903213846FDF7C7FA009006
:102DD0000098F8BDB406002010B50246032900DDB6
:102DE00003210846102A30D008DC012A11D0022A1B
:102DF00016D0042A1BD0082A4AD11FE0202A2BD043
:102E0000402A30D0802A35D0D31FF93B002B3FD148
:102E100037E0214B1B68840123431F4C236038E0BB
:102E20001D4B1B68840323431B4C236031E01A4B6A
:102E30001B6884052343184C23602AE0164B1B684B
:102E400084072343144C236023E0134B5B68840105
:102E50002343114C63601CE00F4B5B6884032343E6
:102E60000D4C636015E00C4B5B68840523430A4CF2
:102E700063600EE0084B5B6884072343064C636085
:102E800007E0054B9B6884012343034CA36000E0EB
:102E900000BF00BF10BD000000E400E001460020BC
:102EA0000DE0012282400A40002A06D0054A12683D
:102EB000012383401A43034B1A60421CD0B20928F5
:102EC000EFDB704700E100E010B5124800781249CE
:102ED0000870124800681249884208D18C1C1149B8
:102EE0000020085E208020460C49086007E00C4C5A
:102EF0000C490020085E20802046084908600A49E5
:102F00000020085E074900228A5E904201DA00F044
:102F1000EAFE10BDFC0100202F0200203402002038
:102F200030020020F40000208C00002030B5024662
:102F30001A4CA069012A15D0022A1AD0042A0AD0F4
:102F4000062A1BD120250446AC4320461025044602
:102F5000AC43204613E020250446AC432046102411
:102F600020430CE02024204310250446AC43204697
:102F700005E0202420431024204300E000BF00BFD0
:102F8000064CA061E0690B46FF252D040446AC43C6
:102F900020461C042043014CE06130BD0028005055
:102FA00010B50246002018E01346C340DB07DB0FD4
:102FB000002B10D0012907D1094B5B680124844004
:102FC0002343074C636006E0054B5B6801248440A3
:102FD000A343034C6360431CD8B20528E4DB10BD57
:102FE0000028005070B505460E4600F0DFF80024BA
:102FF00017E00120A0402840002810D0012E07D162
:103000000A4880680121A14008430849886006E019
:10301000064880680121A140884304498860601CFB
:10302000C4B2202CE5DB00F0CBF870BD00280050C6
:1030300070B505460E4600F0B9F8002417E00120EF
:10304000A0402840002810D0012E07D10A4800686F
:103050000121A14008430849086006E006480068CD
:103060000121A140884304490860601CC4B2052CBA
:10307000E5DB00F0A5F870BD0028005001460129ED
:1030800004D0022904D0032906D103E0022004E081
:10309000032002E0072000E000BF00BF034A52699E
:1030A000F0231A401043014A506170470028005035
:1030B00070B5054600F07AF80C488469032D02D0FB
:1030C000052D0CD106E00221204688430446640801
:1030D000640005E0022004436408640000E000BFCF
:1030E00000BF0248846100F06BF870BD00280050FA
:1030F00070B504462046FEF773FE0121C902401A4E
:1031000005B2284670BD10B5002403E0A0B200F05F
:103110000FF8641C102CF9DB10BD10B5002403E07F
:10312000A0B200F025F8641C012CF9DB10BD0000F2
:10313000F8B50446102C00DBF8BD6946204600F0C7
:1031400009FB0546681C002800D1F5E70098FDF74B
:10315000A5FA064604493046FDF7A6F9A100034A40
:10316000505000BFE8E7000000007A444C00002007
:1031700038B50446102C00DB38BD6946204600F007
:103180004FFB0546681C002800D1F5E7009800B207
:103190006100024A505200BFEEE700008C000020A0
:1031A00010B5FFF7B0FFFFF7B8FF10BD5920034976
:1031B00008601620086088200860704700010050F1
:1031C00000200149086070470001005070B50024DC
:1031D00000250026FFF758F800F044F8FFF73AF80A
:1031E00000BF37E0DC2262431C4BD218111DDC22E9
:1031F0006243D018D822FDF727F8DC226243184B2F
:10320000D218111DDC226243D018D822FDF71CF819
:10321000E0B2FEF787FD0546DC2060430F49401809
:1032200080308565E1B2284600F052FC0546DC207E
:1032300060430B49401880308565E1B22846FFF7AE
:103240009BFD0646DC2060430549401880308665BA
:10325000601C84B2012CC5DB70BD0000C0060020DC
:103260009C07002010B5094800680121C9020843E5
:103270000649086000BFFEF799FA05480078002863
:10328000F9D000200249087010BD000080000E40F7
:103290000C000020F0B585B004463048406880B28C
:1032A00002902E48803801902C48E43000902B4842
:1032B0000068049029488030006803900021A20033
:1032C000009881502648006B8021084324490863F8
:1032D0001F20000521498031086022481F490860ED
:1032E0000120A040486008460068C91408431B49F3
:1032F000086000BF19488038FDF735FB0028F9D079
:10330000A1000198405A0605360D1748134980312F
:10331000086012480068C91408431049086000BFDB
:103320000E488038FDF71FFB0028F9D0A100019856
:10333000405A07053F0D0949803103980860074945
:1033400002984860049808600548006B8021884313
:1033500003490863F51B28B205B0F0BD80000E409C
:103360000020005009004A200000F010BFF3408FF9
:1033700002480349C860BFF3408F70470400FA0554
:1033800000ED00E070470000014908687047000048
:1033900000ED00E005210907086870470149496907
:1033A00088B270474000005010B5024605231B0745
:1033B0005868130000F07EFB06040E183B5C677330
:1033C000012902D11023184303E010240346A3432C
:1033D000184665E0022902D14023184303E0402447
:1033E0000346A34318465BE0052903D103239B044E
:1033F00018431BE0022906D18B0418434C040346F2
:10340000A343184612E0032907D10124E40403462C
:10341000A34318466310184308E00124E40403465C
:10342000A343184664100346A343184638E0062910
:1034300002D1CB0418431AE0012906D14B051843E9
:103440000C050346A343184611E0042906D1CC0419
:103450000346A34318468B04184308E0012464057F
:103460000346A343184664100346A343184617E0D7
:10347000082902D1CB04184304E00124A405034623
:10348000A34318460CE0072903D101231B06184368
:1034900004E0012424060346A343184600E000BFCD
:1034A00000BF05231B07586010BD000005480069D8
:1034B000C1B280200840002801D0002070470120C0
:1034C000FCE70000400000500246012904D19306A9
:1034D000180E0123184300E00020014B18617047CB
:1034E00040000050064800690221884304490861F1
:1034F000084600690221084301490861704700003D
:1035000040000050F0B585B03F4909783E4A5278F6
:1035100012028818FDF7C2F807463C49FCF7C4FFC1
:10352000064600255DE044206843394A115830467C
:1035300000F034FC54D2002D0FD100240AE04420C6
:10354000684333494018001DA1004058A100314A8A
:103550005050641C102CF2DB41E000243DE06A1E58
:1035600044235A432A4B995844226A43985800F0FE
:10357000A3FC44216943264A03905058314600F089
:103580009BFC0090681E44225043214A8018001D75
:10359000A2008158009800F02BFC0746681E4422C8
:1035A00050431B4A1158304600F086FC00904420DE
:1035B0006843174A8018001DA2008158009800F047
:1035C00017FC3946019000F0A3FB02900399FCF729
:1035D0006BFFA1000F4A5050641C102CBFDB02E0AF
:1035E0006D1C0B2D9FDB00BF0B2D0ADB002406E0BA
:1035F000A10009484058A100064A5050641C102CF4
:10360000F6DB05B0F0BD00004D02002000002041B7
:10361000E8440000B00000209447000010B51848AE
:10362000007800281DD01748C06A4008400015499E
:10363000C8621448403800684021084311494039A5
:10364000086008460068402188430E4940390860F8
:103650000C48C06A012108430A49C8620020084991
:103660000870094800F059F808480068000A00028C
:1036700006490978491CC9B208430449086010BDCD
:1036800019000020400002400000014030000020EE
:10369000F8B500F02FF80446204600F017F806466B
:1036A0000849304600F0A4FB0746FCF7ADFF05B221
:1036B00005490D702804000E48708C702012C870E7
:1036C000F8BD0000000020414D020020F8B504467E
:1036D0002046FCF7EBFF07460449FCF7E5FE0646EB
:1036E000034900F0DDFB05462846F8BD0000864290
:1036F0000000D84310B5FFF7F5FE00BFFFF7D6FE78
:103700000028FBD1FFF74AFE0446204610BD10B545
:1037100001210020FFF7D8FE10BD8168012211436E
:103720008160704701680122920711430160704770
:10373000024600200B785B0718434B78DB061843E2
:103740008B781B051843CB78184310604B68536087
:10375000704700003EB504460D46102C02DB0020E9
:10376000C0433EBD062060430E4A811806226846CB
:10377000FCF7A0FD0C480290684607C800F0B6F8B8
:1037800009480078EE2805D1074840780749095DC7
:10379000884202D00020C043E3E703484068286025
:1037A0000020DEE7E24A000088020020424B0000D1
:1037B0003EB504460D46102C02DB0020C0433EBD42
:1037C00006206043134A811806226846FCF772FD02
:1037D00011480290EE20104908701048005D4870B2
:1037E00008464560684607C800F089F8684607C87B
:1037F00000F07CF808480078EE2805D106484078AB
:103800000649095D884202D00020C043D7E7002066
:10381000D5E70000E24A000088020020424B000089
:103820003EB504460D46102C02DB0020C0433EBDD1
:10383000062060430E4A811806226846FCF73AFDCE
:103840000C480290684607C800F050F80948007814
:10385000EE2805D1074840780749095D884202D023
:103860000020C043E3E70348406828600020DEE70B
:10387000524B000090020020B24B00003EB50446BF
:103880000D46102C02DB0020C0433EBD06206043E5
:10389000134A811806226846FCF70CFD1148029075
:1038A000EE20104908701048005D487008464560D9
:1038B000684607C800F023F8684607C800F016F805
:1038C00008480078EE2805D1064840780649095D89
:1038D000884202D00020C043D7E70020D5E700008F
:1038E000524B000090020020B24B000037B56C46EE
:1038F000A28861882078029BFEF744FD3EBD37B563
:103900006C46A28861882078029BFEF7B1FD3EBD1F
:1039100010B517480078002804D0012809D00228E3
:1039200022D117E013480078002801D0FDF7D6FE19
:103930001BE011480078002801D1642000E0C82075
:1039400001460E48FCF70AFD0D49086002200849AF
:1039500008700AE00A480068401E0949086000280B
:1039600001D10349087000E000BF00BF10BD000096
:10397000180000201A0100201A00002030750000F5
:103980002000002008B501210802FFF72BFB2020B2
:10399000FFF784FA00212020FFF71EFA04210320FC
:1039A000FFF702FD03210220FFF7FEFCFEF772FE87
:1039B00089208000FEF774FE5021684601700121C5
:1039C000417008218170FFF771F9FFF7ADF9FEF73B
:1039D00057FE08BD1CB504460420FFF75FFA02211C
:1039E0000420FFF7F9F901210804FFF7FBFA03208F
:1039F000FFF744FB01216846017041700021C1704E
:103A0000019469460348FFF793FE0248FFF78AFED8
:103A10001CBD0000000001401CB501210846FFF755
:103A2000E1FA0320FFF744FB0521684601700021FD
:103A3000C1700121017103214171002181700121B7
:103A4000417000F005F81CBD10B500F025F810BD60
:103A500070B5044625782D026078012801D18020B8
:103A60000543A078012801D140200543E0780128D2
:103A700001D1102005432079012801D102200543FE
:103A8000FFF794FB03480560607902494860FFF73F
:103A900097FB70BD0040004010B5FFF787FB04485E
:103AA00000680121084302490860FFF789FB10BD47
:103AB0000040004030B47446641E2578641CAB425C
:103AC00004D3635D5B00E31830BC18471D46F8E77C
:103AD000F8B505460C462846FCF7E0FD0090A0002E
:103AE000074A1158009800F083F90746A000054ADC
:103AF0001158384600F07CF90646FCF785FDF8BD04
:103B00004C000020B000002030B5024600201346D3
:103B10000AE01C785B1C05126C402406E40D054D80
:103B20002C5B05026C40A0B20C46491E002CF0D163
:103B300030BD00009442000030B502460C46002122
:103B40001346C94309E018785B1C48400006800D05
:103B5000054D28580D0A684001462046641E00287D
:103B6000F1D1C84330BD0000943E000070B504465A
:103B70000026A5022846FDF737FE002806D1E81DDD
:103B8000FF30FA30FDF730FE002800D00126304625
:103B900070BDFEB504460D4616461F46A0024019EC
:103BA00000903A4631460098FDF776FE0190019864
:103BB000FEBDFFB581B004460D461646A002401971
:103BC00000902046FFF7D2FF0746012F02D138466A
:103BD00005B0F0BD3146049A0098FDF7AFFE0746E8
:103BE0003846F5E7FFF740F8FFF7CCFEFFF7B2F8ED
:103BF000FCF7CAFEFEF70AF9FEF7DAF8FFF70CFF4A
:103C0000FEF7A0FBFEF790FBFFF7CAFAFFF77FFD78
:103C1000FDF73AFFFEF752FB03E0FFF715FFFDF754
:103C200073FFFAE7002802D0012831D11EE00521F8
:103C30000907496801229205914305221207516044
:103C4000114649680122120691430522120751606C
:103C5000114909680122920511430F4A116011466A
:103C60000968920211430C4A116012E0052109070C
:103C7000496801229205114305221207516011463D
:103C8000496801221206114305221207516000E023
:103C900000BF00BF704700000040005070B50546EF
:103CA0000C46002C09D0012C02D0022C18D10CE0BB
:103CB00001212846FEF702F813E000212846FDF70F
:103CC000FDFF2846FDF7D0FF0BE02846FDF7B4FFC7
:103CD00000212846FDF7F2FF2846FDF791FF00E09E
:103CE00000BF00BF70BD10B50121C802FFF7D6FFAD
:103CF00000210120C002FEF705F8002400E0641C4A
:103D00000A2CFCDB02218802FFF7C8FF10BD00006F
:103D100070B501250400ED074C4020D4441A01D2AF
:103D2000001B0919C60D4B00F2B2FF2A29D01B0E49
:103D30002CD000020C02D31A2C43DC402843051976
:103D400010D2280A02D3401C6D0611D0761EF6054B
:103D50008019FF2A00DA70BDC00DC00570BD694032
:103D600000F0B0F801200543C541521C761CE8E77D
:103D700064089C40C90161408900E7D10124A04347
:103D8000E4E71B0E440200D0034870BD002AFCD1BA
:103D9000C00FC00770BD00BF0000C07F012302003C
:103DA000DB050A430DD4DA4203D49A4207D4884291
:103DB0007047D84214D4D94212D488427047804206
:103DC0007047DA4203D59A42F9D5814270475B00C9
:103DD0004200DA4204D24A00DA4201D281427047FC
:103DE00010B5024AFCF786FC10BD00BF090016049E
:103DF00070B5420064414B005C41120E39D01B0E7D
:103E000038D0FF2A3CD0FF2B3AD040024902400A6A
:103E1000490A060045184E43000A090AD2184843C9
:103E2000ED017F3A0104731A4019190C4318990FD8
:103E300004D001215B0849075B1A521CD80904D33E
:103E4000401CF50301D19D0607D0FF2A08D2D505F5
:103E500006D0E4072043401970BD0125A843F4E7CC
:103E6000002A01DCE00770BD2402FF202043C005CA
:103E700070BD1B0EFF2A03D0FF2B01D0E00770BDE1
:103E8000FF2645003606B54206D84D00B54203D898
:103E9000D218FF2A00D0E7E7004870BD0000C07FBD
:103EA00070B50125ED07684004004C4002D569401B
:103EB00000F008F8FFF732FF70B501250400ED07A8
:103EC0004C4022D4441A02D26C40001B0919C60D82
:103ED0004B00F2B2FF2A4BD01B0E50D000020C0256
:103EE000D31A2C43DC40A843051B05D5AD0019D3DC
:103EF0006D08761E521E37D0F605280A01D28019A9
:103F000070BD70416D0603D070BD6940FFF706FFBC
:103F10009C4009026140490001D0401E70BD01244F
:103F2000A04370BD6D081DD001202B0C01D12D04C4
:103F300010302B0E01D12D0208302B0F01D12D0195
:103F4000001DAB0F01D1AD00801CEB0F01D16D0046
:103F5000401C6D00361A121A680AF5054019012A2C
:103F600002DB70BD002070BDC036300AC00770BDD6
:103F70001B0E440201D1FF2B00D1024870BD002A64
:103F8000F0D070BD0000C07FFF048105810DFF0CE3
:103F9000A55A5AA500000000963007772C610EEE56
:103FA000BA51099919C46D078FF46A7035A563E990
:103FB000A395649E3288DB0EA4B8DC791EE9D5E0B7
:103FC00088D9D2972B4CB609BD7CB17E072DB8E7B6
:103FD000911DBF906410B71DF220B06A4871B9F30B
:103FE000DE41BE847DD4DA1AEBE4DD6D51B5D4F444
:103FF000C785D38356986C13C0A86B647AF962FDA9
:10400000ECC9658A4F5C0114D96C0663633D0FFAF5
:10401000F50D088DC8206E3B5E10694CE44160D5FB
:10402000727167A2D1E4033C47D4044BFD850DD2E5
:104030006BB50AA5FAA8B5356C98B242D6C9BBDBF8
:1040400040F9BCACE36CD832755CDF45CF0DD6DCF3
:10405000593DD1ABAC30D9263A00DE518051D7C89A
:104060001661D0BFB5F4B42123C4B3569995BACF25
:104070000FA5BDB89EB802280888055FB2D90CC646
:1040800024E90BB1877C6F2F114C6858AB1D61C1BF
:104090003D2D66B69041DC760671DB01BC20D298DE
:1040A0002A10D5EF8985B1711FB5B606A5E4BF9F6B
:1040B00033D4B8E8A2C9077834F9000F8EA809965E
:1040C00018980EE1BB0D6A7F2D3D6D08976C6491C9
:1040D000015C63E6F4516B6B62616C1CD8306585E2
:1040E0004E0062F2ED95066C7BA5011BC1F40882BF
:1040F00057C40FF5C6D9B06550E9B712EAB8BE8B00
:104100007C88B9FCDF1DDD62492DDA15F37CD38C88
:10411000654CD4FB5861B24DCE51B53A7400BCA386
:10412000E230BBD441A5DF4AD795D83D6DC4D1A4B8
:10413000FBF4D6D36AE96943FCD96E34468867AD8F
:10414000D0B860DA732D0444E51D03335F4C0AAA2E
:10415000C97C0DDD3C710550AA41022710100BBE31
:1041600086200CC925B56857B3856F2009D466B978
:104170009FE461CE0EF9DE5E98C9D9292298D0B0AD
:10418000B4A8D7C7173DB359810DB42E3B5CBDB75A
:10419000AD6CBAC02083B8EDB6B3BF9A0CE2B603DB
:1041A0009AD2B1743947D5EAAF77D29D1526DB0490
:1041B0008316DC73120B63E3843B64943E6A6D0DDB
:1041C000A85A6A7A0BCF0EE49DFF099327AE000A26
:1041D000B19E077D44930FF0D2A3088768F2011EB9
:1041E000FEC206695D5762F7CB67658071366C1950
:1041F000E7066B6E761BD4FEE02BD3895A7ADA1071
:10420000CC4ADD676FDFB9F9F9EFBE8E43BEB71751
:10421000D58EB060E8A3D6D67E93D1A1C4C2D838DB
:1042200052F2DF4FF167BBD16757BCA6DD06B53F41
:104230004B36B248DA2B0DD84C1B0AAFF64A033680
:10424000607A0441C3EF60DF55DF67A8EF8E6E31FF
:1042500079BE69468CB361CB1A8366BCA0D26F2548
:1042600036E2685295770CCC03470BBBB916022295
:104270002F260555BE3BBAC5280BBDB2925AB42BAA
:10428000046AB35CA7FFD7C231CFD0B58B9ED92CBF
:104290001DAEDE5BB0C2649B26F263EC9CA36A7524
:1042A0000A936D02A906099C3F360EEB85670772DB
:1042B00013570005824ABF95147AB8E2AE2BB17B42
:1042C000381BB60C9B8ED2920DBED5E5B7EFDC7CC9
:1042D00021DFDB0BD4D2D38642E2D4F1F8B3DD6820
:1042E0006E83DA1FCD16BE815B26B9F6E177B06F1B
:1042F0007747B718E65A0888706A0FFFCA3B066608
:104300005C0B0111FF9E658F69AE62F8D3FF6B6194
:1043100045CF6C1678E20AA0EED20DD75483044E36
:10432000C2B30339612667A7F71660D04D476949C4
:10433000DB776E3E4A6AD1AEDC5AD6D9660BDF40D7
:10434000F03BD83753AEBCA9C59EBBDE7FCFB2478A
:10435000E9FFB5301CF2BDBD8AC2BACA3093B3536F
:10436000A6A3B4240536D0BA9306D7CD2957DE5478
:10437000BF67D9232E7A66B3B84A61C4021B685D51
:10438000942B6F2A37BE0BB4A18E0CC31BDF055ACA
:104390008DEF022D00002110422063308440A55093
:1043A000C660E770088129914AA16BB18CC1ADD17B
:1043B000CEE1EFF13112100273325222B552944223
:1043C000F772D662399318837BB35AA3BDD39CC3CB
:1043D000FFF3DEE36224433420040114E664C7746F
:1043E000A44485546AA54BB528850995EEE5CFF51B
:1043F000ACC58DD55336722611163006D776F666C3
:104400009556B4465BB77AA719973887DFF7FEE76A
:104410009DD7BCC7C448E5588668A778400861188E
:1044200002282338CCC9EDD98EE9AFF948896999BA
:104430000AA92BB9F55AD44AB77A966A711A500A62
:10444000333A122AFDDBDCCBBFFB9EEB799B588B0A
:104450003BBB1AABA66C877CE44CC55C222C033CAE
:10446000600C411CAEED8FFDECCDCDDD2AAD0BBD5A
:10447000688D499D977EB66ED55EF44E133E322E02
:10448000511E700E9FFFBEEFDDDFFCCF1BBF3AAFAA
:10449000599F788F8891A981CAB1EBA10CD12DC108
:1044A0004EF16FE18010A100C230E320045025409E
:1044B00046706760B9839893FBA3DAB33DC31CD3FE
:1044C0007FE35EF3B1029012F322D23235421452EE
:1044D00077625672EAB5CBA5A89589856EF54FE54A
:1044E0002CD50DC5E234C324A0148104667447643E
:1044F00024540544DBA7FAB79987B8975FE77EF79E
:104500001DC73CD7D326F2369106B016576676768D
:10451000154634564CD96DC90EF92FE9C899E98969
:104520008AB9ABA94458654806782768C018E108DD
:104530008238A3287DCB5CDB3FEB1EFBF98BD89B3D
:10454000BBAB9ABB754A545A376A167AF10AD01A2D
:10455000B32A923A2EFD0FED6CDD4DCDAABD8BAD89
:10456000E89DC98D267C076C645C454CA23C832C7D
:10457000E01CC10C1FEF3EFF5DCF7CDF9BAFBABFDD
:10458000D98FF89F176E367E554E745E932EB23ECD
:10459000D10EF01E0000000017B7D13852499D39E6
:1045A000FAED6B3A0AD7233BAC8BDB3BE2E9953C57
:1045B00016FB4B3D158C0A3E645DBC3E0000803FFF
:1045C000A1F82D408273EC401BAFA0418F645A428A
:1045D000C7691443E3B6C94343148944544F3A4569
:1045E000AC38FD45EE14AC460000A0C10000803F91
:1045F0000000803F0000803F0000803F0000803FBF
:104600000000803F0000803F0000803F0000803FAE
:104610000000803F0000803F0000803F0000803F9E
:104620000000803F0000803F0000803F000020C16C
:104630000000803F0000803F0000803F0000803F7E
:104640000000803F0000803F0000803F0000803F6E
:104650000000803F0000803F0000803F0000803F5E
:104660000000803F0000803F0000803F0000803F4E
:10467000000000000000803F0000803F0000803FFD
:104680000000803F0000803F0000803F0000803F2E
:104690000000803F0000803F0000803F0000803F1E
:1046A0000000803F0000803F0000803F0000803F0E
:1046B0000000803F000020410000803F0000803F5C
:1046C0000000803F0000803F0000803F0000803FEE
:1046D0000000803F0000803F0000803F0000803FDE
:1046E0000000803F0000803F0000803F0000803FCE
:1046F0000000803F0000803F0000A0410000803F9C
:104700000000803F0000803F0000803F0000803FAD
:104710000000803F0000803F0000803F0000803F9D
:104720000000803F0000803F0000803F0000803F8D
:104730000000803F0000803F0000803F0000F0410B
:104740000000803F0000803F0000803F0000803F6D
:104750000000803F0000803F0000803F0000803F5D
:104760000000803F0000803F0000803F0000803F4D
:104770000000803F0000803F0000803F0000803F3D
:10478000000020420000803F0000803F0000803F8A
:104790000000803F0000803F0000803F0000803F1D
:1047A0000000803F0000803F0000803F0000803F0D
:1047B0000000803F0000803F0000803F0000803FFD
:1047C0000000803F000048420000803F0000803F22
:1047D0000000803F0000803F0000803F0000803FDD
:1047E0000000803F0000803F0000803F0000803FCD
:1047F0000000803F0000803F0000803F0000803FBD
:104800000000803F0000803F000070420000803FB9
:104810000000803F0000803F0000803F0000803F9C
:104820000000803F0000803F0000803F0000803F8C
:104830000000803F0000803F0000803F0000803F7C
:104840000000803F0000803F0000803F00008C425D
:104850000000803F0000803F0000803F0000803F5C
:104860000000803F0000803F0000803F0000803F4C
:104870000000803F0000803F0000803F0000803F3C
:104880000000803F0000803F0000803F0000803F2C
:104890000000A0420000803F0000803F0000803FF9
:1048A0000000803F0000803F0000803F0000803F0C
:1048B0000000803F0000803F0000803F0000803FFC
:1048C0000000803F0000803F0000803F0000803FEC
:1048D0000000803F00000001000002010A03010205
:1048E000040102050102060000070000080000099B
:1048F00000000A11020B00000C00000D00000E0069
:10490000000F0000101101111105121105131105FE
:1049100014110515110516110517110518110519A2
:1049200011051A11051B00001C00001D00001E00CF
:10493000001F1101201101210102220102230102A5
:104940002401022501022601022701022801022971
:1049500001022A01022B01012C01052D00002E006D
:10496000002F000030000031000032000033000052
:1049700034000035000036000037000038000039F0
:1049800000003A00003B00003C00003D00003E00FB
:10499000003F0000400000410000420000430000D2
:1049A0004400004500004600004700004800004960
:1049B00000004A00004B00004C00004D00004E007B
:1049C000004F000050110151110252110453000018
:1049D00054000055000056000057000058000059D0
:1049E00000005A00005B00005C00005D00005E00FB
:1049F000005F00006011016111016211FF6311028B
:104A000064110265110266110267110268110269E0
:104A100011026A11026B11026C11026D11026E110A
:104A2000026F1102701102711102721102731102F0
:104A30007411027511027611027711027811027950
:104A400011027A11027B11027C11027D11027E118A
:104A5000027F11028011018111018211FF83110176
:104A60008411018511FF8611018711018811FF89C9
:104A700011018A11018B11FF8C00008D00008E0046
:104A8000008F000090000091000092000093000051
:104A9000940000950000960000970000980000998F
:104AA00000009A00009B00009C00009D00009E00FA
:104AB000009F0000A00000A10000A20000A30000D1
:104AC000A40000A50000A60000A70000A80000A9FF
:104AD0000000AA0000AB0000AC0000AD0000AE007A
:104AE00000AF0000B00000B10000B20000B3000051
:104AF000B40000B50000B60000B70000B80000B96F
:104B00000000BA0000BB0000BC0000BD0000BE00F9
:104B100000BF0000C00000C10000C20000C30000D0
:104B2000C40000C50000C60000C70000C80000C9DE
:104B30000000CA0000CB0000CC0000CD0000CE0079
:104B400000CF0000D01101D10000D21102D3110218
:104B5000D41102D50000D60000D70000D80000D93B
:104B60000000DA0000DB0000DC0000DD0000DE00F9
:104B700000DF0000E00000E10000E20000E30000D0
:104B8000E40000E50000E60000E70000E80000E9BE
:104B90000000EA0000EB0000EC0000ED0000EE0079
:104BA00000EF0000F00000F10000F20000F3000050
:104BB000F40000F50000F60000F70000F80000F92E
:104BC0000000FA0000FB0000FC0000FD0000FE00F9
:104BD00000FF0000000000000C0000000C000C00B2
:104BE0000102070000000800070008000800070095
:104BF0001000080007001800080007002000080047
:104C000007002800080007003000080007003800EF
:104C100008000700400008000700480008000700DF
:104C20005000080007005800080007006000080056
:104C300007006800080007007000080007007800FF
:104C40000800000102030405060708090A0B0C0D01
:104C50000E0F080000000800080008000800080007
:104C600010000800080018000800080020000800D4
:104C7000080028000800080030000800080038007C
:104C8000080008004000080008004800080008006C
:104C900050000800080058000800080060000800E4
:104CA000080068000800080070000800080078008C
:104CB0000800000102030405060708090A0B0C0D91
:104CC0000E0F8182838485868788898B8C8D8E8F59
:104CD000919293959697999A9C9D9FA0A2A3A5A720
:104CE000A8AAACAEB0B2B3B5B7B9BCBEC0C2C5C756
:104CF000C9CCCED1D4D7D9DCDFE2E6E9ECF0F3F7CA
:104D0000FAFE0000244C000000000020B402000065
:104D100056070000B04C0000B40200205410000000
:104D20000401000061130E401A4004120206160529
:104D3000030325013A080341D203A92F0B3A803F10
:104D400004124612460A1964020942646946A9BE61
:104D500016CDCC4C3D10921E140D1041122043FF75
:104D6000FF1B98080B718B24010C9A300C9A3C0C99
:104D70009A480C9A540C9A600C9A6C0C9A780C9A7B
:104D8000840C9A900C9A9C0C9AA80C9AB40C9AC019
:104D90000C9ACC0C01501A01021330022A2008C9C7
:104DA00002311AFF01490539064901491B014C002E
:104DB000FFFFFFFFFFFFFFFFFFFFFFFFFFFFFFFF03
:104DC000FFFFFFFFFFFFFFFFFFFFFFFFFFFFFFFFF3
:104DD000FFFFFFFFFFFFFFFFFFFFFFFFFFFFFFFFE3
:104DE000FFFFFFFFFFFFFFFFFFFFFFFFFFFFFFFFD3
:104DF000FFFFFFFFFFFFFFFFFFFFFFFFFFFFFFFFC3
:00000001FF
