:020000040800F2
:10000000E0FF0020714402080510020809100208F0
:1000100029100208491002086910020800000000B7
:10002000000000000000000000000000D9060108E8
:10003000891002080000000075070108392802082D
:10004000E9440208E9440208E944020825200208BC
:10005000E9440208E9440208812002086DA2000870
:10006000E9440208E9440208E9440208E9440208B4
:10007000E9440208E9440208E9440208E9440208A4
:10008000E9440208E9440208E944020800000000CB
:100090000000000000000000000000009925020898
:1000A000E9440208E9440208E9440208E944020874
:1000B000B5260208E9440208E944020819120208B8
:1000C00051130208E52F0208F12F0208E944020843
:1000D000E9440208E9440208B914020800000000DB
:1000E000E9440208E9440208E9440208000000006B
:1000F000000000000000000000000000E9440208C9
:1001000000000000E944020831250208E944020821
:1001100000000000000000000000000000000000DF
:10012000E9440208E9440208E9440208E9440208F3
:10013000E944020800000000000000000000000088
:10014000000000000000000000000000E944020878
:10015000E9440208E9440208E9440208E9440208C3
:10016000E9440208E9440208000000000000000021
:10017000000000000000000000000000000000007F
:1001800000000000E9440208000000000000000038
:10019000E944020832EEFFC000000120CD4402080D
:088000005C0A00000100000011
:1080080081F0004102E000BF83F0004330B54FEA41
:1080180041044FEA430594EA050F08BF90EA020FAE
:108028001FBF54EA000C55EA020C7FEA645C7FEA41
:10803800655C00F0E2804FEA5454D4EB5555B8BF64
:108048006D420CDD2C4480EA020281EA030382EAD5
:10805800000083EA010180EA020281EA0303362D67
:1080680088BF30BD11F0004F4FEA01314FF4801C3A
:108078004CEA113102D0404261EB410113F0004F4C
:108088004FEA03334CEA133302D0524263EB430303
:1080980094EA050F00F0A780A4F10104D5F1200EA1
:1080A8000DDB02FA0EFC22FA05F2801841F10001FC
:1080B80003FA0EF2801843FA05F359410EE0A5F1D0
:1080C80020050EF1200E012A03FA0EFC28BF4CF001
:1080D800020C43FA05F3C01851EBE37101F00045B7
:1080E80007D54FF0000EDCF1000C7EEB00006EEBC4
:1080F8000101B1F5801F1BD3B1F5001F0CD349084E
:108108005FEA30004FEA3C0C04F101044FEA4452A4
:1081180012F5800F80F09A80BCF1004F08BF5FEA2B
:10812800500C50F1000041EB045141EA050130BD0B
:108138005FEA4C0C404141EB010111F4801FA4F1AE
:108148000104E9D191F0000F04BF01460020B1FA03
:1081580081F308BF2033A3F10B03B3F120020CDA3B
:108168000C3208DD02F1140CC2F10C0201FA0CF019
:1081780021FA02F10CE002F11402D8BFC2F1200C7E
:1081880001FA02F120FA0CFCDCBF41EA0C01904034
:10819800E41AA2BF01EB0451294330BD6FEA04047D
:1081A8001F3C1CDA0C340EDC04F11404C4F1200268
:1081B80020FA04F001FA02F340EA030021FA04F37A
:1081C80045EA030130BDC4F10C04C4F1200220FAD1
:1081D80002F001FA04F340EA0300294630BD21FA0F
:1081E80004F0294630BD94F0000F83F4801306BFD5
:1081F80081F480110134013D4EE77FEA645C18BFC9
:108208007FEA655C29D094EA050F08BF90EA020F5F
:1082180005D054EA000C04BF1946104630BD91EA57
:10822800030F1EBF0021002030BD5FEA545C05D15A
:108238004000494128BF41F0004130BD14F5800499
:108248003CBF01F5801130BD01F0004545F0FE410D
:1082580041F470014FF0000030BD7FEA645C1ABF42
:10826800194610467FEA655C1CBF0B46024650EA79
:10827800013406BF52EA033591EA030F41F40021A5
:1082880030BD00BF90F0000F04BF0021704730B52B
:108298004FF4806404F132044FF000054FF0000100
:1082A80050E700BF90F0000F04BF0021704730B5C1
:1082B8004FF4806404F1320410F0004548BF404296
:1082C8004FF000013EE700BF42004FEAE2014FEAEB
:1082D80031014FEA02701FBF12F07F4393F07F4FC6
:1082E80081F06051704792F0000F14BF93F07F4FF8
:1082F800704730B54FF4607401F0004521F000413B
:1083080020E700BF50EA010208BF704730B54FF0C0
:1083180000050AE050EA010208BF704730B511F0C5
:10832800004502D5404261EB41014FF4806404F1FD
:1083380032045FEA915C3FF4DCAE4FF003025FEA7F
:10834800DC0C18BF03325FEADC0C18BF033202EB07
:10835800DC02C2F1200300FA03FC20FA02F001FA61
:1083680003FE40EA0E0021FA02F11444C1E600BF00
:1083780070B54FF0FF0C4CF4E06C1CEA11541DBFB3
:108388001CEA135594EA0C0F95EA0C0F00F0DEF87E
:108398002C4481EA030621EA4C5123EA4C5350EA63
:1083A800013518BF52EA033541F4801143F48013B4
:1083B80038D0A0FB02CE4FF00005E1FB02E506F045
:1083C8000042E0FB03E54FF00006E1FB03569CF09A
:1083D800000F18BF4EF0010EA4F1FF04B6F5007FA0
:1083E80064F5407404D25FEA4E0E6D4146EB060612
:1083F80042EAC62141EA55514FEAC52040EA5E509B
:108408004FEACE2EB4F1FD0C88BFBCF5E06F1ED844
:10841800BEF1004F08BF5FEA500E50F1000041EB7B
:10842800045170BD06F0004646EA010140EA020028
:1084380081EA0301B4EB5C04C2BFD4EB0C0541EA4A
:10844800045170BD41F480114FF0000E013C00F35F
:10845800AB8014F1360FDEBF002001F0004170BD83
:10846800C4F10004203C35DA0C341BDC04F114049C
:10847800C4F1200500FA05F320FA04F001FA05F228
:1084880040EA020001F0004221F0004110EBD370F5
:1084980021FA04F642EB06015EEA430E08BF20EA21
:1084A800D37070BDC4F10C04C4F1200500FA04F3C4
:1084B80020FA05F001FA04F240EA020001F0004156
:1084C80010EBD37041F100015EEA430E08BF20EAC9
:1084D800D37070BDC4F1200500FA05F24EEA020E11
:1084E80020FA04F301FA05F243EA020321FA04F040
:1084F80001F0004121FA04F220EA020000EBD370F7
:108508005EEA430E08BF20EAD37070BD94F0000FF6
:108518000FD101F00046400041EB010111F4801F2A
:1085280008BF013CF7D041EA060195F0000F18BFDB
:10853800704703F00046520043EB030313F4801F17
:1085480008BF013DF7D043EA0603704794EA0C0FD1
:108558000CEA135518BF95EA0C0F0CD050EA4106E7
:1085680018BF52EA4306D1D181EA030101F0004164
:108578004FF0000070BD50EA410606BF104619468C
:1085880052EA430619D094EA0C0F02D150EA013698
:1085980013D195EA0C0F05D152EA03361CBF1046D9
:1085A80019460AD181EA030101F0004141F0FE4178
:1085B80041F470014FF0000070BD41F0FE4141F4FC
:1085C800780170BD70B54FF0FF0C4CF4E06C1CEAFC
:1085D80011541DBF1CEA135594EA0C0F95EA0C0FB1
:1085E80000F0A7F8A4EB050481EA030E52EA03356C
:1085F8004FEA013100F088804FEA03334FF080558D
:1086080045EA131343EA12634FEA022245EA1115B9
:1086180045EA10654FEA00260EF000419D4208BF6A
:10862800964244F1FD0404F5407402D25B084FEA17
:108638003202B61A65EB03055B084FEA32024FF4C3
:1086480080104FF4002CB6EB020E75EB030E22BF20
:10865800B61A754640EA0C005B084FEA3202B6EBE0
:10866800020E75EB030E22BFB61A754640EA5C008F
:108678005B084FEA3202B6EB020E75EB030E22BF1F
:10868800B61A754640EA9C005B084FEA3202B6EB20
:10869800020E75EB030E22BFB61A754640EADC00DF
:1086A80055EA060E18D04FEA051545EA16754FEA41
:1086B80006164FEAC30343EA52734FEAC2025FEA5F
:1086C8001C1CC0D111F4801F0BD141EA00014FF0EE
:1086D80000004FF0004CB6E711F4801F04BF0143BF
:1086E8000020B4F1FD0C88BFBCF5E06F3FF6AFAEDB
:1086F800B5EB030C04BFB6EB020C5FEA500C50F16B
:10870800000041EB045170BD0EF0004E4EEA1131ED
:1087180014EB5C04C2BFD4EB0C0541EA045170BDF4
:1087280041F480114FF0000E013C90E645EA060E38
:108738008DE60CEA135594EA0C0F08BF95EA0C0F66
:108748003FF43BAF94EA0C0F0AD150EA01347FF4AE
:1087580034AF95EA0C0F7FF425AF104619462CE785
:1087680095EA0C0F06D152EA03353FF4FDAE1046E8
:10877800194622E750EA410618BF52EA43067FF439
:10878800C5AE50EA41047FF40DAF52EA43057FF4C9
:10879800EBAE12E74FF0FF3C06E000BF4FF0010CD4
:1087A80002E000BF4FF0010C4DF804CD4FEA410C38
:1087B8007FEA6C5C4FEA430C18BF7FEA6C5C1BD005
:1087C80001B050EA410C0CBF52EA430C91EA030F86
:1087D80002BF90EA020F0020704710F1000F91EAE3
:1087E800030F58BF994208BF90422CBFD8176FEAB1
:1087F800E37040F0010070474FEA410C7FEA6C5C7F
:1088080002D150EA013C07D14FEA430C7FEA6C5C85
:10881800D6D152EA033CD3D05DF8040B704700BFB1
:108828008446104662468C461946634600E000BFFF
:1088380001B5FFF7B7FF002848BF10F1000F01BDD1
:108848004DF808EDFFF7F4FF0CBF012000205DF89C
:1088580008FB00BF4DF808EDFFF7EAFF34BF012021
:1088680000205DF808FB00BF4DF808EDFFF7E0FFBA
:1088780094BF012000205DF808FB00BF4DF808ED0B
:10888800FFF7CEFF94BF012000205DF808FB00BF72
:108898004DF808EDFFF7C4FF34BF012000205DF854
:1088A80008FB00BF4FEA410212F5001215D211D59C
:1088B8006FF47873B3EB625212D94FEAC12343F0D5
:1088C800004343EA505311F0004F23FA02F018BF57
:1088D800404270474FF00000704750EA013005D120
:1088E80011F0004008BF6FF0004070474FF00000E3
:1088F800704700BF4FEA4102B2F1E04324BFB3F52D
:10890800001CDCF1FE5C0DD901F0004C4FEAC002FE
:108918004CEA5070B2F1004F40EB830008BF20F0E2
:108928000100704711F0804F21D113F13872BCBF9C
:1089380001F00040704741F480114FEA5252C2F1F1
:108948001802C2F1200C10FA0CF320FA02F018BF3A
:1089580040F001004FEAC1234FEAD32303FA0CFC8D
:1089680040EA0C0023FA02F34FEA4303CCE77FEA1C
:10897800625307D150EA01331EBF4FF0FE4040F466
:108988004000704701F0004040F0FE4040F4000015
:10899800704700BF73B96AB9002908BF0028BCBF77
:1089A80000204FF00041C4BF6FF000414FF0FF308E
:1089B80000F04EB882B0EC462DE9005000F01CF8EB
:1089C800DDF804E002B00CBC704700BF4BB942B9F7
:1089D800002908BF002802D04FF0FF31084600F0F8
:1089E80037B882B0EC462DE9005000F01BF8DDF8EE
:1089F80004E002B00CBC7047F8B5164604460D46B4
:108A08001F4600F027F806FB01F300FB0737A6FB1B
:108A18000023FB18A21A65EB0303069CC4E9002394
:108A2800F8BD00BFF8B5164604460D461F4600F0CF
:108A38006FF900FB07F7A0FB062306FB0177FB187D
:108A4800A21A65EB0303069CC4E90023F8BD00BF26
:108A5800704700BF00292DE9F00F1D46C0F29D8028
:108A68000024002DC0F2948080460F4694461E468E
:108A7800E3BB8A4255D9B2FA82F747B1C7F120055C
:108A880020FA05F601FA07F1BA403143B840170C4D
:108A9800B1FBF7F6030C1FFA82FC07FB16110CFB5F
:108AA80006F543EA01439D4208D9711E9B1880F0E0
:108AB80013819D4240F21081023E9B18591BB1FB65
:108AC800F7F507FB151380B20CFB05FC40EA0341E0
:108AD8008C4507D96B1E8A1880F00081944540F2B6
:108AE800FD80023D45EA0641002503E08B420CD992
:108AF800002529460A462B4614B1524263EB43032C
:108B080010461946BDE8F00F7047B3FA83F5002DFB
:108B180040F087808B4201D38242EAD800250121A8
:108B2800E8E712B90126B6FBF2F2B2FA82F6002E95
:108B380039D18E1A130C1FFA82FC0125B6FBF3F704
:108B480003FB17614FEA10490CFB07F849EA014695
:108B5800B04506D9791EB61802D2B04500F2D380C6
:108B68000F46C8EB0606B6FBF3F103FB116380B2B0
:108B78000CFB01FC40EA03439C4506D94E1E9A189B
:108B880002D2944500F2C280314641EA0741B1E77A
:108B9800E443524263EB430366E7404261EB410121
:108BA8004FF0FF345DE7B240C6F1200921FA09F71A
:108BB80020FA09F5130C01FA06F1B7FBF3F845EAB8
:108BC80001091FFA82FC03FB18774FEA19410CFBD5
:108BD80008F541EA0747B040BD420AD9BF1808F175
:108BE800FF3680F08E80BD4240F28B80A8F10208EB
:108BF800BF18791BB1FBF3F503FB15171FFA89F9A9
:108C08000CFB05F649EA07418E4206D96F1E891802
:108C180071D28E426FD9023D89188E1B45EA0845EC
:108C28008CE7C5F1200122FA01F306FA05F61E4386
:108C380027FA01F24FEA164907FA05F720FA01F177
:108C4800B2FBF9F80F433B0C1FFA86FA09FB18220E
:108C58000AFB08FB43EA024293450CFA05FC08D9D3
:108C6800921908F1FF314AD2934548D9A8F1020870
:108C78009219CBEB0203B3FBF9F109FB1132BFB236
:108C88000AFB01FA47EA02439A4506D94A1E9B198C
:108C980033D29A4531D902399B1941EA08410F0C60
:108CA8001FFA8CF808FB07F68AB24FEA1C4C08FB3F
:108CB80002F80CFB026202EB18420CFB07FC96421E
:108CC80088BF0CF5803CCAEB03030CEB124C6345E0
:108CD8000ED305D000250DE70E46EFE61D4601E749
:108CE8001FFA88F800FA05F008EB0245A842F1D20D
:108CF80001390025FEE63D468FE71146CDE7884657
:108D0800B7E7B04675E7023FB6182AE702393CE7ED
:108D18002DE9F007144605460E46002B3DD18A4240
:108D280049D9B2FA82F747B1C7F1200120FA01F216
:108D380006FA07F6BC401643BD40220CB6FBF2F01B
:108D48002F0CA1B202FB106601FB00F347EA0646AE
:108D5800B34208D9471E361980F0F880B34240F272
:108D6800F58002383619F61AB6FBF2F302FB1362E5
:108D7800ADB201FB03F145EA0242914207D95E1EFA
:108D8800121980F0E580914240F2E280023B43EA0A
:108D980000400021BDE8F00770478B4243D8B3FA82
:108DA80083F4002C42D18B4202D3824200F2DF804E
:108DB80000210120EEE712B90127B7FBF2F4B4FA5B
:108DC80084F2002A40F088800A1B230CA7B20121F4
:108DD800B2FBF3F603FB16224FEA154C07FB06F02D
:108DE8004CEA0242904207D9121906F1FF3C02D21E
:108DF800904200F2CE806646121AB2FBF3F003FBF3
:108E08001023ADB207FB00F745EA03439F4207D999
:108E1800421E1B1980F09E809F4240F29B800238C0
:108E280040EA0640B6E700210846B3E7C4F1200649
:108E380022FA06F503FA04F32B434FEA134C21FAFE
:108E480006F501FA04F120FA06F6B5FBFCF746EA46
:108E5800010A1FFA83F80CFB17554FEA1A4108FB61
:108E680007F941EA0545A94502FA04F203D97E1E2D
:108E7800ED187FD33746C9EB0501B1FBFCF60CFBB7
:108E880016151FFA8AFA08FB06F84AEA05418845CA
:108E980003D9751EC91873D32E4646EA0746370C00
:108EA8001FFA82FC0CFB07F5120CB3B20CFB03FC97
:108EB80002FB035303EB1C4302FB07F29D4288BFEE
:108EC80002F58032C8EB010102EB134291424BD309
:108ED80042D0304600215DE79440C2F1200521FAD6
:108EE80005F6230C20FA05F701FA02F1B6FBF3FCAC
:108EF80039430D0CA7B203FB1C6645EA064607FB7F
:108F08000CF8B04500FA02F508D936190CF1FF3013
:108F18003DD2B0453BD9ACF1020C3619C8EB06027C
:108F2800B2FBF3F003FB10268AB242EA064207FBC3
:108F380000F1914206D9461E121926D2914224D92F
:108F480002381219521A40EA0C4141E738460AE73A
:108F580033461CE7104663E71FFA8CFC00FA04F05E
:108F68000CEB03439842B4D2701E002112E721464D
:108F780020460FE7A9457FF67DAF023FED187AE757
:108F8800884589D9023EC91887E73046DAE784461A
:108F9800C4E7023E12192FE708B54FF48060C4F207
:108FA800020020211BF046FABDE8084018F0B0BFC7
:108FB80008B54FF48060C4F2020020211BF038FA93
:108FC800BDE8084018F0ACBF00B5022083B001210D
:108FD8001AF020FA02224FF480600123C4F2020042
:108FE80069468DF80520202200928DF804308DF80E
:108FF80006308DF807301BF067F9FFF7D9FF03B08B
:1090080000BD00BF08B5F3201AF06EFE082000214D
:109018001AF0C0FE092814BF0320002008BD00BFB5
:1090280030B44FF4004240F60A334FF48044C0F69F
:109038000002C0F60B23C0F6000406E052F8041D37
:10904800994205D0043AA24226D011689942F5D136
:10905800A2F14005EC43801A4319A11812F8404CBC
:1090680001F0010583F84040A2F13F032DB11C78BF
:10907800C118A2F13E0381F840401D78C418591C5C
:1090880084F840505D7844180233934284F8405085
:10909800F3D1002030BC70470120FBE72DE9F041F7
:1090A80007461AF005FE4FF4804047F6C072C0F636
:1090B8000000C0F6000206E050F8441F4B1C05D023
:1090C8004430904258D003680133F5D12F4D2860C1
:1090D800002410E02B68B95D5A1C10462A601AF06B
:1090E8003BFE40F00901C8B2092810D12B68581C72
:1090F800402C286010D0395DDFF890801AF02CFEE3
:1091080040F00900661CC2B2741C092AE2D01AF0A9
:10911800E1FD0420BDE8F0810A211AF01DFE0928AE
:10912800F5D1D8F80020531C0B211846C8F8003098
:109138001AF012FE0928EAD1D8F800104A1C104685
:109148000B21C8F800201AF007FE0928DFD1D8F84B
:109158000000431C0A211846C8F800301AF0FCFD2C
:109168000928D4D1D8F800104A1CC8F800201AF0F1
:10917800B1FD0020BDE8F081FFF744FF034D4FF437
:109188008040C0F600002860A2E700BF0840002029
:10919800F8B5164C65882388E81A85B2BDB103F086
:1091A8000F0101EB8102D6000836A719A05904283F
:1091B80018D007F108010BF0C5FA3B68042B0646E6
:1091C80006D026B92088411C012D218005D0F8BD84
:1091D80018F074FE002EF5D0F9E70548BDE8F84010
:1091E80009F0E8B818F068FEA059E2E7984C0020AA
:1091F800784C0020F0B4104E37887388DA1B97B289
:109208000F2F12D803F00F0404EB8405EC00083488
:109218000133738030510D460FCD341908340FC413
:1092280095E80F0084E80F000FB1F0BC70470348C1
:109238003946F0BC09F0ACB8984C0020784C0020B6
:1092480010B584B00123002401934DF6241044F690
:10925800784147F6EC7249F2991300940294C2F2ED
:109268000000C2F20001C0F60302C0F6000309F0D4
:1092780055F844F69840C2F200000480448004B0D7
:1092880010BD00BF47F6FC70C0F60300704700BF72
:109298000820704710B5074C2378012B06D104F13C
:1092A800680009F08BF80020207010BD6FF00300F3
:1092B80010BD00BF204F002010B50B4C2378022BA7
:1092C8000BD104F1680009F075F8002808DB01F0FB
:1092D800D7F828B90121217010BD6FF0030010BD27
:1092E8004FF0FF3010BD00BF204F002010B50C4CD0
:1092F800207801280ED1002384F8883001F0B2F8D4
:10930800014650B904F1680009F042F828B9022171
:10931800217010BD6FF0030010BD4FF0FF3010BD7D
:10932800204F0020F0B5254E377887B0002F42D166
:10933800234D70600FCD06F128040FC40FCD0FC464
:109348000FCD0FC495E80F0084E80F0001200146F7
:109358001AF060F800204FF40064C4F2020004A977
:10936800012504948DF814508DF815708DF8167039
:109378008DF817701AF0A8FF00202146C4F20200E9
:109388001BF056F801F04AF8044688B98223009089
:109398000220019302900B4A0B480C4B06F168011E
:1093A80008F0BCFF002803DB3570204607B0F0BD8D
:1093B8004FF0FF30FAE76FF00300F7E7204F002087
:1093C8001C800308DC80030824D900207594000859
:1093D80030B4052816D8DFE800F01313131303136D
:1093E8000D460FCD094C0FC40FCD0FC40FCD0FC4C0
:1093F80095E80F0084E80F000025284630BC704728
:109408000025FAE76FF00505F7E700BF484F002091
:1094180030B40C4605281CD8DFE800F01E030313FF
:10942800170800250D70284630BC70470D4D0FCD2C
:109438000FC40FCD0FC495E80F00002584E80F0076
:10944800F1E707230B800025EDE7074D0FCD0FC48B
:10945800EDE76FF00505E6E744F6206008600025B3
:10946800E1E700BF5C800308484F002030B5154C89
:1094780094F88830092B83B004D8581C84F88800E5
:1094880003B030BD72B608F07DFDC4E9020162B6D2
:1094980018F00EFD684601F00FF8054601F000F8D7
:1094A800291808D0481D06D06268002AE8D0064866
:1094B80006499047E4E768460549064A08F082FDF0
:1094C800F2E700BF204F00208C800308284F0020BF
:1094D800304F0020D08003080020704700207047DC
:1094E800002070470020704705288CBF6FF00500EA
:1094F8000020704730B40C4605281CD8DFE800F07F
:109508001E030313170800250D70284630BC70474A
:109518000E4D0FCD0FC40FCD0FC495E80F000025D9
:1095280084E80F00F1E708230B800025EDE7084DDC
:109538000FCD0FC4EDE76FF00505E6E748F2A06030
:10954800C0F2010008600025DFE700BF4081030882
:109558000081030810B5194C194A86B0694604F110
:109568004C0008F0D7FDDFED177ADDED006A9DEDC0
:10957800017A9DED026A26EEA70A67EE270A26EE13
:10958800271AFDEEC01ABDEEE02AFDEEC12ACDED88
:10959800031A8DED042ACDED052A01F0E9F903A897
:1095A80005F0BCFA01F0EAF92378022B03D000F0A9
:1095B800E7FF01F021F806B010BD00BFB04F002052
:1095C8003C8203080000004510B5084C2378012BA5
:1095D80008D104F1680008F0F1FE00F0B7FE0020A1
:1095E800207010BD6FF0030010BD00BFB04F002009
:1095F80038B50D4C2378022B0FD104F1680008F020
:10960800D9FE00280CDB00F0F7FF054600F0D0FE7D
:10961800284305D10121217038BD6FF0030038BD02
:109628004FF0FF3038BD00BFB04F002010B5114CCF
:109638002378012B11D102200021207084F8881092
:1096480000F09AFE60B900F09BFF014668B904F18A
:10965800680008F09DFE30B910BD6FF0030010BD22
:109668004FF0FF30F8E700F0C7FF00F0A1FE4FF021
:10967800FF3010BDB04F0020F0B5164E377885B0DA
:10968800002F21D1144D70600FCD06F128040FC4AE
:109698000FCD0FC40FCD0FC495E80F00012584E846
:1096A8000F00802300970D480193029504F11001E3
:1096B8000B4A0C4B08F032FE002808DB00F0EEFDE8
:1096C80028B9357005B0F0BD6FF00300FAE74FF028
:1096D800FF30F7E7B04F0020C881030824D90020E5
:1096E800488203083198000830B50C4687B007282F
:1096F80045D8DFE800F047040444374C4409002506
:109708000D70284607B030BD01F032F9684605F003
:10971800F5F901F033F91F4B1878022803D000F04F
:109728002FFF00F069FFDDED005A9DED016A9DED08
:10973800020ADFED197AF8EEE56AB8EEC67AF8EEB5
:10974800C00A26EEA71A67EE271A20EEA72A1349A1
:10975800134A03A88DED031ACDED041A8DED052AE1
:1097680008F076FC0F4D0FCD0FC40FCD0FC40FCDF1
:109778000FC495E80F00002584E80F00C1E76FF0DB
:109788000505BEE742F2107121600025B9E7064DD4
:10979800EBE700BFB04F00200000003AFC4F00206C
:1097A8003C820308D84F00200882030838B50728F0
:1097B80032D8DFE800F02E2E2E311F3115040D4669
:1097C8000FCD174C0FC40FCD0FC40FCD0FC495E8A4
:1097D8000F00002584E80F00FFF7BCFE284638BDBF
:1097E800104B00220025DA641A655A65FFF7B2FEAD
:1097F800284638BD0D460FCD094C0FC40FCD0FC4F8
:109808000FCD0FC495E80F00002584E80F00284607
:1098180038BD0025284638BD6FF00505284638BDF7
:10982800D84F0020B04F002010B5104C94F8883065
:10983800092B82B004D8581C84F8880002B010BDE7
:1098480000F07CFFC4E90201684600F011FF084AF5
:10985800684604F1100108F0B5FB6268002AEDD0F3
:10986800044804F108019047E8E700BFB04F002022
:109878003C8203087C82030830B50C4687B0072871
:109888004FD8DFE800F0510404483B4C4E0900254E
:109898000D70284607B030BD00200090019002905E
:1098A80001F066F8684605F031F901F067F82149DA
:1098B8000A78022A03D000F06DFE00F0A7FEDDED65
:1098C800005A9DED016A9DED020ADFED1B7AF8EE64
:1098D800E56AB8EEC67AF8EEC00A26EEA71A67EE71
:1098E800271A20EEA72A1549154A03A88DED031A51
:1098F800CDED041A8DED052A08F0AAFB114D0FCD08
:109908000FC40FCD0FC40FCD0FC495E80F0000256D
:1099180084E80F00BDE71E230B800025B9E70A4D38
:10992800EFE76FF00505B4E742F210750D6000250A
:10993800AFE700BF40500020000000388C500020E6
:109948003083030868500020BC82030810B5194C06
:10995800194A86B0694604F14C0008F0DBFBDFEDDC
:10996800177ADDED006A9DED017A9DED026A26EE1B
:10997800A70A67EE270A26EE271AFDEEC01ABDEEE3
:10998800E02AFDEEC12ACDED031A8DED042ACDEDB6
:10999800052A00F0EDFF03A805F0C8F800F0EEFF77
:1099A8002378022B03D000F0F5FD00F02FFE06B05F
:1099B80010BD00BF4050002030830308000000475E
:1099C80010B5084C2378012B08D104F1680008F081
:1099D800F5FC00F0BBFC0020207010BD6FF0030008
:1099E80010BD00BF4050002038B50D4C2378022B25
:1099F8000FD104F1680008F0DDFC00280CDB00F052
:109A080005FE054600F0D4FC284305D1012121704C
:109A180038BD6FF0030038BD4FF0FF3038BD00BFD0
:109A28004050002010B5114C2378012B11D1022091
:109A38000021207084F8881000F09EFC60B900F0C6
:109A4800A9FD014668B904F1680008F0A1FC30B925
:109A580010BD6FF0030010BD4FF0FF30F8E700F0C5
:109A6800D5FD00F0A5FC4FF0FF3010BD40500020A0
:109A7800F0B5164E377885B0002F21D1144D70609F
:109A88000FCD06F128040FC40FCD0FC40FCD0FC49E
:109A980095E80F00012584E80F00812300970D4801
:109AA8000193029504F110010B4A0C4B08F036FCA7
:109AB800002808DB00F0F2FB28B9357005B0F0BDCE
:109AC8006FF00300FAE74FF0FF30F7E7405000204F
:109AD8005083030824D900203C830308659B0008B1
:109AE80038B5072832D8DFE800F02E2E2E2E1F2E8C
:109AF80015040D460FCD174C0FC40FCD0FC40FCD55
:109B08000FC495E80F00002584E80F00FFF71EFF3B
:109B1800284638BD104B00220025DA641A655A65BC
:109B2800FFF714FF284638BD0D460FCD094C0FC46A
:109B38000FCD0FC40FCD0FC495E80F00002584E8A2
:109B48000F00284638BD0025284638BD6FF00505AA
:109B5800284638BD685000204050002010B5104CF1
:109B680094F88830092B82B004D8581C84F88800EF
:109B780002B010BD00F0E2FDC4E90201684600F041
:109B880079FD084A684604F1100108F01BFA62687A
:109B9800002AEDD0044804F108019047E8E700BF27
:109BA8004050002030830308EC82030805288CBF4E
:109BB8006FF005000020704705280DD8DFE800F099
:109BC8000F0303080606002008707047002070473E
:109BD80012230B80002070476FF00500704742F297
:109BE800107008600020704710B5084C2378012BCE
:109BF80008D104F1280008F0E1FB00F0A7FB0020E1
:109C0800207010BD6FF0030010BD00BFD0500020C1
:109C180038B50D4C2378022B0FD104F1280008F039
:109C2800C9FB00280CDB00F0FBFC054600F0C0FB7C
:109C3800284305D10121217038BD6FF0030038BDDC
:109C48004FF0FF3038BD00BFD050002010B5104C89
:109C58002378012B0ED10220207000F08DFB60B913
:109C680000F0A2FC014668B904F1280008F090FB56
:109C780030B910BD6FF0030010BD4FF0FF30F8E7AA
:109C880000F0CEFC00F094FB4FF0FF3010BD00BF99
:109C9800D050002030B5104C237885B00146A3B9C8
:109CA8007E20012500930190616002950B480C4AC3
:109CB8000C4B04F1280108F031FB002808DB00F008
:109CC800EDFA28B9257005B030BD6FF00300FAE74A
:109CD8004FF0FF30F7E700BFD050002024D9002014
:109CE800D8830308F19C000810B584B000F026FD65
:109CF800124CC4E9020101A80DF1030100F0BCFCFB
:109D0800DDED016A9DED027ADDED037A9DF8032011
:109D180063682277B1EE660AF1EE470AB1EE671A78
:109D280084ED040AC4ED050A84ED061A1BB1044843
:109D380004F10801984704B010BD00BFD0500020BE
:109D48009083030805288CBF6FF00500002070473A
:109D580005280DD8DFE800F00F03030806060020E9
:109D6800087070470020704708230B800020704758
:109D78006FF00500704742F21070086000207047CD
:109D880010B5084C2378012B08D104F1280008F0FD
:109D980015FB00F0DBFA0020207010BD6FF0030007
:109DA80010BD00BF1851002038B50D4C2378022B88
:109DB8000FD104F1280008F0FDFA00280CDB00F0B0
:109DC80039FC054600F0F4FA284305D10121217039
:109DD80038BD6FF0030038BD4FF0FF3038BD00BF0D
:109DE8001851002010B5104C2378012B0ED10220F9
:109DF800207000F0C1FA60B900F0E0FB014668B9D4
:109E080004F1280008F0C4FA30B910BD6FF003005F
:109E180010BD4FF0FF30F8E700F00CFC00F0C8FA76
:109E28004FF0FF3010BD00BF1851002030B5104C66
:109E3800237885B00146A3B97E20012500930190BF
:109E4800616002950B480C4A0C4B04F1280108F09C
:109E580065FA002808DB00F021FA28B9257005B05A
:109E680030BD6FF00300FAE74FF0FF30F7E700BFAF
:109E78001851002024D90020EC830308899E00088B
:109E880010B584B000F05AFC0C4CC4E9020101A8DA
:109E98000DF1030100F016FC9DF8032001982277CC
:109EA8000299039A636820616161A2611BB1044849
:109EB80004F10801984704B010BD00BF18510020F4
:109EC800F883030805288CBF6FF005000020704751
:109ED80005280DD8DFE800F00F0303080606002068
:109EE800087070470020704708230B8000207047D7
:109EF8006FF00500704742F210700860002070474C
:109F080010B5084C2378012B08D104F1280008F07B
:109F180055FA00F01BFA0020207010BD6FF0030006
:109F280010BD00BF6051002038B50D4C2378022BBE
:109F38000FD104F1280008F03DFA00280CDB00F0EE
:109F480083FB054600F034FA284305D1012121702E
:109F580038BD6FF0030038BD4FF0FF3038BD00BF8B
:109F68006051002010B5104C2378012B0ED102202F
:109F7800207000F001FA60B900F02AFB014668B9C8
:109F880004F1280008F004FA30B910BD6FF003009E
:109F980010BD4FF0FF30F8E700F056FB00F008FA6C
:109FA8004FF0FF3010BD00BF6051002030B5104C9D
:109FB800237885B00146A3B97E200125009301903E
:109FC800616002950B480C4A0C4B04F1280108F01B
:109FD800A5F9002808DB00F061F928B9257005B05B
:109FE80030BD6FF00300FAE74FF0FF30F7E700BF2E
:109FF8006051002024D900208084030809A00008AB
:10A0080010B586B000F09AFB0D4CC4E90201684611
:10A0180003A900F05BFB009A019802992261606134
:10A02800A161039A049805996368E26120626162FC
:10A038001BB1044804F10801984706B010BD00BFE1
:10A04800605100203C84030805288CBF6FF0050090
:10A058000020704705280CD8DFE800F00E0303083D
:10A06800060600200870704700207047002008800E
:10A0780070476FF00500704742F210730B600020C4
:10A08800704700BF10B5084C2378012B08D104F1A4
:10A09800280008F093F900F059F90020207010BD4D
:10A0A8006FF0030010BD00BFA851002038B50D4C5B
:10A0B8002378022B0FD104F1280008F07BF900283F
:10A0C8000CDB00F0CBFA054600F072F9284305D105
:10A0D8000121217038BD6FF0030038BD4FF0FF300B
:10A0E80038BD00BFA851002010B5104C2378012BB3
:10A0F8000ED100F041F970B900F074FA014678B950
:10A1080004F1280008F044F940B90221217010BD7B
:10A118006FF0030010BD4FF0FF3010BD00F09EFA45
:10A1280000F046F94FF0FF3010BD00BFA8510020E5
:10A1380030B5104C237885B00146A3B97E2001259F
:10A1480000930190616002950B480C4A0C4B04F196
:10A15800280108F0E3F8002808DB00F09FF828B988
:10A16800257005B030BD6FF00300FAE74FF0FF30FF
:10A17800F7E700BFA851002024D90020D4840308A1
:10A188008DA1000810B584B000F0D8FA0C4CC4E9D1
:10A198000201684600F0C0FA009A019822616061E5
:10A1A8000299039A6368A1610020CBF68070E2618E
:10A1B80020621BB1034804F10801984704B010BDA0
:10A1C800A85100208C84030830B4094C94F84850F6
:10A1D80002460B460DB130BC7047C4E9142304F1A4
:10A1E80028000123294684F8483030BC08F0D0B84C
:10A1F800F051002030B4094C94F8485002460B4600
:10A208000DB130BC7047C4E9142304F128000123C0
:10A21800294684F8483030BC08F0BAB848520020C3
:10A2280070B582B072B607F0ADFE0D4E0B46717870
:10A238000246D1F1010038BF002062B6D6E90245D6
:10A2480000902946204600F081FA72B673781BB94F
:10A2580006F1100008F0AEF862B602B070BD00BF9B
:10A26800A052002008B502201AF01EF800B908BD57
:10A2780002201AF023F807F085FE074B9A78C3E905
:10A288000201002AF3D059780029F0D103F1100017
:10A29800BDE8084008F07CB8A0520020F0B5254D74
:10A2A8002C78230687B041D424B101342C700020C7
:10A2B80007B0F0BDFF2301260193009402961E48C3
:10A2C8001E4A1F4B05F1100108F028F8002828DB6A
:10A2D8001C481D4900F02CF918BB304631466C70FB
:10A2E800AC7019F097F84FF48040314619F0AEF889
:10A2F800002004A90227C4F202008DF814408DF84A
:10A30800154004978DF816608DF8176019F0DCFF7A
:10A31800384619F0D3FF2046314618F06FFE2C78E6
:10A32800C3E7FF2028704FF0FF30C1E74FF0FF3040
:10A33800BEE700BFA052002024D90020F084030803
:10A3480029A20008E4840308F484030810B5094826
:10A35800047862B2002A0ADD013CE4B204700CB150
:10A36800002010BD103008F029F8204610BD6FF00D
:10A37800030010BDA052002010B50C4C94F9003019
:10A38800002B0CDD617819B101316170002010BD1E
:10A3980004F1100007F0FCFF20B96178F4E76FF0D2
:10A3A800030010BD4FF0FF3010BD00BFA0520020C9
:10A3B80008B50C4890F90030002B10DD417871B1D8
:10A3C8004A1ED3B243700BB1002008BD103007F00D
:10A3D800F1FF0028B4BF4FF0FF30002008BD6FF038
:10A3E800030008BDA052002000B585B004AA0346AA
:10A3F80002F8011D012100910220182117F0C8FB65
:10A4080005B000BD10B582B00C460346009202208C
:10A418001821224617F0B4FB02B010BD00B583B076
:10A4280000200DF107010122FFF7ECFFA8B99DF804
:10A438000730482B11D10A201F21FFF7D5FF60B93B
:10A44800074910200322FFF7DDFF014628B90A203B
:10A45800FFF7CAFF08B903B000BD4FF0FF30FAE7B5
:10A46800D052002000F00F0108B541F010010A2079
:10A47800FFF7BAFF002814BF4FF0FF30002008BDD7
:10A48800012108B50B20FFF7AFFF014620B90A20CC
:10A49800FFF7AAFF00B908BD4FF0FF3008BD00BFA5
:10A4A80008B50A201121FFF79FFF002814BF4FF0BD
:10A4B800FF30002008BD00BFF0B583B004466946F0
:10A4C80002200822FFF79EFF002828D19DF80720C8
:10A4D8009DF802C09DF801509DF804709DF8030096
:10A4E8009DF806609DF805109DF8003002F00802FE
:10A4F80005EB0C2500EB072001EB0621D2B22580E5
:10A508006080A18072B9DA070FD503F00203D8B2D0
:10A5180000280CBF00206FF0040003B0F0BD4FF01E
:10A52800FF30FAE76FF00300F7E76FF00100F4E798
:10A5380070B50D46064617F021FB022004F07EFA9E
:10A548004FF4FA6004F0ACFA41F2630004F0D2FA76
:10A5580004F0C8F8044678B9642004F057FA204695
:10A5680004F04CFA3046294604F0E8FA002814BFF3
:10A578004FF0FF30002070BD4FF0FF3070BD00BFBE
:10A5880008B5012004F0C0F8002814BF4FF0FF30D0
:10A59800002008BD08B5012004F008F9002814BF00
:10A5A8004FF0FF30002008BD08B5012004F0ACF8DA
:10A5B800002814BF4FF0FF30002008BD08B5012067
:10A5C80004F0CCF8002814BF4FF0FF30002008BD7D
:10A5D80008B5012004F0EAF8002814BF4FF0FF3056
:10A5E800002008BD08B5012004F018F9002814BFA0
:10A5F8004FF0FF30002008BD08B5002004F084F8B3
:10A60800002814BF4FF0FF30002008BD08B5002017
:10A6180004F0CCF8002814BF4FF0FF30002008BD2C
:10A6280008B5002004F070F8002814BF4FF0FF3080
:10A63800002008BD08B5002004F090F8002814BFD9
:10A648004FF0FF30002008BD08B5002004F0AEF838
:10A65800002814BF4FF0FF30002008BD08B50020C7
:10A6680004F0DCF8002814BF4FF0FF30002008BDCC
:10A6780000F05ABB00F062BB10B584B0044600225B
:10A6880001A800F065FBDDED015A9DED026A9DED24
:10A69800030ADFED0B7AF8EEE56AB8EEC67AF8EE53
:10A6A800C00A26EEA71A67EE271A20EEA72A84ED1D
:10A6B800001AC4ED011A84ED022A04B010BD00BFCF
:10A6C80000008037002200F0BBBB00BF30B5054654
:10A6D80085B008460C4600F04DFC002101A80A464A
:10A6E80000F0AEFBD4ED007A9DED017A37EE270A33
:10A6F8009DED021A85ED000AD4ED010A71EE201ACB
:10A70800DDED032AC5ED011A94ED022A32EE823AF4
:10A7180085ED023A05B030BD10B5002186B004467B
:10A728000A4601A800F0D8FB049B01980299039AF5
:10A7380023606060A160E26006B010BD45F2D823D6
:10A74800C2F2000393E80300704700BF2DE9704F81
:10A7580090B000268246002402A80025904699461B
:10A768008B46ADF80860CDE90645ADF80A60ADF84E
:10A778000C6009960A960B960C960D960E960F96F7
:10A7880004960596ADF80E6001F0D8F8BDF80830CB
:10A7980003F4806210B2002840F0C58003F4006121
:10A7A8000AB2002A40F0CB809DF8600048B9BDF895
:10A7B80008306D4A03F4807108B2C2E900890028A4
:10A7C8003BD110B0BDE8708F09A801F003FCDDE9AA
:10A7D8000623002109A800F087F9BDF80A3003F420
:10A7E800005291B2002940D103F0400082B2002A01
:10A7F8004CD103F0200188B200285AD103F400623A
:10A8080091B2002968D103F4806082B2002A74D121
:10A8180003F0100188B2002840F081800DF10E018C
:10A8280005A800F081FCDDE906230598BDF90E10A6
:10A8380000F00EFA049A002AC3D004F0D9F803AA4B
:10A84800009006AB0DF10A0104A801F09DF8BDF8CF
:10A858000A301A0478D403F4804188B20028B3D1AE
:10A8680003F4005291B20029BED009A801F0FAFB06
:10A87800DDE9062309A84FF4803100F08BF9BDF813
:10A888000A3003F0400082B2002AB2D009A801F0D1
:10A89800B3FB00F0BFFADDE9062340F0200109A868
:10A8A80000F022F9BDF80A3003F0200188B2002830
:10A8B800A4D009A801F0E8FB00F0B2FADDE906230C
:10A8C80040F0200109A800F065F9BDF80A3003F44A
:10A8D800006291B2002996D00CA801F09FFBDDE937
:10A8E80006230CA84FF4806100F0CEF9BDF80A30B9
:10A8F80003F4806082B2002A8AD00CA801F0A0FB81
:10A908004FF40061DDE906230CA800F0BDF9BDF89D
:10A918000A3003F0100188B200283FF47FAF1348D3
:10A9280001F028FB7AE759465046FFF763FCBDF86B
:10A93800083003F400610AB2002A3FF435AF5046EC
:10A948005946FFF741FC2FE709A801F031FB00F059
:10A958006FFADDE9062340F0200109A800F086F827
:10A96800BDF80A3077E700BFD8520020D452002043
:10A9780008B504F029F94FF0FF3008BD08B504F018
:10A9880029F94FF0FF3008BD00F01803182B0BD041
:10A9980000F0C002C02A00F0030105D0032908BF57
:10A9A8008820024B186070478820FAE7E0520020A0
:10A9B800034B002808BF4FF480305862704700BF2F
:10A9C800E052002000F01803182B0BD000F0C00252
:10A9D800C02A00F0030105D0032908BF8820024BD4
:10A9E800186570478820FAE7E0520020034B0028DA
:10A9F80008BF4FF480305867704700BFE05200200E
:10AA080000F01803182B0CD000F0C002C02A00F088
:10AA1800030106D0032908BF8820034BC3F8A00010
:10AA280070478820F9E700BFE0520020034B002858
:10AA380008BF4FF48030C3F8C4007047E0520020CC
:10AA480045F2E023C2F20003C3F88400704700BF58
:10AA580045F2E023C2F200035863704745F2E02351
:10AA6800C2F20003C3F8D400704700BF2DE9F04FCD
:10AA780045F2E02AC2F2000A85B00768DAF8746085
:10AA880045688468019783469046BAF85000029555
:10AA9800994601AA0AF168030F467100039405F06C
:10AAA800BFFBDBF80050DBF80440DBF80800DAF8FD
:10AAB8008010DAE92223C013ED13E41341F4B071D6
:10AAC80007F00307AAF85800AAF85450AAF8564005
:10AAD800CAF88010CAF88470CAE92423CAE922890E
:10AAE800002005B0BDE8F08F2DE9F04311F0200FEC
:10AAF8001D4685B089461446DFF89480036824D043
:10AB0800D8F82410476886680193B8F800000297BF
:10AB180001AA08F118034900039605F081FBD8F84B
:10AB2800300009F0030240F02003C8F83420D8E9C7
:10AB38000E0143F4A072C8E91001C8F83020C8E932
:10AB48000E45002005B0BDE8F08347688668D8F850
:10AB58002410B8F80000A8F804304FEAC3394FEAC7
:10AB6800C73C4FEAC63E08F10C03490001AAA8F801
:10AB78000670A8F80860CDF80490CDF808C0CDF8A4
:10AB88000CE005F04DFBD8F8300040F08003CEE72C
:10AB9800E0520020F0B41446CA031D4606462B4B6B
:10ABA80041D41A6802F0030712F0040F50F8270086
:10ABB8000CBF4FF0010C4FF0FF3C0CFB00F0C2F350
:10ABC800C107C3F8B80056F8270012F0200F0CBFD1
:10ABD8004FF0010C4FF0FF3C0CFB00F0C2F3811763
:10ABE800C3F8BC0056F8276012F4807F0CBF01221E
:10ABF8004FF0FF3202FB06F0D3F8D020C3F8C000B4
:10AC080001F0030142F02002C3F8D410D3E9360161
:10AC180042F4A072C3E93801C3F8D020C3E936452D
:10AC28000020F0BC704707C8A3F8A400A3F8A6103A
:10AC3800A3F8A820B26830687168D3F8D07003F11F
:10AC4800AC0607C647F08002E0E700BFE0520020EC
:10AC5800F0B445F2E026C2F20006B446D6F82071F8
:10AC6800C6F80801FCE94A4506F5987047F4E0770C
:10AC7800C0E90045A6F8F410C6F82071CCE9002315
:10AC88000020F0BC704700BF2DE9F04393B001AE3F
:10AC98008946314614461D4605F098FC96E80F0093
:10ACA8001F4F0DF1140888E80F00388809A905F02E
:10ACB80083FA09A84146324605F0F2FA19F4806F82
:10ACC80014D096E80F0007F5B87C8CE80F003B46D7
:10ACD800F3E96201D7F8802107F5C87EC3E900458A
:10ACE800CEE9000142F4B861C7F8801119F4006F89
:10ACF80012D096E80F00DFF82CC08CE80F006646EB
:10AD0800F6E90601D7F85031CCE90801C6E9004553
:10AD180043F41C66C7F85061002013B0BDE8F08307
:10AD2800E052002020540020034620B1024A106857
:10AD3800186091889980704734530020034620B1E9
:10AD4800024A10681860918899807047E452002080
:10AD580070B404460D46164620B1094B07CB206057
:10AD68006160A26026B10748D0E92223C6E9002322
:10AD78001DB10449D1F884302B7070BC704700BFF6
:10AD880048530020E0520020F0B40A4D05F11803A2
:10AD980004460E46174607CB20606160A2601FB1CB
:10ADA800D5E90E01C7E900010EB1696B3170F0BC3D
:10ADB800704700BFE0520020F0B40A4F07F10C03BF
:10ADC80004460D46164607CB20606160A2601EB19E
:10ADD800D7E90E01C6E900010DB100212970F0BCC8
:10ADE800704700BFE0520020F0B445F2E026C2F2FE
:10ADF800000606F5B87405460F460FCC06F5C4766E
:10AE080028606960AA60EB60D6E90023C7E90023DF
:10AE1800F0BC704745F2E023C2F20003586B70475C
:10AE280045F2E023C2F20003D3F8D400704700BF14
:10AE380045F2E023C2F20003D3F88400704700BF54
:10AE480010B584B0044601A8FFF79EFFDDED015A56
:10AE58009DED026A9DED030ADFED0B7AF8EEE56AD7
:10AE6800B8EEC67AF8EEC00A26EEA71A67EE271AD9
:10AE780020EEA72A84ED001AC4ED011A84ED022AF7
:10AE8800002004B010BD00BF35FA8E3410B584B070
:10AE9800044601A8FFF790FFDDED015A9DED026A17
:10AEA8009DED030ADFED0B7AF8EEE56AB8EEC67A97
:10AEB800F8EEC00A26EEA71A67EE271A20EEA72A90
:10AEC80084ED001AC4ED011A84ED022A002004B0B2
:10AED80010BD00BF35FA8E3430B585B004460D4636
:10AEE80068461146FFF780FF009B002B29DB9DED8C
:10AEF800015ADDED025ADDED031ADFED1D7AB8EED9
:10AF0800C50AF8EEE50AB8EEE11A02EE103AF8EED4
:10AF1800C22A20EE273A60EEA73A21EE274A62EECF
:10AF2800A74A002284ED003AC4ED013A84ED024AB2
:10AF3800C4ED034A2261FFF76DFF2870002005B0B9
:10AF480030BD019A0299504206EE100A03984A420F
:10AF5800414206EE902A07EE101A5B42DFED047AB2
:10AF6800B8EEC60AF8EEE60AB8EEC71ACDE700BF93
:10AF78000000803010B58CB004460DF1060109A818
:10AF880002AAFFF75DFF9DF906302BB9002020606B
:10AF98006060A0600CB010BD06A80DF1070104AAFE
:10AFA800FFF774FFDDED097ADDED066ADDED0A0ACB
:10AFB8009DED077ADDED0B1A9DED086A36EEE70A7E
:10AFC80037EE601A36EE612A84ED000A84ED011A24
:10AFD80084ED022ADEE700BF00B583B002AB90F82B
:10AFE800440403F8012D012205F030FB03B000BD35
:10AFF80038B5437903F080020D46D1B20446F1B169
:10B0080003F04000C0B230B9A27985F0010302F024
:10B018000101994212D020460621002D0CBF2122A1
:10B028000122FFF7D9FF48B96279A37985F00105B4
:10B0380060F3861265F300036271A37138BD03F0F3
:10B048004001CAB20AB9104638BD06210122FFF7ED
:10B05800C3FF0028F2D1637960F38613637138BDAA
:10B068000321C022FFF7B8BF90F808250321FFF796
:10B07800B3BF00BF38B5437981F00105C3F380122F
:10B08800AA4204460ED079B106210122FFF7A4FF97
:10B0980088B9642005F0CAFA607965F38610607192
:10B0A800002038BD002038BD06214122FFF794FF5B
:10B0B8000028F1D038BD38BD90F8440492B205F0AC
:10B0C800D3BA00BF2DE9F047164607468846994689
:10B0D800D2B10F4B0024D3F800A001E0B44213D240
:10B0E800351B554534BF2A46524608EB040109EB87
:10B0F8000403384614FA82F4C9B292B205F0B4FADD
:10B108000028EBD0BDE8F0870020BDE8F08700BF3D
:10B118009CA4030800B583B002AB03F8012D0122FB
:10B1280005F094FA03B000BD30B583B0002304469F
:10B138000D46ADF8043038B331B33921022201ABE2
:10B14800682005F091FA9DF804209DF8051041EA61
:10B1580002231AB207EE902A9FED0D7AB8EEE70A9D
:10B168009FED0C1A70EE070A9FED0B2AC0EE811AAC
:10B178002B809FED0A3A71EE822A62EE833ABDEE89
:10B18800E34A84ED004A00E0162003B030BD00BF5A
:10B1980000C067440080B44300000C4200008047B0
:10B1A80030B5124D2A7883B00023824204468DF8C8
:10B1B800073019D07F2101220DF1070368202C7078
:10B1C800FFF780FF05469DF8070020F0310141EAAE
:10B1D8000414E4B268207F2122468DF80740FFF767
:10B1E80099FF284303B030BD1846FBE70C40002008
:10B1F8002DE9F04383B002AC80460D46032091460A
:10B208001F462035FFF7CCFF08EB850504F8019DA4
:10B218000122297923460646682005F017FA69793C
:10B228008DF80770012223460643682005F00EFAC0
:10B238008127A9798DF807700643012223466820E3
:10B2480005F004FA9DF92830E9798DF8073046EAC7
:10B25800000501226820234605F0F8F9284303B0C9
:10B26800BDE8F0832DE9F041044684B00320884608
:10B2780017461E46FFF794FF05469DF928004146EC
:10B288003A46F3B200902046FFF7B2FF04AC0543FC
:10B298000020FFF785FF202304F8013D0321012248
:10B2A80023460543682005F0D1F905433C2005F005
:10B2B800BDF9234668200321012200248DF80F40A0
:10B2C80005F0C4F9284304B0BDE8F0812DE9F04346
:10B2D800814683B0032015461F468846FFF760FF66
:10B2E80002AC064608F1200865F07F0004F8010D5D
:10B2F80009EB8805012229792346682005F0A6F97B
:10B3080069798DF80770012223460643682005F005
:10B318009DF99DF92830A97963F07F0206438DF8DD
:10B32800072068200122234605F090F9304303B036
:10B33800BDE8F0832DE9F04385B0044603200C9D59
:10B34800894690461F46FFF72BFF064668B24946D6
:10B358004246FBB200902046FFF7B8FF04AC064314
:10B368000020FFF71DFF202304F8013D03210122DF
:10B3780023460643682005F069F906433C2005F09A
:10B3880055F9032101222346682000248DF80F4037
:10B3980005F05CF93B2146EA0004AAB268200D9B3F
:10B3A80005F062F9204305B0BDE8F08330B50546E5
:10B3B80083B00020FFF7F4FE0446682001220DF157
:10B3C80007030146FFF77EFE9DF8073023F01F01B3
:10B3D80045EA01030443682001461A468DF8073000
:10B3E800FFF798FE204303B030BD00BF2DE9F04FB2
:10B3F800002383B0054618460F4691468DF807305E
:10B40800FFF7CEFE8046002835D1B9F1000F36D0BF
:10B418000DF1080A280A0AF8010D7E216820012288
:10B42800534605F013F9804628BB27B3DFF858B018
:10B4380004460FE0DBF80020964228BF164614FAAF
:10B4480086F4B6B2324605F00FF97519ADB2C8B92F
:10B45800BC4210D27C210122534668208DF8075047
:10B4680005F0F4F802463E1B09EB040368207D2131
:10B47800002ADFD09046404603B0BDE8F08F4FF079
:10B488001608F8E78046F6E79CA4030830B583B0B1
:10B4980002AB002043F8040D0C4690B204211A4672
:10B4A800FFF7A4FF9DF805309DF804509DF807109C
:10B4B8009DF806201B0443EA05630B4343EA022177
:10B4C800216003B030BD00BF70B50D4601210446B0
:10B4D800FFF78EFD2946064640F6B4022046FFF7E0
:10B4E800D5FF291D064340F6B8022046FFF7CEFFD8
:10B4F80005F1080140F6BC0246EA00052046FFF7C0
:10B50800C5FF002105432046FFF772FD284370BDA3
:10B5180070B50D4601210446FFF76AFD2946064627
:10B5280040F2E4622046FFF7B1FF291D06434FF4BD
:10B53800DD622046FFF7AAFF05F1080140F2EC6240
:10B5480046EA00052046FFF7A1FF002105432046F3
:10B55800FFF74EFD284370BD2DE9F04F002383B05F
:10B56800054618460F4692468DF80730FFF718FE35
:10B57800814618B1484603B0BDE8F08F0DF10808C0
:10B58800280A08F8010D7E2168200122434605F0AB
:10B598005DF881460028EDD1002FEBD0DFF84CB0E4
:10B5A80004460FE0DBF80020964228BF164614FA3E
:10B5B80086F4B6B2324605F049F87519ADB298B9B5
:10B5C800BC42D7D27C210122434668208DF807501F
:10B5D80005F03CF802463E1B0AEB040368207D2177
:10B5E800002ADFD09146C5E78146C3E7A0A4030837
:10B5F80070B59CB282B00D4616462046022101AABB
:10B60800FFF7F4FE80B92B0A9DF804109DF8052079
:10B6180066B10B4315438DF804308DF8055020466C
:10B62800022101AAFFF798FF02B070BD21EA0300CA
:10B6380022EA05058DF804008DF80550EFE700BFF4
:10B6480010B5B2F5803F82B013460BD2141288B2FF
:10B6580001AA02218DF804408DF80530FFF77CFF20
:10B6680002B010BD6FF01500FAE700BF70B50B46C9
:10B6780082B00E160D140C12042190B20DEB0102CB
:10B688008DF804608DF805508DF806408DF8073068
:10B69800FFF762FF02B070BD70B50D460121044688
:10B6A800FFF7A6FC2968064640F6B4022046FFF7D5
:10B6B800DDFF6968064340F6B8022046FFF7D6FF6B
:10B6C800A96840F6BC0246EA00052046FFF7CEFF0F
:10B6D800002105432046FFF78BFC284370BD00BFBF
:10B6E80070B50D4601210446FFF782FC296806461D
:10B6F80040F2E4622046FFF7B9FF696806434FF459
:10B70800DD622046FFF7B2FFA96840F2EC6246EA24
:10B7180000052046FFF7AAFF002105432046FFF752
:10B7280067FC284370BD00BF30B5054683B00020D4
:10B73800FFF736FD702104460222682001ABFFF7AF
:10B74800C1FC204306D0084B402200211A60298002
:10B7580003B030BD9DF804209DF8053003EB0221AD
:10B768002980FFF71DFDF3E7045700202DE9F0417C
:10B7780082B04FF400730020ADF80630FFF710FDDB
:10B7880003210446012268200DF10503FFF79AFC06
:10B79800BDF806100443002900F0C0809DF805207C
:10B7A800654D032102F0BF026820FFF7B3FC804615
:10B7B8001F20FFF7FBFD07461E20FFF7F7FD0023BC
:10B7C80006460DF106002B7144EA0804FFF7ACFFAA
:10B7D8003C433443044340F0AA80BDF806000028E7
:10B7E80000F09C809DF80560032106F0BF026820E8
:10B7F800FFF790FC07461F20FFF7D8FD80461E2064
:10B80800FFF7D4FD06460DF106002C71FFF78CFFFB
:10B8180048EA0701314351EA000440F08880BDF846
:10B828000620002A7AD09DF80570032107F0BF0290
:10B838006820FFF76FFC07461F20FFF7B7FD80461B
:10B848001E20FFF7B3FD06460DF106002C71FFF729
:10B858006BFF48EA0703334353EA000467D1BDF896
:10B86800060000285AD09DF80560032106F0BF02A3
:10B878006820FFF74FFC07461F20FFF797FD80461B
:10B888001E20FFF793FD06460DF106002C71FFF709
:10B898004BFF48EA07043443044348D1BDF8061077
:10B8A80000293BD09DF80520032102F0BF02682043
:10B8B800FFF730FC07461F20FFF778FD80461E2063
:10B8C800FFF774FD06460DF106002C71FFF72CFFFB
:10B8D80048EA0703334353EA000428D1BDF80600B9
:10B8E800E0B19DF80570032107F0BF026820FFF75B
:10B8F80011FC04461F20FFF759FD07461E20FFF7DD
:10B9080055FD002106460DF106002971FFF70CFFD1
:10B9180047EA0402324352EA000408D19DF8053090
:10B928006820032143F04002FFF7F4FB044320465C
:10B9380002B0BDE8F08100BF0457002030B50446CE
:10B9480083B0A0B100202080FFF72AFC182105460B
:10B9580001220DF107036820FFF7B4FB23889DF847
:10B96800072043EA02212843218003B030BDFFF7B6
:10B9780017FC18210446012268200DF10703FFF780
:10B98800A1FB2043F1E700BF2DE9F04F91B09B46A2
:10B99800002304460E461746ADF83E30002800F056
:10B9A800C982D0F8009040F2FF15A94540F3F08114
:10B9B80045F2C840C2F2000090F800A0417841EA80
:10B9C8000A2A0AF480420FFA8AFC93B202931FFAF9
:10B9D8008AF5BCF1000FB4BF4FF008084FF0020819
:10B9E800002B40F0C2810AF4005081B2039109B1E2
:10B9F80008F106080AF4805213B20BB108F10808DE
:10BA08000AF4006081B2049109B108F10C080AF443
:10BA1800806293B205930BB108F10E080AF4007026
:10BA280001B209B108F106080AF0800213B20BB19D
:10BA380008F106080AF0400081B2069109B108F140
:10BA48000C080AF0200293B207930BB108F10C0816
:10BA58000AF0100081B2089109B108F104080AF04F
:10BA6800080293B2002B00F0B38145F2C840C2F23D
:10BA780000008178C07840EA012202F4804188B24F
:10BA88000B9008F102000C900B9891B218B108F1D4
:10BA98000408CDF8308002F4005080B20A9002F415
:10BAA8008052002800F049820C9892B200F10208F6
:10BAB8000992099808B108F1020806B1358007B162
:10BAC8003980002D00F0B481C145C0F04881A84EEE
:10BAD800CDF804C0B51C002B08BF354604F0B2FDF4
:10BAE800DDF804C0C317BBF1000F01D08BE80900D3
:10BAF800BCF1000FC0F282810023029EA6B1E87853
:10BB080095F900C06F7895F9026095F904106A7983
:10BB1800984B40EA062647EA0C2742EA01201F60B4
:10BB28005E609860063501230399002940F0A981D9
:10BB3800049A002A31D0EB7A687A0493AB782E7A8B
:10BB48000293AB7995F801906F7995F800B095F864
:10BB580004C003930004AB7AEA79E9780C9340EACD
:10BB680006604FEA0949049E834B3F0449EA0B6982
:10BB780047EA0C6749EA010117433043029A039EDA
:10BB8800DDF8309041EA022147EA062740EA092019
:10BB980083E8820098600C3501230599002931D08B
:10BBA800EB7A687A0493AB782E7A0293AB7995F89E
:10BBB80001906F7995F800B095F804C003930004DC
:10BBC800AB7AEA79E978059340EA06604FEA0949D1
:10BBD800049E6A4B3F0449EA0B6947EA0C6749EA45
:10BBE800010117433043029A039EDDF8149041EA9D
:10BBF800022147EA062740EA092083E88200986084
:10BC08000E3501230699002931D0EB7A687A04931E
:10BC1800AB782E7A0293AB7995F801906F7995F805
:10BC280000B095F804C003930004AB7AEA79E97888
:10BC3800059340EA06604FEA0949049E504B3F04C9
:10BC480049EA0B6947EA0C6749EA0101174330439F
:10BC5800029A039EDDF8149041EA022147EA06277A
:10BC680040EA092083E8820098600C35012307998F
:10BC780000294CD095F808902B78CDF81C9095F8B1
:10BC880007902A79CDF8149095F80290EE78CDF8BF
:10BC98000C9095F80A9095F801B00293CDF834907D
:10BCA800DDF8089095F805C0049200964FEA0B4B12
:10BCB800EE7A28686968AA686F7A0C964BEA096B6D
:10BCC800DDF81090AE792F4B06964FEA0C4C4CEAF3
:10BCD800096CDDF81C902C4E07C33F04059A0098A8
:10BCE8000C9B47EA0967DDF818904CEA020C4BEA0E
:10BCF80000011F4303984CEA0923DDF8349041EA18
:10BD0800002247EA092786E88C000C350123089EA3
:10BD18006EB16A782878E978AB78160446EA00624A
:10BD28000A431A4942EA03200860043501230B9AA2
:10BD38001AF0070F0CBF1E460126002A40F0958016
:10BD48000A98002840F086800998002878D1206851
:10BD5800C8EB00022260002A45D1002E31D04FF0F6
:10BD68000008404611B0BDE8F08F08F106083AE631
:10BD7800CA54002098540020EC560020D8560020C1
:10BD880088540020A4540020F856002080D30020B6
:10BD98000DF13E00FFF7C8FC804600BBBDF83EA091
:10BDA800AA4500F28C80BAF1000F40F09880D44682
:10BDB80023680CEB0309B9F1010FC4F800903FF7B1
:10BDC800F7AD604B0021D3F8008021601960C8E707
:10BDD80009930A930B9319466FE6FFF7C7FC594B73
:10BDE800C3F80080BDE745F2C840C2F2000000EB8E
:10BDF800080127F069F9002EB1D1E2E72F78A87879
:10BE08002A7995F801E0EE7869794F4B0006120619
:10BE18003F0647EA0E4740EA064642EA01417F10DC
:10BE280070104A101F6058609A600635012364E656
:10BE3800FFF79CFC8046454804F0F6FB256090E738
:10BE480029786B78424A43EA012108B21180FEF74B
:10BE580005FE7CE76B7829783E4A43EA012108B25F
:10BE680011800235FEF7F4FD6EE7287869783A4AC2
:10BE780041EA002303F0030013800235FEF7E0FDDA
:10BE88005EE7364B687995F800C06A7895F802E065
:10BE9800EF782E79324942EA0C2247EA0E2740EA27
:10BEA800062618461A805F809E8003F001FE2B68E4
:10BEB8002C49A8880B6088800635012338E6FFF7EF
:10BEC80055FC80461F483E220260B8F1000F7FF4FF
:10BED80048AFC4F80080244804F0A6FB41E7FFF708
:10BEE8005FF902902148224A016804949144039121
:10BEF8005446CA46DDF80C904546C5EB0408C845CB
:10BF080028BFC8461FFA88F80AEB05036820722183
:10BF1800424604F0A9FB4544ADB208B9AC42ECD89E
:10BF2800DDF80890049C50EA09087FF456AFBDF884
:10BF38003EC03DE74FF0FF3813E790B20990DDF8B7
:10BF48003080B6E504570020B0540020008503086F
:10BF5800C8560020C454002094540020E456002001
:10BF6800CC560020BC540020248503089CA4030858
:10BF7800C854002030B583B002AA002342F8043D1B
:10BF8800044604214FF45870FFF730FA9DF8045026
:10BF98009DF805309DF806109DF8072003EB052352
:10BFA80001EB032102EB0122226003B030BD00BF88
:10BFB80010B4044640B1064B07CB002320606160F3
:10BFC800A260184610BC70474FF0FF33F9E700BF76
:10BFD800B054002010B4044640B1064B07CB0023F0
:10BFE80020606160A260184610BC70474FF0FF33B4
:10BFF800F9E700BF9854002010B4044640B1064B3E
:10C0080007CB002320606160A260184610BC70470F
:10C018004FF0FF33F9E700BF8854002010B40446FE
:10C0280040B1064B07CB002320606160A260184630
:10C0380010BC70474FF0FF33F9E700BFEC56002003
:10C0480010B4044640B1064B07CB00232060616062
:10C05800A260184610BC70474FF0FF33F9E700BFE5
:10C06800D856002010B4044640B1064B07CB002335
:10C0780020606160A260184610BC70474FF0FF3323
:10C08800F9E700BFCC56002010B4044640B1064B77
:10C0980007CB002320606160A260184610BC70477F
:10C0A8004FF0FF33F9E700BFF856002038B50446D3
:10C0B8000220FFF775F85021082205462046FEF7B2
:10C0C8008BFF5121D02205432046FEF785FF05430B
:10C0D8000020FFF765F8284338BD00BF38B504468F
:10C0E8000320FFF75DF80121102205462046FEF7E0
:10C0F80073FF0021042205432046FEF76DFF054328
:10C108000020FFF74DF8284338BD00BF2DE9F04F58
:10C11800044689B00020FFF743F8054618B12846C1
:10C1280009B0BDE8F08F062101220DF11D0320465C
:10C13800FEF7C2FF9DF81D30029003F0BF0632469D
:10C14800062120468DF81D60FEF746FF0390642007
:10C158008DF81D5004F06AFA0DF11D0301222946DD
:10C168002046FEF7A9FF9DF81D100490F24804F040
:10C178006BFA032194F808252046FEF72DFF059059
:10C18800E07984F83A5001263043E071032084F8BE
:10C198008400042084F88500072084F8880009209A
:10C1A80084F88A000A2084F88B000B2084F88C001D
:10C1B8000D2084F88E000F2084F89000102084F859
:10C1C80091001120052302224FF0060A08274FF09C
:10C1D8000C0E4FF00E0984F89200122084F88DE0BE
:10C1E800628584F8863084F8897084F89300C4F8EE
:10C1F800E430C4F81C31C4F85431C4F88C31C4F8A4
:10C20800C431C4F8FC31C4F83432C4F86C32C4F810
:10C21800A432C4F8DC32C4F81433A4F828A084F893
:10C2280087A084F88F9084F80855C4F84C33BE234F
:10C23800BA21C4F8EC30B623C4F82411C4F89431F8
:10C24800B221BC23C4F8CC11C4F8E432AC21A42335
:10C25800C4F80412C4F8AC32B821B423C4F81C13CF
:10C26800C4F85433A8219E23C4F83C12C4F87412AD
:10C27800C4F8F0309A219623C4F82811C4F89831EC
:10C2880092219C23C4F8D011C4F8E8328C2184236D
:10C29800C4F80812C4F8B03298219423C4F82013C3
:10C2A800C4F85833882148F2000384F800E284F87F
:10C2B80018E384F850E384F8C871C4F8401284F88D
:10C2C800E8A084F820A184F890A184F8E0A284F87A
:10C2D800A8A284F8389284F87092C4F87812A4F866
:10C2E800F4304FF480418023A4F82C11A4F8EC32E8
:10C2F8004FF400614FF40073A4F80C12A4F8B432A0
:10C3080040212023A4F82413A4F85C334FF480417F
:10C318004FF40063A4F8F610A4F8D63148F20001EF
:10C328004FF400734FF4805C4FF4005B4FF4806867
:10C33800A4F8EE12A4F8B63240218023A4F8D4C1A0
:10C34800A4F89EC1A4F82613A4F85E334FF4025152
:10C358004FF48453A4F84672A4F87E7284F84151CD
:10C36800022784F8B15184F8E95184F8015384F81C
:10C37800395384F87153A4F89CB1A4F84482A4F802
:10C388007C82A4F82EB1A4F80E8284F8096184F89E
:10C39800216284F8C96284F8596284F8916284F849
:10C3A8000A5184F8B25184F8EA5184F8025384F8A7
:10C3B800725384F8925284F80B5184F8435184F8EC
:10C3C800EB5184F8035384F8235284F8CB5284F851
:10C3D8003B5384F80C5184F8445184F8B45184F8E0
:10C3E800EC5184F8245284F8CC5284F83C5384F8F5
:10C3F800745384F85C5284F8945284F8426184F847
:10C40800226284F8CA6284F83A6384F85A6284F82B
:10C41800B36184F8736384F85B6284F8936284F888
:10C42800046384F80D6184F8455184F8B52184F8D3
:10C43800052384F8255284F8CD5284F83D5384F8B6
:10C44800752384F85D5284F8882384F8C02384F81F
:10C45800F8234FF480454FF4814284F8ED71A4F835
:10C468009453A4F804C4A4F89623A4F8CE13A4F80B
:10C478000634304684F89562A4F8CCB3FEF790FEF3
:10C4880028210746324620460DF11F03FEF714FE09
:10C4980050EA070572D19DF81F2056B202F07F00BE
:10C4A800002EB8BF4042C5B24BF66F716DB244F270
:10C4B8009107C0F20B014DF2070001FB05F1C6F22E
:10C4C8003470CFF6F4774FF44A4307FB05F780FB47
:10C4D80001CAC3F69A33C917FB184FF44A40C1EB97
:10C4E8006A27C3F69A3040F2654107FB0535002EEE
:10C4F800C4F8AC00C4F89850C4F8C000C4F8B81028
:10C50800C4F8A410C4F8CC10C0F2DE8004EE102ADF
:10C518009FED0B5AF8EE444AB7EE006AC4EE855A0E
:10C528009FED087A75EE866AF2EE067A26EE870A9D
:10C53800C7EE803A08E000BF4885030835FA0E4B7D
:10C5480000C09E4400A08C442279FA2002F0030621
:10C5580000FA06F300EE903A5FED081AB8EEE01A1A
:10C56800002021EE212A62EE232ABDEEE23A13EEE4
:10C57800107AC4F84874FEF713FE05462046FFF704
:10C5880095FD80460220FEF70BFE012106460A466D
:10C5980020460DF11E03FEF78FFD50EA060700F056
:10C5A800BA800220FEF7FCFD14210646012220462F
:10C5B8000DF11E03FEF780FD064321D19DF81E10E4
:10C5C800207921F03F03C0F3411243EA4206324684
:10C5D800204614218DF81E60FEF7FEFC064678B949
:10C5E8002046152101220DF11F03FEF765FD0646C1
:10C5F80030B9204615219DF81F20FEF7EDFC0646B0
:10C608000220FEF7CDFD0DF11F03814653210122C3
:10C618002046FEF751FD9DF81F1001F0F8031A4659
:10C628008246532120468DF81F30FEF7D5FC8346FD
:10C638002046FFF753FD029A0399049B1143059A7C
:10C648001943114341EA080848EA05052F433843CE
:10C658006179064346EA090901F0080349EA0A0C28
:10C66800DAB24CEA0B0A002A44D10F2101220DF15B
:10C678001D032046FEF720FD9DF81D1041F0C00364
:10C688001A460F214AEA000520468DF81D30FEF7AC
:10C69800A3FC012105430DF11D028620FEF7A6FE2D
:10C6A8009DF81D1011F0F00F45EA00052FD101F09B
:10C6B8000400C2B261791AB141F0800363712EE5BA
:10C6C80062F3C71161712AE5803A07EE102A5FED1F
:10C6D800647AB8EEC70AB7EE001AC0EE270A1FED53
:10C6E800672A71EE601AB2EE063A61EE822AC3EE4C
:10C6F800223A29E7204602F00FFF0028B5D0194852
:10C7080003F092FF65796FF3C3056571ADE71648CD
:10C7180003F09AFF03E521799DF81E0001F003025A
:10C72800530043F0010720F03F0647EA06030121C2
:10C738001A4620468DF81E30FEF74EFC02210746A9
:10C74800012220460DF11F03FEF7B6FC07437FF4D4
:10C7580028AF204602219DF81F20FEF73DFC074622
:10C768001FE700BF548503086C8503082DE9F043D3
:10C778000121C3B08046FEF73BFC044678B1664809
:10C7880003F052FF00214046FEF774FC044302D038
:10C79800624803F049FF204643B0BDE8F0834046B5
:10C7A800FEF762FC0446C8B95D4F064641F6A83557
:10C7B800902070233A4699B2ED1AFF18FEF7CCFE86
:10C7C8000136044630027CBB002D0BDDB5F5807FB9
:10C7D800B4BF2B464FF4807380B2EBE7514803F0A7
:10C7E80023FFCFE74E4FA14641F6A836902070258B
:10C7F800A9B202AAFEF7FAFD394604462A4602A85B
:10C8080026F064FB09F10109761B7F194FEA09211B
:10C8180000286FD1002E0BDDB6F5807FB4BF3546FA
:10C828004FF4807588B2E3E73F4803F0FDFEA9E7BF
:10C8380098F8062042F080050024022188F8065066
:10C8480001AA40200194FEF787FE0221054601AAAD
:10C858004220FEF781FE01AA022105434E20FEF781
:10C868007BFE02A90543D8F84804029403F084FC2F
:10C8780004214FF4987002AAFEF76EFE98F804306F
:10C888000294C3F34111022945EA000438D0032970
:10C898003FD001290CBF4FF080604FF0007002A913
:10C8A80003F06AFC042102AA4FF4F070FEF754FE6C
:10C8B80098F80420C2F341130021022B029144EAA4
:10C8C800000423D0032B1ED0012B0CBF4FF4802073
:10C8D8004FF4002002A903F04FFC042140F2F44079
:10C8E80002AAFEF739FE04433FF44CAF0F4803F0A9
:10C8F8009BFE47E7002C9BD00D4803F095FE41E7CF
:10C908004FF00060CBE74FF48030E3E74FF400309E
:10C91800E0E74FF08050C2E78C85030838860308AB
:10C9280064860308AC850308CC85030818860308C9
:10C93800F08503082DE9F043244B83B004461868BA
:10C948009D880090002120464FF4D872ADF804501D
:10C95800FEF78CFE054688BB666C84F8380084F8C0
:10C968003900002E36D1A16CB1F5C87F0BD948F239
:10C978008046D4F8A820C0F21E06B6FBF2F70123C1
:10C9880084F839302764B4F8388018F1000818BFE3
:10C998004FF001085FFA88F6002E40F05C820C4FD9
:10C9A800F879B0420ED020464FF4807132464223C7
:10C9B800FEF71EFE08B987F807800543284603B02E
:10C9C800BDE8F08300200543F8E700BF507E030868
:10C9D8000C57002094F80801002800F05182D4F880
:10C9E800E000D4F8E4304FF44A41C3F69A3191FBA1
:10C9F800F0F24FF44A4100FB02F7C3F69A31002BDC
:10CA080000EBD070C7EB0101DABF4FF0FF3C2B46BB
:10CA1800AC46B1EB600F00F34E8294F8E870B91C95
:10CA280002FB01F2012094F840712FB3D4F81C8165
:10CA3800D4F818114345A8BF98464FF44A43C3F6A3
:10CA48009A3393FBF1F74FF44A4301FB07F9C3F616
:10CA58009A33C9EB030301EBD171B8BF4FF0010C56
:10CA6800B3EB610F00F3258294F82031991C07FB82
:10CA7800012201304346012794F878E1BEF1000F06
:10CA880025D0D4F85481D4F850114FF44A4743457F
:10CA9800C3F69A37A8BF984697FBF1F74FF44A4375
:10CAA80001FB07F9C3F69A33C9EB030301EBD17114
:10CAB800B8BF4FF0020CB3EB610F00F3F88194F8A4
:10CAC8005831991C07FB012201304346022794F88C
:10CAD800B0E1BEF1000F25D0D4F88C81D4F88811CC
:10CAE8004FF44A474345C3F69A37A8BF984697FB81
:10CAF800F1F74FF44A4301FB07F9C3F69A33C9EB40
:10CB0800030301EBD171B8BF4FF0030CB3EB610F16
:10CB180000F3CB8194F89031991C07FB0122013076
:10CB28004346032794F8E8E1BEF1000F25D0D4F876
:10CB3800C481D4F8C0114FF44A474345C3F69A3725
:10CB4800A8BF984697FBF1F74FF44A4301FB07F952
:10CB5800C3F69A33C9EB030301EBD171B8BF4FF0A9
:10CB6800040CB3EB610F00F39E8194F8C831991C53
:10CB780007FB012201304346042794F820E2BEF166
:10CB8800000F25D0D4F8FC81D4F8F8114FF44A47A7
:10CB98004345C3F69A37A8BF984697FBF1F74FF479
:10CBA8004A4301FB07F9C3F69A33C9EB030301EBC8
:10CBB800D171B8BF4FF0050CB3EB610F00F3718171
:10CBC80094F80032991C07FB0122013043460527DF
:10CBD80094F858E2BEF1000F25D0D4F83482D4F886
:10CBE80030124FF44A474345C3F69A37A8BF9846D0
:10CBF80097FBF1F74FF44A4301FB07F9C3F69A3361
:10CC0800C9EB030301EBD171B8BF4FF0060CB3EBCE
:10CC1800610F00F3448194F83832991C07FB012214
:10CC280001304346062794F890E2BEF1000F25D064
:10CC3800D4F86C82D4F868124FF44A474345C3F6D7
:10CC48009A37A8BF984697FBF1F74FF44A4301FB80
:10CC580007F9C3F69A33C9EB030301EBD171B8BFE7
:10CC68004FF0070CB3EB610F00F3178194F87032A3
:10CC7800991C07FB012201304346072794F8C8E2B4
:10CC8800BEF1000F25D0D4F8A482D4F8A0124FF436
:10CC98004A474345C3F69A37A8BF984697FBF1F72A
:10CCA8004FF44A4301FB07F9C3F69A33C9EB030370
:10CCB80001EBD171B8BF4FF0080CB3EB610F00F373
:10CCC800EA8094F8A832991C07FB012201304346F8
:10CCD800082794F800E3BEF1000F25D0D4F8DC82D1
:10CCE800D4F8D8124FF44A474345C3F69A37A8BF39
:10CCF800984697FBF1F74FF44A4301FB07F9C3F64F
:10CD08009A33C9EB030301EBD171B8BF4FF0090C9B
:10CD1800B3EB610F00F3BD8094F8E032991C07FB78
:10CD2800012201304346092794F838E3BEF1000F89
:10CD380025D0D4F81483D4F810134FF44A47434548
:10CD4800C3F69A37A8BF984697FBF1F74FF44A43C2
:10CD580001FB07F9C3F69A33C9EB030301EBD17161
:10CD6800B8BF4FF00A0CB3EB610F00F3908094F852
:10CD78001833991C07FB0122013043460A2794F80F
:10CD88007083B8F1000F25D0D4F84C83D4F8481339
:10CD98004FF44A479845C3F69A3797FBF1F7D8BF3F
:10CDA80098464FF44A4301FB07F9C3F69A33C9EB97
:10CDB800030301EBD171C8BF4FF00B0CB3EB610F4C
:10CDC80094F85033C8BF0137991C07FB0122013082
:10CDD80043460B27A364E3B1DAB143F6A85306FB35
:10CDE80002FEC0F206039E4567DD94F83A80B8F16A
:10CDF800000F62D101286CDDCCEBCC0E04EBCE0722
:10CE080093FBF2F697F80D7184F84C7046B92664D6
:10CE1800B9E5A17911F0600F58D0012784F84C705A
:10CE280007EB870204EB820044F6D353D0F8A8102E
:10CE3800C1F26203A3FB01174FF47A7202FB06F6F4
:10CE4800B80996FBF0F32364002B3FF49CAD012650
:10CE580084F8386097E5216C4FF49E722046FEF7FF
:10CE680005FC94F84C1002AF07EB410205464FF45D
:10CE7800AF71204632F9082CFEF7E2FB05438EE538
:10CE8800284629464FF0FF3C2B462A46CBE501377A
:10CE98006DE7013740E7013713E70137E6E6013769
:10CEA800B9E601378CE601375FE6013732E601372C
:10CEB80005E60137D8E50132AFE5CCEBCC0C04EB45
:10CEC800CC0292F80D7184F84C70A9E76FF0150543
:10CED80074E5C7EBC706CCEBCC0004EBC60704EB44
:10CEE800C002D7F8043192F80D6140F2991090FB16
:10CEF800F1F103FB01F384F84C60A4E72DE9F04F4E
:10CF0800437990F858826FF382038DB004464371D9
:10CF1800B8F1000F16D190F89002002800F05D815A
:10CF28006179A4F8448241F004054FF480620E262A
:10CF380084F83882A4F87C2284F8706265714FF016
:10CF480046090DE00027A0F87C720E214FF480609E
:10CF580084F87072A4F8440284F838124FF0230958
:10CF68000021234601228A468C460E460F460D466E
:10CF780011E0062900F0F680072900F0F380D3F8C5
:10CF8800E4004FF0010A8445B8BF84460C2A20D03B
:10CF980001313833013293F808010028F6D093F8AC
:10CFA80009B193F80AA193F80B015BEA050B0CBFD2
:10CFB800002501255AEA070A0CBF00270127064366
:10CFC8000CBF002601260028D3D10C2A4FF0010AF5
:10CFD800DED1A37913F0600F40F0D18094F82F20B0
:10CFE800002A00F016810125294684F83050BAF14C
:10CFF800000F00F0CF806FF3C303A371A37903F090
:10D008000802D0B2002800F0C18043F01003A371D9
:10D01800CC45C0F2B180BCF1730F40F3AC804FF047
:10D0280073094A462272B8F1000F04D194F89002AD
:10D03800002800F0D4804FF0660C0B20634615B131
:10D04800332BB8BF332394F8402122B1D4F81C11F4
:10D058008B42B8BF0B4694F8382322B1D4F8141386
:10D068008B42B8BF0B466621B1FBF3F101EB810A95
:10D0780001EB4A0AC4F8A030C4F8B4C0C4F8C89098
:10D08800C4F89CA0C4F8B000002B71D0D4F8A43028
:10D09800D4F89810B1FBF3F101FB0AF3C4F8A830F7
:10D0A8004FF00009BCF1000F5FD0D4F8AC10D4F8F1
:10D0B800B830B1FBF3F101FB00F0C4F8BC0000206C
:10D0C80050EA09094AD163792179A07967F3000305
:10D0D80065F3C71166F3410340F0040021716371E1
:10D0E800A071002F5AD1637943F00401617163790B
:10D0F800002E5AD043F010016171002D5AD0012042
:10D10800002384F8D50484F8D434002E58D094F839
:10D118000801012184F8D614002857D0012384F887
:10D12800A833002A56D0012284F8E02394F870131B
:10D1380019B9B8F1000F00F03785012084F81804F8
:10D14800637903F01002D1B2002969D12046012188
:10D15800FDF74EFF8146002800F09A8048460DB042
:10D16800BDE8F08F4FF0010A12E76FF01500A7E74E
:10D178006FF0150996E7E1465FFA89F252E7012553
:10D188004FF0010A294684F8305030E760F3041361
:10D19800A3713DE743F00800A0712FE7D8B269F307
:10D1A800820060716379002EA4D166F30413637161
:10D1B800002DA4D184F8D55484F8D454002EA6D1D7
:10D1C80094F8080184F8D6640028A7D184F8A80345
:10D1D800002AA8D184F8E023A8E7C146C0E694F85D
:10D1E8002032002B7FF427AF94F8C822002A7FF45E
:10D1F80022AF002900F0EA8494F80811002900F011
:10D20800BF87D4F8E400322840F3BA87844600F098
:10D21800DFBC617B00297FF4E6AE84F83010E6E6D7
:10D2280003F00200C1B2002940F0CB8440F265400F
:10D238000022401001328842FBDC032A40F3B88404
:10D2480040F26543012143FA02F301FA02F1C4F8FE
:10D25800C830C4F8C410002B00F0C687D2B2D4F886
:10D26800C000D4F8CC3084F89620B0FBF3F202FB6F
:10D2780001F10020C4F8D01084F8940084F89500D7
:10D2880001212046FDF7B4FE814600287FF466AFF1
:10D298002046FDF7E9FE814600287FF45FAFA179BB
:10D2A80001F00403DAB2002A40F09C84D4F81C612F
:10D2B800D4F8E470B84DC4F8A060C4F8B470022083
:10D2C800D4F89C60D4F8B070FDF76AFF814668799D
:10D2D800013E013F86420BD0F6B22046002132467D
:10D2E800FDF77AFE8146002840F04587AA4B5E711B
:10D2F800A9798F420BD0FFB2204611213A46FDF79B
:10D308006BFE8146002840F03687A34A97710020BB
:10D31800FDF746FF59EA000940F02D87A07900F093
:10D328000403D9B2002900F0648294F80861002E41
:10D3380000F0408794F83820002A41F02D81D4F875
:10D34800E430002B4A4640F33687494694F840615A
:10D3580056B194F83860002E41F03D81D4F81C6134
:10D36800B34201DA3346012194F8786156B194F852
:10D378003860002E41F00A81D4F85461B34201DAD2
:10D388003346022194F8B06156B194F83860002E03
:10D3980041F00981D4F88C61B34201DA33460321A4
:10D3A80094F8E86156B194F83860002E41F0018194
:10D3B800D4F8C461B34201DA3346042194F82062F8
:10D3C80056B194F83860002E41F0F980D4F8FC6129
:10D3D800B34201DA3346052194F8586256B194F8FD
:10D3E8003860002E41F0F180D4F83462B34201DA9B
:10D3F8003346062194F8906256B194F83860002EAE
:10D4080041F0FF80D4F86C62B34201DA3346072159
:10D4180094F8C86256B194F83860002E41F0F7804D
:10D42800D4F8A462B34201DA3346082194F80063C1
:10D4380056B194F83860002E41F0EF80D4F8DC62E1
:10D44800B34201DA3346092194F8386356B194F8A7
:10D458003860002E41F0E780D4F81463B34201DA53
:10D4680033460A2194F8706346B194F83860002E68
:10D4780001F0BF80B4F85C331A4392B24B1C07D05A
:10D48800C1EBC10104EBC103B3F8F4100A4392B233
:10D4980000F04000C3B213B142F0100292B220462D
:10D4A8004C21FEF7CDF88146002841F09D80D4F844
:10D4B800B460C6F57A710029B8BF4942C6F1E100E7
:10D4C8000028B8BF4042B1F57A7FA8BF4FF47A71FF
:10D4D8008142C6F16603CCBF4FF001090846002B14
:10D4E800B8BF5B429842C6F13302D4BF03464FF03F
:10D4F8000209002AB8BF52429342C6F10F01D4BFB5
:10D508001A464FF003090029B8BF49428A42C6F1BA
:10D518000500D4BF11464FF00409AB6980EAE076F4
:10D52800A6EBE0768E42ACBF4E460526B34237D016
:10D538001A4A06EB860702EB870740F2E451D7F850
:10D54800048020464246FEF77BF8414681464FF468
:10D5580069722046FEF78AF8F96840EA09094FF42B
:10D56800B6622046FEF782F8396949EA00094FF4A5
:10D57800B8622046FEF77AF8B96849EA00094FF41C
:10D5880086722046FEF772F859EA000941F02C80AD
:10D5980001498E6104E000BF0C57002084A20308F3
:10D5A800D4F8C830C3F1C8000028B8BF4042C72823
:10D5B80041F31780C820C3F14602002AB8BF52427F
:10D5C8009042C3F12301D4BF024601260029B8BF07
:10D5D80049428A42C3F10F00D4BF114602260028EF
:10D5E800B8BF40428142D8BF0846C3F10801C8BF4E
:10D5F80003260029B8BF49428842D8BF0146C3F173
:10D608000400C8BF04266A690028B8BF404288429F
:10D61800B8BF0526B24202D0002B41F0178094F81B
:10D62800D424287B904213D0003218BF0122204610
:10D638004FF400714E23FDF7DBFF8146002840F0D0
:10D64800D38794F8D434B34A191C18BF0121117335
:10D6580094F8D524687B904213D0003218BF012279
:10D6680020464FF480714E23FDF7C2FF8146002803
:10D6780040F0BA8794F8D534A64A191C18BF01217E
:10D68800517394F8D624A87B904212D0802100329E
:10D6980018BF012220464E23FDF7AAFF8146002825
:10D6A80040F0A28794F8D6649A4B371C18BF01271C
:10D6B8009F7394F85812002940F0BF8794F890227D
:10D6C800002A40F0BA8794F81804021C18BF0122F7
:10D6D80040214E232046FDF78BFF94F83060321C22
:10D6E80018BF01224FF480414E2380462046FDF7A3
:10D6F8007FFF94F82E703A1C18BF01224FF4005196
:10D708004E2382462046FDF773FF94F8311000231C
:10D7180007468DF800308DF8013011B101228DF8DF
:10D7280001206A46022140F21250FDF715FFD4F895
:10D73800B4300646A08D002203FB00F06946009233
:10D7480002F01AFD042140F204506A46FDF704FF76
:10D75800714983460B8894F83100ADF8003028B140
:10D76800F42248208DF800208DF8010002216A4635
:10D7780041F22D30FDF7F0FE637B1A1C18BF012221
:10D7880081464FF400614E2320464AEA0808FDF717
:10D798002FFF48EA0707A2793E4346EA0B0B02F03F
:10D7A800100100234BEA0000C9B240EA09098DF8CC
:10D7B80000308DF801308DF802308DF8033011B14A
:10D7C80001238DF80330E87BC2F30012904200F089
:10D7D800378740F20E4004216A46FDF7BDFE20B9A6
:10D7E800A1794C4BC1F30012DA7359EA000940F0F1
:10D7F800FB8660792279C0F3000141EAD21313F065
:10D80800FF0F40F0C3847F2207212046FDF7E4FB89
:10D81800A17901F00403DAB28146002A00F0D3842A
:10D82800607900F00801CBB27BB100F00202D0B2FF
:10D83800002800F0D184D4F880202046516A884717
:10D848008146B9F1000F40F0B084E679687816F0A7
:10D85800010F14BF70266026B04208D0204605216B
:10D868003246FDF7B9FB2B4B49EA00095E70B9F166
:10D87800000F40F09A84A27902F00401CEB2002E83
:10D8880040F09E8494F8400194F80831061C18BFB3
:10D8980001260BB1721CD6B294F8B01109B1013649
:10D8A800F6B2012E94BF00260126A878B0420AD00D
:10D8B800204676213246FDF78FFB8146002840F04E
:10D8C8006086144B9E700320FDF76AFC94F8942040
:10D8D800E978914281460BD020460221FDF77CFB76
:10D8E800814600287FF43AAC94F894200948C27025
:10D8F80094F895202B79934210D020461521FDF7F6
:10D908006BFB814600287FF429AC94F89510014AF6
:10D91800117103E00C570020587E0308002194F889
:10D9280096202046FDF758FB49EA00090020FDF73C
