:020000040800F2
:10000000E0FF002001DC0008E1AF0008E5AF0008D8
:10001000EDAF0008F5AF0008FDAF000800000000DC
:1000200000000000000000000000000005B0000813
:1000300009B00008000000000DB00008B5BB0008C2
:1000400079DC000879DC000879DC000801BD0008D3
:1000500079DC000879DC0008F9C60008759800080A
:1000600079DC000879DC000879DC000879DC00081C
:1000700079DC000879DC000879DC000879DC00080C
:1000800079DC000879DC000879DC00080000000059
:1000900000000000000000000000000079DC000803
:1000A00079DC000879DC000879DC000879DC0008DC
:1000B00079DC000879DC000879DC000875B10008FB
:1000C0009DB2000879DC000879DC000879DC0008C2
:1000D00079DC000879DC000879DC00080000000009
:1000E00079DC000879DC000879DC000800000000F9
:1000F00000000000000000000000000079DC0008A3
:100100000000000079DC000851C1000879DC00081B
:1001100000000000000000000000000000000000DF
:1001200079DC000879DC000879DC000879DC00085B
:1001300079DC000800000000000000000000000062
:1001400000000000000000000000000079DC000852
:1001500079DC000879DC000879DC000879DC00082B
:1001600079DC000879DC00080000000000000000D5
:10017000000000000000000000000000000000007F
:100180000000000079DC0008000000000000000012
:1001900079DC000832EEFFC0000001205DDC0008C1
:08800000000D0000010000006A
:1080080081F0004102E000BF83F0004330B54FEA41
:1080180041044FEA430594EA050F08BF90EA020FAE
:108028001FBF54EA000C55EA020C7FEA645C7FEA41
:10803800655C00F0E2804FEA5454D4EB5555B8BF64
:108048006D420CDD2C4480EA020281EA030382EAD5
:10805800000083EA010180EA020281EA0303362D67
:1080680088BF30BD11F0004F4FEA01314FF4801C3A
:108078004CEA113102D0404261EB410113F0004F4C
:108088004FEA03334CEA133302D0524263EB430303
:1080980094EA050F00F0A780A4F10104D5F1200EA1
:1080A8000DDB02FA0EFC22FA05F2801841F10001FC
:1080B80003FA0EF2801843FA05F359410EE0A5F1D0
:1080C80020050EF1200E012A03FA0EFC28BF4CF001
:1080D800020C43FA05F3C01851EBE37101F00045B7
:1080E80007D54FF0000EDCF1000C7EEB00006EEBC4
:1080F8000101B1F5801F1BD3B1F5001F0CD349084E
:108108005FEA30004FEA3C0C04F101044FEA4452A4
:1081180012F5800F80F09A80BCF1004F08BF5FEA2B
:10812800500C50F1000041EB045141EA050130BD0B
:108138005FEA4C0C404141EB010111F4801FA4F1AE
:108148000104E9D191F0000F04BF01460020B1FA03
:1081580081F308BF2033A3F10B03B3F120020CDA3B
:108168000C3208DD02F1140CC2F10C0201FA0CF019
:1081780021FA02F10CE002F11402D8BFC2F1200C7E
:1081880001FA02F120FA0CFCDCBF41EA0C01904034
:10819800E41AA2BF01EB0451294330BD6FEA04047D
:1081A8001F3C1CDA0C340EDC04F11404C4F1200268
:1081B80020FA04F001FA02F340EA030021FA04F37A
:1081C80045EA030130BDC4F10C04C4F1200220FAD1
:1081D80002F001FA04F340EA0300294630BD21FA0F
:1081E80004F0294630BD94F0000F83F4801306BFD5
:1081F80081F480110134013D4EE77FEA645C18BFC9
:108208007FEA655C29D094EA050F08BF90EA020F5F
:1082180005D054EA000C04BF1946104630BD91EA57
:10822800030F1EBF0021002030BD5FEA545C05D15A
:108238004000494128BF41F0004130BD14F5800499
:108248003CBF01F5801130BD01F0004545F0FE410D
:1082580041F470014FF0000030BD7FEA645C1ABF42
:10826800194610467FEA655C1CBF0B46024650EA79
:10827800013406BF52EA033591EA030F41F40021A5
:1082880030BD00BF90F0000F04BF0021704730B52B
:108298004FF4806404F132044FF000054FF0000100
:1082A80050E700BF90F0000F04BF0021704730B5C1
:1082B8004FF4806404F1320410F0004548BF404296
:1082C8004FF000013EE700BF42004FEAE2014FEAEB
:1082D80031014FEA02701FBF12F07F4393F07F4FC6
:1082E80081F06051704792F0000F14BF93F07F4FF8
:1082F800704730B54FF4607401F0004521F000413B
:1083080020E700BF50EA010208BF704730B54FF0C0
:1083180000050AE050EA010208BF704730B511F0C5
:10832800004502D5404261EB41014FF4806404F1FD
:1083380032045FEA915C3FF4DCAE4FF003025FEA7F
:10834800DC0C18BF03325FEADC0C18BF033202EB07
:10835800DC02C2F1200300FA03FC20FA02F001FA61
:1083680003FE40EA0E0021FA02F11444C1E600BF00
:1083780070B54FF0FF0C4CF4E06C1CEA11541DBFB3
:108388001CEA135594EA0C0F95EA0C0F00F0DEF87E
:108398002C4481EA030621EA4C5123EA4C5350EA63
:1083A800013518BF52EA033541F4801143F48013B4
:1083B80038D0A0FB02CE4FF00005E1FB02E506F045
:1083C8000042E0FB03E54FF00006E1FB03569CF09A
:1083D800000F18BF4EF0010EA4F1FF04B6F5007FA0
:1083E80064F5407404D25FEA4E0E6D4146EB060612
:1083F80042EAC62141EA55514FEAC52040EA5E509B
:108408004FEACE2EB4F1FD0C88BFBCF5E06F1ED844
:10841800BEF1004F08BF5FEA500E50F1000041EB7B
:10842800045170BD06F0004646EA010140EA020028
:1084380081EA0301B4EB5C04C2BFD4EB0C0541EA4A
:10844800045170BD41F480114FF0000E013C00F35F
:10845800AB8014F1360FDEBF002001F0004170BD83
:10846800C4F10004203C35DA0C341BDC04F114049C
:10847800C4F1200500FA05F320FA04F001FA05F228
:1084880040EA020001F0004221F0004110EBD370F5
:1084980021FA04F642EB06015EEA430E08BF20EA21
:1084A800D37070BDC4F10C04C4F1200500FA04F3C4
:1084B80020FA05F001FA04F240EA020001F0004156
:1084C80010EBD37041F100015EEA430E08BF20EAC9
:1084D800D37070BDC4F1200500FA05F24EEA020E11
:1084E80020FA04F301FA05F243EA020321FA04F040
:1084F80001F0004121FA04F220EA020000EBD370F7
:108508005EEA430E08BF20EAD37070BD94F0000FF6
:108518000FD101F00046400041EB010111F4801F2A
:1085280008BF013CF7D041EA060195F0000F18BFDB
:10853800704703F00046520043EB030313F4801F17
:1085480008BF013DF7D043EA0603704794EA0C0FD1
:108558000CEA135518BF95EA0C0F0CD050EA4106E7
:1085680018BF52EA4306D1D181EA030101F0004164
:108578004FF0000070BD50EA410606BF104619468C
:1085880052EA430619D094EA0C0F02D150EA013698
:1085980013D195EA0C0F05D152EA03361CBF1046D9
:1085A80019460AD181EA030101F0004141F0FE4178
:1085B80041F470014FF0000070BD41F0FE4141F4FC
:1085C800780170BD70B54FF0FF0C4CF4E06C1CEAFC
:1085D80011541DBF1CEA135594EA0C0F95EA0C0FB1
:1085E80000F0A7F8A4EB050481EA030E52EA03356C
:1085F8004FEA013100F088804FEA03334FF080558D
:1086080045EA131343EA12634FEA022245EA1115B9
:1086180045EA10654FEA00260EF000419D4208BF6A
:10862800964244F1FD0404F5407402D25B084FEA17
:108638003202B61A65EB03055B084FEA32024FF4C3
:1086480080104FF4002CB6EB020E75EB030E22BF20
:10865800B61A754640EA0C005B084FEA3202B6EBE0
:10866800020E75EB030E22BFB61A754640EA5C008F
:108678005B084FEA3202B6EB020E75EB030E22BF1F
:10868800B61A754640EA9C005B084FEA3202B6EB20
:10869800020E75EB030E22BFB61A754640EADC00DF
:1086A80055EA060E18D04FEA051545EA16754FEA41
:1086B80006164FEAC30343EA52734FEAC2025FEA5F
:1086C8001C1CC0D111F4801F0BD141EA00014FF0EE
:1086D80000004FF0004CB6E711F4801F04BF0143BF
:1086E8000020B4F1FD0C88BFBCF5E06F3FF6AFAEDB
:1086F800B5EB030C04BFB6EB020C5FEA500C50F16B
:10870800000041EB045170BD0EF0004E4EEA1131ED
:1087180014EB5C04C2BFD4EB0C0541EA045170BDF4
:1087280041F480114FF0000E013C90E645EA060E38
:108738008DE60CEA135594EA0C0F08BF95EA0C0F66
:108748003FF43BAF94EA0C0F0AD150EA01347FF4AE
:1087580034AF95EA0C0F7FF425AF104619462CE785
:1087680095EA0C0F06D152EA03353FF4FDAE1046E8
:10877800194622E750EA410618BF52EA43067FF439
:10878800C5AE50EA41047FF40DAF52EA43057FF4C9
:10879800EBAE12E74FF0FF3C06E000BF4FF0010CD4
:1087A80002E000BF4FF0010C4DF804CD4FEA410C38
:1087B8007FEA6C5C4FEA430C18BF7FEA6C5C1BD005
:1087C80001B050EA410C0CBF52EA430C91EA030F86
:1087D80002BF90EA020F0020704710F1000F91EAE3
:1087E800030F58BF994208BF90422CBFD8176FEAB1
:1087F800E37040F0010070474FEA410C7FEA6C5C7F
:1088080002D150EA013C07D14FEA430C7FEA6C5C85
:10881800D6D152EA033CD3D05DF8040B704700BFB1
:108828008446104662468C461946634600E000BFFF
:1088380001B5FFF7B7FF002848BF10F1000F01BDD1
:108848004DF808EDFFF7F4FF0CBF012000205DF89C
:1088580008FB00BF4DF808EDFFF7EAFF34BF012021
:1088680000205DF808FB00BF4DF808EDFFF7E0FFBA
:1088780094BF012000205DF808FB00BF4DF808ED0B
:10888800FFF7CEFF94BF012000205DF808FB00BF72
:108898004DF808EDFFF7C4FF34BF012000205DF854
:1088A80008FB00BF4FEA410212F5001215D211D59C
:1088B8006FF47873B3EB625212D94FEAC12343F0D5
:1088C800004343EA505311F0004F23FA02F018BF57
:1088D800404270474FF00000704750EA013005D120
:1088E80011F0004008BF6FF0004070474FF00000E3
:1088F800704700BF4FEA4102B2F1E04324BFB3F52D
:10890800001CDCF1FE5C0DD901F0004C4FEAC002FE
:108918004CEA5070B2F1004F40EB830008BF20F0E2
:108928000100704711F0804F21D113F13872BCBF9C
:1089380001F00040704741F480114FEA5252C2F1F1
:108948001802C2F1200C10FA0CF320FA02F018BF3A
:1089580040F001004FEAC1234FEAD32303FA0CFC8D
:1089680040EA0C0023FA02F34FEA4303CCE77FEA1C
:10897800625307D150EA01331EBF4FF0FE4040F466
:108988004000704701F0004040F0FE4040F4000015
:10899800704700BF80F0004002E000BF81F0004156
:1089A80042001FBF5FEA410392EA030F7FEA226C8D
:1089B8007FEA236C6AD04FEA1262D2EB1363C1BF1D
:1089C800D218414048404140B8BF5B42192B88BF8C
:1089D800704710F0004F40F4000020F07F4018BFAF
:1089E800404211F0004F41F4000121F07F4118BFCF
:1089F800494292EA030F3FD0A2F1010241FA03FC77
:108A080010EB0C00C3F1200301FA03F100F000435E
:108A180002D5494260EB4000B0F5000F13D3B0F126
:108A2800807F06D340084FEA310102F10102FE2A95
:108A380051D2B1F1004F40EBC25008BF20F0010005
:108A480040EA03007047490040EB000010F4000FB3
:108A5800A2F10102EDD1B0FA80FCACF1080CB2EB46
:108A68000C0200FA0CF0AABF00EBC25052421843A5
:108A7800BCBFD0401843704792F0000F81F400014A
:108A880006BF80F400000132013BB5E74FEA41031D
:108A98007FEA226C18BF7FEA236C21D092EA030F89
:108AA80004D092F0000F08BF0846704790EA010F03
:108AB8001CBF0020704712F07F4F04D1400028BF30
:108AC80040F00040704712F100723CBF00F5000012
:108AD800704700F0004343F0FE4040F40000704748
:108AE8007FEA226216BF08467FEA236301464202F4
:108AF80006BF5FEA412390EA010F40F48000704707
:108B08004FF0000304E000BF10F0004348BF4042AC
:108B18005FEA000C08BF704743F0964301464FF0E8
:108B280000001CE050EA010208BF70474FF0000344
:108B38000AE000BF50EA010208BF704711F0004385
:108B480002D5404261EB41015FEA010C02BF844655
:108B58000146002043F0B64308BFA3F18053A3F5B4
:108B68000003BCFA8CF2083AA3EBC25310DB01FAFB
:108B780002FC634400FA02FCC2F12002BCF1004F7F
:108B880020FA02F243EB020008BF20F00100704710
:108B980002F1200201FA02FCC2F1200250EA4C0064
:108BA80021FA02F243EB020008BF20EADC707047AA
:108BB80073B96AB9002908BF0028BCBF00204FF06C
:108BC8000041C4BF6FF000414FF0FF3000F072B8B1
:108BD80082B0EC462DE9005000F040F8DDF804E0E2
:108BE80002B00CBC704700BF4BB942B9002908BF9E
:108BF800002802D04FF0FF31084600F05BB882B081
:108C0800EC462DE9005000F03FF8DDF804E002B032
:108C18000CBC704770B5FFF757FB00230022C3F662
:108C2800F05304460D46FFF7A3FB00F045F806464F
:108C3800FFF728FB00230022C4F2F013FFF798FB8C
:108C480002460B4620462946FFF7DEF900F034F8C5
:108C5800002202431046314670BD00BFF8B51646E3
:108C680004460D461F4600F047F806FB01F300FBDB
:108C78000737A6FB0023FB18A21A65EB0303069C23
:108C8800C4E90023F8BD00BFF8B5164604460D46F2
:108C98001F4600F08FF900FB07F7A0FB062306FB31
:108CA8000177FB18A21A65EB0303069CC4E90023AD
:108CB800F8BD00BF704700BF4A0011D212F500127C
:108CC80011D20DD56FF47873B3EB62520ED44FEA1C
:108CD800C12343F0004343EA505323FA02F070479C
:108CE8004FF00000704750EA013002D14FF0FF30DA
:108CF80070474FF00000704700292DE9F00F1D461E
:108D0800C0F29D800024002DC0F2948080460F465A
:108D180094461E46E3BB8A4255D9B2FA82F747B158
:108D2800C7F1200520FA05F601FA07F1BA403143E8
:108D3800B840170CB1FBF7F6030C1FFA82FC07FBCF
:108D480016110CFB06F543EA01439D4208D9711E32
:108D58009B1880F013819D4240F21081023E9B18BF
:108D6800591BB1FBF7F507FB151380B20CFB05FC8B
:108D780040EA03418C4507D96B1E8A1880F00081B0
:108D8800944540F2FD80023D45EA0641002503E096
:108D98008B420CD9002529460A462B4614B152426B
:108DA80063EB430310461946BDE8F00F7047B3FA6A
:108DB80083F5002D40F087808B4201D38242EAD8A8
:108DC80000250121E8E712B90126B6FBF2F2B2FA52
:108DD80082F6002E39D18E1A130C1FFA82FC012557
:108DE800B6FBF3F703FB17614FEA10490CFB07F8D2
:108DF80049EA0146B04506D9791EB61802D2B045EF
:108E080000F2D3800F46C8EB0606B6FBF3F103FB6E
:108E1800116380B20CFB01FC40EA03439C4506D970
:108E28004E1E9A1802D2944500F2C280314641EA99
:108E38000741B1E7E443524263EB430366E740422C
:108E480061EB41014FF0FF345DE7B240C6F1200904
:108E580021FA09F720FA09F5130C01FA06F1B7FB14
:108E6800F3F845EA01091FFA82FC03FB18774FEA79
:108E780019410CFB08F541EA0747B040BD420AD941
:108E8800BF1808F1FF3680F08E80BD4240F28B801B
:108E9800A8F10208BF18791BB1FBF3F503FB1517FE
:108EA8001FFA89F90CFB05F649EA07418E4206D9F3
:108EB8006F1E891871D28E426FD9023D89188E1B98
:108EC80045EA08458CE7C5F1200122FA01F306FAC4
:108ED80005F61E4327FA01F24FEA164907FA05F785
:108EE80020FA01F1B2FBF9F80F433B0C1FFA86FA9E
:108EF80009FB18220AFB08FB43EA024293450CFAD5
:108F080005FC08D9921908F1FF314AD2934548D98E
:108F1800A8F102089219CBEB0203B3FBF9F109FBA4
:108F28001132BFB20AFB01FA47EA02439A4506D951
:108F38004A1E9B1933D29A4531D902399B1941EA05
:108F480008410F0C1FFA8CF808FB07F68AB24FEAA3
:108F58001C4C08FB02F80CFB026202EB18420CFBEB
:108F680007FC964288BF0CF5803CCAEB03030CEB68
:108F7800124C63450ED305D000250DE70E46EFE6EB
:108F88001D4601E71FFA88F800FA05F008EB0245CC
:108F9800A842F1D201390025FEE63D468FE7114689
:108FA800CDE78846B7E7B04675E7023FB6182AE727
:108FB80002393CE72DE9F007144605460E46002B1A
:108FC8003DD18A4249D9B2FA82F747B1C7F12001A7
:108FD80020FA01F206FA07F6BC401643BD40220CFF
:108FE800B6FBF2F02F0CA1B202FB106601FB00F3F6
:108FF80047EA0646B34208D9471E361980F0F8807A
:10900800B34240F2F58002383619F61AB6FBF2F38D
:1090180002FB1362ADB201FB03F145EA0242914241
:1090280007D95E1E121980F0E580914240F2E28075
:10903800023B43EA00400021BDE8F00770478B423D
:1090480043D8B3FA83F4002C42D18B4202D3824234
:1090580000F2DF8000210120EEE712B90127B7FBFB
:10906800F2F4B4FA84F2002A40F088800A1B230C38
:10907800A7B20121B2FBF3F603FB16224FEA154C07
:1090880007FB06F04CEA0242904207D9121906F192
:10909800FF3C02D2904200F2CE806646121AB2FB22
:1090A800F3F003FB1023ADB207FB00F745EA0343D7
:1090B8009F4207D9421E1B1980F09E809F4240F2B2
:1090C8009B80023840EA0640B6E700210846B3E72D
:1090D800C4F1200622FA06F503FA04F32B434FEAFB
:1090E800134C21FA06F501FA04F120FA06F6B5FB4D
:1090F800FCF746EA010A1FFA83F80CFB17554FEAFA
:109108001A4108FB07F941EA0545A94502FA04F2A4
:1091180003D97E1EED187FD33746C9EB0501B1FB95
:10912800FCF60CFB16151FFA8AFA08FB06F84AEA41
:109138000541884503D9751EC91873D32E4646EADA
:109148000746370C1FFA82FC0CFB07F5120CB3B26A
:109158000CFB03FC02FB035303EB1C4302FB07F26B
:109168009D4288BF02F58032C8EB010102EB134231
:1091780091424BD342D0304600215DE79440C2F182
:10918800200521FA05F6230C20FA05F701FA02F169
:10919800B6FBF3FC39430D0CA7B203FB1C6645EA8A
:1091A800064607FB0CF8B04500FA02F508D936194F
:1091B8000CF1FF303DD2B0453BD9ACF1020C361969
:1091C800C8EB0602B2FBF3F003FB10268AB242EAB0
:1091D800064207FB00F1914206D9461E121926D213
:1091E800914224D902381219521A40EA0C4141E737
:1091F80038460AE733461CE7104663E71FFA8CFC3B
:1092080000FA04F00CEB03439842B4D2701E00211C
:1092180012E7214620460FE7A9457FF67DAF023FBA
:10922800ED187AE7884589D9023EC91887E730469C
:10923800DAE78446C4E7023E12192FE700B583B087
:1092480002AB024603F8011D18201146012202F064
:109258001BF9002003B000BD10B504460B461820CA
:10926800214602F0D5F9002010BD00BF30B501201D
:10927800002483B0C4F20204014603F057FF4FF400
:10928800006500230122204669468DF804208DF8E8
:1092980005308DF806308DF80730009503F0B2FBE5
:1092A8002946204603F05CFC052002F005FD29460E
:1092B800204603F057FC052002F0FEFC2046294614
:1092C80003F04EFC052002F0F7FC03B030BD00BFF0
:1092D8002DE9F0414FF4E06004F058F972B64FF010
:1092E8000060314904F09CF962B64FF47A7002F0DC
:1092F80017FE2E4EDFF8C480642002F0DDFC002447
:109308004FF47A733460C8F8003002F0CFFB0321C1
:1093180022462748274B08F0DDFF00F09BF8032181
:109328002246254B224808F0D5FF45F255503568AE
:1093380004F092FB022004F095FB44F240274FF41E
:109348007A6004F095FBC0F20F0704F09FFB0DE074
:10935800B84234BF05463D46284602F017FD0021B5
:109368000120C8F8005003F0A1F9254604F086FB57
:1093780062B600F0EBF972B634682946204600F070
:10938800D3F900F0EDF90028EFD0431CE0D144F206
:109398004020C0F20F0002F0F9FC00210120C8F8BB
:1093A800007003F083F9E0E7000000002C0B0020B8
:1093B800045F03080C5F0308245F0308280B0020E0
:1093C80040F62C3340F62832C2F20003C2F2000203
:1093D8001968106842181A60704700BF30B500223B
:1093E80083B00B4B05460C460A48012108F072FF72
:1093F800A9B2684608F0CAFF684602F0C3FB3A20E3
:1094080002F0ACFB204602F0BDFB00BFFDE700BF49
:10941800385F0308045F030830B583B004460D467F
:1094280000F038FD50F8240038B103682422009277
:109438009C68052102222B46A04703B030BD00BF1F
:1094480008B572B602F00CFC62B664220023FFF77E
:10945800CBFB08BD2DE9F04F94489FB008F0B4FF4E
:10946800934A944B944995481A60086001F0A2FF0A
:10947800934800F0CFF904F0DDFF00F00BFD4FF04A
:10948800010A061D002400254FF00009D04656F8B1
:10949800047B77B1384600F0D5FC3A683846536803
:1094A800984730B108FA0AF046F8049C044345EAA4
:1094B800E075B3460AF1010A5BF8047B77B13846D8
:1094C80000F0C0FC396838464A68904730B108FA5D
:1094D8000AF34BF8049C1C4345EAE37577680AF1E4
:1094E800010B08367FB1384600F0ACFC39683846C5
:1094F8004A68904738B108FA0BFB46F8049C44EADE
:109508000B0445EAEB750AF1020ABAF12E0FBED137
:1095180054EA05011ED04FF000080126002709E093
:109528006D084FEA340408F1010C54EA05035FFAA8
:109538008CF80FD004EA060205EA070352EA030191
:10954800EED0CDF800805F485F4B0121002208F083
:10955800C1FEE5E7DFF8CC815C4F5D4E5D4D5E4CAA
:1095680005F012F82621D8F800005C4A00F016FE33
:109578005B48D8F8003001685A4A386819602721D2
:1095880000F00CFE584A3B6811683068574A196069
:10959800282100F003FE564B30681A68026000F07C
:1095A800CBFD26210368D8F80000984700F0C4FDD9
:1095B800272102683868904700F0BEFD2821076817
:1095C8003068B84720202621C1224A4B01F040F9D3
:1095D80021202721C122484B01F03AF9474B22208C
:1095E8002821022201F034F92868454A292100F08F
:1095F800D5FD44492E680B682068434A33602A2108
:1096080000F0CCFD414A20681768076000F094FD1F
:10961800292106682868B04700F08EFD2A210568D0
:109628002068A847232029210622394B01F010F988
:1096380024202A210222374B01F00AF900F01EFBF0
:1096480050B100211F48344B0A4608F043FE4FF042
:10965800FF303249FFF7C2FE314D0FCD03AF0FC7C0
:109668000FCD2C460FC754F804EB0FCC0CAE0FC629
:109678000FCC203DC7F800E00FC60FCD15AF0FC7C0
:109688000FCD0FC72368C7F800E0012003A9336096
:10969800FFF7C2FE02200CA9FFF7BEFE042015A9A1
:1096A800FFF7BAFE1FB0BDE8F08F00BFA08300200F
:1096B80000400008C8830020CC83002000800008F8
:1096C80081290108006003080C60030824060020B3
:1096D80048060020CC050020B0050020445F0308A0
:1096E80028060020645F030808060020845F03083A
:1096F8002C06002009210108152101082121010853
:10970800A85F0308EC050020D45F0308D0050020FB
:10971800451D0108511D010828600308446003081D
:10972800205D03084C06002048F2A033C2F2000373
:1097380044F6D35210B4411A1C68C1F26202A2FB6B
:10974800010204EB92141C6010BC704708B5034872
:1097580008F0AEFE0028FAD108BD00BFA0830020A3
:1097680008B5044808F038FE431C1CBF4FF47A7350
:10977800584308BDA083002010B413786BB10024AF
:109788002146035512F8013F01310C46002BF8D150
:1097980000220255084610BC70471C461946F7E7D8
:1097A80010B5044602F0DAF9204610BD30B504467B
:1097B80085B030B1022003F08DFB0020012103F0B9
:1097C80005F90223002502A80C2102938DF80C50FC
:1097D8008DF80D108DF80E4003F034FB0722052399
:1097E80001A88DF804208DF805508DF806308DF805
:1097F800074003F0D5FE05B030BD00BF10B5044CDE
:10980800237823B10020FFF7D1FF0020207010BD7E
:10981800340B002030B50546012083B0014603F023
:1098280085FC01214FF4804003F09CFC0020034696
:10983800012469460222C4F2020000928DF8043025
:109848008DF805308DF806408DF8074003F0DAF8FA
:1098580040F6303040F63431C2F20000C2F2000166
:1098680005600C70FFF7CAFF03B030BD08B50220D1
:1098780003F026FB00B908BD022003F02BFB034BC5
:1098880018680028F7D0804708BD00BF300B0020BB
:10989800034646F27000C0F603000321002208F0D8
:1098A80019BD00BF704700BF02F006BA002070471C
:1098B800400008B500F0FE0001F0E6FD002008BDFC
:1098C800400008B500F0FE0001F0A2FE002008BD2F
:1098D80010B572B604F06CFA04F086FA01F002FDD5
:1098E80040F6F030C2F2000008F034FE40F6EC31E9
:1098F80040F61443C2F20001C2F2000300220A70CB
:109908001A7062B646F27C0046F29003C0F6030075
:109918000121C0F60303BDE8104008F0DBBC00BF1E
:10992800003018BF012001F07DB800BF0000000022
:109938002DE9F0412A4EDFF8C480012701E03460A8
:10994800BDB9002010F046FC0546002001F002FBDE
:109958000446012001F0FEFA0419F0D0316800290C
:10996800EDD1204888F8007008F0EEFD3460002D35
:10997800E7D072B6EB1C21D002F072F962B61A4B2E
:10998800D3E90023801A61EB030113A3D3E9002371
:109998008B4208BF824201D3BDE8F08172B6002035
:1099A80004F05AFA02210022104B114808F092FCE8
:1099B800104808F0CFFD62B6BDE8F0810E48017886
:1099C80019B103785A1ED1B2017000780028F2D17B
:1099D800EEE700BFAFF300803F771B0000000000F8
:1099E800E80B0020BC0B0020600B0020CC600308B3
:1099F8007C600308380B0020ED0B0020B80B00201A
:109A080038B572B61B4C1C4D237803F00202D0B255
:109A180058B9297849B903F00402D0B280B90023B3
:109A2800237062B62A78D2B138BD04F0C9F9134B55
:109A38001968C9B9237803F00402D0B20028EED01F
:109A480004F0DAF90D4949680029E8D00C4808F013
:109A58007BFD0023237062B62A78002AE4D10948E6
:109A6800BDE8384008F076BD074808F06DFD23785A
:109A7800E1E700BF140C0020B80B0020B00B002059
:109A88008C0B0020BC0B0020680B002072B67047BE
:109A980062B6704710292DE9F04780462BD0082977
:109AA80004D00139012915D9BDE8F087374C217850
:109AB80061B12278511CCBB2237072B602F0D0F893
:109AC80062B6334AC2E90001BDE8F087314808F0C0
:109AD8003BFDEEE704F082F9044604F09BF984426A
:109AE80013D001F0FFFB2C4808F034FD2B4B00226B
:109AF8001A70BDE8F087B0F1020CDCF1000050EB01
:109B08000C00BDE8F04700F08DBFDFF8909099F8A1
:109B180000000028C8D1DFF88CA0214E02F0A0F880
:109B28009AF8007004460D466FB9D6E90023801AEA
:109B380061EB030148F27F42C0F21E0200238B4210
:109B480008BF824215D200236422B8F10201D1F184
:109B5800000858EB010820462946FFF745F83A4621
:109B68000146404600F064FEC6E9004500238AF835
:109B78000030012089F8000001F0A8FB06484FF4E6
:109B8800FA61BDE8F04708F0DFBC00BFED0B00202C
:109B9800600B0020380B0020F00B0020EC0B00209D
:109BA800E00B0020B80B002010B5044604F0A8FB19
:109BB80072B600F5805008F0E3FC62B600B910BD3B
:109BC800064B07481A78012101FA04F414430021CE
:109BD8001C70BDE8104008F0B7BC00BF140C002092
:109BE800BC0B002038B50C4B0C4A43F820100C462F
:109BF80000EBC00029B902EB8000BDE8384008F04E
:109C0800A9BC02EB8005284608F09AFC28462146A4
:109C1800BDE8384008F098BCB00B0020680B002065
:109C280008B572B602F01CF862B664220023FEF78B
:109C3800DBFF08BD30B4022505700120087004213F
:109C4800117046F2EC02C0F603021A604BF6EF649C
:109C5800029BCDF6AD641C6030BC704701230370D5
:109C6800704700BF00221A60704700BF802204F0CE
:109C780065BA00BF04F004B9704700BFF0B585B0FD
:109C880000F0F8FD6420002600F0C4FE394D00966F
:109C9800FE230193FD2402963749384A384B394848
:109CA80008F01CFC01270096019402963649374AB1
:109CB800374B2E70334808F011FC00970194029638
:109CC8003449354A324B2F4808F008FC8DE8C0006B
:109CD80002963249324A334B2A4808F0FFFB7F206C
:109CE8000190009602963049304A314B254808F0D9
:109CF800F5FB72B601F0B4FF04460D4662B6DFF814
:109D0800CCE02C49CEE900452B4C0F7026602B4C3B
:109D18008022602331463046267004F073FB3146BA
:109D28004FF480524FF44063384604F06BFB3146E1
:109D38004FF440634FF48052022004F063FB01F0BB
:109D4800DDFA01F0CFFA1E4A167004F031F804F07B
:109D58004BF83846D62101F057F908B905B0F0BDDF
:109D68001848194B3146324608F0B4FA4FF0FF3024
:109D7800F4E700BFED0B0020380B0020F460030867
:109D880039990008A0830020680B002000610308AF
:109D9800299900088C0B002014610308BC0B0020D3
:109DA80028610308099A0008F00B00203C610308A9
:109DB800D9980008B80B0020E80B0020140C0020EC
:109DC800EC0B00207C60030854610308E00B0020C2
:109DD80008B572B601F044FF62B664220023FEF7AC
:109DE80003FF08BD08B502F0A7FCD0F1010038BF99
:109DF800002008BDF8B50023114D044619465A1C29
:109E0800EF5CE35CAE5CA05C9F4218BF0121531C71
:109E1800864218BF0121402BF1D151B90023E15CE2
:109E28005A1CE9540233A05C402BA854F7D10120F6
:109E3800F8BD204602F0CCFC0028EFD00020F8BD89
:109E4800180C002000238360C360036143607047DF
:109E58002DE9F047446882B08846DDF828A0BDF8AF
:109E68002C9017461E4664B1CDF800A0CDF804909A
:109E78002046656841463A463346A8472468002C80
:109E8800F2D102B0BDE8F08740F65843C2F20003B1
:109E98001860704740F65843C2F2000318687047CC
:109EA8002DE9F0474368D0F808A0064682B08846F6
:109EB800C06806F1080906F10C07002B6AD0DD68B6
:109EC8001A68B5601C69F46072B1D468AC4238BFD6
:109ED800C9F8004011693D681268A94238BF396065
:109EE800B568002AF1D1F468AA4518BF48F00808F7
:109EF800A04218BF48F0100818F0020F41D118F01E
:109F0800040F33D118F0080526D118F0100417D122
:109F18005DB93CB1042100220097019130461346F7
:109F2800FFF796FF02B0BDE8F087042000220190F9
:109F3800CDF80090304603211346FFF789FFE8E784
:109F4800336804210091D3F808C0304600223B460C
:109F5800E047002DDDD0E8E73168042200928C68E4
:109F68003046032100224B46A047CEE73068002246
:109F78000092846802213046134628F01808A0474A
:109F8800C0E73368002200929D68304601211346DD
:109F9800A847B4E71C46B360F3601D46A4E700BFBA
:109FA80010B40024046042608160C46004614361AD
:109FB80010BC7047C16080680021FFF771BF00BF07
:109FC800016180680021FFF76BBF00BF38B501460B
:109FD8000446806850F8045F08F0DCF9002D0CBFD7
:109FE80002250025A0682946BDE83840FFF758BF7C
:109FF80010B5014604468068043008F0D7F948B91E
:10A00800A068416800290CBF04210021BDE8104068
:10A01800FFF746BF10BD00BF0A4610B5014682B122
:10A028002E2A0ED868B1094800F0EEF8044650B15F
:10A03800FFF7DEFF0548214600F08EF9002040B208
:10A0480010BDFC20FBE7FE20F9E700BF1C02002042
:10A05800F8B50C4605461646F1B12E291CD8D8B1DC
:10A06800D2B1FFF717FF50F82470C7B122460E4847
:10A07800294600F0C9F8044698B103460B4A394608
:10A08800FFF78EFF2046FFF7A1FF20463146FFF776
:10A0980091FF002040B2F8BDFC2040B2F8BDFB2083
:10A0A800F8E7FD20F6E700BF1C0200200DA100081C
:10A0B80038B50C46054669B12E290BD850B1FFF7C3
:10A0C800E9FE2B68043540F82450186880470021C1
:10A0D80048B238BDFC21FBE730B50D4683B01446C5
:10A0E80068B10093BDF818300430019300212A4666
:10A0F8002346FFF7ADFE002040B203B030BDFC2080
:10A10800FAE700BF10B559B94069A0B1C469007E2B
:10A1180023681146DC68029ABDF80C30A04710BDD0
:10A12800032908D1436933B1DA69187E02991368A3
:10A1380009681A69904710BD10B5054C237823B9F2
:10A14800044800F043F801202070034810BD00BF08
:10A158005C0C00201C0200200C020020002070472C
:10A16800022908B50BD005290FD0012901D00020FC
:10A1780008BD0369186841688847002008BD006960
:10A18800026891688847002008BD092AEFD1026952
:10A19800116818464B699847E9E700BF80F8241012
:10A1A80082614AF269114AF26512002310B4C0F6BE
:10A1B800000200F11804C0F60001C26101624460A7
:10A1C8008360C3600361406110BC70472E22002386
:10A1D8000276C36180F83820C36380F85820C365CD
:10A1E80080F87820C36780F89820C0F89C3080F801
:10A1F800B820C0F8BC3080F8D820C0F8DC3080F82F
:10A20800F820C0F8FC307047C3698B4230B432D0B4
:10A21800002B61D00823C46B8C4231D0002C61D054
:10A22800C46D8C4232D0002C64D0C46F8C4233D0C1
:10A23800002C67D0D0F89C408C4233D0002C69D0D9
:10A24800D0F8BC408C4233D0002C6BD0D0F8DC4026
:10A258008C4233D0002C6DD0D0F8FC408C4233D0E7
:10A26800002C6FD0082B75D000EB43131846D9612A
:10A278001A7630BC7047047E9442C9D1002128E088
:10A2880090F838509542C9D1012122E090F85850F1
:10A298009542C8D102211CE090F878509542C7D168
:10A2A800032116E090F898509542C7D1042110E098
:10A2B80090F8B8509542C7D105210AE090F8D850D7
:10A2C8009542C7D1062104E090F8F8509542C7D1CD
:10A2D800072100EB4110CCE7047E2E2C14BF082385
:10A2E800002398E790F838402E2C99D1082B08BF06
:10A2F800012395E790F858402E2C96D1082B08BFDB
:10A30800022392E790F878402E2C93D1082B08BFAF
:10A3180003238FE790F898402E2C91D1082B08BF83
:10A3280004238DE790F8B8402E2C8FD1082B08BF56
:10A3380005238BE790F8D8402E2C8DD1082B08BF29
:10A34800062389E790F8F8402E2C8BD1082B08BFFC
:10A35800072389E700208CE788421BD000F12003FF
:10A36800994217D000F14002914213D000F16003E6
:10A3780099420FD000F1800291420BD000F1A00366
:10A38800994207D000F1C002914203D0E0308142E7
:10A3980000D070472E2000230876CB61704700BF9D
:10A3A8002DE9F0010269D0F80480D0F808C04369AB
:10A3B8000768C068B1F90260B1F90450B1F900400A
:10A3C800C2EB0802C3EB0C03381AC2F30F32C3F313
:10A3D8000F33C0F30F30B21AEB1A201AC8800A8163
:10A3E8004B81BDE8F001704710B448680C68896873
:10A3F80040F69842C2F2000224110011091114809B
:10A40800508091801A60019B06221A8010BC704708
:10A418008868F8B50F684E680A4C069D0013A0803E
:10A428003F1336130620182A2780668028801C6070
:10A4380000D0F8BD08462146FFF7B2FF0C232B8059
:10A44800F8BD00BF640C0020F8B588680F684E6836
:10A458000A4C069D3F133613001327806680A080A0
:10A468001C600623182A2B8000D0F8BD0846214618
:10A47800FFF796FF0C212980F8BD00BF700C002063
:10A4880040F67C424868C2F200021060886850605A
:10A49800C86890600868D0600969C1F38F20009986
:10A4A8001061122008801A60704700BF10B4486815
:10A4B8000C68896840F69042C2F2000289129180C5
:10A4C800801201995080A4120620148008801A6016
:10A4D80010BC704740F6A4420978C2F2000201207D
:10A4E8001170009908801A60704700BF096840F62B
:10A4F8005E42C2F2000248120099108002200880D1
:10A508001A60704740F660420968C2F200020220F1
:10A518001180009908801A60704700BF70B5044622
:10A528008AB000283CD080680C22036800929D689D
:10A538000521092207ABA84708B10AB070BD94F8F5
:10A548002910089BBDF8242021F080001F281DDC5D
:10A558001A4D55F83050FDB1F3B119460DF11603F7
:10A56800009306ABA84794F82910069BBDF816205F
:10A578009DF9264001930320029200940246079B0E
:10A588000FF0A8FE03200FF0CDFED6E7A0F12006BD
:10A598000B4D55F83650DEE70693ADF81620E7E781
:10A5A80003202146009401940294024623460FF0AA
:10A5B80091FE03200FF0B6FEBFE700BFE861030875
:10A5C800A80C0020F8B503680F461BB31C4E1D48A5
:10A5D8004FF0FF31A3F1180494F8292022F08002EB
:10A5E8001F2A06EBC205D6BF00EBC20215F8FB2CEA
:10A5F800527902F00602042A04D0246914B1A14257
:10A6080028BF21461B68002BE4D1B1F1FF3F14BFDE
:10A618000B4600230C4C4FF4DE6000FB0742194642
:10A628003846C2F8E436FFF7DDFA94F8E01D01B9C0
:10A638002FB17B1CD8B2BDE8F8400FF073BEF8BD4F
:10A64800A80C0020E8610308E80C002038B590F851
:10A65800294090F828200D49E4094FF4DE650346A7
:10A6680005FB041502F00200C2B205F5DC652846B8
:10A6780003F118013AB907F099FE28462146BDE8CA
:10A688003840FFF79FBF07F085FEF6E7E80C00208B
:10A698002DE9F04F8A4690F8291087B0804621F0BE
:10A6A80080001F28109DBDF8447091469B463FDCF2
:10A6B800294C54F83040002C41D0002D3FD0294679
:10A6C8000DF112053A46009505ABA047059DBDF86A
:10A6D800127098F82910CE094FFA8BF3701C8DE888
:10A6E800A8005FFA8AF2C0B24B460FF0F3FD0246AB
:10A6F80060B11A494FF4DE6202FB061303F5DD660A
:10A7080093F8EC26FAB107B0BDE8F08F134B4FF47D
:10A71800DE6101FB063696F8EC0606F5DD660028D4
:10A72800F1D00F480F4B3271022107F0D3FDEAE751
:10A73800A0F120020C4B53F83240002CBDD10595F6
:10A74800ADF81270C7E7012131710548074B0221A6
:10A7580007F0C0FDD7E700BFE8610308E80C002058
:10A7680074610308B4610308A80C0020846103081D
:10A778002DE9F041446994F8295082B025F0800011
:10A788001F28DDF820C0BDF8247034DC254E06EB08
:10A79800C000467961BB94F82810D4F81C8001F0F9
:10A7A8002000C0B200282CD1C8EB020006F004013A
:10A7B800C9B229B9216A01EB4101B0EB910F17D356
:10A7C800DFF86880E261ED094FF4DE6E0EFB058E5E
:10A7D80001970127CDF800C0204600218EF8ED76BC
:10A7E800FFF756FF636A93B106F00606042E0ED0F3
:10A7F80002B0BDE8F0810C4E06EBC00010F8FB6C0F
:10A80800C8E721F02001206A84F82810CEE798F8DC
:10A81800E02D0AB9002DEBD0681C02B0BDE8F0416C
:10A828000FF080BDE8610308A80C0020E80C0020A8
:10A8380010B584B0002452B201300B468DE81400E4
:10A84800029421460122C0B20FF044FD04B010BDAD
:10A8580020F080002038072830B406D8044D05EBD6
:10A86800C00445F830306271217130BC704700BFB8
:10A87800A80C00202DE9F04FDFF89081DFF890A1B7
:10A8880083B04046002140F6E8522BF027F9002615
:10A898004FF454694FF47A730120C8F8E43D88F8FE
:10A8A800E00D34463546C0F203099DE046F2E81251
:10A8B800C0F6030293191F79FFF7ECFA50F827C086
:10A8C800002F3ED0BCF1000F3BD02C2000FB04F73A
:10A8D80008EB070B61465B464B4ACBF820505846BD
:10A8E800CBF824508BF828508BF82940CDF804C0B9
:10A8F800FFF756FBD8F8E41DB9FBF1F25846C8211A
:10A90800CBF82020FFF756FB07F5DE6308EB0307BB
:10A91800DDF804C03C4A3D6244F0800E384661468A
:10A928003B467D6287F8285087F829E0FFF738FB17
:10A93800D8F8E41DB9FBF1F23846C8213A62FFF7AE
:10A9480039FB013408361F2C56DC46F2E813C0F6F2
:10A9580003039F193F79FFF79DFA50F827C0002F8E
:10A968003ED0BCF1000F3BD02C2101FB04F708EBD3
:10A97800070B6146244ACBF820505B465846CBF873
:10A9880024508BF828508BF82940CDF804C0FFF7E5
:10A9980007FBD8F8E42DB9FBF2F35846C821CBF8E9
:10A9A8002030FFF707FB07F5DE6008EB0007DDF84E
:10A9B80004C0154A3D6244F0800E384661463B4665
:10A9C8007D6287F8285087F829E0FFF7E9FAD8F878
:10A9D800E41DB9FBF1F23846C8213A62FFF7EAFAFA
:10A9E80001340836282C0CD01F2C7FF75FAF0AEBF8
:10A9F800060111F8FC7C5FE70AEB060010F8FC7C06
:10AA0800A9E703B0BDE8F08F79A70008E80C00209B
:10AA1800A80C002040F6E843C2F20003C3F8E40D96
:10AA2800704700BF044B93F8E01D01B918B101301D
:10AA3800C0B20FF077BC7047E80C00202DE9F04752
:10AA4800051E92B0164603DD25F08004272C2EDD66
:10AA58000024881E0E2827D8DFE810F04D012600B4
:10AA68002600260026002600260026002600DE01F5
:10AA7800DA01BD019E0126005D0194F8281001F05D
:10AA88000200C3B283B100231A4602210093019346
:10AA98002046FFF7FDFD97F8E02D4FEAD81102B9DF
:10AAA80011B1481C0FF03EFC12B0BDE8F087002C35
:10AAB800CFD04FF4DE60C5F3C01200FB02F2B34FF3
:10AAC8002C2000FB04243C1994F829804545BFD16B
:10AAD8000F29BED801A252F821F000BFB5AB00087B
:10AAE80061AB00085BAA000825AB000883AA000830
:10AAF800D5AC0008BDAC000859AC0008A5AC0008EE
:10AB080025AC00080DAC00085BAA000805AC0008DD
:10AB18005BAA00085BAA0008F3AB000830787378DA
:10AB28008DF80A008DF80B30BDF80A1020466162D6
:10AB3800FFF746FA94F8282002F00201C8B200286C
:10AB4800B2D04FEAD8114FF4DE6303FB017202F56D
:10AB5800DC60FFF737FDA7E794F8285005F00201FD
:10AB6800CDB2002DA0D1FFF75BF8024694F828007B
:10AB780040F0220384F8283001212B462046009516
:10AB88000195FFF785FD2046FFF760FD2046FFF79A
:10AB98001DFA94F929204FF4DE60D10F00FB0177EC
:10ABA800D7F8E8365A1CC7F8E8267DE794F8281045
:10ABB80001F00200C3B2002B3FF476AF21F002028D
:10ABC80084F828202046FFF741FD2046FFF710FAB9
:10ABD80094F929104FF4DE63C80F03FB0077D7F808
:10ABE800E826511EC7F8E8165EE7A068002301684A
:10ABF80000938C6801220521A04755E72046FFF7FE
:10AC08008DFC51E7242B7FF44FAFA06802680093B6
:10AC18009468052102223346A04745E7A0680C2620
:10AC28000768009600250521072206AB06950795BB
:10AC38000895BF68B84794F82910009603200922A0
:10AC480006AB0FF05FFB10BB03200FF06BFB2BE78D
:10AC5800A0682426076800960025052106220DEB2A
:10AC6800060309950A950B950C950D950E950F956C
:10AC780010951195BF68B84794F8291000960320DD
:10AC880007220DEB06030FF03DFB0028DCD04048FF
:10AC9800404B02212A4607F01DFBD5E70C2B7FF419
:10ACA80003AFA06804680093A46805210422334612
:10ACB800A047F9E6242B7FF4F7AEA068016800935B
:10ACC8008C68032205213346A047EDE63078737877
:10ACD8008DF80A008DF80B30BDF80A10D7F8E42D6E
:10ACE8004FF47A7000FB01F3B3FBF2F222622046C4
:10ACF800FFF760F9D8E633787078244F8DF80A307A
:10AD0800D9B28DF80B0097F8E02D002940F0D280D9
:10AD180087F8E01DC8E6F278B078717996F8008077
:10AD280077783479120412AB42EA00620A430026AB
:10AD3800404642EA042243F8386D3946FEF792FF4E
:10AD4800049C8DF824800623C4F30728C4F3074C19
:10AD58004FEA146E009303202946102209AB05948C
:10AD68008DF825708DF826408DF827808DF828C03D
:10AD78008DF829E00FF0C6FA00283FF465AF0448C3
:10AD8800044B0221324607F0A5FA5DE7E80C0020E3
:10AD980074610308CC61030800208DF81400002DAD
:10ADA80000F0BD80002C00F0C88012AC012104F82E
:10ADB800341D01220092032029460E2223460FF05B
:10ADC800A1FA00283FF440AF5D485E4B0221002203
:10ADD80007F080FA38E75C4ED6F8E44D0423C4F354
:10ADE800072CC4F30747260E0093032029460D229B
:10ADF80009AB05948DF824408DF825C08DF8267090
:10AE08008DF827600FF07EFA00283FF41DAFDBE7CE
:10AE18000020FFF783FB47E605AF02A80DF1090103
:10AE28000DF10A0203AB0097FEF704FF9DF80840F6
:10AE38009DF809009DF80A10059A039B04928DF865
:10AE480025008DF824408DF826101E789DF81000F6
:10AE58008DF827605C789DF811708DF828409978F6
:10AE68009DF813408DF82910DA789DF812608DF856
:10AE78002A2019798DF82B105A798DF82C20997978
:10AE88008DF82D1093F807E08DF82F008DF83240DB
:10AE980003200F2429460B2209AB8DF82EE08DF8EC
:10AEA80030708DF8316000940FF02CFA00283FF4D0
:10AEB800CBAE89E702293FF6F7AD0125AA4287F80C
:10AEC800E05D3FF4F1AD0026DFF880A0DFF8809068
:10AED80034464FF02C083CB108FB047090F8293038
:10AEE8009C4205D0282D1FD0013401350836F2E7E1
:10AEF80090F8281001F00202D3B2002BF2D01F2CD8
:10AF0800D5BF09EB06030AEB06035B7913F8FB3C94
:10AF180003F006010229E5D1FFF700FBE2E705ACE3
:10AF28002046FEF79BFE44E797F8E00D00283FF423
:10AF3800BBAD01200FF0F6F9B6E505AC39E700BF67
:10AF480074610308CC610308E80C0020A80C0020F9
:10AF5800E861030840F6E843C2F200034FF4DE62FA
:10AF680002FB0030D0F8E806704700BF013801281E
:10AF780070B50C46164606D90F4B09221A604FF0D9
:10AF8800FF36304670BD002AFBDD8D184FF4A05007
:10AF98008021C4F2010001F013FD0028F6D014F955
:10AFA800011B4FF4A050C4F2010089B201F0E8FC83
:10AFB800AC42EBD1304670BDAC950020054908B5D0
:10AFC80001200422FFF7D2FF00200146FEF706FA0F
:10AFD800FEE700BF04630308704700BF0020014676
:10AFE800FEF7FCB900200146FEF7F8B9002001463B
:10AFF800FEF7F4B900200146FEF7F0B9704700BF2C
:10B00800704700BF704700BFF0B50D4689B00746CE
:10B0180001214FF4001002F097F84FF4A840C4F251
:10B028000000012101F0A6FE4FF4A8400021C4F25F
:10B03800000001F09FFE4FF4A840C4F2000001F0A8
:10B04800ABFD4FF4804408A94FF4D452C0F2060275
:10B05800200441F8102D002340F4A8404FF48066E6
:10B06800ADF81430ADF81850ADF81640ADF81A60C8
:10B07800ADF81C4001F0C8FD210441F4A8402504A6
:10B08800012101F069FE45F4A840012101F080FE8C
:10B0980047B14FF4A840C4F200004FF4E061012228
:10B0A80001F096FE4FF4A840C4F20000012101F01F
:10B0B8001FFE0220012102F039F80220012102F0CE
:10B0C80035F84FF48060C4F202000621042201F032
:10B0D8004BFD4FF48060C4F202000721042201F006
:10B0E80043FD4FF48060012402260025C4F20200CB
:10B0F80002A9402202928DF80D408DF80C608DF85F
:10B108000E408DF80F5001F07DFC4FF480608023D5
:10B11800C4F2020002A902938DF80D408DF80C606C
:10B128008DF80E408DF80F5001F06CFCBFB101A8EE
:10B1380020218DF804108DF805508DF806408DF803
:10B14800074002F02DFA1F2201A88DF804208DF87F
:10B1580005508DF806608DF8074002F021FA024B81
:10B168000020187009B0F0BDD31A002038B5434C40
:10B178002378012B0FD002214FF4A840C4F200001D
:10B18800C0F2002101F04EFE0128054653D0207878
:10B19800022837D038BD40214FF4A840C4F200003F
:10B1A800C0F2006101F03EFE01284FF4A84051D0E2
:10B1B8001021C0F20021C4F2000001F033FE012882
:10B1C8000146D8D14FF4A8402D4DC4F2000001F03B
:10B1D8008FFD2978802902D82A48FEF74BFD0020E8
:10B1E8002870207038BD264D26482978FEF742FD84
:10B1F80025482649FEF73AFD2548002302222B70F0
:10B208000360227080214FF4A840C4F20000C0F20D
:10B21800006101F007FE0128BCD11D481B490368E5
:10B228000A889A4223D8FF204FF4A841C4F20001AB
:10B2380008820B8AAEE74FF4A840C4F200004FF42E
:10B24800802101F0CFFD0128CDD00D4925700022C5
:10B258000A7038BDC4F2000001F0AAFD084A13784C
:10B26800190697D4074C591CE054117038BD06498B
:10B27800CA5C013303601046D6E700BFD31A00202A
:10B28800D21A0020D41A0020581B0020D01A0020FF
:10B29800541B00204FF4A843C4F2000342F2FF02FB
:10B2A800998A89B2080A00F004000A40C1B210B5B0
:10B2B8009A8219B1044C2378022B00D010BDFEF7F6
:10B2C800DBFC0022227010BDD31A002008B54FF411
:10B2D8008060C4F20200202101F042FCBDE8084071
:10B2E80001F0C2B908B54FF48060C4F20200202111
:10B2F80001F038FCBDE8084001F0BEB900B50220F5
:10B3080083B0012101F012FFFFF7ECFF20224FF478
:10B31800806000230092C4F20200012269468DF881
:10B3280005308DF804208DF806308DF8073001F0CF
:10B3380069FB03B000BD00BF30B54FF4B044C4F2A0
:10B34800000485B00121204601F0EEFC01F06CF903
:10B358002046012101F00EFD0021204601F00AFDE2
:10B36800204601F019FC4FF4804504AC4FF4D45248
:10B378000023C0F20602280444F8102D01214BF6E0
:10B38800FF72ADF80430ADF8083040F4B0404FF427
:10B398008063ADF80620ADF80A30ADF80C5001F026
:10B3A800A7FC290441F4B040694601F02DFC0120B6
:10B3B80005B030BD2DE9F043324D2C7887B0002C14
:10B3C8005CD14FF48000012101F0BEFE0220012172
:10B3D80001F0ACFE4FF4806002238146012604226E
:10B3E800C4F202000A218DF80430CDF800908DF8DF
:10B3F80005608DF806608DF8076001F0B5FB4846DA
:10B40800C4F20200694601F0FDFA48460922C4F276
:10B41800020003210827009701F0A6FB4846694669
:10B42800C4F2020001F0EEFA4FF4B040C4F200009A
:10B4380001F0B2FB4FF4804806AF4FF4D451C0F28C
:10B4480006014FEA084047F8101D4BF6FF7240F41A
:10B45800B0403146ADF80E20ADF80C40ADF81040C4
:10B46800ADF81290ADF8148001F042FC4FEA0843A1
:10B4780043F4B040394601F0C7FB2E70002007B0F6
:10B48800BDE8F083D81B00202DE9F04341F6B064F5
:10B4980083B0C0F2040481460F46164698460194CC
:10B4A80001F0BAF8019405E0019C651E0195002C95
:10B4B80000F0A9804FF4B040C4F200004FF400310E
:10B4C80001F090FC0028EFD14FF4B040C4F2000026
:10B4D800012101F01BFC4FF46173019305E0019C0D
:10B4E800651E0195002C00F08E8001214FF4B040BC
:10B4F800C4F20000C1F2000101F074FC0128EED191
:10B508004FF4B040C4F200004946002201F01AFC92
:10B518004FF46170019004E001994A1E01920029DC
:10B5280071D002214FF4B040C4F20000C1F2000112
:10B5380001F058FC0128EFD14FF4B0401421C4F2B7
:10B54800000001F039FC4FF4B0401821C4F20000AB
:10B5580001F032FC4FF46171019104E0019B581E27
:10B568000190002B4FD080214FF4B040C4F200006E
:10B57800C1F2000101F036FC0128EFD14FF4B040D0
:10B58800C4F20000394601F011FCF6B100244FF472
:10B598006175019503E001994A1E019299B38021D2
:10B5A8004FF4B040C4F20000C1F2000101F01AFCEF
:10B5B8000128F0D14FF4B04018F80410C4F200008C
:10B5C800013401F0F3FBB442E3D34FF4617201920A
:10B5D80003E0019B581E0190ABB104214FF4B04029
:10B5E800C1F20001C4F2000001F0FCFB0128014691
:10B5F800EFD14FF4B040C4F2000001F095FB01F028
:10B6080013F8002001E0FFF797FE03B0BDE8F083D0
:10B618002DE9F04341F6B06483B0C0F20404064655
:10B62800894690461F46019400F0F6FF019405E014
:10B63800019C651E0195002C00F076814FF4B04006
:10B64800C4F200004FF4003101F0CCFB0028EFD128
:10B658004FF4B040C4F20000012101F057FB4FF451
:10B668006173019305E0019C651E0195002C00F0B3
:10B678005B8101214FF4B040C4F20000C1F2000127
:10B6880001F0B0FB0128EED14FF4B040C4F2000045
:10B698003146002201F056FB4FF46170019005E03D
:10B6A80001994B1E0193002900F03E8102214FF4BD
:10B6B800B040C4F20000C1F2000101F093FB012880
:10B6C800EED14FF4B0401421C4F2000001F074FB35
:10B6D8004FF4B0401821C4F2000001F06DFB4FF4A4
:10B6E8006171019105E00198421E0192002800F065
:10B6F8001B8180214FF4B040C4F20000C1F2000168
:10B7080001F070FB0128EED14FF4B040C4F2000004
:10B71800494601F04BFB4FF46172019205E0019933
:10B728004B1E0193002900F0FF8080214FF4B040A8
:10B73800C1F20001C4F2000001F054FB01280146E7
:10B74800EDD14FF4B040C4F2000001F0DFFA4FF43D
:10B758006173019305E00198421E0192002800F0F0
:10B76800E38001214FF4B040C4F20000C1F20001AF
:10B7780001F038FB01280246EDD14FF4B040C4F285
:10B78800000031464FF4617401F0DCFA019405E0E1
:10B7980001994B1E0193002900F0C6804FF4B04474
:10B7A8000221C4F200042046C1F2000101F01AFB94
:10B7B8000128EDD1B8F1010F00F04981B8F1020F6D
:10B7C80000F00A811421B8F1030F204600F0B1807F
:10B7D80001F0F2FA2046182101F0EEFAB8F1000F54
:10B7E80075D0A8F10305ADB2002D00F05D810024ED
:10B7F8004FF46176019605E00198411E01910028F9
:10B8080000F0928040214FF4B040C4F20000C1F231
:10B81800000101F0E7FA0128EED14FF4B040C4F27C
:10B82800000001F0C5FA3855013444454FD2AC4206
:10B83800E0D14FF46172019204E0019B581E01901F
:10B84800002B71D004214FF4B040C4F20000C1F2C3
:10B85800000101F0C7FA01280546EED14FF4B040C7
:10B868000021C4F2000001F077FA4FF4B040C4F2AE
:10B87800000001F09DFA38554FF4B040C4F20000C2
:10B88800294601F051FA4FF4B040C4F2000001F02B
:10B898008FFA631C0234F8544FF46170019004E08D
:10B8A80001994A1E019200293ED040214FF4B04030
:10B8B800C4F20000C1F2000101F094FA0128EFD1AE
:10B8C8004FF4B040C4F2000001F072FA38554FF45A
:10B8D800B040042141F6B065C4F20000C1F2000195
:10B8E800C0F2040501F09AFA019503E001994B1E94
:10B8F8000193C9B14FF4B044C4F2000420464FF498
:10B90800003101F06FFA05460028EFD120460121E9
:10B9180001F022FA218821F400631A04100C208017
:10B9280000F082FE284601E0FFF706FD03B0BDE8FF
:10B93800F08301F041FA204618214FF4617401F0B8
:10B948003BFA019404E00198411E01910028EBD0D4
:10B9580004214FF4B040C4F20000C1F2000101F02C
:10B9680041FA01280446EED14FF4B0400021C4F258
:10B97800000001F0F1F94FF4B040C4F2000001F00A
:10B9880017FA38704FF4B0402146C4F2000001F0B5
:10B99800CBF94FF4B040C4F2000001F009FA4FF4BB
:10B9A80061717870019104E0019B5A1E0192002B8D
:10B9B800BAD040214FF4B040C4F20000C1F20001F7
:10B9C80001F010FA0128EFD14FF4B040C4F20000A2
:10B9D80001F0EEF9B8707AE72046002101F0BCF9D1
:10B9E80023889AB242F4006014212080204601F096
:10B9F800E3F91821204601F0DFF94FF46171019154
:10BA080004E0019B5A1E0192002B8DD004214FF4B3
:10BA1800B040C1F20001C4F2000001F0E3F90128CE
:10BA28000146EED14FF4B040C4F2000001F07CF9B9
:10BA38004FF4B040C4F2000001F0BAF938704FF486
:10BA4800B040C4F2000001F0B3F978703FE700217C
:10BA5800204601F081F91421204601F0ADF91821A2
:10BA6800204601F0A9F92046414601F05DF94FF45E
:10BA78006170019005E00198421E019200283FF490
:10BA880053AF40214FF4B040C4F20000C1F20001AE
:10BA980001F0A8F90128EED14FF4B040C4F200003B
:10BAA80001F086F9387012E72C46C2E62DE9F0411C
:10BAB800012086B00146002401F038FBC4F20204DC
:10BAC80001214FF4003001F03FFB022107222046FC
:10BAD80001F04AF806AF20460722032101F044F896
:10BAE800042300254FF00108022247F8183D20469C
:10BAF800032369464FF48846C4F200068DF80530E2
:10BB08008DF804208DF806508DF8078000F07AFF34
:10BB1800082220466946009200F074FF4FF4612322
:10BB28000C2202A930460293ADF81220ADF80C5051
:10BB3800ADF80E50ADF81050ADF8145000F0A2FE5C
:10BB4800304640F22551424600F01EFF304641463D
:10BB580000F008FF06B0BDE8F08100BF10B504464C
:10BB68004FF48840C4F20000E1B200F009FF4FF43E
:10BB78008840C4F20000402100F022FF0028F6D0DF
:10BB8800204610BD38B503785BB10546002458B28D
:10BB9800FFF7E4FF15F8013F0134002BF7D12046E9
:10BBA80038BD1C46FBE700BF704700BF10B541F623
:10BBB800E034C2F20004D4E9002301200021121865
:10BBC80043EB0103C4E90023FFF7EEFF10BD00BFFC
:10BBD80070B582B001F07EFD01A9002001F056FE8B
:10BBE80001F086FE41F60043C2F20003D3ED037A6A
:10BBF80099689DF805509DF804609DF80620081A7C
:10BC080006EE900AB8EE667ADFED140A27EE270AE8
:10BC18004FF4074480EE201A4FF42441C0F29334C5
:10BC2800CDF2936144F24023A6FB0101A5FB044534
:10BC3800C0F20F03A2FB0323241845EB0105A41847
:10BC480045EB030511EE100AFCF7E4FF241845EB59
:10BC580001052046294602B070BD00BF00007A44A5
:10BC680070B5FFF7B5FF0D4E02460B46D6E9000149
:10BC78008B4208BF82420BD24FF4C044C1F6D7545E
:10BC88001425121943EB05038B4208BF8242F8D3EF
:10BC9800C6E900231046194670BD00BFF01B0020FE
:10BCA80038B50546FFF794FF0446FFF791FF001BE0
:10BCB800A842FAD338BD00BF38B5D0B1431E1C46E0
:10BCC8004FF47A7003F00105FFF7EAFF94B12DB144
:10BCD800013C4FF47A70FFF7E3FF64B14FF47A70D8
:10BCE800FFF7DEFF023C4FF47A70FFF7D9FF002C14
:10BCF800F4D138BD38BD38BD08B54FF4804001F0E7
:10BD080081FE90B100214FF4804001F047FE4FF4CE
:10BD1800804001F091FE012001F01CF94FF48040B1
:10BD2800012101F03BFEFDF74BFB4FF48000BDE81D
:10BD3800084001F0CFB800BF08B598B144F24023DD
:10BD4800C0F20F03B3FBF0F060B14FF42052C4F21D
:10BD58000002936803F00702032A03D8DFE802F021
:10BD6800101214054FF0FF3008BD022300FB03F04A
:10BD7800B1FBF0F1481EF5D001F0D4FD002008BD5C
:10BD88001023F3E70823F1E70423EFE72DE9F04157
:10BD9800214D2B68834204462DD04FF42051C4F224
:10BDA800000100208A6802F4806801F0C7FD0128BC
:10BDB80006462BD14FF4806001F016FE00214FF4A7
:10BDC800804001F0EBFD4FF4804001F035FE304635
:10BDD80001F0C0F831464FF4804001F0DFFD204605
:10BDE8006968FFF7A9FF2C600746B8F1000F06D174
:10BDF8003846BDE8F08100273846BDE8F08101F0FB
:10BE080069FC304601F09AFD0128F1D04FF0FF3768
:10BE18003846BDE8F08100BF001C00202DE9F04144
:10BE28004FF4406588B0C4F200050820012101F0F4
:10BE38008BF94021284601F0A5FB01222846002164
:10BE480001F0BCFA002601270C23284601A9ADF809
:10BE58000430ADF80A30ADF80660ADF80870ADF8FA
:10BE68000C6001F0BDFA322168468DF800108DF89B
:10BE780001608DF802608DF80370264C01F090FB8C
:10BE88002846394601F09EFA2E82284610213A4665
:10BE9800B846266001F05CFB20680128FCD94FF405
:10BEA800406010210022C4F2000001F051FB4FF461
:10BEB8004060C4F2000001F097F90024322268467D
:10BEC8008DF800208DF801408DF802408DF8034070
:10BED80001F066FB0820214601F036F904A801F0BC
:10BEE800A9F84FF46053C4F202030B48996811F49F
:10BEF800E05F08D0069B02685900B1FBF2F0C00071
:10BF080008B0BDE8F0810268069BB3FBF2F1C800F7
:10BF1800F6E700BFF81B0020EC1B00200000000023
:10BF28002DE9F04701218CB080464FF0805001F098
:10BF38000BF900F009FB0028C0F2F880804F00F0F0
:10BF480025FA012000F0CCFF3B78012B00F0AA80F5
:10BF58007C4C0CA94FF480454FF400600322C4F2D6
:10BF68000200002341F8145D8DF820208DF821206F
:10BF78008DF8233000F046FD012001F00BF8612018
:10BF880001F01AF90028FAD06BA3D3E900234FF483
:10BF98000070CDE9002301F0A7F843F67F61A160A6
:10BFA8004FF0020A4FF001090CAD0120002601F004
:10BFB800B7F845F80C6DA368CDF8289028460B9380
:10BFC80001F05EFB01F086FB304601F0B7FC032070
:10BFD80001F096FC38785B4F01284FD14FF40043AD
:10BFE8007B604FF400420023DDE90001FCF7FCFD13
:10BFF800FCF798FD0025E06004A901208DF8135096
:10C008008DF810508DF811508DF8125001F088FB02
:10C0180061684046FFF790FE4FF48060C4F80080E6
:10C0280001F0E2FC01214FF4804001F0B7FC4FF42D
:10C03800800000F04FFF01244FF48002082105A87A
:10C0480005928DF819108DF818508DF81A4000F0E7
:10C05800F9FE032303A88DF80C308DF80D508DF8E8
:10C068000E508DF80F4001F09BFA204601F066FC57
:10C0780000F0CCF928460CB0BDE8F087FFF7CEFEFB
:10C08800B0FBFAFA02460AF1FF3128467A60B96035
:10C09800CDF828900B91099601F0F2FA7D680023FB
:10C0A8002A46A1E704204FF6FF7600F063FF00243C
:10C0B800C0F20F060BE04120013401F07DF868B9A9
:10C0C8004120AC1C01F078F840B9B44225D00134C5
:10C0D8004120254601F070F80028ECD04FF6FF709B
:10C0E800C0F20F00844218D04FF48070154C00F055
:10C0F800FBFF47F6FF71A1604FF000093B78012B69
:10C108007FF427AF4FF44A4609F1010AC3F69A367D
:10C11800AAFB0601CDE9000146E7002210463A7065
:10C128004FF0010900F026FF064CE7E74FF0FF301B
:10C13800A1E700BFAFF3008000943577000000004E
:10C14800E81B0020001C00204FF4406070B5C4F2CA
:10C158000000102101F006FA18B1114C2368012BD8
:10C1680000D970BD4FF44060C4F2000026680D4D40
:10C1780001F0ECF982B24FF44060731CC4F2000085
:10C18800102125F81620236001F0F8F9206801280D
:10C19800E7D929886A88531A034998B20860E0E702
:10C1A800F81B0020FC1B0020EC1B0020042808B50D
:10C1B80004D9392001F000F80028FAD008BD00BFE2
:10C1C800F8B5031F022B2BD80428044617D0164EA7
:10C1D800A11F4D424FF46050727AC4F202004D41E3
:10C1E800AA42036812D013F080770AD195B94FF4A8
:10C1F800804000F07BFE7772012000F0E3FE2046CD
:10C20800F8BDAA42B8BF05242046F8BDDB01F3D526
:10C218002046F8BD4FF4004000F068FE7572EBE769
:10C228004FF0FF34EBE700BF141C0020F8B5031FE4
:10C23800022B054650D8052834D006283AD00022CB
:10C248001046174611461446254E3378AB4207D29E
:10C258004FF47053C4F2020347F4C06EC3F800E011
:10C268004FF46053C4F202030A43996821F47C41F5
:10C2780021F0F3010A4302439A6000F0B3FEA042A2
:10C28800FBD1042D1ED03378AB4206D94FF470523F
:10C29800C4F2020247F4C0671760357001F0EAFC87
:10C2A8002846F8BD4FF40042822001274FF4805100
:10C2B8000824C9E74FF42042022003274FF4A05175
:10C2C8000824C1E7002000F07DFE4FF4804000F014
:10C2D8000DFE00207072D6E74FF0FF30F8BD00BFAA
:10C2E800141C002010B5212000F066FF0028FAD0A9
:10C2F8004FF46053C4F202039A6822F47C4020F0A1
:10C30800F301996000F06EFE04460028FAD14FF45C
:10C318007053C4F202034FF4C0621A6000F052FE78
:10C328004FF4804000F0E2FD03480421447201709C
:10C33800BDE8104001F09EBC141C0020022810B576
:10C34800044619D0012000F0DBFD72B60C4A0D49F5
:10C358000D4B002010700870187044B1012100F0D6
:10C36800D5FDFFF7BFFF62B6BFF36F8F10BD012089
:10C37800014600F0CBFDF4E7002000F0C1FDE4E742
:10C38800101C0020141C0020111C002070B54FF454
:10C39800806582B01F200121C4F2020502AC00F0C2
:10C3A800C5FE002603224FF6FF732846694644F867
:10C3B800083D8DF804208DF805208DF8076000F001
:10C3C80021FB4FF400606946C4F2020000F01AFB3A
:10C3D8004FF440606946C4F2020000F013FB4FF4CA
:10C3E80080506946C4F2020000F00CFB28466946FA
:10C3F80000F008FB30466946C4F2020000F002FB78
:10C408001F20314600F092FE02B070BD30B5012009
:10C4180087B0014600F08AFE06A9012400200546DF
:10C4280041F8084DC4F202008DF814508DF81750E9
:10C4380000F0E8FA21464FF4804000F093FE2946C8
:10C44800284600F0C3FA102302A88DF80D30029494
:10C458008DF80C508DF80E4000F0F4FC204600F0EA
:10C4680039FD06210A2201A88DF804108DF805501F
:10C478008DF806208DF8074001F092F807B030BD1E
:10C4880038B5031F022B044653D82B480278A24222
:10C4980034D072B6042C36D01EDD284A1178FF2914
:10C4A80003D015786B1CD9B211701578012D10D0F6
:10C4B8000078234D042839D92B78042B36D02A78D4
:10C4C80094421ADD2046FFF77BFEC1B2044629706C
:10C4D80013E01B4D00232B702046FFF771FE044626
:10C4E80062B6C5B22846FFF761FE72B615490878EC
:10C4F800012805D02846FFF799FE62B6204638BDC8
:10C508000F4A1570F9E70278042A0AD90B4B1A78F2
:10C518001AB11978481EC2B21A701B78002BDBD0EA
:10C52800EBE7074908780428D6D9EFE7012010700F
:10C53800D0E74FF0FF34E1E7141C0020201C002056
:10C54800101C0020111C002030B5154B154D00247F
:10C5580083B01C706C7072B62C70FFF7C3FE204657
:10C5680000F030FD0821009120468022042300F0CD
:10C5780017FD0D480D4904700C7062B60420FFF7D2
:10C588007FFF2A78AC70EC702C716C71AC71EC7117
:10C598002C72042A14BF4FF0FF30204603B030BD80
:10C5A800111C0020141C0020201C0020101C00203E
:10C5B80008B5184B5A78824228BF1046032826D857
:10C5C800DFE800F01D150D0203211878197072B606
:10C5D80030BF187062B6BFF36F8F002008BD02200D
:10C5E800FFF7ACFE0420FFF74BFF002008BD012039
:10C5F800FFF7A4FE0420FFF743FF002008BD00203A
:10C60800FFF79CFE0420FFF73BFF002008BD4FF01A
:10C61800FF3008BD141C002041F61143C2F200038C
:10C6280001221A70704700BF0C4B10B500220C4C49
:10C638001A70207803280FD9217806290CD8094ABE
:10C6480023781078984205D02078FFF7AFFD20783E
:10C65800FFF7ECFD0021217010BD00BF111C002068
:10C66800101C0020141C002041F62143C2F20003D4
:10C6780001221A70704700BF41F62143C2F200033D
:10C6880000221A70704700BF00B5002083B0012156
:10C69800C4F2020000F05EFA8DF807009DF807006A
:10C6A800003018BF012003B000BD00BF032910B53A
:10C6B8000C4618D8012818BF002001F03FF9032CB8
:10C6C80002D0FFF7E1FF28B10320FFF771FF032431
:10C6D800204610BD054801780029F5D12046FFF70E
:10C6E80067FF204610BD4FF0FF34F1E7211C002002
:10C6F80008B5012000F0E4FB00B908BD0120BDE841
:10C70800084000F0E7BB00BFF32008B501F0E2F9EC
:10C718000820002101F034FA092807D00448054B05
:10C728000121002205F0D6FD032008BD002008BD28
:10C738000C63030824630308234B24491A6830B4A4
:10C748000C68A2423DD9116840F60A33C0F60B23A3
:10C75800994209D0E143891849072FD5043AA242E2
:10C768002FD91168994229D1A2F14005EC43801ACA
:10C778004319A11812F8404C01F0010583F8404014
:10C78800A2F13F032DB11C78C118A2F13E0381F834
:10C7980040401D78C418591C84F840505D784418EE
:10C7A8000233934284F84050F3D100200AE0116824
:10C7B8009942D9D052F8041D9942D5D0043AA242E0
:10C7C800F5D8012030BC7047CC830020C8830020F6
:10C7D800F8B5064601F062F9264B274C196820681F
:10C7E8004439884203D924E04430884221D8026879
:10C7F8000132F9D1044600F14007361A06E0715DAE
:10C8080001F0A0F909280AD1BC4216D0315D2046B2
:10C8180001F098F9651C6C1C09282846EFD01748C8
:10C82800174B0121002205F055FD01F049F90420BC
:10C83800F8BDFFF769FF2068DCE70A21204601F010
:10C8480081F90928EBD1601C0B2101F07BF909283B
:10C85800E5D1E81C0B2101F075F90928DFD1281D65
:10C868000A2101F06FF90928D9D101F029F900202E
:10C87800F8BD00BFCC830020C88300200C630308E8
:10C888004C630308028ACB8822F440521204F0B5A4
:10C89800120C04461A4348890F898E880D468989E7
:10C8A8002282A38923F4B05222F00C033E431A04D7
:10C8B8000643B3B2100C43EA0006A681A28A22F40A
:10C8C800407003041E0C0E4385B0A682684600F033
:10C8D800B1FB4FF48051C4F201018C422CD04FF4CB
:10C8E800A052C4F20102944226D0A089029B06B24B
:10C8F800002E26DB2D6803EB830101EB8102AB00E0
:10C90800B2FBF3F148F21F53A089C5F2EB13A3FB66
:10C918000156720900B264251601002802FB1511A0
:10C9280018DB0D013235A3FB0553C3F34312324321
:10C9380091B2218105B0F0BDA089039B06B2002EFB
:10C94800D8DA286803EB830606EB86054200B5FBB8
:10C95800F2F1D7E7C8003230A3FB0013C3F3421249
:10C968003243E5E7838929B923F400510A04130CFB
:10C978008381704799B241F400528281704700BFA9
:10C98800C905CA0D8280704701F01F0310B4C1F3B6
:10C9980042110124A14204FA03F30DD002290DD05B
:10C9A80014302AB9026822EA0301016010BC7047FA
:10C9B800026813430360F9E70C30F2E71030F0E740
:10C9C800038819420CBF0020012070478A084FF4E1
:10C9D8006053C4F20103023201F0030130B489004C
:10C9E80053F822500F2404FA01F425EA040443F80A
:10C9F800224053F8224000FA01F0044343F8224051
:10CA080030BC70472DE9F00F0E6884B000228846CC
:10CA180013464FF0010B00968A4607E0DDF80490B4
:10CA2800A14539D04B1CAA1C102B54D0009E0BFAE0
:10CA380003F5591C05EA060C0BFA01F42640AC452F
:10CA4800019602F10205E9D1032606FA02F9076800
:10CA58009AF804806FEA09094E463E400660076866
:10CA6800CDF80C9008FA02F908F1FF3849EA0709ED
:10CA7800B8F1010FC0F8009031D9C368039F9AF844
:10CA880007C0DDF804903B40C360C3680CFA02F2AB
:10CA98001A43A145C260C5D1032304689AF804204B
:10CAA800AB40DB431C400460046802FA05FC013A11
:10CAB8004CEA0404012A046033D9C2689AF8074092
:10CAC8001340C360C26804FA05F31343C3604B1CE8
:10CAD800AA1C102BAAD104B0BDE8F00F7047D0F8FB
:10CAE8000880039E9AF806709AF8059006EA0808E6
:10CAF800C0F80880D0F8088009FA02F949EA08085D
:10CB0800C0F80880D0F8048028EA0C0CC0F804C0EB
:10CB1800D0F8049007FA03F39FB247EA0903436089
:10CB2800ABE786689AF805709AF806201E4086607A
:10CB3800846807FA05FC4CEA040686604768019E8B
:10CB480027EA06074760446802FA01F292B22243D4
:10CB58004260B2E7036919420CBF00200120704708
:10CB68000183704741837047CB08083301F0070100
:10CB780030B4890050F823500F2404FA01F425EA50
:10CB8800040440F8234050F8234002FA01F2144309
:10CB980040F8234030BC704708B54FF4A843C4F2AE
:10CBA8000003984218D04FF4B041C4F20001884203
:10CBB8001ED04FF4B842C4F20002904200D008BD23
:10CBC80001214FF4000000F0DBFA4FF400000021CF
:10CBD800BDE8084000F0D4BA01214FF4001000F07D
:10CBE800CFFA4FF400100021BDE8084000F0C8BAA1
:10CBF80001214FF4800000F0C3FA4FF480000021B7
:10CC0800BDE8084000F0BCBAF0B5044685B06846F7
:10CC1800A6880D4600F00EFA02992A684DF683633D
:10CC2800C4F21B3326F03F07A3FB010338049F0C13
:10CC3800060C1FFA87FC4CEA0603A380208820F024
:10CC4800010648F2A0603304C0F201001E0C8242C3
:10CC5800268024D85300B1FBF3F6B1B20CF1010ED3
:10CC6800A4F820E0032998BF0421A1832388AA8976
:10CC78006E89A88829899BB243F001032380238801
:10CC880023F4816323F002031B041B0C304303438A
:10CC980011439BB28AB22380228105B0F0BDE88897
:10CCA8004BF6FF7398421DD002EB820202EB82061C
:10CCB800B1FBF6F141F4804081B20E05300D08B9A0
:10CCC80041F001014FF4967344F6D352C1F2620267
:10CCD80003FB07F782FB0736B009421C41F4004109
:10CCE8002284C2E702EB4203B1FBF3F291B2E4E71C
:10CCF800038829B923F001010A04130C0380704743
:10CD080099B241F001020280704700BF038829B937
:10CD180023F480710A04130C0380704799B241F41C
:10CD280080720280704700BF038829B923F400711C
:10CD38000A04130C0380704799B241F40072028010
:10CD4800704700BF1AB901F0FE010182704741F037
:10CD580001010182704700BF038829B923F480616B
:10CD68000A04130C0380704799B241F48062028070
:10CD7800704700BF038819B959044A0C02807047EC
:10CD88006FEA43436FEA53418AB20280704700BF9B
:10CD9800038829B123F080010A04130C038070472B
:10CDA80099B241F080020280704700BF018270474B
:10CDB800008AC0B2704700BF82B00023019301907F
:10CDC800019809180191019A138898B202B0704726
:10CDD80083889BB21AB923EA0101818070471943FD
:10CDE8008180704782B000230A0F0093019301905D
:10CDF8000092009821F07F4150B1019A14320192BB
:10CE08000198036819420CBF0020012002B0704746
:10CE1800019B1833090C0193F2E700BFC9438AB29A
:10CE2800828270478388808A82B211EA02009BB2AC
:10CE380006D001F0E06113EA11410CBF0020012087
:10CE4800704700BF837970B43BB34FF47053C4F29A
:10CE5800010301681E6802794579CC4326401E60AB
:10CE68005E6802F1804202F59E3234405C601468CC
:10CE78002143116002689868D14308409860D868D7
:10CE8800102D01EA0001D96013D005F1804505F5A0
:10CE98009E352B681A432A6009E00279016802F17D
:10CEA800804000F59E331A6822EA01021A6070BCBD
:10CEB8007047996811439960D8680243DA60F6E7C9
:10CEC8004FF47053C4F20103596908420CBF0020A3
:10CED800012070474FF47053C4F201035861704742
:10CEE8002023C4F20E231860704700BF4FF4E043BC
:10CEF800C4F200031A6822F44041084318607047DE
:10CF08002423C4F20E231860704700BF4FF4E04298
:10CF1800C4F2000210B4146824F440644FF46D4362
:10CF280024F00304CEF2000320431060186901299D
:10CF380040F004021A610AD020BF4FF46D41CEF2CE
:10CF480000010B6923F00400086110BC704730BF72
:10CF5800F3E700BF4FF4E043C4F200031A6842EA63
:10CF680080001860704700BF0023C4F24723186090
:10CF7800704700BF43F67003C4F202030022012881
:10CF88001A701A7004D0042801D10520187070474F
:10CF9800187070474FF46863C4F2472318607047ED
:10CFA80030B40143029D41EA82125B084FF4605499
:10CFB80042EA0565591EC4F2020445EA0140606070
:10CFC80030BC70476023C4F247231860704700BF25
:10CFD8004FF46053C4F202039A6822F00301084335
:10CFE800986070474FF46053C4F20203986800F0E9
:10CFF8000C0070474FF46053C4F202039A6822F0A1
:10D00800F0010843986070474FF46053C4F202037C
:10D018009A6822F4E0510843986070474FF46053CF
:10D02800C4F202039A6822F4604141EAC0009860A1
:10D03800704700BF4FF46053C4F2020310B49A68FB
:10D0480002F00C01042922D0082926D04FF41052EE
:10D05800C0F2F40202604FF46053C4F202032149A3
:10D068009C68C4F303140C5D22FA04F242609C68C5
:10D07800C4F382240C5D22FA04F484609B68C3F331
:10D088004233C95C22FA01F2C26010BC70474FF407
:10D09800D852C0F2B7020260DDE75C68596814F440
:10D0A800800F5C6801F03F0214BF4FF4D8534FF46F
:10D0B8001053C4F388114FF4605414BFC0F2B7037F
:10D0C800C0F2F403C4F20204B3FBF2F303FB01F26F
:10D0D8006168C1F301435C1C6100B2FBF1F20260BC
:10D0E800B9E700BF1C03002000F44073B3F5407F8C
:10D0F8000CD14FF46053C4F2020320F070419A68D7
:10D1080021F4407122F4F812114399604FF46053EE
:10D11800C4F2020300051A6F010D11431967704725
:10D1280040F63C63C4F24723186070474FF46053DD
:10D13800C4F202031A6B19B922EA00001863704797
:10D1480010431863704700BF4FF46053C4F20203E2
:10D158001A6C19B922EA0000186470471043186461
:10D16800704700BF4FF46053C4F202035A6C19B9F8
:10D1780022EA00005864704710435864704700BFA3
:10D188004FF46053C4F202031A6A19B922EA000084
:10D198001862704710431862704700BF4FF460531D
:10D1A800C4F202035A6A19B922EA000058627047A9
:10D1B80010435862704700BF4309012B0ED04FF44B
:10D1C8006051C4F20201022B0CBF096F496F00F0D5
:10D1D8001F0021FA00F303F0010070474FF460527A
:10D1E800C4F202021168F2E708B50023C4F2010391
:10D1F80098425BD0B0F1804F62D04FF48061C4F2A6
:10D208000001884266D04FF40062C4F200029042E6
:10D218006AD04FF44063C4F2000398426ED04FF4D2
:10D228008051C4F20001884272D04FF4A052C4F277
:10D238000002904276D04FF48063C4F20103984212
:10D248007AD04FF48041C4F2010188427ED04FF475
:10D258008842C4F20102904200F084804FF4904367
:10D26800C4F20103984200F089804FF4C051C4F21F
:10D278000001884200F08E804FF4E052C4F20002B0
:10D28800904200F091804FF40053C4F2000398429A
:10D2980000D008BD01214FF48070FFF771FF4FF4F3
:10D2A80080700021BDE80840FFF76ABF01200146F1
:10D2B800FFF774FF01200021BDE80840FFF76EBFAB
:10D2C80001200146FFF75CFF01200021BDE808406E
:10D2D800FFF756BF02200121FFF752FF022000216D
:10D2E800BDE80840FFF74CBF04200121FFF748FFC5
:10D2F80004200021BDE80840FFF742BF08200121B3
:10D30800FFF73EFF08200021BDE80840FFF738BFBF
:10D3180010200121FFF734FF10200021BDE808404C
:10D32800FFF72EBF20200121FFF72AFF2020002130
:10D33800BDE80840FFF724BF02200121FFF72EFFB8
:10D3480002200021BDE80840FFF728BF01214FF463
:10D358008030FFF723FF4FF480300021BDE80840FC
:10D36800FFF71CBF01214FF40030FFF717FF4FF400
:10D3780000300021BDE80840FFF710BF01214FF43D
:10D388008020FFF70BFF4FF480200021BDE8084004
:10D39800FFF704BF40200121FFF7F2FE40200021E3
:10D3A800BDE80840FFF7ECBE80200121FFF7E8FE4A
:10D3B80080200021BDE80840FFF7E2BE0185828297
:10D3C800704700BF038829B923F001010A04130C30
:10D3D8000380704799B241F001020280704700BF94
:10D3E8000B88F0B4002B32D0042B58D0082B028CB9
:10D3F8004E8800F082808F880D89CC8822F4805175
:10D408000B041A0C0284818B038C21F4407223F4E0
:10D41800005112054B045B0C110D41EA072243EA47
:10D4280006318BB242EA053291B243F480528183CD
:10D438000284838B23F440610A04130C8383818B59
:10D448008AB242EA042399B28183F0BC7047038C04
:10D458004E888D880F89CC8823F001010A04130CAB
:10D468000384018B038C21F0F30211040A0C23F0CE
:10D478000A0342EA07111B048AB21B0C46F0010199
:10D488000B432A4302830384028B22F00C03190402
:10D498000A0C0283038B99B221430183D5E7028CDE
:10D4A8004E888D880F89CC8822F010010B041A0C45
:10D4B8000284018B038C21F44072110523F0A00330
:10D4C8000A0D190442EA07320B0C43EA061391B21B
:10D4D80041EA052299B241F0100392B20283038413
:10D4E800018B21F440621304190C0183028B93B25F
:10D4F80043EA04218AB20283A7E722F48072130464
:10D508008D880F89CC88190C0184828B038C22F0BA
:10D51800F30123F420630A041904120C0B0C43EAE8
:10D52800062342EA07118AB299B241F480732A436A
:10D5380082830384828B22F00C010B041A0C8283F1
:10D54800818B8BB2234383837FE700BF006C7047D6
:10D5580083899BB21AB923EA010181817047194373
:10D5680081817047038A828911EA030092B203D04D
:10D5780011420CBF00200120704700BFC9438AB286
:10D5880002827047A0F85010704700BF4FF46D43F7
:10D5980040F0BF60CEF2000340F40031D96070471C
:10D5A800C37830B47BB902784FF461435109CEF2A5
:10D5B800000302F01F022031012000FA02F243F8B2
:10D5C800212030BC70474FF46D44CEF200044578FA
:10D5D800E16884780378CA43C2F30222C2F10401E5
:10D5E800C9B205FA01F10F2545FA02F2C9B2224083
:10D5F8000A4303F16043110103F56143CAB283F89A
:10D60800002300784FF46143410900F01F02CEF275
:10D618000003012000FA02F243F82120D1E700BFFD
:10D6280021F060414FF46D4321F07F02CEF20003F8
:10D6380010439860704700BF82B04FF42051002318
:10D64800C4F200010193C868400617D44FF0FF32B6
:10D65800CA6000E048B9C868019B5A1C0192019B46
:10D66800B3F5803F00F04000F4D14FF42051C4F2EC
:10D678000001CA68C2F3801002B070470120FBE7BE
:10D6880038B54FF42054C4F20004CA23532163620E
:10D6980061620546FFF7D0FFA0B1A06820F0400204
:10D6A800A260A1682B6841EA0300A060AA68226111
:10D6B80021696B6841EA03402061E26822F0800139
:10D6C800E16001204FF42053C4F20003FF225A62A4
:10D6D80038BD00BF4FF42051C4F2000182B00023CE
:10D6E800CA205322019348624A62CB6823F0A00003
:10D6F800C86000E04AB9CA68019B581C0190019BA8
:10D70800B3F5003F02F02002F4D14FF42051C4F2E7
:10D718000001FF23C8684B62C0F3401002B0704795
:10D7280038B54FF42053C4F20003002871D19C6827
:10D7380014F0400440F09A80CC700B780020092B3C
:10D748001CD90A3B4CF6CD42DBB2CCF6CC42A2FB4C
:10D7580003050122092BC5F3C0000DD920B10A3BEE
:10D76800DBB20222092B07D9143B03F0FF03951CF7
:10D77800092B05F0FF02F7D81001C0B24A7803431D
:10D788001B04092A7ED90A3A4CF6CD40D2B2CCF60F
:10D79800CC40A0FB0250C0F3C0050120092A0DD9D6
:10D7A80025B10A3AD2B20220092A07D9143A02F05E
:10D7B800FF02851C092A05F0FF00F7D80001C5B251
:10D7C80089782A43120209295ED90A394CF6CD40D4
:10D7D800C9B2CCF6CC40A0FB0150C0F3C005012073
:10D7E80009290DD925B10A39C9B20220092907D951
:10D7F800143901F0FF01851C092905F0FF00F7D84D
:10D808000001C5B2234343EA0204294344EA01055F
:10D818000DE09D6815F040042BD1CC704D780A7846
:10D828008B78290241EA0240184340EA04054FF484
:10D838002054C4F20004CA22532362626362FFF7D1
:10D84800FBFE60B105F07F3525F0FE452560E068F8
:10D8580020F08001E160A26891060DD501204FF407
:10D868002053C4F20003FF21596238BDCD782C043F
:10D8780063E7C8780404D1E7FFF72CFF003018BF2E
:10D888000120ECE700259BE70025BBE74FF4205378
:10D89800C4F20003F0B41B68C3F30544C3F30622C3
:10D8A80003F4800CE7B2D6B203F07F054FEA1C4CB4
:10D8B8000F704E708D7081F803C0B8B93F093609F2
:10D8C8002D0907EB870004F00F0406EB860602F02B
:10D8D8000F0205EB850503F00F0304EB400702EB8D
:10D8E800460603EB45050F704E708D70F0BC70470F
:10D8F8004FF42053C4F20003986A5B68704700BF76
:10D908004FF42053C4F20003CA2253215A625962C9
:10D918009A6822F0070199609A6810439860FF207E
:10D92800586270474FF42053C4F20003CA225321AF
